{
	"contracts/MarketPlace.sol": {
		"MarketPlace": {
			"abi": [
				{
					"anonymous": false,
					"inputs": [
						{
							"indexed": true,
							"internalType": "address",
							"name": "previousOwner",
							"type": "address"
						},
						{
							"indexed": true,
							"internalType": "address",
							"name": "newOwner",
							"type": "address"
						}
					],
					"name": "OwnershipTransferred",
					"type": "event"
				},
				{
					"inputs": [
						{
							"internalType": "string",
							"name": "_name",
							"type": "string"
						},
						{
							"internalType": "string",
							"name": "_description",
							"type": "string"
						},
						{
							"internalType": "string",
							"name": "_link",
							"type": "string"
						},
						{
							"internalType": "string[]",
							"name": "_tags",
							"type": "string[]"
						}
					],
					"name": "addNonSellableProduct",
					"outputs": [],
					"stateMutability": "nonpayable",
					"type": "function"
				},
				{
					"inputs": [
						{
							"internalType": "uint256",
							"name": "productId",
							"type": "uint256"
						},
						{
							"internalType": "address",
							"name": "productSeller",
							"type": "address"
						}
					],
					"name": "buyProduct",
					"outputs": [],
					"stateMutability": "payable",
					"type": "function"
				},
				{
					"inputs": [
						{
							"internalType": "string",
							"name": "partialTitle",
							"type": "string"
						},
						{
							"internalType": "string",
							"name": "category",
							"type": "string"
						},
						{
							"internalType": "address",
							"name": "owner",
							"type": "address"
						},
						{
							"internalType": "uint256",
							"name": "date",
							"type": "uint256"
						},
						{
							"internalType": "uint256",
							"name": "startIndexForSearch",
							"type": "uint256"
						},
						{
							"internalType": "uint256",
							"name": "maxResults",
							"type": "uint256"
						}
					],
					"name": "filterSellingProducts",
					"outputs": [
						{
							"internalType": "uint256",
							"name": "",
							"type": "uint256"
						},
						{
							"components": [
								{
									"internalType": "uint256",
									"name": "id",
									"type": "uint256"
								},
								{
									"internalType": "address",
									"name": "owner",
									"type": "address"
								},
								{
									"internalType": "string",
									"name": "name",
									"type": "string"
								},
								{
									"internalType": "string",
									"name": "description",
									"type": "string"
								},
								{
									"internalType": "string",
									"name": "link",
									"type": "string"
								},
								{
									"internalType": "string[]",
									"name": "tags",
									"type": "string[]"
								},
								{
									"internalType": "bool",
									"name": "forSale",
									"type": "bool"
								}
							],
							"internalType": "struct MarketPlace.Product[]",
							"name": "",
							"type": "tuple[]"
						}
					],
					"stateMutability": "view",
					"type": "function"
				},
				{
					"inputs": [
						{
							"internalType": "uint256",
							"name": "startIndexForSearch",
							"type": "uint256"
						},
						{
							"internalType": "uint256",
							"name": "maxResults",
							"type": "uint256"
						}
					],
					"name": "getAllProductsForSale",
					"outputs": [
						{
							"internalType": "uint256",
							"name": "",
							"type": "uint256"
						},
						{
							"components": [
								{
									"internalType": "uint256",
									"name": "id",
									"type": "uint256"
								},
								{
									"internalType": "address",
									"name": "owner",
									"type": "address"
								},
								{
									"internalType": "string",
									"name": "name",
									"type": "string"
								},
								{
									"internalType": "string",
									"name": "description",
									"type": "string"
								},
								{
									"internalType": "string",
									"name": "link",
									"type": "string"
								},
								{
									"internalType": "string[]",
									"name": "tags",
									"type": "string[]"
								},
								{
									"internalType": "bool",
									"name": "forSale",
									"type": "bool"
								}
							],
							"internalType": "struct MarketPlace.Product[]",
							"name": "",
							"type": "tuple[]"
						}
					],
					"stateMutability": "view",
					"type": "function"
				},
				{
					"inputs": [
						{
							"internalType": "uint256",
							"name": "productId",
							"type": "uint256"
						}
					],
					"name": "getHistoryForProduct",
					"outputs": [
						{
							"components": [
								{
									"internalType": "uint256",
									"name": "price",
									"type": "uint256"
								},
								{
									"internalType": "uint256",
									"name": "fees",
									"type": "uint256"
								},
								{
									"internalType": "uint256",
									"name": "datetime",
									"type": "uint256"
								},
								{
									"internalType": "address",
									"name": "seller",
									"type": "address"
								},
								{
									"internalType": "address",
									"name": "buyer",
									"type": "address"
								}
							],
							"internalType": "struct MarketPlace.TransactionDetails[]",
							"name": "",
							"type": "tuple[]"
						}
					],
					"stateMutability": "view",
					"type": "function"
				},
				{
					"inputs": [
						{
							"internalType": "uint256",
							"name": "productId",
							"type": "uint256"
						}
					],
					"name": "getSellableProductDetails",
					"outputs": [
						{
							"components": [
								{
									"internalType": "uint256",
									"name": "price",
									"type": "uint256"
								},
								{
									"internalType": "uint256",
									"name": "fees",
									"type": "uint256"
								},
								{
									"internalType": "uint256",
									"name": "datetime",
									"type": "uint256"
								},
								{
									"components": [
										{
											"internalType": "uint256",
											"name": "id",
											"type": "uint256"
										},
										{
											"internalType": "address",
											"name": "owner",
											"type": "address"
										},
										{
											"internalType": "string",
											"name": "name",
											"type": "string"
										},
										{
											"internalType": "string",
											"name": "description",
											"type": "string"
										},
										{
											"internalType": "string",
											"name": "link",
											"type": "string"
										},
										{
											"internalType": "string[]",
											"name": "tags",
											"type": "string[]"
										},
										{
											"internalType": "bool",
											"name": "forSale",
											"type": "bool"
										}
									],
									"internalType": "struct MarketPlace.Product",
									"name": "product",
									"type": "tuple"
								}
							],
							"internalType": "struct MarketPlace.SellableProduct",
							"name": "",
							"type": "tuple"
						}
					],
					"stateMutability": "view",
					"type": "function"
				},
				{
					"inputs": [
						{
							"internalType": "uint256",
							"name": "_productId",
							"type": "uint256"
						},
						{
							"internalType": "uint256",
							"name": "_price",
							"type": "uint256"
						}
					],
					"name": "listExistingProductForSale",
					"outputs": [],
					"stateMutability": "nonpayable",
					"type": "function"
				},
				{
					"inputs": [
						{
							"internalType": "string",
							"name": "_name",
							"type": "string"
						},
						{
							"internalType": "string",
							"name": "_description",
							"type": "string"
						},
						{
							"internalType": "string",
							"name": "_link",
							"type": "string"
						},
						{
							"internalType": "string[]",
							"name": "_tags",
							"type": "string[]"
						},
						{
							"internalType": "uint256",
							"name": "_price",
							"type": "uint256"
						}
					],
					"name": "listProductForSale",
					"outputs": [],
					"stateMutability": "nonpayable",
					"type": "function"
				},
				{
					"inputs": [
						{
							"internalType": "address",
							"name": "",
							"type": "address"
						},
						{
							"internalType": "uint256",
							"name": "",
							"type": "uint256"
						}
					],
					"name": "ownedSellableProducts",
					"outputs": [
						{
							"internalType": "uint256",
							"name": "price",
							"type": "uint256"
						},
						{
							"internalType": "uint256",
							"name": "fees",
							"type": "uint256"
						},
						{
							"internalType": "uint256",
							"name": "datetime",
							"type": "uint256"
						},
						{
							"components": [
								{
									"internalType": "uint256",
									"name": "id",
									"type": "uint256"
								},
								{
									"internalType": "address",
									"name": "owner",
									"type": "address"
								},
								{
									"internalType": "string",
									"name": "name",
									"type": "string"
								},
								{
									"internalType": "string",
									"name": "description",
									"type": "string"
								},
								{
									"internalType": "string",
									"name": "link",
									"type": "string"
								},
								{
									"internalType": "string[]",
									"name": "tags",
									"type": "string[]"
								},
								{
									"internalType": "bool",
									"name": "forSale",
									"type": "bool"
								}
							],
							"internalType": "struct MarketPlace.Product",
							"name": "product",
							"type": "tuple"
						}
					],
					"stateMutability": "view",
					"type": "function"
				},
				{
					"inputs": [],
					"name": "owner",
					"outputs": [
						{
							"internalType": "address",
							"name": "",
							"type": "address"
						}
					],
					"stateMutability": "view",
					"type": "function"
				},
				{
					"inputs": [
						{
							"internalType": "uint256",
							"name": "",
							"type": "uint256"
						},
						{
							"internalType": "uint256",
							"name": "",
							"type": "uint256"
						}
					],
					"name": "productHistory",
					"outputs": [
						{
							"internalType": "uint256",
							"name": "price",
							"type": "uint256"
						},
						{
							"internalType": "uint256",
							"name": "fees",
							"type": "uint256"
						},
						{
							"internalType": "uint256",
							"name": "datetime",
							"type": "uint256"
						},
						{
							"internalType": "address",
							"name": "seller",
							"type": "address"
						},
						{
							"internalType": "address",
							"name": "buyer",
							"type": "address"
						}
					],
					"stateMutability": "view",
					"type": "function"
				},
				{
					"inputs": [],
					"name": "renounceOwnership",
					"outputs": [],
					"stateMutability": "nonpayable",
					"type": "function"
				},
				{
					"inputs": [
						{
							"internalType": "uint256",
							"name": "_feePercentage",
							"type": "uint256"
						}
					],
					"name": "setFeePercentage",
					"outputs": [],
					"stateMutability": "nonpayable",
					"type": "function"
				},
				{
					"inputs": [
						{
							"internalType": "address",
							"name": "newOwner",
							"type": "address"
						}
					],
					"name": "transferOwnership",
					"outputs": [],
					"stateMutability": "nonpayable",
					"type": "function"
				}
			],
			"devdoc": {
				"kind": "dev",
				"methods": {
					"owner()": {
						"details": "Returns the address of the current owner."
					},
					"renounceOwnership()": {
						"details": "Leaves the contract without owner. It will not be possible to call `onlyOwner` functions anymore. Can only be called by the current owner. NOTE: Renouncing ownership will leave the contract without an owner, thereby removing any functionality that is only available to the owner."
					},
					"transferOwnership(address)": {
						"details": "Transfers ownership of the contract to a new account (`newOwner`). Can only be called by the current owner."
					}
				},
				"version": 1
			},
			"evm": {
				"assembly": "    /* \"contracts/MarketPlace.sol\":62:7942  contract MarketPlace is Ownable {\r... */\n  mstore(0x40, 0x80)\n    /* \"contracts/MarketPlace.sol\":649:650  0 */\n  0x00\n    /* \"contracts/MarketPlace.sol\":623:650  uint256 private idCount = 0 */\n  0x01\n  sstore\n    /* \"contracts/MarketPlace.sol\":984:985  2 */\n  0x02\n    /* \"contracts/MarketPlace.sol\":947:985  uint256 private feePricePercentage = 2 */\n  0x06\n  sstore\n    /* \"contracts/MarketPlace.sol\":62:7942  contract MarketPlace is Ownable {\r... */\n  callvalue\n  dup1\n  iszero\n  tag_1\n  jumpi\n  0x00\n  dup1\n  revert\ntag_1:\n  pop\n    /* \"contracts/Ownable.sol\":950:982  _transferOwnership(_msgSender()) */\n  tag_4\n    /* \"contracts/Ownable.sol\":969:981  _msgSender() */\n  tag_5\n    /* \"contracts/Ownable.sol\":969:979  _msgSender */\n  shl(0x20, tag_6)\n    /* \"contracts/Ownable.sol\":969:981  _msgSender() */\n  0x20\n  shr\n  jump\t// in\ntag_5:\n    /* \"contracts/Ownable.sol\":950:968  _transferOwnership */\n  shl(0x20, tag_7)\n    /* \"contracts/Ownable.sol\":950:982  _transferOwnership(_msgSender()) */\n  0x20\n  shr\n  jump\t// in\ntag_4:\n    /* \"contracts/MarketPlace.sol\":62:7942  contract MarketPlace is Ownable {\r... */\n  jump(tag_8)\n    /* \"contracts/Context.sol\":656:754  function _msgSender() internal view virtual returns (address) {\r... */\ntag_6:\n    /* \"contracts/Context.sol\":709:716  address */\n  0x00\n    /* \"contracts/Context.sol\":736:746  msg.sender */\n  caller\n    /* \"contracts/Context.sol\":729:746  return msg.sender */\n  swap1\n  pop\n    /* \"contracts/Context.sol\":656:754  function _msgSender() internal view virtual returns (address) {\r... */\n  swap1\n  jump\t// out\n    /* \"contracts/Ownable.sol\":2341:2532  function _transferOwnership(address newOwner) internal virtual {\r... */\ntag_7:\n    /* \"contracts/Ownable.sol\":2415:2431  address oldOwner */\n  0x00\n    /* \"contracts/Ownable.sol\":2434:2440  _owner */\n  dup1\n  0x00\n  swap1\n  sload\n  swap1\n  0x0100\n  exp\n  swap1\n  div\n  0xffffffffffffffffffffffffffffffffffffffff\n  and\n    /* \"contracts/Ownable.sol\":2415:2440  address oldOwner = _owner */\n  swap1\n  pop\n    /* \"contracts/Ownable.sol\":2460:2468  newOwner */\n  dup2\n    /* \"contracts/Ownable.sol\":2451:2457  _owner */\n  0x00\n  dup1\n    /* \"contracts/Ownable.sol\":2451:2468  _owner = newOwner */\n  0x0100\n  exp\n  dup2\n  sload\n  dup2\n  0xffffffffffffffffffffffffffffffffffffffff\n  mul\n  not\n  and\n  swap1\n  dup4\n  0xffffffffffffffffffffffffffffffffffffffff\n  and\n  mul\n  or\n  swap1\n  sstore\n  pop\n    /* \"contracts/Ownable.sol\":2515:2523  newOwner */\n  dup2\n    /* \"contracts/Ownable.sol\":2484:2524  OwnershipTransferred(oldOwner, newOwner) */\n  0xffffffffffffffffffffffffffffffffffffffff\n  and\n    /* \"contracts/Ownable.sol\":2505:2513  oldOwner */\n  dup2\n    /* \"contracts/Ownable.sol\":2484:2524  OwnershipTransferred(oldOwner, newOwner) */\n  0xffffffffffffffffffffffffffffffffffffffff\n  and\n  0x8be0079c531659141344cd1fd0a4f28419497f9722a3daafe3b4186f6b6457e0\n  mload(0x40)\n  mload(0x40)\n  dup1\n  swap2\n  sub\n  swap1\n  log3\n    /* \"contracts/Ownable.sol\":2404:2532  {\r... */\n  pop\n    /* \"contracts/Ownable.sol\":2341:2532  function _transferOwnership(address newOwner) internal virtual {\r... */\n  pop\n  jump\t// out\n    /* \"contracts/MarketPlace.sol\":62:7942  contract MarketPlace is Ownable {\r... */\ntag_8:\n  dataSize(sub_0)\n  dup1\n  dataOffset(sub_0)\n  0x00\n  codecopy\n  0x00\n  return\nstop\n\nsub_0: assembly {\n        /* \"contracts/MarketPlace.sol\":62:7942  contract MarketPlace is Ownable {\r... */\n      mstore(0x40, 0x80)\n      jumpi(tag_1, lt(calldatasize, 0x04))\n      shr(0xe0, calldataload(0x00))\n      dup1\n      0xa3274c21\n      gt\n      tag_16\n      jumpi\n      dup1\n      0xdd46fa5d\n      gt\n      tag_17\n      jumpi\n      dup1\n      0xdd46fa5d\n      eq\n      tag_12\n      jumpi\n      dup1\n      0xe31465df\n      eq\n      tag_13\n      jumpi\n      dup1\n      0xf2fde38b\n      eq\n      tag_14\n      jumpi\n      dup1\n      0xfe3d5538\n      eq\n      tag_15\n      jumpi\n      jump(tag_1)\n    tag_17:\n      dup1\n      0xa3274c21\n      eq\n      tag_9\n      jumpi\n      dup1\n      0xae06c1b7\n      eq\n      tag_10\n      jumpi\n      dup1\n      0xbed59eae\n      eq\n      tag_11\n      jumpi\n      jump(tag_1)\n    tag_16:\n      dup1\n      0x6d168461\n      gt\n      tag_18\n      jumpi\n      dup1\n      0x6d168461\n      eq\n      tag_5\n      jumpi\n      dup1\n      0x715018a6\n      eq\n      tag_6\n      jumpi\n      dup1\n      0x8da5cb5b\n      eq\n      tag_7\n      jumpi\n      dup1\n      0x9ccbff6b\n      eq\n      tag_8\n      jumpi\n      jump(tag_1)\n    tag_18:\n      dup1\n      0x0e448c1e\n      eq\n      tag_2\n      jumpi\n      dup1\n      0x22634d21\n      eq\n      tag_3\n      jumpi\n      dup1\n      0x3a7d2376\n      eq\n      tag_4\n      jumpi\n    tag_1:\n      0x00\n      dup1\n      revert\n        /* \"contracts/MarketPlace.sol\":1351:1806  function listProductForSale(string memory _name, string memory _description, string memory _link, string[] memory _tags, uint256 _price) external {\r... */\n    tag_2:\n      callvalue\n      dup1\n      iszero\n      tag_19\n      jumpi\n      0x00\n      dup1\n      revert\n    tag_19:\n      pop\n      tag_20\n      0x04\n      dup1\n      calldatasize\n      sub\n      dup2\n      add\n      swap1\n      tag_21\n      swap2\n      swap1\n      tag_22\n      jump\t// in\n    tag_21:\n      tag_23\n      jump\t// in\n    tag_20:\n      stop\n        /* \"contracts/MarketPlace.sol\":659:743  mapping(address => mapping(uint256 => SellableProduct)) public ownedSellableProducts */\n    tag_3:\n      callvalue\n      dup1\n      iszero\n      tag_24\n      jumpi\n      0x00\n      dup1\n      revert\n    tag_24:\n      pop\n      tag_25\n      0x04\n      dup1\n      calldatasize\n      sub\n      dup2\n      add\n      swap1\n      tag_26\n      swap2\n      swap1\n      tag_27\n      jump\t// in\n    tag_26:\n      tag_28\n      jump\t// in\n    tag_25:\n      mload(0x40)\n      tag_29\n      swap5\n      swap4\n      swap3\n      swap2\n      swap1\n      tag_30\n      jump\t// in\n    tag_29:\n      mload(0x40)\n      dup1\n      swap2\n      sub\n      swap1\n      return\n        /* \"contracts/MarketPlace.sol\":841:903  mapping(uint256 => TransactionDetails[]) public productHistory */\n    tag_4:\n      callvalue\n      dup1\n      iszero\n      tag_31\n      jumpi\n      0x00\n      dup1\n      revert\n    tag_31:\n      pop\n      tag_32\n      0x04\n      dup1\n      calldatasize\n      sub\n      dup2\n      add\n      swap1\n      tag_33\n      swap2\n      swap1\n      tag_34\n      jump\t// in\n    tag_33:\n      tag_35\n      jump\t// in\n    tag_32:\n      mload(0x40)\n      tag_36\n      swap6\n      swap5\n      swap4\n      swap3\n      swap2\n      swap1\n      tag_37\n      jump\t// in\n    tag_36:\n      mload(0x40)\n      dup1\n      swap2\n      sub\n      swap1\n      return\n        /* \"contracts/MarketPlace.sol\":4451:5008  function getAllProductsForSale(uint256 startIndexForSearch, uint256 maxResults) external view returns (uint256, Product[] memory) {\r... */\n    tag_5:\n      callvalue\n      dup1\n      iszero\n      tag_38\n      jumpi\n      0x00\n      dup1\n      revert\n    tag_38:\n      pop\n      tag_39\n      0x04\n      dup1\n      calldatasize\n      sub\n      dup2\n      add\n      swap1\n      tag_40\n      swap2\n      swap1\n      tag_34\n      jump\t// in\n    tag_40:\n      tag_41\n      jump\t// in\n    tag_39:\n      mload(0x40)\n      tag_42\n      swap3\n      swap2\n      swap1\n      tag_43\n      jump\t// in\n    tag_42:\n      mload(0x40)\n      dup1\n      swap2\n      sub\n      swap1\n      return\n        /* \"contracts/Ownable.sol\":1722:1825  function renounceOwnership() public virtual onlyOwner {\r... */\n    tag_6:\n      callvalue\n      dup1\n      iszero\n      tag_44\n      jumpi\n      0x00\n      dup1\n      revert\n    tag_44:\n      pop\n      tag_45\n      tag_46\n      jump\t// in\n    tag_45:\n      stop\n        /* \"contracts/Ownable.sol\":1071:1158  function owner() public view virtual returns (address) {\r... */\n    tag_7:\n      callvalue\n      dup1\n      iszero\n      tag_47\n      jumpi\n      0x00\n      dup1\n      revert\n    tag_47:\n      pop\n      tag_48\n      tag_49\n      jump\t// in\n    tag_48:\n      mload(0x40)\n      tag_50\n      swap2\n      swap1\n      tag_51\n      jump\t// in\n    tag_50:\n      mload(0x40)\n      dup1\n      swap2\n      sub\n      swap1\n      return\n        /* \"contracts/MarketPlace.sol\":5016:6718  function filterSellingProducts(string memory partialTitle, string memory category, address owner, uint256 date, uint256 startIndexForSearch, uint256 maxResults) external view returns (uint256, Product[] memory) {\r... */\n    tag_8:\n      callvalue\n      dup1\n      iszero\n      tag_52\n      jumpi\n      0x00\n      dup1\n      revert\n    tag_52:\n      pop\n      tag_53\n      0x04\n      dup1\n      calldatasize\n      sub\n      dup2\n      add\n      swap1\n      tag_54\n      swap2\n      swap1\n      tag_55\n      jump\t// in\n    tag_54:\n      tag_56\n      jump\t// in\n    tag_53:\n      mload(0x40)\n      tag_57\n      swap3\n      swap2\n      swap1\n      tag_43\n      jump\t// in\n    tag_57:\n      mload(0x40)\n      dup1\n      swap2\n      sub\n      swap1\n      return\n        /* \"contracts/MarketPlace.sol\":3587:4443  function buyProduct(uint256 productId, address productSeller) external payable {\r... */\n    tag_9:\n      tag_58\n      0x04\n      dup1\n      calldatasize\n      sub\n      dup2\n      add\n      swap1\n      tag_59\n      swap2\n      swap1\n      tag_60\n      jump\t// in\n    tag_59:\n      tag_61\n      jump\t// in\n    tag_58:\n      stop\n        /* \"contracts/MarketPlace.sol\":994:1117  function setFeePercentage(uint256 _feePercentage) external onlyOwner {\r... */\n    tag_10:\n      callvalue\n      dup1\n      iszero\n      tag_62\n      jumpi\n      0x00\n      dup1\n      revert\n    tag_62:\n      pop\n      tag_63\n      0x04\n      dup1\n      calldatasize\n      sub\n      dup2\n      add\n      swap1\n      tag_64\n      swap2\n      swap1\n      tag_65\n      jump\t// in\n    tag_64:\n      tag_66\n      jump\t// in\n    tag_63:\n      stop\n        /* \"contracts/MarketPlace.sol\":6886:7158  function getSellableProductDetails(uint256 productId) external view returns (SellableProduct memory) {\r... */\n    tag_11:\n      callvalue\n      dup1\n      iszero\n      tag_67\n      jumpi\n      0x00\n      dup1\n      revert\n    tag_67:\n      pop\n      tag_68\n      0x04\n      dup1\n      calldatasize\n      sub\n      dup2\n      add\n      swap1\n      tag_69\n      swap2\n      swap1\n      tag_65\n      jump\t// in\n    tag_69:\n      tag_70\n      jump\t// in\n    tag_68:\n      mload(0x40)\n      tag_71\n      swap2\n      swap1\n      tag_72\n      jump\t// in\n    tag_71:\n      mload(0x40)\n      dup1\n      swap2\n      sub\n      swap1\n      return\n        /* \"contracts/MarketPlace.sol\":1814:2183  function addNonSellableProduct(string memory _name, string memory _description, string memory _link, string[] memory _tags) external {\r... */\n    tag_12:\n      callvalue\n      dup1\n      iszero\n      tag_73\n      jumpi\n      0x00\n      dup1\n      revert\n    tag_73:\n      pop\n      tag_74\n      0x04\n      dup1\n      calldatasize\n      sub\n      dup2\n      add\n      swap1\n      tag_75\n      swap2\n      swap1\n      tag_76\n      jump\t// in\n    tag_75:\n      tag_77\n      jump\t// in\n    tag_74:\n      stop\n        /* \"contracts/MarketPlace.sol\":3279:3575  function listExistingProductForSale(uint256 _productId, uint256 _price) external {\r... */\n    tag_13:\n      callvalue\n      dup1\n      iszero\n      tag_78\n      jumpi\n      0x00\n      dup1\n      revert\n    tag_78:\n      pop\n      tag_79\n      0x04\n      dup1\n      calldatasize\n      sub\n      dup2\n      add\n      swap1\n      tag_80\n      swap2\n      swap1\n      tag_34\n      jump\t// in\n    tag_80:\n      tag_81\n      jump\t// in\n    tag_79:\n      stop\n        /* \"contracts/Ownable.sol\":1980:2181  function transferOwnership(address newOwner) public virtual onlyOwner {\r... */\n    tag_14:\n      callvalue\n      dup1\n      iszero\n      tag_82\n      jumpi\n      0x00\n      dup1\n      revert\n    tag_82:\n      pop\n      tag_83\n      0x04\n      dup1\n      calldatasize\n      sub\n      dup2\n      add\n      swap1\n      tag_84\n      swap2\n      swap1\n      tag_85\n      jump\t// in\n    tag_84:\n      tag_86\n      jump\t// in\n    tag_83:\n      stop\n        /* \"contracts/MarketPlace.sol\":6726:6878  function getHistoryForProduct(uint256 productId) external view returns (TransactionDetails[] memory) {\r... */\n    tag_15:\n      callvalue\n      dup1\n      iszero\n      tag_87\n      jumpi\n      0x00\n      dup1\n      revert\n    tag_87:\n      pop\n      tag_88\n      0x04\n      dup1\n      calldatasize\n      sub\n      dup2\n      add\n      swap1\n      tag_89\n      swap2\n      swap1\n      tag_65\n      jump\t// in\n    tag_89:\n      tag_90\n      jump\t// in\n    tag_88:\n      mload(0x40)\n      tag_91\n      swap2\n      swap1\n      tag_92\n      jump\t// in\n    tag_91:\n      mload(0x40)\n      dup1\n      swap2\n      sub\n      swap1\n      return\n        /* \"contracts/MarketPlace.sol\":1351:1806  function listProductForSale(string memory _name, string memory _description, string memory _link, string[] memory _tags, uint256 _price) external {\r... */\n    tag_23:\n        /* \"contracts/MarketPlace.sol\":1508:1518  uint256 id */\n      0x00\n        /* \"contracts/MarketPlace.sol\":1521:1528  idCount */\n      0x01\n      0x00\n        /* \"contracts/MarketPlace.sol\":1521:1530  idCount++ */\n      dup2\n      sload\n      dup1\n      swap3\n      swap2\n      swap1\n      tag_94\n      swap1\n      tag_95\n      jump\t// in\n    tag_94:\n      swap2\n      swap1\n      pop\n      sstore\n        /* \"contracts/MarketPlace.sol\":1508:1530  uint256 id = idCount++ */\n      swap1\n      pop\n        /* \"contracts/MarketPlace.sol\":1541:1563  Product memory product */\n      0x00\n        /* \"contracts/MarketPlace.sol\":1566:1630  Product(id, msg.sender, _name, _description, _link, _tags, true) */\n      mload(0x40)\n      dup1\n      0xe0\n      add\n      0x40\n      mstore\n      dup1\n        /* \"contracts/MarketPlace.sol\":1574:1576  id */\n      dup4\n        /* \"contracts/MarketPlace.sol\":1566:1630  Product(id, msg.sender, _name, _description, _link, _tags, true) */\n      dup2\n      mstore\n      0x20\n      add\n        /* \"contracts/MarketPlace.sol\":1578:1588  msg.sender */\n      caller\n        /* \"contracts/MarketPlace.sol\":1566:1630  Product(id, msg.sender, _name, _description, _link, _tags, true) */\n      0xffffffffffffffffffffffffffffffffffffffff\n      and\n      dup2\n      mstore\n      0x20\n      add\n        /* \"contracts/MarketPlace.sol\":1590:1595  _name */\n      dup9\n        /* \"contracts/MarketPlace.sol\":1566:1630  Product(id, msg.sender, _name, _description, _link, _tags, true) */\n      dup2\n      mstore\n      0x20\n      add\n        /* \"contracts/MarketPlace.sol\":1597:1609  _description */\n      dup8\n        /* \"contracts/MarketPlace.sol\":1566:1630  Product(id, msg.sender, _name, _description, _link, _tags, true) */\n      dup2\n      mstore\n      0x20\n      add\n        /* \"contracts/MarketPlace.sol\":1611:1616  _link */\n      dup7\n        /* \"contracts/MarketPlace.sol\":1566:1630  Product(id, msg.sender, _name, _description, _link, _tags, true) */\n      dup2\n      mstore\n      0x20\n      add\n        /* \"contracts/MarketPlace.sol\":1618:1623  _tags */\n      dup6\n        /* \"contracts/MarketPlace.sol\":1566:1630  Product(id, msg.sender, _name, _description, _link, _tags, true) */\n      dup2\n      mstore\n      0x20\n      add\n        /* \"contracts/MarketPlace.sol\":1625:1629  true */\n      0x01\n        /* \"contracts/MarketPlace.sol\":1566:1630  Product(id, msg.sender, _name, _description, _link, _tags, true) */\n      iszero\n      iszero\n      dup2\n      mstore\n      pop\n        /* \"contracts/MarketPlace.sol\":1541:1630  Product memory product = Product(id, msg.sender, _name, _description, _link, _tags, true) */\n      swap1\n      pop\n        /* \"contracts/MarketPlace.sol\":1641:1649  products */\n      0x05\n        /* \"contracts/MarketPlace.sol\":1655:1662  product */\n      dup2\n        /* \"contracts/MarketPlace.sol\":1641:1663  products.push(product) */\n      swap1\n      dup1\n      0x01\n      dup2\n      sload\n      add\n      dup1\n      dup3\n      sstore\n      dup1\n      swap2\n      pop\n      pop\n      0x01\n      swap1\n      sub\n      swap1\n      0x00\n      mstore\n      keccak256(0x00, 0x20)\n      swap1\n      0x07\n      mul\n      add\n      0x00\n      swap1\n      swap2\n      swap1\n      swap2\n      swap1\n      swap2\n      pop\n      0x00\n      dup3\n      add\n      mload\n      dup2\n      0x00\n      add\n      sstore\n      0x20\n      dup3\n      add\n      mload\n      dup2\n      0x01\n      add\n      exp(0x0100, 0x00)\n      dup2\n      sload\n      dup2\n      0xffffffffffffffffffffffffffffffffffffffff\n      mul\n      not\n      and\n      swap1\n      dup4\n      0xffffffffffffffffffffffffffffffffffffffff\n      and\n      mul\n      or\n      swap1\n      sstore\n      pop\n      0x40\n      dup3\n      add\n      mload\n      dup2\n      0x02\n      add\n      swap1\n      dup1\n      mload\n      swap1\n      0x20\n      add\n      swap1\n      tag_97\n      swap3\n      swap2\n      swap1\n      tag_98\n      jump\t// in\n    tag_97:\n      pop\n      0x60\n      dup3\n      add\n      mload\n      dup2\n      0x03\n      add\n      swap1\n      dup1\n      mload\n      swap1\n      0x20\n      add\n      swap1\n      tag_99\n      swap3\n      swap2\n      swap1\n      tag_98\n      jump\t// in\n    tag_99:\n      pop\n      0x80\n      dup3\n      add\n      mload\n      dup2\n      0x04\n      add\n      swap1\n      dup1\n      mload\n      swap1\n      0x20\n      add\n      swap1\n      tag_100\n      swap3\n      swap2\n      swap1\n      tag_98\n      jump\t// in\n    tag_100:\n      pop\n      0xa0\n      dup3\n      add\n      mload\n      dup2\n      0x05\n      add\n      swap1\n      dup1\n      mload\n      swap1\n      0x20\n      add\n      swap1\n      tag_101\n      swap3\n      swap2\n      swap1\n      tag_102\n      jump\t// in\n    tag_101:\n      pop\n      0xc0\n      dup3\n      add\n      mload\n      dup2\n      0x06\n      add\n      exp(0x0100, 0x00)\n      dup2\n      sload\n      dup2\n      0xff\n      mul\n      not\n      and\n      swap1\n      dup4\n      iszero\n      iszero\n      mul\n      or\n      swap1\n      sstore\n      pop\n      pop\n      pop\n        /* \"contracts/MarketPlace.sol\":1714:1798  SellableProduct(_price, _price * feePricePercentage / 100, block.timestamp, product) */\n      mload(0x40)\n      dup1\n      0x80\n      add\n      0x40\n      mstore\n      dup1\n        /* \"contracts/MarketPlace.sol\":1730:1736  _price */\n      dup5\n        /* \"contracts/MarketPlace.sol\":1714:1798  SellableProduct(_price, _price * feePricePercentage / 100, block.timestamp, product) */\n      dup2\n      mstore\n      0x20\n      add\n        /* \"contracts/MarketPlace.sol\":1768:1771  100 */\n      0x64\n        /* \"contracts/MarketPlace.sol\":1747:1765  feePricePercentage */\n      sload(0x06)\n        /* \"contracts/MarketPlace.sol\":1738:1744  _price */\n      dup7\n        /* \"contracts/MarketPlace.sol\":1738:1765  _price * feePricePercentage */\n      tag_103\n      swap2\n      swap1\n      tag_104\n      jump\t// in\n    tag_103:\n        /* \"contracts/MarketPlace.sol\":1738:1771  _price * feePricePercentage / 100 */\n      tag_105\n      swap2\n      swap1\n      tag_106\n      jump\t// in\n    tag_105:\n        /* \"contracts/MarketPlace.sol\":1714:1798  SellableProduct(_price, _price * feePricePercentage / 100, block.timestamp, product) */\n      dup2\n      mstore\n      0x20\n      add\n        /* \"contracts/MarketPlace.sol\":1773:1788  block.timestamp */\n      timestamp\n        /* \"contracts/MarketPlace.sol\":1714:1798  SellableProduct(_price, _price * feePricePercentage / 100, block.timestamp, product) */\n      dup2\n      mstore\n      0x20\n      add\n        /* \"contracts/MarketPlace.sol\":1790:1797  product */\n      dup3\n        /* \"contracts/MarketPlace.sol\":1714:1798  SellableProduct(_price, _price * feePricePercentage / 100, block.timestamp, product) */\n      dup2\n      mstore\n      pop\n        /* \"contracts/MarketPlace.sol\":1674:1695  ownedSellableProducts */\n      0x02\n        /* \"contracts/MarketPlace.sol\":1674:1707  ownedSellableProducts[msg.sender] */\n      0x00\n        /* \"contracts/MarketPlace.sol\":1696:1706  msg.sender */\n      caller\n        /* \"contracts/MarketPlace.sol\":1674:1707  ownedSellableProducts[msg.sender] */\n      0xffffffffffffffffffffffffffffffffffffffff\n      and\n      0xffffffffffffffffffffffffffffffffffffffff\n      and\n      dup2\n      mstore\n      0x20\n      add\n      swap1\n      dup2\n      mstore\n      0x20\n      add\n      0x00\n      keccak256\n        /* \"contracts/MarketPlace.sol\":1674:1711  ownedSellableProducts[msg.sender][id] */\n      0x00\n        /* \"contracts/MarketPlace.sol\":1708:1710  id */\n      dup5\n        /* \"contracts/MarketPlace.sol\":1674:1711  ownedSellableProducts[msg.sender][id] */\n      dup2\n      mstore\n      0x20\n      add\n      swap1\n      dup2\n      mstore\n      0x20\n      add\n      0x00\n      keccak256\n        /* \"contracts/MarketPlace.sol\":1674:1798  ownedSellableProducts[msg.sender][id] = SellableProduct(_price, _price * feePricePercentage / 100, block.timestamp, product) */\n      0x00\n      dup3\n      add\n      mload\n      dup2\n      0x00\n      add\n      sstore\n      0x20\n      dup3\n      add\n      mload\n      dup2\n      0x01\n      add\n      sstore\n      0x40\n      dup3\n      add\n      mload\n      dup2\n      0x02\n      add\n      sstore\n      0x60\n      dup3\n      add\n      mload\n      dup2\n      0x03\n      add\n      0x00\n      dup3\n      add\n      mload\n      dup2\n      0x00\n      add\n      sstore\n      0x20\n      dup3\n      add\n      mload\n      dup2\n      0x01\n      add\n      exp(0x0100, 0x00)\n      dup2\n      sload\n      dup2\n      0xffffffffffffffffffffffffffffffffffffffff\n      mul\n      not\n      and\n      swap1\n      dup4\n      0xffffffffffffffffffffffffffffffffffffffff\n      and\n      mul\n      or\n      swap1\n      sstore\n      pop\n      0x40\n      dup3\n      add\n      mload\n      dup2\n      0x02\n      add\n      swap1\n      dup1\n      mload\n      swap1\n      0x20\n      add\n      swap1\n      tag_107\n      swap3\n      swap2\n      swap1\n      tag_98\n      jump\t// in\n    tag_107:\n      pop\n      0x60\n      dup3\n      add\n      mload\n      dup2\n      0x03\n      add\n      swap1\n      dup1\n      mload\n      swap1\n      0x20\n      add\n      swap1\n      tag_108\n      swap3\n      swap2\n      swap1\n      tag_98\n      jump\t// in\n    tag_108:\n      pop\n      0x80\n      dup3\n      add\n      mload\n      dup2\n      0x04\n      add\n      swap1\n      dup1\n      mload\n      swap1\n      0x20\n      add\n      swap1\n      tag_109\n      swap3\n      swap2\n      swap1\n      tag_98\n      jump\t// in\n    tag_109:\n      pop\n      0xa0\n      dup3\n      add\n      mload\n      dup2\n      0x05\n      add\n      swap1\n      dup1\n      mload\n      swap1\n      0x20\n      add\n      swap1\n      tag_110\n      swap3\n      swap2\n      swap1\n      tag_102\n      jump\t// in\n    tag_110:\n      pop\n      0xc0\n      dup3\n      add\n      mload\n      dup2\n      0x06\n      add\n      exp(0x0100, 0x00)\n      dup2\n      sload\n      dup2\n      0xff\n      mul\n      not\n      and\n      swap1\n      dup4\n      iszero\n      iszero\n      mul\n      or\n      swap1\n      sstore\n      pop\n      pop\n      pop\n      swap1\n      pop\n      pop\n        /* \"contracts/MarketPlace.sol\":1497:1806  {\r... */\n      pop\n      pop\n        /* \"contracts/MarketPlace.sol\":1351:1806  function listProductForSale(string memory _name, string memory _description, string memory _link, string[] memory _tags, uint256 _price) external {\r... */\n      pop\n      pop\n      pop\n      pop\n      pop\n      jump\t// out\n        /* \"contracts/MarketPlace.sol\":659:743  mapping(address => mapping(uint256 => SellableProduct)) public ownedSellableProducts */\n    tag_28:\n      mstore(0x20, 0x02)\n      dup2\n      0x00\n      mstore\n      mstore(0x20, keccak256(0x00, 0x40))\n      dup1\n      0x00\n      mstore\n      keccak256(0x00, 0x40)\n      0x00\n      swap2\n      pop\n      swap2\n      pop\n      pop\n      dup1\n      0x00\n      add\n      sload\n      swap1\n      dup1\n      0x01\n      add\n      sload\n      swap1\n      dup1\n      0x02\n      add\n      sload\n      swap1\n      dup1\n      0x03\n      add\n      mload(0x40)\n      dup1\n      0xe0\n      add\n      0x40\n      mstore\n      swap1\n      dup2\n      0x00\n      dup3\n      add\n      sload\n      dup2\n      mstore\n      0x20\n      add\n      0x01\n      dup3\n      add\n      0x00\n      swap1\n      sload\n      swap1\n      0x0100\n      exp\n      swap1\n      div\n      0xffffffffffffffffffffffffffffffffffffffff\n      and\n      0xffffffffffffffffffffffffffffffffffffffff\n      and\n      0xffffffffffffffffffffffffffffffffffffffff\n      and\n      dup2\n      mstore\n      0x20\n      add\n      0x02\n      dup3\n      add\n      dup1\n      sload\n      tag_111\n      swap1\n      tag_112\n      jump\t// in\n    tag_111:\n      dup1\n      0x1f\n      add\n      0x20\n      dup1\n      swap2\n      div\n      mul\n      0x20\n      add\n      mload(0x40)\n      swap1\n      dup2\n      add\n      0x40\n      mstore\n      dup1\n      swap3\n      swap2\n      swap1\n      dup2\n      dup2\n      mstore\n      0x20\n      add\n      dup3\n      dup1\n      sload\n      tag_113\n      swap1\n      tag_112\n      jump\t// in\n    tag_113:\n      dup1\n      iszero\n      tag_114\n      jumpi\n      dup1\n      0x1f\n      lt\n      tag_115\n      jumpi\n      0x0100\n      dup1\n      dup4\n      sload\n      div\n      mul\n      dup4\n      mstore\n      swap2\n      0x20\n      add\n      swap2\n      jump(tag_114)\n    tag_115:\n      dup3\n      add\n      swap2\n      swap1\n      0x00\n      mstore\n      keccak256(0x00, 0x20)\n      swap1\n    tag_116:\n      dup2\n      sload\n      dup2\n      mstore\n      swap1\n      0x01\n      add\n      swap1\n      0x20\n      add\n      dup1\n      dup4\n      gt\n      tag_116\n      jumpi\n      dup3\n      swap1\n      sub\n      0x1f\n      and\n      dup3\n      add\n      swap2\n    tag_114:\n      pop\n      pop\n      pop\n      pop\n      pop\n      dup2\n      mstore\n      0x20\n      add\n      0x03\n      dup3\n      add\n      dup1\n      sload\n      tag_117\n      swap1\n      tag_112\n      jump\t// in\n    tag_117:\n      dup1\n      0x1f\n      add\n      0x20\n      dup1\n      swap2\n      div\n      mul\n      0x20\n      add\n      mload(0x40)\n      swap1\n      dup2\n      add\n      0x40\n      mstore\n      dup1\n      swap3\n      swap2\n      swap1\n      dup2\n      dup2\n      mstore\n      0x20\n      add\n      dup3\n      dup1\n      sload\n      tag_118\n      swap1\n      tag_112\n      jump\t// in\n    tag_118:\n      dup1\n      iszero\n      tag_119\n      jumpi\n      dup1\n      0x1f\n      lt\n      tag_120\n      jumpi\n      0x0100\n      dup1\n      dup4\n      sload\n      div\n      mul\n      dup4\n      mstore\n      swap2\n      0x20\n      add\n      swap2\n      jump(tag_119)\n    tag_120:\n      dup3\n      add\n      swap2\n      swap1\n      0x00\n      mstore\n      keccak256(0x00, 0x20)\n      swap1\n    tag_121:\n      dup2\n      sload\n      dup2\n      mstore\n      swap1\n      0x01\n      add\n      swap1\n      0x20\n      add\n      dup1\n      dup4\n      gt\n      tag_121\n      jumpi\n      dup3\n      swap1\n      sub\n      0x1f\n      and\n      dup3\n      add\n      swap2\n    tag_119:\n      pop\n      pop\n      pop\n      pop\n      pop\n      dup2\n      mstore\n      0x20\n      add\n      0x04\n      dup3\n      add\n      dup1\n      sload\n      tag_122\n      swap1\n      tag_112\n      jump\t// in\n    tag_122:\n      dup1\n      0x1f\n      add\n      0x20\n      dup1\n      swap2\n      div\n      mul\n      0x20\n      add\n      mload(0x40)\n      swap1\n      dup2\n      add\n      0x40\n      mstore\n      dup1\n      swap3\n      swap2\n      swap1\n      dup2\n      dup2\n      mstore\n      0x20\n      add\n      dup3\n      dup1\n      sload\n      tag_123\n      swap1\n      tag_112\n      jump\t// in\n    tag_123:\n      dup1\n      iszero\n      tag_124\n      jumpi\n      dup1\n      0x1f\n      lt\n      tag_125\n      jumpi\n      0x0100\n      dup1\n      dup4\n      sload\n      div\n      mul\n      dup4\n      mstore\n      swap2\n      0x20\n      add\n      swap2\n      jump(tag_124)\n    tag_125:\n      dup3\n      add\n      swap2\n      swap1\n      0x00\n      mstore\n      keccak256(0x00, 0x20)\n      swap1\n    tag_126:\n      dup2\n      sload\n      dup2\n      mstore\n      swap1\n      0x01\n      add\n      swap1\n      0x20\n      add\n      dup1\n      dup4\n      gt\n      tag_126\n      jumpi\n      dup3\n      swap1\n      sub\n      0x1f\n      and\n      dup3\n      add\n      swap2\n    tag_124:\n      pop\n      pop\n      pop\n      pop\n      pop\n      dup2\n      mstore\n      0x20\n      add\n      0x05\n      dup3\n      add\n      dup1\n      sload\n      dup1\n      0x20\n      mul\n      0x20\n      add\n      mload(0x40)\n      swap1\n      dup2\n      add\n      0x40\n      mstore\n      dup1\n      swap3\n      swap2\n      swap1\n      dup2\n      dup2\n      mstore\n      0x20\n      add\n      0x00\n      swap1\n    tag_127:\n      dup3\n      dup3\n      lt\n      iszero\n      tag_128\n      jumpi\n      dup4\n      dup3\n      swap1\n      0x00\n      mstore\n      keccak256(0x00, 0x20)\n      add\n      dup1\n      sload\n      tag_130\n      swap1\n      tag_112\n      jump\t// in\n    tag_130:\n      dup1\n      0x1f\n      add\n      0x20\n      dup1\n      swap2\n      div\n      mul\n      0x20\n      add\n      mload(0x40)\n      swap1\n      dup2\n      add\n      0x40\n      mstore\n      dup1\n      swap3\n      swap2\n      swap1\n      dup2\n      dup2\n      mstore\n      0x20\n      add\n      dup3\n      dup1\n      sload\n      tag_131\n      swap1\n      tag_112\n      jump\t// in\n    tag_131:\n      dup1\n      iszero\n      tag_132\n      jumpi\n      dup1\n      0x1f\n      lt\n      tag_133\n      jumpi\n      0x0100\n      dup1\n      dup4\n      sload\n      div\n      mul\n      dup4\n      mstore\n      swap2\n      0x20\n      add\n      swap2\n      jump(tag_132)\n    tag_133:\n      dup3\n      add\n      swap2\n      swap1\n      0x00\n      mstore\n      keccak256(0x00, 0x20)\n      swap1\n    tag_134:\n      dup2\n      sload\n      dup2\n      mstore\n      swap1\n      0x01\n      add\n      swap1\n      0x20\n      add\n      dup1\n      dup4\n      gt\n      tag_134\n      jumpi\n      dup3\n      swap1\n      sub\n      0x1f\n      and\n      dup3\n      add\n      swap2\n    tag_132:\n      pop\n      pop\n      pop\n      pop\n      pop\n      dup2\n      mstore\n      0x20\n      add\n      swap1\n      0x01\n      add\n      swap1\n      jump(tag_127)\n    tag_128:\n      pop\n      pop\n      pop\n      pop\n      dup2\n      mstore\n      0x20\n      add\n      0x06\n      dup3\n      add\n      0x00\n      swap1\n      sload\n      swap1\n      0x0100\n      exp\n      swap1\n      div\n      0xff\n      and\n      iszero\n      iszero\n      iszero\n      iszero\n      dup2\n      mstore\n      pop\n      pop\n      swap1\n      pop\n      dup5\n      jump\t// out\n        /* \"contracts/MarketPlace.sol\":841:903  mapping(uint256 => TransactionDetails[]) public productHistory */\n    tag_35:\n      mstore(0x20, 0x04)\n      dup2\n      0x00\n      mstore\n      keccak256(0x00, 0x40)\n      dup2\n      dup2\n      sload\n      dup2\n      lt\n      tag_135\n      jumpi\n      0x00\n      dup1\n      revert\n    tag_135:\n      swap1\n      0x00\n      mstore\n      keccak256(0x00, 0x20)\n      swap1\n      0x05\n      mul\n      add\n      0x00\n      swap2\n      pop\n      swap2\n      pop\n      pop\n      dup1\n      0x00\n      add\n      sload\n      swap1\n      dup1\n      0x01\n      add\n      sload\n      swap1\n      dup1\n      0x02\n      add\n      sload\n      swap1\n      dup1\n      0x03\n      add\n      0x00\n      swap1\n      sload\n      swap1\n      0x0100\n      exp\n      swap1\n      div\n      0xffffffffffffffffffffffffffffffffffffffff\n      and\n      swap1\n      dup1\n      0x04\n      add\n      0x00\n      swap1\n      sload\n      swap1\n      0x0100\n      exp\n      swap1\n      div\n      0xffffffffffffffffffffffffffffffffffffffff\n      and\n      swap1\n      pop\n      dup6\n      jump\t// out\n        /* \"contracts/MarketPlace.sol\":4451:5008  function getAllProductsForSale(uint256 startIndexForSearch, uint256 maxResults) external view returns (uint256, Product[] memory) {\r... */\n    tag_41:\n        /* \"contracts/MarketPlace.sol\":4554:4561  uint256 */\n      0x00\n        /* \"contracts/MarketPlace.sol\":4563:4579  Product[] memory */\n      0x60\n        /* \"contracts/MarketPlace.sol\":4592:4624  Product[] memory productsForSale */\n      0x00\n        /* \"contracts/MarketPlace.sol\":4641:4649  products */\n      0x05\n        /* \"contracts/MarketPlace.sol\":4641:4656  products.length */\n      dup1\n      sload\n      swap1\n      pop\n        /* \"contracts/MarketPlace.sol\":4627:4657  new Product[](products.length) */\n      0xffffffffffffffff\n      dup2\n      gt\n      iszero\n      tag_138\n      jumpi\n      tag_139\n      tag_140\n      jump\t// in\n    tag_139:\n    tag_138:\n      mload(0x40)\n      swap1\n      dup1\n      dup3\n      mstore\n      dup1\n      0x20\n      mul\n      0x20\n      add\n      dup3\n      add\n      0x40\n      mstore\n      dup1\n      iszero\n      tag_141\n      jumpi\n      dup2\n      0x20\n      add\n    tag_142:\n      tag_143\n      tag_144\n      jump\t// in\n    tag_143:\n      dup2\n      mstore\n      0x20\n      add\n      swap1\n      0x01\n      swap1\n      sub\n      swap1\n      dup2\n      tag_142\n      jumpi\n      swap1\n      pop\n    tag_141:\n      pop\n        /* \"contracts/MarketPlace.sol\":4592:4657  Product[] memory productsForSale = new Product[](products.length) */\n      swap1\n      pop\n        /* \"contracts/MarketPlace.sol\":4668:4695  uint productsForSaleCounter */\n      0x00\n        /* \"contracts/MarketPlace.sol\":4710:4716  uint i */\n      dup1\n        /* \"contracts/MarketPlace.sol\":4736:4755  startIndexForSearch */\n      dup7\n        /* \"contracts/MarketPlace.sol\":4732:4755  i = startIndexForSearch */\n      swap1\n      pop\n        /* \"contracts/MarketPlace.sol\":4727:4963  for (i = startIndexForSearch; i < products.length && productsForSaleCounter < maxResults; i++) {\r... */\n    tag_145:\n        /* \"contracts/MarketPlace.sol\":4761:4769  products */\n      0x05\n        /* \"contracts/MarketPlace.sol\":4761:4776  products.length */\n      dup1\n      sload\n      swap1\n      pop\n        /* \"contracts/MarketPlace.sol\":4757:4758  i */\n      dup2\n        /* \"contracts/MarketPlace.sol\":4757:4776  i < products.length */\n      lt\n        /* \"contracts/MarketPlace.sol\":4757:4815  i < products.length && productsForSaleCounter < maxResults */\n      dup1\n      iszero\n      tag_148\n      jumpi\n      pop\n        /* \"contracts/MarketPlace.sol\":4805:4815  maxResults */\n      dup6\n        /* \"contracts/MarketPlace.sol\":4780:4802  productsForSaleCounter */\n      dup3\n        /* \"contracts/MarketPlace.sol\":4780:4815  productsForSaleCounter < maxResults */\n      lt\n        /* \"contracts/MarketPlace.sol\":4757:4815  i < products.length && productsForSaleCounter < maxResults */\n    tag_148:\n        /* \"contracts/MarketPlace.sol\":4727:4963  for (i = startIndexForSearch; i < products.length && productsForSaleCounter < maxResults; i++) {\r... */\n      iszero\n      tag_146\n      jumpi\n        /* \"contracts/MarketPlace.sol\":4841:4849  products */\n      0x05\n        /* \"contracts/MarketPlace.sol\":4850:4851  i */\n      dup2\n        /* \"contracts/MarketPlace.sol\":4841:4852  products[i] */\n      dup2\n      sload\n      dup2\n      lt\n      tag_149\n      jumpi\n      tag_150\n      tag_151\n      jump\t// in\n    tag_150:\n    tag_149:\n      swap1\n      0x00\n      mstore\n      keccak256(0x00, 0x20)\n      swap1\n      0x07\n      mul\n      add\n        /* \"contracts/MarketPlace.sol\":4841:4860  products[i].forSale */\n      0x06\n      add\n      0x00\n      swap1\n      sload\n      swap1\n      0x0100\n      exp\n      swap1\n      div\n      0xff\n      and\n        /* \"contracts/MarketPlace.sol\":4837:4952  if (products[i].forSale) {\r... */\n      iszero\n      tag_153\n      jumpi\n        /* \"contracts/MarketPlace.sol\":4925:4933  products */\n      0x05\n        /* \"contracts/MarketPlace.sol\":4934:4935  i */\n      dup2\n        /* \"contracts/MarketPlace.sol\":4925:4936  products[i] */\n      dup2\n      sload\n      dup2\n      lt\n      tag_154\n      jumpi\n      tag_155\n      tag_151\n      jump\t// in\n    tag_155:\n    tag_154:\n      swap1\n      0x00\n      mstore\n      keccak256(0x00, 0x20)\n      swap1\n      0x07\n      mul\n      add\n        /* \"contracts/MarketPlace.sol\":4881:4936  productsForSale[productsForSaleCounter++] = products[i] */\n      mload(0x40)\n      dup1\n      0xe0\n      add\n      0x40\n      mstore\n      swap1\n      dup2\n      0x00\n      dup3\n      add\n      sload\n      dup2\n      mstore\n      0x20\n      add\n      0x01\n      dup3\n      add\n      0x00\n      swap1\n      sload\n      swap1\n      0x0100\n      exp\n      swap1\n      div\n      0xffffffffffffffffffffffffffffffffffffffff\n      and\n      0xffffffffffffffffffffffffffffffffffffffff\n      and\n      0xffffffffffffffffffffffffffffffffffffffff\n      and\n      dup2\n      mstore\n      0x20\n      add\n      0x02\n      dup3\n      add\n      dup1\n      sload\n      tag_157\n      swap1\n      tag_112\n      jump\t// in\n    tag_157:\n      dup1\n      0x1f\n      add\n      0x20\n      dup1\n      swap2\n      div\n      mul\n      0x20\n      add\n      mload(0x40)\n      swap1\n      dup2\n      add\n      0x40\n      mstore\n      dup1\n      swap3\n      swap2\n      swap1\n      dup2\n      dup2\n      mstore\n      0x20\n      add\n      dup3\n      dup1\n      sload\n      tag_158\n      swap1\n      tag_112\n      jump\t// in\n    tag_158:\n      dup1\n      iszero\n      tag_159\n      jumpi\n      dup1\n      0x1f\n      lt\n      tag_160\n      jumpi\n      0x0100\n      dup1\n      dup4\n      sload\n      div\n      mul\n      dup4\n      mstore\n      swap2\n      0x20\n      add\n      swap2\n      jump(tag_159)\n    tag_160:\n      dup3\n      add\n      swap2\n      swap1\n      0x00\n      mstore\n      keccak256(0x00, 0x20)\n      swap1\n    tag_161:\n      dup2\n      sload\n      dup2\n      mstore\n      swap1\n      0x01\n      add\n      swap1\n      0x20\n      add\n      dup1\n      dup4\n      gt\n      tag_161\n      jumpi\n      dup3\n      swap1\n      sub\n      0x1f\n      and\n      dup3\n      add\n      swap2\n    tag_159:\n      pop\n      pop\n      pop\n      pop\n      pop\n      dup2\n      mstore\n      0x20\n      add\n      0x03\n      dup3\n      add\n      dup1\n      sload\n      tag_162\n      swap1\n      tag_112\n      jump\t// in\n    tag_162:\n      dup1\n      0x1f\n      add\n      0x20\n      dup1\n      swap2\n      div\n      mul\n      0x20\n      add\n      mload(0x40)\n      swap1\n      dup2\n      add\n      0x40\n      mstore\n      dup1\n      swap3\n      swap2\n      swap1\n      dup2\n      dup2\n      mstore\n      0x20\n      add\n      dup3\n      dup1\n      sload\n      tag_163\n      swap1\n      tag_112\n      jump\t// in\n    tag_163:\n      dup1\n      iszero\n      tag_164\n      jumpi\n      dup1\n      0x1f\n      lt\n      tag_165\n      jumpi\n      0x0100\n      dup1\n      dup4\n      sload\n      div\n      mul\n      dup4\n      mstore\n      swap2\n      0x20\n      add\n      swap2\n      jump(tag_164)\n    tag_165:\n      dup3\n      add\n      swap2\n      swap1\n      0x00\n      mstore\n      keccak256(0x00, 0x20)\n      swap1\n    tag_166:\n      dup2\n      sload\n      dup2\n      mstore\n      swap1\n      0x01\n      add\n      swap1\n      0x20\n      add\n      dup1\n      dup4\n      gt\n      tag_166\n      jumpi\n      dup3\n      swap1\n      sub\n      0x1f\n      and\n      dup3\n      add\n      swap2\n    tag_164:\n      pop\n      pop\n      pop\n      pop\n      pop\n      dup2\n      mstore\n      0x20\n      add\n      0x04\n      dup3\n      add\n      dup1\n      sload\n      tag_167\n      swap1\n      tag_112\n      jump\t// in\n    tag_167:\n      dup1\n      0x1f\n      add\n      0x20\n      dup1\n      swap2\n      div\n      mul\n      0x20\n      add\n      mload(0x40)\n      swap1\n      dup2\n      add\n      0x40\n      mstore\n      dup1\n      swap3\n      swap2\n      swap1\n      dup2\n      dup2\n      mstore\n      0x20\n      add\n      dup3\n      dup1\n      sload\n      tag_168\n      swap1\n      tag_112\n      jump\t// in\n    tag_168:\n      dup1\n      iszero\n      tag_169\n      jumpi\n      dup1\n      0x1f\n      lt\n      tag_170\n      jumpi\n      0x0100\n      dup1\n      dup4\n      sload\n      div\n      mul\n      dup4\n      mstore\n      swap2\n      0x20\n      add\n      swap2\n      jump(tag_169)\n    tag_170:\n      dup3\n      add\n      swap2\n      swap1\n      0x00\n      mstore\n      keccak256(0x00, 0x20)\n      swap1\n    tag_171:\n      dup2\n      sload\n      dup2\n      mstore\n      swap1\n      0x01\n      add\n      swap1\n      0x20\n      add\n      dup1\n      dup4\n      gt\n      tag_171\n      jumpi\n      dup3\n      swap1\n      sub\n      0x1f\n      and\n      dup3\n      add\n      swap2\n    tag_169:\n      pop\n      pop\n      pop\n      pop\n      pop\n      dup2\n      mstore\n      0x20\n      add\n      0x05\n      dup3\n      add\n      dup1\n      sload\n      dup1\n      0x20\n      mul\n      0x20\n      add\n      mload(0x40)\n      swap1\n      dup2\n      add\n      0x40\n      mstore\n      dup1\n      swap3\n      swap2\n      swap1\n      dup2\n      dup2\n      mstore\n      0x20\n      add\n      0x00\n      swap1\n    tag_172:\n      dup3\n      dup3\n      lt\n      iszero\n      tag_173\n      jumpi\n      dup4\n      dup3\n      swap1\n      0x00\n      mstore\n      keccak256(0x00, 0x20)\n      add\n      dup1\n      sload\n      tag_175\n      swap1\n      tag_112\n      jump\t// in\n    tag_175:\n      dup1\n      0x1f\n      add\n      0x20\n      dup1\n      swap2\n      div\n      mul\n      0x20\n      add\n      mload(0x40)\n      swap1\n      dup2\n      add\n      0x40\n      mstore\n      dup1\n      swap3\n      swap2\n      swap1\n      dup2\n      dup2\n      mstore\n      0x20\n      add\n      dup3\n      dup1\n      sload\n      tag_176\n      swap1\n      tag_112\n      jump\t// in\n    tag_176:\n      dup1\n      iszero\n      tag_177\n      jumpi\n      dup1\n      0x1f\n      lt\n      tag_178\n      jumpi\n      0x0100\n      dup1\n      dup4\n      sload\n      div\n      mul\n      dup4\n      mstore\n      swap2\n      0x20\n      add\n      swap2\n      jump(tag_177)\n    tag_178:\n      dup3\n      add\n      swap2\n      swap1\n      0x00\n      mstore\n      keccak256(0x00, 0x20)\n      swap1\n    tag_179:\n      dup2\n      sload\n      dup2\n      mstore\n      swap1\n      0x01\n      add\n      swap1\n      0x20\n      add\n      dup1\n      dup4\n      gt\n      tag_179\n      jumpi\n      dup3\n      swap1\n      sub\n      0x1f\n      and\n      dup3\n      add\n      swap2\n    tag_177:\n      pop\n      pop\n      pop\n      pop\n      pop\n      dup2\n      mstore\n      0x20\n      add\n      swap1\n      0x01\n      add\n      swap1\n      jump(tag_172)\n    tag_173:\n      pop\n      pop\n      pop\n      pop\n      dup2\n      mstore\n      0x20\n      add\n      0x06\n      dup3\n      add\n      0x00\n      swap1\n      sload\n      swap1\n      0x0100\n      exp\n      swap1\n      div\n      0xff\n      and\n      iszero\n      iszero\n      iszero\n      iszero\n      dup2\n      mstore\n      pop\n      pop\n        /* \"contracts/MarketPlace.sol\":4881:4896  productsForSale */\n      dup4\n        /* \"contracts/MarketPlace.sol\":4897:4921  productsForSaleCounter++ */\n      dup4\n      dup1\n      tag_180\n      swap1\n      tag_95\n      jump\t// in\n    tag_180:\n      swap5\n      pop\n        /* \"contracts/MarketPlace.sol\":4881:4922  productsForSale[productsForSaleCounter++] */\n      dup2\n      mload\n      dup2\n      lt\n      tag_181\n      jumpi\n      tag_182\n      tag_151\n      jump\t// in\n    tag_182:\n    tag_181:\n      0x20\n      mul\n      0x20\n      add\n      add\n        /* \"contracts/MarketPlace.sol\":4881:4936  productsForSale[productsForSaleCounter++] = products[i] */\n      dup2\n      swap1\n      mstore\n      pop\n        /* \"contracts/MarketPlace.sol\":4837:4952  if (products[i].forSale) {\r... */\n    tag_153:\n        /* \"contracts/MarketPlace.sol\":4817:4820  i++ */\n      dup1\n      dup1\n      tag_183\n      swap1\n      tag_95\n      jump\t// in\n    tag_183:\n      swap2\n      pop\n      pop\n        /* \"contracts/MarketPlace.sol\":4727:4963  for (i = startIndexForSearch; i < products.length && productsForSaleCounter < maxResults; i++) {\r... */\n      jump(tag_145)\n    tag_146:\n        /* \"contracts/MarketPlace.sol\":4981:4982  i */\n      dup1\n        /* \"contracts/MarketPlace.sol\":4984:4999  productsForSale */\n      dup4\n        /* \"contracts/MarketPlace.sol\":4973:5000  return (i, productsForSale) */\n      swap5\n      pop\n      swap5\n      pop\n      pop\n      pop\n      pop\n        /* \"contracts/MarketPlace.sol\":4451:5008  function getAllProductsForSale(uint256 startIndexForSearch, uint256 maxResults) external view returns (uint256, Product[] memory) {\r... */\n      swap3\n      pop\n      swap3\n      swap1\n      pop\n      jump\t// out\n        /* \"contracts/Ownable.sol\":1722:1825  function renounceOwnership() public virtual onlyOwner {\r... */\n    tag_46:\n        /* \"contracts/Ownable.sol\":1302:1314  _msgSender() */\n      tag_185\n        /* \"contracts/Ownable.sol\":1302:1312  _msgSender */\n      tag_186\n        /* \"contracts/Ownable.sol\":1302:1314  _msgSender() */\n      jump\t// in\n    tag_185:\n        /* \"contracts/Ownable.sol\":1291:1314  owner() == _msgSender() */\n      0xffffffffffffffffffffffffffffffffffffffff\n      and\n        /* \"contracts/Ownable.sol\":1291:1298  owner() */\n      tag_187\n        /* \"contracts/Ownable.sol\":1291:1296  owner */\n      tag_49\n        /* \"contracts/Ownable.sol\":1291:1298  owner() */\n      jump\t// in\n    tag_187:\n        /* \"contracts/Ownable.sol\":1291:1314  owner() == _msgSender() */\n      0xffffffffffffffffffffffffffffffffffffffff\n      and\n      eq\n        /* \"contracts/Ownable.sol\":1283:1351  require(owner() == _msgSender(), \"Ownable: caller is not the owner\") */\n      tag_188\n      jumpi\n      mload(0x40)\n      0x08c379a000000000000000000000000000000000000000000000000000000000\n      dup2\n      mstore\n      0x04\n      add\n      tag_189\n      swap1\n      tag_190\n      jump\t// in\n    tag_189:\n      mload(0x40)\n      dup1\n      swap2\n      sub\n      swap1\n      revert\n    tag_188:\n        /* \"contracts/Ownable.sol\":1787:1817  _transferOwnership(address(0)) */\n      tag_192\n        /* \"contracts/Ownable.sol\":1814:1815  0 */\n      0x00\n        /* \"contracts/Ownable.sol\":1787:1805  _transferOwnership */\n      tag_193\n        /* \"contracts/Ownable.sol\":1787:1817  _transferOwnership(address(0)) */\n      jump\t// in\n    tag_192:\n        /* \"contracts/Ownable.sol\":1722:1825  function renounceOwnership() public virtual onlyOwner {\r... */\n      jump\t// out\n        /* \"contracts/Ownable.sol\":1071:1158  function owner() public view virtual returns (address) {\r... */\n    tag_49:\n        /* \"contracts/Ownable.sol\":1117:1124  address */\n      0x00\n        /* \"contracts/Ownable.sol\":1144:1150  _owner */\n      dup1\n      0x00\n      swap1\n      sload\n      swap1\n      0x0100\n      exp\n      swap1\n      div\n      0xffffffffffffffffffffffffffffffffffffffff\n      and\n        /* \"contracts/Ownable.sol\":1137:1150  return _owner */\n      swap1\n      pop\n        /* \"contracts/Ownable.sol\":1071:1158  function owner() public view virtual returns (address) {\r... */\n      swap1\n      jump\t// out\n        /* \"contracts/MarketPlace.sol\":5016:6718  function filterSellingProducts(string memory partialTitle, string memory category, address owner, uint256 date, uint256 startIndexForSearch, uint256 maxResults) external view returns (uint256, Product[] memory) {\r... */\n    tag_56:\n        /* \"contracts/MarketPlace.sol\":5200:5207  uint256 */\n      0x00\n        /* \"contracts/MarketPlace.sol\":5209:5225  Product[] memory */\n      0x60\n        /* \"contracts/MarketPlace.sol\":5238:5270  Product[] memory productsForSale */\n      0x00\n        /* \"contracts/MarketPlace.sol\":5287:5295  products */\n      0x05\n        /* \"contracts/MarketPlace.sol\":5287:5302  products.length */\n      dup1\n      sload\n      swap1\n      pop\n        /* \"contracts/MarketPlace.sol\":5273:5303  new Product[](products.length) */\n      0xffffffffffffffff\n      dup2\n      gt\n      iszero\n      tag_196\n      jumpi\n      tag_197\n      tag_140\n      jump\t// in\n    tag_197:\n    tag_196:\n      mload(0x40)\n      swap1\n      dup1\n      dup3\n      mstore\n      dup1\n      0x20\n      mul\n      0x20\n      add\n      dup3\n      add\n      0x40\n      mstore\n      dup1\n      iszero\n      tag_198\n      jumpi\n      dup2\n      0x20\n      add\n    tag_199:\n      tag_200\n      tag_144\n      jump\t// in\n    tag_200:\n      dup2\n      mstore\n      0x20\n      add\n      swap1\n      0x01\n      swap1\n      sub\n      swap1\n      dup2\n      tag_199\n      jumpi\n      swap1\n      pop\n    tag_198:\n      pop\n        /* \"contracts/MarketPlace.sol\":5238:5303  Product[] memory productsForSale = new Product[](products.length) */\n      swap1\n      pop\n        /* \"contracts/MarketPlace.sol\":5314:5341  uint productsForSaleCounter */\n      0x00\n        /* \"contracts/MarketPlace.sol\":5356:5362  uint i */\n      dup1\n        /* \"contracts/MarketPlace.sol\":5382:5401  startIndexForSearch */\n      dup7\n        /* \"contracts/MarketPlace.sol\":5378:5401  i = startIndexForSearch */\n      swap1\n      pop\n        /* \"contracts/MarketPlace.sol\":5373:6673  for (i = startIndexForSearch; i < products.length && productsForSaleCounter < maxResults; i++) {\r... */\n    tag_201:\n        /* \"contracts/MarketPlace.sol\":5407:5415  products */\n      0x05\n        /* \"contracts/MarketPlace.sol\":5407:5422  products.length */\n      dup1\n      sload\n      swap1\n      pop\n        /* \"contracts/MarketPlace.sol\":5403:5404  i */\n      dup2\n        /* \"contracts/MarketPlace.sol\":5403:5422  i < products.length */\n      lt\n        /* \"contracts/MarketPlace.sol\":5403:5461  i < products.length && productsForSaleCounter < maxResults */\n      dup1\n      iszero\n      tag_204\n      jumpi\n      pop\n        /* \"contracts/MarketPlace.sol\":5451:5461  maxResults */\n      dup6\n        /* \"contracts/MarketPlace.sol\":5426:5448  productsForSaleCounter */\n      dup3\n        /* \"contracts/MarketPlace.sol\":5426:5461  productsForSaleCounter < maxResults */\n      lt\n        /* \"contracts/MarketPlace.sol\":5403:5461  i < products.length && productsForSaleCounter < maxResults */\n    tag_204:\n        /* \"contracts/MarketPlace.sol\":5373:6673  for (i = startIndexForSearch; i < products.length && productsForSaleCounter < maxResults; i++) {\r... */\n      iszero\n      tag_202\n      jumpi\n        /* \"contracts/MarketPlace.sol\":5488:5496  products */\n      0x05\n        /* \"contracts/MarketPlace.sol\":5497:5498  i */\n      dup2\n        /* \"contracts/MarketPlace.sol\":5488:5499  products[i] */\n      dup2\n      sload\n      dup2\n      lt\n      tag_205\n      jumpi\n      tag_206\n      tag_151\n      jump\t// in\n    tag_206:\n    tag_205:\n      swap1\n      0x00\n      mstore\n      keccak256(0x00, 0x20)\n      swap1\n      0x07\n      mul\n      add\n        /* \"contracts/MarketPlace.sol\":5488:5507  products[i].forSale */\n      0x06\n      add\n      0x00\n      swap1\n      sload\n      swap1\n      0x0100\n      exp\n      swap1\n      div\n      0xff\n      and\n        /* \"contracts/MarketPlace.sol\":5483:5552  if (!products[i].forSale) {\r... */\n      tag_208\n      jumpi\n        /* \"contracts/MarketPlace.sol\":5528:5536  continue */\n      jump(tag_203)\n        /* \"contracts/MarketPlace.sol\":5483:5552  if (!products[i].forSale) {\r... */\n    tag_208:\n        /* \"contracts/MarketPlace.sol\":5566:5578  bool isValid */\n      0x00\n        /* \"contracts/MarketPlace.sol\":5581:5585  true */\n      0x01\n        /* \"contracts/MarketPlace.sol\":5566:5585  bool isValid = true */\n      swap1\n      pop\n        /* \"contracts/MarketPlace.sol\":5600:5620  bytes32 categoryHash */\n      0x00\n        /* \"contracts/MarketPlace.sol\":5650:5658  category */\n      dup12\n        /* \"contracts/MarketPlace.sol\":5633:5659  abi.encodePacked(category) */\n      add(0x20, mload(0x40))\n      tag_209\n      swap2\n      swap1\n      tag_210\n      jump\t// in\n    tag_209:\n      mload(0x40)\n      0x20\n      dup2\n      dup4\n      sub\n      sub\n      dup2\n      mstore\n      swap1\n      0x40\n      mstore\n        /* \"contracts/MarketPlace.sol\":5623:5660  keccak256(abi.encodePacked(category)) */\n      dup1\n      mload\n      swap1\n      0x20\n      add\n      keccak256\n        /* \"contracts/MarketPlace.sol\":5600:5660  bytes32 categoryHash = keccak256(abi.encodePacked(category)) */\n      swap1\n      pop\n        /* \"contracts/MarketPlace.sol\":5705:5725  abi.encodePacked(\"\") */\n      add(0x20, mload(0x40))\n      tag_211\n      swap1\n      tag_212\n      jump\t// in\n    tag_211:\n      mload(0x40)\n      0x20\n      dup2\n      dup4\n      sub\n      sub\n      dup2\n      mstore\n      swap1\n      0x40\n      mstore\n        /* \"contracts/MarketPlace.sol\":5695:5726  keccak256(abi.encodePacked(\"\")) */\n      dup1\n      mload\n      swap1\n      0x20\n      add\n      keccak256\n        /* \"contracts/MarketPlace.sol\":5679:5691  categoryHash */\n      dup2\n        /* \"contracts/MarketPlace.sol\":5679:5726  categoryHash != keccak256(abi.encodePacked(\"\")) */\n      eq\n        /* \"contracts/MarketPlace.sol\":5675:6133  if (categoryHash != keccak256(abi.encodePacked(\"\"))) {\r... */\n      tag_213\n      jumpi\n        /* \"contracts/MarketPlace.sol\":5747:5767  string[] memory tags */\n      0x00\n        /* \"contracts/MarketPlace.sol\":5770:5778  products */\n      0x05\n        /* \"contracts/MarketPlace.sol\":5779:5780  i */\n      dup5\n        /* \"contracts/MarketPlace.sol\":5770:5781  products[i] */\n      dup2\n      sload\n      dup2\n      lt\n      tag_214\n      jumpi\n      tag_215\n      tag_151\n      jump\t// in\n    tag_215:\n    tag_214:\n      swap1\n      0x00\n      mstore\n      keccak256(0x00, 0x20)\n      swap1\n      0x07\n      mul\n      add\n        /* \"contracts/MarketPlace.sol\":5770:5786  products[i].tags */\n      0x05\n      add\n        /* \"contracts/MarketPlace.sol\":5747:5786  string[] memory tags = products[i].tags */\n      dup1\n      sload\n      dup1\n      0x20\n      mul\n      0x20\n      add\n      mload(0x40)\n      swap1\n      dup2\n      add\n      0x40\n      mstore\n      dup1\n      swap3\n      swap2\n      swap1\n      dup2\n      dup2\n      mstore\n      0x20\n      add\n      0x00\n      swap1\n    tag_217:\n      dup3\n      dup3\n      lt\n      iszero\n      tag_218\n      jumpi\n      dup4\n      dup3\n      swap1\n      0x00\n      mstore\n      keccak256(0x00, 0x20)\n      add\n      dup1\n      sload\n      tag_220\n      swap1\n      tag_112\n      jump\t// in\n    tag_220:\n      dup1\n      0x1f\n      add\n      0x20\n      dup1\n      swap2\n      div\n      mul\n      0x20\n      add\n      mload(0x40)\n      swap1\n      dup2\n      add\n      0x40\n      mstore\n      dup1\n      swap3\n      swap2\n      swap1\n      dup2\n      dup2\n      mstore\n      0x20\n      add\n      dup3\n      dup1\n      sload\n      tag_221\n      swap1\n      tag_112\n      jump\t// in\n    tag_221:\n      dup1\n      iszero\n      tag_222\n      jumpi\n      dup1\n      0x1f\n      lt\n      tag_223\n      jumpi\n      0x0100\n      dup1\n      dup4\n      sload\n      div\n      mul\n      dup4\n      mstore\n      swap2\n      0x20\n      add\n      swap2\n      jump(tag_222)\n    tag_223:\n      dup3\n      add\n      swap2\n      swap1\n      0x00\n      mstore\n      keccak256(0x00, 0x20)\n      swap1\n    tag_224:\n      dup2\n      sload\n      dup2\n      mstore\n      swap1\n      0x01\n      add\n      swap1\n      0x20\n      add\n      dup1\n      dup4\n      gt\n      tag_224\n      jumpi\n      dup3\n      swap1\n      sub\n      0x1f\n      and\n      dup3\n      add\n      swap2\n    tag_222:\n      pop\n      pop\n      pop\n      pop\n      pop\n      dup2\n      mstore\n      0x20\n      add\n      swap1\n      0x01\n      add\n      swap1\n      jump(tag_217)\n    tag_218:\n      pop\n      pop\n      pop\n      pop\n      swap1\n      pop\n        /* \"contracts/MarketPlace.sol\":5805:5811  uint j */\n      0x00\n        /* \"contracts/MarketPlace.sol\":5830:6020  for (j = 0; j < tags.length; j++) {\r... */\n    tag_225:\n        /* \"contracts/MarketPlace.sol\":5846:5850  tags */\n      dup2\n        /* \"contracts/MarketPlace.sol\":5846:5857  tags.length */\n      mload\n        /* \"contracts/MarketPlace.sol\":5842:5843  j */\n      dup2\n        /* \"contracts/MarketPlace.sol\":5842:5857  j < tags.length */\n      lt\n        /* \"contracts/MarketPlace.sol\":5830:6020  for (j = 0; j < tags.length; j++) {\r... */\n      iszero\n      tag_226\n      jumpi\n        /* \"contracts/MarketPlace.sol\":5934:5938  tags */\n      dup2\n        /* \"contracts/MarketPlace.sol\":5939:5940  j */\n      dup2\n        /* \"contracts/MarketPlace.sol\":5934:5941  tags[j] */\n      dup2\n      mload\n      dup2\n      lt\n      tag_228\n      jumpi\n      tag_229\n      tag_151\n      jump\t// in\n    tag_229:\n    tag_228:\n      0x20\n      mul\n      0x20\n      add\n      add\n      mload\n        /* \"contracts/MarketPlace.sol\":5917:5942  abi.encodePacked(tags[j]) */\n      add(0x20, mload(0x40))\n      tag_230\n      swap2\n      swap1\n      tag_210\n      jump\t// in\n    tag_230:\n      mload(0x40)\n      0x20\n      dup2\n      dup4\n      sub\n      sub\n      dup2\n      mstore\n      swap1\n      0x40\n      mstore\n        /* \"contracts/MarketPlace.sol\":5907:5943  keccak256(abi.encodePacked(tags[j])) */\n      dup1\n      mload\n      swap1\n      0x20\n      add\n      keccak256\n        /* \"contracts/MarketPlace.sol\":5891:5903  categoryHash */\n      dup4\n        /* \"contracts/MarketPlace.sol\":5891:5943  categoryHash == keccak256(abi.encodePacked(tags[j])) */\n      eq\n        /* \"contracts/MarketPlace.sol\":5887:6001  if (categoryHash == keccak256(abi.encodePacked(tags[j]))) {\r... */\n      iszero\n      tag_231\n      jumpi\n        /* \"contracts/MarketPlace.sol\":5972:5977  break */\n      jump(tag_226)\n        /* \"contracts/MarketPlace.sol\":5887:6001  if (categoryHash == keccak256(abi.encodePacked(tags[j]))) {\r... */\n    tag_231:\n        /* \"contracts/MarketPlace.sol\":5859:5862  j++ */\n      dup1\n      dup1\n      tag_232\n      swap1\n      tag_95\n      jump\t// in\n    tag_232:\n      swap2\n      pop\n      pop\n        /* \"contracts/MarketPlace.sol\":5830:6020  for (j = 0; j < tags.length; j++) {\r... */\n      jump(tag_225)\n    tag_226:\n        /* \"contracts/MarketPlace.sol\":6047:6051  tags */\n      dup2\n        /* \"contracts/MarketPlace.sol\":6047:6058  tags.length */\n      mload\n        /* \"contracts/MarketPlace.sol\":6042:6043  j */\n      dup2\n        /* \"contracts/MarketPlace.sol\":6042:6058  j >= tags.length */\n      lt\n        /* \"contracts/MarketPlace.sol\":6038:6118  if (j >= tags.length) {\r... */\n      tag_233\n      jumpi\n        /* \"contracts/MarketPlace.sol\":6093:6098  false */\n      0x00\n        /* \"contracts/MarketPlace.sol\":6083:6098  isValid = false */\n      swap4\n      pop\n        /* \"contracts/MarketPlace.sol\":6038:6118  if (j >= tags.length) {\r... */\n    tag_233:\n        /* \"contracts/MarketPlace.sol\":5728:6133  {\r... */\n      pop\n      pop\n        /* \"contracts/MarketPlace.sol\":5675:6133  if (categoryHash != keccak256(abi.encodePacked(\"\"))) {\r... */\n    tag_213:\n        /* \"contracts/MarketPlace.sol\":6153:6160  isValid */\n      dup2\n        /* \"contracts/MarketPlace.sol\":6153:6232  isValid &&\r... */\n      dup1\n      iszero\n      tag_234\n      jumpi\n      pop\n        /* \"contracts/MarketPlace.sol\":6199:6200  0 */\n      0x00\n        /* \"contracts/MarketPlace.sol\":6182:6201  owner != address(0) */\n      0xffffffffffffffffffffffffffffffffffffffff\n      and\n        /* \"contracts/MarketPlace.sol\":6182:6187  owner */\n      dup12\n        /* \"contracts/MarketPlace.sol\":6182:6201  owner != address(0) */\n      0xffffffffffffffffffffffffffffffffffffffff\n      and\n      eq\n      iszero\n        /* \"contracts/MarketPlace.sol\":6182:6231  owner != address(0) || owner == products[i].owner */\n      dup1\n      tag_235\n      jumpi\n      pop\n        /* \"contracts/MarketPlace.sol\":6214:6222  products */\n      0x05\n        /* \"contracts/MarketPlace.sol\":6223:6224  i */\n      dup4\n        /* \"contracts/MarketPlace.sol\":6214:6225  products[i] */\n      dup2\n      sload\n      dup2\n      lt\n      tag_236\n      jumpi\n      tag_237\n      tag_151\n      jump\t// in\n    tag_237:\n    tag_236:\n      swap1\n      0x00\n      mstore\n      keccak256(0x00, 0x20)\n      swap1\n      0x07\n      mul\n      add\n        /* \"contracts/MarketPlace.sol\":6214:6231  products[i].owner */\n      0x01\n      add\n      0x00\n      swap1\n      sload\n      swap1\n      0x0100\n      exp\n      swap1\n      div\n      0xffffffffffffffffffffffffffffffffffffffff\n      and\n        /* \"contracts/MarketPlace.sol\":6205:6231  owner == products[i].owner */\n      0xffffffffffffffffffffffffffffffffffffffff\n      and\n        /* \"contracts/MarketPlace.sol\":6205:6210  owner */\n      dup12\n        /* \"contracts/MarketPlace.sol\":6205:6231  owner == products[i].owner */\n      0xffffffffffffffffffffffffffffffffffffffff\n      and\n      eq\n        /* \"contracts/MarketPlace.sol\":6182:6231  owner != address(0) || owner == products[i].owner */\n    tag_235:\n        /* \"contracts/MarketPlace.sol\":6153:6232  isValid &&\r... */\n    tag_234:\n        /* \"contracts/MarketPlace.sol\":6153:6328  isValid &&\r... */\n      dup1\n      iszero\n      tag_239\n      jumpi\n      pop\n        /* \"contracts/MarketPlace.sol\":6262:6263  0 */\n      0x00\n        /* \"contracts/MarketPlace.sol\":6254:6258  date */\n      dup11\n        /* \"contracts/MarketPlace.sol\":6254:6263  date != 0 */\n      eq\n      iszero\n        /* \"contracts/MarketPlace.sol\":6254:6327  date != 0 || date <= ownedSellableProducts[products[i].owner][i].datetime */\n      dup1\n      tag_240\n      jumpi\n      pop\n        /* \"contracts/MarketPlace.sol\":6275:6296  ownedSellableProducts */\n      0x02\n        /* \"contracts/MarketPlace.sol\":6275:6315  ownedSellableProducts[products[i].owner] */\n      0x00\n        /* \"contracts/MarketPlace.sol\":6297:6305  products */\n      0x05\n        /* \"contracts/MarketPlace.sol\":6306:6307  i */\n      dup6\n        /* \"contracts/MarketPlace.sol\":6297:6308  products[i] */\n      dup2\n      sload\n      dup2\n      lt\n      tag_241\n      jumpi\n      tag_242\n      tag_151\n      jump\t// in\n    tag_242:\n    tag_241:\n      swap1\n      0x00\n      mstore\n      keccak256(0x00, 0x20)\n      swap1\n      0x07\n      mul\n      add\n        /* \"contracts/MarketPlace.sol\":6297:6314  products[i].owner */\n      0x01\n      add\n      0x00\n      swap1\n      sload\n      swap1\n      0x0100\n      exp\n      swap1\n      div\n      0xffffffffffffffffffffffffffffffffffffffff\n      and\n        /* \"contracts/MarketPlace.sol\":6275:6315  ownedSellableProducts[products[i].owner] */\n      0xffffffffffffffffffffffffffffffffffffffff\n      and\n      0xffffffffffffffffffffffffffffffffffffffff\n      and\n      dup2\n      mstore\n      0x20\n      add\n      swap1\n      dup2\n      mstore\n      0x20\n      add\n      0x00\n      keccak256\n        /* \"contracts/MarketPlace.sol\":6275:6318  ownedSellableProducts[products[i].owner][i] */\n      0x00\n        /* \"contracts/MarketPlace.sol\":6316:6317  i */\n      dup5\n        /* \"contracts/MarketPlace.sol\":6275:6318  ownedSellableProducts[products[i].owner][i] */\n      dup2\n      mstore\n      0x20\n      add\n      swap1\n      dup2\n      mstore\n      0x20\n      add\n      0x00\n      keccak256\n        /* \"contracts/MarketPlace.sol\":6275:6327  ownedSellableProducts[products[i].owner][i].datetime */\n      0x02\n      add\n      sload\n        /* \"contracts/MarketPlace.sol\":6267:6271  date */\n      dup11\n        /* \"contracts/MarketPlace.sol\":6267:6327  date <= ownedSellableProducts[products[i].owner][i].datetime */\n      gt\n      iszero\n        /* \"contracts/MarketPlace.sol\":6254:6327  date != 0 || date <= ownedSellableProducts[products[i].owner][i].datetime */\n    tag_240:\n        /* \"contracts/MarketPlace.sol\":6153:6328  isValid &&\r... */\n    tag_239:\n        /* \"contracts/MarketPlace.sol\":6153:6393  isValid &&\r... */\n      dup1\n      iszero\n      tag_244\n      jumpi\n      pop\n        /* \"contracts/MarketPlace.sol\":6349:6393  containsWord(partialTitle, products[i].name) */\n      tag_245\n        /* \"contracts/MarketPlace.sol\":6362:6374  partialTitle */\n      dup14\n        /* \"contracts/MarketPlace.sol\":6376:6384  products */\n      0x05\n        /* \"contracts/MarketPlace.sol\":6385:6386  i */\n      dup6\n        /* \"contracts/MarketPlace.sol\":6376:6387  products[i] */\n      dup2\n      sload\n      dup2\n      lt\n      tag_246\n      jumpi\n      tag_247\n      tag_151\n      jump\t// in\n    tag_247:\n    tag_246:\n      swap1\n      0x00\n      mstore\n      keccak256(0x00, 0x20)\n      swap1\n      0x07\n      mul\n      add\n        /* \"contracts/MarketPlace.sol\":6376:6392  products[i].name */\n      0x02\n      add\n        /* \"contracts/MarketPlace.sol\":6349:6393  containsWord(partialTitle, products[i].name) */\n      dup1\n      sload\n      tag_249\n      swap1\n      tag_112\n      jump\t// in\n    tag_249:\n      dup1\n      0x1f\n      add\n      0x20\n      dup1\n      swap2\n      div\n      mul\n      0x20\n      add\n      mload(0x40)\n      swap1\n      dup2\n      add\n      0x40\n      mstore\n      dup1\n      swap3\n      swap2\n      swap1\n      dup2\n      dup2\n      mstore\n      0x20\n      add\n      dup3\n      dup1\n      sload\n      tag_250\n      swap1\n      tag_112\n      jump\t// in\n    tag_250:\n      dup1\n      iszero\n      tag_251\n      jumpi\n      dup1\n      0x1f\n      lt\n      tag_252\n      jumpi\n      0x0100\n      dup1\n      dup4\n      sload\n      div\n      mul\n      dup4\n      mstore\n      swap2\n      0x20\n      add\n      swap2\n      jump(tag_251)\n    tag_252:\n      dup3\n      add\n      swap2\n      swap1\n      0x00\n      mstore\n      keccak256(0x00, 0x20)\n      swap1\n    tag_253:\n      dup2\n      sload\n      dup2\n      mstore\n      swap1\n      0x01\n      add\n      swap1\n      0x20\n      add\n      dup1\n      dup4\n      gt\n      tag_253\n      jumpi\n      dup3\n      swap1\n      sub\n      0x1f\n      and\n      dup3\n      add\n      swap2\n    tag_251:\n      pop\n      pop\n      pop\n      pop\n      pop\n        /* \"contracts/MarketPlace.sol\":6349:6361  containsWord */\n      tag_254\n        /* \"contracts/MarketPlace.sol\":6349:6393  containsWord(partialTitle, products[i].name) */\n      jump\t// in\n    tag_245:\n        /* \"contracts/MarketPlace.sol\":6153:6393  isValid &&\r... */\n    tag_244:\n        /* \"contracts/MarketPlace.sol\":6147:6545  if (!(isValid &&\r... */\n      tag_255\n      jumpi\n        /* \"contracts/MarketPlace.sol\":6524:6529  false */\n      0x00\n        /* \"contracts/MarketPlace.sol\":6514:6529  isValid = false */\n      swap2\n      pop\n        /* \"contracts/MarketPlace.sol\":6147:6545  if (!(isValid &&\r... */\n    tag_255:\n        /* \"contracts/MarketPlace.sol\":6563:6570  isValid */\n      dup2\n        /* \"contracts/MarketPlace.sol\":6559:6662  if (isValid) {\r... */\n      iszero\n      tag_256\n      jumpi\n        /* \"contracts/MarketPlace.sol\":6635:6643  products */\n      0x05\n        /* \"contracts/MarketPlace.sol\":6644:6645  i */\n      dup4\n        /* \"contracts/MarketPlace.sol\":6635:6646  products[i] */\n      dup2\n      sload\n      dup2\n      lt\n      tag_257\n      jumpi\n      tag_258\n      tag_151\n      jump\t// in\n    tag_258:\n    tag_257:\n      swap1\n      0x00\n      mstore\n      keccak256(0x00, 0x20)\n      swap1\n      0x07\n      mul\n      add\n        /* \"contracts/MarketPlace.sol\":6591:6646  productsForSale[productsForSaleCounter++] = products[i] */\n      mload(0x40)\n      dup1\n      0xe0\n      add\n      0x40\n      mstore\n      swap1\n      dup2\n      0x00\n      dup3\n      add\n      sload\n      dup2\n      mstore\n      0x20\n      add\n      0x01\n      dup3\n      add\n      0x00\n      swap1\n      sload\n      swap1\n      0x0100\n      exp\n      swap1\n      div\n      0xffffffffffffffffffffffffffffffffffffffff\n      and\n      0xffffffffffffffffffffffffffffffffffffffff\n      and\n      0xffffffffffffffffffffffffffffffffffffffff\n      and\n      dup2\n      mstore\n      0x20\n      add\n      0x02\n      dup3\n      add\n      dup1\n      sload\n      tag_260\n      swap1\n      tag_112\n      jump\t// in\n    tag_260:\n      dup1\n      0x1f\n      add\n      0x20\n      dup1\n      swap2\n      div\n      mul\n      0x20\n      add\n      mload(0x40)\n      swap1\n      dup2\n      add\n      0x40\n      mstore\n      dup1\n      swap3\n      swap2\n      swap1\n      dup2\n      dup2\n      mstore\n      0x20\n      add\n      dup3\n      dup1\n      sload\n      tag_261\n      swap1\n      tag_112\n      jump\t// in\n    tag_261:\n      dup1\n      iszero\n      tag_262\n      jumpi\n      dup1\n      0x1f\n      lt\n      tag_263\n      jumpi\n      0x0100\n      dup1\n      dup4\n      sload\n      div\n      mul\n      dup4\n      mstore\n      swap2\n      0x20\n      add\n      swap2\n      jump(tag_262)\n    tag_263:\n      dup3\n      add\n      swap2\n      swap1\n      0x00\n      mstore\n      keccak256(0x00, 0x20)\n      swap1\n    tag_264:\n      dup2\n      sload\n      dup2\n      mstore\n      swap1\n      0x01\n      add\n      swap1\n      0x20\n      add\n      dup1\n      dup4\n      gt\n      tag_264\n      jumpi\n      dup3\n      swap1\n      sub\n      0x1f\n      and\n      dup3\n      add\n      swap2\n    tag_262:\n      pop\n      pop\n      pop\n      pop\n      pop\n      dup2\n      mstore\n      0x20\n      add\n      0x03\n      dup3\n      add\n      dup1\n      sload\n      tag_265\n      swap1\n      tag_112\n      jump\t// in\n    tag_265:\n      dup1\n      0x1f\n      add\n      0x20\n      dup1\n      swap2\n      div\n      mul\n      0x20\n      add\n      mload(0x40)\n      swap1\n      dup2\n      add\n      0x40\n      mstore\n      dup1\n      swap3\n      swap2\n      swap1\n      dup2\n      dup2\n      mstore\n      0x20\n      add\n      dup3\n      dup1\n      sload\n      tag_266\n      swap1\n      tag_112\n      jump\t// in\n    tag_266:\n      dup1\n      iszero\n      tag_267\n      jumpi\n      dup1\n      0x1f\n      lt\n      tag_268\n      jumpi\n      0x0100\n      dup1\n      dup4\n      sload\n      div\n      mul\n      dup4\n      mstore\n      swap2\n      0x20\n      add\n      swap2\n      jump(tag_267)\n    tag_268:\n      dup3\n      add\n      swap2\n      swap1\n      0x00\n      mstore\n      keccak256(0x00, 0x20)\n      swap1\n    tag_269:\n      dup2\n      sload\n      dup2\n      mstore\n      swap1\n      0x01\n      add\n      swap1\n      0x20\n      add\n      dup1\n      dup4\n      gt\n      tag_269\n      jumpi\n      dup3\n      swap1\n      sub\n      0x1f\n      and\n      dup3\n      add\n      swap2\n    tag_267:\n      pop\n      pop\n      pop\n      pop\n      pop\n      dup2\n      mstore\n      0x20\n      add\n      0x04\n      dup3\n      add\n      dup1\n      sload\n      tag_270\n      swap1\n      tag_112\n      jump\t// in\n    tag_270:\n      dup1\n      0x1f\n      add\n      0x20\n      dup1\n      swap2\n      div\n      mul\n      0x20\n      add\n      mload(0x40)\n      swap1\n      dup2\n      add\n      0x40\n      mstore\n      dup1\n      swap3\n      swap2\n      swap1\n      dup2\n      dup2\n      mstore\n      0x20\n      add\n      dup3\n      dup1\n      sload\n      tag_271\n      swap1\n      tag_112\n      jump\t// in\n    tag_271:\n      dup1\n      iszero\n      tag_272\n      jumpi\n      dup1\n      0x1f\n      lt\n      tag_273\n      jumpi\n      0x0100\n      dup1\n      dup4\n      sload\n      div\n      mul\n      dup4\n      mstore\n      swap2\n      0x20\n      add\n      swap2\n      jump(tag_272)\n    tag_273:\n      dup3\n      add\n      swap2\n      swap1\n      0x00\n      mstore\n      keccak256(0x00, 0x20)\n      swap1\n    tag_274:\n      dup2\n      sload\n      dup2\n      mstore\n      swap1\n      0x01\n      add\n      swap1\n      0x20\n      add\n      dup1\n      dup4\n      gt\n      tag_274\n      jumpi\n      dup3\n      swap1\n      sub\n      0x1f\n      and\n      dup3\n      add\n      swap2\n    tag_272:\n      pop\n      pop\n      pop\n      pop\n      pop\n      dup2\n      mstore\n      0x20\n      add\n      0x05\n      dup3\n      add\n      dup1\n      sload\n      dup1\n      0x20\n      mul\n      0x20\n      add\n      mload(0x40)\n      swap1\n      dup2\n      add\n      0x40\n      mstore\n      dup1\n      swap3\n      swap2\n      swap1\n      dup2\n      dup2\n      mstore\n      0x20\n      add\n      0x00\n      swap1\n    tag_275:\n      dup3\n      dup3\n      lt\n      iszero\n      tag_276\n      jumpi\n      dup4\n      dup3\n      swap1\n      0x00\n      mstore\n      keccak256(0x00, 0x20)\n      add\n      dup1\n      sload\n      tag_278\n      swap1\n      tag_112\n      jump\t// in\n    tag_278:\n      dup1\n      0x1f\n      add\n      0x20\n      dup1\n      swap2\n      div\n      mul\n      0x20\n      add\n      mload(0x40)\n      swap1\n      dup2\n      add\n      0x40\n      mstore\n      dup1\n      swap3\n      swap2\n      swap1\n      dup2\n      dup2\n      mstore\n      0x20\n      add\n      dup3\n      dup1\n      sload\n      tag_279\n      swap1\n      tag_112\n      jump\t// in\n    tag_279:\n      dup1\n      iszero\n      tag_280\n      jumpi\n      dup1\n      0x1f\n      lt\n      tag_281\n      jumpi\n      0x0100\n      dup1\n      dup4\n      sload\n      div\n      mul\n      dup4\n      mstore\n      swap2\n      0x20\n      add\n      swap2\n      jump(tag_280)\n    tag_281:\n      dup3\n      add\n      swap2\n      swap1\n      0x00\n      mstore\n      keccak256(0x00, 0x20)\n      swap1\n    tag_282:\n      dup2\n      sload\n      dup2\n      mstore\n      swap1\n      0x01\n      add\n      swap1\n      0x20\n      add\n      dup1\n      dup4\n      gt\n      tag_282\n      jumpi\n      dup3\n      swap1\n      sub\n      0x1f\n      and\n      dup3\n      add\n      swap2\n    tag_280:\n      pop\n      pop\n      pop\n      pop\n      pop\n      dup2\n      mstore\n      0x20\n      add\n      swap1\n      0x01\n      add\n      swap1\n      jump(tag_275)\n    tag_276:\n      pop\n      pop\n      pop\n      pop\n      dup2\n      mstore\n      0x20\n      add\n      0x06\n      dup3\n      add\n      0x00\n      swap1\n      sload\n      swap1\n      0x0100\n      exp\n      swap1\n      div\n      0xff\n      and\n      iszero\n      iszero\n      iszero\n      iszero\n      dup2\n      mstore\n      pop\n      pop\n        /* \"contracts/MarketPlace.sol\":6591:6606  productsForSale */\n      dup6\n        /* \"contracts/MarketPlace.sol\":6607:6631  productsForSaleCounter++ */\n      dup6\n      dup1\n      tag_283\n      swap1\n      tag_95\n      jump\t// in\n    tag_283:\n      swap7\n      pop\n        /* \"contracts/MarketPlace.sol\":6591:6632  productsForSale[productsForSaleCounter++] */\n      dup2\n      mload\n      dup2\n      lt\n      tag_284\n      jumpi\n      tag_285\n      tag_151\n      jump\t// in\n    tag_285:\n    tag_284:\n      0x20\n      mul\n      0x20\n      add\n      add\n        /* \"contracts/MarketPlace.sol\":6591:6646  productsForSale[productsForSaleCounter++] = products[i] */\n      dup2\n      swap1\n      mstore\n      pop\n        /* \"contracts/MarketPlace.sol\":6559:6662  if (isValid) {\r... */\n    tag_256:\n        /* \"contracts/MarketPlace.sol\":5468:6673  {\r... */\n      pop\n      pop\n        /* \"contracts/MarketPlace.sol\":5373:6673  for (i = startIndexForSearch; i < products.length && productsForSaleCounter < maxResults; i++) {\r... */\n    tag_203:\n        /* \"contracts/MarketPlace.sol\":5463:5466  i++ */\n      dup1\n      dup1\n      tag_286\n      swap1\n      tag_95\n      jump\t// in\n    tag_286:\n      swap2\n      pop\n      pop\n        /* \"contracts/MarketPlace.sol\":5373:6673  for (i = startIndexForSearch; i < products.length && productsForSaleCounter < maxResults; i++) {\r... */\n      jump(tag_201)\n    tag_202:\n        /* \"contracts/MarketPlace.sol\":6691:6692  i */\n      dup1\n        /* \"contracts/MarketPlace.sol\":6694:6709  productsForSale */\n      dup4\n        /* \"contracts/MarketPlace.sol\":6683:6710  return (i, productsForSale) */\n      swap5\n      pop\n      swap5\n      pop\n      pop\n      pop\n      pop\n        /* \"contracts/MarketPlace.sol\":5016:6718  function filterSellingProducts(string memory partialTitle, string memory category, address owner, uint256 date, uint256 startIndexForSearch, uint256 maxResults) external view returns (uint256, Product[] memory) {\r... */\n      swap7\n      pop\n      swap7\n      swap5\n      pop\n      pop\n      pop\n      pop\n      pop\n      jump\t// out\n        /* \"contracts/MarketPlace.sol\":3587:4443  function buyProduct(uint256 productId, address productSeller) external payable {\r... */\n    tag_61:\n        /* \"contracts/MarketPlace.sol\":3677:3711  SellableProduct memory soldProduct */\n      0x00\n        /* \"contracts/MarketPlace.sol\":3714:3735  ownedSellableProducts */\n      0x02\n        /* \"contracts/MarketPlace.sol\":3714:3750  ownedSellableProducts[productSeller] */\n      0x00\n        /* \"contracts/MarketPlace.sol\":3736:3749  productSeller */\n      dup4\n        /* \"contracts/MarketPlace.sol\":3714:3750  ownedSellableProducts[productSeller] */\n      0xffffffffffffffffffffffffffffffffffffffff\n      and\n      0xffffffffffffffffffffffffffffffffffffffff\n      and\n      dup2\n      mstore\n      0x20\n      add\n      swap1\n      dup2\n      mstore\n      0x20\n      add\n      0x00\n      keccak256\n        /* \"contracts/MarketPlace.sol\":3714:3761  ownedSellableProducts[productSeller][productId] */\n      0x00\n        /* \"contracts/MarketPlace.sol\":3751:3760  productId */\n      dup5\n        /* \"contracts/MarketPlace.sol\":3714:3761  ownedSellableProducts[productSeller][productId] */\n      dup2\n      mstore\n      0x20\n      add\n      swap1\n      dup2\n      mstore\n      0x20\n      add\n      0x00\n      keccak256\n        /* \"contracts/MarketPlace.sol\":3677:3761  SellableProduct memory soldProduct = ownedSellableProducts[productSeller][productId] */\n      mload(0x40)\n      dup1\n      0x80\n      add\n      0x40\n      mstore\n      swap1\n      dup2\n      0x00\n      dup3\n      add\n      sload\n      dup2\n      mstore\n      0x20\n      add\n      0x01\n      dup3\n      add\n      sload\n      dup2\n      mstore\n      0x20\n      add\n      0x02\n      dup3\n      add\n      sload\n      dup2\n      mstore\n      0x20\n      add\n      0x03\n      dup3\n      add\n      mload(0x40)\n      dup1\n      0xe0\n      add\n      0x40\n      mstore\n      swap1\n      dup2\n      0x00\n      dup3\n      add\n      sload\n      dup2\n      mstore\n      0x20\n      add\n      0x01\n      dup3\n      add\n      0x00\n      swap1\n      sload\n      swap1\n      0x0100\n      exp\n      swap1\n      div\n      0xffffffffffffffffffffffffffffffffffffffff\n      and\n      0xffffffffffffffffffffffffffffffffffffffff\n      and\n      0xffffffffffffffffffffffffffffffffffffffff\n      and\n      dup2\n      mstore\n      0x20\n      add\n      0x02\n      dup3\n      add\n      dup1\n      sload\n      tag_288\n      swap1\n      tag_112\n      jump\t// in\n    tag_288:\n      dup1\n      0x1f\n      add\n      0x20\n      dup1\n      swap2\n      div\n      mul\n      0x20\n      add\n      mload(0x40)\n      swap1\n      dup2\n      add\n      0x40\n      mstore\n      dup1\n      swap3\n      swap2\n      swap1\n      dup2\n      dup2\n      mstore\n      0x20\n      add\n      dup3\n      dup1\n      sload\n      tag_289\n      swap1\n      tag_112\n      jump\t// in\n    tag_289:\n      dup1\n      iszero\n      tag_290\n      jumpi\n      dup1\n      0x1f\n      lt\n      tag_291\n      jumpi\n      0x0100\n      dup1\n      dup4\n      sload\n      div\n      mul\n      dup4\n      mstore\n      swap2\n      0x20\n      add\n      swap2\n      jump(tag_290)\n    tag_291:\n      dup3\n      add\n      swap2\n      swap1\n      0x00\n      mstore\n      keccak256(0x00, 0x20)\n      swap1\n    tag_292:\n      dup2\n      sload\n      dup2\n      mstore\n      swap1\n      0x01\n      add\n      swap1\n      0x20\n      add\n      dup1\n      dup4\n      gt\n      tag_292\n      jumpi\n      dup3\n      swap1\n      sub\n      0x1f\n      and\n      dup3\n      add\n      swap2\n    tag_290:\n      pop\n      pop\n      pop\n      pop\n      pop\n      dup2\n      mstore\n      0x20\n      add\n      0x03\n      dup3\n      add\n      dup1\n      sload\n      tag_293\n      swap1\n      tag_112\n      jump\t// in\n    tag_293:\n      dup1\n      0x1f\n      add\n      0x20\n      dup1\n      swap2\n      div\n      mul\n      0x20\n      add\n      mload(0x40)\n      swap1\n      dup2\n      add\n      0x40\n      mstore\n      dup1\n      swap3\n      swap2\n      swap1\n      dup2\n      dup2\n      mstore\n      0x20\n      add\n      dup3\n      dup1\n      sload\n      tag_294\n      swap1\n      tag_112\n      jump\t// in\n    tag_294:\n      dup1\n      iszero\n      tag_295\n      jumpi\n      dup1\n      0x1f\n      lt\n      tag_296\n      jumpi\n      0x0100\n      dup1\n      dup4\n      sload\n      div\n      mul\n      dup4\n      mstore\n      swap2\n      0x20\n      add\n      swap2\n      jump(tag_295)\n    tag_296:\n      dup3\n      add\n      swap2\n      swap1\n      0x00\n      mstore\n      keccak256(0x00, 0x20)\n      swap1\n    tag_297:\n      dup2\n      sload\n      dup2\n      mstore\n      swap1\n      0x01\n      add\n      swap1\n      0x20\n      add\n      dup1\n      dup4\n      gt\n      tag_297\n      jumpi\n      dup3\n      swap1\n      sub\n      0x1f\n      and\n      dup3\n      add\n      swap2\n    tag_295:\n      pop\n      pop\n      pop\n      pop\n      pop\n      dup2\n      mstore\n      0x20\n      add\n      0x04\n      dup3\n      add\n      dup1\n      sload\n      tag_298\n      swap1\n      tag_112\n      jump\t// in\n    tag_298:\n      dup1\n      0x1f\n      add\n      0x20\n      dup1\n      swap2\n      div\n      mul\n      0x20\n      add\n      mload(0x40)\n      swap1\n      dup2\n      add\n      0x40\n      mstore\n      dup1\n      swap3\n      swap2\n      swap1\n      dup2\n      dup2\n      mstore\n      0x20\n      add\n      dup3\n      dup1\n      sload\n      tag_299\n      swap1\n      tag_112\n      jump\t// in\n    tag_299:\n      dup1\n      iszero\n      tag_300\n      jumpi\n      dup1\n      0x1f\n      lt\n      tag_301\n      jumpi\n      0x0100\n      dup1\n      dup4\n      sload\n      div\n      mul\n      dup4\n      mstore\n      swap2\n      0x20\n      add\n      swap2\n      jump(tag_300)\n    tag_301:\n      dup3\n      add\n      swap2\n      swap1\n      0x00\n      mstore\n      keccak256(0x00, 0x20)\n      swap1\n    tag_302:\n      dup2\n      sload\n      dup2\n      mstore\n      swap1\n      0x01\n      add\n      swap1\n      0x20\n      add\n      dup1\n      dup4\n      gt\n      tag_302\n      jumpi\n      dup3\n      swap1\n      sub\n      0x1f\n      and\n      dup3\n      add\n      swap2\n    tag_300:\n      pop\n      pop\n      pop\n      pop\n      pop\n      dup2\n      mstore\n      0x20\n      add\n      0x05\n      dup3\n      add\n      dup1\n      sload\n      dup1\n      0x20\n      mul\n      0x20\n      add\n      mload(0x40)\n      swap1\n      dup2\n      add\n      0x40\n      mstore\n      dup1\n      swap3\n      swap2\n      swap1\n      dup2\n      dup2\n      mstore\n      0x20\n      add\n      0x00\n      swap1\n    tag_303:\n      dup3\n      dup3\n      lt\n      iszero\n      tag_304\n      jumpi\n      dup4\n      dup3\n      swap1\n      0x00\n      mstore\n      keccak256(0x00, 0x20)\n      add\n      dup1\n      sload\n      tag_306\n      swap1\n      tag_112\n      jump\t// in\n    tag_306:\n      dup1\n      0x1f\n      add\n      0x20\n      dup1\n      swap2\n      div\n      mul\n      0x20\n      add\n      mload(0x40)\n      swap1\n      dup2\n      add\n      0x40\n      mstore\n      dup1\n      swap3\n      swap2\n      swap1\n      dup2\n      dup2\n      mstore\n      0x20\n      add\n      dup3\n      dup1\n      sload\n      tag_307\n      swap1\n      tag_112\n      jump\t// in\n    tag_307:\n      dup1\n      iszero\n      tag_308\n      jumpi\n      dup1\n      0x1f\n      lt\n      tag_309\n      jumpi\n      0x0100\n      dup1\n      dup4\n      sload\n      div\n      mul\n      dup4\n      mstore\n      swap2\n      0x20\n      add\n      swap2\n      jump(tag_308)\n    tag_309:\n      dup3\n      add\n      swap2\n      swap1\n      0x00\n      mstore\n      keccak256(0x00, 0x20)\n      swap1\n    tag_310:\n      dup2\n      sload\n      dup2\n      mstore\n      swap1\n      0x01\n      add\n      swap1\n      0x20\n      add\n      dup1\n      dup4\n      gt\n      tag_310\n      jumpi\n      dup3\n      swap1\n      sub\n      0x1f\n      and\n      dup3\n      add\n      swap2\n    tag_308:\n      pop\n      pop\n      pop\n      pop\n      pop\n      dup2\n      mstore\n      0x20\n      add\n      swap1\n      0x01\n      add\n      swap1\n      jump(tag_303)\n    tag_304:\n      pop\n      pop\n      pop\n      pop\n      dup2\n      mstore\n      0x20\n      add\n      0x06\n      dup3\n      add\n      0x00\n      swap1\n      sload\n      swap1\n      0x0100\n      exp\n      swap1\n      div\n      0xff\n      and\n      iszero\n      iszero\n      iszero\n      iszero\n      dup2\n      mstore\n      pop\n      pop\n      dup2\n      mstore\n      pop\n      pop\n      swap1\n      pop\n        /* \"contracts/MarketPlace.sol\":3809:3822  productSeller */\n      dup2\n        /* \"contracts/MarketPlace.sol\":3780:3822  soldProduct.product.owner == productSeller */\n      0xffffffffffffffffffffffffffffffffffffffff\n      and\n        /* \"contracts/MarketPlace.sol\":3780:3791  soldProduct */\n      dup2\n        /* \"contracts/MarketPlace.sol\":3780:3799  soldProduct.product */\n      0x60\n      add\n      mload\n        /* \"contracts/MarketPlace.sol\":3780:3805  soldProduct.product.owner */\n      0x20\n      add\n      mload\n        /* \"contracts/MarketPlace.sol\":3780:3822  soldProduct.product.owner == productSeller */\n      0xffffffffffffffffffffffffffffffffffffffff\n      and\n      eq\n        /* \"contracts/MarketPlace.sol\":3780:3875  soldProduct.product.owner == productSeller && msg.value >= soldProduct.price + soldProduct.fees */\n      dup1\n      iszero\n      tag_311\n      jumpi\n      pop\n        /* \"contracts/MarketPlace.sol\":3859:3870  soldProduct */\n      dup1\n        /* \"contracts/MarketPlace.sol\":3859:3875  soldProduct.fees */\n      0x20\n      add\n      mload\n        /* \"contracts/MarketPlace.sol\":3839:3850  soldProduct */\n      dup2\n        /* \"contracts/MarketPlace.sol\":3839:3856  soldProduct.price */\n      0x00\n      add\n      mload\n        /* \"contracts/MarketPlace.sol\":3839:3875  soldProduct.price + soldProduct.fees */\n      tag_312\n      swap2\n      swap1\n      tag_313\n      jump\t// in\n    tag_312:\n        /* \"contracts/MarketPlace.sol\":3826:3835  msg.value */\n      callvalue\n        /* \"contracts/MarketPlace.sol\":3826:3875  msg.value >= soldProduct.price + soldProduct.fees */\n      lt\n      iszero\n        /* \"contracts/MarketPlace.sol\":3780:3875  soldProduct.product.owner == productSeller && msg.value >= soldProduct.price + soldProduct.fees */\n    tag_311:\n        /* \"contracts/MarketPlace.sol\":3772:3900  require(soldProduct.product.owner == productSeller && msg.value >= soldProduct.price + soldProduct.fees, \"Not enough wei sent!\") */\n      tag_314\n      jumpi\n      mload(0x40)\n      0x08c379a000000000000000000000000000000000000000000000000000000000\n      dup2\n      mstore\n      0x04\n      add\n      tag_315\n      swap1\n      tag_316\n      jump\t// in\n    tag_315:\n      mload(0x40)\n      dup1\n      swap2\n      sub\n      swap1\n      revert\n    tag_314:\n        /* \"contracts/MarketPlace.sol\":3912:3924  bool success */\n      0x00\n        /* \"contracts/MarketPlace.sol\":3938:3951  productSeller */\n      dup3\n        /* \"contracts/MarketPlace.sol\":3930:3957  payable(productSeller).call */\n      0xffffffffffffffffffffffffffffffffffffffff\n      and\n        /* \"contracts/MarketPlace.sol\":3965:3976  soldProduct */\n      dup3\n        /* \"contracts/MarketPlace.sol\":3965:3982  soldProduct.price */\n      0x00\n      add\n      mload\n        /* \"contracts/MarketPlace.sol\":3930:3987  payable(productSeller).call{value: soldProduct.price}(\"\") */\n      mload(0x40)\n      tag_317\n      swap1\n      tag_318\n      jump\t// in\n    tag_317:\n      0x00\n      mload(0x40)\n      dup1\n      dup4\n      sub\n      dup2\n      dup6\n      dup8\n      gas\n      call\n      swap3\n      pop\n      pop\n      pop\n      returndatasize\n      dup1\n      0x00\n      dup2\n      eq\n      tag_321\n      jumpi\n      mload(0x40)\n      swap2\n      pop\n      and(add(returndatasize, 0x3f), not(0x1f))\n      dup3\n      add\n      0x40\n      mstore\n      returndatasize\n      dup3\n      mstore\n      returndatasize\n      0x00\n      0x20\n      dup5\n      add\n      returndatacopy\n      jump(tag_320)\n    tag_321:\n      0x60\n      swap2\n      pop\n    tag_320:\n      pop\n        /* \"contracts/MarketPlace.sol\":3911:3987  (bool success, ) = payable(productSeller).call{value: soldProduct.price}(\"\") */\n      pop\n      swap1\n      pop\n        /* \"contracts/MarketPlace.sol\":4006:4013  success */\n      dup1\n        /* \"contracts/MarketPlace.sol\":3998:4037  require(success, \"Transaction failed!\") */\n      tag_322\n      jumpi\n      mload(0x40)\n      0x08c379a000000000000000000000000000000000000000000000000000000000\n      dup2\n      mstore\n      0x04\n      add\n      tag_323\n      swap1\n      tag_324\n      jump\t// in\n    tag_323:\n      mload(0x40)\n      dup1\n      swap2\n      sub\n      swap1\n      revert\n    tag_322:\n        /* \"contracts/MarketPlace.sol\":4058:4072  productHistory */\n      0x04\n        /* \"contracts/MarketPlace.sol\":4058:4083  productHistory[productId] */\n      0x00\n        /* \"contracts/MarketPlace.sol\":4073:4082  productId */\n      dup6\n        /* \"contracts/MarketPlace.sol\":4058:4083  productHistory[productId] */\n      dup2\n      mstore\n      0x20\n      add\n      swap1\n      dup2\n      mstore\n      0x20\n      add\n      0x00\n      keccak256\n        /* \"contracts/MarketPlace.sol\":4089:4193  TransactionDetails(soldProduct.price, soldProduct.fees, soldProduct.datetime, productSeller, msg.sender) */\n      mload(0x40)\n      dup1\n      0xa0\n      add\n      0x40\n      mstore\n      dup1\n        /* \"contracts/MarketPlace.sol\":4108:4119  soldProduct */\n      dup5\n        /* \"contracts/MarketPlace.sol\":4108:4125  soldProduct.price */\n      0x00\n      add\n      mload\n        /* \"contracts/MarketPlace.sol\":4089:4193  TransactionDetails(soldProduct.price, soldProduct.fees, soldProduct.datetime, productSeller, msg.sender) */\n      dup2\n      mstore\n      0x20\n      add\n        /* \"contracts/MarketPlace.sol\":4127:4138  soldProduct */\n      dup5\n        /* \"contracts/MarketPlace.sol\":4127:4143  soldProduct.fees */\n      0x20\n      add\n      mload\n        /* \"contracts/MarketPlace.sol\":4089:4193  TransactionDetails(soldProduct.price, soldProduct.fees, soldProduct.datetime, productSeller, msg.sender) */\n      dup2\n      mstore\n      0x20\n      add\n        /* \"contracts/MarketPlace.sol\":4145:4156  soldProduct */\n      dup5\n        /* \"contracts/MarketPlace.sol\":4145:4165  soldProduct.datetime */\n      0x40\n      add\n      mload\n        /* \"contracts/MarketPlace.sol\":4089:4193  TransactionDetails(soldProduct.price, soldProduct.fees, soldProduct.datetime, productSeller, msg.sender) */\n      dup2\n      mstore\n      0x20\n      add\n        /* \"contracts/MarketPlace.sol\":4167:4180  productSeller */\n      dup6\n        /* \"contracts/MarketPlace.sol\":4089:4193  TransactionDetails(soldProduct.price, soldProduct.fees, soldProduct.datetime, productSeller, msg.sender) */\n      0xffffffffffffffffffffffffffffffffffffffff\n      and\n      dup2\n      mstore\n      0x20\n      add\n        /* \"contracts/MarketPlace.sol\":4182:4192  msg.sender */\n      caller\n        /* \"contracts/MarketPlace.sol\":4089:4193  TransactionDetails(soldProduct.price, soldProduct.fees, soldProduct.datetime, productSeller, msg.sender) */\n      0xffffffffffffffffffffffffffffffffffffffff\n      and\n      dup2\n      mstore\n      pop\n        /* \"contracts/MarketPlace.sol\":4058:4194  productHistory[productId].push(TransactionDetails(soldProduct.price, soldProduct.fees, soldProduct.datetime, productSeller, msg.sender)) */\n      swap1\n      dup1\n      0x01\n      dup2\n      sload\n      add\n      dup1\n      dup3\n      sstore\n      dup1\n      swap2\n      pop\n      pop\n      0x01\n      swap1\n      sub\n      swap1\n      0x00\n      mstore\n      keccak256(0x00, 0x20)\n      swap1\n      0x05\n      mul\n      add\n      0x00\n      swap1\n      swap2\n      swap1\n      swap2\n      swap1\n      swap2\n      pop\n      0x00\n      dup3\n      add\n      mload\n      dup2\n      0x00\n      add\n      sstore\n      0x20\n      dup3\n      add\n      mload\n      dup2\n      0x01\n      add\n      sstore\n      0x40\n      dup3\n      add\n      mload\n      dup2\n      0x02\n      add\n      sstore\n      0x60\n      dup3\n      add\n      mload\n      dup2\n      0x03\n      add\n      exp(0x0100, 0x00)\n      dup2\n      sload\n      dup2\n      0xffffffffffffffffffffffffffffffffffffffff\n      mul\n      not\n      and\n      swap1\n      dup4\n      0xffffffffffffffffffffffffffffffffffffffff\n      and\n      mul\n      or\n      swap1\n      sstore\n      pop\n      0x80\n      dup3\n      add\n      mload\n      dup2\n      0x04\n      add\n      exp(0x0100, 0x00)\n      dup2\n      sload\n      dup2\n      0xffffffffffffffffffffffffffffffffffffffff\n      mul\n      not\n      and\n      swap1\n      dup4\n      0xffffffffffffffffffffffffffffffffffffffff\n      and\n      mul\n      or\n      swap1\n      sstore\n      pop\n      pop\n      pop\n        /* \"contracts/MarketPlace.sol\":4205:4276  transferFromSellableToNonSellable(productSeller, msg.sender, productId) */\n      tag_326\n        /* \"contracts/MarketPlace.sol\":4239:4252  productSeller */\n      dup4\n        /* \"contracts/MarketPlace.sol\":4254:4264  msg.sender */\n      caller\n        /* \"contracts/MarketPlace.sol\":4266:4275  productId */\n      dup7\n        /* \"contracts/MarketPlace.sol\":4205:4238  transferFromSellableToNonSellable */\n      tag_327\n        /* \"contracts/MarketPlace.sol\":4205:4276  transferFromSellableToNonSellable(productSeller, msg.sender, productId) */\n      jump\t// in\n    tag_326:\n        /* \"contracts/MarketPlace.sol\":4311:4318  owner() */\n      tag_328\n        /* \"contracts/MarketPlace.sol\":4311:4316  owner */\n      tag_49\n        /* \"contracts/MarketPlace.sol\":4311:4318  owner() */\n      jump\t// in\n    tag_328:\n        /* \"contracts/MarketPlace.sol\":4303:4324  payable(owner()).call */\n      0xffffffffffffffffffffffffffffffffffffffff\n      and\n        /* \"contracts/MarketPlace.sol\":4332:4343  soldProduct */\n      dup3\n        /* \"contracts/MarketPlace.sol\":4332:4348  soldProduct.fees */\n      0x20\n      add\n      mload\n        /* \"contracts/MarketPlace.sol\":4303:4353  payable(owner()).call{value: soldProduct.fees}(\"\") */\n      mload(0x40)\n      tag_329\n      swap1\n      tag_318\n      jump\t// in\n    tag_329:\n      0x00\n      mload(0x40)\n      dup1\n      dup4\n      sub\n      dup2\n      dup6\n      dup8\n      gas\n      call\n      swap3\n      pop\n      pop\n      pop\n      returndatasize\n      dup1\n      0x00\n      dup2\n      eq\n      tag_332\n      jumpi\n      mload(0x40)\n      swap2\n      pop\n      and(add(returndatasize, 0x3f), not(0x1f))\n      dup3\n      add\n      0x40\n      mstore\n      returndatasize\n      dup3\n      mstore\n      returndatasize\n      0x00\n      0x20\n      dup5\n      add\n      returndatacopy\n      jump(tag_331)\n    tag_332:\n      0x60\n      swap2\n      pop\n    tag_331:\n      pop\n        /* \"contracts/MarketPlace.sol\":4289:4353  (success, ) = payable(owner()).call{value: soldProduct.fees}(\"\") */\n      pop\n      dup1\n      swap2\n      pop\n      pop\n        /* \"contracts/MarketPlace.sol\":4372:4379  success */\n      dup1\n        /* \"contracts/MarketPlace.sol\":4364:4435  require(success, \"Fees payment failed but transaction was successful!\") */\n      tag_333\n      jumpi\n      mload(0x40)\n      0x08c379a000000000000000000000000000000000000000000000000000000000\n      dup2\n      mstore\n      0x04\n      add\n      tag_334\n      swap1\n      tag_335\n      jump\t// in\n    tag_334:\n      mload(0x40)\n      dup1\n      swap2\n      sub\n      swap1\n      revert\n    tag_333:\n        /* \"contracts/MarketPlace.sol\":3666:4443  {\r... */\n      pop\n      pop\n        /* \"contracts/MarketPlace.sol\":3587:4443  function buyProduct(uint256 productId, address productSeller) external payable {\r... */\n      pop\n      pop\n      jump\t// out\n        /* \"contracts/MarketPlace.sol\":994:1117  function setFeePercentage(uint256 _feePercentage) external onlyOwner {\r... */\n    tag_66:\n        /* \"contracts/Ownable.sol\":1302:1314  _msgSender() */\n      tag_337\n        /* \"contracts/Ownable.sol\":1302:1312  _msgSender */\n      tag_186\n        /* \"contracts/Ownable.sol\":1302:1314  _msgSender() */\n      jump\t// in\n    tag_337:\n        /* \"contracts/Ownable.sol\":1291:1314  owner() == _msgSender() */\n      0xffffffffffffffffffffffffffffffffffffffff\n      and\n        /* \"contracts/Ownable.sol\":1291:1298  owner() */\n      tag_338\n        /* \"contracts/Ownable.sol\":1291:1296  owner */\n      tag_49\n        /* \"contracts/Ownable.sol\":1291:1298  owner() */\n      jump\t// in\n    tag_338:\n        /* \"contracts/Ownable.sol\":1291:1314  owner() == _msgSender() */\n      0xffffffffffffffffffffffffffffffffffffffff\n      and\n      eq\n        /* \"contracts/Ownable.sol\":1283:1351  require(owner() == _msgSender(), \"Ownable: caller is not the owner\") */\n      tag_339\n      jumpi\n      mload(0x40)\n      0x08c379a000000000000000000000000000000000000000000000000000000000\n      dup2\n      mstore\n      0x04\n      add\n      tag_340\n      swap1\n      tag_190\n      jump\t// in\n    tag_340:\n      mload(0x40)\n      dup1\n      swap2\n      sub\n      swap1\n      revert\n    tag_339:\n        /* \"contracts/MarketPlace.sol\":1095:1109  _feePercentage */\n      dup1\n        /* \"contracts/MarketPlace.sol\":1074:1092  feePricePercentage */\n      0x06\n        /* \"contracts/MarketPlace.sol\":1074:1109  feePricePercentage = _feePercentage */\n      dup2\n      swap1\n      sstore\n      pop\n        /* \"contracts/MarketPlace.sol\":994:1117  function setFeePercentage(uint256 _feePercentage) external onlyOwner {\r... */\n      pop\n      jump\t// out\n        /* \"contracts/MarketPlace.sol\":6886:7158  function getSellableProductDetails(uint256 productId) external view returns (SellableProduct memory) {\r... */\n    tag_70:\n        /* \"contracts/MarketPlace.sol\":6963:6985  SellableProduct memory */\n      tag_342\n      tag_343\n      jump\t// in\n    tag_342:\n        /* \"contracts/MarketPlace.sol\":6998:7020  Product memory product */\n      0x00\n        /* \"contracts/MarketPlace.sol\":7023:7031  products */\n      0x05\n        /* \"contracts/MarketPlace.sol\":7032:7041  productId */\n      dup4\n        /* \"contracts/MarketPlace.sol\":7023:7042  products[productId] */\n      dup2\n      sload\n      dup2\n      lt\n      tag_345\n      jumpi\n      tag_346\n      tag_151\n      jump\t// in\n    tag_346:\n    tag_345:\n      swap1\n      0x00\n      mstore\n      keccak256(0x00, 0x20)\n      swap1\n      0x07\n      mul\n      add\n        /* \"contracts/MarketPlace.sol\":6998:7042  Product memory product = products[productId] */\n      mload(0x40)\n      dup1\n      0xe0\n      add\n      0x40\n      mstore\n      swap1\n      dup2\n      0x00\n      dup3\n      add\n      sload\n      dup2\n      mstore\n      0x20\n      add\n      0x01\n      dup3\n      add\n      0x00\n      swap1\n      sload\n      swap1\n      0x0100\n      exp\n      swap1\n      div\n      0xffffffffffffffffffffffffffffffffffffffff\n      and\n      0xffffffffffffffffffffffffffffffffffffffff\n      and\n      0xffffffffffffffffffffffffffffffffffffffff\n      and\n      dup2\n      mstore\n      0x20\n      add\n      0x02\n      dup3\n      add\n      dup1\n      sload\n      tag_348\n      swap1\n      tag_112\n      jump\t// in\n    tag_348:\n      dup1\n      0x1f\n      add\n      0x20\n      dup1\n      swap2\n      div\n      mul\n      0x20\n      add\n      mload(0x40)\n      swap1\n      dup2\n      add\n      0x40\n      mstore\n      dup1\n      swap3\n      swap2\n      swap1\n      dup2\n      dup2\n      mstore\n      0x20\n      add\n      dup3\n      dup1\n      sload\n      tag_349\n      swap1\n      tag_112\n      jump\t// in\n    tag_349:\n      dup1\n      iszero\n      tag_350\n      jumpi\n      dup1\n      0x1f\n      lt\n      tag_351\n      jumpi\n      0x0100\n      dup1\n      dup4\n      sload\n      div\n      mul\n      dup4\n      mstore\n      swap2\n      0x20\n      add\n      swap2\n      jump(tag_350)\n    tag_351:\n      dup3\n      add\n      swap2\n      swap1\n      0x00\n      mstore\n      keccak256(0x00, 0x20)\n      swap1\n    tag_352:\n      dup2\n      sload\n      dup2\n      mstore\n      swap1\n      0x01\n      add\n      swap1\n      0x20\n      add\n      dup1\n      dup4\n      gt\n      tag_352\n      jumpi\n      dup3\n      swap1\n      sub\n      0x1f\n      and\n      dup3\n      add\n      swap2\n    tag_350:\n      pop\n      pop\n      pop\n      pop\n      pop\n      dup2\n      mstore\n      0x20\n      add\n      0x03\n      dup3\n      add\n      dup1\n      sload\n      tag_353\n      swap1\n      tag_112\n      jump\t// in\n    tag_353:\n      dup1\n      0x1f\n      add\n      0x20\n      dup1\n      swap2\n      div\n      mul\n      0x20\n      add\n      mload(0x40)\n      swap1\n      dup2\n      add\n      0x40\n      mstore\n      dup1\n      swap3\n      swap2\n      swap1\n      dup2\n      dup2\n      mstore\n      0x20\n      add\n      dup3\n      dup1\n      sload\n      tag_354\n      swap1\n      tag_112\n      jump\t// in\n    tag_354:\n      dup1\n      iszero\n      tag_355\n      jumpi\n      dup1\n      0x1f\n      lt\n      tag_356\n      jumpi\n      0x0100\n      dup1\n      dup4\n      sload\n      div\n      mul\n      dup4\n      mstore\n      swap2\n      0x20\n      add\n      swap2\n      jump(tag_355)\n    tag_356:\n      dup3\n      add\n      swap2\n      swap1\n      0x00\n      mstore\n      keccak256(0x00, 0x20)\n      swap1\n    tag_357:\n      dup2\n      sload\n      dup2\n      mstore\n      swap1\n      0x01\n      add\n      swap1\n      0x20\n      add\n      dup1\n      dup4\n      gt\n      tag_357\n      jumpi\n      dup3\n      swap1\n      sub\n      0x1f\n      and\n      dup3\n      add\n      swap2\n    tag_355:\n      pop\n      pop\n      pop\n      pop\n      pop\n      dup2\n      mstore\n      0x20\n      add\n      0x04\n      dup3\n      add\n      dup1\n      sload\n      tag_358\n      swap1\n      tag_112\n      jump\t// in\n    tag_358:\n      dup1\n      0x1f\n      add\n      0x20\n      dup1\n      swap2\n      div\n      mul\n      0x20\n      add\n      mload(0x40)\n      swap1\n      dup2\n      add\n      0x40\n      mstore\n      dup1\n      swap3\n      swap2\n      swap1\n      dup2\n      dup2\n      mstore\n      0x20\n      add\n      dup3\n      dup1\n      sload\n      tag_359\n      swap1\n      tag_112\n      jump\t// in\n    tag_359:\n      dup1\n      iszero\n      tag_360\n      jumpi\n      dup1\n      0x1f\n      lt\n      tag_361\n      jumpi\n      0x0100\n      dup1\n      dup4\n      sload\n      div\n      mul\n      dup4\n      mstore\n      swap2\n      0x20\n      add\n      swap2\n      jump(tag_360)\n    tag_361:\n      dup3\n      add\n      swap2\n      swap1\n      0x00\n      mstore\n      keccak256(0x00, 0x20)\n      swap1\n    tag_362:\n      dup2\n      sload\n      dup2\n      mstore\n      swap1\n      0x01\n      add\n      swap1\n      0x20\n      add\n      dup1\n      dup4\n      gt\n      tag_362\n      jumpi\n      dup3\n      swap1\n      sub\n      0x1f\n      and\n      dup3\n      add\n      swap2\n    tag_360:\n      pop\n      pop\n      pop\n      pop\n      pop\n      dup2\n      mstore\n      0x20\n      add\n      0x05\n      dup3\n      add\n      dup1\n      sload\n      dup1\n      0x20\n      mul\n      0x20\n      add\n      mload(0x40)\n      swap1\n      dup2\n      add\n      0x40\n      mstore\n      dup1\n      swap3\n      swap2\n      swap1\n      dup2\n      dup2\n      mstore\n      0x20\n      add\n      0x00\n      swap1\n    tag_363:\n      dup3\n      dup3\n      lt\n      iszero\n      tag_364\n      jumpi\n      dup4\n      dup3\n      swap1\n      0x00\n      mstore\n      keccak256(0x00, 0x20)\n      add\n      dup1\n      sload\n      tag_366\n      swap1\n      tag_112\n      jump\t// in\n    tag_366:\n      dup1\n      0x1f\n      add\n      0x20\n      dup1\n      swap2\n      div\n      mul\n      0x20\n      add\n      mload(0x40)\n      swap1\n      dup2\n      add\n      0x40\n      mstore\n      dup1\n      swap3\n      swap2\n      swap1\n      dup2\n      dup2\n      mstore\n      0x20\n      add\n      dup3\n      dup1\n      sload\n      tag_367\n      swap1\n      tag_112\n      jump\t// in\n    tag_367:\n      dup1\n      iszero\n      tag_368\n      jumpi\n      dup1\n      0x1f\n      lt\n      tag_369\n      jumpi\n      0x0100\n      dup1\n      dup4\n      sload\n      div\n      mul\n      dup4\n      mstore\n      swap2\n      0x20\n      add\n      swap2\n      jump(tag_368)\n    tag_369:\n      dup3\n      add\n      swap2\n      swap1\n      0x00\n      mstore\n      keccak256(0x00, 0x20)\n      swap1\n    tag_370:\n      dup2\n      sload\n      dup2\n      mstore\n      swap1\n      0x01\n      add\n      swap1\n      0x20\n      add\n      dup1\n      dup4\n      gt\n      tag_370\n      jumpi\n      dup3\n      swap1\n      sub\n      0x1f\n      and\n      dup3\n      add\n      swap2\n    tag_368:\n      pop\n      pop\n      pop\n      pop\n      pop\n      dup2\n      mstore\n      0x20\n      add\n      swap1\n      0x01\n      add\n      swap1\n      jump(tag_363)\n    tag_364:\n      pop\n      pop\n      pop\n      pop\n      dup2\n      mstore\n      0x20\n      add\n      0x06\n      dup3\n      add\n      0x00\n      swap1\n      sload\n      swap1\n      0x0100\n      exp\n      swap1\n      div\n      0xff\n      and\n      iszero\n      iszero\n      iszero\n      iszero\n      dup2\n      mstore\n      pop\n      pop\n      swap1\n      pop\n        /* \"contracts/MarketPlace.sol\":7080:7084  true */\n      0x01\n        /* \"contracts/MarketPlace.sol\":7061:7084  product.forSale == true */\n      iszero\n      iszero\n        /* \"contracts/MarketPlace.sol\":7061:7068  product */\n      dup2\n        /* \"contracts/MarketPlace.sol\":7061:7076  product.forSale */\n      0xc0\n      add\n      mload\n        /* \"contracts/MarketPlace.sol\":7061:7084  product.forSale == true */\n      iszero\n      iszero\n      eq\n        /* \"contracts/MarketPlace.sol\":7053:7085  require(product.forSale == true) */\n      tag_371\n      jumpi\n      0x00\n      dup1\n      revert\n    tag_371:\n        /* \"contracts/MarketPlace.sol\":7103:7124  ownedSellableProducts */\n      0x02\n        /* \"contracts/MarketPlace.sol\":7103:7139  ownedSellableProducts[product.owner] */\n      0x00\n        /* \"contracts/MarketPlace.sol\":7125:7132  product */\n      dup3\n        /* \"contracts/MarketPlace.sol\":7125:7138  product.owner */\n      0x20\n      add\n      mload\n        /* \"contracts/MarketPlace.sol\":7103:7139  ownedSellableProducts[product.owner] */\n      0xffffffffffffffffffffffffffffffffffffffff\n      and\n      0xffffffffffffffffffffffffffffffffffffffff\n      and\n      dup2\n      mstore\n      0x20\n      add\n      swap1\n      dup2\n      mstore\n      0x20\n      add\n      0x00\n      keccak256\n        /* \"contracts/MarketPlace.sol\":7103:7150  ownedSellableProducts[product.owner][productId] */\n      0x00\n        /* \"contracts/MarketPlace.sol\":7140:7149  productId */\n      dup5\n        /* \"contracts/MarketPlace.sol\":7103:7150  ownedSellableProducts[product.owner][productId] */\n      dup2\n      mstore\n      0x20\n      add\n      swap1\n      dup2\n      mstore\n      0x20\n      add\n      0x00\n      keccak256\n        /* \"contracts/MarketPlace.sol\":7096:7150  return ownedSellableProducts[product.owner][productId] */\n      mload(0x40)\n      dup1\n      0x80\n      add\n      0x40\n      mstore\n      swap1\n      dup2\n      0x00\n      dup3\n      add\n      sload\n      dup2\n      mstore\n      0x20\n      add\n      0x01\n      dup3\n      add\n      sload\n      dup2\n      mstore\n      0x20\n      add\n      0x02\n      dup3\n      add\n      sload\n      dup2\n      mstore\n      0x20\n      add\n      0x03\n      dup3\n      add\n      mload(0x40)\n      dup1\n      0xe0\n      add\n      0x40\n      mstore\n      swap1\n      dup2\n      0x00\n      dup3\n      add\n      sload\n      dup2\n      mstore\n      0x20\n      add\n      0x01\n      dup3\n      add\n      0x00\n      swap1\n      sload\n      swap1\n      0x0100\n      exp\n      swap1\n      div\n      0xffffffffffffffffffffffffffffffffffffffff\n      and\n      0xffffffffffffffffffffffffffffffffffffffff\n      and\n      0xffffffffffffffffffffffffffffffffffffffff\n      and\n      dup2\n      mstore\n      0x20\n      add\n      0x02\n      dup3\n      add\n      dup1\n      sload\n      tag_372\n      swap1\n      tag_112\n      jump\t// in\n    tag_372:\n      dup1\n      0x1f\n      add\n      0x20\n      dup1\n      swap2\n      div\n      mul\n      0x20\n      add\n      mload(0x40)\n      swap1\n      dup2\n      add\n      0x40\n      mstore\n      dup1\n      swap3\n      swap2\n      swap1\n      dup2\n      dup2\n      mstore\n      0x20\n      add\n      dup3\n      dup1\n      sload\n      tag_373\n      swap1\n      tag_112\n      jump\t// in\n    tag_373:\n      dup1\n      iszero\n      tag_374\n      jumpi\n      dup1\n      0x1f\n      lt\n      tag_375\n      jumpi\n      0x0100\n      dup1\n      dup4\n      sload\n      div\n      mul\n      dup4\n      mstore\n      swap2\n      0x20\n      add\n      swap2\n      jump(tag_374)\n    tag_375:\n      dup3\n      add\n      swap2\n      swap1\n      0x00\n      mstore\n      keccak256(0x00, 0x20)\n      swap1\n    tag_376:\n      dup2\n      sload\n      dup2\n      mstore\n      swap1\n      0x01\n      add\n      swap1\n      0x20\n      add\n      dup1\n      dup4\n      gt\n      tag_376\n      jumpi\n      dup3\n      swap1\n      sub\n      0x1f\n      and\n      dup3\n      add\n      swap2\n    tag_374:\n      pop\n      pop\n      pop\n      pop\n      pop\n      dup2\n      mstore\n      0x20\n      add\n      0x03\n      dup3\n      add\n      dup1\n      sload\n      tag_377\n      swap1\n      tag_112\n      jump\t// in\n    tag_377:\n      dup1\n      0x1f\n      add\n      0x20\n      dup1\n      swap2\n      div\n      mul\n      0x20\n      add\n      mload(0x40)\n      swap1\n      dup2\n      add\n      0x40\n      mstore\n      dup1\n      swap3\n      swap2\n      swap1\n      dup2\n      dup2\n      mstore\n      0x20\n      add\n      dup3\n      dup1\n      sload\n      tag_378\n      swap1\n      tag_112\n      jump\t// in\n    tag_378:\n      dup1\n      iszero\n      tag_379\n      jumpi\n      dup1\n      0x1f\n      lt\n      tag_380\n      jumpi\n      0x0100\n      dup1\n      dup4\n      sload\n      div\n      mul\n      dup4\n      mstore\n      swap2\n      0x20\n      add\n      swap2\n      jump(tag_379)\n    tag_380:\n      dup3\n      add\n      swap2\n      swap1\n      0x00\n      mstore\n      keccak256(0x00, 0x20)\n      swap1\n    tag_381:\n      dup2\n      sload\n      dup2\n      mstore\n      swap1\n      0x01\n      add\n      swap1\n      0x20\n      add\n      dup1\n      dup4\n      gt\n      tag_381\n      jumpi\n      dup3\n      swap1\n      sub\n      0x1f\n      and\n      dup3\n      add\n      swap2\n    tag_379:\n      pop\n      pop\n      pop\n      pop\n      pop\n      dup2\n      mstore\n      0x20\n      add\n      0x04\n      dup3\n      add\n      dup1\n      sload\n      tag_382\n      swap1\n      tag_112\n      jump\t// in\n    tag_382:\n      dup1\n      0x1f\n      add\n      0x20\n      dup1\n      swap2\n      div\n      mul\n      0x20\n      add\n      mload(0x40)\n      swap1\n      dup2\n      add\n      0x40\n      mstore\n      dup1\n      swap3\n      swap2\n      swap1\n      dup2\n      dup2\n      mstore\n      0x20\n      add\n      dup3\n      dup1\n      sload\n      tag_383\n      swap1\n      tag_112\n      jump\t// in\n    tag_383:\n      dup1\n      iszero\n      tag_384\n      jumpi\n      dup1\n      0x1f\n      lt\n      tag_385\n      jumpi\n      0x0100\n      dup1\n      dup4\n      sload\n      div\n      mul\n      dup4\n      mstore\n      swap2\n      0x20\n      add\n      swap2\n      jump(tag_384)\n    tag_385:\n      dup3\n      add\n      swap2\n      swap1\n      0x00\n      mstore\n      keccak256(0x00, 0x20)\n      swap1\n    tag_386:\n      dup2\n      sload\n      dup2\n      mstore\n      swap1\n      0x01\n      add\n      swap1\n      0x20\n      add\n      dup1\n      dup4\n      gt\n      tag_386\n      jumpi\n      dup3\n      swap1\n      sub\n      0x1f\n      and\n      dup3\n      add\n      swap2\n    tag_384:\n      pop\n      pop\n      pop\n      pop\n      pop\n      dup2\n      mstore\n      0x20\n      add\n      0x05\n      dup3\n      add\n      dup1\n      sload\n      dup1\n      0x20\n      mul\n      0x20\n      add\n      mload(0x40)\n      swap1\n      dup2\n      add\n      0x40\n      mstore\n      dup1\n      swap3\n      swap2\n      swap1\n      dup2\n      dup2\n      mstore\n      0x20\n      add\n      0x00\n      swap1\n    tag_387:\n      dup3\n      dup3\n      lt\n      iszero\n      tag_388\n      jumpi\n      dup4\n      dup3\n      swap1\n      0x00\n      mstore\n      keccak256(0x00, 0x20)\n      add\n      dup1\n      sload\n      tag_390\n      swap1\n      tag_112\n      jump\t// in\n    tag_390:\n      dup1\n      0x1f\n      add\n      0x20\n      dup1\n      swap2\n      div\n      mul\n      0x20\n      add\n      mload(0x40)\n      swap1\n      dup2\n      add\n      0x40\n      mstore\n      dup1\n      swap3\n      swap2\n      swap1\n      dup2\n      dup2\n      mstore\n      0x20\n      add\n      dup3\n      dup1\n      sload\n      tag_391\n      swap1\n      tag_112\n      jump\t// in\n    tag_391:\n      dup1\n      iszero\n      tag_392\n      jumpi\n      dup1\n      0x1f\n      lt\n      tag_393\n      jumpi\n      0x0100\n      dup1\n      dup4\n      sload\n      div\n      mul\n      dup4\n      mstore\n      swap2\n      0x20\n      add\n      swap2\n      jump(tag_392)\n    tag_393:\n      dup3\n      add\n      swap2\n      swap1\n      0x00\n      mstore\n      keccak256(0x00, 0x20)\n      swap1\n    tag_394:\n      dup2\n      sload\n      dup2\n      mstore\n      swap1\n      0x01\n      add\n      swap1\n      0x20\n      add\n      dup1\n      dup4\n      gt\n      tag_394\n      jumpi\n      dup3\n      swap1\n      sub\n      0x1f\n      and\n      dup3\n      add\n      swap2\n    tag_392:\n      pop\n      pop\n      pop\n      pop\n      pop\n      dup2\n      mstore\n      0x20\n      add\n      swap1\n      0x01\n      add\n      swap1\n      jump(tag_387)\n    tag_388:\n      pop\n      pop\n      pop\n      pop\n      dup2\n      mstore\n      0x20\n      add\n      0x06\n      dup3\n      add\n      0x00\n      swap1\n      sload\n      swap1\n      0x0100\n      exp\n      swap1\n      div\n      0xff\n      and\n      iszero\n      iszero\n      iszero\n      iszero\n      dup2\n      mstore\n      pop\n      pop\n      dup2\n      mstore\n      pop\n      pop\n      swap2\n      pop\n      pop\n        /* \"contracts/MarketPlace.sol\":6886:7158  function getSellableProductDetails(uint256 productId) external view returns (SellableProduct memory) {\r... */\n      swap2\n      swap1\n      pop\n      jump\t// out\n        /* \"contracts/MarketPlace.sol\":1814:2183  function addNonSellableProduct(string memory _name, string memory _description, string memory _link, string[] memory _tags) external {\r... */\n    tag_77:\n        /* \"contracts/MarketPlace.sol\":1958:1968  uint256 id */\n      0x00\n        /* \"contracts/MarketPlace.sol\":1971:1978  idCount */\n      0x01\n      0x00\n        /* \"contracts/MarketPlace.sol\":1971:1980  idCount++ */\n      dup2\n      sload\n      dup1\n      swap3\n      swap2\n      swap1\n      tag_396\n      swap1\n      tag_95\n      jump\t// in\n    tag_396:\n      swap2\n      swap1\n      pop\n      sstore\n        /* \"contracts/MarketPlace.sol\":1958:1980  uint256 id = idCount++ */\n      swap1\n      pop\n        /* \"contracts/MarketPlace.sol\":1991:2013  Product memory product */\n      0x00\n        /* \"contracts/MarketPlace.sol\":2016:2081  Product(id, msg.sender, _name, _description, _link, _tags, false) */\n      mload(0x40)\n      dup1\n      0xe0\n      add\n      0x40\n      mstore\n      dup1\n        /* \"contracts/MarketPlace.sol\":2024:2026  id */\n      dup4\n        /* \"contracts/MarketPlace.sol\":2016:2081  Product(id, msg.sender, _name, _description, _link, _tags, false) */\n      dup2\n      mstore\n      0x20\n      add\n        /* \"contracts/MarketPlace.sol\":2028:2038  msg.sender */\n      caller\n        /* \"contracts/MarketPlace.sol\":2016:2081  Product(id, msg.sender, _name, _description, _link, _tags, false) */\n      0xffffffffffffffffffffffffffffffffffffffff\n      and\n      dup2\n      mstore\n      0x20\n      add\n        /* \"contracts/MarketPlace.sol\":2040:2045  _name */\n      dup8\n        /* \"contracts/MarketPlace.sol\":2016:2081  Product(id, msg.sender, _name, _description, _link, _tags, false) */\n      dup2\n      mstore\n      0x20\n      add\n        /* \"contracts/MarketPlace.sol\":2047:2059  _description */\n      dup7\n        /* \"contracts/MarketPlace.sol\":2016:2081  Product(id, msg.sender, _name, _description, _link, _tags, false) */\n      dup2\n      mstore\n      0x20\n      add\n        /* \"contracts/MarketPlace.sol\":2061:2066  _link */\n      dup6\n        /* \"contracts/MarketPlace.sol\":2016:2081  Product(id, msg.sender, _name, _description, _link, _tags, false) */\n      dup2\n      mstore\n      0x20\n      add\n        /* \"contracts/MarketPlace.sol\":2068:2073  _tags */\n      dup5\n        /* \"contracts/MarketPlace.sol\":2016:2081  Product(id, msg.sender, _name, _description, _link, _tags, false) */\n      dup2\n      mstore\n      0x20\n      add\n        /* \"contracts/MarketPlace.sol\":2075:2080  false */\n      0x00\n        /* \"contracts/MarketPlace.sol\":2016:2081  Product(id, msg.sender, _name, _description, _link, _tags, false) */\n      iszero\n      iszero\n      dup2\n      mstore\n      pop\n        /* \"contracts/MarketPlace.sol\":1991:2081  Product memory product = Product(id, msg.sender, _name, _description, _link, _tags, false) */\n      swap1\n      pop\n        /* \"contracts/MarketPlace.sol\":2092:2100  products */\n      0x05\n        /* \"contracts/MarketPlace.sol\":2106:2113  product */\n      dup2\n        /* \"contracts/MarketPlace.sol\":2092:2114  products.push(product) */\n      swap1\n      dup1\n      0x01\n      dup2\n      sload\n      add\n      dup1\n      dup3\n      sstore\n      dup1\n      swap2\n      pop\n      pop\n      0x01\n      swap1\n      sub\n      swap1\n      0x00\n      mstore\n      keccak256(0x00, 0x20)\n      swap1\n      0x07\n      mul\n      add\n      0x00\n      swap1\n      swap2\n      swap1\n      swap2\n      swap1\n      swap2\n      pop\n      0x00\n      dup3\n      add\n      mload\n      dup2\n      0x00\n      add\n      sstore\n      0x20\n      dup3\n      add\n      mload\n      dup2\n      0x01\n      add\n      exp(0x0100, 0x00)\n      dup2\n      sload\n      dup2\n      0xffffffffffffffffffffffffffffffffffffffff\n      mul\n      not\n      and\n      swap1\n      dup4\n      0xffffffffffffffffffffffffffffffffffffffff\n      and\n      mul\n      or\n      swap1\n      sstore\n      pop\n      0x40\n      dup3\n      add\n      mload\n      dup2\n      0x02\n      add\n      swap1\n      dup1\n      mload\n      swap1\n      0x20\n      add\n      swap1\n      tag_398\n      swap3\n      swap2\n      swap1\n      tag_98\n      jump\t// in\n    tag_398:\n      pop\n      0x60\n      dup3\n      add\n      mload\n      dup2\n      0x03\n      add\n      swap1\n      dup1\n      mload\n      swap1\n      0x20\n      add\n      swap1\n      tag_399\n      swap3\n      swap2\n      swap1\n      tag_98\n      jump\t// in\n    tag_399:\n      pop\n      0x80\n      dup3\n      add\n      mload\n      dup2\n      0x04\n      add\n      swap1\n      dup1\n      mload\n      swap1\n      0x20\n      add\n      swap1\n      tag_400\n      swap3\n      swap2\n      swap1\n      tag_98\n      jump\t// in\n    tag_400:\n      pop\n      0xa0\n      dup3\n      add\n      mload\n      dup2\n      0x05\n      add\n      swap1\n      dup1\n      mload\n      swap1\n      0x20\n      add\n      swap1\n      tag_401\n      swap3\n      swap2\n      swap1\n      tag_102\n      jump\t// in\n    tag_401:\n      pop\n      0xc0\n      dup3\n      add\n      mload\n      dup2\n      0x06\n      add\n      exp(0x0100, 0x00)\n      dup2\n      sload\n      dup2\n      0xff\n      mul\n      not\n      and\n      swap1\n      dup4\n      iszero\n      iszero\n      mul\n      or\n      swap1\n      sstore\n      pop\n      pop\n      pop\n        /* \"contracts/MarketPlace.sol\":2168:2175  product */\n      dup1\n        /* \"contracts/MarketPlace.sol\":2125:2149  ownedNonSellableProducts */\n      0x03\n        /* \"contracts/MarketPlace.sol\":2125:2161  ownedNonSellableProducts[msg.sender] */\n      0x00\n        /* \"contracts/MarketPlace.sol\":2150:2160  msg.sender */\n      caller\n        /* \"contracts/MarketPlace.sol\":2125:2161  ownedNonSellableProducts[msg.sender] */\n      0xffffffffffffffffffffffffffffffffffffffff\n      and\n      0xffffffffffffffffffffffffffffffffffffffff\n      and\n      dup2\n      mstore\n      0x20\n      add\n      swap1\n      dup2\n      mstore\n      0x20\n      add\n      0x00\n      keccak256\n        /* \"contracts/MarketPlace.sol\":2125:2165  ownedNonSellableProducts[msg.sender][id] */\n      0x00\n        /* \"contracts/MarketPlace.sol\":2162:2164  id */\n      dup5\n        /* \"contracts/MarketPlace.sol\":2125:2165  ownedNonSellableProducts[msg.sender][id] */\n      dup2\n      mstore\n      0x20\n      add\n      swap1\n      dup2\n      mstore\n      0x20\n      add\n      0x00\n      keccak256\n        /* \"contracts/MarketPlace.sol\":2125:2175  ownedNonSellableProducts[msg.sender][id] = product */\n      0x00\n      dup3\n      add\n      mload\n      dup2\n      0x00\n      add\n      sstore\n      0x20\n      dup3\n      add\n      mload\n      dup2\n      0x01\n      add\n      exp(0x0100, 0x00)\n      dup2\n      sload\n      dup2\n      0xffffffffffffffffffffffffffffffffffffffff\n      mul\n      not\n      and\n      swap1\n      dup4\n      0xffffffffffffffffffffffffffffffffffffffff\n      and\n      mul\n      or\n      swap1\n      sstore\n      pop\n      0x40\n      dup3\n      add\n      mload\n      dup2\n      0x02\n      add\n      swap1\n      dup1\n      mload\n      swap1\n      0x20\n      add\n      swap1\n      tag_402\n      swap3\n      swap2\n      swap1\n      tag_98\n      jump\t// in\n    tag_402:\n      pop\n      0x60\n      dup3\n      add\n      mload\n      dup2\n      0x03\n      add\n      swap1\n      dup1\n      mload\n      swap1\n      0x20\n      add\n      swap1\n      tag_403\n      swap3\n      swap2\n      swap1\n      tag_98\n      jump\t// in\n    tag_403:\n      pop\n      0x80\n      dup3\n      add\n      mload\n      dup2\n      0x04\n      add\n      swap1\n      dup1\n      mload\n      swap1\n      0x20\n      add\n      swap1\n      tag_404\n      swap3\n      swap2\n      swap1\n      tag_98\n      jump\t// in\n    tag_404:\n      pop\n      0xa0\n      dup3\n      add\n      mload\n      dup2\n      0x05\n      add\n      swap1\n      dup1\n      mload\n      swap1\n      0x20\n      add\n      swap1\n      tag_405\n      swap3\n      swap2\n      swap1\n      tag_102\n      jump\t// in\n    tag_405:\n      pop\n      0xc0\n      dup3\n      add\n      mload\n      dup2\n      0x06\n      add\n      exp(0x0100, 0x00)\n      dup2\n      sload\n      dup2\n      0xff\n      mul\n      not\n      and\n      swap1\n      dup4\n      iszero\n      iszero\n      mul\n      or\n      swap1\n      sstore\n      pop\n      swap1\n      pop\n      pop\n        /* \"contracts/MarketPlace.sol\":1947:2183  {\r... */\n      pop\n      pop\n        /* \"contracts/MarketPlace.sol\":1814:2183  function addNonSellableProduct(string memory _name, string memory _description, string memory _link, string[] memory _tags) external {\r... */\n      pop\n      pop\n      pop\n      pop\n      jump\t// out\n        /* \"contracts/MarketPlace.sol\":3279:3575  function listExistingProductForSale(uint256 _productId, uint256 _price) external {\r... */\n    tag_81:\n        /* \"contracts/MarketPlace.sol\":3437:3447  msg.sender */\n      caller\n        /* \"contracts/MarketPlace.sol\":3379:3447  ownedNonSellableProducts[msg.sender][_productId].owner == msg.sender */\n      0xffffffffffffffffffffffffffffffffffffffff\n      and\n        /* \"contracts/MarketPlace.sol\":3379:3403  ownedNonSellableProducts */\n      0x03\n        /* \"contracts/MarketPlace.sol\":3379:3415  ownedNonSellableProducts[msg.sender] */\n      0x00\n        /* \"contracts/MarketPlace.sol\":3404:3414  msg.sender */\n      caller\n        /* \"contracts/MarketPlace.sol\":3379:3415  ownedNonSellableProducts[msg.sender] */\n      0xffffffffffffffffffffffffffffffffffffffff\n      and\n      0xffffffffffffffffffffffffffffffffffffffff\n      and\n      dup2\n      mstore\n      0x20\n      add\n      swap1\n      dup2\n      mstore\n      0x20\n      add\n      0x00\n      keccak256\n        /* \"contracts/MarketPlace.sol\":3379:3427  ownedNonSellableProducts[msg.sender][_productId] */\n      0x00\n        /* \"contracts/MarketPlace.sol\":3416:3426  _productId */\n      dup5\n        /* \"contracts/MarketPlace.sol\":3379:3427  ownedNonSellableProducts[msg.sender][_productId] */\n      dup2\n      mstore\n      0x20\n      add\n      swap1\n      dup2\n      mstore\n      0x20\n      add\n      0x00\n      keccak256\n        /* \"contracts/MarketPlace.sol\":3379:3433  ownedNonSellableProducts[msg.sender][_productId].owner */\n      0x01\n      add\n      0x00\n      swap1\n      sload\n      swap1\n      0x0100\n      exp\n      swap1\n      div\n      0xffffffffffffffffffffffffffffffffffffffff\n      and\n        /* \"contracts/MarketPlace.sol\":3379:3447  ownedNonSellableProducts[msg.sender][_productId].owner == msg.sender */\n      0xffffffffffffffffffffffffffffffffffffffff\n      and\n      eq\n        /* \"contracts/MarketPlace.sol\":3371:3491  require(ownedNonSellableProducts[msg.sender][_productId].owner == msg.sender, \"Sender is not the owner of the product!\") */\n      tag_407\n      jumpi\n      mload(0x40)\n      0x08c379a000000000000000000000000000000000000000000000000000000000\n      dup2\n      mstore\n      0x04\n      add\n      tag_408\n      swap1\n      tag_409\n      jump\t// in\n    tag_408:\n      mload(0x40)\n      dup1\n      swap2\n      sub\n      swap1\n      revert\n    tag_407:\n        /* \"contracts/MarketPlace.sol\":3502:3567  transferFromNonSellableToSellable(msg.sender, _productId, _price) */\n      tag_410\n        /* \"contracts/MarketPlace.sol\":3536:3546  msg.sender */\n      caller\n        /* \"contracts/MarketPlace.sol\":3548:3558  _productId */\n      dup4\n        /* \"contracts/MarketPlace.sol\":3560:3566  _price */\n      dup4\n        /* \"contracts/MarketPlace.sol\":3502:3535  transferFromNonSellableToSellable */\n      tag_411\n        /* \"contracts/MarketPlace.sol\":3502:3567  transferFromNonSellableToSellable(msg.sender, _productId, _price) */\n      jump\t// in\n    tag_410:\n        /* \"contracts/MarketPlace.sol\":3279:3575  function listExistingProductForSale(uint256 _productId, uint256 _price) external {\r... */\n      pop\n      pop\n      jump\t// out\n        /* \"contracts/Ownable.sol\":1980:2181  function transferOwnership(address newOwner) public virtual onlyOwner {\r... */\n    tag_86:\n        /* \"contracts/Ownable.sol\":1302:1314  _msgSender() */\n      tag_413\n        /* \"contracts/Ownable.sol\":1302:1312  _msgSender */\n      tag_186\n        /* \"contracts/Ownable.sol\":1302:1314  _msgSender() */\n      jump\t// in\n    tag_413:\n        /* \"contracts/Ownable.sol\":1291:1314  owner() == _msgSender() */\n      0xffffffffffffffffffffffffffffffffffffffff\n      and\n        /* \"contracts/Ownable.sol\":1291:1298  owner() */\n      tag_414\n        /* \"contracts/Ownable.sol\":1291:1296  owner */\n      tag_49\n        /* \"contracts/Ownable.sol\":1291:1298  owner() */\n      jump\t// in\n    tag_414:\n        /* \"contracts/Ownable.sol\":1291:1314  owner() == _msgSender() */\n      0xffffffffffffffffffffffffffffffffffffffff\n      and\n      eq\n        /* \"contracts/Ownable.sol\":1283:1351  require(owner() == _msgSender(), \"Ownable: caller is not the owner\") */\n      tag_415\n      jumpi\n      mload(0x40)\n      0x08c379a000000000000000000000000000000000000000000000000000000000\n      dup2\n      mstore\n      0x04\n      add\n      tag_416\n      swap1\n      tag_190\n      jump\t// in\n    tag_416:\n      mload(0x40)\n      dup1\n      swap2\n      sub\n      swap1\n      revert\n    tag_415:\n        /* \"contracts/Ownable.sol\":2089:2090  0 */\n      0x00\n        /* \"contracts/Ownable.sol\":2069:2091  newOwner != address(0) */\n      0xffffffffffffffffffffffffffffffffffffffff\n      and\n        /* \"contracts/Ownable.sol\":2069:2077  newOwner */\n      dup2\n        /* \"contracts/Ownable.sol\":2069:2091  newOwner != address(0) */\n      0xffffffffffffffffffffffffffffffffffffffff\n      and\n      eq\n      iszero\n        /* \"contracts/Ownable.sol\":2061:2134  require(newOwner != address(0), \"Ownable: new owner is the zero address\") */\n      tag_418\n      jumpi\n      mload(0x40)\n      0x08c379a000000000000000000000000000000000000000000000000000000000\n      dup2\n      mstore\n      0x04\n      add\n      tag_419\n      swap1\n      tag_420\n      jump\t// in\n    tag_419:\n      mload(0x40)\n      dup1\n      swap2\n      sub\n      swap1\n      revert\n    tag_418:\n        /* \"contracts/Ownable.sol\":2145:2173  _transferOwnership(newOwner) */\n      tag_421\n        /* \"contracts/Ownable.sol\":2164:2172  newOwner */\n      dup2\n        /* \"contracts/Ownable.sol\":2145:2163  _transferOwnership */\n      tag_193\n        /* \"contracts/Ownable.sol\":2145:2173  _transferOwnership(newOwner) */\n      jump\t// in\n    tag_421:\n        /* \"contracts/Ownable.sol\":1980:2181  function transferOwnership(address newOwner) public virtual onlyOwner {\r... */\n      pop\n      jump\t// out\n        /* \"contracts/MarketPlace.sol\":6726:6878  function getHistoryForProduct(uint256 productId) external view returns (TransactionDetails[] memory) {\r... */\n    tag_90:\n        /* \"contracts/MarketPlace.sol\":6798:6825  TransactionDetails[] memory */\n      0x60\n        /* \"contracts/MarketPlace.sol\":6845:6859  productHistory */\n      0x04\n        /* \"contracts/MarketPlace.sol\":6845:6870  productHistory[productId] */\n      0x00\n        /* \"contracts/MarketPlace.sol\":6860:6869  productId */\n      dup4\n        /* \"contracts/MarketPlace.sol\":6845:6870  productHistory[productId] */\n      dup2\n      mstore\n      0x20\n      add\n      swap1\n      dup2\n      mstore\n      0x20\n      add\n      0x00\n      keccak256\n        /* \"contracts/MarketPlace.sol\":6838:6870  return productHistory[productId] */\n      dup1\n      sload\n      dup1\n      0x20\n      mul\n      0x20\n      add\n      mload(0x40)\n      swap1\n      dup2\n      add\n      0x40\n      mstore\n      dup1\n      swap3\n      swap2\n      swap1\n      dup2\n      dup2\n      mstore\n      0x20\n      add\n      0x00\n      swap1\n    tag_423:\n      dup3\n      dup3\n      lt\n      iszero\n      tag_424\n      jumpi\n      dup4\n      dup3\n      swap1\n      0x00\n      mstore\n      keccak256(0x00, 0x20)\n      swap1\n      0x05\n      mul\n      add\n      mload(0x40)\n      dup1\n      0xa0\n      add\n      0x40\n      mstore\n      swap1\n      dup2\n      0x00\n      dup3\n      add\n      sload\n      dup2\n      mstore\n      0x20\n      add\n      0x01\n      dup3\n      add\n      sload\n      dup2\n      mstore\n      0x20\n      add\n      0x02\n      dup3\n      add\n      sload\n      dup2\n      mstore\n      0x20\n      add\n      0x03\n      dup3\n      add\n      0x00\n      swap1\n      sload\n      swap1\n      0x0100\n      exp\n      swap1\n      div\n      0xffffffffffffffffffffffffffffffffffffffff\n      and\n      0xffffffffffffffffffffffffffffffffffffffff\n      and\n      0xffffffffffffffffffffffffffffffffffffffff\n      and\n      dup2\n      mstore\n      0x20\n      add\n      0x04\n      dup3\n      add\n      0x00\n      swap1\n      sload\n      swap1\n      0x0100\n      exp\n      swap1\n      div\n      0xffffffffffffffffffffffffffffffffffffffff\n      and\n      0xffffffffffffffffffffffffffffffffffffffff\n      and\n      0xffffffffffffffffffffffffffffffffffffffff\n      and\n      dup2\n      mstore\n      pop\n      pop\n      dup2\n      mstore\n      0x20\n      add\n      swap1\n      0x01\n      add\n      swap1\n      jump(tag_423)\n    tag_424:\n      pop\n      pop\n      pop\n      pop\n      swap1\n      pop\n        /* \"contracts/MarketPlace.sol\":6726:6878  function getHistoryForProduct(uint256 productId) external view returns (TransactionDetails[] memory) {\r... */\n      swap2\n      swap1\n      pop\n      jump\t// out\n        /* \"contracts/Context.sol\":656:754  function _msgSender() internal view virtual returns (address) {\r... */\n    tag_186:\n        /* \"contracts/Context.sol\":709:716  address */\n      0x00\n        /* \"contracts/Context.sol\":736:746  msg.sender */\n      caller\n        /* \"contracts/Context.sol\":729:746  return msg.sender */\n      swap1\n      pop\n        /* \"contracts/Context.sol\":656:754  function _msgSender() internal view virtual returns (address) {\r... */\n      swap1\n      jump\t// out\n        /* \"contracts/Ownable.sol\":2341:2532  function _transferOwnership(address newOwner) internal virtual {\r... */\n    tag_193:\n        /* \"contracts/Ownable.sol\":2415:2431  address oldOwner */\n      0x00\n        /* \"contracts/Ownable.sol\":2434:2440  _owner */\n      dup1\n      0x00\n      swap1\n      sload\n      swap1\n      0x0100\n      exp\n      swap1\n      div\n      0xffffffffffffffffffffffffffffffffffffffff\n      and\n        /* \"contracts/Ownable.sol\":2415:2440  address oldOwner = _owner */\n      swap1\n      pop\n        /* \"contracts/Ownable.sol\":2460:2468  newOwner */\n      dup2\n        /* \"contracts/Ownable.sol\":2451:2457  _owner */\n      0x00\n      dup1\n        /* \"contracts/Ownable.sol\":2451:2468  _owner = newOwner */\n      0x0100\n      exp\n      dup2\n      sload\n      dup2\n      0xffffffffffffffffffffffffffffffffffffffff\n      mul\n      not\n      and\n      swap1\n      dup4\n      0xffffffffffffffffffffffffffffffffffffffff\n      and\n      mul\n      or\n      swap1\n      sstore\n      pop\n        /* \"contracts/Ownable.sol\":2515:2523  newOwner */\n      dup2\n        /* \"contracts/Ownable.sol\":2484:2524  OwnershipTransferred(oldOwner, newOwner) */\n      0xffffffffffffffffffffffffffffffffffffffff\n      and\n        /* \"contracts/Ownable.sol\":2505:2513  oldOwner */\n      dup2\n        /* \"contracts/Ownable.sol\":2484:2524  OwnershipTransferred(oldOwner, newOwner) */\n      0xffffffffffffffffffffffffffffffffffffffff\n      and\n      0x8be0079c531659141344cd1fd0a4f28419497f9722a3daafe3b4186f6b6457e0\n      mload(0x40)\n      mload(0x40)\n      dup1\n      swap2\n      sub\n      swap1\n      log3\n        /* \"contracts/Ownable.sol\":2404:2532  {\r... */\n      pop\n        /* \"contracts/Ownable.sol\":2341:2532  function _transferOwnership(address newOwner) internal virtual {\r... */\n      pop\n      jump\t// out\n        /* \"contracts/MarketPlace.sol\":7166:7939  function containsWord(string memory what, string memory where) internal pure returns (bool found) {\r... */\n    tag_254:\n        /* \"contracts/MarketPlace.sol\":7252:7262  bool found */\n      0x00\n        /* \"contracts/MarketPlace.sol\":7275:7297  bytes memory whatBytes */\n      dup1\n        /* \"contracts/MarketPlace.sol\":7307:7311  what */\n      dup4\n        /* \"contracts/MarketPlace.sol\":7275:7312  bytes memory whatBytes = bytes (what) */\n      swap1\n      pop\n        /* \"contracts/MarketPlace.sol\":7323:7346  bytes memory whereBytes */\n      0x00\n        /* \"contracts/MarketPlace.sol\":7356:7361  where */\n      dup4\n        /* \"contracts/MarketPlace.sol\":7323:7362  bytes memory whereBytes = bytes (where) */\n      swap1\n      pop\n        /* \"contracts/MarketPlace.sol\":7397:7406  whatBytes */\n      dup2\n        /* \"contracts/MarketPlace.sol\":7397:7413  whatBytes.length */\n      mload\n        /* \"contracts/MarketPlace.sol\":7377:7387  whereBytes */\n      dup2\n        /* \"contracts/MarketPlace.sol\":7377:7394  whereBytes.length */\n      mload\n        /* \"contracts/MarketPlace.sol\":7377:7413  whereBytes.length < whatBytes.length */\n      lt\n        /* \"contracts/MarketPlace.sol\":7373:7456  if (whereBytes.length < whatBytes.length) { \r... */\n      iszero\n      tag_429\n      jumpi\n        /* \"contracts/MarketPlace.sol\":7438:7443  false */\n      0x00\n        /* \"contracts/MarketPlace.sol\":7431:7443  return false */\n      swap3\n      pop\n      pop\n      pop\n      jump(tag_428)\n        /* \"contracts/MarketPlace.sol\":7373:7456  if (whereBytes.length < whatBytes.length) { \r... */\n    tag_429:\n        /* \"contracts/MarketPlace.sol\":7474:7479  false */\n      0x00\n        /* \"contracts/MarketPlace.sol\":7466:7479  found = false */\n      swap3\n      pop\n        /* \"contracts/MarketPlace.sol\":7495:7501  uint i */\n      0x00\n        /* \"contracts/MarketPlace.sol\":7490:7909  for (uint i = 0; i <= whereBytes.length - whatBytes.length; i++) {\r... */\n    tag_430:\n        /* \"contracts/MarketPlace.sol\":7532:7541  whatBytes */\n      dup3\n        /* \"contracts/MarketPlace.sol\":7532:7548  whatBytes.length */\n      mload\n        /* \"contracts/MarketPlace.sol\":7512:7522  whereBytes */\n      dup3\n        /* \"contracts/MarketPlace.sol\":7512:7529  whereBytes.length */\n      mload\n        /* \"contracts/MarketPlace.sol\":7512:7548  whereBytes.length - whatBytes.length */\n      tag_433\n      swap2\n      swap1\n      tag_434\n      jump\t// in\n    tag_433:\n        /* \"contracts/MarketPlace.sol\":7507:7508  i */\n      dup2\n        /* \"contracts/MarketPlace.sol\":7507:7548  i <= whereBytes.length - whatBytes.length */\n      gt\n        /* \"contracts/MarketPlace.sol\":7490:7909  for (uint i = 0; i <= whereBytes.length - whatBytes.length; i++) {\r... */\n      tag_431\n      jumpi\n        /* \"contracts/MarketPlace.sol\":7570:7579  bool flag */\n      0x00\n        /* \"contracts/MarketPlace.sol\":7582:7586  true */\n      0x01\n        /* \"contracts/MarketPlace.sol\":7570:7586  bool flag = true */\n      swap1\n      pop\n        /* \"contracts/MarketPlace.sol\":7606:7612  uint j */\n      0x00\n        /* \"contracts/MarketPlace.sol\":7601:7803  for (uint j = 0; j < whatBytes.length; j++) {\r... */\n    tag_435:\n        /* \"contracts/MarketPlace.sol\":7622:7631  whatBytes */\n      dup5\n        /* \"contracts/MarketPlace.sol\":7622:7638  whatBytes.length */\n      mload\n        /* \"contracts/MarketPlace.sol\":7618:7619  j */\n      dup2\n        /* \"contracts/MarketPlace.sol\":7618:7638  j < whatBytes.length */\n      lt\n        /* \"contracts/MarketPlace.sol\":7601:7803  for (uint j = 0; j < whatBytes.length; j++) {\r... */\n      iszero\n      tag_436\n      jumpi\n        /* \"contracts/MarketPlace.sol\":7690:7699  whatBytes */\n      dup5\n        /* \"contracts/MarketPlace.sol\":7701:7702  j */\n      dup2\n        /* \"contracts/MarketPlace.sol\":7690:7703  whatBytes [j] */\n      dup2\n      mload\n      dup2\n      lt\n      tag_438\n      jumpi\n      tag_439\n      tag_151\n      jump\t// in\n    tag_439:\n    tag_438:\n      0x20\n      add\n      add\n      mload\n      0xf8\n      shr\n      0xf8\n      shl\n        /* \"contracts/MarketPlace.sol\":7668:7703  whereBytes [i + j] != whatBytes [j] */\n      not(0xffffffffffffffffffffffffffffffffffffffffffffffffffffffffffffff)\n      and\n        /* \"contracts/MarketPlace.sol\":7668:7678  whereBytes */\n      dup5\n        /* \"contracts/MarketPlace.sol\":7684:7685  j */\n      dup3\n        /* \"contracts/MarketPlace.sol\":7680:7681  i */\n      dup6\n        /* \"contracts/MarketPlace.sol\":7680:7685  i + j */\n      tag_440\n      swap2\n      swap1\n      tag_313\n      jump\t// in\n    tag_440:\n        /* \"contracts/MarketPlace.sol\":7668:7686  whereBytes [i + j] */\n      dup2\n      mload\n      dup2\n      lt\n      tag_441\n      jumpi\n      tag_442\n      tag_151\n      jump\t// in\n    tag_442:\n    tag_441:\n      0x20\n      add\n      add\n      mload\n      0xf8\n      shr\n      0xf8\n      shl\n        /* \"contracts/MarketPlace.sol\":7668:7703  whereBytes [i + j] != whatBytes [j] */\n      not(0xffffffffffffffffffffffffffffffffffffffffffffffffffffffffffffff)\n      and\n      eq\n        /* \"contracts/MarketPlace.sol\":7664:7788  if (whereBytes [i + j] != whatBytes [j]) {\r... */\n      tag_443\n      jumpi\n        /* \"contracts/MarketPlace.sol\":7735:7740  false */\n      0x00\n        /* \"contracts/MarketPlace.sol\":7728:7740  flag = false */\n      swap2\n      pop\n        /* \"contracts/MarketPlace.sol\":7763:7768  break */\n      jump(tag_436)\n        /* \"contracts/MarketPlace.sol\":7664:7788  if (whereBytes [i + j] != whatBytes [j]) {\r... */\n    tag_443:\n        /* \"contracts/MarketPlace.sol\":7640:7643  j++ */\n      dup1\n      dup1\n      tag_444\n      swap1\n      tag_95\n      jump\t// in\n    tag_444:\n      swap2\n      pop\n      pop\n        /* \"contracts/MarketPlace.sol\":7601:7803  for (uint j = 0; j < whatBytes.length; j++) {\r... */\n      jump(tag_435)\n    tag_436:\n      pop\n        /* \"contracts/MarketPlace.sol\":7821:7825  flag */\n      dup1\n        /* \"contracts/MarketPlace.sol\":7817:7898  if (flag) {\r... */\n      iszero\n      tag_445\n      jumpi\n        /* \"contracts/MarketPlace.sol\":7854:7858  true */\n      0x01\n        /* \"contracts/MarketPlace.sol\":7846:7858  found = true */\n      swap5\n      pop\n        /* \"contracts/MarketPlace.sol\":7877:7882  break */\n      pop\n      jump(tag_431)\n        /* \"contracts/MarketPlace.sol\":7817:7898  if (flag) {\r... */\n    tag_445:\n        /* \"contracts/MarketPlace.sol\":7555:7909  {\r... */\n      pop\n        /* \"contracts/MarketPlace.sol\":7550:7553  i++ */\n      dup1\n      dup1\n      tag_446\n      swap1\n      tag_95\n      jump\t// in\n    tag_446:\n      swap2\n      pop\n      pop\n        /* \"contracts/MarketPlace.sol\":7490:7909  for (uint i = 0; i <= whereBytes.length - whatBytes.length; i++) {\r... */\n      jump(tag_430)\n    tag_431:\n      pop\n        /* \"contracts/MarketPlace.sol\":7919:7931  return found */\n      pop\n      pop\n        /* \"contracts/MarketPlace.sol\":7166:7939  function containsWord(string memory what, string memory where) internal pure returns (bool found) {\r... */\n    tag_428:\n      swap3\n      swap2\n      pop\n      pop\n      jump\t// out\n        /* \"contracts/MarketPlace.sol\":2191:2794  function transferFromSellableToNonSellable(address _ownerSellable, address _ownerNonSellable, uint256 _productId) internal {\r... */\n    tag_327:\n        /* \"contracts/MarketPlace.sol\":2383:2404  ownedSellableProducts */\n      0x02\n        /* \"contracts/MarketPlace.sol\":2383:2420  ownedSellableProducts[_ownerSellable] */\n      0x00\n        /* \"contracts/MarketPlace.sol\":2405:2419  _ownerSellable */\n      dup5\n        /* \"contracts/MarketPlace.sol\":2383:2420  ownedSellableProducts[_ownerSellable] */\n      0xffffffffffffffffffffffffffffffffffffffff\n      and\n      0xffffffffffffffffffffffffffffffffffffffff\n      and\n      dup2\n      mstore\n      0x20\n      add\n      swap1\n      dup2\n      mstore\n      0x20\n      add\n      0x00\n      keccak256\n        /* \"contracts/MarketPlace.sol\":2383:2432  ownedSellableProducts[_ownerSellable][_productId] */\n      0x00\n        /* \"contracts/MarketPlace.sol\":2421:2431  _productId */\n      dup3\n        /* \"contracts/MarketPlace.sol\":2383:2432  ownedSellableProducts[_ownerSellable][_productId] */\n      dup2\n      mstore\n      0x20\n      add\n      swap1\n      dup2\n      mstore\n      0x20\n      add\n      0x00\n      keccak256\n        /* \"contracts/MarketPlace.sol\":2383:2440  ownedSellableProducts[_ownerSellable][_productId].product */\n      0x03\n      add\n        /* \"contracts/MarketPlace.sol\":2325:2349  ownedNonSellableProducts */\n      0x03\n        /* \"contracts/MarketPlace.sol\":2325:2368  ownedNonSellableProducts[_ownerNonSellable] */\n      0x00\n        /* \"contracts/MarketPlace.sol\":2350:2367  _ownerNonSellable */\n      dup5\n        /* \"contracts/MarketPlace.sol\":2325:2368  ownedNonSellableProducts[_ownerNonSellable] */\n      0xffffffffffffffffffffffffffffffffffffffff\n      and\n      0xffffffffffffffffffffffffffffffffffffffff\n      and\n      dup2\n      mstore\n      0x20\n      add\n      swap1\n      dup2\n      mstore\n      0x20\n      add\n      0x00\n      keccak256\n        /* \"contracts/MarketPlace.sol\":2325:2380  ownedNonSellableProducts[_ownerNonSellable][_productId] */\n      0x00\n        /* \"contracts/MarketPlace.sol\":2369:2379  _productId */\n      dup4\n        /* \"contracts/MarketPlace.sol\":2325:2380  ownedNonSellableProducts[_ownerNonSellable][_productId] */\n      dup2\n      mstore\n      0x20\n      add\n      swap1\n      dup2\n      mstore\n      0x20\n      add\n      0x00\n      keccak256\n        /* \"contracts/MarketPlace.sol\":2325:2440  ownedNonSellableProducts[_ownerNonSellable][_productId] = ownedSellableProducts[_ownerSellable][_productId].product */\n      0x00\n      dup3\n      add\n      sload\n      dup2\n      0x00\n      add\n      sstore\n      0x01\n      dup3\n      add\n      0x00\n      swap1\n      sload\n      swap1\n      0x0100\n      exp\n      swap1\n      div\n      0xffffffffffffffffffffffffffffffffffffffff\n      and\n      dup2\n      0x01\n      add\n      exp(0x0100, 0x00)\n      dup2\n      sload\n      dup2\n      0xffffffffffffffffffffffffffffffffffffffff\n      mul\n      not\n      and\n      swap1\n      dup4\n      0xffffffffffffffffffffffffffffffffffffffff\n      and\n      mul\n      or\n      swap1\n      sstore\n      pop\n      0x02\n      dup3\n      add\n      dup2\n      0x02\n      add\n      swap1\n      dup1\n      sload\n      tag_448\n      swap1\n      tag_112\n      jump\t// in\n    tag_448:\n      tag_449\n      swap3\n      swap2\n      swap1\n      tag_450\n      jump\t// in\n    tag_449:\n      pop\n      0x03\n      dup3\n      add\n      dup2\n      0x03\n      add\n      swap1\n      dup1\n      sload\n      tag_451\n      swap1\n      tag_112\n      jump\t// in\n    tag_451:\n      tag_452\n      swap3\n      swap2\n      swap1\n      tag_450\n      jump\t// in\n    tag_452:\n      pop\n      0x04\n      dup3\n      add\n      dup2\n      0x04\n      add\n      swap1\n      dup1\n      sload\n      tag_453\n      swap1\n      tag_112\n      jump\t// in\n    tag_453:\n      tag_454\n      swap3\n      swap2\n      swap1\n      tag_450\n      jump\t// in\n    tag_454:\n      pop\n      0x05\n      dup3\n      add\n      dup2\n      0x05\n      add\n      swap1\n      dup1\n      sload\n      tag_455\n      swap3\n      swap2\n      swap1\n      tag_456\n      jump\t// in\n    tag_455:\n      pop\n      0x06\n      dup3\n      add\n      0x00\n      swap1\n      sload\n      swap1\n      0x0100\n      exp\n      swap1\n      div\n      0xff\n      and\n      dup2\n      0x06\n      add\n      exp(0x0100, 0x00)\n      dup2\n      sload\n      dup2\n      0xff\n      mul\n      not\n      and\n      swap1\n      dup4\n      iszero\n      iszero\n      mul\n      or\n      swap1\n      sstore\n      pop\n      swap1\n      pop\n      pop\n        /* \"contracts/MarketPlace.sol\":2515:2532  _ownerNonSellable */\n      dup2\n        /* \"contracts/MarketPlace.sol\":2451:2475  ownedNonSellableProducts */\n      0x03\n        /* \"contracts/MarketPlace.sol\":2451:2494  ownedNonSellableProducts[_ownerNonSellable] */\n      0x00\n        /* \"contracts/MarketPlace.sol\":2476:2493  _ownerNonSellable */\n      dup5\n        /* \"contracts/MarketPlace.sol\":2451:2494  ownedNonSellableProducts[_ownerNonSellable] */\n      0xffffffffffffffffffffffffffffffffffffffff\n      and\n      0xffffffffffffffffffffffffffffffffffffffff\n      and\n      dup2\n      mstore\n      0x20\n      add\n      swap1\n      dup2\n      mstore\n      0x20\n      add\n      0x00\n      keccak256\n        /* \"contracts/MarketPlace.sol\":2451:2506  ownedNonSellableProducts[_ownerNonSellable][_productId] */\n      0x00\n        /* \"contracts/MarketPlace.sol\":2495:2505  _productId */\n      dup4\n        /* \"contracts/MarketPlace.sol\":2451:2506  ownedNonSellableProducts[_ownerNonSellable][_productId] */\n      dup2\n      mstore\n      0x20\n      add\n      swap1\n      dup2\n      mstore\n      0x20\n      add\n      0x00\n      keccak256\n        /* \"contracts/MarketPlace.sol\":2451:2512  ownedNonSellableProducts[_ownerNonSellable][_productId].owner */\n      0x01\n      add\n      0x00\n        /* \"contracts/MarketPlace.sol\":2451:2532  ownedNonSellableProducts[_ownerNonSellable][_productId].owner = _ownerNonSellable */\n      0x0100\n      exp\n      dup2\n      sload\n      dup2\n      0xffffffffffffffffffffffffffffffffffffffff\n      mul\n      not\n      and\n      swap1\n      dup4\n      0xffffffffffffffffffffffffffffffffffffffff\n      and\n      mul\n      or\n      swap1\n      sstore\n      pop\n        /* \"contracts/MarketPlace.sol\":2609:2614  false */\n      0x00\n        /* \"contracts/MarketPlace.sol\":2543:2567  ownedNonSellableProducts */\n      0x03\n        /* \"contracts/MarketPlace.sol\":2543:2586  ownedNonSellableProducts[_ownerNonSellable] */\n      0x00\n        /* \"contracts/MarketPlace.sol\":2568:2585  _ownerNonSellable */\n      dup5\n        /* \"contracts/MarketPlace.sol\":2543:2586  ownedNonSellableProducts[_ownerNonSellable] */\n      0xffffffffffffffffffffffffffffffffffffffff\n      and\n      0xffffffffffffffffffffffffffffffffffffffff\n      and\n      dup2\n      mstore\n      0x20\n      add\n      swap1\n      dup2\n      mstore\n      0x20\n      add\n      0x00\n      keccak256\n        /* \"contracts/MarketPlace.sol\":2543:2598  ownedNonSellableProducts[_ownerNonSellable][_productId] */\n      0x00\n        /* \"contracts/MarketPlace.sol\":2587:2597  _productId */\n      dup4\n        /* \"contracts/MarketPlace.sol\":2543:2598  ownedNonSellableProducts[_ownerNonSellable][_productId] */\n      dup2\n      mstore\n      0x20\n      add\n      swap1\n      dup2\n      mstore\n      0x20\n      add\n      0x00\n      keccak256\n        /* \"contracts/MarketPlace.sol\":2543:2606  ownedNonSellableProducts[_ownerNonSellable][_productId].forSale */\n      0x06\n      add\n      0x00\n        /* \"contracts/MarketPlace.sol\":2543:2614  ownedNonSellableProducts[_ownerNonSellable][_productId].forSale = false */\n      0x0100\n      exp\n      dup2\n      sload\n      dup2\n      0xff\n      mul\n      not\n      and\n      swap1\n      dup4\n      iszero\n      iszero\n      mul\n      or\n      swap1\n      sstore\n      pop\n        /* \"contracts/MarketPlace.sol\":2654:2671  _ownerNonSellable */\n      dup2\n        /* \"contracts/MarketPlace.sol\":2625:2633  products */\n      0x05\n        /* \"contracts/MarketPlace.sol\":2634:2644  _productId */\n      dup3\n        /* \"contracts/MarketPlace.sol\":2625:2645  products[_productId] */\n      dup2\n      sload\n      dup2\n      lt\n      tag_457\n      jumpi\n      tag_458\n      tag_151\n      jump\t// in\n    tag_458:\n    tag_457:\n      swap1\n      0x00\n      mstore\n      keccak256(0x00, 0x20)\n      swap1\n      0x07\n      mul\n      add\n        /* \"contracts/MarketPlace.sol\":2625:2651  products[_productId].owner */\n      0x01\n      add\n      0x00\n        /* \"contracts/MarketPlace.sol\":2625:2671  products[_productId].owner = _ownerNonSellable */\n      0x0100\n      exp\n      dup2\n      sload\n      dup2\n      0xffffffffffffffffffffffffffffffffffffffff\n      mul\n      not\n      and\n      swap1\n      dup4\n      0xffffffffffffffffffffffffffffffffffffffff\n      and\n      mul\n      or\n      swap1\n      sstore\n      pop\n        /* \"contracts/MarketPlace.sol\":2713:2718  false */\n      0x00\n        /* \"contracts/MarketPlace.sol\":2682:2690  products */\n      0x05\n        /* \"contracts/MarketPlace.sol\":2691:2701  _productId */\n      dup3\n        /* \"contracts/MarketPlace.sol\":2682:2702  products[_productId] */\n      dup2\n      sload\n      dup2\n      lt\n      tag_460\n      jumpi\n      tag_461\n      tag_151\n      jump\t// in\n    tag_461:\n    tag_460:\n      swap1\n      0x00\n      mstore\n      keccak256(0x00, 0x20)\n      swap1\n      0x07\n      mul\n      add\n        /* \"contracts/MarketPlace.sol\":2682:2710  products[_productId].forSale */\n      0x06\n      add\n      0x00\n        /* \"contracts/MarketPlace.sol\":2682:2718  products[_productId].forSale = false */\n      0x0100\n      exp\n      dup2\n      sload\n      dup2\n      0xff\n      mul\n      not\n      and\n      swap1\n      dup4\n      iszero\n      iszero\n      mul\n      or\n      swap1\n      sstore\n      pop\n        /* \"contracts/MarketPlace.sol\":2736:2757  ownedSellableProducts */\n      0x02\n        /* \"contracts/MarketPlace.sol\":2736:2773  ownedSellableProducts[_ownerSellable] */\n      0x00\n        /* \"contracts/MarketPlace.sol\":2758:2772  _ownerSellable */\n      dup5\n        /* \"contracts/MarketPlace.sol\":2736:2773  ownedSellableProducts[_ownerSellable] */\n      0xffffffffffffffffffffffffffffffffffffffff\n      and\n      0xffffffffffffffffffffffffffffffffffffffff\n      and\n      dup2\n      mstore\n      0x20\n      add\n      swap1\n      dup2\n      mstore\n      0x20\n      add\n      0x00\n      keccak256\n        /* \"contracts/MarketPlace.sol\":2736:2785  ownedSellableProducts[_ownerSellable][_productId] */\n      0x00\n        /* \"contracts/MarketPlace.sol\":2774:2784  _productId */\n      dup3\n        /* \"contracts/MarketPlace.sol\":2736:2785  ownedSellableProducts[_ownerSellable][_productId] */\n      dup2\n      mstore\n      0x20\n      add\n      swap1\n      dup2\n      mstore\n      0x20\n      add\n      0x00\n      keccak256\n      0x00\n        /* \"contracts/MarketPlace.sol\":2729:2786  delete(ownedSellableProducts[_ownerSellable][_productId]) */\n      dup1\n      dup3\n      add\n      0x00\n      swap1\n      sstore\n      0x01\n      dup3\n      add\n      0x00\n      swap1\n      sstore\n      0x02\n      dup3\n      add\n      0x00\n      swap1\n      sstore\n      0x03\n      dup3\n      add\n      0x00\n      dup1\n      dup3\n      add\n      0x00\n      swap1\n      sstore\n      0x01\n      dup3\n      add\n      exp(0x0100, 0x00)\n      dup2\n      sload\n      swap1\n      0xffffffffffffffffffffffffffffffffffffffff\n      mul\n      not\n      and\n      swap1\n      sstore\n      0x02\n      dup3\n      add\n      0x00\n      tag_463\n      swap2\n      swap1\n      tag_464\n      jump\t// in\n    tag_463:\n      0x03\n      dup3\n      add\n      0x00\n      tag_465\n      swap2\n      swap1\n      tag_464\n      jump\t// in\n    tag_465:\n      0x04\n      dup3\n      add\n      0x00\n      tag_466\n      swap2\n      swap1\n      tag_464\n      jump\t// in\n    tag_466:\n      0x05\n      dup3\n      add\n      0x00\n      tag_467\n      swap2\n      swap1\n      tag_468\n      jump\t// in\n    tag_467:\n      0x06\n      dup3\n      add\n      exp(0x0100, 0x00)\n      dup2\n      sload\n      swap1\n      0xff\n      mul\n      not\n      and\n      swap1\n      sstore\n      pop\n      pop\n      pop\n      pop\n        /* \"contracts/MarketPlace.sol\":2191:2794  function transferFromSellableToNonSellable(address _ownerSellable, address _ownerNonSellable, uint256 _productId) internal {\r... */\n      pop\n      pop\n      pop\n      jump\t// out\n        /* \"contracts/MarketPlace.sol\":2802:3271  function transferFromNonSellableToSellable(address _owner, uint256 _productId, uint256 price) internal {\r... */\n    tag_411:\n        /* \"contracts/MarketPlace.sol\":2960:3079  SellableProduct(price, price * feePricePercentage / 100, block.timestamp, ownedNonSellableProducts[_owner][_productId]) */\n      mload(0x40)\n      dup1\n      0x80\n      add\n      0x40\n      mstore\n      dup1\n        /* \"contracts/MarketPlace.sol\":2976:2981  price */\n      dup3\n        /* \"contracts/MarketPlace.sol\":2960:3079  SellableProduct(price, price * feePricePercentage / 100, block.timestamp, ownedNonSellableProducts[_owner][_productId]) */\n      dup2\n      mstore\n      0x20\n      add\n        /* \"contracts/MarketPlace.sol\":3012:3015  100 */\n      0x64\n        /* \"contracts/MarketPlace.sol\":2991:3009  feePricePercentage */\n      sload(0x06)\n        /* \"contracts/MarketPlace.sol\":2983:2988  price */\n      dup5\n        /* \"contracts/MarketPlace.sol\":2983:3009  price * feePricePercentage */\n      tag_470\n      swap2\n      swap1\n      tag_104\n      jump\t// in\n    tag_470:\n        /* \"contracts/MarketPlace.sol\":2983:3015  price * feePricePercentage / 100 */\n      tag_471\n      swap2\n      swap1\n      tag_106\n      jump\t// in\n    tag_471:\n        /* \"contracts/MarketPlace.sol\":2960:3079  SellableProduct(price, price * feePricePercentage / 100, block.timestamp, ownedNonSellableProducts[_owner][_productId]) */\n      dup2\n      mstore\n      0x20\n      add\n        /* \"contracts/MarketPlace.sol\":3017:3032  block.timestamp */\n      timestamp\n        /* \"contracts/MarketPlace.sol\":2960:3079  SellableProduct(price, price * feePricePercentage / 100, block.timestamp, ownedNonSellableProducts[_owner][_productId]) */\n      dup2\n      mstore\n      0x20\n      add\n        /* \"contracts/MarketPlace.sol\":3034:3058  ownedNonSellableProducts */\n      0x03\n        /* \"contracts/MarketPlace.sol\":3034:3066  ownedNonSellableProducts[_owner] */\n      0x00\n        /* \"contracts/MarketPlace.sol\":3059:3065  _owner */\n      dup7\n        /* \"contracts/MarketPlace.sol\":3034:3066  ownedNonSellableProducts[_owner] */\n      0xffffffffffffffffffffffffffffffffffffffff\n      and\n      0xffffffffffffffffffffffffffffffffffffffff\n      and\n      dup2\n      mstore\n      0x20\n      add\n      swap1\n      dup2\n      mstore\n      0x20\n      add\n      0x00\n      keccak256\n        /* \"contracts/MarketPlace.sol\":3034:3078  ownedNonSellableProducts[_owner][_productId] */\n      0x00\n        /* \"contracts/MarketPlace.sol\":3067:3077  _productId */\n      dup6\n        /* \"contracts/MarketPlace.sol\":3034:3078  ownedNonSellableProducts[_owner][_productId] */\n      dup2\n      mstore\n      0x20\n      add\n      swap1\n      dup2\n      mstore\n      0x20\n      add\n      0x00\n      keccak256\n        /* \"contracts/MarketPlace.sol\":2960:3079  SellableProduct(price, price * feePricePercentage / 100, block.timestamp, ownedNonSellableProducts[_owner][_productId]) */\n      mload(0x40)\n      dup1\n      0xe0\n      add\n      0x40\n      mstore\n      swap1\n      dup2\n      0x00\n      dup3\n      add\n      sload\n      dup2\n      mstore\n      0x20\n      add\n      0x01\n      dup3\n      add\n      0x00\n      swap1\n      sload\n      swap1\n      0x0100\n      exp\n      swap1\n      div\n      0xffffffffffffffffffffffffffffffffffffffff\n      and\n      0xffffffffffffffffffffffffffffffffffffffff\n      and\n      0xffffffffffffffffffffffffffffffffffffffff\n      and\n      dup2\n      mstore\n      0x20\n      add\n      0x02\n      dup3\n      add\n      dup1\n      sload\n      tag_472\n      swap1\n      tag_112\n      jump\t// in\n    tag_472:\n      dup1\n      0x1f\n      add\n      0x20\n      dup1\n      swap2\n      div\n      mul\n      0x20\n      add\n      mload(0x40)\n      swap1\n      dup2\n      add\n      0x40\n      mstore\n      dup1\n      swap3\n      swap2\n      swap1\n      dup2\n      dup2\n      mstore\n      0x20\n      add\n      dup3\n      dup1\n      sload\n      tag_473\n      swap1\n      tag_112\n      jump\t// in\n    tag_473:\n      dup1\n      iszero\n      tag_474\n      jumpi\n      dup1\n      0x1f\n      lt\n      tag_475\n      jumpi\n      0x0100\n      dup1\n      dup4\n      sload\n      div\n      mul\n      dup4\n      mstore\n      swap2\n      0x20\n      add\n      swap2\n      jump(tag_474)\n    tag_475:\n      dup3\n      add\n      swap2\n      swap1\n      0x00\n      mstore\n      keccak256(0x00, 0x20)\n      swap1\n    tag_476:\n      dup2\n      sload\n      dup2\n      mstore\n      swap1\n      0x01\n      add\n      swap1\n      0x20\n      add\n      dup1\n      dup4\n      gt\n      tag_476\n      jumpi\n      dup3\n      swap1\n      sub\n      0x1f\n      and\n      dup3\n      add\n      swap2\n    tag_474:\n      pop\n      pop\n      pop\n      pop\n      pop\n      dup2\n      mstore\n      0x20\n      add\n      0x03\n      dup3\n      add\n      dup1\n      sload\n      tag_477\n      swap1\n      tag_112\n      jump\t// in\n    tag_477:\n      dup1\n      0x1f\n      add\n      0x20\n      dup1\n      swap2\n      div\n      mul\n      0x20\n      add\n      mload(0x40)\n      swap1\n      dup2\n      add\n      0x40\n      mstore\n      dup1\n      swap3\n      swap2\n      swap1\n      dup2\n      dup2\n      mstore\n      0x20\n      add\n      dup3\n      dup1\n      sload\n      tag_478\n      swap1\n      tag_112\n      jump\t// in\n    tag_478:\n      dup1\n      iszero\n      tag_479\n      jumpi\n      dup1\n      0x1f\n      lt\n      tag_480\n      jumpi\n      0x0100\n      dup1\n      dup4\n      sload\n      div\n      mul\n      dup4\n      mstore\n      swap2\n      0x20\n      add\n      swap2\n      jump(tag_479)\n    tag_480:\n      dup3\n      add\n      swap2\n      swap1\n      0x00\n      mstore\n      keccak256(0x00, 0x20)\n      swap1\n    tag_481:\n      dup2\n      sload\n      dup2\n      mstore\n      swap1\n      0x01\n      add\n      swap1\n      0x20\n      add\n      dup1\n      dup4\n      gt\n      tag_481\n      jumpi\n      dup3\n      swap1\n      sub\n      0x1f\n      and\n      dup3\n      add\n      swap2\n    tag_479:\n      pop\n      pop\n      pop\n      pop\n      pop\n      dup2\n      mstore\n      0x20\n      add\n      0x04\n      dup3\n      add\n      dup1\n      sload\n      tag_482\n      swap1\n      tag_112\n      jump\t// in\n    tag_482:\n      dup1\n      0x1f\n      add\n      0x20\n      dup1\n      swap2\n      div\n      mul\n      0x20\n      add\n      mload(0x40)\n      swap1\n      dup2\n      add\n      0x40\n      mstore\n      dup1\n      swap3\n      swap2\n      swap1\n      dup2\n      dup2\n      mstore\n      0x20\n      add\n      dup3\n      dup1\n      sload\n      tag_483\n      swap1\n      tag_112\n      jump\t// in\n    tag_483:\n      dup1\n      iszero\n      tag_484\n      jumpi\n      dup1\n      0x1f\n      lt\n      tag_485\n      jumpi\n      0x0100\n      dup1\n      dup4\n      sload\n      div\n      mul\n      dup4\n      mstore\n      swap2\n      0x20\n      add\n      swap2\n      jump(tag_484)\n    tag_485:\n      dup3\n      add\n      swap2\n      swap1\n      0x00\n      mstore\n      keccak256(0x00, 0x20)\n      swap1\n    tag_486:\n      dup2\n      sload\n      dup2\n      mstore\n      swap1\n      0x01\n      add\n      swap1\n      0x20\n      add\n      dup1\n      dup4\n      gt\n      tag_486\n      jumpi\n      dup3\n      swap1\n      sub\n      0x1f\n      and\n      dup3\n      add\n      swap2\n    tag_484:\n      pop\n      pop\n      pop\n      pop\n      pop\n      dup2\n      mstore\n      0x20\n      add\n      0x05\n      dup3\n      add\n      dup1\n      sload\n      dup1\n      0x20\n      mul\n      0x20\n      add\n      mload(0x40)\n      swap1\n      dup2\n      add\n      0x40\n      mstore\n      dup1\n      swap3\n      swap2\n      swap1\n      dup2\n      dup2\n      mstore\n      0x20\n      add\n      0x00\n      swap1\n    tag_487:\n      dup3\n      dup3\n      lt\n      iszero\n      tag_488\n      jumpi\n      dup4\n      dup3\n      swap1\n      0x00\n      mstore\n      keccak256(0x00, 0x20)\n      add\n      dup1\n      sload\n      tag_490\n      swap1\n      tag_112\n      jump\t// in\n    tag_490:\n      dup1\n      0x1f\n      add\n      0x20\n      dup1\n      swap2\n      div\n      mul\n      0x20\n      add\n      mload(0x40)\n      swap1\n      dup2\n      add\n      0x40\n      mstore\n      dup1\n      swap3\n      swap2\n      swap1\n      dup2\n      dup2\n      mstore\n      0x20\n      add\n      dup3\n      dup1\n      sload\n      tag_491\n      swap1\n      tag_112\n      jump\t// in\n    tag_491:\n      dup1\n      iszero\n      tag_492\n      jumpi\n      dup1\n      0x1f\n      lt\n      tag_493\n      jumpi\n      0x0100\n      dup1\n      dup4\n      sload\n      div\n      mul\n      dup4\n      mstore\n      swap2\n      0x20\n      add\n      swap2\n      jump(tag_492)\n    tag_493:\n      dup3\n      add\n      swap2\n      swap1\n      0x00\n      mstore\n      keccak256(0x00, 0x20)\n      swap1\n    tag_494:\n      dup2\n      sload\n      dup2\n      mstore\n      swap1\n      0x01\n      add\n      swap1\n      0x20\n      add\n      dup1\n      dup4\n      gt\n      tag_494\n      jumpi\n      dup3\n      swap1\n      sub\n      0x1f\n      and\n      dup3\n      add\n      swap2\n    tag_492:\n      pop\n      pop\n      pop\n      pop\n      pop\n      dup2\n      mstore\n      0x20\n      add\n      swap1\n      0x01\n      add\n      swap1\n      jump(tag_487)\n    tag_488:\n      pop\n      pop\n      pop\n      pop\n      dup2\n      mstore\n      0x20\n      add\n      0x06\n      dup3\n      add\n      0x00\n      swap1\n      sload\n      swap1\n      0x0100\n      exp\n      swap1\n      div\n      0xff\n      and\n      iszero\n      iszero\n      iszero\n      iszero\n      dup2\n      mstore\n      pop\n      pop\n      dup2\n      mstore\n      pop\n        /* \"contracts/MarketPlace.sol\":2916:2937  ownedSellableProducts */\n      0x02\n        /* \"contracts/MarketPlace.sol\":2916:2945  ownedSellableProducts[_owner] */\n      0x00\n        /* \"contracts/MarketPlace.sol\":2938:2944  _owner */\n      dup6\n        /* \"contracts/MarketPlace.sol\":2916:2945  ownedSellableProducts[_owner] */\n      0xffffffffffffffffffffffffffffffffffffffff\n      and\n      0xffffffffffffffffffffffffffffffffffffffff\n      and\n      dup2\n      mstore\n      0x20\n      add\n      swap1\n      dup2\n      mstore\n      0x20\n      add\n      0x00\n      keccak256\n        /* \"contracts/MarketPlace.sol\":2916:2957  ownedSellableProducts[_owner][_productId] */\n      0x00\n        /* \"contracts/MarketPlace.sol\":2946:2956  _productId */\n      dup5\n        /* \"contracts/MarketPlace.sol\":2916:2957  ownedSellableProducts[_owner][_productId] */\n      dup2\n      mstore\n      0x20\n      add\n      swap1\n      dup2\n      mstore\n      0x20\n      add\n      0x00\n      keccak256\n        /* \"contracts/MarketPlace.sol\":2916:3079  ownedSellableProducts[_owner][_productId] = SellableProduct(price, price * feePricePercentage / 100, block.timestamp, ownedNonSellableProducts[_owner][_productId]) */\n      0x00\n      dup3\n      add\n      mload\n      dup2\n      0x00\n      add\n      sstore\n      0x20\n      dup3\n      add\n      mload\n      dup2\n      0x01\n      add\n      sstore\n      0x40\n      dup3\n      add\n      mload\n      dup2\n      0x02\n      add\n      sstore\n      0x60\n      dup3\n      add\n      mload\n      dup2\n      0x03\n      add\n      0x00\n      dup3\n      add\n      mload\n      dup2\n      0x00\n      add\n      sstore\n      0x20\n      dup3\n      add\n      mload\n      dup2\n      0x01\n      add\n      exp(0x0100, 0x00)\n      dup2\n      sload\n      dup2\n      0xffffffffffffffffffffffffffffffffffffffff\n      mul\n      not\n      and\n      swap1\n      dup4\n      0xffffffffffffffffffffffffffffffffffffffff\n      and\n      mul\n      or\n      swap1\n      sstore\n      pop\n      0x40\n      dup3\n      add\n      mload\n      dup2\n      0x02\n      add\n      swap1\n      dup1\n      mload\n      swap1\n      0x20\n      add\n      swap1\n      tag_495\n      swap3\n      swap2\n      swap1\n      tag_98\n      jump\t// in\n    tag_495:\n      pop\n      0x60\n      dup3\n      add\n      mload\n      dup2\n      0x03\n      add\n      swap1\n      dup1\n      mload\n      swap1\n      0x20\n      add\n      swap1\n      tag_496\n      swap3\n      swap2\n      swap1\n      tag_98\n      jump\t// in\n    tag_496:\n      pop\n      0x80\n      dup3\n      add\n      mload\n      dup2\n      0x04\n      add\n      swap1\n      dup1\n      mload\n      swap1\n      0x20\n      add\n      swap1\n      tag_497\n      swap3\n      swap2\n      swap1\n      tag_98\n      jump\t// in\n    tag_497:\n      pop\n      0xa0\n      dup3\n      add\n      mload\n      dup2\n      0x05\n      add\n      swap1\n      dup1\n      mload\n      swap1\n      0x20\n      add\n      swap1\n      tag_498\n      swap3\n      swap2\n      swap1\n      tag_102\n      jump\t// in\n    tag_498:\n      pop\n      0xc0\n      dup3\n      add\n      mload\n      dup2\n      0x06\n      add\n      exp(0x0100, 0x00)\n      dup2\n      sload\n      dup2\n      0xff\n      mul\n      not\n      and\n      swap1\n      dup4\n      iszero\n      iszero\n      mul\n      or\n      swap1\n      sstore\n      pop\n      pop\n      pop\n      swap1\n      pop\n      pop\n        /* \"contracts/MarketPlace.sol\":3150:3154  true */\n      0x01\n        /* \"contracts/MarketPlace.sol\":3090:3111  ownedSellableProducts */\n      0x02\n        /* \"contracts/MarketPlace.sol\":3090:3119  ownedSellableProducts[_owner] */\n      0x00\n        /* \"contracts/MarketPlace.sol\":3112:3118  _owner */\n      dup6\n        /* \"contracts/MarketPlace.sol\":3090:3119  ownedSellableProducts[_owner] */\n      0xffffffffffffffffffffffffffffffffffffffff\n      and\n      0xffffffffffffffffffffffffffffffffffffffff\n      and\n      dup2\n      mstore\n      0x20\n      add\n      swap1\n      dup2\n      mstore\n      0x20\n      add\n      0x00\n      keccak256\n        /* \"contracts/MarketPlace.sol\":3090:3131  ownedSellableProducts[_owner][_productId] */\n      0x00\n        /* \"contracts/MarketPlace.sol\":3120:3130  _productId */\n      dup5\n        /* \"contracts/MarketPlace.sol\":3090:3131  ownedSellableProducts[_owner][_productId] */\n      dup2\n      mstore\n      0x20\n      add\n      swap1\n      dup2\n      mstore\n      0x20\n      add\n      0x00\n      keccak256\n        /* \"contracts/MarketPlace.sol\":3090:3139  ownedSellableProducts[_owner][_productId].product */\n      0x03\n      add\n        /* \"contracts/MarketPlace.sol\":3090:3147  ownedSellableProducts[_owner][_productId].product.forSale */\n      0x06\n      add\n      0x00\n        /* \"contracts/MarketPlace.sol\":3090:3154  ownedSellableProducts[_owner][_productId].product.forSale = true */\n      0x0100\n      exp\n      dup2\n      sload\n      dup2\n      0xff\n      mul\n      not\n      and\n      swap1\n      dup4\n      iszero\n      iszero\n      mul\n      or\n      swap1\n      sstore\n      pop\n        /* \"contracts/MarketPlace.sol\":3196:3200  true */\n      0x01\n        /* \"contracts/MarketPlace.sol\":3165:3173  products */\n      0x05\n        /* \"contracts/MarketPlace.sol\":3174:3184  _productId */\n      dup4\n        /* \"contracts/MarketPlace.sol\":3165:3185  products[_productId] */\n      dup2\n      sload\n      dup2\n      lt\n      tag_499\n      jumpi\n      tag_500\n      tag_151\n      jump\t// in\n    tag_500:\n    tag_499:\n      swap1\n      0x00\n      mstore\n      keccak256(0x00, 0x20)\n      swap1\n      0x07\n      mul\n      add\n        /* \"contracts/MarketPlace.sol\":3165:3193  products[_productId].forSale */\n      0x06\n      add\n      0x00\n        /* \"contracts/MarketPlace.sol\":3165:3200  products[_productId].forSale = true */\n      0x0100\n      exp\n      dup2\n      sload\n      dup2\n      0xff\n      mul\n      not\n      and\n      swap1\n      dup4\n      iszero\n      iszero\n      mul\n      or\n      swap1\n      sstore\n      pop\n        /* \"contracts/MarketPlace.sol\":3218:3242  ownedNonSellableProducts */\n      0x03\n        /* \"contracts/MarketPlace.sol\":3218:3250  ownedNonSellableProducts[_owner] */\n      0x00\n        /* \"contracts/MarketPlace.sol\":3243:3249  _owner */\n      dup5\n        /* \"contracts/MarketPlace.sol\":3218:3250  ownedNonSellableProducts[_owner] */\n      0xffffffffffffffffffffffffffffffffffffffff\n      and\n      0xffffffffffffffffffffffffffffffffffffffff\n      and\n      dup2\n      mstore\n      0x20\n      add\n      swap1\n      dup2\n      mstore\n      0x20\n      add\n      0x00\n      keccak256\n        /* \"contracts/MarketPlace.sol\":3218:3262  ownedNonSellableProducts[_owner][_productId] */\n      0x00\n        /* \"contracts/MarketPlace.sol\":3251:3261  _productId */\n      dup4\n        /* \"contracts/MarketPlace.sol\":3218:3262  ownedNonSellableProducts[_owner][_productId] */\n      dup2\n      mstore\n      0x20\n      add\n      swap1\n      dup2\n      mstore\n      0x20\n      add\n      0x00\n      keccak256\n      0x00\n        /* \"contracts/MarketPlace.sol\":3211:3263  delete(ownedNonSellableProducts[_owner][_productId]) */\n      dup1\n      dup3\n      add\n      0x00\n      swap1\n      sstore\n      0x01\n      dup3\n      add\n      exp(0x0100, 0x00)\n      dup2\n      sload\n      swap1\n      0xffffffffffffffffffffffffffffffffffffffff\n      mul\n      not\n      and\n      swap1\n      sstore\n      0x02\n      dup3\n      add\n      0x00\n      tag_502\n      swap2\n      swap1\n      tag_464\n      jump\t// in\n    tag_502:\n      0x03\n      dup3\n      add\n      0x00\n      tag_503\n      swap2\n      swap1\n      tag_464\n      jump\t// in\n    tag_503:\n      0x04\n      dup3\n      add\n      0x00\n      tag_504\n      swap2\n      swap1\n      tag_464\n      jump\t// in\n    tag_504:\n      0x05\n      dup3\n      add\n      0x00\n      tag_505\n      swap2\n      swap1\n      tag_468\n      jump\t// in\n    tag_505:\n      0x06\n      dup3\n      add\n      exp(0x0100, 0x00)\n      dup2\n      sload\n      swap1\n      0xff\n      mul\n      not\n      and\n      swap1\n      sstore\n      pop\n      pop\n        /* \"contracts/MarketPlace.sol\":2802:3271  function transferFromNonSellableToSellable(address _owner, uint256 _productId, uint256 price) internal {\r... */\n      pop\n      pop\n      pop\n      jump\t// out\n    tag_98:\n      dup3\n      dup1\n      sload\n      tag_506\n      swap1\n      tag_112\n      jump\t// in\n    tag_506:\n      swap1\n      0x00\n      mstore\n      keccak256(0x00, 0x20)\n      swap1\n      0x1f\n      add\n      0x20\n      swap1\n      div\n      dup2\n      add\n      swap3\n      dup3\n      tag_508\n      jumpi\n      0x00\n      dup6\n      sstore\n      jump(tag_507)\n    tag_508:\n      dup3\n      0x1f\n      lt\n      tag_509\n      jumpi\n      dup1\n      mload\n      not(0xff)\n      and\n      dup4\n      dup1\n      add\n      or\n      dup6\n      sstore\n      jump(tag_507)\n    tag_509:\n      dup3\n      dup1\n      add\n      0x01\n      add\n      dup6\n      sstore\n      dup3\n      iszero\n      tag_507\n      jumpi\n      swap2\n      dup3\n      add\n    tag_510:\n      dup3\n      dup2\n      gt\n      iszero\n      tag_511\n      jumpi\n      dup3\n      mload\n      dup3\n      sstore\n      swap2\n      0x20\n      add\n      swap2\n      swap1\n      0x01\n      add\n      swap1\n      jump(tag_510)\n    tag_511:\n    tag_507:\n      pop\n      swap1\n      pop\n      tag_512\n      swap2\n      swap1\n      tag_513\n      jump\t// in\n    tag_512:\n      pop\n      swap1\n      jump\t// out\n    tag_102:\n      dup3\n      dup1\n      sload\n      dup3\n      dup3\n      sstore\n      swap1\n      0x00\n      mstore\n      keccak256(0x00, 0x20)\n      swap1\n      dup2\n      add\n      swap3\n      dup3\n      iszero\n      tag_514\n      jumpi\n      swap2\n      0x20\n      mul\n      dup3\n      add\n    tag_515:\n      dup3\n      dup2\n      gt\n      iszero\n      tag_516\n      jumpi\n      dup3\n      mload\n      dup3\n      swap1\n      dup1\n      mload\n      swap1\n      0x20\n      add\n      swap1\n      tag_517\n      swap3\n      swap2\n      swap1\n      tag_98\n      jump\t// in\n    tag_517:\n      pop\n      swap2\n      0x20\n      add\n      swap2\n      swap1\n      0x01\n      add\n      swap1\n      jump(tag_515)\n    tag_516:\n    tag_514:\n      pop\n      swap1\n      pop\n      tag_518\n      swap2\n      swap1\n      tag_519\n      jump\t// in\n    tag_518:\n      pop\n      swap1\n      jump\t// out\n    tag_144:\n      mload(0x40)\n      dup1\n      0xe0\n      add\n      0x40\n      mstore\n      dup1\n      0x00\n      dup2\n      mstore\n      0x20\n      add\n      and(0xffffffffffffffffffffffffffffffffffffffff, 0x00)\n      dup2\n      mstore\n      0x20\n      add\n      0x60\n      dup2\n      mstore\n      0x20\n      add\n      0x60\n      dup2\n      mstore\n      0x20\n      add\n      0x60\n      dup2\n      mstore\n      0x20\n      add\n      0x60\n      dup2\n      mstore\n      0x20\n      add\n      iszero(iszero(0x00))\n      dup2\n      mstore\n      pop\n      swap1\n      jump\t// out\n    tag_343:\n      mload(0x40)\n      dup1\n      0x80\n      add\n      0x40\n      mstore\n      dup1\n      0x00\n      dup2\n      mstore\n      0x20\n      add\n      0x00\n      dup2\n      mstore\n      0x20\n      add\n      0x00\n      dup2\n      mstore\n      0x20\n      add\n      tag_520\n      tag_144\n      jump\t// in\n    tag_520:\n      dup2\n      mstore\n      pop\n      swap1\n      jump\t// out\n    tag_450:\n      dup3\n      dup1\n      sload\n      tag_521\n      swap1\n      tag_112\n      jump\t// in\n    tag_521:\n      swap1\n      0x00\n      mstore\n      keccak256(0x00, 0x20)\n      swap1\n      0x1f\n      add\n      0x20\n      swap1\n      div\n      dup2\n      add\n      swap3\n      dup3\n      tag_523\n      jumpi\n      0x00\n      dup6\n      sstore\n      jump(tag_522)\n    tag_523:\n      dup3\n      0x1f\n      lt\n      tag_524\n      jumpi\n      dup1\n      sload\n      dup6\n      sstore\n      jump(tag_522)\n    tag_524:\n      dup3\n      dup1\n      add\n      0x01\n      add\n      dup6\n      sstore\n      dup3\n      iszero\n      tag_522\n      jumpi\n      0x00\n      mstore\n      keccak256(0x00, 0x20)\n      swap2\n      0x1f\n      add\n      0x20\n      swap1\n      div\n      dup3\n      add\n    tag_525:\n      dup3\n      dup2\n      gt\n      iszero\n      tag_526\n      jumpi\n      dup3\n      sload\n      dup3\n      sstore\n      swap2\n      0x01\n      add\n      swap2\n      swap1\n      0x01\n      add\n      swap1\n      jump(tag_525)\n    tag_526:\n    tag_522:\n      pop\n      swap1\n      pop\n      tag_527\n      swap2\n      swap1\n      tag_513\n      jump\t// in\n    tag_527:\n      pop\n      swap1\n      jump\t// out\n    tag_456:\n      dup3\n      dup1\n      sload\n      dup3\n      dup3\n      sstore\n      swap1\n      0x00\n      mstore\n      keccak256(0x00, 0x20)\n      swap1\n      dup2\n      add\n      swap3\n      dup3\n      iszero\n      tag_528\n      jumpi\n      0x00\n      mstore\n      keccak256(0x00, 0x20)\n      swap2\n      dup3\n      add\n    tag_529:\n      dup3\n      dup2\n      gt\n      iszero\n      tag_530\n      jumpi\n      dup3\n      dup3\n      swap1\n      dup1\n      sload\n      tag_531\n      swap1\n      tag_112\n      jump\t// in\n    tag_531:\n      tag_532\n      swap3\n      swap2\n      swap1\n      tag_450\n      jump\t// in\n    tag_532:\n      pop\n      swap2\n      0x01\n      add\n      swap2\n      swap1\n      0x01\n      add\n      swap1\n      jump(tag_529)\n    tag_530:\n    tag_528:\n      pop\n      swap1\n      pop\n      tag_533\n      swap2\n      swap1\n      tag_519\n      jump\t// in\n    tag_533:\n      pop\n      swap1\n      jump\t// out\n    tag_464:\n      pop\n      dup1\n      sload\n      tag_534\n      swap1\n      tag_112\n      jump\t// in\n    tag_534:\n      0x00\n      dup3\n      sstore\n      dup1\n      0x1f\n      lt\n      tag_536\n      jumpi\n      pop\n      jump(tag_535)\n    tag_536:\n      0x1f\n      add\n      0x20\n      swap1\n      div\n      swap1\n      0x00\n      mstore\n      keccak256(0x00, 0x20)\n      swap1\n      dup2\n      add\n      swap1\n      tag_537\n      swap2\n      swap1\n      tag_513\n      jump\t// in\n    tag_537:\n    tag_535:\n      pop\n      jump\t// out\n    tag_468:\n      pop\n      dup1\n      sload\n      0x00\n      dup3\n      sstore\n      swap1\n      0x00\n      mstore\n      keccak256(0x00, 0x20)\n      swap1\n      dup2\n      add\n      swap1\n      tag_539\n      swap2\n      swap1\n      tag_519\n      jump\t// in\n    tag_539:\n      pop\n      jump\t// out\n    tag_513:\n    tag_540:\n      dup1\n      dup3\n      gt\n      iszero\n      tag_541\n      jumpi\n      0x00\n      dup2\n      0x00\n      swap1\n      sstore\n      pop\n      0x01\n      add\n      jump(tag_540)\n    tag_541:\n      pop\n      swap1\n      jump\t// out\n    tag_519:\n    tag_542:\n      dup1\n      dup3\n      gt\n      iszero\n      tag_543\n      jumpi\n      0x00\n      dup2\n      dup2\n      tag_544\n      swap2\n      swap1\n      tag_464\n      jump\t// in\n    tag_544:\n      pop\n      0x01\n      add\n      jump(tag_542)\n    tag_543:\n      pop\n      swap1\n      jump\t// out\n        /* \"#utility.yul\":23:980   */\n    tag_546:\n        /* \"#utility.yul\":129:134   */\n      0x00\n        /* \"#utility.yul\":154:245   */\n      tag_548\n        /* \"#utility.yul\":170:244   */\n      tag_549\n        /* \"#utility.yul\":237:243   */\n      dup5\n        /* \"#utility.yul\":170:244   */\n      tag_550\n      jump\t// in\n    tag_549:\n        /* \"#utility.yul\":154:245   */\n      tag_551\n      jump\t// in\n    tag_548:\n        /* \"#utility.yul\":145:245   */\n      swap1\n      pop\n        /* \"#utility.yul\":265:270   */\n      dup1\n        /* \"#utility.yul\":294:300   */\n      dup4\n        /* \"#utility.yul\":287:292   */\n      dup3\n        /* \"#utility.yul\":280:301   */\n      mstore\n        /* \"#utility.yul\":328:332   */\n      0x20\n        /* \"#utility.yul\":321:326   */\n      dup3\n        /* \"#utility.yul\":317:333   */\n      add\n        /* \"#utility.yul\":310:333   */\n      swap1\n      pop\n        /* \"#utility.yul\":354:360   */\n      dup3\n        /* \"#utility.yul\":404:407   */\n      dup6\n        /* \"#utility.yul\":396:400   */\n      0x20\n        /* \"#utility.yul\":388:394   */\n      dup7\n        /* \"#utility.yul\":384:401   */\n      mul\n        /* \"#utility.yul\":379:382   */\n      dup3\n        /* \"#utility.yul\":375:402   */\n      add\n        /* \"#utility.yul\":372:408   */\n      gt\n        /* \"#utility.yul\":369:512   */\n      iszero\n      tag_552\n      jumpi\n        /* \"#utility.yul\":423:502   */\n      tag_553\n      tag_554\n      jump\t// in\n    tag_553:\n        /* \"#utility.yul\":369:512   */\n    tag_552:\n        /* \"#utility.yul\":536:537   */\n      0x00\n        /* \"#utility.yul\":521:974   */\n    tag_555:\n        /* \"#utility.yul\":546:552   */\n      dup6\n        /* \"#utility.yul\":543:544   */\n      dup2\n        /* \"#utility.yul\":540:553   */\n      lt\n        /* \"#utility.yul\":521:974   */\n      iszero\n      tag_557\n      jumpi\n        /* \"#utility.yul\":628:631   */\n      dup2\n        /* \"#utility.yul\":615:632   */\n      calldataload\n        /* \"#utility.yul\":664:682   */\n      0xffffffffffffffff\n        /* \"#utility.yul\":651:662   */\n      dup2\n        /* \"#utility.yul\":648:683   */\n      gt\n        /* \"#utility.yul\":645:767   */\n      iszero\n      tag_558\n      jumpi\n        /* \"#utility.yul\":686:765   */\n      tag_559\n      tag_560\n      jump\t// in\n    tag_559:\n        /* \"#utility.yul\":645:767   */\n    tag_558:\n        /* \"#utility.yul\":810:821   */\n      dup1\n        /* \"#utility.yul\":802:808   */\n      dup7\n        /* \"#utility.yul\":798:822   */\n      add\n        /* \"#utility.yul\":848:895   */\n      tag_561\n        /* \"#utility.yul\":891:894   */\n      dup10\n        /* \"#utility.yul\":879:889   */\n      dup3\n        /* \"#utility.yul\":848:895   */\n      tag_562\n      jump\t// in\n    tag_561:\n        /* \"#utility.yul\":843:846   */\n      dup6\n        /* \"#utility.yul\":836:896   */\n      mstore\n        /* \"#utility.yul\":925:929   */\n      0x20\n        /* \"#utility.yul\":920:923   */\n      dup6\n        /* \"#utility.yul\":916:930   */\n      add\n        /* \"#utility.yul\":909:930   */\n      swap5\n      pop\n        /* \"#utility.yul\":959:963   */\n      0x20\n        /* \"#utility.yul\":954:957   */\n      dup5\n        /* \"#utility.yul\":950:964   */\n      add\n        /* \"#utility.yul\":943:964   */\n      swap4\n      pop\n        /* \"#utility.yul\":581:974   */\n      pop\n      pop\n        /* \"#utility.yul\":568:569   */\n      0x01\n        /* \"#utility.yul\":565:566   */\n      dup2\n        /* \"#utility.yul\":561:570   */\n      add\n        /* \"#utility.yul\":556:570   */\n      swap1\n      pop\n        /* \"#utility.yul\":521:974   */\n      jump(tag_555)\n    tag_557:\n        /* \"#utility.yul\":525:539   */\n      pop\n        /* \"#utility.yul\":135:980   */\n      pop\n      pop\n        /* \"#utility.yul\":23:980   */\n      swap4\n      swap3\n      pop\n      pop\n      pop\n      jump\t// out\n        /* \"#utility.yul\":986:1398   */\n    tag_563:\n        /* \"#utility.yul\":1064:1069   */\n      0x00\n        /* \"#utility.yul\":1089:1155   */\n      tag_565\n        /* \"#utility.yul\":1105:1154   */\n      tag_566\n        /* \"#utility.yul\":1147:1153   */\n      dup5\n        /* \"#utility.yul\":1105:1154   */\n      tag_567\n      jump\t// in\n    tag_566:\n        /* \"#utility.yul\":1089:1155   */\n      tag_551\n      jump\t// in\n    tag_565:\n        /* \"#utility.yul\":1080:1155   */\n      swap1\n      pop\n        /* \"#utility.yul\":1178:1184   */\n      dup3\n        /* \"#utility.yul\":1171:1176   */\n      dup2\n        /* \"#utility.yul\":1164:1185   */\n      mstore\n        /* \"#utility.yul\":1216:1220   */\n      0x20\n        /* \"#utility.yul\":1209:1214   */\n      dup2\n        /* \"#utility.yul\":1205:1221   */\n      add\n        /* \"#utility.yul\":1254:1257   */\n      dup5\n        /* \"#utility.yul\":1245:1251   */\n      dup5\n        /* \"#utility.yul\":1240:1243   */\n      dup5\n        /* \"#utility.yul\":1236:1252   */\n      add\n        /* \"#utility.yul\":1233:1258   */\n      gt\n        /* \"#utility.yul\":1230:1342   */\n      iszero\n      tag_568\n      jumpi\n        /* \"#utility.yul\":1261:1340   */\n      tag_569\n      tag_570\n      jump\t// in\n    tag_569:\n        /* \"#utility.yul\":1230:1342   */\n    tag_568:\n        /* \"#utility.yul\":1351:1392   */\n      tag_571\n        /* \"#utility.yul\":1385:1391   */\n      dup5\n        /* \"#utility.yul\":1380:1383   */\n      dup3\n        /* \"#utility.yul\":1375:1378   */\n      dup6\n        /* \"#utility.yul\":1351:1392   */\n      tag_572\n      jump\t// in\n    tag_571:\n        /* \"#utility.yul\":1070:1398   */\n      pop\n        /* \"#utility.yul\":986:1398   */\n      swap4\n      swap3\n      pop\n      pop\n      pop\n      jump\t// out\n        /* \"#utility.yul\":1404:1543   */\n    tag_573:\n        /* \"#utility.yul\":1450:1455   */\n      0x00\n        /* \"#utility.yul\":1488:1494   */\n      dup2\n        /* \"#utility.yul\":1475:1495   */\n      calldataload\n        /* \"#utility.yul\":1466:1495   */\n      swap1\n      pop\n        /* \"#utility.yul\":1504:1537   */\n      tag_575\n        /* \"#utility.yul\":1531:1536   */\n      dup2\n        /* \"#utility.yul\":1504:1537   */\n      tag_576\n      jump\t// in\n    tag_575:\n        /* \"#utility.yul\":1404:1543   */\n      swap3\n      swap2\n      pop\n      pop\n      jump\t// out\n        /* \"#utility.yul\":1565:1955   */\n    tag_577:\n        /* \"#utility.yul\":1646:1651   */\n      0x00\n        /* \"#utility.yul\":1695:1698   */\n      dup3\n        /* \"#utility.yul\":1688:1692   */\n      0x1f\n        /* \"#utility.yul\":1680:1686   */\n      dup4\n        /* \"#utility.yul\":1676:1693   */\n      add\n        /* \"#utility.yul\":1672:1699   */\n      slt\n        /* \"#utility.yul\":1662:1784   */\n      tag_579\n      jumpi\n        /* \"#utility.yul\":1703:1782   */\n      tag_580\n      tag_560\n      jump\t// in\n    tag_580:\n        /* \"#utility.yul\":1662:1784   */\n    tag_579:\n        /* \"#utility.yul\":1820:1826   */\n      dup2\n        /* \"#utility.yul\":1807:1827   */\n      calldataload\n        /* \"#utility.yul\":1845:1949   */\n      tag_581\n        /* \"#utility.yul\":1945:1948   */\n      dup5\n        /* \"#utility.yul\":1937:1943   */\n      dup3\n        /* \"#utility.yul\":1930:1934   */\n      0x20\n        /* \"#utility.yul\":1922:1928   */\n      dup7\n        /* \"#utility.yul\":1918:1935   */\n      add\n        /* \"#utility.yul\":1845:1949   */\n      tag_546\n      jump\t// in\n    tag_581:\n        /* \"#utility.yul\":1836:1949   */\n      swap2\n      pop\n        /* \"#utility.yul\":1652:1955   */\n      pop\n        /* \"#utility.yul\":1565:1955   */\n      swap3\n      swap2\n      pop\n      pop\n      jump\t// out\n        /* \"#utility.yul\":1975:2315   */\n    tag_562:\n        /* \"#utility.yul\":2031:2036   */\n      0x00\n        /* \"#utility.yul\":2080:2083   */\n      dup3\n        /* \"#utility.yul\":2073:2077   */\n      0x1f\n        /* \"#utility.yul\":2065:2071   */\n      dup4\n        /* \"#utility.yul\":2061:2078   */\n      add\n        /* \"#utility.yul\":2057:2084   */\n      slt\n        /* \"#utility.yul\":2047:2169   */\n      tag_583\n      jumpi\n        /* \"#utility.yul\":2088:2167   */\n      tag_584\n      tag_560\n      jump\t// in\n    tag_584:\n        /* \"#utility.yul\":2047:2169   */\n    tag_583:\n        /* \"#utility.yul\":2205:2211   */\n      dup2\n        /* \"#utility.yul\":2192:2212   */\n      calldataload\n        /* \"#utility.yul\":2230:2309   */\n      tag_585\n        /* \"#utility.yul\":2305:2308   */\n      dup5\n        /* \"#utility.yul\":2297:2303   */\n      dup3\n        /* \"#utility.yul\":2290:2294   */\n      0x20\n        /* \"#utility.yul\":2282:2288   */\n      dup7\n        /* \"#utility.yul\":2278:2295   */\n      add\n        /* \"#utility.yul\":2230:2309   */\n      tag_563\n      jump\t// in\n    tag_585:\n        /* \"#utility.yul\":2221:2309   */\n      swap2\n      pop\n        /* \"#utility.yul\":2037:2315   */\n      pop\n        /* \"#utility.yul\":1975:2315   */\n      swap3\n      swap2\n      pop\n      pop\n      jump\t// out\n        /* \"#utility.yul\":2321:2460   */\n    tag_586:\n        /* \"#utility.yul\":2367:2372   */\n      0x00\n        /* \"#utility.yul\":2405:2411   */\n      dup2\n        /* \"#utility.yul\":2392:2412   */\n      calldataload\n        /* \"#utility.yul\":2383:2412   */\n      swap1\n      pop\n        /* \"#utility.yul\":2421:2454   */\n      tag_588\n        /* \"#utility.yul\":2448:2453   */\n      dup2\n        /* \"#utility.yul\":2421:2454   */\n      tag_589\n      jump\t// in\n    tag_588:\n        /* \"#utility.yul\":2321:2460   */\n      swap3\n      swap2\n      pop\n      pop\n      jump\t// out\n        /* \"#utility.yul\":2466:2795   */\n    tag_85:\n        /* \"#utility.yul\":2525:2531   */\n      0x00\n        /* \"#utility.yul\":2574:2576   */\n      0x20\n        /* \"#utility.yul\":2562:2571   */\n      dup3\n        /* \"#utility.yul\":2553:2560   */\n      dup5\n        /* \"#utility.yul\":2549:2572   */\n      sub\n        /* \"#utility.yul\":2545:2577   */\n      slt\n        /* \"#utility.yul\":2542:2661   */\n      iszero\n      tag_591\n      jumpi\n        /* \"#utility.yul\":2580:2659   */\n      tag_592\n      tag_593\n      jump\t// in\n    tag_592:\n        /* \"#utility.yul\":2542:2661   */\n    tag_591:\n        /* \"#utility.yul\":2700:2701   */\n      0x00\n        /* \"#utility.yul\":2725:2778   */\n      tag_594\n        /* \"#utility.yul\":2770:2777   */\n      dup5\n        /* \"#utility.yul\":2761:2767   */\n      dup3\n        /* \"#utility.yul\":2750:2759   */\n      dup6\n        /* \"#utility.yul\":2746:2768   */\n      add\n        /* \"#utility.yul\":2725:2778   */\n      tag_573\n      jump\t// in\n    tag_594:\n        /* \"#utility.yul\":2715:2778   */\n      swap2\n      pop\n        /* \"#utility.yul\":2671:2788   */\n      pop\n        /* \"#utility.yul\":2466:2795   */\n      swap3\n      swap2\n      pop\n      pop\n      jump\t// out\n        /* \"#utility.yul\":2801:3275   */\n    tag_27:\n        /* \"#utility.yul\":2869:2875   */\n      0x00\n        /* \"#utility.yul\":2877:2883   */\n      dup1\n        /* \"#utility.yul\":2926:2928   */\n      0x40\n        /* \"#utility.yul\":2914:2923   */\n      dup4\n        /* \"#utility.yul\":2905:2912   */\n      dup6\n        /* \"#utility.yul\":2901:2924   */\n      sub\n        /* \"#utility.yul\":2897:2929   */\n      slt\n        /* \"#utility.yul\":2894:3013   */\n      iszero\n      tag_596\n      jumpi\n        /* \"#utility.yul\":2932:3011   */\n      tag_597\n      tag_593\n      jump\t// in\n    tag_597:\n        /* \"#utility.yul\":2894:3013   */\n    tag_596:\n        /* \"#utility.yul\":3052:3053   */\n      0x00\n        /* \"#utility.yul\":3077:3130   */\n      tag_598\n        /* \"#utility.yul\":3122:3129   */\n      dup6\n        /* \"#utility.yul\":3113:3119   */\n      dup3\n        /* \"#utility.yul\":3102:3111   */\n      dup7\n        /* \"#utility.yul\":3098:3120   */\n      add\n        /* \"#utility.yul\":3077:3130   */\n      tag_573\n      jump\t// in\n    tag_598:\n        /* \"#utility.yul\":3067:3130   */\n      swap3\n      pop\n        /* \"#utility.yul\":3023:3140   */\n      pop\n        /* \"#utility.yul\":3179:3181   */\n      0x20\n        /* \"#utility.yul\":3205:3258   */\n      tag_599\n        /* \"#utility.yul\":3250:3257   */\n      dup6\n        /* \"#utility.yul\":3241:3247   */\n      dup3\n        /* \"#utility.yul\":3230:3239   */\n      dup7\n        /* \"#utility.yul\":3226:3248   */\n      add\n        /* \"#utility.yul\":3205:3258   */\n      tag_586\n      jump\t// in\n    tag_599:\n        /* \"#utility.yul\":3195:3258   */\n      swap2\n      pop\n        /* \"#utility.yul\":3150:3268   */\n      pop\n        /* \"#utility.yul\":2801:3275   */\n      swap3\n      pop\n      swap3\n      swap1\n      pop\n      jump\t// out\n        /* \"#utility.yul\":3281:4698   */\n    tag_55:\n        /* \"#utility.yul\":3405:3411   */\n      0x00\n        /* \"#utility.yul\":3413:3419   */\n      dup1\n        /* \"#utility.yul\":3421:3427   */\n      0x00\n        /* \"#utility.yul\":3429:3435   */\n      dup1\n        /* \"#utility.yul\":3437:3443   */\n      0x00\n        /* \"#utility.yul\":3445:3451   */\n      dup1\n        /* \"#utility.yul\":3494:3497   */\n      0xc0\n        /* \"#utility.yul\":3482:3491   */\n      dup8\n        /* \"#utility.yul\":3473:3480   */\n      dup10\n        /* \"#utility.yul\":3469:3492   */\n      sub\n        /* \"#utility.yul\":3465:3498   */\n      slt\n        /* \"#utility.yul\":3462:3582   */\n      iszero\n      tag_601\n      jumpi\n        /* \"#utility.yul\":3501:3580   */\n      tag_602\n      tag_593\n      jump\t// in\n    tag_602:\n        /* \"#utility.yul\":3462:3582   */\n    tag_601:\n        /* \"#utility.yul\":3649:3650   */\n      0x00\n        /* \"#utility.yul\":3638:3647   */\n      dup8\n        /* \"#utility.yul\":3634:3651   */\n      add\n        /* \"#utility.yul\":3621:3652   */\n      calldataload\n        /* \"#utility.yul\":3679:3697   */\n      0xffffffffffffffff\n        /* \"#utility.yul\":3671:3677   */\n      dup2\n        /* \"#utility.yul\":3668:3698   */\n      gt\n        /* \"#utility.yul\":3665:3782   */\n      iszero\n      tag_603\n      jumpi\n        /* \"#utility.yul\":3701:3780   */\n      tag_604\n      tag_605\n      jump\t// in\n    tag_604:\n        /* \"#utility.yul\":3665:3782   */\n    tag_603:\n        /* \"#utility.yul\":3806:3869   */\n      tag_606\n        /* \"#utility.yul\":3861:3868   */\n      dup10\n        /* \"#utility.yul\":3852:3858   */\n      dup3\n        /* \"#utility.yul\":3841:3850   */\n      dup11\n        /* \"#utility.yul\":3837:3859   */\n      add\n        /* \"#utility.yul\":3806:3869   */\n      tag_562\n      jump\t// in\n    tag_606:\n        /* \"#utility.yul\":3796:3869   */\n      swap7\n      pop\n        /* \"#utility.yul\":3592:3879   */\n      pop\n        /* \"#utility.yul\":3946:3948   */\n      0x20\n        /* \"#utility.yul\":3935:3944   */\n      dup8\n        /* \"#utility.yul\":3931:3949   */\n      add\n        /* \"#utility.yul\":3918:3950   */\n      calldataload\n        /* \"#utility.yul\":3977:3995   */\n      0xffffffffffffffff\n        /* \"#utility.yul\":3969:3975   */\n      dup2\n        /* \"#utility.yul\":3966:3996   */\n      gt\n        /* \"#utility.yul\":3963:4080   */\n      iszero\n      tag_607\n      jumpi\n        /* \"#utility.yul\":3999:4078   */\n      tag_608\n      tag_605\n      jump\t// in\n    tag_608:\n        /* \"#utility.yul\":3963:4080   */\n    tag_607:\n        /* \"#utility.yul\":4104:4167   */\n      tag_609\n        /* \"#utility.yul\":4159:4166   */\n      dup10\n        /* \"#utility.yul\":4150:4156   */\n      dup3\n        /* \"#utility.yul\":4139:4148   */\n      dup11\n        /* \"#utility.yul\":4135:4157   */\n      add\n        /* \"#utility.yul\":4104:4167   */\n      tag_562\n      jump\t// in\n    tag_609:\n        /* \"#utility.yul\":4094:4167   */\n      swap6\n      pop\n        /* \"#utility.yul\":3889:4177   */\n      pop\n        /* \"#utility.yul\":4216:4218   */\n      0x40\n        /* \"#utility.yul\":4242:4295   */\n      tag_610\n        /* \"#utility.yul\":4287:4294   */\n      dup10\n        /* \"#utility.yul\":4278:4284   */\n      dup3\n        /* \"#utility.yul\":4267:4276   */\n      dup11\n        /* \"#utility.yul\":4263:4285   */\n      add\n        /* \"#utility.yul\":4242:4295   */\n      tag_573\n      jump\t// in\n    tag_610:\n        /* \"#utility.yul\":4232:4295   */\n      swap5\n      pop\n        /* \"#utility.yul\":4187:4305   */\n      pop\n        /* \"#utility.yul\":4344:4346   */\n      0x60\n        /* \"#utility.yul\":4370:4423   */\n      tag_611\n        /* \"#utility.yul\":4415:4422   */\n      dup10\n        /* \"#utility.yul\":4406:4412   */\n      dup3\n        /* \"#utility.yul\":4395:4404   */\n      dup11\n        /* \"#utility.yul\":4391:4413   */\n      add\n        /* \"#utility.yul\":4370:4423   */\n      tag_586\n      jump\t// in\n    tag_611:\n        /* \"#utility.yul\":4360:4423   */\n      swap4\n      pop\n        /* \"#utility.yul\":4315:4433   */\n      pop\n        /* \"#utility.yul\":4472:4475   */\n      0x80\n        /* \"#utility.yul\":4499:4552   */\n      tag_612\n        /* \"#utility.yul\":4544:4551   */\n      dup10\n        /* \"#utility.yul\":4535:4541   */\n      dup3\n        /* \"#utility.yul\":4524:4533   */\n      dup11\n        /* \"#utility.yul\":4520:4542   */\n      add\n        /* \"#utility.yul\":4499:4552   */\n      tag_586\n      jump\t// in\n    tag_612:\n        /* \"#utility.yul\":4489:4552   */\n      swap3\n      pop\n        /* \"#utility.yul\":4443:4562   */\n      pop\n        /* \"#utility.yul\":4601:4604   */\n      0xa0\n        /* \"#utility.yul\":4628:4681   */\n      tag_613\n        /* \"#utility.yul\":4673:4680   */\n      dup10\n        /* \"#utility.yul\":4664:4670   */\n      dup3\n        /* \"#utility.yul\":4653:4662   */\n      dup11\n        /* \"#utility.yul\":4649:4671   */\n      add\n        /* \"#utility.yul\":4628:4681   */\n      tag_586\n      jump\t// in\n    tag_613:\n        /* \"#utility.yul\":4618:4681   */\n      swap2\n      pop\n        /* \"#utility.yul\":4572:4691   */\n      pop\n        /* \"#utility.yul\":3281:4698   */\n      swap3\n      swap6\n      pop\n      swap3\n      swap6\n      pop\n      swap3\n      swap6\n      jump\t// out\n        /* \"#utility.yul\":4704:6239   */\n    tag_76:\n        /* \"#utility.yul\":4855:4861   */\n      0x00\n        /* \"#utility.yul\":4863:4869   */\n      dup1\n        /* \"#utility.yul\":4871:4877   */\n      0x00\n        /* \"#utility.yul\":4879:4885   */\n      dup1\n        /* \"#utility.yul\":4928:4931   */\n      0x80\n        /* \"#utility.yul\":4916:4925   */\n      dup6\n        /* \"#utility.yul\":4907:4914   */\n      dup8\n        /* \"#utility.yul\":4903:4926   */\n      sub\n        /* \"#utility.yul\":4899:4932   */\n      slt\n        /* \"#utility.yul\":4896:5016   */\n      iszero\n      tag_615\n      jumpi\n        /* \"#utility.yul\":4935:5014   */\n      tag_616\n      tag_593\n      jump\t// in\n    tag_616:\n        /* \"#utility.yul\":4896:5016   */\n    tag_615:\n        /* \"#utility.yul\":5083:5084   */\n      0x00\n        /* \"#utility.yul\":5072:5081   */\n      dup6\n        /* \"#utility.yul\":5068:5085   */\n      add\n        /* \"#utility.yul\":5055:5086   */\n      calldataload\n        /* \"#utility.yul\":5113:5131   */\n      0xffffffffffffffff\n        /* \"#utility.yul\":5105:5111   */\n      dup2\n        /* \"#utility.yul\":5102:5132   */\n      gt\n        /* \"#utility.yul\":5099:5216   */\n      iszero\n      tag_617\n      jumpi\n        /* \"#utility.yul\":5135:5214   */\n      tag_618\n      tag_605\n      jump\t// in\n    tag_618:\n        /* \"#utility.yul\":5099:5216   */\n    tag_617:\n        /* \"#utility.yul\":5240:5303   */\n      tag_619\n        /* \"#utility.yul\":5295:5302   */\n      dup8\n        /* \"#utility.yul\":5286:5292   */\n      dup3\n        /* \"#utility.yul\":5275:5284   */\n      dup9\n        /* \"#utility.yul\":5271:5293   */\n      add\n        /* \"#utility.yul\":5240:5303   */\n      tag_562\n      jump\t// in\n    tag_619:\n        /* \"#utility.yul\":5230:5303   */\n      swap5\n      pop\n        /* \"#utility.yul\":5026:5313   */\n      pop\n        /* \"#utility.yul\":5380:5382   */\n      0x20\n        /* \"#utility.yul\":5369:5378   */\n      dup6\n        /* \"#utility.yul\":5365:5383   */\n      add\n        /* \"#utility.yul\":5352:5384   */\n      calldataload\n        /* \"#utility.yul\":5411:5429   */\n      0xffffffffffffffff\n        /* \"#utility.yul\":5403:5409   */\n      dup2\n        /* \"#utility.yul\":5400:5430   */\n      gt\n        /* \"#utility.yul\":5397:5514   */\n      iszero\n      tag_620\n      jumpi\n        /* \"#utility.yul\":5433:5512   */\n      tag_621\n      tag_605\n      jump\t// in\n    tag_621:\n        /* \"#utility.yul\":5397:5514   */\n    tag_620:\n        /* \"#utility.yul\":5538:5601   */\n      tag_622\n        /* \"#utility.yul\":5593:5600   */\n      dup8\n        /* \"#utility.yul\":5584:5590   */\n      dup3\n        /* \"#utility.yul\":5573:5582   */\n      dup9\n        /* \"#utility.yul\":5569:5591   */\n      add\n        /* \"#utility.yul\":5538:5601   */\n      tag_562\n      jump\t// in\n    tag_622:\n        /* \"#utility.yul\":5528:5601   */\n      swap4\n      pop\n        /* \"#utility.yul\":5323:5611   */\n      pop\n        /* \"#utility.yul\":5678:5680   */\n      0x40\n        /* \"#utility.yul\":5667:5676   */\n      dup6\n        /* \"#utility.yul\":5663:5681   */\n      add\n        /* \"#utility.yul\":5650:5682   */\n      calldataload\n        /* \"#utility.yul\":5709:5727   */\n      0xffffffffffffffff\n        /* \"#utility.yul\":5701:5707   */\n      dup2\n        /* \"#utility.yul\":5698:5728   */\n      gt\n        /* \"#utility.yul\":5695:5812   */\n      iszero\n      tag_623\n      jumpi\n        /* \"#utility.yul\":5731:5810   */\n      tag_624\n      tag_605\n      jump\t// in\n    tag_624:\n        /* \"#utility.yul\":5695:5812   */\n    tag_623:\n        /* \"#utility.yul\":5836:5899   */\n      tag_625\n        /* \"#utility.yul\":5891:5898   */\n      dup8\n        /* \"#utility.yul\":5882:5888   */\n      dup3\n        /* \"#utility.yul\":5871:5880   */\n      dup9\n        /* \"#utility.yul\":5867:5889   */\n      add\n        /* \"#utility.yul\":5836:5899   */\n      tag_562\n      jump\t// in\n    tag_625:\n        /* \"#utility.yul\":5826:5899   */\n      swap3\n      pop\n        /* \"#utility.yul\":5621:5909   */\n      pop\n        /* \"#utility.yul\":5976:5978   */\n      0x60\n        /* \"#utility.yul\":5965:5974   */\n      dup6\n        /* \"#utility.yul\":5961:5979   */\n      add\n        /* \"#utility.yul\":5948:5980   */\n      calldataload\n        /* \"#utility.yul\":6007:6025   */\n      0xffffffffffffffff\n        /* \"#utility.yul\":5999:6005   */\n      dup2\n        /* \"#utility.yul\":5996:6026   */\n      gt\n        /* \"#utility.yul\":5993:6110   */\n      iszero\n      tag_626\n      jumpi\n        /* \"#utility.yul\":6029:6108   */\n      tag_627\n      tag_605\n      jump\t// in\n    tag_627:\n        /* \"#utility.yul\":5993:6110   */\n    tag_626:\n        /* \"#utility.yul\":6134:6222   */\n      tag_628\n        /* \"#utility.yul\":6214:6221   */\n      dup8\n        /* \"#utility.yul\":6205:6211   */\n      dup3\n        /* \"#utility.yul\":6194:6203   */\n      dup9\n        /* \"#utility.yul\":6190:6212   */\n      add\n        /* \"#utility.yul\":6134:6222   */\n      tag_577\n      jump\t// in\n    tag_628:\n        /* \"#utility.yul\":6124:6222   */\n      swap2\n      pop\n        /* \"#utility.yul\":5919:6232   */\n      pop\n        /* \"#utility.yul\":4704:6239   */\n      swap3\n      swap6\n      swap2\n      swap5\n      pop\n      swap3\n      pop\n      jump\t// out\n        /* \"#utility.yul\":6245:7926   */\n    tag_22:\n        /* \"#utility.yul\":6405:6411   */\n      0x00\n        /* \"#utility.yul\":6413:6419   */\n      dup1\n        /* \"#utility.yul\":6421:6427   */\n      0x00\n        /* \"#utility.yul\":6429:6435   */\n      dup1\n        /* \"#utility.yul\":6437:6443   */\n      0x00\n        /* \"#utility.yul\":6486:6489   */\n      0xa0\n        /* \"#utility.yul\":6474:6483   */\n      dup7\n        /* \"#utility.yul\":6465:6472   */\n      dup9\n        /* \"#utility.yul\":6461:6484   */\n      sub\n        /* \"#utility.yul\":6457:6490   */\n      slt\n        /* \"#utility.yul\":6454:6574   */\n      iszero\n      tag_630\n      jumpi\n        /* \"#utility.yul\":6493:6572   */\n      tag_631\n      tag_593\n      jump\t// in\n    tag_631:\n        /* \"#utility.yul\":6454:6574   */\n    tag_630:\n        /* \"#utility.yul\":6641:6642   */\n      0x00\n        /* \"#utility.yul\":6630:6639   */\n      dup7\n        /* \"#utility.yul\":6626:6643   */\n      add\n        /* \"#utility.yul\":6613:6644   */\n      calldataload\n        /* \"#utility.yul\":6671:6689   */\n      0xffffffffffffffff\n        /* \"#utility.yul\":6663:6669   */\n      dup2\n        /* \"#utility.yul\":6660:6690   */\n      gt\n        /* \"#utility.yul\":6657:6774   */\n      iszero\n      tag_632\n      jumpi\n        /* \"#utility.yul\":6693:6772   */\n      tag_633\n      tag_605\n      jump\t// in\n    tag_633:\n        /* \"#utility.yul\":6657:6774   */\n    tag_632:\n        /* \"#utility.yul\":6798:6861   */\n      tag_634\n        /* \"#utility.yul\":6853:6860   */\n      dup9\n        /* \"#utility.yul\":6844:6850   */\n      dup3\n        /* \"#utility.yul\":6833:6842   */\n      dup10\n        /* \"#utility.yul\":6829:6851   */\n      add\n        /* \"#utility.yul\":6798:6861   */\n      tag_562\n      jump\t// in\n    tag_634:\n        /* \"#utility.yul\":6788:6861   */\n      swap6\n      pop\n        /* \"#utility.yul\":6584:6871   */\n      pop\n        /* \"#utility.yul\":6938:6940   */\n      0x20\n        /* \"#utility.yul\":6927:6936   */\n      dup7\n        /* \"#utility.yul\":6923:6941   */\n      add\n        /* \"#utility.yul\":6910:6942   */\n      calldataload\n        /* \"#utility.yul\":6969:6987   */\n      0xffffffffffffffff\n        /* \"#utility.yul\":6961:6967   */\n      dup2\n        /* \"#utility.yul\":6958:6988   */\n      gt\n        /* \"#utility.yul\":6955:7072   */\n      iszero\n      tag_635\n      jumpi\n        /* \"#utility.yul\":6991:7070   */\n      tag_636\n      tag_605\n      jump\t// in\n    tag_636:\n        /* \"#utility.yul\":6955:7072   */\n    tag_635:\n        /* \"#utility.yul\":7096:7159   */\n      tag_637\n        /* \"#utility.yul\":7151:7158   */\n      dup9\n        /* \"#utility.yul\":7142:7148   */\n      dup3\n        /* \"#utility.yul\":7131:7140   */\n      dup10\n        /* \"#utility.yul\":7127:7149   */\n      add\n        /* \"#utility.yul\":7096:7159   */\n      tag_562\n      jump\t// in\n    tag_637:\n        /* \"#utility.yul\":7086:7159   */\n      swap5\n      pop\n        /* \"#utility.yul\":6881:7169   */\n      pop\n        /* \"#utility.yul\":7236:7238   */\n      0x40\n        /* \"#utility.yul\":7225:7234   */\n      dup7\n        /* \"#utility.yul\":7221:7239   */\n      add\n        /* \"#utility.yul\":7208:7240   */\n      calldataload\n        /* \"#utility.yul\":7267:7285   */\n      0xffffffffffffffff\n        /* \"#utility.yul\":7259:7265   */\n      dup2\n        /* \"#utility.yul\":7256:7286   */\n      gt\n        /* \"#utility.yul\":7253:7370   */\n      iszero\n      tag_638\n      jumpi\n        /* \"#utility.yul\":7289:7368   */\n      tag_639\n      tag_605\n      jump\t// in\n    tag_639:\n        /* \"#utility.yul\":7253:7370   */\n    tag_638:\n        /* \"#utility.yul\":7394:7457   */\n      tag_640\n        /* \"#utility.yul\":7449:7456   */\n      dup9\n        /* \"#utility.yul\":7440:7446   */\n      dup3\n        /* \"#utility.yul\":7429:7438   */\n      dup10\n        /* \"#utility.yul\":7425:7447   */\n      add\n        /* \"#utility.yul\":7394:7457   */\n      tag_562\n      jump\t// in\n    tag_640:\n        /* \"#utility.yul\":7384:7457   */\n      swap4\n      pop\n        /* \"#utility.yul\":7179:7467   */\n      pop\n        /* \"#utility.yul\":7534:7536   */\n      0x60\n        /* \"#utility.yul\":7523:7532   */\n      dup7\n        /* \"#utility.yul\":7519:7537   */\n      add\n        /* \"#utility.yul\":7506:7538   */\n      calldataload\n        /* \"#utility.yul\":7565:7583   */\n      0xffffffffffffffff\n        /* \"#utility.yul\":7557:7563   */\n      dup2\n        /* \"#utility.yul\":7554:7584   */\n      gt\n        /* \"#utility.yul\":7551:7668   */\n      iszero\n      tag_641\n      jumpi\n        /* \"#utility.yul\":7587:7666   */\n      tag_642\n      tag_605\n      jump\t// in\n    tag_642:\n        /* \"#utility.yul\":7551:7668   */\n    tag_641:\n        /* \"#utility.yul\":7692:7780   */\n      tag_643\n        /* \"#utility.yul\":7772:7779   */\n      dup9\n        /* \"#utility.yul\":7763:7769   */\n      dup3\n        /* \"#utility.yul\":7752:7761   */\n      dup10\n        /* \"#utility.yul\":7748:7770   */\n      add\n        /* \"#utility.yul\":7692:7780   */\n      tag_577\n      jump\t// in\n    tag_643:\n        /* \"#utility.yul\":7682:7780   */\n      swap3\n      pop\n        /* \"#utility.yul\":7477:7790   */\n      pop\n        /* \"#utility.yul\":7829:7832   */\n      0x80\n        /* \"#utility.yul\":7856:7909   */\n      tag_644\n        /* \"#utility.yul\":7901:7908   */\n      dup9\n        /* \"#utility.yul\":7892:7898   */\n      dup3\n        /* \"#utility.yul\":7881:7890   */\n      dup10\n        /* \"#utility.yul\":7877:7899   */\n      add\n        /* \"#utility.yul\":7856:7909   */\n      tag_586\n      jump\t// in\n    tag_644:\n        /* \"#utility.yul\":7846:7909   */\n      swap2\n      pop\n        /* \"#utility.yul\":7800:7919   */\n      pop\n        /* \"#utility.yul\":6245:7926   */\n      swap3\n      swap6\n      pop\n      swap3\n      swap6\n      swap1\n      swap4\n      pop\n      jump\t// out\n        /* \"#utility.yul\":7932:8261   */\n    tag_65:\n        /* \"#utility.yul\":7991:7997   */\n      0x00\n        /* \"#utility.yul\":8040:8042   */\n      0x20\n        /* \"#utility.yul\":8028:8037   */\n      dup3\n        /* \"#utility.yul\":8019:8026   */\n      dup5\n        /* \"#utility.yul\":8015:8038   */\n      sub\n        /* \"#utility.yul\":8011:8043   */\n      slt\n        /* \"#utility.yul\":8008:8127   */\n      iszero\n      tag_646\n      jumpi\n        /* \"#utility.yul\":8046:8125   */\n      tag_647\n      tag_593\n      jump\t// in\n    tag_647:\n        /* \"#utility.yul\":8008:8127   */\n    tag_646:\n        /* \"#utility.yul\":8166:8167   */\n      0x00\n        /* \"#utility.yul\":8191:8244   */\n      tag_648\n        /* \"#utility.yul\":8236:8243   */\n      dup5\n        /* \"#utility.yul\":8227:8233   */\n      dup3\n        /* \"#utility.yul\":8216:8225   */\n      dup6\n        /* \"#utility.yul\":8212:8234   */\n      add\n        /* \"#utility.yul\":8191:8244   */\n      tag_586\n      jump\t// in\n    tag_648:\n        /* \"#utility.yul\":8181:8244   */\n      swap2\n      pop\n        /* \"#utility.yul\":8137:8254   */\n      pop\n        /* \"#utility.yul\":7932:8261   */\n      swap3\n      swap2\n      pop\n      pop\n      jump\t// out\n        /* \"#utility.yul\":8267:8741   */\n    tag_60:\n        /* \"#utility.yul\":8335:8341   */\n      0x00\n        /* \"#utility.yul\":8343:8349   */\n      dup1\n        /* \"#utility.yul\":8392:8394   */\n      0x40\n        /* \"#utility.yul\":8380:8389   */\n      dup4\n        /* \"#utility.yul\":8371:8378   */\n      dup6\n        /* \"#utility.yul\":8367:8390   */\n      sub\n        /* \"#utility.yul\":8363:8395   */\n      slt\n        /* \"#utility.yul\":8360:8479   */\n      iszero\n      tag_650\n      jumpi\n        /* \"#utility.yul\":8398:8477   */\n      tag_651\n      tag_593\n      jump\t// in\n    tag_651:\n        /* \"#utility.yul\":8360:8479   */\n    tag_650:\n        /* \"#utility.yul\":8518:8519   */\n      0x00\n        /* \"#utility.yul\":8543:8596   */\n      tag_652\n        /* \"#utility.yul\":8588:8595   */\n      dup6\n        /* \"#utility.yul\":8579:8585   */\n      dup3\n        /* \"#utility.yul\":8568:8577   */\n      dup7\n        /* \"#utility.yul\":8564:8586   */\n      add\n        /* \"#utility.yul\":8543:8596   */\n      tag_586\n      jump\t// in\n    tag_652:\n        /* \"#utility.yul\":8533:8596   */\n      swap3\n      pop\n        /* \"#utility.yul\":8489:8606   */\n      pop\n        /* \"#utility.yul\":8645:8647   */\n      0x20\n        /* \"#utility.yul\":8671:8724   */\n      tag_653\n        /* \"#utility.yul\":8716:8723   */\n      dup6\n        /* \"#utility.yul\":8707:8713   */\n      dup3\n        /* \"#utility.yul\":8696:8705   */\n      dup7\n        /* \"#utility.yul\":8692:8714   */\n      add\n        /* \"#utility.yul\":8671:8724   */\n      tag_573\n      jump\t// in\n    tag_653:\n        /* \"#utility.yul\":8661:8724   */\n      swap2\n      pop\n        /* \"#utility.yul\":8616:8734   */\n      pop\n        /* \"#utility.yul\":8267:8741   */\n      swap3\n      pop\n      swap3\n      swap1\n      pop\n      jump\t// out\n        /* \"#utility.yul\":8747:9221   */\n    tag_34:\n        /* \"#utility.yul\":8815:8821   */\n      0x00\n        /* \"#utility.yul\":8823:8829   */\n      dup1\n        /* \"#utility.yul\":8872:8874   */\n      0x40\n        /* \"#utility.yul\":8860:8869   */\n      dup4\n        /* \"#utility.yul\":8851:8858   */\n      dup6\n        /* \"#utility.yul\":8847:8870   */\n      sub\n        /* \"#utility.yul\":8843:8875   */\n      slt\n        /* \"#utility.yul\":8840:8959   */\n      iszero\n      tag_655\n      jumpi\n        /* \"#utility.yul\":8878:8957   */\n      tag_656\n      tag_593\n      jump\t// in\n    tag_656:\n        /* \"#utility.yul\":8840:8959   */\n    tag_655:\n        /* \"#utility.yul\":8998:8999   */\n      0x00\n        /* \"#utility.yul\":9023:9076   */\n      tag_657\n        /* \"#utility.yul\":9068:9075   */\n      dup6\n        /* \"#utility.yul\":9059:9065   */\n      dup3\n        /* \"#utility.yul\":9048:9057   */\n      dup7\n        /* \"#utility.yul\":9044:9066   */\n      add\n        /* \"#utility.yul\":9023:9076   */\n      tag_586\n      jump\t// in\n    tag_657:\n        /* \"#utility.yul\":9013:9076   */\n      swap3\n      pop\n        /* \"#utility.yul\":8969:9086   */\n      pop\n        /* \"#utility.yul\":9125:9127   */\n      0x20\n        /* \"#utility.yul\":9151:9204   */\n      tag_658\n        /* \"#utility.yul\":9196:9203   */\n      dup6\n        /* \"#utility.yul\":9187:9193   */\n      dup3\n        /* \"#utility.yul\":9176:9185   */\n      dup7\n        /* \"#utility.yul\":9172:9194   */\n      add\n        /* \"#utility.yul\":9151:9204   */\n      tag_586\n      jump\t// in\n    tag_658:\n        /* \"#utility.yul\":9141:9204   */\n      swap2\n      pop\n        /* \"#utility.yul\":9096:9214   */\n      pop\n        /* \"#utility.yul\":8747:9221   */\n      swap3\n      pop\n      swap3\n      swap1\n      pop\n      jump\t// out\n        /* \"#utility.yul\":9227:9423   */\n    tag_659:\n        /* \"#utility.yul\":9316:9326   */\n      0x00\n        /* \"#utility.yul\":9351:9417   */\n      tag_661\n        /* \"#utility.yul\":9413:9416   */\n      dup4\n        /* \"#utility.yul\":9405:9411   */\n      dup4\n        /* \"#utility.yul\":9351:9417   */\n      tag_662\n      jump\t// in\n    tag_661:\n        /* \"#utility.yul\":9337:9417   */\n      swap1\n      pop\n        /* \"#utility.yul\":9227:9423   */\n      swap3\n      swap2\n      pop\n      pop\n      jump\t// out\n        /* \"#utility.yul\":9429:9677   */\n    tag_663:\n        /* \"#utility.yul\":9544:9554   */\n      0x00\n        /* \"#utility.yul\":9579:9671   */\n      tag_665\n        /* \"#utility.yul\":9667:9670   */\n      dup4\n        /* \"#utility.yul\":9659:9665   */\n      dup4\n        /* \"#utility.yul\":9579:9671   */\n      tag_666\n      jump\t// in\n    tag_665:\n        /* \"#utility.yul\":9565:9671   */\n      swap1\n      pop\n        /* \"#utility.yul\":9429:9677   */\n      swap3\n      swap2\n      pop\n      pop\n      jump\t// out\n        /* \"#utility.yul\":9683:9998   */\n    tag_667:\n        /* \"#utility.yul\":9820:9830   */\n      0x00\n        /* \"#utility.yul\":9841:9955   */\n      tag_669\n        /* \"#utility.yul\":9951:9954   */\n      dup4\n        /* \"#utility.yul\":9943:9949   */\n      dup4\n        /* \"#utility.yul\":9841:9955   */\n      tag_670\n      jump\t// in\n    tag_669:\n        /* \"#utility.yul\":9987:9991   */\n      0xa0\n        /* \"#utility.yul\":9982:9985   */\n      dup4\n        /* \"#utility.yul\":9978:9992   */\n      add\n        /* \"#utility.yul\":9964:9992   */\n      swap1\n      pop\n        /* \"#utility.yul\":9683:9998   */\n      swap3\n      swap2\n      pop\n      pop\n      jump\t// out\n        /* \"#utility.yul\":10004:10112   */\n    tag_671:\n        /* \"#utility.yul\":10081:10105   */\n      tag_673\n        /* \"#utility.yul\":10099:10104   */\n      dup2\n        /* \"#utility.yul\":10081:10105   */\n      tag_674\n      jump\t// in\n    tag_673:\n        /* \"#utility.yul\":10076:10079   */\n      dup3\n        /* \"#utility.yul\":10069:10106   */\n      mstore\n        /* \"#utility.yul\":10004:10112   */\n      pop\n      pop\n      jump\t// out\n        /* \"#utility.yul\":10118:10236   */\n    tag_675:\n        /* \"#utility.yul\":10205:10229   */\n      tag_677\n        /* \"#utility.yul\":10223:10228   */\n      dup2\n        /* \"#utility.yul\":10205:10229   */\n      tag_674\n      jump\t// in\n    tag_677:\n        /* \"#utility.yul\":10200:10203   */\n      dup3\n        /* \"#utility.yul\":10193:10230   */\n      mstore\n        /* \"#utility.yul\":10118:10236   */\n      pop\n      pop\n      jump\t// out\n        /* \"#utility.yul\":10270:11241   */\n    tag_678:\n        /* \"#utility.yul\":10399:10402   */\n      0x00\n        /* \"#utility.yul\":10428:10492   */\n      tag_680\n        /* \"#utility.yul\":10486:10491   */\n      dup3\n        /* \"#utility.yul\":10428:10492   */\n      tag_681\n      jump\t// in\n    tag_680:\n        /* \"#utility.yul\":10508:10594   */\n      tag_682\n        /* \"#utility.yul\":10587:10593   */\n      dup2\n        /* \"#utility.yul\":10582:10585   */\n      dup6\n        /* \"#utility.yul\":10508:10594   */\n      tag_683\n      jump\t// in\n    tag_682:\n        /* \"#utility.yul\":10501:10594   */\n      swap4\n      pop\n        /* \"#utility.yul\":10620:10623   */\n      dup4\n        /* \"#utility.yul\":10665:10669   */\n      0x20\n        /* \"#utility.yul\":10657:10663   */\n      dup3\n        /* \"#utility.yul\":10653:10670   */\n      mul\n        /* \"#utility.yul\":10648:10651   */\n      dup6\n        /* \"#utility.yul\":10644:10671   */\n      add\n        /* \"#utility.yul\":10695:10761   */\n      tag_684\n        /* \"#utility.yul\":10755:10760   */\n      dup6\n        /* \"#utility.yul\":10695:10761   */\n      tag_685\n      jump\t// in\n    tag_684:\n        /* \"#utility.yul\":10784:10791   */\n      dup1\n        /* \"#utility.yul\":10815:10816   */\n      0x00\n        /* \"#utility.yul\":10800:11196   */\n    tag_686:\n        /* \"#utility.yul\":10825:10831   */\n      dup6\n        /* \"#utility.yul\":10822:10823   */\n      dup2\n        /* \"#utility.yul\":10819:10832   */\n      lt\n        /* \"#utility.yul\":10800:11196   */\n      iszero\n      tag_688\n      jumpi\n        /* \"#utility.yul\":10896:10905   */\n      dup5\n        /* \"#utility.yul\":10890:10894   */\n      dup5\n        /* \"#utility.yul\":10886:10906   */\n      sub\n        /* \"#utility.yul\":10881:10884   */\n      dup10\n        /* \"#utility.yul\":10874:10907   */\n      mstore\n        /* \"#utility.yul\":10947:10953   */\n      dup2\n        /* \"#utility.yul\":10941:10954   */\n      mload\n        /* \"#utility.yul\":10975:11059   */\n      tag_689\n        /* \"#utility.yul\":11054:11058   */\n      dup6\n        /* \"#utility.yul\":11039:11052   */\n      dup3\n        /* \"#utility.yul\":10975:11059   */\n      tag_659\n      jump\t// in\n    tag_689:\n        /* \"#utility.yul\":10967:11059   */\n      swap5\n      pop\n        /* \"#utility.yul\":11082:11152   */\n      tag_690\n        /* \"#utility.yul\":11145:11151   */\n      dup4\n        /* \"#utility.yul\":11082:11152   */\n      tag_691\n      jump\t// in\n    tag_690:\n        /* \"#utility.yul\":11072:11152   */\n      swap3\n      pop\n        /* \"#utility.yul\":11181:11185   */\n      0x20\n        /* \"#utility.yul\":11176:11179   */\n      dup11\n        /* \"#utility.yul\":11172:11186   */\n      add\n        /* \"#utility.yul\":11165:11186   */\n      swap10\n      pop\n        /* \"#utility.yul\":10860:11196   */\n      pop\n        /* \"#utility.yul\":10847:10848   */\n      0x01\n        /* \"#utility.yul\":10844:10845   */\n      dup2\n        /* \"#utility.yul\":10840:10849   */\n      add\n        /* \"#utility.yul\":10835:10849   */\n      swap1\n      pop\n        /* \"#utility.yul\":10800:11196   */\n      jump(tag_686)\n    tag_688:\n        /* \"#utility.yul\":10804:10818   */\n      pop\n        /* \"#utility.yul\":11212:11216   */\n      dup3\n        /* \"#utility.yul\":11205:11216   */\n      swap8\n      pop\n        /* \"#utility.yul\":11232:11235   */\n      dup8\n        /* \"#utility.yul\":11225:11235   */\n      swap6\n      pop\n        /* \"#utility.yul\":10404:11241   */\n      pop\n      pop\n      pop\n      pop\n      pop\n        /* \"#utility.yul\":10270:11241   */\n      swap3\n      swap2\n      pop\n      pop\n      jump\t// out\n        /* \"#utility.yul\":11315:12410   */\n    tag_692:\n        /* \"#utility.yul\":11480:11483   */\n      0x00\n        /* \"#utility.yul\":11509:11586   */\n      tag_694\n        /* \"#utility.yul\":11580:11585   */\n      dup3\n        /* \"#utility.yul\":11509:11586   */\n      tag_695\n      jump\t// in\n    tag_694:\n        /* \"#utility.yul\":11602:11711   */\n      tag_696\n        /* \"#utility.yul\":11704:11710   */\n      dup2\n        /* \"#utility.yul\":11699:11702   */\n      dup6\n        /* \"#utility.yul\":11602:11711   */\n      tag_697\n      jump\t// in\n    tag_696:\n        /* \"#utility.yul\":11595:11711   */\n      swap4\n      pop\n        /* \"#utility.yul\":11737:11740   */\n      dup4\n        /* \"#utility.yul\":11782:11786   */\n      0x20\n        /* \"#utility.yul\":11774:11780   */\n      dup3\n        /* \"#utility.yul\":11770:11787   */\n      mul\n        /* \"#utility.yul\":11765:11768   */\n      dup6\n        /* \"#utility.yul\":11761:11788   */\n      add\n        /* \"#utility.yul\":11812:11891   */\n      tag_698\n        /* \"#utility.yul\":11885:11890   */\n      dup6\n        /* \"#utility.yul\":11812:11891   */\n      tag_699\n      jump\t// in\n    tag_698:\n        /* \"#utility.yul\":11914:11921   */\n      dup1\n        /* \"#utility.yul\":11945:11946   */\n      0x00\n        /* \"#utility.yul\":11930:12365   */\n    tag_700:\n        /* \"#utility.yul\":11955:11961   */\n      dup6\n        /* \"#utility.yul\":11952:11953   */\n      dup2\n        /* \"#utility.yul\":11949:11962   */\n      lt\n        /* \"#utility.yul\":11930:12365   */\n      iszero\n      tag_702\n      jumpi\n        /* \"#utility.yul\":12026:12035   */\n      dup5\n        /* \"#utility.yul\":12020:12024   */\n      dup5\n        /* \"#utility.yul\":12016:12036   */\n      sub\n        /* \"#utility.yul\":12011:12014   */\n      dup10\n        /* \"#utility.yul\":12004:12037   */\n      mstore\n        /* \"#utility.yul\":12077:12083   */\n      dup2\n        /* \"#utility.yul\":12071:12084   */\n      mload\n        /* \"#utility.yul\":12105:12215   */\n      tag_703\n        /* \"#utility.yul\":12210:12214   */\n      dup6\n        /* \"#utility.yul\":12195:12208   */\n      dup3\n        /* \"#utility.yul\":12105:12215   */\n      tag_663\n      jump\t// in\n    tag_703:\n        /* \"#utility.yul\":12097:12215   */\n      swap5\n      pop\n        /* \"#utility.yul\":12238:12321   */\n      tag_704\n        /* \"#utility.yul\":12314:12320   */\n      dup4\n        /* \"#utility.yul\":12238:12321   */\n      tag_705\n      jump\t// in\n    tag_704:\n        /* \"#utility.yul\":12228:12321   */\n      swap3\n      pop\n        /* \"#utility.yul\":12350:12354   */\n      0x20\n        /* \"#utility.yul\":12345:12348   */\n      dup11\n        /* \"#utility.yul\":12341:12355   */\n      add\n        /* \"#utility.yul\":12334:12355   */\n      swap10\n      pop\n        /* \"#utility.yul\":11990:12365   */\n      pop\n        /* \"#utility.yul\":11977:11978   */\n      0x01\n        /* \"#utility.yul\":11974:11975   */\n      dup2\n        /* \"#utility.yul\":11970:11979   */\n      add\n        /* \"#utility.yul\":11965:11979   */\n      swap1\n      pop\n        /* \"#utility.yul\":11930:12365   */\n      jump(tag_700)\n    tag_702:\n        /* \"#utility.yul\":11934:11948   */\n      pop\n        /* \"#utility.yul\":12381:12385   */\n      dup3\n        /* \"#utility.yul\":12374:12385   */\n      swap8\n      pop\n        /* \"#utility.yul\":12401:12404   */\n      dup8\n        /* \"#utility.yul\":12394:12404   */\n      swap6\n      pop\n        /* \"#utility.yul\":11485:12410   */\n      pop\n      pop\n      pop\n      pop\n      pop\n        /* \"#utility.yul\":11315:12410   */\n      swap3\n      swap2\n      pop\n      pop\n      jump\t// out\n        /* \"#utility.yul\":12506:13510   */\n    tag_706:\n        /* \"#utility.yul\":12693:12696   */\n      0x00\n        /* \"#utility.yul\":12722:12810   */\n      tag_708\n        /* \"#utility.yul\":12804:12809   */\n      dup3\n        /* \"#utility.yul\":12722:12810   */\n      tag_709\n      jump\t// in\n    tag_708:\n        /* \"#utility.yul\":12826:12946   */\n      tag_710\n        /* \"#utility.yul\":12939:12945   */\n      dup2\n        /* \"#utility.yul\":12934:12937   */\n      dup6\n        /* \"#utility.yul\":12826:12946   */\n      tag_711\n      jump\t// in\n    tag_710:\n        /* \"#utility.yul\":12819:12946   */\n      swap4\n      pop\n        /* \"#utility.yul\":12970:13060   */\n      tag_712\n        /* \"#utility.yul\":13054:13059   */\n      dup4\n        /* \"#utility.yul\":12970:13060   */\n      tag_713\n      jump\t// in\n    tag_712:\n        /* \"#utility.yul\":13083:13090   */\n      dup1\n        /* \"#utility.yul\":13114:13115   */\n      0x00\n        /* \"#utility.yul\":13099:13485   */\n    tag_714:\n        /* \"#utility.yul\":13124:13130   */\n      dup4\n        /* \"#utility.yul\":13121:13122   */\n      dup2\n        /* \"#utility.yul\":13118:13131   */\n      lt\n        /* \"#utility.yul\":13099:13485   */\n      iszero\n      tag_716\n      jumpi\n        /* \"#utility.yul\":13200:13206   */\n      dup2\n        /* \"#utility.yul\":13194:13207   */\n      mload\n        /* \"#utility.yul\":13227:13358   */\n      tag_717\n        /* \"#utility.yul\":13354:13357   */\n      dup9\n        /* \"#utility.yul\":13339:13352   */\n      dup3\n        /* \"#utility.yul\":13227:13358   */\n      tag_667\n      jump\t// in\n    tag_717:\n        /* \"#utility.yul\":13220:13358   */\n      swap8\n      pop\n        /* \"#utility.yul\":13381:13475   */\n      tag_718\n        /* \"#utility.yul\":13468:13474   */\n      dup4\n        /* \"#utility.yul\":13381:13475   */\n      tag_719\n      jump\t// in\n    tag_718:\n        /* \"#utility.yul\":13371:13475   */\n      swap3\n      pop\n        /* \"#utility.yul\":13159:13485   */\n      pop\n        /* \"#utility.yul\":13146:13147   */\n      0x01\n        /* \"#utility.yul\":13143:13144   */\n      dup2\n        /* \"#utility.yul\":13139:13148   */\n      add\n        /* \"#utility.yul\":13134:13148   */\n      swap1\n      pop\n        /* \"#utility.yul\":13099:13485   */\n      jump(tag_714)\n    tag_716:\n        /* \"#utility.yul\":13103:13117   */\n      pop\n        /* \"#utility.yul\":13501:13504   */\n      dup6\n        /* \"#utility.yul\":13494:13504   */\n      swap4\n      pop\n        /* \"#utility.yul\":12698:13510   */\n      pop\n      pop\n      pop\n        /* \"#utility.yul\":12506:13510   */\n      swap3\n      swap2\n      pop\n      pop\n      jump\t// out\n        /* \"#utility.yul\":13516:13615   */\n    tag_720:\n        /* \"#utility.yul\":13587:13608   */\n      tag_722\n        /* \"#utility.yul\":13602:13607   */\n      dup2\n        /* \"#utility.yul\":13587:13608   */\n      tag_723\n      jump\t// in\n    tag_722:\n        /* \"#utility.yul\":13582:13585   */\n      dup3\n        /* \"#utility.yul\":13575:13609   */\n      mstore\n        /* \"#utility.yul\":13516:13615   */\n      pop\n      pop\n      jump\t// out\n        /* \"#utility.yul\":13621:13965   */\n    tag_662:\n        /* \"#utility.yul\":13699:13702   */\n      0x00\n        /* \"#utility.yul\":13727:13766   */\n      tag_725\n        /* \"#utility.yul\":13760:13765   */\n      dup3\n        /* \"#utility.yul\":13727:13766   */\n      tag_726\n      jump\t// in\n    tag_725:\n        /* \"#utility.yul\":13782:13843   */\n      tag_727\n        /* \"#utility.yul\":13836:13842   */\n      dup2\n        /* \"#utility.yul\":13831:13834   */\n      dup6\n        /* \"#utility.yul\":13782:13843   */\n      tag_728\n      jump\t// in\n    tag_727:\n        /* \"#utility.yul\":13775:13843   */\n      swap4\n      pop\n        /* \"#utility.yul\":13852:13904   */\n      tag_729\n        /* \"#utility.yul\":13897:13903   */\n      dup2\n        /* \"#utility.yul\":13892:13895   */\n      dup6\n        /* \"#utility.yul\":13885:13889   */\n      0x20\n        /* \"#utility.yul\":13878:13883   */\n      dup7\n        /* \"#utility.yul\":13874:13890   */\n      add\n        /* \"#utility.yul\":13852:13904   */\n      tag_730\n      jump\t// in\n    tag_729:\n        /* \"#utility.yul\":13929:13958   */\n      tag_731\n        /* \"#utility.yul\":13951:13957   */\n      dup2\n        /* \"#utility.yul\":13929:13958   */\n      tag_732\n      jump\t// in\n    tag_731:\n        /* \"#utility.yul\":13924:13927   */\n      dup5\n        /* \"#utility.yul\":13920:13959   */\n      add\n        /* \"#utility.yul\":13913:13959   */\n      swap2\n      pop\n        /* \"#utility.yul\":13703:13965   */\n      pop\n        /* \"#utility.yul\":13621:13965   */\n      swap3\n      swap2\n      pop\n      pop\n      jump\t// out\n        /* \"#utility.yul\":13971:14348   */\n    tag_733:\n        /* \"#utility.yul\":14077:14080   */\n      0x00\n        /* \"#utility.yul\":14105:14144   */\n      tag_735\n        /* \"#utility.yul\":14138:14143   */\n      dup3\n        /* \"#utility.yul\":14105:14144   */\n      tag_726\n      jump\t// in\n    tag_735:\n        /* \"#utility.yul\":14160:14249   */\n      tag_736\n        /* \"#utility.yul\":14242:14248   */\n      dup2\n        /* \"#utility.yul\":14237:14240   */\n      dup6\n        /* \"#utility.yul\":14160:14249   */\n      tag_737\n      jump\t// in\n    tag_736:\n        /* \"#utility.yul\":14153:14249   */\n      swap4\n      pop\n        /* \"#utility.yul\":14258:14310   */\n      tag_738\n        /* \"#utility.yul\":14303:14309   */\n      dup2\n        /* \"#utility.yul\":14298:14301   */\n      dup6\n        /* \"#utility.yul\":14291:14295   */\n      0x20\n        /* \"#utility.yul\":14284:14289   */\n      dup7\n        /* \"#utility.yul\":14280:14296   */\n      add\n        /* \"#utility.yul\":14258:14310   */\n      tag_730\n      jump\t// in\n    tag_738:\n        /* \"#utility.yul\":14335:14341   */\n      dup1\n        /* \"#utility.yul\":14330:14333   */\n      dup5\n        /* \"#utility.yul\":14326:14342   */\n      add\n        /* \"#utility.yul\":14319:14342   */\n      swap2\n      pop\n        /* \"#utility.yul\":14081:14348   */\n      pop\n        /* \"#utility.yul\":13971:14348   */\n      swap3\n      swap2\n      pop\n      pop\n      jump\t// out\n        /* \"#utility.yul\":14354:14720   */\n    tag_739:\n        /* \"#utility.yul\":14496:14499   */\n      0x00\n        /* \"#utility.yul\":14517:14584   */\n      tag_741\n        /* \"#utility.yul\":14581:14583   */\n      0x26\n        /* \"#utility.yul\":14576:14579   */\n      dup4\n        /* \"#utility.yul\":14517:14584   */\n      tag_742\n      jump\t// in\n    tag_741:\n        /* \"#utility.yul\":14510:14584   */\n      swap2\n      pop\n        /* \"#utility.yul\":14593:14686   */\n      tag_743\n        /* \"#utility.yul\":14682:14685   */\n      dup3\n        /* \"#utility.yul\":14593:14686   */\n      tag_744\n      jump\t// in\n    tag_743:\n        /* \"#utility.yul\":14711:14713   */\n      0x40\n        /* \"#utility.yul\":14706:14709   */\n      dup3\n        /* \"#utility.yul\":14702:14714   */\n      add\n        /* \"#utility.yul\":14695:14714   */\n      swap1\n      pop\n        /* \"#utility.yul\":14354:14720   */\n      swap2\n      swap1\n      pop\n      jump\t// out\n        /* \"#utility.yul\":14726:15092   */\n    tag_745:\n        /* \"#utility.yul\":14868:14871   */\n      0x00\n        /* \"#utility.yul\":14889:14956   */\n      tag_747\n        /* \"#utility.yul\":14953:14955   */\n      0x33\n        /* \"#utility.yul\":14948:14951   */\n      dup4\n        /* \"#utility.yul\":14889:14956   */\n      tag_742\n      jump\t// in\n    tag_747:\n        /* \"#utility.yul\":14882:14956   */\n      swap2\n      pop\n        /* \"#utility.yul\":14965:15058   */\n      tag_748\n        /* \"#utility.yul\":15054:15057   */\n      dup3\n        /* \"#utility.yul\":14965:15058   */\n      tag_749\n      jump\t// in\n    tag_748:\n        /* \"#utility.yul\":15083:15085   */\n      0x40\n        /* \"#utility.yul\":15078:15081   */\n      dup3\n        /* \"#utility.yul\":15074:15086   */\n      add\n        /* \"#utility.yul\":15067:15086   */\n      swap1\n      pop\n        /* \"#utility.yul\":14726:15092   */\n      swap2\n      swap1\n      pop\n      jump\t// out\n        /* \"#utility.yul\":15098:15464   */\n    tag_750:\n        /* \"#utility.yul\":15240:15243   */\n      0x00\n        /* \"#utility.yul\":15261:15328   */\n      tag_752\n        /* \"#utility.yul\":15325:15327   */\n      0x13\n        /* \"#utility.yul\":15320:15323   */\n      dup4\n        /* \"#utility.yul\":15261:15328   */\n      tag_742\n      jump\t// in\n    tag_752:\n        /* \"#utility.yul\":15254:15328   */\n      swap2\n      pop\n        /* \"#utility.yul\":15337:15430   */\n      tag_753\n        /* \"#utility.yul\":15426:15429   */\n      dup3\n        /* \"#utility.yul\":15337:15430   */\n      tag_754\n      jump\t// in\n    tag_753:\n        /* \"#utility.yul\":15455:15457   */\n      0x20\n        /* \"#utility.yul\":15450:15453   */\n      dup3\n        /* \"#utility.yul\":15446:15458   */\n      add\n        /* \"#utility.yul\":15439:15458   */\n      swap1\n      pop\n        /* \"#utility.yul\":15098:15464   */\n      swap2\n      swap1\n      pop\n      jump\t// out\n        /* \"#utility.yul\":15470:15836   */\n    tag_755:\n        /* \"#utility.yul\":15612:15615   */\n      0x00\n        /* \"#utility.yul\":15633:15700   */\n      tag_757\n        /* \"#utility.yul\":15697:15699   */\n      0x20\n        /* \"#utility.yul\":15692:15695   */\n      dup4\n        /* \"#utility.yul\":15633:15700   */\n      tag_742\n      jump\t// in\n    tag_757:\n        /* \"#utility.yul\":15626:15700   */\n      swap2\n      pop\n        /* \"#utility.yul\":15709:15802   */\n      tag_758\n        /* \"#utility.yul\":15798:15801   */\n      dup3\n        /* \"#utility.yul\":15709:15802   */\n      tag_759\n      jump\t// in\n    tag_758:\n        /* \"#utility.yul\":15827:15829   */\n      0x20\n        /* \"#utility.yul\":15822:15825   */\n      dup3\n        /* \"#utility.yul\":15818:15830   */\n      add\n        /* \"#utility.yul\":15811:15830   */\n      swap1\n      pop\n        /* \"#utility.yul\":15470:15836   */\n      swap2\n      swap1\n      pop\n      jump\t// out\n        /* \"#utility.yul\":15842:16208   */\n    tag_760:\n        /* \"#utility.yul\":15984:15987   */\n      0x00\n        /* \"#utility.yul\":16005:16072   */\n      tag_762\n        /* \"#utility.yul\":16069:16071   */\n      0x27\n        /* \"#utility.yul\":16064:16067   */\n      dup4\n        /* \"#utility.yul\":16005:16072   */\n      tag_742\n      jump\t// in\n    tag_762:\n        /* \"#utility.yul\":15998:16072   */\n      swap2\n      pop\n        /* \"#utility.yul\":16081:16174   */\n      tag_763\n        /* \"#utility.yul\":16170:16173   */\n      dup3\n        /* \"#utility.yul\":16081:16174   */\n      tag_764\n      jump\t// in\n    tag_763:\n        /* \"#utility.yul\":16199:16201   */\n      0x40\n        /* \"#utility.yul\":16194:16197   */\n      dup3\n        /* \"#utility.yul\":16190:16202   */\n      add\n        /* \"#utility.yul\":16183:16202   */\n      swap1\n      pop\n        /* \"#utility.yul\":15842:16208   */\n      swap2\n      swap1\n      pop\n      jump\t// out\n        /* \"#utility.yul\":16214:16612   */\n    tag_765:\n        /* \"#utility.yul\":16373:16376   */\n      0x00\n        /* \"#utility.yul\":16394:16477   */\n      tag_767\n        /* \"#utility.yul\":16475:16476   */\n      0x00\n        /* \"#utility.yul\":16470:16473   */\n      dup4\n        /* \"#utility.yul\":16394:16477   */\n      tag_768\n      jump\t// in\n    tag_767:\n        /* \"#utility.yul\":16387:16477   */\n      swap2\n      pop\n        /* \"#utility.yul\":16486:16579   */\n      tag_769\n        /* \"#utility.yul\":16575:16578   */\n      dup3\n        /* \"#utility.yul\":16486:16579   */\n      tag_770\n      jump\t// in\n    tag_769:\n        /* \"#utility.yul\":16604:16605   */\n      0x00\n        /* \"#utility.yul\":16599:16602   */\n      dup3\n        /* \"#utility.yul\":16595:16606   */\n      add\n        /* \"#utility.yul\":16588:16606   */\n      swap1\n      pop\n        /* \"#utility.yul\":16214:16612   */\n      swap2\n      swap1\n      pop\n      jump\t// out\n        /* \"#utility.yul\":16618:17018   */\n    tag_771:\n        /* \"#utility.yul\":16778:16781   */\n      0x00\n        /* \"#utility.yul\":16799:16883   */\n      tag_773\n        /* \"#utility.yul\":16881:16882   */\n      0x00\n        /* \"#utility.yul\":16876:16879   */\n      dup4\n        /* \"#utility.yul\":16799:16883   */\n      tag_737\n      jump\t// in\n    tag_773:\n        /* \"#utility.yul\":16792:16883   */\n      swap2\n      pop\n        /* \"#utility.yul\":16892:16985   */\n      tag_774\n        /* \"#utility.yul\":16981:16984   */\n      dup3\n        /* \"#utility.yul\":16892:16985   */\n      tag_770\n      jump\t// in\n    tag_774:\n        /* \"#utility.yul\":17010:17011   */\n      0x00\n        /* \"#utility.yul\":17005:17008   */\n      dup3\n        /* \"#utility.yul\":17001:17012   */\n      add\n        /* \"#utility.yul\":16994:17012   */\n      swap1\n      pop\n        /* \"#utility.yul\":16618:17018   */\n      swap2\n      swap1\n      pop\n      jump\t// out\n        /* \"#utility.yul\":17024:17390   */\n    tag_775:\n        /* \"#utility.yul\":17166:17169   */\n      0x00\n        /* \"#utility.yul\":17187:17254   */\n      tag_777\n        /* \"#utility.yul\":17251:17253   */\n      0x14\n        /* \"#utility.yul\":17246:17249   */\n      dup4\n        /* \"#utility.yul\":17187:17254   */\n      tag_742\n      jump\t// in\n    tag_777:\n        /* \"#utility.yul\":17180:17254   */\n      swap2\n      pop\n        /* \"#utility.yul\":17263:17356   */\n      tag_778\n        /* \"#utility.yul\":17352:17355   */\n      dup3\n        /* \"#utility.yul\":17263:17356   */\n      tag_779\n      jump\t// in\n    tag_778:\n        /* \"#utility.yul\":17381:17383   */\n      0x20\n        /* \"#utility.yul\":17376:17379   */\n      dup3\n        /* \"#utility.yul\":17372:17384   */\n      add\n        /* \"#utility.yul\":17365:17384   */\n      swap1\n      pop\n        /* \"#utility.yul\":17024:17390   */\n      swap2\n      swap1\n      pop\n      jump\t// out\n        /* \"#utility.yul\":17460:19188   */\n    tag_666:\n        /* \"#utility.yul\":17565:17568   */\n      0x00\n        /* \"#utility.yul\":17601:17605   */\n      0xe0\n        /* \"#utility.yul\":17596:17599   */\n      dup4\n        /* \"#utility.yul\":17592:17606   */\n      add\n        /* \"#utility.yul\":17686:17690   */\n      0x00\n        /* \"#utility.yul\":17679:17684   */\n      dup4\n        /* \"#utility.yul\":17675:17691   */\n      add\n        /* \"#utility.yul\":17669:17692   */\n      mload\n        /* \"#utility.yul\":17705:17768   */\n      tag_781\n        /* \"#utility.yul\":17762:17766   */\n      0x00\n        /* \"#utility.yul\":17757:17760   */\n      dup7\n        /* \"#utility.yul\":17753:17767   */\n      add\n        /* \"#utility.yul\":17739:17751   */\n      dup3\n        /* \"#utility.yul\":17705:17768   */\n      tag_782\n      jump\t// in\n    tag_781:\n        /* \"#utility.yul\":17616:17778   */\n      pop\n        /* \"#utility.yul\":17861:17865   */\n      0x20\n        /* \"#utility.yul\":17854:17859   */\n      dup4\n        /* \"#utility.yul\":17850:17866   */\n      add\n        /* \"#utility.yul\":17844:17867   */\n      mload\n        /* \"#utility.yul\":17880:17943   */\n      tag_783\n        /* \"#utility.yul\":17937:17941   */\n      0x20\n        /* \"#utility.yul\":17932:17935   */\n      dup7\n        /* \"#utility.yul\":17928:17942   */\n      add\n        /* \"#utility.yul\":17914:17926   */\n      dup3\n        /* \"#utility.yul\":17880:17943   */\n      tag_671\n      jump\t// in\n    tag_783:\n        /* \"#utility.yul\":17788:17953   */\n      pop\n        /* \"#utility.yul\":18035:18039   */\n      0x40\n        /* \"#utility.yul\":18028:18033   */\n      dup4\n        /* \"#utility.yul\":18024:18040   */\n      add\n        /* \"#utility.yul\":18018:18041   */\n      mload\n        /* \"#utility.yul\":18088:18091   */\n      dup5\n        /* \"#utility.yul\":18082:18086   */\n      dup3\n        /* \"#utility.yul\":18078:18092   */\n      sub\n        /* \"#utility.yul\":18071:18075   */\n      0x40\n        /* \"#utility.yul\":18066:18069   */\n      dup7\n        /* \"#utility.yul\":18062:18076   */\n      add\n        /* \"#utility.yul\":18055:18093   */\n      mstore\n        /* \"#utility.yul\":18114:18187   */\n      tag_784\n        /* \"#utility.yul\":18182:18186   */\n      dup3\n        /* \"#utility.yul\":18168:18180   */\n      dup3\n        /* \"#utility.yul\":18114:18187   */\n      tag_662\n      jump\t// in\n    tag_784:\n        /* \"#utility.yul\":18106:18187   */\n      swap2\n      pop\n        /* \"#utility.yul\":17963:18198   */\n      pop\n        /* \"#utility.yul\":18287:18291   */\n      0x60\n        /* \"#utility.yul\":18280:18285   */\n      dup4\n        /* \"#utility.yul\":18276:18292   */\n      add\n        /* \"#utility.yul\":18270:18293   */\n      mload\n        /* \"#utility.yul\":18340:18343   */\n      dup5\n        /* \"#utility.yul\":18334:18338   */\n      dup3\n        /* \"#utility.yul\":18330:18344   */\n      sub\n        /* \"#utility.yul\":18323:18327   */\n      0x60\n        /* \"#utility.yul\":18318:18321   */\n      dup7\n        /* \"#utility.yul\":18314:18328   */\n      add\n        /* \"#utility.yul\":18307:18345   */\n      mstore\n        /* \"#utility.yul\":18366:18439   */\n      tag_785\n        /* \"#utility.yul\":18434:18438   */\n      dup3\n        /* \"#utility.yul\":18420:18432   */\n      dup3\n        /* \"#utility.yul\":18366:18439   */\n      tag_662\n      jump\t// in\n    tag_785:\n        /* \"#utility.yul\":18358:18439   */\n      swap2\n      pop\n        /* \"#utility.yul\":18208:18450   */\n      pop\n        /* \"#utility.yul\":18532:18536   */\n      0x80\n        /* \"#utility.yul\":18525:18530   */\n      dup4\n        /* \"#utility.yul\":18521:18537   */\n      add\n        /* \"#utility.yul\":18515:18538   */\n      mload\n        /* \"#utility.yul\":18585:18588   */\n      dup5\n        /* \"#utility.yul\":18579:18583   */\n      dup3\n        /* \"#utility.yul\":18575:18589   */\n      sub\n        /* \"#utility.yul\":18568:18572   */\n      0x80\n        /* \"#utility.yul\":18563:18566   */\n      dup7\n        /* \"#utility.yul\":18559:18573   */\n      add\n        /* \"#utility.yul\":18552:18590   */\n      mstore\n        /* \"#utility.yul\":18611:18684   */\n      tag_786\n        /* \"#utility.yul\":18679:18683   */\n      dup3\n        /* \"#utility.yul\":18665:18677   */\n      dup3\n        /* \"#utility.yul\":18611:18684   */\n      tag_662\n      jump\t// in\n    tag_786:\n        /* \"#utility.yul\":18603:18684   */\n      swap2\n      pop\n        /* \"#utility.yul\":18460:18695   */\n      pop\n        /* \"#utility.yul\":18777:18781   */\n      0xa0\n        /* \"#utility.yul\":18770:18775   */\n      dup4\n        /* \"#utility.yul\":18766:18782   */\n      add\n        /* \"#utility.yul\":18760:18783   */\n      mload\n        /* \"#utility.yul\":18830:18833   */\n      dup5\n        /* \"#utility.yul\":18824:18828   */\n      dup3\n        /* \"#utility.yul\":18820:18834   */\n      sub\n        /* \"#utility.yul\":18813:18817   */\n      0xa0\n        /* \"#utility.yul\":18808:18811   */\n      dup7\n        /* \"#utility.yul\":18804:18818   */\n      add\n        /* \"#utility.yul\":18797:18835   */\n      mstore\n        /* \"#utility.yul\":18856:18979   */\n      tag_787\n        /* \"#utility.yul\":18974:18978   */\n      dup3\n        /* \"#utility.yul\":18960:18972   */\n      dup3\n        /* \"#utility.yul\":18856:18979   */\n      tag_678\n      jump\t// in\n    tag_787:\n        /* \"#utility.yul\":18848:18979   */\n      swap2\n      pop\n        /* \"#utility.yul\":18705:18990   */\n      pop\n        /* \"#utility.yul\":19075:19079   */\n      0xc0\n        /* \"#utility.yul\":19068:19073   */\n      dup4\n        /* \"#utility.yul\":19064:19080   */\n      add\n        /* \"#utility.yul\":19058:19081   */\n      mload\n        /* \"#utility.yul\":19094:19151   */\n      tag_788\n        /* \"#utility.yul\":19145:19149   */\n      0xc0\n        /* \"#utility.yul\":19140:19143   */\n      dup7\n        /* \"#utility.yul\":19136:19150   */\n      add\n        /* \"#utility.yul\":19122:19134   */\n      dup3\n        /* \"#utility.yul\":19094:19151   */\n      tag_720\n      jump\t// in\n    tag_788:\n        /* \"#utility.yul\":19000:19161   */\n      pop\n        /* \"#utility.yul\":19178:19182   */\n      dup1\n        /* \"#utility.yul\":19171:19182   */\n      swap2\n      pop\n        /* \"#utility.yul\":17570:19188   */\n      pop\n        /* \"#utility.yul\":17460:19188   */\n      swap3\n      swap2\n      pop\n      pop\n      jump\t// out\n        /* \"#utility.yul\":19258:20996   */\n    tag_789:\n        /* \"#utility.yul\":19373:19376   */\n      0x00\n        /* \"#utility.yul\":19409:19413   */\n      0xe0\n        /* \"#utility.yul\":19404:19407   */\n      dup4\n        /* \"#utility.yul\":19400:19414   */\n      add\n        /* \"#utility.yul\":19494:19498   */\n      0x00\n        /* \"#utility.yul\":19487:19492   */\n      dup4\n        /* \"#utility.yul\":19483:19499   */\n      add\n        /* \"#utility.yul\":19477:19500   */\n      mload\n        /* \"#utility.yul\":19513:19576   */\n      tag_791\n        /* \"#utility.yul\":19570:19574   */\n      0x00\n        /* \"#utility.yul\":19565:19568   */\n      dup7\n        /* \"#utility.yul\":19561:19575   */\n      add\n        /* \"#utility.yul\":19547:19559   */\n      dup3\n        /* \"#utility.yul\":19513:19576   */\n      tag_782\n      jump\t// in\n    tag_791:\n        /* \"#utility.yul\":19424:19586   */\n      pop\n        /* \"#utility.yul\":19669:19673   */\n      0x20\n        /* \"#utility.yul\":19662:19667   */\n      dup4\n        /* \"#utility.yul\":19658:19674   */\n      add\n        /* \"#utility.yul\":19652:19675   */\n      mload\n        /* \"#utility.yul\":19688:19751   */\n      tag_792\n        /* \"#utility.yul\":19745:19749   */\n      0x20\n        /* \"#utility.yul\":19740:19743   */\n      dup7\n        /* \"#utility.yul\":19736:19750   */\n      add\n        /* \"#utility.yul\":19722:19734   */\n      dup3\n        /* \"#utility.yul\":19688:19751   */\n      tag_671\n      jump\t// in\n    tag_792:\n        /* \"#utility.yul\":19596:19761   */\n      pop\n        /* \"#utility.yul\":19843:19847   */\n      0x40\n        /* \"#utility.yul\":19836:19841   */\n      dup4\n        /* \"#utility.yul\":19832:19848   */\n      add\n        /* \"#utility.yul\":19826:19849   */\n      mload\n        /* \"#utility.yul\":19896:19899   */\n      dup5\n        /* \"#utility.yul\":19890:19894   */\n      dup3\n        /* \"#utility.yul\":19886:19900   */\n      sub\n        /* \"#utility.yul\":19879:19883   */\n      0x40\n        /* \"#utility.yul\":19874:19877   */\n      dup7\n        /* \"#utility.yul\":19870:19884   */\n      add\n        /* \"#utility.yul\":19863:19901   */\n      mstore\n        /* \"#utility.yul\":19922:19995   */\n      tag_793\n        /* \"#utility.yul\":19990:19994   */\n      dup3\n        /* \"#utility.yul\":19976:19988   */\n      dup3\n        /* \"#utility.yul\":19922:19995   */\n      tag_662\n      jump\t// in\n    tag_793:\n        /* \"#utility.yul\":19914:19995   */\n      swap2\n      pop\n        /* \"#utility.yul\":19771:20006   */\n      pop\n        /* \"#utility.yul\":20095:20099   */\n      0x60\n        /* \"#utility.yul\":20088:20093   */\n      dup4\n        /* \"#utility.yul\":20084:20100   */\n      add\n        /* \"#utility.yul\":20078:20101   */\n      mload\n        /* \"#utility.yul\":20148:20151   */\n      dup5\n        /* \"#utility.yul\":20142:20146   */\n      dup3\n        /* \"#utility.yul\":20138:20152   */\n      sub\n        /* \"#utility.yul\":20131:20135   */\n      0x60\n        /* \"#utility.yul\":20126:20129   */\n      dup7\n        /* \"#utility.yul\":20122:20136   */\n      add\n        /* \"#utility.yul\":20115:20153   */\n      mstore\n        /* \"#utility.yul\":20174:20247   */\n      tag_794\n        /* \"#utility.yul\":20242:20246   */\n      dup3\n        /* \"#utility.yul\":20228:20240   */\n      dup3\n        /* \"#utility.yul\":20174:20247   */\n      tag_662\n      jump\t// in\n    tag_794:\n        /* \"#utility.yul\":20166:20247   */\n      swap2\n      pop\n        /* \"#utility.yul\":20016:20258   */\n      pop\n        /* \"#utility.yul\":20340:20344   */\n      0x80\n        /* \"#utility.yul\":20333:20338   */\n      dup4\n        /* \"#utility.yul\":20329:20345   */\n      add\n        /* \"#utility.yul\":20323:20346   */\n      mload\n        /* \"#utility.yul\":20393:20396   */\n      dup5\n        /* \"#utility.yul\":20387:20391   */\n      dup3\n        /* \"#utility.yul\":20383:20397   */\n      sub\n        /* \"#utility.yul\":20376:20380   */\n      0x80\n        /* \"#utility.yul\":20371:20374   */\n      dup7\n        /* \"#utility.yul\":20367:20381   */\n      add\n        /* \"#utility.yul\":20360:20398   */\n      mstore\n        /* \"#utility.yul\":20419:20492   */\n      tag_795\n        /* \"#utility.yul\":20487:20491   */\n      dup3\n        /* \"#utility.yul\":20473:20485   */\n      dup3\n        /* \"#utility.yul\":20419:20492   */\n      tag_662\n      jump\t// in\n    tag_795:\n        /* \"#utility.yul\":20411:20492   */\n      swap2\n      pop\n        /* \"#utility.yul\":20268:20503   */\n      pop\n        /* \"#utility.yul\":20585:20589   */\n      0xa0\n        /* \"#utility.yul\":20578:20583   */\n      dup4\n        /* \"#utility.yul\":20574:20590   */\n      add\n        /* \"#utility.yul\":20568:20591   */\n      mload\n        /* \"#utility.yul\":20638:20641   */\n      dup5\n        /* \"#utility.yul\":20632:20636   */\n      dup3\n        /* \"#utility.yul\":20628:20642   */\n      sub\n        /* \"#utility.yul\":20621:20625   */\n      0xa0\n        /* \"#utility.yul\":20616:20619   */\n      dup7\n        /* \"#utility.yul\":20612:20626   */\n      add\n        /* \"#utility.yul\":20605:20643   */\n      mstore\n        /* \"#utility.yul\":20664:20787   */\n      tag_796\n        /* \"#utility.yul\":20782:20786   */\n      dup3\n        /* \"#utility.yul\":20768:20780   */\n      dup3\n        /* \"#utility.yul\":20664:20787   */\n      tag_678\n      jump\t// in\n    tag_796:\n        /* \"#utility.yul\":20656:20787   */\n      swap2\n      pop\n        /* \"#utility.yul\":20513:20798   */\n      pop\n        /* \"#utility.yul\":20883:20887   */\n      0xc0\n        /* \"#utility.yul\":20876:20881   */\n      dup4\n        /* \"#utility.yul\":20872:20888   */\n      add\n        /* \"#utility.yul\":20866:20889   */\n      mload\n        /* \"#utility.yul\":20902:20959   */\n      tag_797\n        /* \"#utility.yul\":20953:20957   */\n      0xc0\n        /* \"#utility.yul\":20948:20951   */\n      dup7\n        /* \"#utility.yul\":20944:20958   */\n      add\n        /* \"#utility.yul\":20930:20942   */\n      dup3\n        /* \"#utility.yul\":20902:20959   */\n      tag_720\n      jump\t// in\n    tag_797:\n        /* \"#utility.yul\":20808:20969   */\n      pop\n        /* \"#utility.yul\":20986:20990   */\n      dup1\n        /* \"#utility.yul\":20979:20990   */\n      swap2\n      pop\n        /* \"#utility.yul\":19378:20996   */\n      pop\n        /* \"#utility.yul\":19258:20996   */\n      swap3\n      swap2\n      pop\n      pop\n      jump\t// out\n        /* \"#utility.yul\":21082:22082   */\n    tag_798:\n        /* \"#utility.yul\":21213:21216   */\n      0x00\n        /* \"#utility.yul\":21249:21253   */\n      0x80\n        /* \"#utility.yul\":21244:21247   */\n      dup4\n        /* \"#utility.yul\":21240:21254   */\n      add\n        /* \"#utility.yul\":21337:21341   */\n      0x00\n        /* \"#utility.yul\":21330:21335   */\n      dup4\n        /* \"#utility.yul\":21326:21342   */\n      add\n        /* \"#utility.yul\":21320:21343   */\n      mload\n        /* \"#utility.yul\":21356:21419   */\n      tag_800\n        /* \"#utility.yul\":21413:21417   */\n      0x00\n        /* \"#utility.yul\":21408:21411   */\n      dup7\n        /* \"#utility.yul\":21404:21418   */\n      add\n        /* \"#utility.yul\":21390:21402   */\n      dup3\n        /* \"#utility.yul\":21356:21419   */\n      tag_782\n      jump\t// in\n    tag_800:\n        /* \"#utility.yul\":21264:21429   */\n      pop\n        /* \"#utility.yul\":21511:21515   */\n      0x20\n        /* \"#utility.yul\":21504:21509   */\n      dup4\n        /* \"#utility.yul\":21500:21516   */\n      add\n        /* \"#utility.yul\":21494:21517   */\n      mload\n        /* \"#utility.yul\":21530:21593   */\n      tag_801\n        /* \"#utility.yul\":21587:21591   */\n      0x20\n        /* \"#utility.yul\":21582:21585   */\n      dup7\n        /* \"#utility.yul\":21578:21592   */\n      add\n        /* \"#utility.yul\":21564:21576   */\n      dup3\n        /* \"#utility.yul\":21530:21593   */\n      tag_782\n      jump\t// in\n    tag_801:\n        /* \"#utility.yul\":21439:21603   */\n      pop\n        /* \"#utility.yul\":21689:21693   */\n      0x40\n        /* \"#utility.yul\":21682:21687   */\n      dup4\n        /* \"#utility.yul\":21678:21694   */\n      add\n        /* \"#utility.yul\":21672:21695   */\n      mload\n        /* \"#utility.yul\":21708:21771   */\n      tag_802\n        /* \"#utility.yul\":21765:21769   */\n      0x40\n        /* \"#utility.yul\":21760:21763   */\n      dup7\n        /* \"#utility.yul\":21756:21770   */\n      add\n        /* \"#utility.yul\":21742:21754   */\n      dup3\n        /* \"#utility.yul\":21708:21771   */\n      tag_782\n      jump\t// in\n    tag_802:\n        /* \"#utility.yul\":21613:21781   */\n      pop\n        /* \"#utility.yul\":21866:21870   */\n      0x60\n        /* \"#utility.yul\":21859:21864   */\n      dup4\n        /* \"#utility.yul\":21855:21871   */\n      add\n        /* \"#utility.yul\":21849:21872   */\n      mload\n        /* \"#utility.yul\":21919:21922   */\n      dup5\n        /* \"#utility.yul\":21913:21917   */\n      dup3\n        /* \"#utility.yul\":21909:21923   */\n      sub\n        /* \"#utility.yul\":21902:21906   */\n      0x60\n        /* \"#utility.yul\":21897:21900   */\n      dup7\n        /* \"#utility.yul\":21893:21907   */\n      add\n        /* \"#utility.yul\":21886:21924   */\n      mstore\n        /* \"#utility.yul\":21945:22044   */\n      tag_803\n        /* \"#utility.yul\":22039:22043   */\n      dup3\n        /* \"#utility.yul\":22025:22037   */\n      dup3\n        /* \"#utility.yul\":21945:22044   */\n      tag_666\n      jump\t// in\n    tag_803:\n        /* \"#utility.yul\":21937:22044   */\n      swap2\n      pop\n        /* \"#utility.yul\":21791:22055   */\n      pop\n        /* \"#utility.yul\":22072:22076   */\n      dup1\n        /* \"#utility.yul\":22065:22076   */\n      swap2\n      pop\n        /* \"#utility.yul\":21218:22082   */\n      pop\n        /* \"#utility.yul\":21082:22082   */\n      swap3\n      swap2\n      pop\n      pop\n      jump\t// out\n        /* \"#utility.yul\":22174:23219   */\n    tag_670:\n        /* \"#utility.yul\":22329:22333   */\n      0xa0\n        /* \"#utility.yul\":22324:22327   */\n      dup3\n        /* \"#utility.yul\":22320:22334   */\n      add\n        /* \"#utility.yul\":22417:22421   */\n      0x00\n        /* \"#utility.yul\":22410:22415   */\n      dup3\n        /* \"#utility.yul\":22406:22422   */\n      add\n        /* \"#utility.yul\":22400:22423   */\n      mload\n        /* \"#utility.yul\":22436:22499   */\n      tag_805\n        /* \"#utility.yul\":22493:22497   */\n      0x00\n        /* \"#utility.yul\":22488:22491   */\n      dup6\n        /* \"#utility.yul\":22484:22498   */\n      add\n        /* \"#utility.yul\":22470:22482   */\n      dup3\n        /* \"#utility.yul\":22436:22499   */\n      tag_782\n      jump\t// in\n    tag_805:\n        /* \"#utility.yul\":22344:22509   */\n      pop\n        /* \"#utility.yul\":22591:22595   */\n      0x20\n        /* \"#utility.yul\":22584:22589   */\n      dup3\n        /* \"#utility.yul\":22580:22596   */\n      add\n        /* \"#utility.yul\":22574:22597   */\n      mload\n        /* \"#utility.yul\":22610:22673   */\n      tag_806\n        /* \"#utility.yul\":22667:22671   */\n      0x20\n        /* \"#utility.yul\":22662:22665   */\n      dup6\n        /* \"#utility.yul\":22658:22672   */\n      add\n        /* \"#utility.yul\":22644:22656   */\n      dup3\n        /* \"#utility.yul\":22610:22673   */\n      tag_782\n      jump\t// in\n    tag_806:\n        /* \"#utility.yul\":22519:22683   */\n      pop\n        /* \"#utility.yul\":22769:22773   */\n      0x40\n        /* \"#utility.yul\":22762:22767   */\n      dup3\n        /* \"#utility.yul\":22758:22774   */\n      add\n        /* \"#utility.yul\":22752:22775   */\n      mload\n        /* \"#utility.yul\":22788:22851   */\n      tag_807\n        /* \"#utility.yul\":22845:22849   */\n      0x40\n        /* \"#utility.yul\":22840:22843   */\n      dup6\n        /* \"#utility.yul\":22836:22850   */\n      add\n        /* \"#utility.yul\":22822:22834   */\n      dup3\n        /* \"#utility.yul\":22788:22851   */\n      tag_782\n      jump\t// in\n    tag_807:\n        /* \"#utility.yul\":22693:22861   */\n      pop\n        /* \"#utility.yul\":22945:22949   */\n      0x60\n        /* \"#utility.yul\":22938:22943   */\n      dup3\n        /* \"#utility.yul\":22934:22950   */\n      add\n        /* \"#utility.yul\":22928:22951   */\n      mload\n        /* \"#utility.yul\":22964:23027   */\n      tag_808\n        /* \"#utility.yul\":23021:23025   */\n      0x60\n        /* \"#utility.yul\":23016:23019   */\n      dup6\n        /* \"#utility.yul\":23012:23026   */\n      add\n        /* \"#utility.yul\":22998:23010   */\n      dup3\n        /* \"#utility.yul\":22964:23027   */\n      tag_671\n      jump\t// in\n    tag_808:\n        /* \"#utility.yul\":22871:23037   */\n      pop\n        /* \"#utility.yul\":23120:23124   */\n      0x80\n        /* \"#utility.yul\":23113:23118   */\n      dup3\n        /* \"#utility.yul\":23109:23125   */\n      add\n        /* \"#utility.yul\":23103:23126   */\n      mload\n        /* \"#utility.yul\":23139:23202   */\n      tag_809\n        /* \"#utility.yul\":23196:23200   */\n      0x80\n        /* \"#utility.yul\":23191:23194   */\n      dup6\n        /* \"#utility.yul\":23187:23201   */\n      add\n        /* \"#utility.yul\":23173:23185   */\n      dup3\n        /* \"#utility.yul\":23139:23202   */\n      tag_671\n      jump\t// in\n    tag_809:\n        /* \"#utility.yul\":23047:23212   */\n      pop\n        /* \"#utility.yul\":22298:23219   */\n      pop\n        /* \"#utility.yul\":22174:23219   */\n      pop\n      pop\n      jump\t// out\n        /* \"#utility.yul\":23225:23333   */\n    tag_782:\n        /* \"#utility.yul\":23302:23326   */\n      tag_811\n        /* \"#utility.yul\":23320:23325   */\n      dup2\n        /* \"#utility.yul\":23302:23326   */\n      tag_812\n      jump\t// in\n    tag_811:\n        /* \"#utility.yul\":23297:23300   */\n      dup3\n        /* \"#utility.yul\":23290:23327   */\n      mstore\n        /* \"#utility.yul\":23225:23333   */\n      pop\n      pop\n      jump\t// out\n        /* \"#utility.yul\":23339:23457   */\n    tag_813:\n        /* \"#utility.yul\":23426:23450   */\n      tag_815\n        /* \"#utility.yul\":23444:23449   */\n      dup2\n        /* \"#utility.yul\":23426:23450   */\n      tag_812\n      jump\t// in\n    tag_815:\n        /* \"#utility.yul\":23421:23424   */\n      dup3\n        /* \"#utility.yul\":23414:23451   */\n      mstore\n        /* \"#utility.yul\":23339:23457   */\n      pop\n      pop\n      jump\t// out\n        /* \"#utility.yul\":23463:23738   */\n    tag_210:\n        /* \"#utility.yul\":23595:23598   */\n      0x00\n        /* \"#utility.yul\":23617:23712   */\n      tag_817\n        /* \"#utility.yul\":23708:23711   */\n      dup3\n        /* \"#utility.yul\":23699:23705   */\n      dup5\n        /* \"#utility.yul\":23617:23712   */\n      tag_733\n      jump\t// in\n    tag_817:\n        /* \"#utility.yul\":23610:23712   */\n      swap2\n      pop\n        /* \"#utility.yul\":23729:23732   */\n      dup2\n        /* \"#utility.yul\":23722:23732   */\n      swap1\n      pop\n        /* \"#utility.yul\":23463:23738   */\n      swap3\n      swap2\n      pop\n      pop\n      jump\t// out\n        /* \"#utility.yul\":23744:24123   */\n    tag_318:\n        /* \"#utility.yul\":23928:23931   */\n      0x00\n        /* \"#utility.yul\":23950:24097   */\n      tag_819\n        /* \"#utility.yul\":24093:24096   */\n      dup3\n        /* \"#utility.yul\":23950:24097   */\n      tag_765\n      jump\t// in\n    tag_819:\n        /* \"#utility.yul\":23943:24097   */\n      swap2\n      pop\n        /* \"#utility.yul\":24114:24117   */\n      dup2\n        /* \"#utility.yul\":24107:24117   */\n      swap1\n      pop\n        /* \"#utility.yul\":23744:24123   */\n      swap2\n      swap1\n      pop\n      jump\t// out\n        /* \"#utility.yul\":24129:24510   */\n    tag_212:\n        /* \"#utility.yul\":24314:24317   */\n      0x00\n        /* \"#utility.yul\":24336:24484   */\n      tag_821\n        /* \"#utility.yul\":24480:24483   */\n      dup3\n        /* \"#utility.yul\":24336:24484   */\n      tag_771\n      jump\t// in\n    tag_821:\n        /* \"#utility.yul\":24329:24484   */\n      swap2\n      pop\n        /* \"#utility.yul\":24501:24504   */\n      dup2\n        /* \"#utility.yul\":24494:24504   */\n      swap1\n      pop\n        /* \"#utility.yul\":24129:24510   */\n      swap2\n      swap1\n      pop\n      jump\t// out\n        /* \"#utility.yul\":24516:24738   */\n    tag_51:\n        /* \"#utility.yul\":24609:24613   */\n      0x00\n        /* \"#utility.yul\":24647:24649   */\n      0x20\n        /* \"#utility.yul\":24636:24645   */\n      dup3\n        /* \"#utility.yul\":24632:24650   */\n      add\n        /* \"#utility.yul\":24624:24650   */\n      swap1\n      pop\n        /* \"#utility.yul\":24660:24731   */\n      tag_823\n        /* \"#utility.yul\":24728:24729   */\n      0x00\n        /* \"#utility.yul\":24717:24726   */\n      dup4\n        /* \"#utility.yul\":24713:24730   */\n      add\n        /* \"#utility.yul\":24704:24710   */\n      dup5\n        /* \"#utility.yul\":24660:24731   */\n      tag_675\n      jump\t// in\n    tag_823:\n        /* \"#utility.yul\":24516:24738   */\n      swap3\n      swap2\n      pop\n      pop\n      jump\t// out\n        /* \"#utility.yul\":24744:25253   */\n    tag_92:\n        /* \"#utility.yul\":24955:24959   */\n      0x00\n        /* \"#utility.yul\":24993:24995   */\n      0x20\n        /* \"#utility.yul\":24982:24991   */\n      dup3\n        /* \"#utility.yul\":24978:24996   */\n      add\n        /* \"#utility.yul\":24970:24996   */\n      swap1\n      pop\n        /* \"#utility.yul\":25042:25051   */\n      dup2\n        /* \"#utility.yul\":25036:25040   */\n      dup2\n        /* \"#utility.yul\":25032:25052   */\n      sub\n        /* \"#utility.yul\":25028:25029   */\n      0x00\n        /* \"#utility.yul\":25017:25026   */\n      dup4\n        /* \"#utility.yul\":25013:25030   */\n      add\n        /* \"#utility.yul\":25006:25053   */\n      mstore\n        /* \"#utility.yul\":25070:25246   */\n      tag_825\n        /* \"#utility.yul\":25241:25245   */\n      dup2\n        /* \"#utility.yul\":25232:25238   */\n      dup5\n        /* \"#utility.yul\":25070:25246   */\n      tag_706\n      jump\t// in\n    tag_825:\n        /* \"#utility.yul\":25062:25246   */\n      swap1\n      pop\n        /* \"#utility.yul\":24744:25253   */\n      swap3\n      swap2\n      pop\n      pop\n      jump\t// out\n        /* \"#utility.yul\":25259:25678   */\n    tag_420:\n        /* \"#utility.yul\":25425:25429   */\n      0x00\n        /* \"#utility.yul\":25463:25465   */\n      0x20\n        /* \"#utility.yul\":25452:25461   */\n      dup3\n        /* \"#utility.yul\":25448:25466   */\n      add\n        /* \"#utility.yul\":25440:25466   */\n      swap1\n      pop\n        /* \"#utility.yul\":25512:25521   */\n      dup2\n        /* \"#utility.yul\":25506:25510   */\n      dup2\n        /* \"#utility.yul\":25502:25522   */\n      sub\n        /* \"#utility.yul\":25498:25499   */\n      0x00\n        /* \"#utility.yul\":25487:25496   */\n      dup4\n        /* \"#utility.yul\":25483:25500   */\n      add\n        /* \"#utility.yul\":25476:25523   */\n      mstore\n        /* \"#utility.yul\":25540:25671   */\n      tag_827\n        /* \"#utility.yul\":25666:25670   */\n      dup2\n        /* \"#utility.yul\":25540:25671   */\n      tag_739\n      jump\t// in\n    tag_827:\n        /* \"#utility.yul\":25532:25671   */\n      swap1\n      pop\n        /* \"#utility.yul\":25259:25678   */\n      swap2\n      swap1\n      pop\n      jump\t// out\n        /* \"#utility.yul\":25684:26103   */\n    tag_335:\n        /* \"#utility.yul\":25850:25854   */\n      0x00\n        /* \"#utility.yul\":25888:25890   */\n      0x20\n        /* \"#utility.yul\":25877:25886   */\n      dup3\n        /* \"#utility.yul\":25873:25891   */\n      add\n        /* \"#utility.yul\":25865:25891   */\n      swap1\n      pop\n        /* \"#utility.yul\":25937:25946   */\n      dup2\n        /* \"#utility.yul\":25931:25935   */\n      dup2\n        /* \"#utility.yul\":25927:25947   */\n      sub\n        /* \"#utility.yul\":25923:25924   */\n      0x00\n        /* \"#utility.yul\":25912:25921   */\n      dup4\n        /* \"#utility.yul\":25908:25925   */\n      add\n        /* \"#utility.yul\":25901:25948   */\n      mstore\n        /* \"#utility.yul\":25965:26096   */\n      tag_829\n        /* \"#utility.yul\":26091:26095   */\n      dup2\n        /* \"#utility.yul\":25965:26096   */\n      tag_745\n      jump\t// in\n    tag_829:\n        /* \"#utility.yul\":25957:26096   */\n      swap1\n      pop\n        /* \"#utility.yul\":25684:26103   */\n      swap2\n      swap1\n      pop\n      jump\t// out\n        /* \"#utility.yul\":26109:26528   */\n    tag_324:\n        /* \"#utility.yul\":26275:26279   */\n      0x00\n        /* \"#utility.yul\":26313:26315   */\n      0x20\n        /* \"#utility.yul\":26302:26311   */\n      dup3\n        /* \"#utility.yul\":26298:26316   */\n      add\n        /* \"#utility.yul\":26290:26316   */\n      swap1\n      pop\n        /* \"#utility.yul\":26362:26371   */\n      dup2\n        /* \"#utility.yul\":26356:26360   */\n      dup2\n        /* \"#utility.yul\":26352:26372   */\n      sub\n        /* \"#utility.yul\":26348:26349   */\n      0x00\n        /* \"#utility.yul\":26337:26346   */\n      dup4\n        /* \"#utility.yul\":26333:26350   */\n      add\n        /* \"#utility.yul\":26326:26373   */\n      mstore\n        /* \"#utility.yul\":26390:26521   */\n      tag_831\n        /* \"#utility.yul\":26516:26520   */\n      dup2\n        /* \"#utility.yul\":26390:26521   */\n      tag_750\n      jump\t// in\n    tag_831:\n        /* \"#utility.yul\":26382:26521   */\n      swap1\n      pop\n        /* \"#utility.yul\":26109:26528   */\n      swap2\n      swap1\n      pop\n      jump\t// out\n        /* \"#utility.yul\":26534:26953   */\n    tag_190:\n        /* \"#utility.yul\":26700:26704   */\n      0x00\n        /* \"#utility.yul\":26738:26740   */\n      0x20\n        /* \"#utility.yul\":26727:26736   */\n      dup3\n        /* \"#utility.yul\":26723:26741   */\n      add\n        /* \"#utility.yul\":26715:26741   */\n      swap1\n      pop\n        /* \"#utility.yul\":26787:26796   */\n      dup2\n        /* \"#utility.yul\":26781:26785   */\n      dup2\n        /* \"#utility.yul\":26777:26797   */\n      sub\n        /* \"#utility.yul\":26773:26774   */\n      0x00\n        /* \"#utility.yul\":26762:26771   */\n      dup4\n        /* \"#utility.yul\":26758:26775   */\n      add\n        /* \"#utility.yul\":26751:26798   */\n      mstore\n        /* \"#utility.yul\":26815:26946   */\n      tag_833\n        /* \"#utility.yul\":26941:26945   */\n      dup2\n        /* \"#utility.yul\":26815:26946   */\n      tag_755\n      jump\t// in\n    tag_833:\n        /* \"#utility.yul\":26807:26946   */\n      swap1\n      pop\n        /* \"#utility.yul\":26534:26953   */\n      swap2\n      swap1\n      pop\n      jump\t// out\n        /* \"#utility.yul\":26959:27378   */\n    tag_409:\n        /* \"#utility.yul\":27125:27129   */\n      0x00\n        /* \"#utility.yul\":27163:27165   */\n      0x20\n        /* \"#utility.yul\":27152:27161   */\n      dup3\n        /* \"#utility.yul\":27148:27166   */\n      add\n        /* \"#utility.yul\":27140:27166   */\n      swap1\n      pop\n        /* \"#utility.yul\":27212:27221   */\n      dup2\n        /* \"#utility.yul\":27206:27210   */\n      dup2\n        /* \"#utility.yul\":27202:27222   */\n      sub\n        /* \"#utility.yul\":27198:27199   */\n      0x00\n        /* \"#utility.yul\":27187:27196   */\n      dup4\n        /* \"#utility.yul\":27183:27200   */\n      add\n        /* \"#utility.yul\":27176:27223   */\n      mstore\n        /* \"#utility.yul\":27240:27371   */\n      tag_835\n        /* \"#utility.yul\":27366:27370   */\n      dup2\n        /* \"#utility.yul\":27240:27371   */\n      tag_760\n      jump\t// in\n    tag_835:\n        /* \"#utility.yul\":27232:27371   */\n      swap1\n      pop\n        /* \"#utility.yul\":26959:27378   */\n      swap2\n      swap1\n      pop\n      jump\t// out\n        /* \"#utility.yul\":27384:27803   */\n    tag_316:\n        /* \"#utility.yul\":27550:27554   */\n      0x00\n        /* \"#utility.yul\":27588:27590   */\n      0x20\n        /* \"#utility.yul\":27577:27586   */\n      dup3\n        /* \"#utility.yul\":27573:27591   */\n      add\n        /* \"#utility.yul\":27565:27591   */\n      swap1\n      pop\n        /* \"#utility.yul\":27637:27646   */\n      dup2\n        /* \"#utility.yul\":27631:27635   */\n      dup2\n        /* \"#utility.yul\":27627:27647   */\n      sub\n        /* \"#utility.yul\":27623:27624   */\n      0x00\n        /* \"#utility.yul\":27612:27621   */\n      dup4\n        /* \"#utility.yul\":27608:27625   */\n      add\n        /* \"#utility.yul\":27601:27648   */\n      mstore\n        /* \"#utility.yul\":27665:27796   */\n      tag_837\n        /* \"#utility.yul\":27791:27795   */\n      dup2\n        /* \"#utility.yul\":27665:27796   */\n      tag_775\n      jump\t// in\n    tag_837:\n        /* \"#utility.yul\":27657:27796   */\n      swap1\n      pop\n        /* \"#utility.yul\":27384:27803   */\n      swap2\n      swap1\n      pop\n      jump\t// out\n        /* \"#utility.yul\":27809:28206   */\n    tag_72:\n        /* \"#utility.yul\":27964:27968   */\n      0x00\n        /* \"#utility.yul\":28002:28004   */\n      0x20\n        /* \"#utility.yul\":27991:28000   */\n      dup3\n        /* \"#utility.yul\":27987:28005   */\n      add\n        /* \"#utility.yul\":27979:28005   */\n      swap1\n      pop\n        /* \"#utility.yul\":28051:28060   */\n      dup2\n        /* \"#utility.yul\":28045:28049   */\n      dup2\n        /* \"#utility.yul\":28041:28061   */\n      sub\n        /* \"#utility.yul\":28037:28038   */\n      0x00\n        /* \"#utility.yul\":28026:28035   */\n      dup4\n        /* \"#utility.yul\":28022:28039   */\n      add\n        /* \"#utility.yul\":28015:28062   */\n      mstore\n        /* \"#utility.yul\":28079:28199   */\n      tag_839\n        /* \"#utility.yul\":28194:28198   */\n      dup2\n        /* \"#utility.yul\":28185:28191   */\n      dup5\n        /* \"#utility.yul\":28079:28199   */\n      tag_798\n      jump\t// in\n    tag_839:\n        /* \"#utility.yul\":28071:28199   */\n      swap1\n      pop\n        /* \"#utility.yul\":27809:28206   */\n      swap3\n      swap2\n      pop\n      pop\n      jump\t// out\n        /* \"#utility.yul\":28212:28787   */\n    tag_43:\n        /* \"#utility.yul\":28429:28433   */\n      0x00\n        /* \"#utility.yul\":28467:28469   */\n      0x40\n        /* \"#utility.yul\":28456:28465   */\n      dup3\n        /* \"#utility.yul\":28452:28470   */\n      add\n        /* \"#utility.yul\":28444:28470   */\n      swap1\n      pop\n        /* \"#utility.yul\":28480:28551   */\n      tag_841\n        /* \"#utility.yul\":28548:28549   */\n      0x00\n        /* \"#utility.yul\":28537:28546   */\n      dup4\n        /* \"#utility.yul\":28533:28550   */\n      add\n        /* \"#utility.yul\":28524:28530   */\n      dup6\n        /* \"#utility.yul\":28480:28551   */\n      tag_813\n      jump\t// in\n    tag_841:\n        /* \"#utility.yul\":28598:28607   */\n      dup2\n        /* \"#utility.yul\":28592:28596   */\n      dup2\n        /* \"#utility.yul\":28588:28608   */\n      sub\n        /* \"#utility.yul\":28583:28585   */\n      0x20\n        /* \"#utility.yul\":28572:28581   */\n      dup4\n        /* \"#utility.yul\":28568:28586   */\n      add\n        /* \"#utility.yul\":28561:28609   */\n      mstore\n        /* \"#utility.yul\":28626:28780   */\n      tag_842\n        /* \"#utility.yul\":28775:28779   */\n      dup2\n        /* \"#utility.yul\":28766:28772   */\n      dup5\n        /* \"#utility.yul\":28626:28780   */\n      tag_692\n      jump\t// in\n    tag_842:\n        /* \"#utility.yul\":28618:28780   */\n      swap1\n      pop\n        /* \"#utility.yul\":28212:28787   */\n      swap4\n      swap3\n      pop\n      pop\n      pop\n      jump\t// out\n        /* \"#utility.yul\":28793:29457   */\n    tag_37:\n        /* \"#utility.yul\":28998:29002   */\n      0x00\n        /* \"#utility.yul\":29036:29039   */\n      0xa0\n        /* \"#utility.yul\":29025:29034   */\n      dup3\n        /* \"#utility.yul\":29021:29040   */\n      add\n        /* \"#utility.yul\":29013:29040   */\n      swap1\n      pop\n        /* \"#utility.yul\":29050:29121   */\n      tag_844\n        /* \"#utility.yul\":29118:29119   */\n      0x00\n        /* \"#utility.yul\":29107:29116   */\n      dup4\n        /* \"#utility.yul\":29103:29120   */\n      add\n        /* \"#utility.yul\":29094:29100   */\n      dup9\n        /* \"#utility.yul\":29050:29121   */\n      tag_813\n      jump\t// in\n    tag_844:\n        /* \"#utility.yul\":29131:29203   */\n      tag_845\n        /* \"#utility.yul\":29199:29201   */\n      0x20\n        /* \"#utility.yul\":29188:29197   */\n      dup4\n        /* \"#utility.yul\":29184:29202   */\n      add\n        /* \"#utility.yul\":29175:29181   */\n      dup8\n        /* \"#utility.yul\":29131:29203   */\n      tag_813\n      jump\t// in\n    tag_845:\n        /* \"#utility.yul\":29213:29285   */\n      tag_846\n        /* \"#utility.yul\":29281:29283   */\n      0x40\n        /* \"#utility.yul\":29270:29279   */\n      dup4\n        /* \"#utility.yul\":29266:29284   */\n      add\n        /* \"#utility.yul\":29257:29263   */\n      dup7\n        /* \"#utility.yul\":29213:29285   */\n      tag_813\n      jump\t// in\n    tag_846:\n        /* \"#utility.yul\":29295:29367   */\n      tag_847\n        /* \"#utility.yul\":29363:29365   */\n      0x60\n        /* \"#utility.yul\":29352:29361   */\n      dup4\n        /* \"#utility.yul\":29348:29366   */\n      add\n        /* \"#utility.yul\":29339:29345   */\n      dup6\n        /* \"#utility.yul\":29295:29367   */\n      tag_675\n      jump\t// in\n    tag_847:\n        /* \"#utility.yul\":29377:29450   */\n      tag_848\n        /* \"#utility.yul\":29445:29448   */\n      0x80\n        /* \"#utility.yul\":29434:29443   */\n      dup4\n        /* \"#utility.yul\":29430:29449   */\n      add\n        /* \"#utility.yul\":29421:29427   */\n      dup5\n        /* \"#utility.yul\":29377:29450   */\n      tag_675\n      jump\t// in\n    tag_848:\n        /* \"#utility.yul\":28793:29457   */\n      swap7\n      swap6\n      pop\n      pop\n      pop\n      pop\n      pop\n      pop\n      jump\t// out\n        /* \"#utility.yul\":29463:30159   */\n    tag_30:\n        /* \"#utility.yul\":29686:29690   */\n      0x00\n        /* \"#utility.yul\":29724:29727   */\n      0x80\n        /* \"#utility.yul\":29713:29722   */\n      dup3\n        /* \"#utility.yul\":29709:29728   */\n      add\n        /* \"#utility.yul\":29701:29728   */\n      swap1\n      pop\n        /* \"#utility.yul\":29738:29809   */\n      tag_850\n        /* \"#utility.yul\":29806:29807   */\n      0x00\n        /* \"#utility.yul\":29795:29804   */\n      dup4\n        /* \"#utility.yul\":29791:29808   */\n      add\n        /* \"#utility.yul\":29782:29788   */\n      dup8\n        /* \"#utility.yul\":29738:29809   */\n      tag_813\n      jump\t// in\n    tag_850:\n        /* \"#utility.yul\":29819:29891   */\n      tag_851\n        /* \"#utility.yul\":29887:29889   */\n      0x20\n        /* \"#utility.yul\":29876:29885   */\n      dup4\n        /* \"#utility.yul\":29872:29890   */\n      add\n        /* \"#utility.yul\":29863:29869   */\n      dup7\n        /* \"#utility.yul\":29819:29891   */\n      tag_813\n      jump\t// in\n    tag_851:\n        /* \"#utility.yul\":29901:29973   */\n      tag_852\n        /* \"#utility.yul\":29969:29971   */\n      0x40\n        /* \"#utility.yul\":29958:29967   */\n      dup4\n        /* \"#utility.yul\":29954:29972   */\n      add\n        /* \"#utility.yul\":29945:29951   */\n      dup6\n        /* \"#utility.yul\":29901:29973   */\n      tag_813\n      jump\t// in\n    tag_852:\n        /* \"#utility.yul\":30020:30029   */\n      dup2\n        /* \"#utility.yul\":30014:30018   */\n      dup2\n        /* \"#utility.yul\":30010:30030   */\n      sub\n        /* \"#utility.yul\":30005:30007   */\n      0x60\n        /* \"#utility.yul\":29994:30003   */\n      dup4\n        /* \"#utility.yul\":29990:30008   */\n      add\n        /* \"#utility.yul\":29983:30031   */\n      mstore\n        /* \"#utility.yul\":30048:30152   */\n      tag_853\n        /* \"#utility.yul\":30147:30151   */\n      dup2\n        /* \"#utility.yul\":30138:30144   */\n      dup5\n        /* \"#utility.yul\":30048:30152   */\n      tag_789\n      jump\t// in\n    tag_853:\n        /* \"#utility.yul\":30040:30152   */\n      swap1\n      pop\n        /* \"#utility.yul\":29463:30159   */\n      swap6\n      swap5\n      pop\n      pop\n      pop\n      pop\n      pop\n      jump\t// out\n        /* \"#utility.yul\":30165:30294   */\n    tag_551:\n        /* \"#utility.yul\":30199:30205   */\n      0x00\n        /* \"#utility.yul\":30226:30246   */\n      tag_855\n      tag_856\n      jump\t// in\n    tag_855:\n        /* \"#utility.yul\":30216:30246   */\n      swap1\n      pop\n        /* \"#utility.yul\":30255:30288   */\n      tag_857\n        /* \"#utility.yul\":30283:30287   */\n      dup3\n        /* \"#utility.yul\":30275:30281   */\n      dup3\n        /* \"#utility.yul\":30255:30288   */\n      tag_858\n      jump\t// in\n    tag_857:\n        /* \"#utility.yul\":30165:30294   */\n      swap2\n      swap1\n      pop\n      jump\t// out\n        /* \"#utility.yul\":30300:30375   */\n    tag_856:\n        /* \"#utility.yul\":30333:30339   */\n      0x00\n        /* \"#utility.yul\":30366:30368   */\n      0x40\n        /* \"#utility.yul\":30360:30369   */\n      mload\n        /* \"#utility.yul\":30350:30369   */\n      swap1\n      pop\n        /* \"#utility.yul\":30300:30375   */\n      swap1\n      jump\t// out\n        /* \"#utility.yul\":30381:30702   */\n    tag_550:\n        /* \"#utility.yul\":30468:30472   */\n      0x00\n        /* \"#utility.yul\":30558:30576   */\n      0xffffffffffffffff\n        /* \"#utility.yul\":30550:30556   */\n      dup3\n        /* \"#utility.yul\":30547:30577   */\n      gt\n        /* \"#utility.yul\":30544:30600   */\n      iszero\n      tag_861\n      jumpi\n        /* \"#utility.yul\":30580:30598   */\n      tag_862\n      tag_140\n      jump\t// in\n    tag_862:\n        /* \"#utility.yul\":30544:30600   */\n    tag_861:\n        /* \"#utility.yul\":30630:30634   */\n      0x20\n        /* \"#utility.yul\":30622:30628   */\n      dup3\n        /* \"#utility.yul\":30618:30635   */\n      mul\n        /* \"#utility.yul\":30610:30635   */\n      swap1\n      pop\n        /* \"#utility.yul\":30690:30694   */\n      0x20\n        /* \"#utility.yul\":30684:30688   */\n      dup2\n        /* \"#utility.yul\":30680:30695   */\n      add\n        /* \"#utility.yul\":30672:30695   */\n      swap1\n      pop\n        /* \"#utility.yul\":30381:30702   */\n      swap2\n      swap1\n      pop\n      jump\t// out\n        /* \"#utility.yul\":30708:31016   */\n    tag_567:\n        /* \"#utility.yul\":30770:30774   */\n      0x00\n        /* \"#utility.yul\":30860:30878   */\n      0xffffffffffffffff\n        /* \"#utility.yul\":30852:30858   */\n      dup3\n        /* \"#utility.yul\":30849:30879   */\n      gt\n        /* \"#utility.yul\":30846:30902   */\n      iszero\n      tag_864\n      jumpi\n        /* \"#utility.yul\":30882:30900   */\n      tag_865\n      tag_140\n      jump\t// in\n    tag_865:\n        /* \"#utility.yul\":30846:30902   */\n    tag_864:\n        /* \"#utility.yul\":30920:30949   */\n      tag_866\n        /* \"#utility.yul\":30942:30948   */\n      dup3\n        /* \"#utility.yul\":30920:30949   */\n      tag_732\n      jump\t// in\n    tag_866:\n        /* \"#utility.yul\":30912:30949   */\n      swap1\n      pop\n        /* \"#utility.yul\":31004:31008   */\n      0x20\n        /* \"#utility.yul\":30998:31002   */\n      dup2\n        /* \"#utility.yul\":30994:31009   */\n      add\n        /* \"#utility.yul\":30986:31009   */\n      swap1\n      pop\n        /* \"#utility.yul\":30708:31016   */\n      swap2\n      swap1\n      pop\n      jump\t// out\n        /* \"#utility.yul\":31022:31164   */\n    tag_685:\n        /* \"#utility.yul\":31099:31103   */\n      0x00\n        /* \"#utility.yul\":31122:31125   */\n      dup2\n        /* \"#utility.yul\":31114:31125   */\n      swap1\n      pop\n        /* \"#utility.yul\":31152:31156   */\n      0x20\n        /* \"#utility.yul\":31147:31150   */\n      dup3\n        /* \"#utility.yul\":31143:31157   */\n      add\n        /* \"#utility.yul\":31135:31157   */\n      swap1\n      pop\n        /* \"#utility.yul\":31022:31164   */\n      swap2\n      swap1\n      pop\n      jump\t// out\n        /* \"#utility.yul\":31170:31325   */\n    tag_699:\n        /* \"#utility.yul\":31260:31264   */\n      0x00\n        /* \"#utility.yul\":31283:31286   */\n      dup2\n        /* \"#utility.yul\":31275:31286   */\n      swap1\n      pop\n        /* \"#utility.yul\":31313:31317   */\n      0x20\n        /* \"#utility.yul\":31308:31311   */\n      dup3\n        /* \"#utility.yul\":31304:31318   */\n      add\n        /* \"#utility.yul\":31296:31318   */\n      swap1\n      pop\n        /* \"#utility.yul\":31170:31325   */\n      swap2\n      swap1\n      pop\n      jump\t// out\n        /* \"#utility.yul\":31331:31497   */\n    tag_713:\n        /* \"#utility.yul\":31432:31436   */\n      0x00\n        /* \"#utility.yul\":31455:31458   */\n      dup2\n        /* \"#utility.yul\":31447:31458   */\n      swap1\n      pop\n        /* \"#utility.yul\":31485:31489   */\n      0x20\n        /* \"#utility.yul\":31480:31483   */\n      dup3\n        /* \"#utility.yul\":31476:31490   */\n      add\n        /* \"#utility.yul\":31468:31490   */\n      swap1\n      pop\n        /* \"#utility.yul\":31331:31497   */\n      swap2\n      swap1\n      pop\n      jump\t// out\n        /* \"#utility.yul\":31503:31627   */\n    tag_681:\n        /* \"#utility.yul\":31580:31586   */\n      0x00\n        /* \"#utility.yul\":31614:31619   */\n      dup2\n        /* \"#utility.yul\":31608:31620   */\n      mload\n        /* \"#utility.yul\":31598:31620   */\n      swap1\n      pop\n        /* \"#utility.yul\":31503:31627   */\n      swap2\n      swap1\n      pop\n      jump\t// out\n        /* \"#utility.yul\":31633:31770   */\n    tag_695:\n        /* \"#utility.yul\":31723:31729   */\n      0x00\n        /* \"#utility.yul\":31757:31762   */\n      dup2\n        /* \"#utility.yul\":31751:31763   */\n      mload\n        /* \"#utility.yul\":31741:31763   */\n      swap1\n      pop\n        /* \"#utility.yul\":31633:31770   */\n      swap2\n      swap1\n      pop\n      jump\t// out\n        /* \"#utility.yul\":31776:31924   */\n    tag_709:\n        /* \"#utility.yul\":31877:31883   */\n      0x00\n        /* \"#utility.yul\":31911:31916   */\n      dup2\n        /* \"#utility.yul\":31905:31917   */\n      mload\n        /* \"#utility.yul\":31895:31917   */\n      swap1\n      pop\n        /* \"#utility.yul\":31776:31924   */\n      swap2\n      swap1\n      pop\n      jump\t// out\n        /* \"#utility.yul\":31930:32029   */\n    tag_726:\n        /* \"#utility.yul\":31982:31988   */\n      0x00\n        /* \"#utility.yul\":32016:32021   */\n      dup2\n        /* \"#utility.yul\":32010:32022   */\n      mload\n        /* \"#utility.yul\":32000:32022   */\n      swap1\n      pop\n        /* \"#utility.yul\":31930:32029   */\n      swap2\n      swap1\n      pop\n      jump\t// out\n        /* \"#utility.yul\":32035:32158   */\n    tag_691:\n        /* \"#utility.yul\":32115:32119   */\n      0x00\n        /* \"#utility.yul\":32147:32151   */\n      0x20\n        /* \"#utility.yul\":32142:32145   */\n      dup3\n        /* \"#utility.yul\":32138:32152   */\n      add\n        /* \"#utility.yul\":32130:32152   */\n      swap1\n      pop\n        /* \"#utility.yul\":32035:32158   */\n      swap2\n      swap1\n      pop\n      jump\t// out\n        /* \"#utility.yul\":32164:32300   */\n    tag_705:\n        /* \"#utility.yul\":32257:32261   */\n      0x00\n        /* \"#utility.yul\":32289:32293   */\n      0x20\n        /* \"#utility.yul\":32284:32287   */\n      dup3\n        /* \"#utility.yul\":32280:32294   */\n      add\n        /* \"#utility.yul\":32272:32294   */\n      swap1\n      pop\n        /* \"#utility.yul\":32164:32300   */\n      swap2\n      swap1\n      pop\n      jump\t// out\n        /* \"#utility.yul\":32306:32453   */\n    tag_719:\n        /* \"#utility.yul\":32410:32414   */\n      0x00\n        /* \"#utility.yul\":32442:32446   */\n      0x20\n        /* \"#utility.yul\":32437:32440   */\n      dup3\n        /* \"#utility.yul\":32433:32447   */\n      add\n        /* \"#utility.yul\":32425:32447   */\n      swap1\n      pop\n        /* \"#utility.yul\":32306:32453   */\n      swap2\n      swap1\n      pop\n      jump\t// out\n        /* \"#utility.yul\":32459:32643   */\n    tag_683:\n        /* \"#utility.yul\":32558:32569   */\n      0x00\n        /* \"#utility.yul\":32592:32598   */\n      dup3\n        /* \"#utility.yul\":32587:32590   */\n      dup3\n        /* \"#utility.yul\":32580:32599   */\n      mstore\n        /* \"#utility.yul\":32632:32636   */\n      0x20\n        /* \"#utility.yul\":32627:32630   */\n      dup3\n        /* \"#utility.yul\":32623:32637   */\n      add\n        /* \"#utility.yul\":32608:32637   */\n      swap1\n      pop\n        /* \"#utility.yul\":32459:32643   */\n      swap3\n      swap2\n      pop\n      pop\n      jump\t// out\n        /* \"#utility.yul\":32649:32856   */\n    tag_697:\n        /* \"#utility.yul\":32771:32782   */\n      0x00\n        /* \"#utility.yul\":32805:32811   */\n      dup3\n        /* \"#utility.yul\":32800:32803   */\n      dup3\n        /* \"#utility.yul\":32793:32812   */\n      mstore\n        /* \"#utility.yul\":32845:32849   */\n      0x20\n        /* \"#utility.yul\":32840:32843   */\n      dup3\n        /* \"#utility.yul\":32836:32850   */\n      add\n        /* \"#utility.yul\":32821:32850   */\n      swap1\n      pop\n        /* \"#utility.yul\":32649:32856   */\n      swap3\n      swap2\n      pop\n      pop\n      jump\t// out\n        /* \"#utility.yul\":32862:33080   */\n    tag_711:\n        /* \"#utility.yul\":32995:33006   */\n      0x00\n        /* \"#utility.yul\":33029:33035   */\n      dup3\n        /* \"#utility.yul\":33024:33027   */\n      dup3\n        /* \"#utility.yul\":33017:33036   */\n      mstore\n        /* \"#utility.yul\":33069:33073   */\n      0x20\n        /* \"#utility.yul\":33064:33067   */\n      dup3\n        /* \"#utility.yul\":33060:33074   */\n      add\n        /* \"#utility.yul\":33045:33074   */\n      swap1\n      pop\n        /* \"#utility.yul\":32862:33080   */\n      swap3\n      swap2\n      pop\n      pop\n      jump\t// out\n        /* \"#utility.yul\":33086:33233   */\n    tag_768:\n        /* \"#utility.yul\":33187:33198   */\n      0x00\n        /* \"#utility.yul\":33224:33227   */\n      dup2\n        /* \"#utility.yul\":33209:33227   */\n      swap1\n      pop\n        /* \"#utility.yul\":33086:33233   */\n      swap3\n      swap2\n      pop\n      pop\n      jump\t// out\n        /* \"#utility.yul\":33239:33398   */\n    tag_728:\n        /* \"#utility.yul\":33313:33324   */\n      0x00\n        /* \"#utility.yul\":33347:33353   */\n      dup3\n        /* \"#utility.yul\":33342:33345   */\n      dup3\n        /* \"#utility.yul\":33335:33354   */\n      mstore\n        /* \"#utility.yul\":33387:33391   */\n      0x20\n        /* \"#utility.yul\":33382:33385   */\n      dup3\n        /* \"#utility.yul\":33378:33392   */\n      add\n        /* \"#utility.yul\":33363:33392   */\n      swap1\n      pop\n        /* \"#utility.yul\":33239:33398   */\n      swap3\n      swap2\n      pop\n      pop\n      jump\t// out\n        /* \"#utility.yul\":33404:33573   */\n    tag_742:\n        /* \"#utility.yul\":33488:33499   */\n      0x00\n        /* \"#utility.yul\":33522:33528   */\n      dup3\n        /* \"#utility.yul\":33517:33520   */\n      dup3\n        /* \"#utility.yul\":33510:33529   */\n      mstore\n        /* \"#utility.yul\":33562:33566   */\n      0x20\n        /* \"#utility.yul\":33557:33560   */\n      dup3\n        /* \"#utility.yul\":33553:33567   */\n      add\n        /* \"#utility.yul\":33538:33567   */\n      swap1\n      pop\n        /* \"#utility.yul\":33404:33573   */\n      swap3\n      swap2\n      pop\n      pop\n      jump\t// out\n        /* \"#utility.yul\":33579:33727   */\n    tag_737:\n        /* \"#utility.yul\":33681:33692   */\n      0x00\n        /* \"#utility.yul\":33718:33721   */\n      dup2\n        /* \"#utility.yul\":33703:33721   */\n      swap1\n      pop\n        /* \"#utility.yul\":33579:33727   */\n      swap3\n      swap2\n      pop\n      pop\n      jump\t// out\n        /* \"#utility.yul\":33733:34038   */\n    tag_313:\n        /* \"#utility.yul\":33773:33776   */\n      0x00\n        /* \"#utility.yul\":33792:33812   */\n      tag_885\n        /* \"#utility.yul\":33810:33811   */\n      dup3\n        /* \"#utility.yul\":33792:33812   */\n      tag_812\n      jump\t// in\n    tag_885:\n        /* \"#utility.yul\":33787:33812   */\n      swap2\n      pop\n        /* \"#utility.yul\":33826:33846   */\n      tag_886\n        /* \"#utility.yul\":33844:33845   */\n      dup4\n        /* \"#utility.yul\":33826:33846   */\n      tag_812\n      jump\t// in\n    tag_886:\n        /* \"#utility.yul\":33821:33846   */\n      swap3\n      pop\n        /* \"#utility.yul\":33980:33981   */\n      dup3\n        /* \"#utility.yul\":33912:33978   */\n      0xffffffffffffffffffffffffffffffffffffffffffffffffffffffffffffffff\n        /* \"#utility.yul\":33908:33982   */\n      sub\n        /* \"#utility.yul\":33905:33906   */\n      dup3\n        /* \"#utility.yul\":33902:33983   */\n      gt\n        /* \"#utility.yul\":33899:34006   */\n      iszero\n      tag_887\n      jumpi\n        /* \"#utility.yul\":33986:34004   */\n      tag_888\n      tag_889\n      jump\t// in\n    tag_888:\n        /* \"#utility.yul\":33899:34006   */\n    tag_887:\n        /* \"#utility.yul\":34030:34031   */\n      dup3\n        /* \"#utility.yul\":34027:34028   */\n      dup3\n        /* \"#utility.yul\":34023:34032   */\n      add\n        /* \"#utility.yul\":34016:34032   */\n      swap1\n      pop\n        /* \"#utility.yul\":33733:34038   */\n      swap3\n      swap2\n      pop\n      pop\n      jump\t// out\n        /* \"#utility.yul\":34044:34229   */\n    tag_106:\n        /* \"#utility.yul\":34084:34085   */\n      0x00\n        /* \"#utility.yul\":34101:34121   */\n      tag_891\n        /* \"#utility.yul\":34119:34120   */\n      dup3\n        /* \"#utility.yul\":34101:34121   */\n      tag_812\n      jump\t// in\n    tag_891:\n        /* \"#utility.yul\":34096:34121   */\n      swap2\n      pop\n        /* \"#utility.yul\":34135:34155   */\n      tag_892\n        /* \"#utility.yul\":34153:34154   */\n      dup4\n        /* \"#utility.yul\":34135:34155   */\n      tag_812\n      jump\t// in\n    tag_892:\n        /* \"#utility.yul\":34130:34155   */\n      swap3\n      pop\n        /* \"#utility.yul\":34174:34175   */\n      dup3\n        /* \"#utility.yul\":34164:34199   */\n      tag_893\n      jumpi\n        /* \"#utility.yul\":34179:34197   */\n      tag_894\n      tag_895\n      jump\t// in\n    tag_894:\n        /* \"#utility.yul\":34164:34199   */\n    tag_893:\n        /* \"#utility.yul\":34221:34222   */\n      dup3\n        /* \"#utility.yul\":34218:34219   */\n      dup3\n        /* \"#utility.yul\":34214:34223   */\n      div\n        /* \"#utility.yul\":34209:34223   */\n      swap1\n      pop\n        /* \"#utility.yul\":34044:34229   */\n      swap3\n      swap2\n      pop\n      pop\n      jump\t// out\n        /* \"#utility.yul\":34235:34583   */\n    tag_104:\n        /* \"#utility.yul\":34275:34282   */\n      0x00\n        /* \"#utility.yul\":34298:34318   */\n      tag_897\n        /* \"#utility.yul\":34316:34317   */\n      dup3\n        /* \"#utility.yul\":34298:34318   */\n      tag_812\n      jump\t// in\n    tag_897:\n        /* \"#utility.yul\":34293:34318   */\n      swap2\n      pop\n        /* \"#utility.yul\":34332:34352   */\n      tag_898\n        /* \"#utility.yul\":34350:34351   */\n      dup4\n        /* \"#utility.yul\":34332:34352   */\n      tag_812\n      jump\t// in\n    tag_898:\n        /* \"#utility.yul\":34327:34352   */\n      swap3\n      pop\n        /* \"#utility.yul\":34520:34521   */\n      dup2\n        /* \"#utility.yul\":34452:34518   */\n      0xffffffffffffffffffffffffffffffffffffffffffffffffffffffffffffffff\n        /* \"#utility.yul\":34448:34522   */\n      div\n        /* \"#utility.yul\":34445:34446   */\n      dup4\n        /* \"#utility.yul\":34442:34523   */\n      gt\n        /* \"#utility.yul\":34437:34438   */\n      dup3\n        /* \"#utility.yul\":34430:34439   */\n      iszero\n        /* \"#utility.yul\":34423:34440   */\n      iszero\n        /* \"#utility.yul\":34419:34524   */\n      and\n        /* \"#utility.yul\":34416:34547   */\n      iszero\n      tag_899\n      jumpi\n        /* \"#utility.yul\":34527:34545   */\n      tag_900\n      tag_889\n      jump\t// in\n    tag_900:\n        /* \"#utility.yul\":34416:34547   */\n    tag_899:\n        /* \"#utility.yul\":34575:34576   */\n      dup3\n        /* \"#utility.yul\":34572:34573   */\n      dup3\n        /* \"#utility.yul\":34568:34577   */\n      mul\n        /* \"#utility.yul\":34557:34577   */\n      swap1\n      pop\n        /* \"#utility.yul\":34235:34583   */\n      swap3\n      swap2\n      pop\n      pop\n      jump\t// out\n        /* \"#utility.yul\":34589:34780   */\n    tag_434:\n        /* \"#utility.yul\":34629:34633   */\n      0x00\n        /* \"#utility.yul\":34649:34669   */\n      tag_902\n        /* \"#utility.yul\":34667:34668   */\n      dup3\n        /* \"#utility.yul\":34649:34669   */\n      tag_812\n      jump\t// in\n    tag_902:\n        /* \"#utility.yul\":34644:34669   */\n      swap2\n      pop\n        /* \"#utility.yul\":34683:34703   */\n      tag_903\n        /* \"#utility.yul\":34701:34702   */\n      dup4\n        /* \"#utility.yul\":34683:34703   */\n      tag_812\n      jump\t// in\n    tag_903:\n        /* \"#utility.yul\":34678:34703   */\n      swap3\n      pop\n        /* \"#utility.yul\":34722:34723   */\n      dup3\n        /* \"#utility.yul\":34719:34720   */\n      dup3\n        /* \"#utility.yul\":34716:34724   */\n      lt\n        /* \"#utility.yul\":34713:34747   */\n      iszero\n      tag_904\n      jumpi\n        /* \"#utility.yul\":34727:34745   */\n      tag_905\n      tag_889\n      jump\t// in\n    tag_905:\n        /* \"#utility.yul\":34713:34747   */\n    tag_904:\n        /* \"#utility.yul\":34772:34773   */\n      dup3\n        /* \"#utility.yul\":34769:34770   */\n      dup3\n        /* \"#utility.yul\":34765:34774   */\n      sub\n        /* \"#utility.yul\":34757:34774   */\n      swap1\n      pop\n        /* \"#utility.yul\":34589:34780   */\n      swap3\n      swap2\n      pop\n      pop\n      jump\t// out\n        /* \"#utility.yul\":34786:34882   */\n    tag_674:\n        /* \"#utility.yul\":34823:34830   */\n      0x00\n        /* \"#utility.yul\":34852:34876   */\n      tag_907\n        /* \"#utility.yul\":34870:34875   */\n      dup3\n        /* \"#utility.yul\":34852:34876   */\n      tag_908\n      jump\t// in\n    tag_907:\n        /* \"#utility.yul\":34841:34876   */\n      swap1\n      pop\n        /* \"#utility.yul\":34786:34882   */\n      swap2\n      swap1\n      pop\n      jump\t// out\n        /* \"#utility.yul\":34888:34978   */\n    tag_723:\n        /* \"#utility.yul\":34922:34929   */\n      0x00\n        /* \"#utility.yul\":34965:34970   */\n      dup2\n        /* \"#utility.yul\":34958:34971   */\n      iszero\n        /* \"#utility.yul\":34951:34972   */\n      iszero\n        /* \"#utility.yul\":34940:34972   */\n      swap1\n      pop\n        /* \"#utility.yul\":34888:34978   */\n      swap2\n      swap1\n      pop\n      jump\t// out\n        /* \"#utility.yul\":34984:35110   */\n    tag_908:\n        /* \"#utility.yul\":35021:35028   */\n      0x00\n        /* \"#utility.yul\":35061:35103   */\n      0xffffffffffffffffffffffffffffffffffffffff\n        /* \"#utility.yul\":35054:35059   */\n      dup3\n        /* \"#utility.yul\":35050:35104   */\n      and\n        /* \"#utility.yul\":35039:35104   */\n      swap1\n      pop\n        /* \"#utility.yul\":34984:35110   */\n      swap2\n      swap1\n      pop\n      jump\t// out\n        /* \"#utility.yul\":35116:35193   */\n    tag_812:\n        /* \"#utility.yul\":35153:35160   */\n      0x00\n        /* \"#utility.yul\":35182:35187   */\n      dup2\n        /* \"#utility.yul\":35171:35187   */\n      swap1\n      pop\n        /* \"#utility.yul\":35116:35193   */\n      swap2\n      swap1\n      pop\n      jump\t// out\n        /* \"#utility.yul\":35199:35353   */\n    tag_572:\n        /* \"#utility.yul\":35283:35289   */\n      dup3\n        /* \"#utility.yul\":35278:35281   */\n      dup2\n        /* \"#utility.yul\":35273:35276   */\n      dup4\n        /* \"#utility.yul\":35260:35290   */\n      calldatacopy\n        /* \"#utility.yul\":35345:35346   */\n      0x00\n        /* \"#utility.yul\":35336:35342   */\n      dup4\n        /* \"#utility.yul\":35331:35334   */\n      dup4\n        /* \"#utility.yul\":35327:35343   */\n      add\n        /* \"#utility.yul\":35320:35347   */\n      mstore\n        /* \"#utility.yul\":35199:35353   */\n      pop\n      pop\n      pop\n      jump\t// out\n        /* \"#utility.yul\":35359:35666   */\n    tag_730:\n        /* \"#utility.yul\":35427:35428   */\n      0x00\n        /* \"#utility.yul\":35437:35550   */\n    tag_914:\n        /* \"#utility.yul\":35451:35457   */\n      dup4\n        /* \"#utility.yul\":35448:35449   */\n      dup2\n        /* \"#utility.yul\":35445:35458   */\n      lt\n        /* \"#utility.yul\":35437:35550   */\n      iszero\n      tag_916\n      jumpi\n        /* \"#utility.yul\":35536:35537   */\n      dup1\n        /* \"#utility.yul\":35531:35534   */\n      dup3\n        /* \"#utility.yul\":35527:35538   */\n      add\n        /* \"#utility.yul\":35521:35539   */\n      mload\n        /* \"#utility.yul\":35517:35518   */\n      dup2\n        /* \"#utility.yul\":35512:35515   */\n      dup5\n        /* \"#utility.yul\":35508:35519   */\n      add\n        /* \"#utility.yul\":35501:35540   */\n      mstore\n        /* \"#utility.yul\":35473:35475   */\n      0x20\n        /* \"#utility.yul\":35470:35471   */\n      dup2\n        /* \"#utility.yul\":35466:35476   */\n      add\n        /* \"#utility.yul\":35461:35476   */\n      swap1\n      pop\n        /* \"#utility.yul\":35437:35550   */\n      jump(tag_914)\n    tag_916:\n        /* \"#utility.yul\":35568:35574   */\n      dup4\n        /* \"#utility.yul\":35565:35566   */\n      dup2\n        /* \"#utility.yul\":35562:35575   */\n      gt\n        /* \"#utility.yul\":35559:35660   */\n      iszero\n      tag_917\n      jumpi\n        /* \"#utility.yul\":35648:35649   */\n      0x00\n        /* \"#utility.yul\":35639:35645   */\n      dup5\n        /* \"#utility.yul\":35634:35637   */\n      dup5\n        /* \"#utility.yul\":35630:35646   */\n      add\n        /* \"#utility.yul\":35623:35650   */\n      mstore\n        /* \"#utility.yul\":35559:35660   */\n    tag_917:\n        /* \"#utility.yul\":35408:35666   */\n      pop\n        /* \"#utility.yul\":35359:35666   */\n      pop\n      pop\n      pop\n      jump\t// out\n        /* \"#utility.yul\":35672:35992   */\n    tag_112:\n        /* \"#utility.yul\":35716:35722   */\n      0x00\n        /* \"#utility.yul\":35753:35754   */\n      0x02\n        /* \"#utility.yul\":35747:35751   */\n      dup3\n        /* \"#utility.yul\":35743:35755   */\n      div\n        /* \"#utility.yul\":35733:35755   */\n      swap1\n      pop\n        /* \"#utility.yul\":35800:35801   */\n      0x01\n        /* \"#utility.yul\":35794:35798   */\n      dup3\n        /* \"#utility.yul\":35790:35802   */\n      and\n        /* \"#utility.yul\":35821:35839   */\n      dup1\n        /* \"#utility.yul\":35811:35892   */\n      tag_919\n      jumpi\n        /* \"#utility.yul\":35877:35881   */\n      0x7f\n        /* \"#utility.yul\":35869:35875   */\n      dup3\n        /* \"#utility.yul\":35865:35882   */\n      and\n        /* \"#utility.yul\":35855:35882   */\n      swap2\n      pop\n        /* \"#utility.yul\":35811:35892   */\n    tag_919:\n        /* \"#utility.yul\":35939:35941   */\n      0x20\n        /* \"#utility.yul\":35931:35937   */\n      dup3\n        /* \"#utility.yul\":35928:35942   */\n      lt\n        /* \"#utility.yul\":35908:35926   */\n      dup2\n        /* \"#utility.yul\":35905:35943   */\n      eq\n        /* \"#utility.yul\":35902:35986   */\n      iszero\n      tag_920\n      jumpi\n        /* \"#utility.yul\":35958:35976   */\n      tag_921\n      tag_922\n      jump\t// in\n    tag_921:\n        /* \"#utility.yul\":35902:35986   */\n    tag_920:\n        /* \"#utility.yul\":35723:35992   */\n      pop\n        /* \"#utility.yul\":35672:35992   */\n      swap2\n      swap1\n      pop\n      jump\t// out\n        /* \"#utility.yul\":35998:36279   */\n    tag_858:\n        /* \"#utility.yul\":36081:36108   */\n      tag_924\n        /* \"#utility.yul\":36103:36107   */\n      dup3\n        /* \"#utility.yul\":36081:36108   */\n      tag_732\n      jump\t// in\n    tag_924:\n        /* \"#utility.yul\":36073:36079   */\n      dup2\n        /* \"#utility.yul\":36069:36109   */\n      add\n        /* \"#utility.yul\":36211:36217   */\n      dup2\n        /* \"#utility.yul\":36199:36209   */\n      dup2\n        /* \"#utility.yul\":36196:36218   */\n      lt\n        /* \"#utility.yul\":36175:36193   */\n      0xffffffffffffffff\n        /* \"#utility.yul\":36163:36173   */\n      dup3\n        /* \"#utility.yul\":36160:36194   */\n      gt\n        /* \"#utility.yul\":36157:36219   */\n      or\n        /* \"#utility.yul\":36154:36242   */\n      iszero\n      tag_925\n      jumpi\n        /* \"#utility.yul\":36222:36240   */\n      tag_926\n      tag_140\n      jump\t// in\n    tag_926:\n        /* \"#utility.yul\":36154:36242   */\n    tag_925:\n        /* \"#utility.yul\":36262:36272   */\n      dup1\n        /* \"#utility.yul\":36258:36260   */\n      0x40\n        /* \"#utility.yul\":36251:36273   */\n      mstore\n        /* \"#utility.yul\":36041:36279   */\n      pop\n        /* \"#utility.yul\":35998:36279   */\n      pop\n      pop\n      jump\t// out\n        /* \"#utility.yul\":36285:36518   */\n    tag_95:\n        /* \"#utility.yul\":36324:36327   */\n      0x00\n        /* \"#utility.yul\":36347:36371   */\n      tag_928\n        /* \"#utility.yul\":36365:36370   */\n      dup3\n        /* \"#utility.yul\":36347:36371   */\n      tag_812\n      jump\t// in\n    tag_928:\n        /* \"#utility.yul\":36338:36371   */\n      swap2\n      pop\n        /* \"#utility.yul\":36393:36459   */\n      0xffffffffffffffffffffffffffffffffffffffffffffffffffffffffffffffff\n        /* \"#utility.yul\":36386:36391   */\n      dup3\n        /* \"#utility.yul\":36383:36460   */\n      eq\n        /* \"#utility.yul\":36380:36483   */\n      iszero\n      tag_929\n      jumpi\n        /* \"#utility.yul\":36463:36481   */\n      tag_930\n      tag_889\n      jump\t// in\n    tag_930:\n        /* \"#utility.yul\":36380:36483   */\n    tag_929:\n        /* \"#utility.yul\":36510:36511   */\n      0x01\n        /* \"#utility.yul\":36503:36508   */\n      dup3\n        /* \"#utility.yul\":36499:36512   */\n      add\n        /* \"#utility.yul\":36492:36512   */\n      swap1\n      pop\n        /* \"#utility.yul\":36285:36518   */\n      swap2\n      swap1\n      pop\n      jump\t// out\n        /* \"#utility.yul\":36524:36704   */\n    tag_889:\n        /* \"#utility.yul\":36572:36649   */\n      0x4e487b7100000000000000000000000000000000000000000000000000000000\n        /* \"#utility.yul\":36569:36570   */\n      0x00\n        /* \"#utility.yul\":36562:36650   */\n      mstore\n        /* \"#utility.yul\":36669:36673   */\n      0x11\n        /* \"#utility.yul\":36666:36667   */\n      0x04\n        /* \"#utility.yul\":36659:36674   */\n      mstore\n        /* \"#utility.yul\":36693:36697   */\n      0x24\n        /* \"#utility.yul\":36690:36691   */\n      0x00\n        /* \"#utility.yul\":36683:36698   */\n      revert\n        /* \"#utility.yul\":36710:36890   */\n    tag_895:\n        /* \"#utility.yul\":36758:36835   */\n      0x4e487b7100000000000000000000000000000000000000000000000000000000\n        /* \"#utility.yul\":36755:36756   */\n      0x00\n        /* \"#utility.yul\":36748:36836   */\n      mstore\n        /* \"#utility.yul\":36855:36859   */\n      0x12\n        /* \"#utility.yul\":36852:36853   */\n      0x04\n        /* \"#utility.yul\":36845:36860   */\n      mstore\n        /* \"#utility.yul\":36879:36883   */\n      0x24\n        /* \"#utility.yul\":36876:36877   */\n      0x00\n        /* \"#utility.yul\":36869:36884   */\n      revert\n        /* \"#utility.yul\":36896:37076   */\n    tag_922:\n        /* \"#utility.yul\":36944:37021   */\n      0x4e487b7100000000000000000000000000000000000000000000000000000000\n        /* \"#utility.yul\":36941:36942   */\n      0x00\n        /* \"#utility.yul\":36934:37022   */\n      mstore\n        /* \"#utility.yul\":37041:37045   */\n      0x22\n        /* \"#utility.yul\":37038:37039   */\n      0x04\n        /* \"#utility.yul\":37031:37046   */\n      mstore\n        /* \"#utility.yul\":37065:37069   */\n      0x24\n        /* \"#utility.yul\":37062:37063   */\n      0x00\n        /* \"#utility.yul\":37055:37070   */\n      revert\n        /* \"#utility.yul\":37082:37262   */\n    tag_151:\n        /* \"#utility.yul\":37130:37207   */\n      0x4e487b7100000000000000000000000000000000000000000000000000000000\n        /* \"#utility.yul\":37127:37128   */\n      0x00\n        /* \"#utility.yul\":37120:37208   */\n      mstore\n        /* \"#utility.yul\":37227:37231   */\n      0x32\n        /* \"#utility.yul\":37224:37225   */\n      0x04\n        /* \"#utility.yul\":37217:37232   */\n      mstore\n        /* \"#utility.yul\":37251:37255   */\n      0x24\n        /* \"#utility.yul\":37248:37249   */\n      0x00\n        /* \"#utility.yul\":37241:37256   */\n      revert\n        /* \"#utility.yul\":37268:37448   */\n    tag_140:\n        /* \"#utility.yul\":37316:37393   */\n      0x4e487b7100000000000000000000000000000000000000000000000000000000\n        /* \"#utility.yul\":37313:37314   */\n      0x00\n        /* \"#utility.yul\":37306:37394   */\n      mstore\n        /* \"#utility.yul\":37413:37417   */\n      0x41\n        /* \"#utility.yul\":37410:37411   */\n      0x04\n        /* \"#utility.yul\":37403:37418   */\n      mstore\n        /* \"#utility.yul\":37437:37441   */\n      0x24\n        /* \"#utility.yul\":37434:37435   */\n      0x00\n        /* \"#utility.yul\":37427:37442   */\n      revert\n        /* \"#utility.yul\":37454:37571   */\n    tag_560:\n        /* \"#utility.yul\":37563:37564   */\n      0x00\n        /* \"#utility.yul\":37560:37561   */\n      dup1\n        /* \"#utility.yul\":37553:37565   */\n      revert\n        /* \"#utility.yul\":37577:37694   */\n    tag_554:\n        /* \"#utility.yul\":37686:37687   */\n      0x00\n        /* \"#utility.yul\":37683:37684   */\n      dup1\n        /* \"#utility.yul\":37676:37688   */\n      revert\n        /* \"#utility.yul\":37700:37817   */\n    tag_570:\n        /* \"#utility.yul\":37809:37810   */\n      0x00\n        /* \"#utility.yul\":37806:37807   */\n      dup1\n        /* \"#utility.yul\":37799:37811   */\n      revert\n        /* \"#utility.yul\":37823:37940   */\n    tag_605:\n        /* \"#utility.yul\":37932:37933   */\n      0x00\n        /* \"#utility.yul\":37929:37930   */\n      dup1\n        /* \"#utility.yul\":37922:37934   */\n      revert\n        /* \"#utility.yul\":37946:38063   */\n    tag_593:\n        /* \"#utility.yul\":38055:38056   */\n      0x00\n        /* \"#utility.yul\":38052:38053   */\n      dup1\n        /* \"#utility.yul\":38045:38057   */\n      revert\n        /* \"#utility.yul\":38069:38171   */\n    tag_732:\n        /* \"#utility.yul\":38110:38116   */\n      0x00\n        /* \"#utility.yul\":38161:38163   */\n      0x1f\n        /* \"#utility.yul\":38157:38164   */\n      not\n        /* \"#utility.yul\":38152:38154   */\n      0x1f\n        /* \"#utility.yul\":38145:38150   */\n      dup4\n        /* \"#utility.yul\":38141:38155   */\n      add\n        /* \"#utility.yul\":38137:38165   */\n      and\n        /* \"#utility.yul\":38127:38165   */\n      swap1\n      pop\n        /* \"#utility.yul\":38069:38171   */\n      swap2\n      swap1\n      pop\n      jump\t// out\n        /* \"#utility.yul\":38177:38402   */\n    tag_744:\n        /* \"#utility.yul\":38317:38351   */\n      0x4f776e61626c653a206e6577206f776e657220697320746865207a65726f2061\n        /* \"#utility.yul\":38313:38314   */\n      0x00\n        /* \"#utility.yul\":38305:38311   */\n      dup3\n        /* \"#utility.yul\":38301:38315   */\n      add\n        /* \"#utility.yul\":38294:38352   */\n      mstore\n        /* \"#utility.yul\":38386:38394   */\n      0x6464726573730000000000000000000000000000000000000000000000000000\n        /* \"#utility.yul\":38381:38383   */\n      0x20\n        /* \"#utility.yul\":38373:38379   */\n      dup3\n        /* \"#utility.yul\":38369:38384   */\n      add\n        /* \"#utility.yul\":38362:38395   */\n      mstore\n        /* \"#utility.yul\":38177:38402   */\n      pop\n      jump\t// out\n        /* \"#utility.yul\":38408:38646   */\n    tag_749:\n        /* \"#utility.yul\":38548:38582   */\n      0x46656573207061796d656e74206661696c656420627574207472616e73616374\n        /* \"#utility.yul\":38544:38545   */\n      0x00\n        /* \"#utility.yul\":38536:38542   */\n      dup3\n        /* \"#utility.yul\":38532:38546   */\n      add\n        /* \"#utility.yul\":38525:38583   */\n      mstore\n        /* \"#utility.yul\":38617:38638   */\n      0x696f6e20776173207375636365737366756c2100000000000000000000000000\n        /* \"#utility.yul\":38612:38614   */\n      0x20\n        /* \"#utility.yul\":38604:38610   */\n      dup3\n        /* \"#utility.yul\":38600:38615   */\n      add\n        /* \"#utility.yul\":38593:38639   */\n      mstore\n        /* \"#utility.yul\":38408:38646   */\n      pop\n      jump\t// out\n        /* \"#utility.yul\":38652:38821   */\n    tag_754:\n        /* \"#utility.yul\":38792:38813   */\n      0x5472616e73616374696f6e206661696c65642100000000000000000000000000\n        /* \"#utility.yul\":38788:38789   */\n      0x00\n        /* \"#utility.yul\":38780:38786   */\n      dup3\n        /* \"#utility.yul\":38776:38790   */\n      add\n        /* \"#utility.yul\":38769:38814   */\n      mstore\n        /* \"#utility.yul\":38652:38821   */\n      pop\n      jump\t// out\n        /* \"#utility.yul\":38827:39009   */\n    tag_759:\n        /* \"#utility.yul\":38967:39001   */\n      0x4f776e61626c653a2063616c6c6572206973206e6f7420746865206f776e6572\n        /* \"#utility.yul\":38963:38964   */\n      0x00\n        /* \"#utility.yul\":38955:38961   */\n      dup3\n        /* \"#utility.yul\":38951:38965   */\n      add\n        /* \"#utility.yul\":38944:39002   */\n      mstore\n        /* \"#utility.yul\":38827:39009   */\n      pop\n      jump\t// out\n        /* \"#utility.yul\":39015:39241   */\n    tag_764:\n        /* \"#utility.yul\":39155:39189   */\n      0x53656e646572206973206e6f7420746865206f776e6572206f66207468652070\n        /* \"#utility.yul\":39151:39152   */\n      0x00\n        /* \"#utility.yul\":39143:39149   */\n      dup3\n        /* \"#utility.yul\":39139:39153   */\n      add\n        /* \"#utility.yul\":39132:39190   */\n      mstore\n        /* \"#utility.yul\":39224:39233   */\n      0x726f647563742100000000000000000000000000000000000000000000000000\n        /* \"#utility.yul\":39219:39221   */\n      0x20\n        /* \"#utility.yul\":39211:39217   */\n      dup3\n        /* \"#utility.yul\":39207:39222   */\n      add\n        /* \"#utility.yul\":39200:39234   */\n      mstore\n        /* \"#utility.yul\":39015:39241   */\n      pop\n      jump\t// out\n        /* \"#utility.yul\":39247:39361   */\n    tag_770:\n      pop\n      jump\t// out\n        /* \"#utility.yul\":39367:39537   */\n    tag_779:\n        /* \"#utility.yul\":39507:39529   */\n      0x4e6f7420656e6f756768207765692073656e7421000000000000000000000000\n        /* \"#utility.yul\":39503:39504   */\n      0x00\n        /* \"#utility.yul\":39495:39501   */\n      dup3\n        /* \"#utility.yul\":39491:39505   */\n      add\n        /* \"#utility.yul\":39484:39530   */\n      mstore\n        /* \"#utility.yul\":39367:39537   */\n      pop\n      jump\t// out\n        /* \"#utility.yul\":39543:39665   */\n    tag_576:\n        /* \"#utility.yul\":39616:39640   */\n      tag_950\n        /* \"#utility.yul\":39634:39639   */\n      dup2\n        /* \"#utility.yul\":39616:39640   */\n      tag_674\n      jump\t// in\n    tag_950:\n        /* \"#utility.yul\":39609:39614   */\n      dup2\n        /* \"#utility.yul\":39606:39641   */\n      eq\n        /* \"#utility.yul\":39596:39659   */\n      tag_951\n      jumpi\n        /* \"#utility.yul\":39655:39656   */\n      0x00\n        /* \"#utility.yul\":39652:39653   */\n      dup1\n        /* \"#utility.yul\":39645:39657   */\n      revert\n        /* \"#utility.yul\":39596:39659   */\n    tag_951:\n        /* \"#utility.yul\":39543:39665   */\n      pop\n      jump\t// out\n        /* \"#utility.yul\":39671:39793   */\n    tag_589:\n        /* \"#utility.yul\":39744:39768   */\n      tag_953\n        /* \"#utility.yul\":39762:39767   */\n      dup2\n        /* \"#utility.yul\":39744:39768   */\n      tag_812\n      jump\t// in\n    tag_953:\n        /* \"#utility.yul\":39737:39742   */\n      dup2\n        /* \"#utility.yul\":39734:39769   */\n      eq\n        /* \"#utility.yul\":39724:39787   */\n      tag_954\n      jumpi\n        /* \"#utility.yul\":39783:39784   */\n      0x00\n        /* \"#utility.yul\":39780:39781   */\n      dup1\n        /* \"#utility.yul\":39773:39785   */\n      revert\n        /* \"#utility.yul\":39724:39787   */\n    tag_954:\n        /* \"#utility.yul\":39671:39793   */\n      pop\n      jump\t// out\n\n    auxdata: 0xa2646970667358221220778eb5a96b30cc8134805c6f63a74750f27c6fcae4b35165df682ce0eee33eda64736f6c63430008070033\n}\n",
				"bytecode": {
					"linkReferences": {},
					"object": "6080604052600060015560026006553480156200001b57600080fd5b506200003c620000306200004260201b60201c565b6200004a60201b60201c565b6200010e565b600033905090565b60008060009054906101000a900473ffffffffffffffffffffffffffffffffffffffff169050816000806101000a81548173ffffffffffffffffffffffffffffffffffffffff021916908373ffffffffffffffffffffffffffffffffffffffff1602179055508173ffffffffffffffffffffffffffffffffffffffff168173ffffffffffffffffffffffffffffffffffffffff167f8be0079c531659141344cd1fd0a4f28419497f9722a3daafe3b4186f6b6457e060405160405180910390a35050565b614f30806200011e6000396000f3fe6080604052600436106100dd5760003560e01c8063a3274c211161007f578063dd46fa5d11610059578063dd46fa5d146102cc578063e31465df146102f5578063f2fde38b1461031e578063fe3d553814610347576100dd565b8063a3274c211461024a578063ae06c1b714610266578063bed59eae1461028f576100dd565b80636d168461116100bb5780636d1684611461018c578063715018a6146101ca5780638da5cb5b146101e15780639ccbff6b1461020c576100dd565b80630e448c1e146100e257806322634d211461010b5780633a7d23761461014b575b600080fd5b3480156100ee57600080fd5b5061010960048036038101906101049190613f48565b610384565b005b34801561011757600080fd5b50610132600480360381019061012d9190613d6c565b6106a6565b6040516101429493929190614845565b60405180910390f35b34801561015757600080fd5b50610172600480360381019061016d91906140a0565b6109f7565b6040516101839594939291906147f2565b60405180910390f35b34801561019857600080fd5b506101b360048036038101906101ae91906140a0565b610a8a565b6040516101c19291906147c2565b60405180910390f35b3480156101d657600080fd5b506101df610ec7565b005b3480156101ed57600080fd5b506101f6610f4f565b60405161020391906146a3565b60405180910390f35b34801561021857600080fd5b50610233600480360381019061022e9190613dac565b610f78565b6040516102419291906147c2565b60405180910390f35b610264600480360381019061025f9190614060565b6117c4565b005b34801561027257600080fd5b5061028d60048036038101906102889190614033565b611eb5565b005b34801561029b57600080fd5b506102b660048036038101906102b19190614033565b611f3b565b6040516102c391906147a0565b60405180910390f35b3480156102d857600080fd5b506102f360048036038101906102ee9190613e71565b612636565b005b34801561030157600080fd5b5061031c600480360381019061031791906140a0565b6128f5565b005b34801561032a57600080fd5b5061034560048036038101906103409190613d3f565b6129e5565b005b34801561035357600080fd5b5061036e60048036038101906103699190614033565b612add565b60405161037b91906146be565b60405180910390f35b60006001600081548092919061039990614c03565b91905055905060006040518060e001604052808381526020013373ffffffffffffffffffffffffffffffffffffffff16815260200188815260200187815260200186815260200185815260200160011515815250905060058190806001815401808255809150506001900390600052602060002090600702016000909190919091506000820151816000015560208201518160010160006101000a81548173ffffffffffffffffffffffffffffffffffffffff021916908373ffffffffffffffffffffffffffffffffffffffff16021790555060408201518160020190805190602001906104889291906138e9565b5060608201518160030190805190602001906104a59291906138e9565b5060808201518160040190805190602001906104c29291906138e9565b5060a08201518160050190805190602001906104df92919061396f565b5060c08201518160060160006101000a81548160ff021916908315150217905550505060405180608001604052808481526020016064600654866105239190614a88565b61052d9190614a57565b815260200142815260200182815250600260003373ffffffffffffffffffffffffffffffffffffffff1673ffffffffffffffffffffffffffffffffffffffff16815260200190815260200160002060008481526020019081526020016000206000820151816000015560208201518160010155604082015181600201556060820151816003016000820151816000015560208201518160010160006101000a81548173ffffffffffffffffffffffffffffffffffffffff021916908373ffffffffffffffffffffffffffffffffffffffff16021790555060408201518160020190805190602001906106209291906138e9565b50606082015181600301908051906020019061063d9291906138e9565b50608082015181600401908051906020019061065a9291906138e9565b5060a082015181600501908051906020019061067792919061396f565b5060c08201518160060160006101000a81548160ff021916908315150217905550505090505050505050505050565b600260205281600052604060002060205280600052604060002060009150915050806000015490806001015490806002015490806003016040518060e0016040529081600082015481526020016001820160009054906101000a900473ffffffffffffffffffffffffffffffffffffffff1673ffffffffffffffffffffffffffffffffffffffff1673ffffffffffffffffffffffffffffffffffffffff16815260200160028201805461075890614ba0565b80601f016020809104026020016040519081016040528092919081815260200182805461078490614ba0565b80156107d15780601f106107a6576101008083540402835291602001916107d1565b820191906000526020600020905b8154815290600101906020018083116107b457829003601f168201915b505050505081526020016003820180546107ea90614ba0565b80601f016020809104026020016040519081016040528092919081815260200182805461081690614ba0565b80156108635780601f1061083857610100808354040283529160200191610863565b820191906000526020600020905b81548152906001019060200180831161084657829003601f168201915b5050505050815260200160048201805461087c90614ba0565b80601f01602080910402602001604051908101604052809291908181526020018280546108a890614ba0565b80156108f55780601f106108ca576101008083540402835291602001916108f5565b820191906000526020600020905b8154815290600101906020018083116108d857829003601f168201915b5050505050815260200160058201805480602002602001604051908101604052809291908181526020016000905b828210156109cf57838290600052602060002001805461094290614ba0565b80601f016020809104026020016040519081016040528092919081815260200182805461096e90614ba0565b80156109bb5780601f10610990576101008083540402835291602001916109bb565b820191906000526020600020905b81548152906001019060200180831161099e57829003601f168201915b505050505081526020019060010190610923565b5050505081526020016006820160009054906101000a900460ff161515151581525050905084565b60046020528160005260406000208181548110610a1357600080fd5b9060005260206000209060050201600091509150508060000154908060010154908060020154908060030160009054906101000a900473ffffffffffffffffffffffffffffffffffffffff16908060040160009054906101000a900473ffffffffffffffffffffffffffffffffffffffff16905085565b60006060600060058054905067ffffffffffffffff811115610aaf57610aae614d08565b5b604051908082528060200260200182016040528015610ae857816020015b610ad56139cf565b815260200190600190039081610acd5790505b5090506000808690505b60058054905081108015610b0557508582105b15610eb75760058181548110610b1e57610b1d614cd9565b5b906000526020600020906007020160060160009054906101000a900460ff1615610ea45760058181548110610b5657610b55614cd9565b5b90600052602060002090600702016040518060e0016040529081600082015481526020016001820160009054906101000a900473ffffffffffffffffffffffffffffffffffffffff1673ffffffffffffffffffffffffffffffffffffffff1673ffffffffffffffffffffffffffffffffffffffff168152602001600282018054610bdf90614ba0565b80601f0160208091040260200160405190810160405280929190818152602001828054610c0b90614ba0565b8015610c585780601f10610c2d57610100808354040283529160200191610c58565b820191906000526020600020905b815481529060010190602001808311610c3b57829003601f168201915b50505050508152602001600382018054610c7190614ba0565b80601f0160208091040260200160405190810160405280929190818152602001828054610c9d90614ba0565b8015610cea5780601f10610cbf57610100808354040283529160200191610cea565b820191906000526020600020905b815481529060010190602001808311610ccd57829003601f168201915b50505050508152602001600482018054610d0390614ba0565b80601f0160208091040260200160405190810160405280929190818152602001828054610d2f90614ba0565b8015610d7c5780601f10610d5157610100808354040283529160200191610d7c565b820191906000526020600020905b815481529060010190602001808311610d5f57829003601f168201915b5050505050815260200160058201805480602002602001604051908101604052809291908181526020016000905b82821015610e56578382906000526020600020018054610dc990614ba0565b80601f0160208091040260200160405190810160405280929190818152602001828054610df590614ba0565b8015610e425780601f10610e1757610100808354040283529160200191610e42565b820191906000526020600020905b815481529060010190602001808311610e2557829003601f168201915b505050505081526020019060010190610daa565b5050505081526020016006820160009054906101000a900460ff161515151581525050838380610e8590614c03565b945081518110610e9857610e97614cd9565b5b60200260200101819052505b8080610eaf90614c03565b915050610af2565b8083945094505050509250929050565b610ecf612c19565b73ffffffffffffffffffffffffffffffffffffffff16610eed610f4f565b73ffffffffffffffffffffffffffffffffffffffff1614610f43576040517f08c379a0000000000000000000000000000000000000000000000000000000008152600401610f3a90614740565b60405180910390fd5b610f4d6000612c21565b565b60008060009054906101000a900473ffffffffffffffffffffffffffffffffffffffff16905090565b60006060600060058054905067ffffffffffffffff811115610f9d57610f9c614d08565b5b604051908082528060200260200182016040528015610fd657816020015b610fc36139cf565b815260200190600190039081610fbb5790505b5090506000808690505b60058054905081108015610ff357508582105b156117b0576005818154811061100c5761100b614cd9565b5b906000526020600020906007020160060160009054906101000a900460ff166110345761179d565b60006001905060008b60405160200161104d9190614662565b6040516020818303038152906040528051906020012090506040516020016110749061468e565b604051602081830303815290604052805190602001208114611205576000600584815481106110a6576110a5614cd9565b5b9060005260206000209060070201600501805480602002602001604051908101604052809291908181526020016000905b828210156111835783829060005260206000200180546110f690614ba0565b80601f016020809104026020016040519081016040528092919081815260200182805461112290614ba0565b801561116f5780601f106111445761010080835404028352916020019161116f565b820191906000526020600020905b81548152906001019060200180831161115257829003601f168201915b5050505050815260200190600101906110d7565b50505050905060005b81518110156111f5578181815181106111a8576111a7614cd9565b5b60200260200101516040516020016111c09190614662565b604051602081830303815290604052805190602001208314156111e2576111f5565b80806111ed90614c03565b91505061118c565b8151811061120257600093505b50505b8180156112ba5750600073ffffffffffffffffffffffffffffffffffffffff168b73ffffffffffffffffffffffffffffffffffffffff161415806112b957506005838154811061125857611257614cd9565b5b906000526020600020906007020160010160009054906101000a900473ffffffffffffffffffffffffffffffffffffffff1673ffffffffffffffffffffffffffffffffffffffff168b73ffffffffffffffffffffffffffffffffffffffff16145b5b801561136a575060008a141580611369575060026000600585815481106112e4576112e3614cd9565b5b906000526020600020906007020160010160009054906101000a900473ffffffffffffffffffffffffffffffffffffffff1673ffffffffffffffffffffffffffffffffffffffff1673ffffffffffffffffffffffffffffffffffffffff1681526020019081526020016000206000848152602001908152602001600020600201548a11155b5b801561142957506114288d6005858154811061138957611388614cd9565b5b906000526020600020906007020160020180546113a590614ba0565b80601f01602080910402602001604051908101604052809291908181526020018280546113d190614ba0565b801561141e5780601f106113f35761010080835404028352916020019161141e565b820191906000526020600020905b81548152906001019060200180831161140157829003601f168201915b5050505050612ce5565b5b61143257600091505b811561179a576005838154811061144c5761144b614cd9565b5b90600052602060002090600702016040518060e0016040529081600082015481526020016001820160009054906101000a900473ffffffffffffffffffffffffffffffffffffffff1673ffffffffffffffffffffffffffffffffffffffff1673ffffffffffffffffffffffffffffffffffffffff1681526020016002820180546114d590614ba0565b80601f016020809104026020016040519081016040528092919081815260200182805461150190614ba0565b801561154e5780601f106115235761010080835404028352916020019161154e565b820191906000526020600020905b81548152906001019060200180831161153157829003601f168201915b5050505050815260200160038201805461156790614ba0565b80601f016020809104026020016040519081016040528092919081815260200182805461159390614ba0565b80156115e05780601f106115b5576101008083540402835291602001916115e0565b820191906000526020600020905b8154815290600101906020018083116115c357829003601f168201915b505050505081526020016004820180546115f990614ba0565b80601f016020809104026020016040519081016040528092919081815260200182805461162590614ba0565b80156116725780601f1061164757610100808354040283529160200191611672565b820191906000526020600020905b81548152906001019060200180831161165557829003601f168201915b5050505050815260200160058201805480602002602001604051908101604052809291908181526020016000905b8282101561174c5783829060005260206000200180546116bf90614ba0565b80601f01602080910402602001604051908101604052809291908181526020018280546116eb90614ba0565b80156117385780601f1061170d57610100808354040283529160200191611738565b820191906000526020600020905b81548152906001019060200180831161171b57829003601f168201915b5050505050815260200190600101906116a0565b5050505081526020016006820160009054906101000a900460ff16151515158152505085858061177b90614c03565b96508151811061178e5761178d614cd9565b5b60200260200101819052505b50505b80806117a890614c03565b915050610fe0565b808394509450505050965096945050505050565b6000600260008373ffffffffffffffffffffffffffffffffffffffff1673ffffffffffffffffffffffffffffffffffffffff1681526020019081526020016000206000848152602001908152602001600020604051806080016040529081600082015481526020016001820154815260200160028201548152602001600382016040518060e0016040529081600082015481526020016001820160009054906101000a900473ffffffffffffffffffffffffffffffffffffffff1673ffffffffffffffffffffffffffffffffffffffff1673ffffffffffffffffffffffffffffffffffffffff1681526020016002820180546118bf90614ba0565b80601f01602080910402602001604051908101604052809291908181526020018280546118eb90614ba0565b80156119385780601f1061190d57610100808354040283529160200191611938565b820191906000526020600020905b81548152906001019060200180831161191b57829003601f168201915b5050505050815260200160038201805461195190614ba0565b80601f016020809104026020016040519081016040528092919081815260200182805461197d90614ba0565b80156119ca5780601f1061199f576101008083540402835291602001916119ca565b820191906000526020600020905b8154815290600101906020018083116119ad57829003601f168201915b505050505081526020016004820180546119e390614ba0565b80601f0160208091040260200160405190810160405280929190818152602001828054611a0f90614ba0565b8015611a5c5780601f10611a3157610100808354040283529160200191611a5c565b820191906000526020600020905b815481529060010190602001808311611a3f57829003601f168201915b5050505050815260200160058201805480602002602001604051908101604052809291908181526020016000905b82821015611b36578382906000526020600020018054611aa990614ba0565b80601f0160208091040260200160405190810160405280929190818152602001828054611ad590614ba0565b8015611b225780601f10611af757610100808354040283529160200191611b22565b820191906000526020600020905b815481529060010190602001808311611b0557829003601f168201915b505050505081526020019060010190611a8a565b5050505081526020016006820160009054906101000a900460ff1615151515815250508152505090508173ffffffffffffffffffffffffffffffffffffffff1681606001516020015173ffffffffffffffffffffffffffffffffffffffff16148015611bb5575080602001518160000151611bb19190614a01565b3410155b611bf4576040517f08c379a0000000000000000000000000000000000000000000000000000000008152600401611beb90614780565b60405180910390fd5b60008273ffffffffffffffffffffffffffffffffffffffff168260000151604051611c1e90614679565b60006040518083038185875af1925050503d8060008114611c5b576040519150601f19603f3d011682016040523d82523d6000602084013e611c60565b606091505b5050905080611ca4576040517f08c379a0000000000000000000000000000000000000000000000000000000008152600401611c9b90614720565b60405180910390fd5b600460008581526020019081526020016000206040518060a001604052808460000151815260200184602001518152602001846040015181526020018573ffffffffffffffffffffffffffffffffffffffff1681526020013373ffffffffffffffffffffffffffffffffffffffff16815250908060018154018082558091505060019003906000526020600020906005020160009091909190915060008201518160000155602082015181600101556040820151816002015560608201518160030160006101000a81548173ffffffffffffffffffffffffffffffffffffffff021916908373ffffffffffffffffffffffffffffffffffffffff16021790555060808201518160040160006101000a81548173ffffffffffffffffffffffffffffffffffffffff021916908373ffffffffffffffffffffffffffffffffffffffff1602179055505050611df8833386612e0d565b611e00610f4f565b73ffffffffffffffffffffffffffffffffffffffff168260200151604051611e2790614679565b60006040518083038185875af1925050503d8060008114611e64576040519150601f19603f3d011682016040523d82523d6000602084013e611e69565b606091505b50508091505080611eaf576040517f08c379a0000000000000000000000000000000000000000000000000000000008152600401611ea690614700565b60405180910390fd5b50505050565b611ebd612c19565b73ffffffffffffffffffffffffffffffffffffffff16611edb610f4f565b73ffffffffffffffffffffffffffffffffffffffff1614611f31576040517f08c379a0000000000000000000000000000000000000000000000000000000008152600401611f2890614740565b60405180910390fd5b8060068190555050565b611f43613a24565b600060058381548110611f5957611f58614cd9565b5b90600052602060002090600702016040518060e0016040529081600082015481526020016001820160009054906101000a900473ffffffffffffffffffffffffffffffffffffffff1673ffffffffffffffffffffffffffffffffffffffff1673ffffffffffffffffffffffffffffffffffffffff168152602001600282018054611fe290614ba0565b80601f016020809104026020016040519081016040528092919081815260200182805461200e90614ba0565b801561205b5780601f106120305761010080835404028352916020019161205b565b820191906000526020600020905b81548152906001019060200180831161203e57829003601f168201915b5050505050815260200160038201805461207490614ba0565b80601f01602080910402602001604051908101604052809291908181526020018280546120a090614ba0565b80156120ed5780601f106120c2576101008083540402835291602001916120ed565b820191906000526020600020905b8154815290600101906020018083116120d057829003601f168201915b5050505050815260200160048201805461210690614ba0565b80601f016020809104026020016040519081016040528092919081815260200182805461213290614ba0565b801561217f5780601f106121545761010080835404028352916020019161217f565b820191906000526020600020905b81548152906001019060200180831161216257829003601f168201915b5050505050815260200160058201805480602002602001604051908101604052809291908181526020016000905b828210156122595783829060005260206000200180546121cc90614ba0565b80601f01602080910402602001604051908101604052809291908181526020018280546121f890614ba0565b80156122455780601f1061221a57610100808354040283529160200191612245565b820191906000526020600020905b81548152906001019060200180831161222857829003601f168201915b5050505050815260200190600101906121ad565b5050505081526020016006820160009054906101000a900460ff1615151515815250509050600115158160c0015115151461229357600080fd5b60026000826020015173ffffffffffffffffffffffffffffffffffffffff1673ffffffffffffffffffffffffffffffffffffffff1681526020019081526020016000206000848152602001908152602001600020604051806080016040529081600082015481526020016001820154815260200160028201548152602001600382016040518060e0016040529081600082015481526020016001820160009054906101000a900473ffffffffffffffffffffffffffffffffffffffff1673ffffffffffffffffffffffffffffffffffffffff1673ffffffffffffffffffffffffffffffffffffffff16815260200160028201805461239090614ba0565b80601f01602080910402602001604051908101604052809291908181526020018280546123bc90614ba0565b80156124095780601f106123de57610100808354040283529160200191612409565b820191906000526020600020905b8154815290600101906020018083116123ec57829003601f168201915b5050505050815260200160038201805461242290614ba0565b80601f016020809104026020016040519081016040528092919081815260200182805461244e90614ba0565b801561249b5780601f106124705761010080835404028352916020019161249b565b820191906000526020600020905b81548152906001019060200180831161247e57829003601f168201915b505050505081526020016004820180546124b490614ba0565b80601f01602080910402602001604051908101604052809291908181526020018280546124e090614ba0565b801561252d5780601f106125025761010080835404028352916020019161252d565b820191906000526020600020905b81548152906001019060200180831161251057829003601f168201915b5050505050815260200160058201805480602002602001604051908101604052809291908181526020016000905b8282101561260757838290600052602060002001805461257a90614ba0565b80601f01602080910402602001604051908101604052809291908181526020018280546125a690614ba0565b80156125f35780601f106125c8576101008083540402835291602001916125f3565b820191906000526020600020905b8154815290600101906020018083116125d657829003601f168201915b50505050508152602001906001019061255b565b5050505081526020016006820160009054906101000a900460ff16151515158152505081525050915050919050565b60006001600081548092919061264b90614c03565b91905055905060006040518060e001604052808381526020013373ffffffffffffffffffffffffffffffffffffffff16815260200187815260200186815260200185815260200184815260200160001515815250905060058190806001815401808255809150506001900390600052602060002090600702016000909190919091506000820151816000015560208201518160010160006101000a81548173ffffffffffffffffffffffffffffffffffffffff021916908373ffffffffffffffffffffffffffffffffffffffff160217905550604082015181600201908051906020019061273a9291906138e9565b5060608201518160030190805190602001906127579291906138e9565b5060808201518160040190805190602001906127749291906138e9565b5060a082015181600501908051906020019061279192919061396f565b5060c08201518160060160006101000a81548160ff021916908315150217905550505080600360003373ffffffffffffffffffffffffffffffffffffffff1673ffffffffffffffffffffffffffffffffffffffff16815260200190815260200160002060008481526020019081526020016000206000820151816000015560208201518160010160006101000a81548173ffffffffffffffffffffffffffffffffffffffff021916908373ffffffffffffffffffffffffffffffffffffffff16021790555060408201518160020190805190602001906128729291906138e9565b50606082015181600301908051906020019061288f9291906138e9565b5060808201518160040190805190602001906128ac9291906138e9565b5060a08201518160050190805190602001906128c992919061396f565b5060c08201518160060160006101000a81548160ff021916908315150217905550905050505050505050565b3373ffffffffffffffffffffffffffffffffffffffff16600360003373ffffffffffffffffffffffffffffffffffffffff1673ffffffffffffffffffffffffffffffffffffffff168152602001908152602001600020600084815260200190815260200160002060010160009054906101000a900473ffffffffffffffffffffffffffffffffffffffff1673ffffffffffffffffffffffffffffffffffffffff16146129d6576040517f08c379a00000000000000000000000000000000000000000000000000000000081526004016129cd90614760565b60405180910390fd5b6129e1338383613262565b5050565b6129ed612c19565b73ffffffffffffffffffffffffffffffffffffffff16612a0b610f4f565b73ffffffffffffffffffffffffffffffffffffffff1614612a61576040517f08c379a0000000000000000000000000000000000000000000000000000000008152600401612a5890614740565b60405180910390fd5b600073ffffffffffffffffffffffffffffffffffffffff168173ffffffffffffffffffffffffffffffffffffffff161415612ad1576040517f08c379a0000000000000000000000000000000000000000000000000000000008152600401612ac8906146e0565b60405180910390fd5b612ada81612c21565b50565b606060046000838152602001908152602001600020805480602002602001604051908101604052809291908181526020016000905b82821015612c0e57838290600052602060002090600502016040518060a00160405290816000820154815260200160018201548152602001600282015481526020016003820160009054906101000a900473ffffffffffffffffffffffffffffffffffffffff1673ffffffffffffffffffffffffffffffffffffffff1673ffffffffffffffffffffffffffffffffffffffff1681526020016004820160009054906101000a900473ffffffffffffffffffffffffffffffffffffffff1673ffffffffffffffffffffffffffffffffffffffff1673ffffffffffffffffffffffffffffffffffffffff168152505081526020019060010190612b12565b505050509050919050565b600033905090565b60008060009054906101000a900473ffffffffffffffffffffffffffffffffffffffff169050816000806101000a81548173ffffffffffffffffffffffffffffffffffffffff021916908373ffffffffffffffffffffffffffffffffffffffff1602179055508173ffffffffffffffffffffffffffffffffffffffff168173ffffffffffffffffffffffffffffffffffffffff167f8be0079c531659141344cd1fd0a4f28419497f9722a3daafe3b4186f6b6457e060405160405180910390a35050565b6000808390506000839050815181511015612d0557600092505050612e07565b6000925060005b82518251612d1a9190614ae2565b8111612e035760006001905060005b8451811015612dde57848181518110612d4557612d44614cd9565b5b602001015160f81c60f81b7effffffffffffffffffffffffffffffffffffffffffffffffffffffffffffff1916848285612d7f9190614a01565b81518110612d9057612d8f614cd9565b5b602001015160f81c60f81b7effffffffffffffffffffffffffffffffffffffffffffffffffffffffffffff191614612dcb5760009150612dde565b8080612dd690614c03565b915050612d29565b508015612def576001945050612e03565b508080612dfb90614c03565b915050612d0c565b5050505b92915050565b600260008473ffffffffffffffffffffffffffffffffffffffff1673ffffffffffffffffffffffffffffffffffffffff1681526020019081526020016000206000828152602001908152602001600020600301600360008473ffffffffffffffffffffffffffffffffffffffff1673ffffffffffffffffffffffffffffffffffffffff1681526020019081526020016000206000838152602001908152602001600020600082015481600001556001820160009054906101000a900473ffffffffffffffffffffffffffffffffffffffff168160010160006101000a81548173ffffffffffffffffffffffffffffffffffffffff021916908373ffffffffffffffffffffffffffffffffffffffff1602179055506002820181600201908054612f3590614ba0565b612f40929190613a52565b506003820181600301908054612f5590614ba0565b612f60929190613a52565b506004820181600401908054612f7590614ba0565b612f80929190613a52565b506005820181600501908054612f97929190613adf565b506006820160009054906101000a900460ff168160060160006101000a81548160ff02191690831515021790555090505081600360008473ffffffffffffffffffffffffffffffffffffffff1673ffffffffffffffffffffffffffffffffffffffff168152602001908152602001600020600083815260200190815260200160002060010160006101000a81548173ffffffffffffffffffffffffffffffffffffffff021916908373ffffffffffffffffffffffffffffffffffffffff1602179055506000600360008473ffffffffffffffffffffffffffffffffffffffff1673ffffffffffffffffffffffffffffffffffffffff168152602001908152602001600020600083815260200190815260200160002060060160006101000a81548160ff02191690831515021790555081600582815481106130db576130da614cd9565b5b906000526020600020906007020160010160006101000a81548173ffffffffffffffffffffffffffffffffffffffff021916908373ffffffffffffffffffffffffffffffffffffffff1602179055506000600582815481106131405761313f614cd9565b5b906000526020600020906007020160060160006101000a81548160ff021916908315150217905550600260008473ffffffffffffffffffffffffffffffffffffffff1673ffffffffffffffffffffffffffffffffffffffff168152602001908152602001600020600082815260200190815260200160002060008082016000905560018201600090556002820160009055600382016000808201600090556001820160006101000a81549073ffffffffffffffffffffffffffffffffffffffff02191690556002820160006132159190613b47565b6003820160006132259190613b47565b6004820160006132359190613b47565b6005820160006132459190613b87565b6006820160006101000a81549060ff021916905550505050505050565b60405180608001604052808281526020016064600654846132839190614a88565b61328d9190614a57565b8152602001428152602001600360008673ffffffffffffffffffffffffffffffffffffffff1673ffffffffffffffffffffffffffffffffffffffff16815260200190815260200160002060008581526020019081526020016000206040518060e0016040529081600082015481526020016001820160009054906101000a900473ffffffffffffffffffffffffffffffffffffffff1673ffffffffffffffffffffffffffffffffffffffff1673ffffffffffffffffffffffffffffffffffffffff16815260200160028201805461336390614ba0565b80601f016020809104026020016040519081016040528092919081815260200182805461338f90614ba0565b80156133dc5780601f106133b1576101008083540402835291602001916133dc565b820191906000526020600020905b8154815290600101906020018083116133bf57829003601f168201915b505050505081526020016003820180546133f590614ba0565b80601f016020809104026020016040519081016040528092919081815260200182805461342190614ba0565b801561346e5780601f106134435761010080835404028352916020019161346e565b820191906000526020600020905b81548152906001019060200180831161345157829003601f168201915b5050505050815260200160048201805461348790614ba0565b80601f01602080910402602001604051908101604052809291908181526020018280546134b390614ba0565b80156135005780601f106134d557610100808354040283529160200191613500565b820191906000526020600020905b8154815290600101906020018083116134e357829003601f168201915b5050505050815260200160058201805480602002602001604051908101604052809291908181526020016000905b828210156135da57838290600052602060002001805461354d90614ba0565b80601f016020809104026020016040519081016040528092919081815260200182805461357990614ba0565b80156135c65780601f1061359b576101008083540402835291602001916135c6565b820191906000526020600020905b8154815290600101906020018083116135a957829003601f168201915b50505050508152602001906001019061352e565b5050505081526020016006820160009054906101000a900460ff161515151581525050815250600260008573ffffffffffffffffffffffffffffffffffffffff1673ffffffffffffffffffffffffffffffffffffffff16815260200190815260200160002060008481526020019081526020016000206000820151816000015560208201518160010155604082015181600201556060820151816003016000820151816000015560208201518160010160006101000a81548173ffffffffffffffffffffffffffffffffffffffff021916908373ffffffffffffffffffffffffffffffffffffffff16021790555060408201518160020190805190602001906136e49291906138e9565b5060608201518160030190805190602001906137019291906138e9565b50608082015181600401908051906020019061371e9291906138e9565b5060a082015181600501908051906020019061373b92919061396f565b5060c08201518160060160006101000a81548160ff02191690831515021790555050509050506001600260008573ffffffffffffffffffffffffffffffffffffffff1673ffffffffffffffffffffffffffffffffffffffff168152602001908152602001600020600084815260200190815260200160002060030160060160006101000a81548160ff0219169083151502179055506001600583815481106137e6576137e5614cd9565b5b906000526020600020906007020160060160006101000a81548160ff021916908315150217905550600360008473ffffffffffffffffffffffffffffffffffffffff1673ffffffffffffffffffffffffffffffffffffffff16815260200190815260200160002060008381526020019081526020016000206000808201600090556001820160006101000a81549073ffffffffffffffffffffffffffffffffffffffff021916905560028201600061389e9190613b47565b6003820160006138ae9190613b47565b6004820160006138be9190613b47565b6005820160006138ce9190613b87565b6006820160006101000a81549060ff02191690555050505050565b8280546138f590614ba0565b90600052602060002090601f016020900481019282613917576000855561395e565b82601f1061393057805160ff191683800117855561395e565b8280016001018555821561395e579182015b8281111561395d578251825591602001919060010190613942565b5b50905061396b9190613ba8565b5090565b8280548282559060005260206000209081019282156139be579160200282015b828111156139bd5782518290805190602001906139ad9291906138e9565b509160200191906001019061398f565b5b5090506139cb9190613bc5565b5090565b6040518060e0016040528060008152602001600073ffffffffffffffffffffffffffffffffffffffff168152602001606081526020016060815260200160608152602001606081526020016000151581525090565b6040518060800160405280600081526020016000815260200160008152602001613a4c6139cf565b81525090565b828054613a5e90614ba0565b90600052602060002090601f016020900481019282613a805760008555613ace565b82601f10613a915780548555613ace565b82800160010185558215613ace57600052602060002091601f016020900482015b82811115613acd578254825591600101919060010190613ab2565b5b509050613adb9190613ba8565b5090565b828054828255906000526020600020908101928215613b365760005260206000209182015b82811115613b35578282908054613b1a90614ba0565b613b25929190613a52565b5091600101919060010190613b04565b5b509050613b439190613bc5565b5090565b508054613b5390614ba0565b6000825580601f10613b655750613b84565b601f016020900490600052602060002090810190613b839190613ba8565b5b50565b5080546000825590600052602060002090810190613ba59190613bc5565b50565b5b80821115613bc1576000816000905550600101613ba9565b5090565b5b80821115613be55760008181613bdc9190613b47565b50600101613bc6565b5090565b6000613bfc613bf7846148b6565b614891565b90508083825260208201905082856020860282011115613c1f57613c1e614d3c565b5b60005b85811015613c6d57813567ffffffffffffffff811115613c4557613c44614d37565b5b808601613c528982613cfc565b85526020850194506020840193505050600181019050613c22565b5050509392505050565b6000613c8a613c85846148e2565b614891565b905082815260208101848484011115613ca657613ca5614d41565b5b613cb1848285614b5e565b509392505050565b600081359050613cc881614ecc565b92915050565b600082601f830112613ce357613ce2614d37565b5b8135613cf3848260208601613be9565b91505092915050565b600082601f830112613d1157613d10614d37565b5b8135613d21848260208601613c77565b91505092915050565b600081359050613d3981614ee3565b92915050565b600060208284031215613d5557613d54614d4b565b5b6000613d6384828501613cb9565b91505092915050565b60008060408385031215613d8357613d82614d4b565b5b6000613d9185828601613cb9565b9250506020613da285828601613d2a565b9150509250929050565b60008060008060008060c08789031215613dc957613dc8614d4b565b5b600087013567ffffffffffffffff811115613de757613de6614d46565b5b613df389828a01613cfc565b965050602087013567ffffffffffffffff811115613e1457613e13614d46565b5b613e2089828a01613cfc565b9550506040613e3189828a01613cb9565b9450506060613e4289828a01613d2a565b9350506080613e5389828a01613d2a565b92505060a0613e6489828a01613d2a565b9150509295509295509295565b60008060008060808587031215613e8b57613e8a614d4b565b5b600085013567ffffffffffffffff811115613ea957613ea8614d46565b5b613eb587828801613cfc565b945050602085013567ffffffffffffffff811115613ed657613ed5614d46565b5b613ee287828801613cfc565b935050604085013567ffffffffffffffff811115613f0357613f02614d46565b5b613f0f87828801613cfc565b925050606085013567ffffffffffffffff811115613f3057613f2f614d46565b5b613f3c87828801613cce565b91505092959194509250565b600080600080600060a08688031215613f6457613f63614d4b565b5b600086013567ffffffffffffffff811115613f8257613f81614d46565b5b613f8e88828901613cfc565b955050602086013567ffffffffffffffff811115613faf57613fae614d46565b5b613fbb88828901613cfc565b945050604086013567ffffffffffffffff811115613fdc57613fdb614d46565b5b613fe888828901613cfc565b935050606086013567ffffffffffffffff81111561400957614008614d46565b5b61401588828901613cce565b925050608061402688828901613d2a565b9150509295509295909350565b60006020828403121561404957614048614d4b565b5b600061405784828501613d2a565b91505092915050565b6000806040838503121561407757614076614d4b565b5b600061408585828601613d2a565b925050602061409685828601613cb9565b9150509250929050565b600080604083850312156140b7576140b6614d4b565b5b60006140c585828601613d2a565b92505060206140d685828601613d2a565b9150509250929050565b60006140ec8383614295565b905092915050565b60006141008383614417565b905092915050565b600061411483836145dc565b60a08301905092915050565b61412981614b16565b82525050565b61413881614b16565b82525050565b600061414982614943565b6141538185614996565b93508360208202850161416585614913565b8060005b858110156141a1578484038952815161418285826140e0565b945061418d8361496f565b925060208a01995050600181019050614169565b50829750879550505050505092915050565b60006141be8261494e565b6141c881856149a7565b9350836020820285016141da85614923565b8060005b8581101561421657848403895281516141f785826140f4565b94506142028361497c565b925060208a019950506001810190506141de565b50829750879550505050505092915050565b600061423382614959565b61423d81856149b8565b935061424883614933565b8060005b838110156142795781516142608882614108565b975061426b83614989565b92505060018101905061424c565b5085935050505092915050565b61428f81614b28565b82525050565b60006142a082614964565b6142aa81856149d4565b93506142ba818560208601614b6d565b6142c381614d50565b840191505092915050565b60006142d982614964565b6142e381856149f6565b93506142f3818560208601614b6d565b80840191505092915050565b600061430c6026836149e5565b915061431782614d61565b604082019050919050565b600061432f6033836149e5565b915061433a82614db0565b604082019050919050565b60006143526013836149e5565b915061435d82614dff565b602082019050919050565b60006143756020836149e5565b915061438082614e28565b602082019050919050565b60006143986027836149e5565b91506143a382614e51565b604082019050919050565b60006143bb6000836149c9565b91506143c682614ea0565b600082019050919050565b60006143de6000836149f6565b91506143e982614ea0565b600082019050919050565b60006144016014836149e5565b915061440c82614ea3565b602082019050919050565b600060e08301600083015161442f6000860182614644565b5060208301516144426020860182614120565b506040830151848203604086015261445a8282614295565b915050606083015184820360608601526144748282614295565b9150506080830151848203608086015261448e8282614295565b91505060a083015184820360a08601526144a8828261413e565b91505060c08301516144bd60c0860182614286565b508091505092915050565b600060e0830160008301516144e06000860182614644565b5060208301516144f36020860182614120565b506040830151848203604086015261450b8282614295565b915050606083015184820360608601526145258282614295565b9150506080830151848203608086015261453f8282614295565b91505060a083015184820360a0860152614559828261413e565b91505060c083015161456e60c0860182614286565b508091505092915050565b60006080830160008301516145916000860182614644565b5060208301516145a46020860182614644565b5060408301516145b76040860182614644565b50606083015184820360608601526145cf8282614417565b9150508091505092915050565b60a0820160008201516145f26000850182614644565b5060208201516146056020850182614644565b5060408201516146186040850182614644565b50606082015161462b6060850182614120565b50608082015161463e6080850182614120565b50505050565b61464d81614b54565b82525050565b61465c81614b54565b82525050565b600061466e82846142ce565b915081905092915050565b6000614684826143ae565b9150819050919050565b6000614699826143d1565b9150819050919050565b60006020820190506146b8600083018461412f565b92915050565b600060208201905081810360008301526146d88184614228565b905092915050565b600060208201905081810360008301526146f9816142ff565b9050919050565b6000602082019050818103600083015261471981614322565b9050919050565b6000602082019050818103600083015261473981614345565b9050919050565b6000602082019050818103600083015261475981614368565b9050919050565b600060208201905081810360008301526147798161438b565b9050919050565b60006020820190508181036000830152614799816143f4565b9050919050565b600060208201905081810360008301526147ba8184614579565b905092915050565b60006040820190506147d76000830185614653565b81810360208301526147e981846141b3565b90509392505050565b600060a0820190506148076000830188614653565b6148146020830187614653565b6148216040830186614653565b61482e606083018561412f565b61483b608083018461412f565b9695505050505050565b600060808201905061485a6000830187614653565b6148676020830186614653565b6148746040830185614653565b818103606083015261488681846144c8565b905095945050505050565b600061489b6148ac565b90506148a78282614bd2565b919050565b6000604051905090565b600067ffffffffffffffff8211156148d1576148d0614d08565b5b602082029050602081019050919050565b600067ffffffffffffffff8211156148fd576148fc614d08565b5b61490682614d50565b9050602081019050919050565b6000819050602082019050919050565b6000819050602082019050919050565b6000819050602082019050919050565b600081519050919050565b600081519050919050565b600081519050919050565b600081519050919050565b6000602082019050919050565b6000602082019050919050565b6000602082019050919050565b600082825260208201905092915050565b600082825260208201905092915050565b600082825260208201905092915050565b600081905092915050565b600082825260208201905092915050565b600082825260208201905092915050565b600081905092915050565b6000614a0c82614b54565b9150614a1783614b54565b9250827fffffffffffffffffffffffffffffffffffffffffffffffffffffffffffffffff03821115614a4c57614a4b614c4c565b5b828201905092915050565b6000614a6282614b54565b9150614a6d83614b54565b925082614a7d57614a7c614c7b565b5b828204905092915050565b6000614a9382614b54565b9150614a9e83614b54565b9250817fffffffffffffffffffffffffffffffffffffffffffffffffffffffffffffffff0483118215151615614ad757614ad6614c4c565b5b828202905092915050565b6000614aed82614b54565b9150614af883614b54565b925082821015614b0b57614b0a614c4c565b5b828203905092915050565b6000614b2182614b34565b9050919050565b60008115159050919050565b600073ffffffffffffffffffffffffffffffffffffffff82169050919050565b6000819050919050565b82818337600083830152505050565b60005b83811015614b8b578082015181840152602081019050614b70565b83811115614b9a576000848401525b50505050565b60006002820490506001821680614bb857607f821691505b60208210811415614bcc57614bcb614caa565b5b50919050565b614bdb82614d50565b810181811067ffffffffffffffff82111715614bfa57614bf9614d08565b5b80604052505050565b6000614c0e82614b54565b91507fffffffffffffffffffffffffffffffffffffffffffffffffffffffffffffffff821415614c4157614c40614c4c565b5b600182019050919050565b7f4e487b7100000000000000000000000000000000000000000000000000000000600052601160045260246000fd5b7f4e487b7100000000000000000000000000000000000000000000000000000000600052601260045260246000fd5b7f4e487b7100000000000000000000000000000000000000000000000000000000600052602260045260246000fd5b7f4e487b7100000000000000000000000000000000000000000000000000000000600052603260045260246000fd5b7f4e487b7100000000000000000000000000000000000000000000000000000000600052604160045260246000fd5b600080fd5b600080fd5b600080fd5b600080fd5b600080fd5b6000601f19601f8301169050919050565b7f4f776e61626c653a206e6577206f776e657220697320746865207a65726f206160008201527f6464726573730000000000000000000000000000000000000000000000000000602082015250565b7f46656573207061796d656e74206661696c656420627574207472616e7361637460008201527f696f6e20776173207375636365737366756c2100000000000000000000000000602082015250565b7f5472616e73616374696f6e206661696c65642100000000000000000000000000600082015250565b7f4f776e61626c653a2063616c6c6572206973206e6f7420746865206f776e6572600082015250565b7f53656e646572206973206e6f7420746865206f776e6572206f6620746865207060008201527f726f647563742100000000000000000000000000000000000000000000000000602082015250565b50565b7f4e6f7420656e6f756768207765692073656e7421000000000000000000000000600082015250565b614ed581614b16565b8114614ee057600080fd5b50565b614eec81614b54565b8114614ef757600080fd5b5056fea2646970667358221220778eb5a96b30cc8134805c6f63a74750f27c6fcae4b35165df682ce0eee33eda64736f6c63430008070033",
					"opcodes": "PUSH1 0x80 PUSH1 0x40 MSTORE PUSH1 0x0 PUSH1 0x1 SSTORE PUSH1 0x2 PUSH1 0x6 SSTORE CALLVALUE DUP1 ISZERO PUSH3 0x1B JUMPI PUSH1 0x0 DUP1 REVERT JUMPDEST POP PUSH3 0x3C PUSH3 0x30 PUSH3 0x42 PUSH1 0x20 SHL PUSH1 0x20 SHR JUMP JUMPDEST PUSH3 0x4A PUSH1 0x20 SHL PUSH1 0x20 SHR JUMP JUMPDEST PUSH3 0x10E JUMP JUMPDEST PUSH1 0x0 CALLER SWAP1 POP SWAP1 JUMP JUMPDEST PUSH1 0x0 DUP1 PUSH1 0x0 SWAP1 SLOAD SWAP1 PUSH2 0x100 EXP SWAP1 DIV PUSH20 0xFFFFFFFFFFFFFFFFFFFFFFFFFFFFFFFFFFFFFFFF AND SWAP1 POP DUP2 PUSH1 0x0 DUP1 PUSH2 0x100 EXP DUP2 SLOAD DUP2 PUSH20 0xFFFFFFFFFFFFFFFFFFFFFFFFFFFFFFFFFFFFFFFF MUL NOT AND SWAP1 DUP4 PUSH20 0xFFFFFFFFFFFFFFFFFFFFFFFFFFFFFFFFFFFFFFFF AND MUL OR SWAP1 SSTORE POP DUP2 PUSH20 0xFFFFFFFFFFFFFFFFFFFFFFFFFFFFFFFFFFFFFFFF AND DUP2 PUSH20 0xFFFFFFFFFFFFFFFFFFFFFFFFFFFFFFFFFFFFFFFF AND PUSH32 0x8BE0079C531659141344CD1FD0A4F28419497F9722A3DAAFE3B4186F6B6457E0 PUSH1 0x40 MLOAD PUSH1 0x40 MLOAD DUP1 SWAP2 SUB SWAP1 LOG3 POP POP JUMP JUMPDEST PUSH2 0x4F30 DUP1 PUSH3 0x11E PUSH1 0x0 CODECOPY PUSH1 0x0 RETURN INVALID PUSH1 0x80 PUSH1 0x40 MSTORE PUSH1 0x4 CALLDATASIZE LT PUSH2 0xDD JUMPI PUSH1 0x0 CALLDATALOAD PUSH1 0xE0 SHR DUP1 PUSH4 0xA3274C21 GT PUSH2 0x7F JUMPI DUP1 PUSH4 0xDD46FA5D GT PUSH2 0x59 JUMPI DUP1 PUSH4 0xDD46FA5D EQ PUSH2 0x2CC JUMPI DUP1 PUSH4 0xE31465DF EQ PUSH2 0x2F5 JUMPI DUP1 PUSH4 0xF2FDE38B EQ PUSH2 0x31E JUMPI DUP1 PUSH4 0xFE3D5538 EQ PUSH2 0x347 JUMPI PUSH2 0xDD JUMP JUMPDEST DUP1 PUSH4 0xA3274C21 EQ PUSH2 0x24A JUMPI DUP1 PUSH4 0xAE06C1B7 EQ PUSH2 0x266 JUMPI DUP1 PUSH4 0xBED59EAE EQ PUSH2 0x28F JUMPI PUSH2 0xDD JUMP JUMPDEST DUP1 PUSH4 0x6D168461 GT PUSH2 0xBB JUMPI DUP1 PUSH4 0x6D168461 EQ PUSH2 0x18C JUMPI DUP1 PUSH4 0x715018A6 EQ PUSH2 0x1CA JUMPI DUP1 PUSH4 0x8DA5CB5B EQ PUSH2 0x1E1 JUMPI DUP1 PUSH4 0x9CCBFF6B EQ PUSH2 0x20C JUMPI PUSH2 0xDD JUMP JUMPDEST DUP1 PUSH4 0xE448C1E EQ PUSH2 0xE2 JUMPI DUP1 PUSH4 0x22634D21 EQ PUSH2 0x10B JUMPI DUP1 PUSH4 0x3A7D2376 EQ PUSH2 0x14B JUMPI JUMPDEST PUSH1 0x0 DUP1 REVERT JUMPDEST CALLVALUE DUP1 ISZERO PUSH2 0xEE JUMPI PUSH1 0x0 DUP1 REVERT JUMPDEST POP PUSH2 0x109 PUSH1 0x4 DUP1 CALLDATASIZE SUB DUP2 ADD SWAP1 PUSH2 0x104 SWAP2 SWAP1 PUSH2 0x3F48 JUMP JUMPDEST PUSH2 0x384 JUMP JUMPDEST STOP JUMPDEST CALLVALUE DUP1 ISZERO PUSH2 0x117 JUMPI PUSH1 0x0 DUP1 REVERT JUMPDEST POP PUSH2 0x132 PUSH1 0x4 DUP1 CALLDATASIZE SUB DUP2 ADD SWAP1 PUSH2 0x12D SWAP2 SWAP1 PUSH2 0x3D6C JUMP JUMPDEST PUSH2 0x6A6 JUMP JUMPDEST PUSH1 0x40 MLOAD PUSH2 0x142 SWAP5 SWAP4 SWAP3 SWAP2 SWAP1 PUSH2 0x4845 JUMP JUMPDEST PUSH1 0x40 MLOAD DUP1 SWAP2 SUB SWAP1 RETURN JUMPDEST CALLVALUE DUP1 ISZERO PUSH2 0x157 JUMPI PUSH1 0x0 DUP1 REVERT JUMPDEST POP PUSH2 0x172 PUSH1 0x4 DUP1 CALLDATASIZE SUB DUP2 ADD SWAP1 PUSH2 0x16D SWAP2 SWAP1 PUSH2 0x40A0 JUMP JUMPDEST PUSH2 0x9F7 JUMP JUMPDEST PUSH1 0x40 MLOAD PUSH2 0x183 SWAP6 SWAP5 SWAP4 SWAP3 SWAP2 SWAP1 PUSH2 0x47F2 JUMP JUMPDEST PUSH1 0x40 MLOAD DUP1 SWAP2 SUB SWAP1 RETURN JUMPDEST CALLVALUE DUP1 ISZERO PUSH2 0x198 JUMPI PUSH1 0x0 DUP1 REVERT JUMPDEST POP PUSH2 0x1B3 PUSH1 0x4 DUP1 CALLDATASIZE SUB DUP2 ADD SWAP1 PUSH2 0x1AE SWAP2 SWAP1 PUSH2 0x40A0 JUMP JUMPDEST PUSH2 0xA8A JUMP JUMPDEST PUSH1 0x40 MLOAD PUSH2 0x1C1 SWAP3 SWAP2 SWAP1 PUSH2 0x47C2 JUMP JUMPDEST PUSH1 0x40 MLOAD DUP1 SWAP2 SUB SWAP1 RETURN JUMPDEST CALLVALUE DUP1 ISZERO PUSH2 0x1D6 JUMPI PUSH1 0x0 DUP1 REVERT JUMPDEST POP PUSH2 0x1DF PUSH2 0xEC7 JUMP JUMPDEST STOP JUMPDEST CALLVALUE DUP1 ISZERO PUSH2 0x1ED JUMPI PUSH1 0x0 DUP1 REVERT JUMPDEST POP PUSH2 0x1F6 PUSH2 0xF4F JUMP JUMPDEST PUSH1 0x40 MLOAD PUSH2 0x203 SWAP2 SWAP1 PUSH2 0x46A3 JUMP JUMPDEST PUSH1 0x40 MLOAD DUP1 SWAP2 SUB SWAP1 RETURN JUMPDEST CALLVALUE DUP1 ISZERO PUSH2 0x218 JUMPI PUSH1 0x0 DUP1 REVERT JUMPDEST POP PUSH2 0x233 PUSH1 0x4 DUP1 CALLDATASIZE SUB DUP2 ADD SWAP1 PUSH2 0x22E SWAP2 SWAP1 PUSH2 0x3DAC JUMP JUMPDEST PUSH2 0xF78 JUMP JUMPDEST PUSH1 0x40 MLOAD PUSH2 0x241 SWAP3 SWAP2 SWAP1 PUSH2 0x47C2 JUMP JUMPDEST PUSH1 0x40 MLOAD DUP1 SWAP2 SUB SWAP1 RETURN JUMPDEST PUSH2 0x264 PUSH1 0x4 DUP1 CALLDATASIZE SUB DUP2 ADD SWAP1 PUSH2 0x25F SWAP2 SWAP1 PUSH2 0x4060 JUMP JUMPDEST PUSH2 0x17C4 JUMP JUMPDEST STOP JUMPDEST CALLVALUE DUP1 ISZERO PUSH2 0x272 JUMPI PUSH1 0x0 DUP1 REVERT JUMPDEST POP PUSH2 0x28D PUSH1 0x4 DUP1 CALLDATASIZE SUB DUP2 ADD SWAP1 PUSH2 0x288 SWAP2 SWAP1 PUSH2 0x4033 JUMP JUMPDEST PUSH2 0x1EB5 JUMP JUMPDEST STOP JUMPDEST CALLVALUE DUP1 ISZERO PUSH2 0x29B JUMPI PUSH1 0x0 DUP1 REVERT JUMPDEST POP PUSH2 0x2B6 PUSH1 0x4 DUP1 CALLDATASIZE SUB DUP2 ADD SWAP1 PUSH2 0x2B1 SWAP2 SWAP1 PUSH2 0x4033 JUMP JUMPDEST PUSH2 0x1F3B JUMP JUMPDEST PUSH1 0x40 MLOAD PUSH2 0x2C3 SWAP2 SWAP1 PUSH2 0x47A0 JUMP JUMPDEST PUSH1 0x40 MLOAD DUP1 SWAP2 SUB SWAP1 RETURN JUMPDEST CALLVALUE DUP1 ISZERO PUSH2 0x2D8 JUMPI PUSH1 0x0 DUP1 REVERT JUMPDEST POP PUSH2 0x2F3 PUSH1 0x4 DUP1 CALLDATASIZE SUB DUP2 ADD SWAP1 PUSH2 0x2EE SWAP2 SWAP1 PUSH2 0x3E71 JUMP JUMPDEST PUSH2 0x2636 JUMP JUMPDEST STOP JUMPDEST CALLVALUE DUP1 ISZERO PUSH2 0x301 JUMPI PUSH1 0x0 DUP1 REVERT JUMPDEST POP PUSH2 0x31C PUSH1 0x4 DUP1 CALLDATASIZE SUB DUP2 ADD SWAP1 PUSH2 0x317 SWAP2 SWAP1 PUSH2 0x40A0 JUMP JUMPDEST PUSH2 0x28F5 JUMP JUMPDEST STOP JUMPDEST CALLVALUE DUP1 ISZERO PUSH2 0x32A JUMPI PUSH1 0x0 DUP1 REVERT JUMPDEST POP PUSH2 0x345 PUSH1 0x4 DUP1 CALLDATASIZE SUB DUP2 ADD SWAP1 PUSH2 0x340 SWAP2 SWAP1 PUSH2 0x3D3F JUMP JUMPDEST PUSH2 0x29E5 JUMP JUMPDEST STOP JUMPDEST CALLVALUE DUP1 ISZERO PUSH2 0x353 JUMPI PUSH1 0x0 DUP1 REVERT JUMPDEST POP PUSH2 0x36E PUSH1 0x4 DUP1 CALLDATASIZE SUB DUP2 ADD SWAP1 PUSH2 0x369 SWAP2 SWAP1 PUSH2 0x4033 JUMP JUMPDEST PUSH2 0x2ADD JUMP JUMPDEST PUSH1 0x40 MLOAD PUSH2 0x37B SWAP2 SWAP1 PUSH2 0x46BE JUMP JUMPDEST PUSH1 0x40 MLOAD DUP1 SWAP2 SUB SWAP1 RETURN JUMPDEST PUSH1 0x0 PUSH1 0x1 PUSH1 0x0 DUP2 SLOAD DUP1 SWAP3 SWAP2 SWAP1 PUSH2 0x399 SWAP1 PUSH2 0x4C03 JUMP JUMPDEST SWAP2 SWAP1 POP SSTORE SWAP1 POP PUSH1 0x0 PUSH1 0x40 MLOAD DUP1 PUSH1 0xE0 ADD PUSH1 0x40 MSTORE DUP1 DUP4 DUP2 MSTORE PUSH1 0x20 ADD CALLER PUSH20 0xFFFFFFFFFFFFFFFFFFFFFFFFFFFFFFFFFFFFFFFF AND DUP2 MSTORE PUSH1 0x20 ADD DUP9 DUP2 MSTORE PUSH1 0x20 ADD DUP8 DUP2 MSTORE PUSH1 0x20 ADD DUP7 DUP2 MSTORE PUSH1 0x20 ADD DUP6 DUP2 MSTORE PUSH1 0x20 ADD PUSH1 0x1 ISZERO ISZERO DUP2 MSTORE POP SWAP1 POP PUSH1 0x5 DUP2 SWAP1 DUP1 PUSH1 0x1 DUP2 SLOAD ADD DUP1 DUP3 SSTORE DUP1 SWAP2 POP POP PUSH1 0x1 SWAP1 SUB SWAP1 PUSH1 0x0 MSTORE PUSH1 0x20 PUSH1 0x0 KECCAK256 SWAP1 PUSH1 0x7 MUL ADD PUSH1 0x0 SWAP1 SWAP2 SWAP1 SWAP2 SWAP1 SWAP2 POP PUSH1 0x0 DUP3 ADD MLOAD DUP2 PUSH1 0x0 ADD SSTORE PUSH1 0x20 DUP3 ADD MLOAD DUP2 PUSH1 0x1 ADD PUSH1 0x0 PUSH2 0x100 EXP DUP2 SLOAD DUP2 PUSH20 0xFFFFFFFFFFFFFFFFFFFFFFFFFFFFFFFFFFFFFFFF MUL NOT AND SWAP1 DUP4 PUSH20 0xFFFFFFFFFFFFFFFFFFFFFFFFFFFFFFFFFFFFFFFF AND MUL OR SWAP1 SSTORE POP PUSH1 0x40 DUP3 ADD MLOAD DUP2 PUSH1 0x2 ADD SWAP1 DUP1 MLOAD SWAP1 PUSH1 0x20 ADD SWAP1 PUSH2 0x488 SWAP3 SWAP2 SWAP1 PUSH2 0x38E9 JUMP JUMPDEST POP PUSH1 0x60 DUP3 ADD MLOAD DUP2 PUSH1 0x3 ADD SWAP1 DUP1 MLOAD SWAP1 PUSH1 0x20 ADD SWAP1 PUSH2 0x4A5 SWAP3 SWAP2 SWAP1 PUSH2 0x38E9 JUMP JUMPDEST POP PUSH1 0x80 DUP3 ADD MLOAD DUP2 PUSH1 0x4 ADD SWAP1 DUP1 MLOAD SWAP1 PUSH1 0x20 ADD SWAP1 PUSH2 0x4C2 SWAP3 SWAP2 SWAP1 PUSH2 0x38E9 JUMP JUMPDEST POP PUSH1 0xA0 DUP3 ADD MLOAD DUP2 PUSH1 0x5 ADD SWAP1 DUP1 MLOAD SWAP1 PUSH1 0x20 ADD SWAP1 PUSH2 0x4DF SWAP3 SWAP2 SWAP1 PUSH2 0x396F JUMP JUMPDEST POP PUSH1 0xC0 DUP3 ADD MLOAD DUP2 PUSH1 0x6 ADD PUSH1 0x0 PUSH2 0x100 EXP DUP2 SLOAD DUP2 PUSH1 0xFF MUL NOT AND SWAP1 DUP4 ISZERO ISZERO MUL OR SWAP1 SSTORE POP POP POP PUSH1 0x40 MLOAD DUP1 PUSH1 0x80 ADD PUSH1 0x40 MSTORE DUP1 DUP5 DUP2 MSTORE PUSH1 0x20 ADD PUSH1 0x64 PUSH1 0x6 SLOAD DUP7 PUSH2 0x523 SWAP2 SWAP1 PUSH2 0x4A88 JUMP JUMPDEST PUSH2 0x52D SWAP2 SWAP1 PUSH2 0x4A57 JUMP JUMPDEST DUP2 MSTORE PUSH1 0x20 ADD TIMESTAMP DUP2 MSTORE PUSH1 0x20 ADD DUP3 DUP2 MSTORE POP PUSH1 0x2 PUSH1 0x0 CALLER PUSH20 0xFFFFFFFFFFFFFFFFFFFFFFFFFFFFFFFFFFFFFFFF AND PUSH20 0xFFFFFFFFFFFFFFFFFFFFFFFFFFFFFFFFFFFFFFFF AND DUP2 MSTORE PUSH1 0x20 ADD SWAP1 DUP2 MSTORE PUSH1 0x20 ADD PUSH1 0x0 KECCAK256 PUSH1 0x0 DUP5 DUP2 MSTORE PUSH1 0x20 ADD SWAP1 DUP2 MSTORE PUSH1 0x20 ADD PUSH1 0x0 KECCAK256 PUSH1 0x0 DUP3 ADD MLOAD DUP2 PUSH1 0x0 ADD SSTORE PUSH1 0x20 DUP3 ADD MLOAD DUP2 PUSH1 0x1 ADD SSTORE PUSH1 0x40 DUP3 ADD MLOAD DUP2 PUSH1 0x2 ADD SSTORE PUSH1 0x60 DUP3 ADD MLOAD DUP2 PUSH1 0x3 ADD PUSH1 0x0 DUP3 ADD MLOAD DUP2 PUSH1 0x0 ADD SSTORE PUSH1 0x20 DUP3 ADD MLOAD DUP2 PUSH1 0x1 ADD PUSH1 0x0 PUSH2 0x100 EXP DUP2 SLOAD DUP2 PUSH20 0xFFFFFFFFFFFFFFFFFFFFFFFFFFFFFFFFFFFFFFFF MUL NOT AND SWAP1 DUP4 PUSH20 0xFFFFFFFFFFFFFFFFFFFFFFFFFFFFFFFFFFFFFFFF AND MUL OR SWAP1 SSTORE POP PUSH1 0x40 DUP3 ADD MLOAD DUP2 PUSH1 0x2 ADD SWAP1 DUP1 MLOAD SWAP1 PUSH1 0x20 ADD SWAP1 PUSH2 0x620 SWAP3 SWAP2 SWAP1 PUSH2 0x38E9 JUMP JUMPDEST POP PUSH1 0x60 DUP3 ADD MLOAD DUP2 PUSH1 0x3 ADD SWAP1 DUP1 MLOAD SWAP1 PUSH1 0x20 ADD SWAP1 PUSH2 0x63D SWAP3 SWAP2 SWAP1 PUSH2 0x38E9 JUMP JUMPDEST POP PUSH1 0x80 DUP3 ADD MLOAD DUP2 PUSH1 0x4 ADD SWAP1 DUP1 MLOAD SWAP1 PUSH1 0x20 ADD SWAP1 PUSH2 0x65A SWAP3 SWAP2 SWAP1 PUSH2 0x38E9 JUMP JUMPDEST POP PUSH1 0xA0 DUP3 ADD MLOAD DUP2 PUSH1 0x5 ADD SWAP1 DUP1 MLOAD SWAP1 PUSH1 0x20 ADD SWAP1 PUSH2 0x677 SWAP3 SWAP2 SWAP1 PUSH2 0x396F JUMP JUMPDEST POP PUSH1 0xC0 DUP3 ADD MLOAD DUP2 PUSH1 0x6 ADD PUSH1 0x0 PUSH2 0x100 EXP DUP2 SLOAD DUP2 PUSH1 0xFF MUL NOT AND SWAP1 DUP4 ISZERO ISZERO MUL OR SWAP1 SSTORE POP POP POP SWAP1 POP POP POP POP POP POP POP POP POP JUMP JUMPDEST PUSH1 0x2 PUSH1 0x20 MSTORE DUP2 PUSH1 0x0 MSTORE PUSH1 0x40 PUSH1 0x0 KECCAK256 PUSH1 0x20 MSTORE DUP1 PUSH1 0x0 MSTORE PUSH1 0x40 PUSH1 0x0 KECCAK256 PUSH1 0x0 SWAP2 POP SWAP2 POP POP DUP1 PUSH1 0x0 ADD SLOAD SWAP1 DUP1 PUSH1 0x1 ADD SLOAD SWAP1 DUP1 PUSH1 0x2 ADD SLOAD SWAP1 DUP1 PUSH1 0x3 ADD PUSH1 0x40 MLOAD DUP1 PUSH1 0xE0 ADD PUSH1 0x40 MSTORE SWAP1 DUP2 PUSH1 0x0 DUP3 ADD SLOAD DUP2 MSTORE PUSH1 0x20 ADD PUSH1 0x1 DUP3 ADD PUSH1 0x0 SWAP1 SLOAD SWAP1 PUSH2 0x100 EXP SWAP1 DIV PUSH20 0xFFFFFFFFFFFFFFFFFFFFFFFFFFFFFFFFFFFFFFFF AND PUSH20 0xFFFFFFFFFFFFFFFFFFFFFFFFFFFFFFFFFFFFFFFF AND PUSH20 0xFFFFFFFFFFFFFFFFFFFFFFFFFFFFFFFFFFFFFFFF AND DUP2 MSTORE PUSH1 0x20 ADD PUSH1 0x2 DUP3 ADD DUP1 SLOAD PUSH2 0x758 SWAP1 PUSH2 0x4BA0 JUMP JUMPDEST DUP1 PUSH1 0x1F ADD PUSH1 0x20 DUP1 SWAP2 DIV MUL PUSH1 0x20 ADD PUSH1 0x40 MLOAD SWAP1 DUP2 ADD PUSH1 0x40 MSTORE DUP1 SWAP3 SWAP2 SWAP1 DUP2 DUP2 MSTORE PUSH1 0x20 ADD DUP3 DUP1 SLOAD PUSH2 0x784 SWAP1 PUSH2 0x4BA0 JUMP JUMPDEST DUP1 ISZERO PUSH2 0x7D1 JUMPI DUP1 PUSH1 0x1F LT PUSH2 0x7A6 JUMPI PUSH2 0x100 DUP1 DUP4 SLOAD DIV MUL DUP4 MSTORE SWAP2 PUSH1 0x20 ADD SWAP2 PUSH2 0x7D1 JUMP JUMPDEST DUP3 ADD SWAP2 SWAP1 PUSH1 0x0 MSTORE PUSH1 0x20 PUSH1 0x0 KECCAK256 SWAP1 JUMPDEST DUP2 SLOAD DUP2 MSTORE SWAP1 PUSH1 0x1 ADD SWAP1 PUSH1 0x20 ADD DUP1 DUP4 GT PUSH2 0x7B4 JUMPI DUP3 SWAP1 SUB PUSH1 0x1F AND DUP3 ADD SWAP2 JUMPDEST POP POP POP POP POP DUP2 MSTORE PUSH1 0x20 ADD PUSH1 0x3 DUP3 ADD DUP1 SLOAD PUSH2 0x7EA SWAP1 PUSH2 0x4BA0 JUMP JUMPDEST DUP1 PUSH1 0x1F ADD PUSH1 0x20 DUP1 SWAP2 DIV MUL PUSH1 0x20 ADD PUSH1 0x40 MLOAD SWAP1 DUP2 ADD PUSH1 0x40 MSTORE DUP1 SWAP3 SWAP2 SWAP1 DUP2 DUP2 MSTORE PUSH1 0x20 ADD DUP3 DUP1 SLOAD PUSH2 0x816 SWAP1 PUSH2 0x4BA0 JUMP JUMPDEST DUP1 ISZERO PUSH2 0x863 JUMPI DUP1 PUSH1 0x1F LT PUSH2 0x838 JUMPI PUSH2 0x100 DUP1 DUP4 SLOAD DIV MUL DUP4 MSTORE SWAP2 PUSH1 0x20 ADD SWAP2 PUSH2 0x863 JUMP JUMPDEST DUP3 ADD SWAP2 SWAP1 PUSH1 0x0 MSTORE PUSH1 0x20 PUSH1 0x0 KECCAK256 SWAP1 JUMPDEST DUP2 SLOAD DUP2 MSTORE SWAP1 PUSH1 0x1 ADD SWAP1 PUSH1 0x20 ADD DUP1 DUP4 GT PUSH2 0x846 JUMPI DUP3 SWAP1 SUB PUSH1 0x1F AND DUP3 ADD SWAP2 JUMPDEST POP POP POP POP POP DUP2 MSTORE PUSH1 0x20 ADD PUSH1 0x4 DUP3 ADD DUP1 SLOAD PUSH2 0x87C SWAP1 PUSH2 0x4BA0 JUMP JUMPDEST DUP1 PUSH1 0x1F ADD PUSH1 0x20 DUP1 SWAP2 DIV MUL PUSH1 0x20 ADD PUSH1 0x40 MLOAD SWAP1 DUP2 ADD PUSH1 0x40 MSTORE DUP1 SWAP3 SWAP2 SWAP1 DUP2 DUP2 MSTORE PUSH1 0x20 ADD DUP3 DUP1 SLOAD PUSH2 0x8A8 SWAP1 PUSH2 0x4BA0 JUMP JUMPDEST DUP1 ISZERO PUSH2 0x8F5 JUMPI DUP1 PUSH1 0x1F LT PUSH2 0x8CA JUMPI PUSH2 0x100 DUP1 DUP4 SLOAD DIV MUL DUP4 MSTORE SWAP2 PUSH1 0x20 ADD SWAP2 PUSH2 0x8F5 JUMP JUMPDEST DUP3 ADD SWAP2 SWAP1 PUSH1 0x0 MSTORE PUSH1 0x20 PUSH1 0x0 KECCAK256 SWAP1 JUMPDEST DUP2 SLOAD DUP2 MSTORE SWAP1 PUSH1 0x1 ADD SWAP1 PUSH1 0x20 ADD DUP1 DUP4 GT PUSH2 0x8D8 JUMPI DUP3 SWAP1 SUB PUSH1 0x1F AND DUP3 ADD SWAP2 JUMPDEST POP POP POP POP POP DUP2 MSTORE PUSH1 0x20 ADD PUSH1 0x5 DUP3 ADD DUP1 SLOAD DUP1 PUSH1 0x20 MUL PUSH1 0x20 ADD PUSH1 0x40 MLOAD SWAP1 DUP2 ADD PUSH1 0x40 MSTORE DUP1 SWAP3 SWAP2 SWAP1 DUP2 DUP2 MSTORE PUSH1 0x20 ADD PUSH1 0x0 SWAP1 JUMPDEST DUP3 DUP3 LT ISZERO PUSH2 0x9CF JUMPI DUP4 DUP3 SWAP1 PUSH1 0x0 MSTORE PUSH1 0x20 PUSH1 0x0 KECCAK256 ADD DUP1 SLOAD PUSH2 0x942 SWAP1 PUSH2 0x4BA0 JUMP JUMPDEST DUP1 PUSH1 0x1F ADD PUSH1 0x20 DUP1 SWAP2 DIV MUL PUSH1 0x20 ADD PUSH1 0x40 MLOAD SWAP1 DUP2 ADD PUSH1 0x40 MSTORE DUP1 SWAP3 SWAP2 SWAP1 DUP2 DUP2 MSTORE PUSH1 0x20 ADD DUP3 DUP1 SLOAD PUSH2 0x96E SWAP1 PUSH2 0x4BA0 JUMP JUMPDEST DUP1 ISZERO PUSH2 0x9BB JUMPI DUP1 PUSH1 0x1F LT PUSH2 0x990 JUMPI PUSH2 0x100 DUP1 DUP4 SLOAD DIV MUL DUP4 MSTORE SWAP2 PUSH1 0x20 ADD SWAP2 PUSH2 0x9BB JUMP JUMPDEST DUP3 ADD SWAP2 SWAP1 PUSH1 0x0 MSTORE PUSH1 0x20 PUSH1 0x0 KECCAK256 SWAP1 JUMPDEST DUP2 SLOAD DUP2 MSTORE SWAP1 PUSH1 0x1 ADD SWAP1 PUSH1 0x20 ADD DUP1 DUP4 GT PUSH2 0x99E JUMPI DUP3 SWAP1 SUB PUSH1 0x1F AND DUP3 ADD SWAP2 JUMPDEST POP POP POP POP POP DUP2 MSTORE PUSH1 0x20 ADD SWAP1 PUSH1 0x1 ADD SWAP1 PUSH2 0x923 JUMP JUMPDEST POP POP POP POP DUP2 MSTORE PUSH1 0x20 ADD PUSH1 0x6 DUP3 ADD PUSH1 0x0 SWAP1 SLOAD SWAP1 PUSH2 0x100 EXP SWAP1 DIV PUSH1 0xFF AND ISZERO ISZERO ISZERO ISZERO DUP2 MSTORE POP POP SWAP1 POP DUP5 JUMP JUMPDEST PUSH1 0x4 PUSH1 0x20 MSTORE DUP2 PUSH1 0x0 MSTORE PUSH1 0x40 PUSH1 0x0 KECCAK256 DUP2 DUP2 SLOAD DUP2 LT PUSH2 0xA13 JUMPI PUSH1 0x0 DUP1 REVERT JUMPDEST SWAP1 PUSH1 0x0 MSTORE PUSH1 0x20 PUSH1 0x0 KECCAK256 SWAP1 PUSH1 0x5 MUL ADD PUSH1 0x0 SWAP2 POP SWAP2 POP POP DUP1 PUSH1 0x0 ADD SLOAD SWAP1 DUP1 PUSH1 0x1 ADD SLOAD SWAP1 DUP1 PUSH1 0x2 ADD SLOAD SWAP1 DUP1 PUSH1 0x3 ADD PUSH1 0x0 SWAP1 SLOAD SWAP1 PUSH2 0x100 EXP SWAP1 DIV PUSH20 0xFFFFFFFFFFFFFFFFFFFFFFFFFFFFFFFFFFFFFFFF AND SWAP1 DUP1 PUSH1 0x4 ADD PUSH1 0x0 SWAP1 SLOAD SWAP1 PUSH2 0x100 EXP SWAP1 DIV PUSH20 0xFFFFFFFFFFFFFFFFFFFFFFFFFFFFFFFFFFFFFFFF AND SWAP1 POP DUP6 JUMP JUMPDEST PUSH1 0x0 PUSH1 0x60 PUSH1 0x0 PUSH1 0x5 DUP1 SLOAD SWAP1 POP PUSH8 0xFFFFFFFFFFFFFFFF DUP2 GT ISZERO PUSH2 0xAAF JUMPI PUSH2 0xAAE PUSH2 0x4D08 JUMP JUMPDEST JUMPDEST PUSH1 0x40 MLOAD SWAP1 DUP1 DUP3 MSTORE DUP1 PUSH1 0x20 MUL PUSH1 0x20 ADD DUP3 ADD PUSH1 0x40 MSTORE DUP1 ISZERO PUSH2 0xAE8 JUMPI DUP2 PUSH1 0x20 ADD JUMPDEST PUSH2 0xAD5 PUSH2 0x39CF JUMP JUMPDEST DUP2 MSTORE PUSH1 0x20 ADD SWAP1 PUSH1 0x1 SWAP1 SUB SWAP1 DUP2 PUSH2 0xACD JUMPI SWAP1 POP JUMPDEST POP SWAP1 POP PUSH1 0x0 DUP1 DUP7 SWAP1 POP JUMPDEST PUSH1 0x5 DUP1 SLOAD SWAP1 POP DUP2 LT DUP1 ISZERO PUSH2 0xB05 JUMPI POP DUP6 DUP3 LT JUMPDEST ISZERO PUSH2 0xEB7 JUMPI PUSH1 0x5 DUP2 DUP2 SLOAD DUP2 LT PUSH2 0xB1E JUMPI PUSH2 0xB1D PUSH2 0x4CD9 JUMP JUMPDEST JUMPDEST SWAP1 PUSH1 0x0 MSTORE PUSH1 0x20 PUSH1 0x0 KECCAK256 SWAP1 PUSH1 0x7 MUL ADD PUSH1 0x6 ADD PUSH1 0x0 SWAP1 SLOAD SWAP1 PUSH2 0x100 EXP SWAP1 DIV PUSH1 0xFF AND ISZERO PUSH2 0xEA4 JUMPI PUSH1 0x5 DUP2 DUP2 SLOAD DUP2 LT PUSH2 0xB56 JUMPI PUSH2 0xB55 PUSH2 0x4CD9 JUMP JUMPDEST JUMPDEST SWAP1 PUSH1 0x0 MSTORE PUSH1 0x20 PUSH1 0x0 KECCAK256 SWAP1 PUSH1 0x7 MUL ADD PUSH1 0x40 MLOAD DUP1 PUSH1 0xE0 ADD PUSH1 0x40 MSTORE SWAP1 DUP2 PUSH1 0x0 DUP3 ADD SLOAD DUP2 MSTORE PUSH1 0x20 ADD PUSH1 0x1 DUP3 ADD PUSH1 0x0 SWAP1 SLOAD SWAP1 PUSH2 0x100 EXP SWAP1 DIV PUSH20 0xFFFFFFFFFFFFFFFFFFFFFFFFFFFFFFFFFFFFFFFF AND PUSH20 0xFFFFFFFFFFFFFFFFFFFFFFFFFFFFFFFFFFFFFFFF AND PUSH20 0xFFFFFFFFFFFFFFFFFFFFFFFFFFFFFFFFFFFFFFFF AND DUP2 MSTORE PUSH1 0x20 ADD PUSH1 0x2 DUP3 ADD DUP1 SLOAD PUSH2 0xBDF SWAP1 PUSH2 0x4BA0 JUMP JUMPDEST DUP1 PUSH1 0x1F ADD PUSH1 0x20 DUP1 SWAP2 DIV MUL PUSH1 0x20 ADD PUSH1 0x40 MLOAD SWAP1 DUP2 ADD PUSH1 0x40 MSTORE DUP1 SWAP3 SWAP2 SWAP1 DUP2 DUP2 MSTORE PUSH1 0x20 ADD DUP3 DUP1 SLOAD PUSH2 0xC0B SWAP1 PUSH2 0x4BA0 JUMP JUMPDEST DUP1 ISZERO PUSH2 0xC58 JUMPI DUP1 PUSH1 0x1F LT PUSH2 0xC2D JUMPI PUSH2 0x100 DUP1 DUP4 SLOAD DIV MUL DUP4 MSTORE SWAP2 PUSH1 0x20 ADD SWAP2 PUSH2 0xC58 JUMP JUMPDEST DUP3 ADD SWAP2 SWAP1 PUSH1 0x0 MSTORE PUSH1 0x20 PUSH1 0x0 KECCAK256 SWAP1 JUMPDEST DUP2 SLOAD DUP2 MSTORE SWAP1 PUSH1 0x1 ADD SWAP1 PUSH1 0x20 ADD DUP1 DUP4 GT PUSH2 0xC3B JUMPI DUP3 SWAP1 SUB PUSH1 0x1F AND DUP3 ADD SWAP2 JUMPDEST POP POP POP POP POP DUP2 MSTORE PUSH1 0x20 ADD PUSH1 0x3 DUP3 ADD DUP1 SLOAD PUSH2 0xC71 SWAP1 PUSH2 0x4BA0 JUMP JUMPDEST DUP1 PUSH1 0x1F ADD PUSH1 0x20 DUP1 SWAP2 DIV MUL PUSH1 0x20 ADD PUSH1 0x40 MLOAD SWAP1 DUP2 ADD PUSH1 0x40 MSTORE DUP1 SWAP3 SWAP2 SWAP1 DUP2 DUP2 MSTORE PUSH1 0x20 ADD DUP3 DUP1 SLOAD PUSH2 0xC9D SWAP1 PUSH2 0x4BA0 JUMP JUMPDEST DUP1 ISZERO PUSH2 0xCEA JUMPI DUP1 PUSH1 0x1F LT PUSH2 0xCBF JUMPI PUSH2 0x100 DUP1 DUP4 SLOAD DIV MUL DUP4 MSTORE SWAP2 PUSH1 0x20 ADD SWAP2 PUSH2 0xCEA JUMP JUMPDEST DUP3 ADD SWAP2 SWAP1 PUSH1 0x0 MSTORE PUSH1 0x20 PUSH1 0x0 KECCAK256 SWAP1 JUMPDEST DUP2 SLOAD DUP2 MSTORE SWAP1 PUSH1 0x1 ADD SWAP1 PUSH1 0x20 ADD DUP1 DUP4 GT PUSH2 0xCCD JUMPI DUP3 SWAP1 SUB PUSH1 0x1F AND DUP3 ADD SWAP2 JUMPDEST POP POP POP POP POP DUP2 MSTORE PUSH1 0x20 ADD PUSH1 0x4 DUP3 ADD DUP1 SLOAD PUSH2 0xD03 SWAP1 PUSH2 0x4BA0 JUMP JUMPDEST DUP1 PUSH1 0x1F ADD PUSH1 0x20 DUP1 SWAP2 DIV MUL PUSH1 0x20 ADD PUSH1 0x40 MLOAD SWAP1 DUP2 ADD PUSH1 0x40 MSTORE DUP1 SWAP3 SWAP2 SWAP1 DUP2 DUP2 MSTORE PUSH1 0x20 ADD DUP3 DUP1 SLOAD PUSH2 0xD2F SWAP1 PUSH2 0x4BA0 JUMP JUMPDEST DUP1 ISZERO PUSH2 0xD7C JUMPI DUP1 PUSH1 0x1F LT PUSH2 0xD51 JUMPI PUSH2 0x100 DUP1 DUP4 SLOAD DIV MUL DUP4 MSTORE SWAP2 PUSH1 0x20 ADD SWAP2 PUSH2 0xD7C JUMP JUMPDEST DUP3 ADD SWAP2 SWAP1 PUSH1 0x0 MSTORE PUSH1 0x20 PUSH1 0x0 KECCAK256 SWAP1 JUMPDEST DUP2 SLOAD DUP2 MSTORE SWAP1 PUSH1 0x1 ADD SWAP1 PUSH1 0x20 ADD DUP1 DUP4 GT PUSH2 0xD5F JUMPI DUP3 SWAP1 SUB PUSH1 0x1F AND DUP3 ADD SWAP2 JUMPDEST POP POP POP POP POP DUP2 MSTORE PUSH1 0x20 ADD PUSH1 0x5 DUP3 ADD DUP1 SLOAD DUP1 PUSH1 0x20 MUL PUSH1 0x20 ADD PUSH1 0x40 MLOAD SWAP1 DUP2 ADD PUSH1 0x40 MSTORE DUP1 SWAP3 SWAP2 SWAP1 DUP2 DUP2 MSTORE PUSH1 0x20 ADD PUSH1 0x0 SWAP1 JUMPDEST DUP3 DUP3 LT ISZERO PUSH2 0xE56 JUMPI DUP4 DUP3 SWAP1 PUSH1 0x0 MSTORE PUSH1 0x20 PUSH1 0x0 KECCAK256 ADD DUP1 SLOAD PUSH2 0xDC9 SWAP1 PUSH2 0x4BA0 JUMP JUMPDEST DUP1 PUSH1 0x1F ADD PUSH1 0x20 DUP1 SWAP2 DIV MUL PUSH1 0x20 ADD PUSH1 0x40 MLOAD SWAP1 DUP2 ADD PUSH1 0x40 MSTORE DUP1 SWAP3 SWAP2 SWAP1 DUP2 DUP2 MSTORE PUSH1 0x20 ADD DUP3 DUP1 SLOAD PUSH2 0xDF5 SWAP1 PUSH2 0x4BA0 JUMP JUMPDEST DUP1 ISZERO PUSH2 0xE42 JUMPI DUP1 PUSH1 0x1F LT PUSH2 0xE17 JUMPI PUSH2 0x100 DUP1 DUP4 SLOAD DIV MUL DUP4 MSTORE SWAP2 PUSH1 0x20 ADD SWAP2 PUSH2 0xE42 JUMP JUMPDEST DUP3 ADD SWAP2 SWAP1 PUSH1 0x0 MSTORE PUSH1 0x20 PUSH1 0x0 KECCAK256 SWAP1 JUMPDEST DUP2 SLOAD DUP2 MSTORE SWAP1 PUSH1 0x1 ADD SWAP1 PUSH1 0x20 ADD DUP1 DUP4 GT PUSH2 0xE25 JUMPI DUP3 SWAP1 SUB PUSH1 0x1F AND DUP3 ADD SWAP2 JUMPDEST POP POP POP POP POP DUP2 MSTORE PUSH1 0x20 ADD SWAP1 PUSH1 0x1 ADD SWAP1 PUSH2 0xDAA JUMP JUMPDEST POP POP POP POP DUP2 MSTORE PUSH1 0x20 ADD PUSH1 0x6 DUP3 ADD PUSH1 0x0 SWAP1 SLOAD SWAP1 PUSH2 0x100 EXP SWAP1 DIV PUSH1 0xFF AND ISZERO ISZERO ISZERO ISZERO DUP2 MSTORE POP POP DUP4 DUP4 DUP1 PUSH2 0xE85 SWAP1 PUSH2 0x4C03 JUMP JUMPDEST SWAP5 POP DUP2 MLOAD DUP2 LT PUSH2 0xE98 JUMPI PUSH2 0xE97 PUSH2 0x4CD9 JUMP JUMPDEST JUMPDEST PUSH1 0x20 MUL PUSH1 0x20 ADD ADD DUP2 SWAP1 MSTORE POP JUMPDEST DUP1 DUP1 PUSH2 0xEAF SWAP1 PUSH2 0x4C03 JUMP JUMPDEST SWAP2 POP POP PUSH2 0xAF2 JUMP JUMPDEST DUP1 DUP4 SWAP5 POP SWAP5 POP POP POP POP SWAP3 POP SWAP3 SWAP1 POP JUMP JUMPDEST PUSH2 0xECF PUSH2 0x2C19 JUMP JUMPDEST PUSH20 0xFFFFFFFFFFFFFFFFFFFFFFFFFFFFFFFFFFFFFFFF AND PUSH2 0xEED PUSH2 0xF4F JUMP JUMPDEST PUSH20 0xFFFFFFFFFFFFFFFFFFFFFFFFFFFFFFFFFFFFFFFF AND EQ PUSH2 0xF43 JUMPI PUSH1 0x40 MLOAD PUSH32 0x8C379A000000000000000000000000000000000000000000000000000000000 DUP2 MSTORE PUSH1 0x4 ADD PUSH2 0xF3A SWAP1 PUSH2 0x4740 JUMP JUMPDEST PUSH1 0x40 MLOAD DUP1 SWAP2 SUB SWAP1 REVERT JUMPDEST PUSH2 0xF4D PUSH1 0x0 PUSH2 0x2C21 JUMP JUMPDEST JUMP JUMPDEST PUSH1 0x0 DUP1 PUSH1 0x0 SWAP1 SLOAD SWAP1 PUSH2 0x100 EXP SWAP1 DIV PUSH20 0xFFFFFFFFFFFFFFFFFFFFFFFFFFFFFFFFFFFFFFFF AND SWAP1 POP SWAP1 JUMP JUMPDEST PUSH1 0x0 PUSH1 0x60 PUSH1 0x0 PUSH1 0x5 DUP1 SLOAD SWAP1 POP PUSH8 0xFFFFFFFFFFFFFFFF DUP2 GT ISZERO PUSH2 0xF9D JUMPI PUSH2 0xF9C PUSH2 0x4D08 JUMP JUMPDEST JUMPDEST PUSH1 0x40 MLOAD SWAP1 DUP1 DUP3 MSTORE DUP1 PUSH1 0x20 MUL PUSH1 0x20 ADD DUP3 ADD PUSH1 0x40 MSTORE DUP1 ISZERO PUSH2 0xFD6 JUMPI DUP2 PUSH1 0x20 ADD JUMPDEST PUSH2 0xFC3 PUSH2 0x39CF JUMP JUMPDEST DUP2 MSTORE PUSH1 0x20 ADD SWAP1 PUSH1 0x1 SWAP1 SUB SWAP1 DUP2 PUSH2 0xFBB JUMPI SWAP1 POP JUMPDEST POP SWAP1 POP PUSH1 0x0 DUP1 DUP7 SWAP1 POP JUMPDEST PUSH1 0x5 DUP1 SLOAD SWAP1 POP DUP2 LT DUP1 ISZERO PUSH2 0xFF3 JUMPI POP DUP6 DUP3 LT JUMPDEST ISZERO PUSH2 0x17B0 JUMPI PUSH1 0x5 DUP2 DUP2 SLOAD DUP2 LT PUSH2 0x100C JUMPI PUSH2 0x100B PUSH2 0x4CD9 JUMP JUMPDEST JUMPDEST SWAP1 PUSH1 0x0 MSTORE PUSH1 0x20 PUSH1 0x0 KECCAK256 SWAP1 PUSH1 0x7 MUL ADD PUSH1 0x6 ADD PUSH1 0x0 SWAP1 SLOAD SWAP1 PUSH2 0x100 EXP SWAP1 DIV PUSH1 0xFF AND PUSH2 0x1034 JUMPI PUSH2 0x179D JUMP JUMPDEST PUSH1 0x0 PUSH1 0x1 SWAP1 POP PUSH1 0x0 DUP12 PUSH1 0x40 MLOAD PUSH1 0x20 ADD PUSH2 0x104D SWAP2 SWAP1 PUSH2 0x4662 JUMP JUMPDEST PUSH1 0x40 MLOAD PUSH1 0x20 DUP2 DUP4 SUB SUB DUP2 MSTORE SWAP1 PUSH1 0x40 MSTORE DUP1 MLOAD SWAP1 PUSH1 0x20 ADD KECCAK256 SWAP1 POP PUSH1 0x40 MLOAD PUSH1 0x20 ADD PUSH2 0x1074 SWAP1 PUSH2 0x468E JUMP JUMPDEST PUSH1 0x40 MLOAD PUSH1 0x20 DUP2 DUP4 SUB SUB DUP2 MSTORE SWAP1 PUSH1 0x40 MSTORE DUP1 MLOAD SWAP1 PUSH1 0x20 ADD KECCAK256 DUP2 EQ PUSH2 0x1205 JUMPI PUSH1 0x0 PUSH1 0x5 DUP5 DUP2 SLOAD DUP2 LT PUSH2 0x10A6 JUMPI PUSH2 0x10A5 PUSH2 0x4CD9 JUMP JUMPDEST JUMPDEST SWAP1 PUSH1 0x0 MSTORE PUSH1 0x20 PUSH1 0x0 KECCAK256 SWAP1 PUSH1 0x7 MUL ADD PUSH1 0x5 ADD DUP1 SLOAD DUP1 PUSH1 0x20 MUL PUSH1 0x20 ADD PUSH1 0x40 MLOAD SWAP1 DUP2 ADD PUSH1 0x40 MSTORE DUP1 SWAP3 SWAP2 SWAP1 DUP2 DUP2 MSTORE PUSH1 0x20 ADD PUSH1 0x0 SWAP1 JUMPDEST DUP3 DUP3 LT ISZERO PUSH2 0x1183 JUMPI DUP4 DUP3 SWAP1 PUSH1 0x0 MSTORE PUSH1 0x20 PUSH1 0x0 KECCAK256 ADD DUP1 SLOAD PUSH2 0x10F6 SWAP1 PUSH2 0x4BA0 JUMP JUMPDEST DUP1 PUSH1 0x1F ADD PUSH1 0x20 DUP1 SWAP2 DIV MUL PUSH1 0x20 ADD PUSH1 0x40 MLOAD SWAP1 DUP2 ADD PUSH1 0x40 MSTORE DUP1 SWAP3 SWAP2 SWAP1 DUP2 DUP2 MSTORE PUSH1 0x20 ADD DUP3 DUP1 SLOAD PUSH2 0x1122 SWAP1 PUSH2 0x4BA0 JUMP JUMPDEST DUP1 ISZERO PUSH2 0x116F JUMPI DUP1 PUSH1 0x1F LT PUSH2 0x1144 JUMPI PUSH2 0x100 DUP1 DUP4 SLOAD DIV MUL DUP4 MSTORE SWAP2 PUSH1 0x20 ADD SWAP2 PUSH2 0x116F JUMP JUMPDEST DUP3 ADD SWAP2 SWAP1 PUSH1 0x0 MSTORE PUSH1 0x20 PUSH1 0x0 KECCAK256 SWAP1 JUMPDEST DUP2 SLOAD DUP2 MSTORE SWAP1 PUSH1 0x1 ADD SWAP1 PUSH1 0x20 ADD DUP1 DUP4 GT PUSH2 0x1152 JUMPI DUP3 SWAP1 SUB PUSH1 0x1F AND DUP3 ADD SWAP2 JUMPDEST POP POP POP POP POP DUP2 MSTORE PUSH1 0x20 ADD SWAP1 PUSH1 0x1 ADD SWAP1 PUSH2 0x10D7 JUMP JUMPDEST POP POP POP POP SWAP1 POP PUSH1 0x0 JUMPDEST DUP2 MLOAD DUP2 LT ISZERO PUSH2 0x11F5 JUMPI DUP2 DUP2 DUP2 MLOAD DUP2 LT PUSH2 0x11A8 JUMPI PUSH2 0x11A7 PUSH2 0x4CD9 JUMP JUMPDEST JUMPDEST PUSH1 0x20 MUL PUSH1 0x20 ADD ADD MLOAD PUSH1 0x40 MLOAD PUSH1 0x20 ADD PUSH2 0x11C0 SWAP2 SWAP1 PUSH2 0x4662 JUMP JUMPDEST PUSH1 0x40 MLOAD PUSH1 0x20 DUP2 DUP4 SUB SUB DUP2 MSTORE SWAP1 PUSH1 0x40 MSTORE DUP1 MLOAD SWAP1 PUSH1 0x20 ADD KECCAK256 DUP4 EQ ISZERO PUSH2 0x11E2 JUMPI PUSH2 0x11F5 JUMP JUMPDEST DUP1 DUP1 PUSH2 0x11ED SWAP1 PUSH2 0x4C03 JUMP JUMPDEST SWAP2 POP POP PUSH2 0x118C JUMP JUMPDEST DUP2 MLOAD DUP2 LT PUSH2 0x1202 JUMPI PUSH1 0x0 SWAP4 POP JUMPDEST POP POP JUMPDEST DUP2 DUP1 ISZERO PUSH2 0x12BA JUMPI POP PUSH1 0x0 PUSH20 0xFFFFFFFFFFFFFFFFFFFFFFFFFFFFFFFFFFFFFFFF AND DUP12 PUSH20 0xFFFFFFFFFFFFFFFFFFFFFFFFFFFFFFFFFFFFFFFF AND EQ ISZERO DUP1 PUSH2 0x12B9 JUMPI POP PUSH1 0x5 DUP4 DUP2 SLOAD DUP2 LT PUSH2 0x1258 JUMPI PUSH2 0x1257 PUSH2 0x4CD9 JUMP JUMPDEST JUMPDEST SWAP1 PUSH1 0x0 MSTORE PUSH1 0x20 PUSH1 0x0 KECCAK256 SWAP1 PUSH1 0x7 MUL ADD PUSH1 0x1 ADD PUSH1 0x0 SWAP1 SLOAD SWAP1 PUSH2 0x100 EXP SWAP1 DIV PUSH20 0xFFFFFFFFFFFFFFFFFFFFFFFFFFFFFFFFFFFFFFFF AND PUSH20 0xFFFFFFFFFFFFFFFFFFFFFFFFFFFFFFFFFFFFFFFF AND DUP12 PUSH20 0xFFFFFFFFFFFFFFFFFFFFFFFFFFFFFFFFFFFFFFFF AND EQ JUMPDEST JUMPDEST DUP1 ISZERO PUSH2 0x136A JUMPI POP PUSH1 0x0 DUP11 EQ ISZERO DUP1 PUSH2 0x1369 JUMPI POP PUSH1 0x2 PUSH1 0x0 PUSH1 0x5 DUP6 DUP2 SLOAD DUP2 LT PUSH2 0x12E4 JUMPI PUSH2 0x12E3 PUSH2 0x4CD9 JUMP JUMPDEST JUMPDEST SWAP1 PUSH1 0x0 MSTORE PUSH1 0x20 PUSH1 0x0 KECCAK256 SWAP1 PUSH1 0x7 MUL ADD PUSH1 0x1 ADD PUSH1 0x0 SWAP1 SLOAD SWAP1 PUSH2 0x100 EXP SWAP1 DIV PUSH20 0xFFFFFFFFFFFFFFFFFFFFFFFFFFFFFFFFFFFFFFFF AND PUSH20 0xFFFFFFFFFFFFFFFFFFFFFFFFFFFFFFFFFFFFFFFF AND PUSH20 0xFFFFFFFFFFFFFFFFFFFFFFFFFFFFFFFFFFFFFFFF AND DUP2 MSTORE PUSH1 0x20 ADD SWAP1 DUP2 MSTORE PUSH1 0x20 ADD PUSH1 0x0 KECCAK256 PUSH1 0x0 DUP5 DUP2 MSTORE PUSH1 0x20 ADD SWAP1 DUP2 MSTORE PUSH1 0x20 ADD PUSH1 0x0 KECCAK256 PUSH1 0x2 ADD SLOAD DUP11 GT ISZERO JUMPDEST JUMPDEST DUP1 ISZERO PUSH2 0x1429 JUMPI POP PUSH2 0x1428 DUP14 PUSH1 0x5 DUP6 DUP2 SLOAD DUP2 LT PUSH2 0x1389 JUMPI PUSH2 0x1388 PUSH2 0x4CD9 JUMP JUMPDEST JUMPDEST SWAP1 PUSH1 0x0 MSTORE PUSH1 0x20 PUSH1 0x0 KECCAK256 SWAP1 PUSH1 0x7 MUL ADD PUSH1 0x2 ADD DUP1 SLOAD PUSH2 0x13A5 SWAP1 PUSH2 0x4BA0 JUMP JUMPDEST DUP1 PUSH1 0x1F ADD PUSH1 0x20 DUP1 SWAP2 DIV MUL PUSH1 0x20 ADD PUSH1 0x40 MLOAD SWAP1 DUP2 ADD PUSH1 0x40 MSTORE DUP1 SWAP3 SWAP2 SWAP1 DUP2 DUP2 MSTORE PUSH1 0x20 ADD DUP3 DUP1 SLOAD PUSH2 0x13D1 SWAP1 PUSH2 0x4BA0 JUMP JUMPDEST DUP1 ISZERO PUSH2 0x141E JUMPI DUP1 PUSH1 0x1F LT PUSH2 0x13F3 JUMPI PUSH2 0x100 DUP1 DUP4 SLOAD DIV MUL DUP4 MSTORE SWAP2 PUSH1 0x20 ADD SWAP2 PUSH2 0x141E JUMP JUMPDEST DUP3 ADD SWAP2 SWAP1 PUSH1 0x0 MSTORE PUSH1 0x20 PUSH1 0x0 KECCAK256 SWAP1 JUMPDEST DUP2 SLOAD DUP2 MSTORE SWAP1 PUSH1 0x1 ADD SWAP1 PUSH1 0x20 ADD DUP1 DUP4 GT PUSH2 0x1401 JUMPI DUP3 SWAP1 SUB PUSH1 0x1F AND DUP3 ADD SWAP2 JUMPDEST POP POP POP POP POP PUSH2 0x2CE5 JUMP JUMPDEST JUMPDEST PUSH2 0x1432 JUMPI PUSH1 0x0 SWAP2 POP JUMPDEST DUP2 ISZERO PUSH2 0x179A JUMPI PUSH1 0x5 DUP4 DUP2 SLOAD DUP2 LT PUSH2 0x144C JUMPI PUSH2 0x144B PUSH2 0x4CD9 JUMP JUMPDEST JUMPDEST SWAP1 PUSH1 0x0 MSTORE PUSH1 0x20 PUSH1 0x0 KECCAK256 SWAP1 PUSH1 0x7 MUL ADD PUSH1 0x40 MLOAD DUP1 PUSH1 0xE0 ADD PUSH1 0x40 MSTORE SWAP1 DUP2 PUSH1 0x0 DUP3 ADD SLOAD DUP2 MSTORE PUSH1 0x20 ADD PUSH1 0x1 DUP3 ADD PUSH1 0x0 SWAP1 SLOAD SWAP1 PUSH2 0x100 EXP SWAP1 DIV PUSH20 0xFFFFFFFFFFFFFFFFFFFFFFFFFFFFFFFFFFFFFFFF AND PUSH20 0xFFFFFFFFFFFFFFFFFFFFFFFFFFFFFFFFFFFFFFFF AND PUSH20 0xFFFFFFFFFFFFFFFFFFFFFFFFFFFFFFFFFFFFFFFF AND DUP2 MSTORE PUSH1 0x20 ADD PUSH1 0x2 DUP3 ADD DUP1 SLOAD PUSH2 0x14D5 SWAP1 PUSH2 0x4BA0 JUMP JUMPDEST DUP1 PUSH1 0x1F ADD PUSH1 0x20 DUP1 SWAP2 DIV MUL PUSH1 0x20 ADD PUSH1 0x40 MLOAD SWAP1 DUP2 ADD PUSH1 0x40 MSTORE DUP1 SWAP3 SWAP2 SWAP1 DUP2 DUP2 MSTORE PUSH1 0x20 ADD DUP3 DUP1 SLOAD PUSH2 0x1501 SWAP1 PUSH2 0x4BA0 JUMP JUMPDEST DUP1 ISZERO PUSH2 0x154E JUMPI DUP1 PUSH1 0x1F LT PUSH2 0x1523 JUMPI PUSH2 0x100 DUP1 DUP4 SLOAD DIV MUL DUP4 MSTORE SWAP2 PUSH1 0x20 ADD SWAP2 PUSH2 0x154E JUMP JUMPDEST DUP3 ADD SWAP2 SWAP1 PUSH1 0x0 MSTORE PUSH1 0x20 PUSH1 0x0 KECCAK256 SWAP1 JUMPDEST DUP2 SLOAD DUP2 MSTORE SWAP1 PUSH1 0x1 ADD SWAP1 PUSH1 0x20 ADD DUP1 DUP4 GT PUSH2 0x1531 JUMPI DUP3 SWAP1 SUB PUSH1 0x1F AND DUP3 ADD SWAP2 JUMPDEST POP POP POP POP POP DUP2 MSTORE PUSH1 0x20 ADD PUSH1 0x3 DUP3 ADD DUP1 SLOAD PUSH2 0x1567 SWAP1 PUSH2 0x4BA0 JUMP JUMPDEST DUP1 PUSH1 0x1F ADD PUSH1 0x20 DUP1 SWAP2 DIV MUL PUSH1 0x20 ADD PUSH1 0x40 MLOAD SWAP1 DUP2 ADD PUSH1 0x40 MSTORE DUP1 SWAP3 SWAP2 SWAP1 DUP2 DUP2 MSTORE PUSH1 0x20 ADD DUP3 DUP1 SLOAD PUSH2 0x1593 SWAP1 PUSH2 0x4BA0 JUMP JUMPDEST DUP1 ISZERO PUSH2 0x15E0 JUMPI DUP1 PUSH1 0x1F LT PUSH2 0x15B5 JUMPI PUSH2 0x100 DUP1 DUP4 SLOAD DIV MUL DUP4 MSTORE SWAP2 PUSH1 0x20 ADD SWAP2 PUSH2 0x15E0 JUMP JUMPDEST DUP3 ADD SWAP2 SWAP1 PUSH1 0x0 MSTORE PUSH1 0x20 PUSH1 0x0 KECCAK256 SWAP1 JUMPDEST DUP2 SLOAD DUP2 MSTORE SWAP1 PUSH1 0x1 ADD SWAP1 PUSH1 0x20 ADD DUP1 DUP4 GT PUSH2 0x15C3 JUMPI DUP3 SWAP1 SUB PUSH1 0x1F AND DUP3 ADD SWAP2 JUMPDEST POP POP POP POP POP DUP2 MSTORE PUSH1 0x20 ADD PUSH1 0x4 DUP3 ADD DUP1 SLOAD PUSH2 0x15F9 SWAP1 PUSH2 0x4BA0 JUMP JUMPDEST DUP1 PUSH1 0x1F ADD PUSH1 0x20 DUP1 SWAP2 DIV MUL PUSH1 0x20 ADD PUSH1 0x40 MLOAD SWAP1 DUP2 ADD PUSH1 0x40 MSTORE DUP1 SWAP3 SWAP2 SWAP1 DUP2 DUP2 MSTORE PUSH1 0x20 ADD DUP3 DUP1 SLOAD PUSH2 0x1625 SWAP1 PUSH2 0x4BA0 JUMP JUMPDEST DUP1 ISZERO PUSH2 0x1672 JUMPI DUP1 PUSH1 0x1F LT PUSH2 0x1647 JUMPI PUSH2 0x100 DUP1 DUP4 SLOAD DIV MUL DUP4 MSTORE SWAP2 PUSH1 0x20 ADD SWAP2 PUSH2 0x1672 JUMP JUMPDEST DUP3 ADD SWAP2 SWAP1 PUSH1 0x0 MSTORE PUSH1 0x20 PUSH1 0x0 KECCAK256 SWAP1 JUMPDEST DUP2 SLOAD DUP2 MSTORE SWAP1 PUSH1 0x1 ADD SWAP1 PUSH1 0x20 ADD DUP1 DUP4 GT PUSH2 0x1655 JUMPI DUP3 SWAP1 SUB PUSH1 0x1F AND DUP3 ADD SWAP2 JUMPDEST POP POP POP POP POP DUP2 MSTORE PUSH1 0x20 ADD PUSH1 0x5 DUP3 ADD DUP1 SLOAD DUP1 PUSH1 0x20 MUL PUSH1 0x20 ADD PUSH1 0x40 MLOAD SWAP1 DUP2 ADD PUSH1 0x40 MSTORE DUP1 SWAP3 SWAP2 SWAP1 DUP2 DUP2 MSTORE PUSH1 0x20 ADD PUSH1 0x0 SWAP1 JUMPDEST DUP3 DUP3 LT ISZERO PUSH2 0x174C JUMPI DUP4 DUP3 SWAP1 PUSH1 0x0 MSTORE PUSH1 0x20 PUSH1 0x0 KECCAK256 ADD DUP1 SLOAD PUSH2 0x16BF SWAP1 PUSH2 0x4BA0 JUMP JUMPDEST DUP1 PUSH1 0x1F ADD PUSH1 0x20 DUP1 SWAP2 DIV MUL PUSH1 0x20 ADD PUSH1 0x40 MLOAD SWAP1 DUP2 ADD PUSH1 0x40 MSTORE DUP1 SWAP3 SWAP2 SWAP1 DUP2 DUP2 MSTORE PUSH1 0x20 ADD DUP3 DUP1 SLOAD PUSH2 0x16EB SWAP1 PUSH2 0x4BA0 JUMP JUMPDEST DUP1 ISZERO PUSH2 0x1738 JUMPI DUP1 PUSH1 0x1F LT PUSH2 0x170D JUMPI PUSH2 0x100 DUP1 DUP4 SLOAD DIV MUL DUP4 MSTORE SWAP2 PUSH1 0x20 ADD SWAP2 PUSH2 0x1738 JUMP JUMPDEST DUP3 ADD SWAP2 SWAP1 PUSH1 0x0 MSTORE PUSH1 0x20 PUSH1 0x0 KECCAK256 SWAP1 JUMPDEST DUP2 SLOAD DUP2 MSTORE SWAP1 PUSH1 0x1 ADD SWAP1 PUSH1 0x20 ADD DUP1 DUP4 GT PUSH2 0x171B JUMPI DUP3 SWAP1 SUB PUSH1 0x1F AND DUP3 ADD SWAP2 JUMPDEST POP POP POP POP POP DUP2 MSTORE PUSH1 0x20 ADD SWAP1 PUSH1 0x1 ADD SWAP1 PUSH2 0x16A0 JUMP JUMPDEST POP POP POP POP DUP2 MSTORE PUSH1 0x20 ADD PUSH1 0x6 DUP3 ADD PUSH1 0x0 SWAP1 SLOAD SWAP1 PUSH2 0x100 EXP SWAP1 DIV PUSH1 0xFF AND ISZERO ISZERO ISZERO ISZERO DUP2 MSTORE POP POP DUP6 DUP6 DUP1 PUSH2 0x177B SWAP1 PUSH2 0x4C03 JUMP JUMPDEST SWAP7 POP DUP2 MLOAD DUP2 LT PUSH2 0x178E JUMPI PUSH2 0x178D PUSH2 0x4CD9 JUMP JUMPDEST JUMPDEST PUSH1 0x20 MUL PUSH1 0x20 ADD ADD DUP2 SWAP1 MSTORE POP JUMPDEST POP POP JUMPDEST DUP1 DUP1 PUSH2 0x17A8 SWAP1 PUSH2 0x4C03 JUMP JUMPDEST SWAP2 POP POP PUSH2 0xFE0 JUMP JUMPDEST DUP1 DUP4 SWAP5 POP SWAP5 POP POP POP POP SWAP7 POP SWAP7 SWAP5 POP POP POP POP POP JUMP JUMPDEST PUSH1 0x0 PUSH1 0x2 PUSH1 0x0 DUP4 PUSH20 0xFFFFFFFFFFFFFFFFFFFFFFFFFFFFFFFFFFFFFFFF AND PUSH20 0xFFFFFFFFFFFFFFFFFFFFFFFFFFFFFFFFFFFFFFFF AND DUP2 MSTORE PUSH1 0x20 ADD SWAP1 DUP2 MSTORE PUSH1 0x20 ADD PUSH1 0x0 KECCAK256 PUSH1 0x0 DUP5 DUP2 MSTORE PUSH1 0x20 ADD SWAP1 DUP2 MSTORE PUSH1 0x20 ADD PUSH1 0x0 KECCAK256 PUSH1 0x40 MLOAD DUP1 PUSH1 0x80 ADD PUSH1 0x40 MSTORE SWAP1 DUP2 PUSH1 0x0 DUP3 ADD SLOAD DUP2 MSTORE PUSH1 0x20 ADD PUSH1 0x1 DUP3 ADD SLOAD DUP2 MSTORE PUSH1 0x20 ADD PUSH1 0x2 DUP3 ADD SLOAD DUP2 MSTORE PUSH1 0x20 ADD PUSH1 0x3 DUP3 ADD PUSH1 0x40 MLOAD DUP1 PUSH1 0xE0 ADD PUSH1 0x40 MSTORE SWAP1 DUP2 PUSH1 0x0 DUP3 ADD SLOAD DUP2 MSTORE PUSH1 0x20 ADD PUSH1 0x1 DUP3 ADD PUSH1 0x0 SWAP1 SLOAD SWAP1 PUSH2 0x100 EXP SWAP1 DIV PUSH20 0xFFFFFFFFFFFFFFFFFFFFFFFFFFFFFFFFFFFFFFFF AND PUSH20 0xFFFFFFFFFFFFFFFFFFFFFFFFFFFFFFFFFFFFFFFF AND PUSH20 0xFFFFFFFFFFFFFFFFFFFFFFFFFFFFFFFFFFFFFFFF AND DUP2 MSTORE PUSH1 0x20 ADD PUSH1 0x2 DUP3 ADD DUP1 SLOAD PUSH2 0x18BF SWAP1 PUSH2 0x4BA0 JUMP JUMPDEST DUP1 PUSH1 0x1F ADD PUSH1 0x20 DUP1 SWAP2 DIV MUL PUSH1 0x20 ADD PUSH1 0x40 MLOAD SWAP1 DUP2 ADD PUSH1 0x40 MSTORE DUP1 SWAP3 SWAP2 SWAP1 DUP2 DUP2 MSTORE PUSH1 0x20 ADD DUP3 DUP1 SLOAD PUSH2 0x18EB SWAP1 PUSH2 0x4BA0 JUMP JUMPDEST DUP1 ISZERO PUSH2 0x1938 JUMPI DUP1 PUSH1 0x1F LT PUSH2 0x190D JUMPI PUSH2 0x100 DUP1 DUP4 SLOAD DIV MUL DUP4 MSTORE SWAP2 PUSH1 0x20 ADD SWAP2 PUSH2 0x1938 JUMP JUMPDEST DUP3 ADD SWAP2 SWAP1 PUSH1 0x0 MSTORE PUSH1 0x20 PUSH1 0x0 KECCAK256 SWAP1 JUMPDEST DUP2 SLOAD DUP2 MSTORE SWAP1 PUSH1 0x1 ADD SWAP1 PUSH1 0x20 ADD DUP1 DUP4 GT PUSH2 0x191B JUMPI DUP3 SWAP1 SUB PUSH1 0x1F AND DUP3 ADD SWAP2 JUMPDEST POP POP POP POP POP DUP2 MSTORE PUSH1 0x20 ADD PUSH1 0x3 DUP3 ADD DUP1 SLOAD PUSH2 0x1951 SWAP1 PUSH2 0x4BA0 JUMP JUMPDEST DUP1 PUSH1 0x1F ADD PUSH1 0x20 DUP1 SWAP2 DIV MUL PUSH1 0x20 ADD PUSH1 0x40 MLOAD SWAP1 DUP2 ADD PUSH1 0x40 MSTORE DUP1 SWAP3 SWAP2 SWAP1 DUP2 DUP2 MSTORE PUSH1 0x20 ADD DUP3 DUP1 SLOAD PUSH2 0x197D SWAP1 PUSH2 0x4BA0 JUMP JUMPDEST DUP1 ISZERO PUSH2 0x19CA JUMPI DUP1 PUSH1 0x1F LT PUSH2 0x199F JUMPI PUSH2 0x100 DUP1 DUP4 SLOAD DIV MUL DUP4 MSTORE SWAP2 PUSH1 0x20 ADD SWAP2 PUSH2 0x19CA JUMP JUMPDEST DUP3 ADD SWAP2 SWAP1 PUSH1 0x0 MSTORE PUSH1 0x20 PUSH1 0x0 KECCAK256 SWAP1 JUMPDEST DUP2 SLOAD DUP2 MSTORE SWAP1 PUSH1 0x1 ADD SWAP1 PUSH1 0x20 ADD DUP1 DUP4 GT PUSH2 0x19AD JUMPI DUP3 SWAP1 SUB PUSH1 0x1F AND DUP3 ADD SWAP2 JUMPDEST POP POP POP POP POP DUP2 MSTORE PUSH1 0x20 ADD PUSH1 0x4 DUP3 ADD DUP1 SLOAD PUSH2 0x19E3 SWAP1 PUSH2 0x4BA0 JUMP JUMPDEST DUP1 PUSH1 0x1F ADD PUSH1 0x20 DUP1 SWAP2 DIV MUL PUSH1 0x20 ADD PUSH1 0x40 MLOAD SWAP1 DUP2 ADD PUSH1 0x40 MSTORE DUP1 SWAP3 SWAP2 SWAP1 DUP2 DUP2 MSTORE PUSH1 0x20 ADD DUP3 DUP1 SLOAD PUSH2 0x1A0F SWAP1 PUSH2 0x4BA0 JUMP JUMPDEST DUP1 ISZERO PUSH2 0x1A5C JUMPI DUP1 PUSH1 0x1F LT PUSH2 0x1A31 JUMPI PUSH2 0x100 DUP1 DUP4 SLOAD DIV MUL DUP4 MSTORE SWAP2 PUSH1 0x20 ADD SWAP2 PUSH2 0x1A5C JUMP JUMPDEST DUP3 ADD SWAP2 SWAP1 PUSH1 0x0 MSTORE PUSH1 0x20 PUSH1 0x0 KECCAK256 SWAP1 JUMPDEST DUP2 SLOAD DUP2 MSTORE SWAP1 PUSH1 0x1 ADD SWAP1 PUSH1 0x20 ADD DUP1 DUP4 GT PUSH2 0x1A3F JUMPI DUP3 SWAP1 SUB PUSH1 0x1F AND DUP3 ADD SWAP2 JUMPDEST POP POP POP POP POP DUP2 MSTORE PUSH1 0x20 ADD PUSH1 0x5 DUP3 ADD DUP1 SLOAD DUP1 PUSH1 0x20 MUL PUSH1 0x20 ADD PUSH1 0x40 MLOAD SWAP1 DUP2 ADD PUSH1 0x40 MSTORE DUP1 SWAP3 SWAP2 SWAP1 DUP2 DUP2 MSTORE PUSH1 0x20 ADD PUSH1 0x0 SWAP1 JUMPDEST DUP3 DUP3 LT ISZERO PUSH2 0x1B36 JUMPI DUP4 DUP3 SWAP1 PUSH1 0x0 MSTORE PUSH1 0x20 PUSH1 0x0 KECCAK256 ADD DUP1 SLOAD PUSH2 0x1AA9 SWAP1 PUSH2 0x4BA0 JUMP JUMPDEST DUP1 PUSH1 0x1F ADD PUSH1 0x20 DUP1 SWAP2 DIV MUL PUSH1 0x20 ADD PUSH1 0x40 MLOAD SWAP1 DUP2 ADD PUSH1 0x40 MSTORE DUP1 SWAP3 SWAP2 SWAP1 DUP2 DUP2 MSTORE PUSH1 0x20 ADD DUP3 DUP1 SLOAD PUSH2 0x1AD5 SWAP1 PUSH2 0x4BA0 JUMP JUMPDEST DUP1 ISZERO PUSH2 0x1B22 JUMPI DUP1 PUSH1 0x1F LT PUSH2 0x1AF7 JUMPI PUSH2 0x100 DUP1 DUP4 SLOAD DIV MUL DUP4 MSTORE SWAP2 PUSH1 0x20 ADD SWAP2 PUSH2 0x1B22 JUMP JUMPDEST DUP3 ADD SWAP2 SWAP1 PUSH1 0x0 MSTORE PUSH1 0x20 PUSH1 0x0 KECCAK256 SWAP1 JUMPDEST DUP2 SLOAD DUP2 MSTORE SWAP1 PUSH1 0x1 ADD SWAP1 PUSH1 0x20 ADD DUP1 DUP4 GT PUSH2 0x1B05 JUMPI DUP3 SWAP1 SUB PUSH1 0x1F AND DUP3 ADD SWAP2 JUMPDEST POP POP POP POP POP DUP2 MSTORE PUSH1 0x20 ADD SWAP1 PUSH1 0x1 ADD SWAP1 PUSH2 0x1A8A JUMP JUMPDEST POP POP POP POP DUP2 MSTORE PUSH1 0x20 ADD PUSH1 0x6 DUP3 ADD PUSH1 0x0 SWAP1 SLOAD SWAP1 PUSH2 0x100 EXP SWAP1 DIV PUSH1 0xFF AND ISZERO ISZERO ISZERO ISZERO DUP2 MSTORE POP POP DUP2 MSTORE POP POP SWAP1 POP DUP2 PUSH20 0xFFFFFFFFFFFFFFFFFFFFFFFFFFFFFFFFFFFFFFFF AND DUP2 PUSH1 0x60 ADD MLOAD PUSH1 0x20 ADD MLOAD PUSH20 0xFFFFFFFFFFFFFFFFFFFFFFFFFFFFFFFFFFFFFFFF AND EQ DUP1 ISZERO PUSH2 0x1BB5 JUMPI POP DUP1 PUSH1 0x20 ADD MLOAD DUP2 PUSH1 0x0 ADD MLOAD PUSH2 0x1BB1 SWAP2 SWAP1 PUSH2 0x4A01 JUMP JUMPDEST CALLVALUE LT ISZERO JUMPDEST PUSH2 0x1BF4 JUMPI PUSH1 0x40 MLOAD PUSH32 0x8C379A000000000000000000000000000000000000000000000000000000000 DUP2 MSTORE PUSH1 0x4 ADD PUSH2 0x1BEB SWAP1 PUSH2 0x4780 JUMP JUMPDEST PUSH1 0x40 MLOAD DUP1 SWAP2 SUB SWAP1 REVERT JUMPDEST PUSH1 0x0 DUP3 PUSH20 0xFFFFFFFFFFFFFFFFFFFFFFFFFFFFFFFFFFFFFFFF AND DUP3 PUSH1 0x0 ADD MLOAD PUSH1 0x40 MLOAD PUSH2 0x1C1E SWAP1 PUSH2 0x4679 JUMP JUMPDEST PUSH1 0x0 PUSH1 0x40 MLOAD DUP1 DUP4 SUB DUP2 DUP6 DUP8 GAS CALL SWAP3 POP POP POP RETURNDATASIZE DUP1 PUSH1 0x0 DUP2 EQ PUSH2 0x1C5B JUMPI PUSH1 0x40 MLOAD SWAP2 POP PUSH1 0x1F NOT PUSH1 0x3F RETURNDATASIZE ADD AND DUP3 ADD PUSH1 0x40 MSTORE RETURNDATASIZE DUP3 MSTORE RETURNDATASIZE PUSH1 0x0 PUSH1 0x20 DUP5 ADD RETURNDATACOPY PUSH2 0x1C60 JUMP JUMPDEST PUSH1 0x60 SWAP2 POP JUMPDEST POP POP SWAP1 POP DUP1 PUSH2 0x1CA4 JUMPI PUSH1 0x40 MLOAD PUSH32 0x8C379A000000000000000000000000000000000000000000000000000000000 DUP2 MSTORE PUSH1 0x4 ADD PUSH2 0x1C9B SWAP1 PUSH2 0x4720 JUMP JUMPDEST PUSH1 0x40 MLOAD DUP1 SWAP2 SUB SWAP1 REVERT JUMPDEST PUSH1 0x4 PUSH1 0x0 DUP6 DUP2 MSTORE PUSH1 0x20 ADD SWAP1 DUP2 MSTORE PUSH1 0x20 ADD PUSH1 0x0 KECCAK256 PUSH1 0x40 MLOAD DUP1 PUSH1 0xA0 ADD PUSH1 0x40 MSTORE DUP1 DUP5 PUSH1 0x0 ADD MLOAD DUP2 MSTORE PUSH1 0x20 ADD DUP5 PUSH1 0x20 ADD MLOAD DUP2 MSTORE PUSH1 0x20 ADD DUP5 PUSH1 0x40 ADD MLOAD DUP2 MSTORE PUSH1 0x20 ADD DUP6 PUSH20 0xFFFFFFFFFFFFFFFFFFFFFFFFFFFFFFFFFFFFFFFF AND DUP2 MSTORE PUSH1 0x20 ADD CALLER PUSH20 0xFFFFFFFFFFFFFFFFFFFFFFFFFFFFFFFFFFFFFFFF AND DUP2 MSTORE POP SWAP1 DUP1 PUSH1 0x1 DUP2 SLOAD ADD DUP1 DUP3 SSTORE DUP1 SWAP2 POP POP PUSH1 0x1 SWAP1 SUB SWAP1 PUSH1 0x0 MSTORE PUSH1 0x20 PUSH1 0x0 KECCAK256 SWAP1 PUSH1 0x5 MUL ADD PUSH1 0x0 SWAP1 SWAP2 SWAP1 SWAP2 SWAP1 SWAP2 POP PUSH1 0x0 DUP3 ADD MLOAD DUP2 PUSH1 0x0 ADD SSTORE PUSH1 0x20 DUP3 ADD MLOAD DUP2 PUSH1 0x1 ADD SSTORE PUSH1 0x40 DUP3 ADD MLOAD DUP2 PUSH1 0x2 ADD SSTORE PUSH1 0x60 DUP3 ADD MLOAD DUP2 PUSH1 0x3 ADD PUSH1 0x0 PUSH2 0x100 EXP DUP2 SLOAD DUP2 PUSH20 0xFFFFFFFFFFFFFFFFFFFFFFFFFFFFFFFFFFFFFFFF MUL NOT AND SWAP1 DUP4 PUSH20 0xFFFFFFFFFFFFFFFFFFFFFFFFFFFFFFFFFFFFFFFF AND MUL OR SWAP1 SSTORE POP PUSH1 0x80 DUP3 ADD MLOAD DUP2 PUSH1 0x4 ADD PUSH1 0x0 PUSH2 0x100 EXP DUP2 SLOAD DUP2 PUSH20 0xFFFFFFFFFFFFFFFFFFFFFFFFFFFFFFFFFFFFFFFF MUL NOT AND SWAP1 DUP4 PUSH20 0xFFFFFFFFFFFFFFFFFFFFFFFFFFFFFFFFFFFFFFFF AND MUL OR SWAP1 SSTORE POP POP POP PUSH2 0x1DF8 DUP4 CALLER DUP7 PUSH2 0x2E0D JUMP JUMPDEST PUSH2 0x1E00 PUSH2 0xF4F JUMP JUMPDEST PUSH20 0xFFFFFFFFFFFFFFFFFFFFFFFFFFFFFFFFFFFFFFFF AND DUP3 PUSH1 0x20 ADD MLOAD PUSH1 0x40 MLOAD PUSH2 0x1E27 SWAP1 PUSH2 0x4679 JUMP JUMPDEST PUSH1 0x0 PUSH1 0x40 MLOAD DUP1 DUP4 SUB DUP2 DUP6 DUP8 GAS CALL SWAP3 POP POP POP RETURNDATASIZE DUP1 PUSH1 0x0 DUP2 EQ PUSH2 0x1E64 JUMPI PUSH1 0x40 MLOAD SWAP2 POP PUSH1 0x1F NOT PUSH1 0x3F RETURNDATASIZE ADD AND DUP3 ADD PUSH1 0x40 MSTORE RETURNDATASIZE DUP3 MSTORE RETURNDATASIZE PUSH1 0x0 PUSH1 0x20 DUP5 ADD RETURNDATACOPY PUSH2 0x1E69 JUMP JUMPDEST PUSH1 0x60 SWAP2 POP JUMPDEST POP POP DUP1 SWAP2 POP POP DUP1 PUSH2 0x1EAF JUMPI PUSH1 0x40 MLOAD PUSH32 0x8C379A000000000000000000000000000000000000000000000000000000000 DUP2 MSTORE PUSH1 0x4 ADD PUSH2 0x1EA6 SWAP1 PUSH2 0x4700 JUMP JUMPDEST PUSH1 0x40 MLOAD DUP1 SWAP2 SUB SWAP1 REVERT JUMPDEST POP POP POP POP JUMP JUMPDEST PUSH2 0x1EBD PUSH2 0x2C19 JUMP JUMPDEST PUSH20 0xFFFFFFFFFFFFFFFFFFFFFFFFFFFFFFFFFFFFFFFF AND PUSH2 0x1EDB PUSH2 0xF4F JUMP JUMPDEST PUSH20 0xFFFFFFFFFFFFFFFFFFFFFFFFFFFFFFFFFFFFFFFF AND EQ PUSH2 0x1F31 JUMPI PUSH1 0x40 MLOAD PUSH32 0x8C379A000000000000000000000000000000000000000000000000000000000 DUP2 MSTORE PUSH1 0x4 ADD PUSH2 0x1F28 SWAP1 PUSH2 0x4740 JUMP JUMPDEST PUSH1 0x40 MLOAD DUP1 SWAP2 SUB SWAP1 REVERT JUMPDEST DUP1 PUSH1 0x6 DUP2 SWAP1 SSTORE POP POP JUMP JUMPDEST PUSH2 0x1F43 PUSH2 0x3A24 JUMP JUMPDEST PUSH1 0x0 PUSH1 0x5 DUP4 DUP2 SLOAD DUP2 LT PUSH2 0x1F59 JUMPI PUSH2 0x1F58 PUSH2 0x4CD9 JUMP JUMPDEST JUMPDEST SWAP1 PUSH1 0x0 MSTORE PUSH1 0x20 PUSH1 0x0 KECCAK256 SWAP1 PUSH1 0x7 MUL ADD PUSH1 0x40 MLOAD DUP1 PUSH1 0xE0 ADD PUSH1 0x40 MSTORE SWAP1 DUP2 PUSH1 0x0 DUP3 ADD SLOAD DUP2 MSTORE PUSH1 0x20 ADD PUSH1 0x1 DUP3 ADD PUSH1 0x0 SWAP1 SLOAD SWAP1 PUSH2 0x100 EXP SWAP1 DIV PUSH20 0xFFFFFFFFFFFFFFFFFFFFFFFFFFFFFFFFFFFFFFFF AND PUSH20 0xFFFFFFFFFFFFFFFFFFFFFFFFFFFFFFFFFFFFFFFF AND PUSH20 0xFFFFFFFFFFFFFFFFFFFFFFFFFFFFFFFFFFFFFFFF AND DUP2 MSTORE PUSH1 0x20 ADD PUSH1 0x2 DUP3 ADD DUP1 SLOAD PUSH2 0x1FE2 SWAP1 PUSH2 0x4BA0 JUMP JUMPDEST DUP1 PUSH1 0x1F ADD PUSH1 0x20 DUP1 SWAP2 DIV MUL PUSH1 0x20 ADD PUSH1 0x40 MLOAD SWAP1 DUP2 ADD PUSH1 0x40 MSTORE DUP1 SWAP3 SWAP2 SWAP1 DUP2 DUP2 MSTORE PUSH1 0x20 ADD DUP3 DUP1 SLOAD PUSH2 0x200E SWAP1 PUSH2 0x4BA0 JUMP JUMPDEST DUP1 ISZERO PUSH2 0x205B JUMPI DUP1 PUSH1 0x1F LT PUSH2 0x2030 JUMPI PUSH2 0x100 DUP1 DUP4 SLOAD DIV MUL DUP4 MSTORE SWAP2 PUSH1 0x20 ADD SWAP2 PUSH2 0x205B JUMP JUMPDEST DUP3 ADD SWAP2 SWAP1 PUSH1 0x0 MSTORE PUSH1 0x20 PUSH1 0x0 KECCAK256 SWAP1 JUMPDEST DUP2 SLOAD DUP2 MSTORE SWAP1 PUSH1 0x1 ADD SWAP1 PUSH1 0x20 ADD DUP1 DUP4 GT PUSH2 0x203E JUMPI DUP3 SWAP1 SUB PUSH1 0x1F AND DUP3 ADD SWAP2 JUMPDEST POP POP POP POP POP DUP2 MSTORE PUSH1 0x20 ADD PUSH1 0x3 DUP3 ADD DUP1 SLOAD PUSH2 0x2074 SWAP1 PUSH2 0x4BA0 JUMP JUMPDEST DUP1 PUSH1 0x1F ADD PUSH1 0x20 DUP1 SWAP2 DIV MUL PUSH1 0x20 ADD PUSH1 0x40 MLOAD SWAP1 DUP2 ADD PUSH1 0x40 MSTORE DUP1 SWAP3 SWAP2 SWAP1 DUP2 DUP2 MSTORE PUSH1 0x20 ADD DUP3 DUP1 SLOAD PUSH2 0x20A0 SWAP1 PUSH2 0x4BA0 JUMP JUMPDEST DUP1 ISZERO PUSH2 0x20ED JUMPI DUP1 PUSH1 0x1F LT PUSH2 0x20C2 JUMPI PUSH2 0x100 DUP1 DUP4 SLOAD DIV MUL DUP4 MSTORE SWAP2 PUSH1 0x20 ADD SWAP2 PUSH2 0x20ED JUMP JUMPDEST DUP3 ADD SWAP2 SWAP1 PUSH1 0x0 MSTORE PUSH1 0x20 PUSH1 0x0 KECCAK256 SWAP1 JUMPDEST DUP2 SLOAD DUP2 MSTORE SWAP1 PUSH1 0x1 ADD SWAP1 PUSH1 0x20 ADD DUP1 DUP4 GT PUSH2 0x20D0 JUMPI DUP3 SWAP1 SUB PUSH1 0x1F AND DUP3 ADD SWAP2 JUMPDEST POP POP POP POP POP DUP2 MSTORE PUSH1 0x20 ADD PUSH1 0x4 DUP3 ADD DUP1 SLOAD PUSH2 0x2106 SWAP1 PUSH2 0x4BA0 JUMP JUMPDEST DUP1 PUSH1 0x1F ADD PUSH1 0x20 DUP1 SWAP2 DIV MUL PUSH1 0x20 ADD PUSH1 0x40 MLOAD SWAP1 DUP2 ADD PUSH1 0x40 MSTORE DUP1 SWAP3 SWAP2 SWAP1 DUP2 DUP2 MSTORE PUSH1 0x20 ADD DUP3 DUP1 SLOAD PUSH2 0x2132 SWAP1 PUSH2 0x4BA0 JUMP JUMPDEST DUP1 ISZERO PUSH2 0x217F JUMPI DUP1 PUSH1 0x1F LT PUSH2 0x2154 JUMPI PUSH2 0x100 DUP1 DUP4 SLOAD DIV MUL DUP4 MSTORE SWAP2 PUSH1 0x20 ADD SWAP2 PUSH2 0x217F JUMP JUMPDEST DUP3 ADD SWAP2 SWAP1 PUSH1 0x0 MSTORE PUSH1 0x20 PUSH1 0x0 KECCAK256 SWAP1 JUMPDEST DUP2 SLOAD DUP2 MSTORE SWAP1 PUSH1 0x1 ADD SWAP1 PUSH1 0x20 ADD DUP1 DUP4 GT PUSH2 0x2162 JUMPI DUP3 SWAP1 SUB PUSH1 0x1F AND DUP3 ADD SWAP2 JUMPDEST POP POP POP POP POP DUP2 MSTORE PUSH1 0x20 ADD PUSH1 0x5 DUP3 ADD DUP1 SLOAD DUP1 PUSH1 0x20 MUL PUSH1 0x20 ADD PUSH1 0x40 MLOAD SWAP1 DUP2 ADD PUSH1 0x40 MSTORE DUP1 SWAP3 SWAP2 SWAP1 DUP2 DUP2 MSTORE PUSH1 0x20 ADD PUSH1 0x0 SWAP1 JUMPDEST DUP3 DUP3 LT ISZERO PUSH2 0x2259 JUMPI DUP4 DUP3 SWAP1 PUSH1 0x0 MSTORE PUSH1 0x20 PUSH1 0x0 KECCAK256 ADD DUP1 SLOAD PUSH2 0x21CC SWAP1 PUSH2 0x4BA0 JUMP JUMPDEST DUP1 PUSH1 0x1F ADD PUSH1 0x20 DUP1 SWAP2 DIV MUL PUSH1 0x20 ADD PUSH1 0x40 MLOAD SWAP1 DUP2 ADD PUSH1 0x40 MSTORE DUP1 SWAP3 SWAP2 SWAP1 DUP2 DUP2 MSTORE PUSH1 0x20 ADD DUP3 DUP1 SLOAD PUSH2 0x21F8 SWAP1 PUSH2 0x4BA0 JUMP JUMPDEST DUP1 ISZERO PUSH2 0x2245 JUMPI DUP1 PUSH1 0x1F LT PUSH2 0x221A JUMPI PUSH2 0x100 DUP1 DUP4 SLOAD DIV MUL DUP4 MSTORE SWAP2 PUSH1 0x20 ADD SWAP2 PUSH2 0x2245 JUMP JUMPDEST DUP3 ADD SWAP2 SWAP1 PUSH1 0x0 MSTORE PUSH1 0x20 PUSH1 0x0 KECCAK256 SWAP1 JUMPDEST DUP2 SLOAD DUP2 MSTORE SWAP1 PUSH1 0x1 ADD SWAP1 PUSH1 0x20 ADD DUP1 DUP4 GT PUSH2 0x2228 JUMPI DUP3 SWAP1 SUB PUSH1 0x1F AND DUP3 ADD SWAP2 JUMPDEST POP POP POP POP POP DUP2 MSTORE PUSH1 0x20 ADD SWAP1 PUSH1 0x1 ADD SWAP1 PUSH2 0x21AD JUMP JUMPDEST POP POP POP POP DUP2 MSTORE PUSH1 0x20 ADD PUSH1 0x6 DUP3 ADD PUSH1 0x0 SWAP1 SLOAD SWAP1 PUSH2 0x100 EXP SWAP1 DIV PUSH1 0xFF AND ISZERO ISZERO ISZERO ISZERO DUP2 MSTORE POP POP SWAP1 POP PUSH1 0x1 ISZERO ISZERO DUP2 PUSH1 0xC0 ADD MLOAD ISZERO ISZERO EQ PUSH2 0x2293 JUMPI PUSH1 0x0 DUP1 REVERT JUMPDEST PUSH1 0x2 PUSH1 0x0 DUP3 PUSH1 0x20 ADD MLOAD PUSH20 0xFFFFFFFFFFFFFFFFFFFFFFFFFFFFFFFFFFFFFFFF AND PUSH20 0xFFFFFFFFFFFFFFFFFFFFFFFFFFFFFFFFFFFFFFFF AND DUP2 MSTORE PUSH1 0x20 ADD SWAP1 DUP2 MSTORE PUSH1 0x20 ADD PUSH1 0x0 KECCAK256 PUSH1 0x0 DUP5 DUP2 MSTORE PUSH1 0x20 ADD SWAP1 DUP2 MSTORE PUSH1 0x20 ADD PUSH1 0x0 KECCAK256 PUSH1 0x40 MLOAD DUP1 PUSH1 0x80 ADD PUSH1 0x40 MSTORE SWAP1 DUP2 PUSH1 0x0 DUP3 ADD SLOAD DUP2 MSTORE PUSH1 0x20 ADD PUSH1 0x1 DUP3 ADD SLOAD DUP2 MSTORE PUSH1 0x20 ADD PUSH1 0x2 DUP3 ADD SLOAD DUP2 MSTORE PUSH1 0x20 ADD PUSH1 0x3 DUP3 ADD PUSH1 0x40 MLOAD DUP1 PUSH1 0xE0 ADD PUSH1 0x40 MSTORE SWAP1 DUP2 PUSH1 0x0 DUP3 ADD SLOAD DUP2 MSTORE PUSH1 0x20 ADD PUSH1 0x1 DUP3 ADD PUSH1 0x0 SWAP1 SLOAD SWAP1 PUSH2 0x100 EXP SWAP1 DIV PUSH20 0xFFFFFFFFFFFFFFFFFFFFFFFFFFFFFFFFFFFFFFFF AND PUSH20 0xFFFFFFFFFFFFFFFFFFFFFFFFFFFFFFFFFFFFFFFF AND PUSH20 0xFFFFFFFFFFFFFFFFFFFFFFFFFFFFFFFFFFFFFFFF AND DUP2 MSTORE PUSH1 0x20 ADD PUSH1 0x2 DUP3 ADD DUP1 SLOAD PUSH2 0x2390 SWAP1 PUSH2 0x4BA0 JUMP JUMPDEST DUP1 PUSH1 0x1F ADD PUSH1 0x20 DUP1 SWAP2 DIV MUL PUSH1 0x20 ADD PUSH1 0x40 MLOAD SWAP1 DUP2 ADD PUSH1 0x40 MSTORE DUP1 SWAP3 SWAP2 SWAP1 DUP2 DUP2 MSTORE PUSH1 0x20 ADD DUP3 DUP1 SLOAD PUSH2 0x23BC SWAP1 PUSH2 0x4BA0 JUMP JUMPDEST DUP1 ISZERO PUSH2 0x2409 JUMPI DUP1 PUSH1 0x1F LT PUSH2 0x23DE JUMPI PUSH2 0x100 DUP1 DUP4 SLOAD DIV MUL DUP4 MSTORE SWAP2 PUSH1 0x20 ADD SWAP2 PUSH2 0x2409 JUMP JUMPDEST DUP3 ADD SWAP2 SWAP1 PUSH1 0x0 MSTORE PUSH1 0x20 PUSH1 0x0 KECCAK256 SWAP1 JUMPDEST DUP2 SLOAD DUP2 MSTORE SWAP1 PUSH1 0x1 ADD SWAP1 PUSH1 0x20 ADD DUP1 DUP4 GT PUSH2 0x23EC JUMPI DUP3 SWAP1 SUB PUSH1 0x1F AND DUP3 ADD SWAP2 JUMPDEST POP POP POP POP POP DUP2 MSTORE PUSH1 0x20 ADD PUSH1 0x3 DUP3 ADD DUP1 SLOAD PUSH2 0x2422 SWAP1 PUSH2 0x4BA0 JUMP JUMPDEST DUP1 PUSH1 0x1F ADD PUSH1 0x20 DUP1 SWAP2 DIV MUL PUSH1 0x20 ADD PUSH1 0x40 MLOAD SWAP1 DUP2 ADD PUSH1 0x40 MSTORE DUP1 SWAP3 SWAP2 SWAP1 DUP2 DUP2 MSTORE PUSH1 0x20 ADD DUP3 DUP1 SLOAD PUSH2 0x244E SWAP1 PUSH2 0x4BA0 JUMP JUMPDEST DUP1 ISZERO PUSH2 0x249B JUMPI DUP1 PUSH1 0x1F LT PUSH2 0x2470 JUMPI PUSH2 0x100 DUP1 DUP4 SLOAD DIV MUL DUP4 MSTORE SWAP2 PUSH1 0x20 ADD SWAP2 PUSH2 0x249B JUMP JUMPDEST DUP3 ADD SWAP2 SWAP1 PUSH1 0x0 MSTORE PUSH1 0x20 PUSH1 0x0 KECCAK256 SWAP1 JUMPDEST DUP2 SLOAD DUP2 MSTORE SWAP1 PUSH1 0x1 ADD SWAP1 PUSH1 0x20 ADD DUP1 DUP4 GT PUSH2 0x247E JUMPI DUP3 SWAP1 SUB PUSH1 0x1F AND DUP3 ADD SWAP2 JUMPDEST POP POP POP POP POP DUP2 MSTORE PUSH1 0x20 ADD PUSH1 0x4 DUP3 ADD DUP1 SLOAD PUSH2 0x24B4 SWAP1 PUSH2 0x4BA0 JUMP JUMPDEST DUP1 PUSH1 0x1F ADD PUSH1 0x20 DUP1 SWAP2 DIV MUL PUSH1 0x20 ADD PUSH1 0x40 MLOAD SWAP1 DUP2 ADD PUSH1 0x40 MSTORE DUP1 SWAP3 SWAP2 SWAP1 DUP2 DUP2 MSTORE PUSH1 0x20 ADD DUP3 DUP1 SLOAD PUSH2 0x24E0 SWAP1 PUSH2 0x4BA0 JUMP JUMPDEST DUP1 ISZERO PUSH2 0x252D JUMPI DUP1 PUSH1 0x1F LT PUSH2 0x2502 JUMPI PUSH2 0x100 DUP1 DUP4 SLOAD DIV MUL DUP4 MSTORE SWAP2 PUSH1 0x20 ADD SWAP2 PUSH2 0x252D JUMP JUMPDEST DUP3 ADD SWAP2 SWAP1 PUSH1 0x0 MSTORE PUSH1 0x20 PUSH1 0x0 KECCAK256 SWAP1 JUMPDEST DUP2 SLOAD DUP2 MSTORE SWAP1 PUSH1 0x1 ADD SWAP1 PUSH1 0x20 ADD DUP1 DUP4 GT PUSH2 0x2510 JUMPI DUP3 SWAP1 SUB PUSH1 0x1F AND DUP3 ADD SWAP2 JUMPDEST POP POP POP POP POP DUP2 MSTORE PUSH1 0x20 ADD PUSH1 0x5 DUP3 ADD DUP1 SLOAD DUP1 PUSH1 0x20 MUL PUSH1 0x20 ADD PUSH1 0x40 MLOAD SWAP1 DUP2 ADD PUSH1 0x40 MSTORE DUP1 SWAP3 SWAP2 SWAP1 DUP2 DUP2 MSTORE PUSH1 0x20 ADD PUSH1 0x0 SWAP1 JUMPDEST DUP3 DUP3 LT ISZERO PUSH2 0x2607 JUMPI DUP4 DUP3 SWAP1 PUSH1 0x0 MSTORE PUSH1 0x20 PUSH1 0x0 KECCAK256 ADD DUP1 SLOAD PUSH2 0x257A SWAP1 PUSH2 0x4BA0 JUMP JUMPDEST DUP1 PUSH1 0x1F ADD PUSH1 0x20 DUP1 SWAP2 DIV MUL PUSH1 0x20 ADD PUSH1 0x40 MLOAD SWAP1 DUP2 ADD PUSH1 0x40 MSTORE DUP1 SWAP3 SWAP2 SWAP1 DUP2 DUP2 MSTORE PUSH1 0x20 ADD DUP3 DUP1 SLOAD PUSH2 0x25A6 SWAP1 PUSH2 0x4BA0 JUMP JUMPDEST DUP1 ISZERO PUSH2 0x25F3 JUMPI DUP1 PUSH1 0x1F LT PUSH2 0x25C8 JUMPI PUSH2 0x100 DUP1 DUP4 SLOAD DIV MUL DUP4 MSTORE SWAP2 PUSH1 0x20 ADD SWAP2 PUSH2 0x25F3 JUMP JUMPDEST DUP3 ADD SWAP2 SWAP1 PUSH1 0x0 MSTORE PUSH1 0x20 PUSH1 0x0 KECCAK256 SWAP1 JUMPDEST DUP2 SLOAD DUP2 MSTORE SWAP1 PUSH1 0x1 ADD SWAP1 PUSH1 0x20 ADD DUP1 DUP4 GT PUSH2 0x25D6 JUMPI DUP3 SWAP1 SUB PUSH1 0x1F AND DUP3 ADD SWAP2 JUMPDEST POP POP POP POP POP DUP2 MSTORE PUSH1 0x20 ADD SWAP1 PUSH1 0x1 ADD SWAP1 PUSH2 0x255B JUMP JUMPDEST POP POP POP POP DUP2 MSTORE PUSH1 0x20 ADD PUSH1 0x6 DUP3 ADD PUSH1 0x0 SWAP1 SLOAD SWAP1 PUSH2 0x100 EXP SWAP1 DIV PUSH1 0xFF AND ISZERO ISZERO ISZERO ISZERO DUP2 MSTORE POP POP DUP2 MSTORE POP POP SWAP2 POP POP SWAP2 SWAP1 POP JUMP JUMPDEST PUSH1 0x0 PUSH1 0x1 PUSH1 0x0 DUP2 SLOAD DUP1 SWAP3 SWAP2 SWAP1 PUSH2 0x264B SWAP1 PUSH2 0x4C03 JUMP JUMPDEST SWAP2 SWAP1 POP SSTORE SWAP1 POP PUSH1 0x0 PUSH1 0x40 MLOAD DUP1 PUSH1 0xE0 ADD PUSH1 0x40 MSTORE DUP1 DUP4 DUP2 MSTORE PUSH1 0x20 ADD CALLER PUSH20 0xFFFFFFFFFFFFFFFFFFFFFFFFFFFFFFFFFFFFFFFF AND DUP2 MSTORE PUSH1 0x20 ADD DUP8 DUP2 MSTORE PUSH1 0x20 ADD DUP7 DUP2 MSTORE PUSH1 0x20 ADD DUP6 DUP2 MSTORE PUSH1 0x20 ADD DUP5 DUP2 MSTORE PUSH1 0x20 ADD PUSH1 0x0 ISZERO ISZERO DUP2 MSTORE POP SWAP1 POP PUSH1 0x5 DUP2 SWAP1 DUP1 PUSH1 0x1 DUP2 SLOAD ADD DUP1 DUP3 SSTORE DUP1 SWAP2 POP POP PUSH1 0x1 SWAP1 SUB SWAP1 PUSH1 0x0 MSTORE PUSH1 0x20 PUSH1 0x0 KECCAK256 SWAP1 PUSH1 0x7 MUL ADD PUSH1 0x0 SWAP1 SWAP2 SWAP1 SWAP2 SWAP1 SWAP2 POP PUSH1 0x0 DUP3 ADD MLOAD DUP2 PUSH1 0x0 ADD SSTORE PUSH1 0x20 DUP3 ADD MLOAD DUP2 PUSH1 0x1 ADD PUSH1 0x0 PUSH2 0x100 EXP DUP2 SLOAD DUP2 PUSH20 0xFFFFFFFFFFFFFFFFFFFFFFFFFFFFFFFFFFFFFFFF MUL NOT AND SWAP1 DUP4 PUSH20 0xFFFFFFFFFFFFFFFFFFFFFFFFFFFFFFFFFFFFFFFF AND MUL OR SWAP1 SSTORE POP PUSH1 0x40 DUP3 ADD MLOAD DUP2 PUSH1 0x2 ADD SWAP1 DUP1 MLOAD SWAP1 PUSH1 0x20 ADD SWAP1 PUSH2 0x273A SWAP3 SWAP2 SWAP1 PUSH2 0x38E9 JUMP JUMPDEST POP PUSH1 0x60 DUP3 ADD MLOAD DUP2 PUSH1 0x3 ADD SWAP1 DUP1 MLOAD SWAP1 PUSH1 0x20 ADD SWAP1 PUSH2 0x2757 SWAP3 SWAP2 SWAP1 PUSH2 0x38E9 JUMP JUMPDEST POP PUSH1 0x80 DUP3 ADD MLOAD DUP2 PUSH1 0x4 ADD SWAP1 DUP1 MLOAD SWAP1 PUSH1 0x20 ADD SWAP1 PUSH2 0x2774 SWAP3 SWAP2 SWAP1 PUSH2 0x38E9 JUMP JUMPDEST POP PUSH1 0xA0 DUP3 ADD MLOAD DUP2 PUSH1 0x5 ADD SWAP1 DUP1 MLOAD SWAP1 PUSH1 0x20 ADD SWAP1 PUSH2 0x2791 SWAP3 SWAP2 SWAP1 PUSH2 0x396F JUMP JUMPDEST POP PUSH1 0xC0 DUP3 ADD MLOAD DUP2 PUSH1 0x6 ADD PUSH1 0x0 PUSH2 0x100 EXP DUP2 SLOAD DUP2 PUSH1 0xFF MUL NOT AND SWAP1 DUP4 ISZERO ISZERO MUL OR SWAP1 SSTORE POP POP POP DUP1 PUSH1 0x3 PUSH1 0x0 CALLER PUSH20 0xFFFFFFFFFFFFFFFFFFFFFFFFFFFFFFFFFFFFFFFF AND PUSH20 0xFFFFFFFFFFFFFFFFFFFFFFFFFFFFFFFFFFFFFFFF AND DUP2 MSTORE PUSH1 0x20 ADD SWAP1 DUP2 MSTORE PUSH1 0x20 ADD PUSH1 0x0 KECCAK256 PUSH1 0x0 DUP5 DUP2 MSTORE PUSH1 0x20 ADD SWAP1 DUP2 MSTORE PUSH1 0x20 ADD PUSH1 0x0 KECCAK256 PUSH1 0x0 DUP3 ADD MLOAD DUP2 PUSH1 0x0 ADD SSTORE PUSH1 0x20 DUP3 ADD MLOAD DUP2 PUSH1 0x1 ADD PUSH1 0x0 PUSH2 0x100 EXP DUP2 SLOAD DUP2 PUSH20 0xFFFFFFFFFFFFFFFFFFFFFFFFFFFFFFFFFFFFFFFF MUL NOT AND SWAP1 DUP4 PUSH20 0xFFFFFFFFFFFFFFFFFFFFFFFFFFFFFFFFFFFFFFFF AND MUL OR SWAP1 SSTORE POP PUSH1 0x40 DUP3 ADD MLOAD DUP2 PUSH1 0x2 ADD SWAP1 DUP1 MLOAD SWAP1 PUSH1 0x20 ADD SWAP1 PUSH2 0x2872 SWAP3 SWAP2 SWAP1 PUSH2 0x38E9 JUMP JUMPDEST POP PUSH1 0x60 DUP3 ADD MLOAD DUP2 PUSH1 0x3 ADD SWAP1 DUP1 MLOAD SWAP1 PUSH1 0x20 ADD SWAP1 PUSH2 0x288F SWAP3 SWAP2 SWAP1 PUSH2 0x38E9 JUMP JUMPDEST POP PUSH1 0x80 DUP3 ADD MLOAD DUP2 PUSH1 0x4 ADD SWAP1 DUP1 MLOAD SWAP1 PUSH1 0x20 ADD SWAP1 PUSH2 0x28AC SWAP3 SWAP2 SWAP1 PUSH2 0x38E9 JUMP JUMPDEST POP PUSH1 0xA0 DUP3 ADD MLOAD DUP2 PUSH1 0x5 ADD SWAP1 DUP1 MLOAD SWAP1 PUSH1 0x20 ADD SWAP1 PUSH2 0x28C9 SWAP3 SWAP2 SWAP1 PUSH2 0x396F JUMP JUMPDEST POP PUSH1 0xC0 DUP3 ADD MLOAD DUP2 PUSH1 0x6 ADD PUSH1 0x0 PUSH2 0x100 EXP DUP2 SLOAD DUP2 PUSH1 0xFF MUL NOT AND SWAP1 DUP4 ISZERO ISZERO MUL OR SWAP1 SSTORE POP SWAP1 POP POP POP POP POP POP POP POP JUMP JUMPDEST CALLER PUSH20 0xFFFFFFFFFFFFFFFFFFFFFFFFFFFFFFFFFFFFFFFF AND PUSH1 0x3 PUSH1 0x0 CALLER PUSH20 0xFFFFFFFFFFFFFFFFFFFFFFFFFFFFFFFFFFFFFFFF AND PUSH20 0xFFFFFFFFFFFFFFFFFFFFFFFFFFFFFFFFFFFFFFFF AND DUP2 MSTORE PUSH1 0x20 ADD SWAP1 DUP2 MSTORE PUSH1 0x20 ADD PUSH1 0x0 KECCAK256 PUSH1 0x0 DUP5 DUP2 MSTORE PUSH1 0x20 ADD SWAP1 DUP2 MSTORE PUSH1 0x20 ADD PUSH1 0x0 KECCAK256 PUSH1 0x1 ADD PUSH1 0x0 SWAP1 SLOAD SWAP1 PUSH2 0x100 EXP SWAP1 DIV PUSH20 0xFFFFFFFFFFFFFFFFFFFFFFFFFFFFFFFFFFFFFFFF AND PUSH20 0xFFFFFFFFFFFFFFFFFFFFFFFFFFFFFFFFFFFFFFFF AND EQ PUSH2 0x29D6 JUMPI PUSH1 0x40 MLOAD PUSH32 0x8C379A000000000000000000000000000000000000000000000000000000000 DUP2 MSTORE PUSH1 0x4 ADD PUSH2 0x29CD SWAP1 PUSH2 0x4760 JUMP JUMPDEST PUSH1 0x40 MLOAD DUP1 SWAP2 SUB SWAP1 REVERT JUMPDEST PUSH2 0x29E1 CALLER DUP4 DUP4 PUSH2 0x3262 JUMP JUMPDEST POP POP JUMP JUMPDEST PUSH2 0x29ED PUSH2 0x2C19 JUMP JUMPDEST PUSH20 0xFFFFFFFFFFFFFFFFFFFFFFFFFFFFFFFFFFFFFFFF AND PUSH2 0x2A0B PUSH2 0xF4F JUMP JUMPDEST PUSH20 0xFFFFFFFFFFFFFFFFFFFFFFFFFFFFFFFFFFFFFFFF AND EQ PUSH2 0x2A61 JUMPI PUSH1 0x40 MLOAD PUSH32 0x8C379A000000000000000000000000000000000000000000000000000000000 DUP2 MSTORE PUSH1 0x4 ADD PUSH2 0x2A58 SWAP1 PUSH2 0x4740 JUMP JUMPDEST PUSH1 0x40 MLOAD DUP1 SWAP2 SUB SWAP1 REVERT JUMPDEST PUSH1 0x0 PUSH20 0xFFFFFFFFFFFFFFFFFFFFFFFFFFFFFFFFFFFFFFFF AND DUP2 PUSH20 0xFFFFFFFFFFFFFFFFFFFFFFFFFFFFFFFFFFFFFFFF AND EQ ISZERO PUSH2 0x2AD1 JUMPI PUSH1 0x40 MLOAD PUSH32 0x8C379A000000000000000000000000000000000000000000000000000000000 DUP2 MSTORE PUSH1 0x4 ADD PUSH2 0x2AC8 SWAP1 PUSH2 0x46E0 JUMP JUMPDEST PUSH1 0x40 MLOAD DUP1 SWAP2 SUB SWAP1 REVERT JUMPDEST PUSH2 0x2ADA DUP2 PUSH2 0x2C21 JUMP JUMPDEST POP JUMP JUMPDEST PUSH1 0x60 PUSH1 0x4 PUSH1 0x0 DUP4 DUP2 MSTORE PUSH1 0x20 ADD SWAP1 DUP2 MSTORE PUSH1 0x20 ADD PUSH1 0x0 KECCAK256 DUP1 SLOAD DUP1 PUSH1 0x20 MUL PUSH1 0x20 ADD PUSH1 0x40 MLOAD SWAP1 DUP2 ADD PUSH1 0x40 MSTORE DUP1 SWAP3 SWAP2 SWAP1 DUP2 DUP2 MSTORE PUSH1 0x20 ADD PUSH1 0x0 SWAP1 JUMPDEST DUP3 DUP3 LT ISZERO PUSH2 0x2C0E JUMPI DUP4 DUP3 SWAP1 PUSH1 0x0 MSTORE PUSH1 0x20 PUSH1 0x0 KECCAK256 SWAP1 PUSH1 0x5 MUL ADD PUSH1 0x40 MLOAD DUP1 PUSH1 0xA0 ADD PUSH1 0x40 MSTORE SWAP1 DUP2 PUSH1 0x0 DUP3 ADD SLOAD DUP2 MSTORE PUSH1 0x20 ADD PUSH1 0x1 DUP3 ADD SLOAD DUP2 MSTORE PUSH1 0x20 ADD PUSH1 0x2 DUP3 ADD SLOAD DUP2 MSTORE PUSH1 0x20 ADD PUSH1 0x3 DUP3 ADD PUSH1 0x0 SWAP1 SLOAD SWAP1 PUSH2 0x100 EXP SWAP1 DIV PUSH20 0xFFFFFFFFFFFFFFFFFFFFFFFFFFFFFFFFFFFFFFFF AND PUSH20 0xFFFFFFFFFFFFFFFFFFFFFFFFFFFFFFFFFFFFFFFF AND PUSH20 0xFFFFFFFFFFFFFFFFFFFFFFFFFFFFFFFFFFFFFFFF AND DUP2 MSTORE PUSH1 0x20 ADD PUSH1 0x4 DUP3 ADD PUSH1 0x0 SWAP1 SLOAD SWAP1 PUSH2 0x100 EXP SWAP1 DIV PUSH20 0xFFFFFFFFFFFFFFFFFFFFFFFFFFFFFFFFFFFFFFFF AND PUSH20 0xFFFFFFFFFFFFFFFFFFFFFFFFFFFFFFFFFFFFFFFF AND PUSH20 0xFFFFFFFFFFFFFFFFFFFFFFFFFFFFFFFFFFFFFFFF AND DUP2 MSTORE POP POP DUP2 MSTORE PUSH1 0x20 ADD SWAP1 PUSH1 0x1 ADD SWAP1 PUSH2 0x2B12 JUMP JUMPDEST POP POP POP POP SWAP1 POP SWAP2 SWAP1 POP JUMP JUMPDEST PUSH1 0x0 CALLER SWAP1 POP SWAP1 JUMP JUMPDEST PUSH1 0x0 DUP1 PUSH1 0x0 SWAP1 SLOAD SWAP1 PUSH2 0x100 EXP SWAP1 DIV PUSH20 0xFFFFFFFFFFFFFFFFFFFFFFFFFFFFFFFFFFFFFFFF AND SWAP1 POP DUP2 PUSH1 0x0 DUP1 PUSH2 0x100 EXP DUP2 SLOAD DUP2 PUSH20 0xFFFFFFFFFFFFFFFFFFFFFFFFFFFFFFFFFFFFFFFF MUL NOT AND SWAP1 DUP4 PUSH20 0xFFFFFFFFFFFFFFFFFFFFFFFFFFFFFFFFFFFFFFFF AND MUL OR SWAP1 SSTORE POP DUP2 PUSH20 0xFFFFFFFFFFFFFFFFFFFFFFFFFFFFFFFFFFFFFFFF AND DUP2 PUSH20 0xFFFFFFFFFFFFFFFFFFFFFFFFFFFFFFFFFFFFFFFF AND PUSH32 0x8BE0079C531659141344CD1FD0A4F28419497F9722A3DAAFE3B4186F6B6457E0 PUSH1 0x40 MLOAD PUSH1 0x40 MLOAD DUP1 SWAP2 SUB SWAP1 LOG3 POP POP JUMP JUMPDEST PUSH1 0x0 DUP1 DUP4 SWAP1 POP PUSH1 0x0 DUP4 SWAP1 POP DUP2 MLOAD DUP2 MLOAD LT ISZERO PUSH2 0x2D05 JUMPI PUSH1 0x0 SWAP3 POP POP POP PUSH2 0x2E07 JUMP JUMPDEST PUSH1 0x0 SWAP3 POP PUSH1 0x0 JUMPDEST DUP3 MLOAD DUP3 MLOAD PUSH2 0x2D1A SWAP2 SWAP1 PUSH2 0x4AE2 JUMP JUMPDEST DUP2 GT PUSH2 0x2E03 JUMPI PUSH1 0x0 PUSH1 0x1 SWAP1 POP PUSH1 0x0 JUMPDEST DUP5 MLOAD DUP2 LT ISZERO PUSH2 0x2DDE JUMPI DUP5 DUP2 DUP2 MLOAD DUP2 LT PUSH2 0x2D45 JUMPI PUSH2 0x2D44 PUSH2 0x4CD9 JUMP JUMPDEST JUMPDEST PUSH1 0x20 ADD ADD MLOAD PUSH1 0xF8 SHR PUSH1 0xF8 SHL PUSH31 0xFFFFFFFFFFFFFFFFFFFFFFFFFFFFFFFFFFFFFFFFFFFFFFFFFFFFFFFFFFFFFF NOT AND DUP5 DUP3 DUP6 PUSH2 0x2D7F SWAP2 SWAP1 PUSH2 0x4A01 JUMP JUMPDEST DUP2 MLOAD DUP2 LT PUSH2 0x2D90 JUMPI PUSH2 0x2D8F PUSH2 0x4CD9 JUMP JUMPDEST JUMPDEST PUSH1 0x20 ADD ADD MLOAD PUSH1 0xF8 SHR PUSH1 0xF8 SHL PUSH31 0xFFFFFFFFFFFFFFFFFFFFFFFFFFFFFFFFFFFFFFFFFFFFFFFFFFFFFFFFFFFFFF NOT AND EQ PUSH2 0x2DCB JUMPI PUSH1 0x0 SWAP2 POP PUSH2 0x2DDE JUMP JUMPDEST DUP1 DUP1 PUSH2 0x2DD6 SWAP1 PUSH2 0x4C03 JUMP JUMPDEST SWAP2 POP POP PUSH2 0x2D29 JUMP JUMPDEST POP DUP1 ISZERO PUSH2 0x2DEF JUMPI PUSH1 0x1 SWAP5 POP POP PUSH2 0x2E03 JUMP JUMPDEST POP DUP1 DUP1 PUSH2 0x2DFB SWAP1 PUSH2 0x4C03 JUMP JUMPDEST SWAP2 POP POP PUSH2 0x2D0C JUMP JUMPDEST POP POP POP JUMPDEST SWAP3 SWAP2 POP POP JUMP JUMPDEST PUSH1 0x2 PUSH1 0x0 DUP5 PUSH20 0xFFFFFFFFFFFFFFFFFFFFFFFFFFFFFFFFFFFFFFFF AND PUSH20 0xFFFFFFFFFFFFFFFFFFFFFFFFFFFFFFFFFFFFFFFF AND DUP2 MSTORE PUSH1 0x20 ADD SWAP1 DUP2 MSTORE PUSH1 0x20 ADD PUSH1 0x0 KECCAK256 PUSH1 0x0 DUP3 DUP2 MSTORE PUSH1 0x20 ADD SWAP1 DUP2 MSTORE PUSH1 0x20 ADD PUSH1 0x0 KECCAK256 PUSH1 0x3 ADD PUSH1 0x3 PUSH1 0x0 DUP5 PUSH20 0xFFFFFFFFFFFFFFFFFFFFFFFFFFFFFFFFFFFFFFFF AND PUSH20 0xFFFFFFFFFFFFFFFFFFFFFFFFFFFFFFFFFFFFFFFF AND DUP2 MSTORE PUSH1 0x20 ADD SWAP1 DUP2 MSTORE PUSH1 0x20 ADD PUSH1 0x0 KECCAK256 PUSH1 0x0 DUP4 DUP2 MSTORE PUSH1 0x20 ADD SWAP1 DUP2 MSTORE PUSH1 0x20 ADD PUSH1 0x0 KECCAK256 PUSH1 0x0 DUP3 ADD SLOAD DUP2 PUSH1 0x0 ADD SSTORE PUSH1 0x1 DUP3 ADD PUSH1 0x0 SWAP1 SLOAD SWAP1 PUSH2 0x100 EXP SWAP1 DIV PUSH20 0xFFFFFFFFFFFFFFFFFFFFFFFFFFFFFFFFFFFFFFFF AND DUP2 PUSH1 0x1 ADD PUSH1 0x0 PUSH2 0x100 EXP DUP2 SLOAD DUP2 PUSH20 0xFFFFFFFFFFFFFFFFFFFFFFFFFFFFFFFFFFFFFFFF MUL NOT AND SWAP1 DUP4 PUSH20 0xFFFFFFFFFFFFFFFFFFFFFFFFFFFFFFFFFFFFFFFF AND MUL OR SWAP1 SSTORE POP PUSH1 0x2 DUP3 ADD DUP2 PUSH1 0x2 ADD SWAP1 DUP1 SLOAD PUSH2 0x2F35 SWAP1 PUSH2 0x4BA0 JUMP JUMPDEST PUSH2 0x2F40 SWAP3 SWAP2 SWAP1 PUSH2 0x3A52 JUMP JUMPDEST POP PUSH1 0x3 DUP3 ADD DUP2 PUSH1 0x3 ADD SWAP1 DUP1 SLOAD PUSH2 0x2F55 SWAP1 PUSH2 0x4BA0 JUMP JUMPDEST PUSH2 0x2F60 SWAP3 SWAP2 SWAP1 PUSH2 0x3A52 JUMP JUMPDEST POP PUSH1 0x4 DUP3 ADD DUP2 PUSH1 0x4 ADD SWAP1 DUP1 SLOAD PUSH2 0x2F75 SWAP1 PUSH2 0x4BA0 JUMP JUMPDEST PUSH2 0x2F80 SWAP3 SWAP2 SWAP1 PUSH2 0x3A52 JUMP JUMPDEST POP PUSH1 0x5 DUP3 ADD DUP2 PUSH1 0x5 ADD SWAP1 DUP1 SLOAD PUSH2 0x2F97 SWAP3 SWAP2 SWAP1 PUSH2 0x3ADF JUMP JUMPDEST POP PUSH1 0x6 DUP3 ADD PUSH1 0x0 SWAP1 SLOAD SWAP1 PUSH2 0x100 EXP SWAP1 DIV PUSH1 0xFF AND DUP2 PUSH1 0x6 ADD PUSH1 0x0 PUSH2 0x100 EXP DUP2 SLOAD DUP2 PUSH1 0xFF MUL NOT AND SWAP1 DUP4 ISZERO ISZERO MUL OR SWAP1 SSTORE POP SWAP1 POP POP DUP2 PUSH1 0x3 PUSH1 0x0 DUP5 PUSH20 0xFFFFFFFFFFFFFFFFFFFFFFFFFFFFFFFFFFFFFFFF AND PUSH20 0xFFFFFFFFFFFFFFFFFFFFFFFFFFFFFFFFFFFFFFFF AND DUP2 MSTORE PUSH1 0x20 ADD SWAP1 DUP2 MSTORE PUSH1 0x20 ADD PUSH1 0x0 KECCAK256 PUSH1 0x0 DUP4 DUP2 MSTORE PUSH1 0x20 ADD SWAP1 DUP2 MSTORE PUSH1 0x20 ADD PUSH1 0x0 KECCAK256 PUSH1 0x1 ADD PUSH1 0x0 PUSH2 0x100 EXP DUP2 SLOAD DUP2 PUSH20 0xFFFFFFFFFFFFFFFFFFFFFFFFFFFFFFFFFFFFFFFF MUL NOT AND SWAP1 DUP4 PUSH20 0xFFFFFFFFFFFFFFFFFFFFFFFFFFFFFFFFFFFFFFFF AND MUL OR SWAP1 SSTORE POP PUSH1 0x0 PUSH1 0x3 PUSH1 0x0 DUP5 PUSH20 0xFFFFFFFFFFFFFFFFFFFFFFFFFFFFFFFFFFFFFFFF AND PUSH20 0xFFFFFFFFFFFFFFFFFFFFFFFFFFFFFFFFFFFFFFFF AND DUP2 MSTORE PUSH1 0x20 ADD SWAP1 DUP2 MSTORE PUSH1 0x20 ADD PUSH1 0x0 KECCAK256 PUSH1 0x0 DUP4 DUP2 MSTORE PUSH1 0x20 ADD SWAP1 DUP2 MSTORE PUSH1 0x20 ADD PUSH1 0x0 KECCAK256 PUSH1 0x6 ADD PUSH1 0x0 PUSH2 0x100 EXP DUP2 SLOAD DUP2 PUSH1 0xFF MUL NOT AND SWAP1 DUP4 ISZERO ISZERO MUL OR SWAP1 SSTORE POP DUP2 PUSH1 0x5 DUP3 DUP2 SLOAD DUP2 LT PUSH2 0x30DB JUMPI PUSH2 0x30DA PUSH2 0x4CD9 JUMP JUMPDEST JUMPDEST SWAP1 PUSH1 0x0 MSTORE PUSH1 0x20 PUSH1 0x0 KECCAK256 SWAP1 PUSH1 0x7 MUL ADD PUSH1 0x1 ADD PUSH1 0x0 PUSH2 0x100 EXP DUP2 SLOAD DUP2 PUSH20 0xFFFFFFFFFFFFFFFFFFFFFFFFFFFFFFFFFFFFFFFF MUL NOT AND SWAP1 DUP4 PUSH20 0xFFFFFFFFFFFFFFFFFFFFFFFFFFFFFFFFFFFFFFFF AND MUL OR SWAP1 SSTORE POP PUSH1 0x0 PUSH1 0x5 DUP3 DUP2 SLOAD DUP2 LT PUSH2 0x3140 JUMPI PUSH2 0x313F PUSH2 0x4CD9 JUMP JUMPDEST JUMPDEST SWAP1 PUSH1 0x0 MSTORE PUSH1 0x20 PUSH1 0x0 KECCAK256 SWAP1 PUSH1 0x7 MUL ADD PUSH1 0x6 ADD PUSH1 0x0 PUSH2 0x100 EXP DUP2 SLOAD DUP2 PUSH1 0xFF MUL NOT AND SWAP1 DUP4 ISZERO ISZERO MUL OR SWAP1 SSTORE POP PUSH1 0x2 PUSH1 0x0 DUP5 PUSH20 0xFFFFFFFFFFFFFFFFFFFFFFFFFFFFFFFFFFFFFFFF AND PUSH20 0xFFFFFFFFFFFFFFFFFFFFFFFFFFFFFFFFFFFFFFFF AND DUP2 MSTORE PUSH1 0x20 ADD SWAP1 DUP2 MSTORE PUSH1 0x20 ADD PUSH1 0x0 KECCAK256 PUSH1 0x0 DUP3 DUP2 MSTORE PUSH1 0x20 ADD SWAP1 DUP2 MSTORE PUSH1 0x20 ADD PUSH1 0x0 KECCAK256 PUSH1 0x0 DUP1 DUP3 ADD PUSH1 0x0 SWAP1 SSTORE PUSH1 0x1 DUP3 ADD PUSH1 0x0 SWAP1 SSTORE PUSH1 0x2 DUP3 ADD PUSH1 0x0 SWAP1 SSTORE PUSH1 0x3 DUP3 ADD PUSH1 0x0 DUP1 DUP3 ADD PUSH1 0x0 SWAP1 SSTORE PUSH1 0x1 DUP3 ADD PUSH1 0x0 PUSH2 0x100 EXP DUP2 SLOAD SWAP1 PUSH20 0xFFFFFFFFFFFFFFFFFFFFFFFFFFFFFFFFFFFFFFFF MUL NOT AND SWAP1 SSTORE PUSH1 0x2 DUP3 ADD PUSH1 0x0 PUSH2 0x3215 SWAP2 SWAP1 PUSH2 0x3B47 JUMP JUMPDEST PUSH1 0x3 DUP3 ADD PUSH1 0x0 PUSH2 0x3225 SWAP2 SWAP1 PUSH2 0x3B47 JUMP JUMPDEST PUSH1 0x4 DUP3 ADD PUSH1 0x0 PUSH2 0x3235 SWAP2 SWAP1 PUSH2 0x3B47 JUMP JUMPDEST PUSH1 0x5 DUP3 ADD PUSH1 0x0 PUSH2 0x3245 SWAP2 SWAP1 PUSH2 0x3B87 JUMP JUMPDEST PUSH1 0x6 DUP3 ADD PUSH1 0x0 PUSH2 0x100 EXP DUP2 SLOAD SWAP1 PUSH1 0xFF MUL NOT AND SWAP1 SSTORE POP POP POP POP POP POP POP JUMP JUMPDEST PUSH1 0x40 MLOAD DUP1 PUSH1 0x80 ADD PUSH1 0x40 MSTORE DUP1 DUP3 DUP2 MSTORE PUSH1 0x20 ADD PUSH1 0x64 PUSH1 0x6 SLOAD DUP5 PUSH2 0x3283 SWAP2 SWAP1 PUSH2 0x4A88 JUMP JUMPDEST PUSH2 0x328D SWAP2 SWAP1 PUSH2 0x4A57 JUMP JUMPDEST DUP2 MSTORE PUSH1 0x20 ADD TIMESTAMP DUP2 MSTORE PUSH1 0x20 ADD PUSH1 0x3 PUSH1 0x0 DUP7 PUSH20 0xFFFFFFFFFFFFFFFFFFFFFFFFFFFFFFFFFFFFFFFF AND PUSH20 0xFFFFFFFFFFFFFFFFFFFFFFFFFFFFFFFFFFFFFFFF AND DUP2 MSTORE PUSH1 0x20 ADD SWAP1 DUP2 MSTORE PUSH1 0x20 ADD PUSH1 0x0 KECCAK256 PUSH1 0x0 DUP6 DUP2 MSTORE PUSH1 0x20 ADD SWAP1 DUP2 MSTORE PUSH1 0x20 ADD PUSH1 0x0 KECCAK256 PUSH1 0x40 MLOAD DUP1 PUSH1 0xE0 ADD PUSH1 0x40 MSTORE SWAP1 DUP2 PUSH1 0x0 DUP3 ADD SLOAD DUP2 MSTORE PUSH1 0x20 ADD PUSH1 0x1 DUP3 ADD PUSH1 0x0 SWAP1 SLOAD SWAP1 PUSH2 0x100 EXP SWAP1 DIV PUSH20 0xFFFFFFFFFFFFFFFFFFFFFFFFFFFFFFFFFFFFFFFF AND PUSH20 0xFFFFFFFFFFFFFFFFFFFFFFFFFFFFFFFFFFFFFFFF AND PUSH20 0xFFFFFFFFFFFFFFFFFFFFFFFFFFFFFFFFFFFFFFFF AND DUP2 MSTORE PUSH1 0x20 ADD PUSH1 0x2 DUP3 ADD DUP1 SLOAD PUSH2 0x3363 SWAP1 PUSH2 0x4BA0 JUMP JUMPDEST DUP1 PUSH1 0x1F ADD PUSH1 0x20 DUP1 SWAP2 DIV MUL PUSH1 0x20 ADD PUSH1 0x40 MLOAD SWAP1 DUP2 ADD PUSH1 0x40 MSTORE DUP1 SWAP3 SWAP2 SWAP1 DUP2 DUP2 MSTORE PUSH1 0x20 ADD DUP3 DUP1 SLOAD PUSH2 0x338F SWAP1 PUSH2 0x4BA0 JUMP JUMPDEST DUP1 ISZERO PUSH2 0x33DC JUMPI DUP1 PUSH1 0x1F LT PUSH2 0x33B1 JUMPI PUSH2 0x100 DUP1 DUP4 SLOAD DIV MUL DUP4 MSTORE SWAP2 PUSH1 0x20 ADD SWAP2 PUSH2 0x33DC JUMP JUMPDEST DUP3 ADD SWAP2 SWAP1 PUSH1 0x0 MSTORE PUSH1 0x20 PUSH1 0x0 KECCAK256 SWAP1 JUMPDEST DUP2 SLOAD DUP2 MSTORE SWAP1 PUSH1 0x1 ADD SWAP1 PUSH1 0x20 ADD DUP1 DUP4 GT PUSH2 0x33BF JUMPI DUP3 SWAP1 SUB PUSH1 0x1F AND DUP3 ADD SWAP2 JUMPDEST POP POP POP POP POP DUP2 MSTORE PUSH1 0x20 ADD PUSH1 0x3 DUP3 ADD DUP1 SLOAD PUSH2 0x33F5 SWAP1 PUSH2 0x4BA0 JUMP JUMPDEST DUP1 PUSH1 0x1F ADD PUSH1 0x20 DUP1 SWAP2 DIV MUL PUSH1 0x20 ADD PUSH1 0x40 MLOAD SWAP1 DUP2 ADD PUSH1 0x40 MSTORE DUP1 SWAP3 SWAP2 SWAP1 DUP2 DUP2 MSTORE PUSH1 0x20 ADD DUP3 DUP1 SLOAD PUSH2 0x3421 SWAP1 PUSH2 0x4BA0 JUMP JUMPDEST DUP1 ISZERO PUSH2 0x346E JUMPI DUP1 PUSH1 0x1F LT PUSH2 0x3443 JUMPI PUSH2 0x100 DUP1 DUP4 SLOAD DIV MUL DUP4 MSTORE SWAP2 PUSH1 0x20 ADD SWAP2 PUSH2 0x346E JUMP JUMPDEST DUP3 ADD SWAP2 SWAP1 PUSH1 0x0 MSTORE PUSH1 0x20 PUSH1 0x0 KECCAK256 SWAP1 JUMPDEST DUP2 SLOAD DUP2 MSTORE SWAP1 PUSH1 0x1 ADD SWAP1 PUSH1 0x20 ADD DUP1 DUP4 GT PUSH2 0x3451 JUMPI DUP3 SWAP1 SUB PUSH1 0x1F AND DUP3 ADD SWAP2 JUMPDEST POP POP POP POP POP DUP2 MSTORE PUSH1 0x20 ADD PUSH1 0x4 DUP3 ADD DUP1 SLOAD PUSH2 0x3487 SWAP1 PUSH2 0x4BA0 JUMP JUMPDEST DUP1 PUSH1 0x1F ADD PUSH1 0x20 DUP1 SWAP2 DIV MUL PUSH1 0x20 ADD PUSH1 0x40 MLOAD SWAP1 DUP2 ADD PUSH1 0x40 MSTORE DUP1 SWAP3 SWAP2 SWAP1 DUP2 DUP2 MSTORE PUSH1 0x20 ADD DUP3 DUP1 SLOAD PUSH2 0x34B3 SWAP1 PUSH2 0x4BA0 JUMP JUMPDEST DUP1 ISZERO PUSH2 0x3500 JUMPI DUP1 PUSH1 0x1F LT PUSH2 0x34D5 JUMPI PUSH2 0x100 DUP1 DUP4 SLOAD DIV MUL DUP4 MSTORE SWAP2 PUSH1 0x20 ADD SWAP2 PUSH2 0x3500 JUMP JUMPDEST DUP3 ADD SWAP2 SWAP1 PUSH1 0x0 MSTORE PUSH1 0x20 PUSH1 0x0 KECCAK256 SWAP1 JUMPDEST DUP2 SLOAD DUP2 MSTORE SWAP1 PUSH1 0x1 ADD SWAP1 PUSH1 0x20 ADD DUP1 DUP4 GT PUSH2 0x34E3 JUMPI DUP3 SWAP1 SUB PUSH1 0x1F AND DUP3 ADD SWAP2 JUMPDEST POP POP POP POP POP DUP2 MSTORE PUSH1 0x20 ADD PUSH1 0x5 DUP3 ADD DUP1 SLOAD DUP1 PUSH1 0x20 MUL PUSH1 0x20 ADD PUSH1 0x40 MLOAD SWAP1 DUP2 ADD PUSH1 0x40 MSTORE DUP1 SWAP3 SWAP2 SWAP1 DUP2 DUP2 MSTORE PUSH1 0x20 ADD PUSH1 0x0 SWAP1 JUMPDEST DUP3 DUP3 LT ISZERO PUSH2 0x35DA JUMPI DUP4 DUP3 SWAP1 PUSH1 0x0 MSTORE PUSH1 0x20 PUSH1 0x0 KECCAK256 ADD DUP1 SLOAD PUSH2 0x354D SWAP1 PUSH2 0x4BA0 JUMP JUMPDEST DUP1 PUSH1 0x1F ADD PUSH1 0x20 DUP1 SWAP2 DIV MUL PUSH1 0x20 ADD PUSH1 0x40 MLOAD SWAP1 DUP2 ADD PUSH1 0x40 MSTORE DUP1 SWAP3 SWAP2 SWAP1 DUP2 DUP2 MSTORE PUSH1 0x20 ADD DUP3 DUP1 SLOAD PUSH2 0x3579 SWAP1 PUSH2 0x4BA0 JUMP JUMPDEST DUP1 ISZERO PUSH2 0x35C6 JUMPI DUP1 PUSH1 0x1F LT PUSH2 0x359B JUMPI PUSH2 0x100 DUP1 DUP4 SLOAD DIV MUL DUP4 MSTORE SWAP2 PUSH1 0x20 ADD SWAP2 PUSH2 0x35C6 JUMP JUMPDEST DUP3 ADD SWAP2 SWAP1 PUSH1 0x0 MSTORE PUSH1 0x20 PUSH1 0x0 KECCAK256 SWAP1 JUMPDEST DUP2 SLOAD DUP2 MSTORE SWAP1 PUSH1 0x1 ADD SWAP1 PUSH1 0x20 ADD DUP1 DUP4 GT PUSH2 0x35A9 JUMPI DUP3 SWAP1 SUB PUSH1 0x1F AND DUP3 ADD SWAP2 JUMPDEST POP POP POP POP POP DUP2 MSTORE PUSH1 0x20 ADD SWAP1 PUSH1 0x1 ADD SWAP1 PUSH2 0x352E JUMP JUMPDEST POP POP POP POP DUP2 MSTORE PUSH1 0x20 ADD PUSH1 0x6 DUP3 ADD PUSH1 0x0 SWAP1 SLOAD SWAP1 PUSH2 0x100 EXP SWAP1 DIV PUSH1 0xFF AND ISZERO ISZERO ISZERO ISZERO DUP2 MSTORE POP POP DUP2 MSTORE POP PUSH1 0x2 PUSH1 0x0 DUP6 PUSH20 0xFFFFFFFFFFFFFFFFFFFFFFFFFFFFFFFFFFFFFFFF AND PUSH20 0xFFFFFFFFFFFFFFFFFFFFFFFFFFFFFFFFFFFFFFFF AND DUP2 MSTORE PUSH1 0x20 ADD SWAP1 DUP2 MSTORE PUSH1 0x20 ADD PUSH1 0x0 KECCAK256 PUSH1 0x0 DUP5 DUP2 MSTORE PUSH1 0x20 ADD SWAP1 DUP2 MSTORE PUSH1 0x20 ADD PUSH1 0x0 KECCAK256 PUSH1 0x0 DUP3 ADD MLOAD DUP2 PUSH1 0x0 ADD SSTORE PUSH1 0x20 DUP3 ADD MLOAD DUP2 PUSH1 0x1 ADD SSTORE PUSH1 0x40 DUP3 ADD MLOAD DUP2 PUSH1 0x2 ADD SSTORE PUSH1 0x60 DUP3 ADD MLOAD DUP2 PUSH1 0x3 ADD PUSH1 0x0 DUP3 ADD MLOAD DUP2 PUSH1 0x0 ADD SSTORE PUSH1 0x20 DUP3 ADD MLOAD DUP2 PUSH1 0x1 ADD PUSH1 0x0 PUSH2 0x100 EXP DUP2 SLOAD DUP2 PUSH20 0xFFFFFFFFFFFFFFFFFFFFFFFFFFFFFFFFFFFFFFFF MUL NOT AND SWAP1 DUP4 PUSH20 0xFFFFFFFFFFFFFFFFFFFFFFFFFFFFFFFFFFFFFFFF AND MUL OR SWAP1 SSTORE POP PUSH1 0x40 DUP3 ADD MLOAD DUP2 PUSH1 0x2 ADD SWAP1 DUP1 MLOAD SWAP1 PUSH1 0x20 ADD SWAP1 PUSH2 0x36E4 SWAP3 SWAP2 SWAP1 PUSH2 0x38E9 JUMP JUMPDEST POP PUSH1 0x60 DUP3 ADD MLOAD DUP2 PUSH1 0x3 ADD SWAP1 DUP1 MLOAD SWAP1 PUSH1 0x20 ADD SWAP1 PUSH2 0x3701 SWAP3 SWAP2 SWAP1 PUSH2 0x38E9 JUMP JUMPDEST POP PUSH1 0x80 DUP3 ADD MLOAD DUP2 PUSH1 0x4 ADD SWAP1 DUP1 MLOAD SWAP1 PUSH1 0x20 ADD SWAP1 PUSH2 0x371E SWAP3 SWAP2 SWAP1 PUSH2 0x38E9 JUMP JUMPDEST POP PUSH1 0xA0 DUP3 ADD MLOAD DUP2 PUSH1 0x5 ADD SWAP1 DUP1 MLOAD SWAP1 PUSH1 0x20 ADD SWAP1 PUSH2 0x373B SWAP3 SWAP2 SWAP1 PUSH2 0x396F JUMP JUMPDEST POP PUSH1 0xC0 DUP3 ADD MLOAD DUP2 PUSH1 0x6 ADD PUSH1 0x0 PUSH2 0x100 EXP DUP2 SLOAD DUP2 PUSH1 0xFF MUL NOT AND SWAP1 DUP4 ISZERO ISZERO MUL OR SWAP1 SSTORE POP POP POP SWAP1 POP POP PUSH1 0x1 PUSH1 0x2 PUSH1 0x0 DUP6 PUSH20 0xFFFFFFFFFFFFFFFFFFFFFFFFFFFFFFFFFFFFFFFF AND PUSH20 0xFFFFFFFFFFFFFFFFFFFFFFFFFFFFFFFFFFFFFFFF AND DUP2 MSTORE PUSH1 0x20 ADD SWAP1 DUP2 MSTORE PUSH1 0x20 ADD PUSH1 0x0 KECCAK256 PUSH1 0x0 DUP5 DUP2 MSTORE PUSH1 0x20 ADD SWAP1 DUP2 MSTORE PUSH1 0x20 ADD PUSH1 0x0 KECCAK256 PUSH1 0x3 ADD PUSH1 0x6 ADD PUSH1 0x0 PUSH2 0x100 EXP DUP2 SLOAD DUP2 PUSH1 0xFF MUL NOT AND SWAP1 DUP4 ISZERO ISZERO MUL OR SWAP1 SSTORE POP PUSH1 0x1 PUSH1 0x5 DUP4 DUP2 SLOAD DUP2 LT PUSH2 0x37E6 JUMPI PUSH2 0x37E5 PUSH2 0x4CD9 JUMP JUMPDEST JUMPDEST SWAP1 PUSH1 0x0 MSTORE PUSH1 0x20 PUSH1 0x0 KECCAK256 SWAP1 PUSH1 0x7 MUL ADD PUSH1 0x6 ADD PUSH1 0x0 PUSH2 0x100 EXP DUP2 SLOAD DUP2 PUSH1 0xFF MUL NOT AND SWAP1 DUP4 ISZERO ISZERO MUL OR SWAP1 SSTORE POP PUSH1 0x3 PUSH1 0x0 DUP5 PUSH20 0xFFFFFFFFFFFFFFFFFFFFFFFFFFFFFFFFFFFFFFFF AND PUSH20 0xFFFFFFFFFFFFFFFFFFFFFFFFFFFFFFFFFFFFFFFF AND DUP2 MSTORE PUSH1 0x20 ADD SWAP1 DUP2 MSTORE PUSH1 0x20 ADD PUSH1 0x0 KECCAK256 PUSH1 0x0 DUP4 DUP2 MSTORE PUSH1 0x20 ADD SWAP1 DUP2 MSTORE PUSH1 0x20 ADD PUSH1 0x0 KECCAK256 PUSH1 0x0 DUP1 DUP3 ADD PUSH1 0x0 SWAP1 SSTORE PUSH1 0x1 DUP3 ADD PUSH1 0x0 PUSH2 0x100 EXP DUP2 SLOAD SWAP1 PUSH20 0xFFFFFFFFFFFFFFFFFFFFFFFFFFFFFFFFFFFFFFFF MUL NOT AND SWAP1 SSTORE PUSH1 0x2 DUP3 ADD PUSH1 0x0 PUSH2 0x389E SWAP2 SWAP1 PUSH2 0x3B47 JUMP JUMPDEST PUSH1 0x3 DUP3 ADD PUSH1 0x0 PUSH2 0x38AE SWAP2 SWAP1 PUSH2 0x3B47 JUMP JUMPDEST PUSH1 0x4 DUP3 ADD PUSH1 0x0 PUSH2 0x38BE SWAP2 SWAP1 PUSH2 0x3B47 JUMP JUMPDEST PUSH1 0x5 DUP3 ADD PUSH1 0x0 PUSH2 0x38CE SWAP2 SWAP1 PUSH2 0x3B87 JUMP JUMPDEST PUSH1 0x6 DUP3 ADD PUSH1 0x0 PUSH2 0x100 EXP DUP2 SLOAD SWAP1 PUSH1 0xFF MUL NOT AND SWAP1 SSTORE POP POP POP POP POP JUMP JUMPDEST DUP3 DUP1 SLOAD PUSH2 0x38F5 SWAP1 PUSH2 0x4BA0 JUMP JUMPDEST SWAP1 PUSH1 0x0 MSTORE PUSH1 0x20 PUSH1 0x0 KECCAK256 SWAP1 PUSH1 0x1F ADD PUSH1 0x20 SWAP1 DIV DUP2 ADD SWAP3 DUP3 PUSH2 0x3917 JUMPI PUSH1 0x0 DUP6 SSTORE PUSH2 0x395E JUMP JUMPDEST DUP3 PUSH1 0x1F LT PUSH2 0x3930 JUMPI DUP1 MLOAD PUSH1 0xFF NOT AND DUP4 DUP1 ADD OR DUP6 SSTORE PUSH2 0x395E JUMP JUMPDEST DUP3 DUP1 ADD PUSH1 0x1 ADD DUP6 SSTORE DUP3 ISZERO PUSH2 0x395E JUMPI SWAP2 DUP3 ADD JUMPDEST DUP3 DUP2 GT ISZERO PUSH2 0x395D JUMPI DUP3 MLOAD DUP3 SSTORE SWAP2 PUSH1 0x20 ADD SWAP2 SWAP1 PUSH1 0x1 ADD SWAP1 PUSH2 0x3942 JUMP JUMPDEST JUMPDEST POP SWAP1 POP PUSH2 0x396B SWAP2 SWAP1 PUSH2 0x3BA8 JUMP JUMPDEST POP SWAP1 JUMP JUMPDEST DUP3 DUP1 SLOAD DUP3 DUP3 SSTORE SWAP1 PUSH1 0x0 MSTORE PUSH1 0x20 PUSH1 0x0 KECCAK256 SWAP1 DUP2 ADD SWAP3 DUP3 ISZERO PUSH2 0x39BE JUMPI SWAP2 PUSH1 0x20 MUL DUP3 ADD JUMPDEST DUP3 DUP2 GT ISZERO PUSH2 0x39BD JUMPI DUP3 MLOAD DUP3 SWAP1 DUP1 MLOAD SWAP1 PUSH1 0x20 ADD SWAP1 PUSH2 0x39AD SWAP3 SWAP2 SWAP1 PUSH2 0x38E9 JUMP JUMPDEST POP SWAP2 PUSH1 0x20 ADD SWAP2 SWAP1 PUSH1 0x1 ADD SWAP1 PUSH2 0x398F JUMP JUMPDEST JUMPDEST POP SWAP1 POP PUSH2 0x39CB SWAP2 SWAP1 PUSH2 0x3BC5 JUMP JUMPDEST POP SWAP1 JUMP JUMPDEST PUSH1 0x40 MLOAD DUP1 PUSH1 0xE0 ADD PUSH1 0x40 MSTORE DUP1 PUSH1 0x0 DUP2 MSTORE PUSH1 0x20 ADD PUSH1 0x0 PUSH20 0xFFFFFFFFFFFFFFFFFFFFFFFFFFFFFFFFFFFFFFFF AND DUP2 MSTORE PUSH1 0x20 ADD PUSH1 0x60 DUP2 MSTORE PUSH1 0x20 ADD PUSH1 0x60 DUP2 MSTORE PUSH1 0x20 ADD PUSH1 0x60 DUP2 MSTORE PUSH1 0x20 ADD PUSH1 0x60 DUP2 MSTORE PUSH1 0x20 ADD PUSH1 0x0 ISZERO ISZERO DUP2 MSTORE POP SWAP1 JUMP JUMPDEST PUSH1 0x40 MLOAD DUP1 PUSH1 0x80 ADD PUSH1 0x40 MSTORE DUP1 PUSH1 0x0 DUP2 MSTORE PUSH1 0x20 ADD PUSH1 0x0 DUP2 MSTORE PUSH1 0x20 ADD PUSH1 0x0 DUP2 MSTORE PUSH1 0x20 ADD PUSH2 0x3A4C PUSH2 0x39CF JUMP JUMPDEST DUP2 MSTORE POP SWAP1 JUMP JUMPDEST DUP3 DUP1 SLOAD PUSH2 0x3A5E SWAP1 PUSH2 0x4BA0 JUMP JUMPDEST SWAP1 PUSH1 0x0 MSTORE PUSH1 0x20 PUSH1 0x0 KECCAK256 SWAP1 PUSH1 0x1F ADD PUSH1 0x20 SWAP1 DIV DUP2 ADD SWAP3 DUP3 PUSH2 0x3A80 JUMPI PUSH1 0x0 DUP6 SSTORE PUSH2 0x3ACE JUMP JUMPDEST DUP3 PUSH1 0x1F LT PUSH2 0x3A91 JUMPI DUP1 SLOAD DUP6 SSTORE PUSH2 0x3ACE JUMP JUMPDEST DUP3 DUP1 ADD PUSH1 0x1 ADD DUP6 SSTORE DUP3 ISZERO PUSH2 0x3ACE JUMPI PUSH1 0x0 MSTORE PUSH1 0x20 PUSH1 0x0 KECCAK256 SWAP2 PUSH1 0x1F ADD PUSH1 0x20 SWAP1 DIV DUP3 ADD JUMPDEST DUP3 DUP2 GT ISZERO PUSH2 0x3ACD JUMPI DUP3 SLOAD DUP3 SSTORE SWAP2 PUSH1 0x1 ADD SWAP2 SWAP1 PUSH1 0x1 ADD SWAP1 PUSH2 0x3AB2 JUMP JUMPDEST JUMPDEST POP SWAP1 POP PUSH2 0x3ADB SWAP2 SWAP1 PUSH2 0x3BA8 JUMP JUMPDEST POP SWAP1 JUMP JUMPDEST DUP3 DUP1 SLOAD DUP3 DUP3 SSTORE SWAP1 PUSH1 0x0 MSTORE PUSH1 0x20 PUSH1 0x0 KECCAK256 SWAP1 DUP2 ADD SWAP3 DUP3 ISZERO PUSH2 0x3B36 JUMPI PUSH1 0x0 MSTORE PUSH1 0x20 PUSH1 0x0 KECCAK256 SWAP2 DUP3 ADD JUMPDEST DUP3 DUP2 GT ISZERO PUSH2 0x3B35 JUMPI DUP3 DUP3 SWAP1 DUP1 SLOAD PUSH2 0x3B1A SWAP1 PUSH2 0x4BA0 JUMP JUMPDEST PUSH2 0x3B25 SWAP3 SWAP2 SWAP1 PUSH2 0x3A52 JUMP JUMPDEST POP SWAP2 PUSH1 0x1 ADD SWAP2 SWAP1 PUSH1 0x1 ADD SWAP1 PUSH2 0x3B04 JUMP JUMPDEST JUMPDEST POP SWAP1 POP PUSH2 0x3B43 SWAP2 SWAP1 PUSH2 0x3BC5 JUMP JUMPDEST POP SWAP1 JUMP JUMPDEST POP DUP1 SLOAD PUSH2 0x3B53 SWAP1 PUSH2 0x4BA0 JUMP JUMPDEST PUSH1 0x0 DUP3 SSTORE DUP1 PUSH1 0x1F LT PUSH2 0x3B65 JUMPI POP PUSH2 0x3B84 JUMP JUMPDEST PUSH1 0x1F ADD PUSH1 0x20 SWAP1 DIV SWAP1 PUSH1 0x0 MSTORE PUSH1 0x20 PUSH1 0x0 KECCAK256 SWAP1 DUP2 ADD SWAP1 PUSH2 0x3B83 SWAP2 SWAP1 PUSH2 0x3BA8 JUMP JUMPDEST JUMPDEST POP JUMP JUMPDEST POP DUP1 SLOAD PUSH1 0x0 DUP3 SSTORE SWAP1 PUSH1 0x0 MSTORE PUSH1 0x20 PUSH1 0x0 KECCAK256 SWAP1 DUP2 ADD SWAP1 PUSH2 0x3BA5 SWAP2 SWAP1 PUSH2 0x3BC5 JUMP JUMPDEST POP JUMP JUMPDEST JUMPDEST DUP1 DUP3 GT ISZERO PUSH2 0x3BC1 JUMPI PUSH1 0x0 DUP2 PUSH1 0x0 SWAP1 SSTORE POP PUSH1 0x1 ADD PUSH2 0x3BA9 JUMP JUMPDEST POP SWAP1 JUMP JUMPDEST JUMPDEST DUP1 DUP3 GT ISZERO PUSH2 0x3BE5 JUMPI PUSH1 0x0 DUP2 DUP2 PUSH2 0x3BDC SWAP2 SWAP1 PUSH2 0x3B47 JUMP JUMPDEST POP PUSH1 0x1 ADD PUSH2 0x3BC6 JUMP JUMPDEST POP SWAP1 JUMP JUMPDEST PUSH1 0x0 PUSH2 0x3BFC PUSH2 0x3BF7 DUP5 PUSH2 0x48B6 JUMP JUMPDEST PUSH2 0x4891 JUMP JUMPDEST SWAP1 POP DUP1 DUP4 DUP3 MSTORE PUSH1 0x20 DUP3 ADD SWAP1 POP DUP3 DUP6 PUSH1 0x20 DUP7 MUL DUP3 ADD GT ISZERO PUSH2 0x3C1F JUMPI PUSH2 0x3C1E PUSH2 0x4D3C JUMP JUMPDEST JUMPDEST PUSH1 0x0 JUMPDEST DUP6 DUP2 LT ISZERO PUSH2 0x3C6D JUMPI DUP2 CALLDATALOAD PUSH8 0xFFFFFFFFFFFFFFFF DUP2 GT ISZERO PUSH2 0x3C45 JUMPI PUSH2 0x3C44 PUSH2 0x4D37 JUMP JUMPDEST JUMPDEST DUP1 DUP7 ADD PUSH2 0x3C52 DUP10 DUP3 PUSH2 0x3CFC JUMP JUMPDEST DUP6 MSTORE PUSH1 0x20 DUP6 ADD SWAP5 POP PUSH1 0x20 DUP5 ADD SWAP4 POP POP POP PUSH1 0x1 DUP2 ADD SWAP1 POP PUSH2 0x3C22 JUMP JUMPDEST POP POP POP SWAP4 SWAP3 POP POP POP JUMP JUMPDEST PUSH1 0x0 PUSH2 0x3C8A PUSH2 0x3C85 DUP5 PUSH2 0x48E2 JUMP JUMPDEST PUSH2 0x4891 JUMP JUMPDEST SWAP1 POP DUP3 DUP2 MSTORE PUSH1 0x20 DUP2 ADD DUP5 DUP5 DUP5 ADD GT ISZERO PUSH2 0x3CA6 JUMPI PUSH2 0x3CA5 PUSH2 0x4D41 JUMP JUMPDEST JUMPDEST PUSH2 0x3CB1 DUP5 DUP3 DUP6 PUSH2 0x4B5E JUMP JUMPDEST POP SWAP4 SWAP3 POP POP POP JUMP JUMPDEST PUSH1 0x0 DUP2 CALLDATALOAD SWAP1 POP PUSH2 0x3CC8 DUP2 PUSH2 0x4ECC JUMP JUMPDEST SWAP3 SWAP2 POP POP JUMP JUMPDEST PUSH1 0x0 DUP3 PUSH1 0x1F DUP4 ADD SLT PUSH2 0x3CE3 JUMPI PUSH2 0x3CE2 PUSH2 0x4D37 JUMP JUMPDEST JUMPDEST DUP2 CALLDATALOAD PUSH2 0x3CF3 DUP5 DUP3 PUSH1 0x20 DUP7 ADD PUSH2 0x3BE9 JUMP JUMPDEST SWAP2 POP POP SWAP3 SWAP2 POP POP JUMP JUMPDEST PUSH1 0x0 DUP3 PUSH1 0x1F DUP4 ADD SLT PUSH2 0x3D11 JUMPI PUSH2 0x3D10 PUSH2 0x4D37 JUMP JUMPDEST JUMPDEST DUP2 CALLDATALOAD PUSH2 0x3D21 DUP5 DUP3 PUSH1 0x20 DUP7 ADD PUSH2 0x3C77 JUMP JUMPDEST SWAP2 POP POP SWAP3 SWAP2 POP POP JUMP JUMPDEST PUSH1 0x0 DUP2 CALLDATALOAD SWAP1 POP PUSH2 0x3D39 DUP2 PUSH2 0x4EE3 JUMP JUMPDEST SWAP3 SWAP2 POP POP JUMP JUMPDEST PUSH1 0x0 PUSH1 0x20 DUP3 DUP5 SUB SLT ISZERO PUSH2 0x3D55 JUMPI PUSH2 0x3D54 PUSH2 0x4D4B JUMP JUMPDEST JUMPDEST PUSH1 0x0 PUSH2 0x3D63 DUP5 DUP3 DUP6 ADD PUSH2 0x3CB9 JUMP JUMPDEST SWAP2 POP POP SWAP3 SWAP2 POP POP JUMP JUMPDEST PUSH1 0x0 DUP1 PUSH1 0x40 DUP4 DUP6 SUB SLT ISZERO PUSH2 0x3D83 JUMPI PUSH2 0x3D82 PUSH2 0x4D4B JUMP JUMPDEST JUMPDEST PUSH1 0x0 PUSH2 0x3D91 DUP6 DUP3 DUP7 ADD PUSH2 0x3CB9 JUMP JUMPDEST SWAP3 POP POP PUSH1 0x20 PUSH2 0x3DA2 DUP6 DUP3 DUP7 ADD PUSH2 0x3D2A JUMP JUMPDEST SWAP2 POP POP SWAP3 POP SWAP3 SWAP1 POP JUMP JUMPDEST PUSH1 0x0 DUP1 PUSH1 0x0 DUP1 PUSH1 0x0 DUP1 PUSH1 0xC0 DUP8 DUP10 SUB SLT ISZERO PUSH2 0x3DC9 JUMPI PUSH2 0x3DC8 PUSH2 0x4D4B JUMP JUMPDEST JUMPDEST PUSH1 0x0 DUP8 ADD CALLDATALOAD PUSH8 0xFFFFFFFFFFFFFFFF DUP2 GT ISZERO PUSH2 0x3DE7 JUMPI PUSH2 0x3DE6 PUSH2 0x4D46 JUMP JUMPDEST JUMPDEST PUSH2 0x3DF3 DUP10 DUP3 DUP11 ADD PUSH2 0x3CFC JUMP JUMPDEST SWAP7 POP POP PUSH1 0x20 DUP8 ADD CALLDATALOAD PUSH8 0xFFFFFFFFFFFFFFFF DUP2 GT ISZERO PUSH2 0x3E14 JUMPI PUSH2 0x3E13 PUSH2 0x4D46 JUMP JUMPDEST JUMPDEST PUSH2 0x3E20 DUP10 DUP3 DUP11 ADD PUSH2 0x3CFC JUMP JUMPDEST SWAP6 POP POP PUSH1 0x40 PUSH2 0x3E31 DUP10 DUP3 DUP11 ADD PUSH2 0x3CB9 JUMP JUMPDEST SWAP5 POP POP PUSH1 0x60 PUSH2 0x3E42 DUP10 DUP3 DUP11 ADD PUSH2 0x3D2A JUMP JUMPDEST SWAP4 POP POP PUSH1 0x80 PUSH2 0x3E53 DUP10 DUP3 DUP11 ADD PUSH2 0x3D2A JUMP JUMPDEST SWAP3 POP POP PUSH1 0xA0 PUSH2 0x3E64 DUP10 DUP3 DUP11 ADD PUSH2 0x3D2A JUMP JUMPDEST SWAP2 POP POP SWAP3 SWAP6 POP SWAP3 SWAP6 POP SWAP3 SWAP6 JUMP JUMPDEST PUSH1 0x0 DUP1 PUSH1 0x0 DUP1 PUSH1 0x80 DUP6 DUP8 SUB SLT ISZERO PUSH2 0x3E8B JUMPI PUSH2 0x3E8A PUSH2 0x4D4B JUMP JUMPDEST JUMPDEST PUSH1 0x0 DUP6 ADD CALLDATALOAD PUSH8 0xFFFFFFFFFFFFFFFF DUP2 GT ISZERO PUSH2 0x3EA9 JUMPI PUSH2 0x3EA8 PUSH2 0x4D46 JUMP JUMPDEST JUMPDEST PUSH2 0x3EB5 DUP8 DUP3 DUP9 ADD PUSH2 0x3CFC JUMP JUMPDEST SWAP5 POP POP PUSH1 0x20 DUP6 ADD CALLDATALOAD PUSH8 0xFFFFFFFFFFFFFFFF DUP2 GT ISZERO PUSH2 0x3ED6 JUMPI PUSH2 0x3ED5 PUSH2 0x4D46 JUMP JUMPDEST JUMPDEST PUSH2 0x3EE2 DUP8 DUP3 DUP9 ADD PUSH2 0x3CFC JUMP JUMPDEST SWAP4 POP POP PUSH1 0x40 DUP6 ADD CALLDATALOAD PUSH8 0xFFFFFFFFFFFFFFFF DUP2 GT ISZERO PUSH2 0x3F03 JUMPI PUSH2 0x3F02 PUSH2 0x4D46 JUMP JUMPDEST JUMPDEST PUSH2 0x3F0F DUP8 DUP3 DUP9 ADD PUSH2 0x3CFC JUMP JUMPDEST SWAP3 POP POP PUSH1 0x60 DUP6 ADD CALLDATALOAD PUSH8 0xFFFFFFFFFFFFFFFF DUP2 GT ISZERO PUSH2 0x3F30 JUMPI PUSH2 0x3F2F PUSH2 0x4D46 JUMP JUMPDEST JUMPDEST PUSH2 0x3F3C DUP8 DUP3 DUP9 ADD PUSH2 0x3CCE JUMP JUMPDEST SWAP2 POP POP SWAP3 SWAP6 SWAP2 SWAP5 POP SWAP3 POP JUMP JUMPDEST PUSH1 0x0 DUP1 PUSH1 0x0 DUP1 PUSH1 0x0 PUSH1 0xA0 DUP7 DUP9 SUB SLT ISZERO PUSH2 0x3F64 JUMPI PUSH2 0x3F63 PUSH2 0x4D4B JUMP JUMPDEST JUMPDEST PUSH1 0x0 DUP7 ADD CALLDATALOAD PUSH8 0xFFFFFFFFFFFFFFFF DUP2 GT ISZERO PUSH2 0x3F82 JUMPI PUSH2 0x3F81 PUSH2 0x4D46 JUMP JUMPDEST JUMPDEST PUSH2 0x3F8E DUP9 DUP3 DUP10 ADD PUSH2 0x3CFC JUMP JUMPDEST SWAP6 POP POP PUSH1 0x20 DUP7 ADD CALLDATALOAD PUSH8 0xFFFFFFFFFFFFFFFF DUP2 GT ISZERO PUSH2 0x3FAF JUMPI PUSH2 0x3FAE PUSH2 0x4D46 JUMP JUMPDEST JUMPDEST PUSH2 0x3FBB DUP9 DUP3 DUP10 ADD PUSH2 0x3CFC JUMP JUMPDEST SWAP5 POP POP PUSH1 0x40 DUP7 ADD CALLDATALOAD PUSH8 0xFFFFFFFFFFFFFFFF DUP2 GT ISZERO PUSH2 0x3FDC JUMPI PUSH2 0x3FDB PUSH2 0x4D46 JUMP JUMPDEST JUMPDEST PUSH2 0x3FE8 DUP9 DUP3 DUP10 ADD PUSH2 0x3CFC JUMP JUMPDEST SWAP4 POP POP PUSH1 0x60 DUP7 ADD CALLDATALOAD PUSH8 0xFFFFFFFFFFFFFFFF DUP2 GT ISZERO PUSH2 0x4009 JUMPI PUSH2 0x4008 PUSH2 0x4D46 JUMP JUMPDEST JUMPDEST PUSH2 0x4015 DUP9 DUP3 DUP10 ADD PUSH2 0x3CCE JUMP JUMPDEST SWAP3 POP POP PUSH1 0x80 PUSH2 0x4026 DUP9 DUP3 DUP10 ADD PUSH2 0x3D2A JUMP JUMPDEST SWAP2 POP POP SWAP3 SWAP6 POP SWAP3 SWAP6 SWAP1 SWAP4 POP JUMP JUMPDEST PUSH1 0x0 PUSH1 0x20 DUP3 DUP5 SUB SLT ISZERO PUSH2 0x4049 JUMPI PUSH2 0x4048 PUSH2 0x4D4B JUMP JUMPDEST JUMPDEST PUSH1 0x0 PUSH2 0x4057 DUP5 DUP3 DUP6 ADD PUSH2 0x3D2A JUMP JUMPDEST SWAP2 POP POP SWAP3 SWAP2 POP POP JUMP JUMPDEST PUSH1 0x0 DUP1 PUSH1 0x40 DUP4 DUP6 SUB SLT ISZERO PUSH2 0x4077 JUMPI PUSH2 0x4076 PUSH2 0x4D4B JUMP JUMPDEST JUMPDEST PUSH1 0x0 PUSH2 0x4085 DUP6 DUP3 DUP7 ADD PUSH2 0x3D2A JUMP JUMPDEST SWAP3 POP POP PUSH1 0x20 PUSH2 0x4096 DUP6 DUP3 DUP7 ADD PUSH2 0x3CB9 JUMP JUMPDEST SWAP2 POP POP SWAP3 POP SWAP3 SWAP1 POP JUMP JUMPDEST PUSH1 0x0 DUP1 PUSH1 0x40 DUP4 DUP6 SUB SLT ISZERO PUSH2 0x40B7 JUMPI PUSH2 0x40B6 PUSH2 0x4D4B JUMP JUMPDEST JUMPDEST PUSH1 0x0 PUSH2 0x40C5 DUP6 DUP3 DUP7 ADD PUSH2 0x3D2A JUMP JUMPDEST SWAP3 POP POP PUSH1 0x20 PUSH2 0x40D6 DUP6 DUP3 DUP7 ADD PUSH2 0x3D2A JUMP JUMPDEST SWAP2 POP POP SWAP3 POP SWAP3 SWAP1 POP JUMP JUMPDEST PUSH1 0x0 PUSH2 0x40EC DUP4 DUP4 PUSH2 0x4295 JUMP JUMPDEST SWAP1 POP SWAP3 SWAP2 POP POP JUMP JUMPDEST PUSH1 0x0 PUSH2 0x4100 DUP4 DUP4 PUSH2 0x4417 JUMP JUMPDEST SWAP1 POP SWAP3 SWAP2 POP POP JUMP JUMPDEST PUSH1 0x0 PUSH2 0x4114 DUP4 DUP4 PUSH2 0x45DC JUMP JUMPDEST PUSH1 0xA0 DUP4 ADD SWAP1 POP SWAP3 SWAP2 POP POP JUMP JUMPDEST PUSH2 0x4129 DUP2 PUSH2 0x4B16 JUMP JUMPDEST DUP3 MSTORE POP POP JUMP JUMPDEST PUSH2 0x4138 DUP2 PUSH2 0x4B16 JUMP JUMPDEST DUP3 MSTORE POP POP JUMP JUMPDEST PUSH1 0x0 PUSH2 0x4149 DUP3 PUSH2 0x4943 JUMP JUMPDEST PUSH2 0x4153 DUP2 DUP6 PUSH2 0x4996 JUMP JUMPDEST SWAP4 POP DUP4 PUSH1 0x20 DUP3 MUL DUP6 ADD PUSH2 0x4165 DUP6 PUSH2 0x4913 JUMP JUMPDEST DUP1 PUSH1 0x0 JUMPDEST DUP6 DUP2 LT ISZERO PUSH2 0x41A1 JUMPI DUP5 DUP5 SUB DUP10 MSTORE DUP2 MLOAD PUSH2 0x4182 DUP6 DUP3 PUSH2 0x40E0 JUMP JUMPDEST SWAP5 POP PUSH2 0x418D DUP4 PUSH2 0x496F JUMP JUMPDEST SWAP3 POP PUSH1 0x20 DUP11 ADD SWAP10 POP POP PUSH1 0x1 DUP2 ADD SWAP1 POP PUSH2 0x4169 JUMP JUMPDEST POP DUP3 SWAP8 POP DUP8 SWAP6 POP POP POP POP POP POP SWAP3 SWAP2 POP POP JUMP JUMPDEST PUSH1 0x0 PUSH2 0x41BE DUP3 PUSH2 0x494E JUMP JUMPDEST PUSH2 0x41C8 DUP2 DUP6 PUSH2 0x49A7 JUMP JUMPDEST SWAP4 POP DUP4 PUSH1 0x20 DUP3 MUL DUP6 ADD PUSH2 0x41DA DUP6 PUSH2 0x4923 JUMP JUMPDEST DUP1 PUSH1 0x0 JUMPDEST DUP6 DUP2 LT ISZERO PUSH2 0x4216 JUMPI DUP5 DUP5 SUB DUP10 MSTORE DUP2 MLOAD PUSH2 0x41F7 DUP6 DUP3 PUSH2 0x40F4 JUMP JUMPDEST SWAP5 POP PUSH2 0x4202 DUP4 PUSH2 0x497C JUMP JUMPDEST SWAP3 POP PUSH1 0x20 DUP11 ADD SWAP10 POP POP PUSH1 0x1 DUP2 ADD SWAP1 POP PUSH2 0x41DE JUMP JUMPDEST POP DUP3 SWAP8 POP DUP8 SWAP6 POP POP POP POP POP POP SWAP3 SWAP2 POP POP JUMP JUMPDEST PUSH1 0x0 PUSH2 0x4233 DUP3 PUSH2 0x4959 JUMP JUMPDEST PUSH2 0x423D DUP2 DUP6 PUSH2 0x49B8 JUMP JUMPDEST SWAP4 POP PUSH2 0x4248 DUP4 PUSH2 0x4933 JUMP JUMPDEST DUP1 PUSH1 0x0 JUMPDEST DUP4 DUP2 LT ISZERO PUSH2 0x4279 JUMPI DUP2 MLOAD PUSH2 0x4260 DUP9 DUP3 PUSH2 0x4108 JUMP JUMPDEST SWAP8 POP PUSH2 0x426B DUP4 PUSH2 0x4989 JUMP JUMPDEST SWAP3 POP POP PUSH1 0x1 DUP2 ADD SWAP1 POP PUSH2 0x424C JUMP JUMPDEST POP DUP6 SWAP4 POP POP POP POP SWAP3 SWAP2 POP POP JUMP JUMPDEST PUSH2 0x428F DUP2 PUSH2 0x4B28 JUMP JUMPDEST DUP3 MSTORE POP POP JUMP JUMPDEST PUSH1 0x0 PUSH2 0x42A0 DUP3 PUSH2 0x4964 JUMP JUMPDEST PUSH2 0x42AA DUP2 DUP6 PUSH2 0x49D4 JUMP JUMPDEST SWAP4 POP PUSH2 0x42BA DUP2 DUP6 PUSH1 0x20 DUP7 ADD PUSH2 0x4B6D JUMP JUMPDEST PUSH2 0x42C3 DUP2 PUSH2 0x4D50 JUMP JUMPDEST DUP5 ADD SWAP2 POP POP SWAP3 SWAP2 POP POP JUMP JUMPDEST PUSH1 0x0 PUSH2 0x42D9 DUP3 PUSH2 0x4964 JUMP JUMPDEST PUSH2 0x42E3 DUP2 DUP6 PUSH2 0x49F6 JUMP JUMPDEST SWAP4 POP PUSH2 0x42F3 DUP2 DUP6 PUSH1 0x20 DUP7 ADD PUSH2 0x4B6D JUMP JUMPDEST DUP1 DUP5 ADD SWAP2 POP POP SWAP3 SWAP2 POP POP JUMP JUMPDEST PUSH1 0x0 PUSH2 0x430C PUSH1 0x26 DUP4 PUSH2 0x49E5 JUMP JUMPDEST SWAP2 POP PUSH2 0x4317 DUP3 PUSH2 0x4D61 JUMP JUMPDEST PUSH1 0x40 DUP3 ADD SWAP1 POP SWAP2 SWAP1 POP JUMP JUMPDEST PUSH1 0x0 PUSH2 0x432F PUSH1 0x33 DUP4 PUSH2 0x49E5 JUMP JUMPDEST SWAP2 POP PUSH2 0x433A DUP3 PUSH2 0x4DB0 JUMP JUMPDEST PUSH1 0x40 DUP3 ADD SWAP1 POP SWAP2 SWAP1 POP JUMP JUMPDEST PUSH1 0x0 PUSH2 0x4352 PUSH1 0x13 DUP4 PUSH2 0x49E5 JUMP JUMPDEST SWAP2 POP PUSH2 0x435D DUP3 PUSH2 0x4DFF JUMP JUMPDEST PUSH1 0x20 DUP3 ADD SWAP1 POP SWAP2 SWAP1 POP JUMP JUMPDEST PUSH1 0x0 PUSH2 0x4375 PUSH1 0x20 DUP4 PUSH2 0x49E5 JUMP JUMPDEST SWAP2 POP PUSH2 0x4380 DUP3 PUSH2 0x4E28 JUMP JUMPDEST PUSH1 0x20 DUP3 ADD SWAP1 POP SWAP2 SWAP1 POP JUMP JUMPDEST PUSH1 0x0 PUSH2 0x4398 PUSH1 0x27 DUP4 PUSH2 0x49E5 JUMP JUMPDEST SWAP2 POP PUSH2 0x43A3 DUP3 PUSH2 0x4E51 JUMP JUMPDEST PUSH1 0x40 DUP3 ADD SWAP1 POP SWAP2 SWAP1 POP JUMP JUMPDEST PUSH1 0x0 PUSH2 0x43BB PUSH1 0x0 DUP4 PUSH2 0x49C9 JUMP JUMPDEST SWAP2 POP PUSH2 0x43C6 DUP3 PUSH2 0x4EA0 JUMP JUMPDEST PUSH1 0x0 DUP3 ADD SWAP1 POP SWAP2 SWAP1 POP JUMP JUMPDEST PUSH1 0x0 PUSH2 0x43DE PUSH1 0x0 DUP4 PUSH2 0x49F6 JUMP JUMPDEST SWAP2 POP PUSH2 0x43E9 DUP3 PUSH2 0x4EA0 JUMP JUMPDEST PUSH1 0x0 DUP3 ADD SWAP1 POP SWAP2 SWAP1 POP JUMP JUMPDEST PUSH1 0x0 PUSH2 0x4401 PUSH1 0x14 DUP4 PUSH2 0x49E5 JUMP JUMPDEST SWAP2 POP PUSH2 0x440C DUP3 PUSH2 0x4EA3 JUMP JUMPDEST PUSH1 0x20 DUP3 ADD SWAP1 POP SWAP2 SWAP1 POP JUMP JUMPDEST PUSH1 0x0 PUSH1 0xE0 DUP4 ADD PUSH1 0x0 DUP4 ADD MLOAD PUSH2 0x442F PUSH1 0x0 DUP7 ADD DUP3 PUSH2 0x4644 JUMP JUMPDEST POP PUSH1 0x20 DUP4 ADD MLOAD PUSH2 0x4442 PUSH1 0x20 DUP7 ADD DUP3 PUSH2 0x4120 JUMP JUMPDEST POP PUSH1 0x40 DUP4 ADD MLOAD DUP5 DUP3 SUB PUSH1 0x40 DUP7 ADD MSTORE PUSH2 0x445A DUP3 DUP3 PUSH2 0x4295 JUMP JUMPDEST SWAP2 POP POP PUSH1 0x60 DUP4 ADD MLOAD DUP5 DUP3 SUB PUSH1 0x60 DUP7 ADD MSTORE PUSH2 0x4474 DUP3 DUP3 PUSH2 0x4295 JUMP JUMPDEST SWAP2 POP POP PUSH1 0x80 DUP4 ADD MLOAD DUP5 DUP3 SUB PUSH1 0x80 DUP7 ADD MSTORE PUSH2 0x448E DUP3 DUP3 PUSH2 0x4295 JUMP JUMPDEST SWAP2 POP POP PUSH1 0xA0 DUP4 ADD MLOAD DUP5 DUP3 SUB PUSH1 0xA0 DUP7 ADD MSTORE PUSH2 0x44A8 DUP3 DUP3 PUSH2 0x413E JUMP JUMPDEST SWAP2 POP POP PUSH1 0xC0 DUP4 ADD MLOAD PUSH2 0x44BD PUSH1 0xC0 DUP7 ADD DUP3 PUSH2 0x4286 JUMP JUMPDEST POP DUP1 SWAP2 POP POP SWAP3 SWAP2 POP POP JUMP JUMPDEST PUSH1 0x0 PUSH1 0xE0 DUP4 ADD PUSH1 0x0 DUP4 ADD MLOAD PUSH2 0x44E0 PUSH1 0x0 DUP7 ADD DUP3 PUSH2 0x4644 JUMP JUMPDEST POP PUSH1 0x20 DUP4 ADD MLOAD PUSH2 0x44F3 PUSH1 0x20 DUP7 ADD DUP3 PUSH2 0x4120 JUMP JUMPDEST POP PUSH1 0x40 DUP4 ADD MLOAD DUP5 DUP3 SUB PUSH1 0x40 DUP7 ADD MSTORE PUSH2 0x450B DUP3 DUP3 PUSH2 0x4295 JUMP JUMPDEST SWAP2 POP POP PUSH1 0x60 DUP4 ADD MLOAD DUP5 DUP3 SUB PUSH1 0x60 DUP7 ADD MSTORE PUSH2 0x4525 DUP3 DUP3 PUSH2 0x4295 JUMP JUMPDEST SWAP2 POP POP PUSH1 0x80 DUP4 ADD MLOAD DUP5 DUP3 SUB PUSH1 0x80 DUP7 ADD MSTORE PUSH2 0x453F DUP3 DUP3 PUSH2 0x4295 JUMP JUMPDEST SWAP2 POP POP PUSH1 0xA0 DUP4 ADD MLOAD DUP5 DUP3 SUB PUSH1 0xA0 DUP7 ADD MSTORE PUSH2 0x4559 DUP3 DUP3 PUSH2 0x413E JUMP JUMPDEST SWAP2 POP POP PUSH1 0xC0 DUP4 ADD MLOAD PUSH2 0x456E PUSH1 0xC0 DUP7 ADD DUP3 PUSH2 0x4286 JUMP JUMPDEST POP DUP1 SWAP2 POP POP SWAP3 SWAP2 POP POP JUMP JUMPDEST PUSH1 0x0 PUSH1 0x80 DUP4 ADD PUSH1 0x0 DUP4 ADD MLOAD PUSH2 0x4591 PUSH1 0x0 DUP7 ADD DUP3 PUSH2 0x4644 JUMP JUMPDEST POP PUSH1 0x20 DUP4 ADD MLOAD PUSH2 0x45A4 PUSH1 0x20 DUP7 ADD DUP3 PUSH2 0x4644 JUMP JUMPDEST POP PUSH1 0x40 DUP4 ADD MLOAD PUSH2 0x45B7 PUSH1 0x40 DUP7 ADD DUP3 PUSH2 0x4644 JUMP JUMPDEST POP PUSH1 0x60 DUP4 ADD MLOAD DUP5 DUP3 SUB PUSH1 0x60 DUP7 ADD MSTORE PUSH2 0x45CF DUP3 DUP3 PUSH2 0x4417 JUMP JUMPDEST SWAP2 POP POP DUP1 SWAP2 POP POP SWAP3 SWAP2 POP POP JUMP JUMPDEST PUSH1 0xA0 DUP3 ADD PUSH1 0x0 DUP3 ADD MLOAD PUSH2 0x45F2 PUSH1 0x0 DUP6 ADD DUP3 PUSH2 0x4644 JUMP JUMPDEST POP PUSH1 0x20 DUP3 ADD MLOAD PUSH2 0x4605 PUSH1 0x20 DUP6 ADD DUP3 PUSH2 0x4644 JUMP JUMPDEST POP PUSH1 0x40 DUP3 ADD MLOAD PUSH2 0x4618 PUSH1 0x40 DUP6 ADD DUP3 PUSH2 0x4644 JUMP JUMPDEST POP PUSH1 0x60 DUP3 ADD MLOAD PUSH2 0x462B PUSH1 0x60 DUP6 ADD DUP3 PUSH2 0x4120 JUMP JUMPDEST POP PUSH1 0x80 DUP3 ADD MLOAD PUSH2 0x463E PUSH1 0x80 DUP6 ADD DUP3 PUSH2 0x4120 JUMP JUMPDEST POP POP POP POP JUMP JUMPDEST PUSH2 0x464D DUP2 PUSH2 0x4B54 JUMP JUMPDEST DUP3 MSTORE POP POP JUMP JUMPDEST PUSH2 0x465C DUP2 PUSH2 0x4B54 JUMP JUMPDEST DUP3 MSTORE POP POP JUMP JUMPDEST PUSH1 0x0 PUSH2 0x466E DUP3 DUP5 PUSH2 0x42CE JUMP JUMPDEST SWAP2 POP DUP2 SWAP1 POP SWAP3 SWAP2 POP POP JUMP JUMPDEST PUSH1 0x0 PUSH2 0x4684 DUP3 PUSH2 0x43AE JUMP JUMPDEST SWAP2 POP DUP2 SWAP1 POP SWAP2 SWAP1 POP JUMP JUMPDEST PUSH1 0x0 PUSH2 0x4699 DUP3 PUSH2 0x43D1 JUMP JUMPDEST SWAP2 POP DUP2 SWAP1 POP SWAP2 SWAP1 POP JUMP JUMPDEST PUSH1 0x0 PUSH1 0x20 DUP3 ADD SWAP1 POP PUSH2 0x46B8 PUSH1 0x0 DUP4 ADD DUP5 PUSH2 0x412F JUMP JUMPDEST SWAP3 SWAP2 POP POP JUMP JUMPDEST PUSH1 0x0 PUSH1 0x20 DUP3 ADD SWAP1 POP DUP2 DUP2 SUB PUSH1 0x0 DUP4 ADD MSTORE PUSH2 0x46D8 DUP2 DUP5 PUSH2 0x4228 JUMP JUMPDEST SWAP1 POP SWAP3 SWAP2 POP POP JUMP JUMPDEST PUSH1 0x0 PUSH1 0x20 DUP3 ADD SWAP1 POP DUP2 DUP2 SUB PUSH1 0x0 DUP4 ADD MSTORE PUSH2 0x46F9 DUP2 PUSH2 0x42FF JUMP JUMPDEST SWAP1 POP SWAP2 SWAP1 POP JUMP JUMPDEST PUSH1 0x0 PUSH1 0x20 DUP3 ADD SWAP1 POP DUP2 DUP2 SUB PUSH1 0x0 DUP4 ADD MSTORE PUSH2 0x4719 DUP2 PUSH2 0x4322 JUMP JUMPDEST SWAP1 POP SWAP2 SWAP1 POP JUMP JUMPDEST PUSH1 0x0 PUSH1 0x20 DUP3 ADD SWAP1 POP DUP2 DUP2 SUB PUSH1 0x0 DUP4 ADD MSTORE PUSH2 0x4739 DUP2 PUSH2 0x4345 JUMP JUMPDEST SWAP1 POP SWAP2 SWAP1 POP JUMP JUMPDEST PUSH1 0x0 PUSH1 0x20 DUP3 ADD SWAP1 POP DUP2 DUP2 SUB PUSH1 0x0 DUP4 ADD MSTORE PUSH2 0x4759 DUP2 PUSH2 0x4368 JUMP JUMPDEST SWAP1 POP SWAP2 SWAP1 POP JUMP JUMPDEST PUSH1 0x0 PUSH1 0x20 DUP3 ADD SWAP1 POP DUP2 DUP2 SUB PUSH1 0x0 DUP4 ADD MSTORE PUSH2 0x4779 DUP2 PUSH2 0x438B JUMP JUMPDEST SWAP1 POP SWAP2 SWAP1 POP JUMP JUMPDEST PUSH1 0x0 PUSH1 0x20 DUP3 ADD SWAP1 POP DUP2 DUP2 SUB PUSH1 0x0 DUP4 ADD MSTORE PUSH2 0x4799 DUP2 PUSH2 0x43F4 JUMP JUMPDEST SWAP1 POP SWAP2 SWAP1 POP JUMP JUMPDEST PUSH1 0x0 PUSH1 0x20 DUP3 ADD SWAP1 POP DUP2 DUP2 SUB PUSH1 0x0 DUP4 ADD MSTORE PUSH2 0x47BA DUP2 DUP5 PUSH2 0x4579 JUMP JUMPDEST SWAP1 POP SWAP3 SWAP2 POP POP JUMP JUMPDEST PUSH1 0x0 PUSH1 0x40 DUP3 ADD SWAP1 POP PUSH2 0x47D7 PUSH1 0x0 DUP4 ADD DUP6 PUSH2 0x4653 JUMP JUMPDEST DUP2 DUP2 SUB PUSH1 0x20 DUP4 ADD MSTORE PUSH2 0x47E9 DUP2 DUP5 PUSH2 0x41B3 JUMP JUMPDEST SWAP1 POP SWAP4 SWAP3 POP POP POP JUMP JUMPDEST PUSH1 0x0 PUSH1 0xA0 DUP3 ADD SWAP1 POP PUSH2 0x4807 PUSH1 0x0 DUP4 ADD DUP9 PUSH2 0x4653 JUMP JUMPDEST PUSH2 0x4814 PUSH1 0x20 DUP4 ADD DUP8 PUSH2 0x4653 JUMP JUMPDEST PUSH2 0x4821 PUSH1 0x40 DUP4 ADD DUP7 PUSH2 0x4653 JUMP JUMPDEST PUSH2 0x482E PUSH1 0x60 DUP4 ADD DUP6 PUSH2 0x412F JUMP JUMPDEST PUSH2 0x483B PUSH1 0x80 DUP4 ADD DUP5 PUSH2 0x412F JUMP JUMPDEST SWAP7 SWAP6 POP POP POP POP POP POP JUMP JUMPDEST PUSH1 0x0 PUSH1 0x80 DUP3 ADD SWAP1 POP PUSH2 0x485A PUSH1 0x0 DUP4 ADD DUP8 PUSH2 0x4653 JUMP JUMPDEST PUSH2 0x4867 PUSH1 0x20 DUP4 ADD DUP7 PUSH2 0x4653 JUMP JUMPDEST PUSH2 0x4874 PUSH1 0x40 DUP4 ADD DUP6 PUSH2 0x4653 JUMP JUMPDEST DUP2 DUP2 SUB PUSH1 0x60 DUP4 ADD MSTORE PUSH2 0x4886 DUP2 DUP5 PUSH2 0x44C8 JUMP JUMPDEST SWAP1 POP SWAP6 SWAP5 POP POP POP POP POP JUMP JUMPDEST PUSH1 0x0 PUSH2 0x489B PUSH2 0x48AC JUMP JUMPDEST SWAP1 POP PUSH2 0x48A7 DUP3 DUP3 PUSH2 0x4BD2 JUMP JUMPDEST SWAP2 SWAP1 POP JUMP JUMPDEST PUSH1 0x0 PUSH1 0x40 MLOAD SWAP1 POP SWAP1 JUMP JUMPDEST PUSH1 0x0 PUSH8 0xFFFFFFFFFFFFFFFF DUP3 GT ISZERO PUSH2 0x48D1 JUMPI PUSH2 0x48D0 PUSH2 0x4D08 JUMP JUMPDEST JUMPDEST PUSH1 0x20 DUP3 MUL SWAP1 POP PUSH1 0x20 DUP2 ADD SWAP1 POP SWAP2 SWAP1 POP JUMP JUMPDEST PUSH1 0x0 PUSH8 0xFFFFFFFFFFFFFFFF DUP3 GT ISZERO PUSH2 0x48FD JUMPI PUSH2 0x48FC PUSH2 0x4D08 JUMP JUMPDEST JUMPDEST PUSH2 0x4906 DUP3 PUSH2 0x4D50 JUMP JUMPDEST SWAP1 POP PUSH1 0x20 DUP2 ADD SWAP1 POP SWAP2 SWAP1 POP JUMP JUMPDEST PUSH1 0x0 DUP2 SWAP1 POP PUSH1 0x20 DUP3 ADD SWAP1 POP SWAP2 SWAP1 POP JUMP JUMPDEST PUSH1 0x0 DUP2 SWAP1 POP PUSH1 0x20 DUP3 ADD SWAP1 POP SWAP2 SWAP1 POP JUMP JUMPDEST PUSH1 0x0 DUP2 SWAP1 POP PUSH1 0x20 DUP3 ADD SWAP1 POP SWAP2 SWAP1 POP JUMP JUMPDEST PUSH1 0x0 DUP2 MLOAD SWAP1 POP SWAP2 SWAP1 POP JUMP JUMPDEST PUSH1 0x0 DUP2 MLOAD SWAP1 POP SWAP2 SWAP1 POP JUMP JUMPDEST PUSH1 0x0 DUP2 MLOAD SWAP1 POP SWAP2 SWAP1 POP JUMP JUMPDEST PUSH1 0x0 DUP2 MLOAD SWAP1 POP SWAP2 SWAP1 POP JUMP JUMPDEST PUSH1 0x0 PUSH1 0x20 DUP3 ADD SWAP1 POP SWAP2 SWAP1 POP JUMP JUMPDEST PUSH1 0x0 PUSH1 0x20 DUP3 ADD SWAP1 POP SWAP2 SWAP1 POP JUMP JUMPDEST PUSH1 0x0 PUSH1 0x20 DUP3 ADD SWAP1 POP SWAP2 SWAP1 POP JUMP JUMPDEST PUSH1 0x0 DUP3 DUP3 MSTORE PUSH1 0x20 DUP3 ADD SWAP1 POP SWAP3 SWAP2 POP POP JUMP JUMPDEST PUSH1 0x0 DUP3 DUP3 MSTORE PUSH1 0x20 DUP3 ADD SWAP1 POP SWAP3 SWAP2 POP POP JUMP JUMPDEST PUSH1 0x0 DUP3 DUP3 MSTORE PUSH1 0x20 DUP3 ADD SWAP1 POP SWAP3 SWAP2 POP POP JUMP JUMPDEST PUSH1 0x0 DUP2 SWAP1 POP SWAP3 SWAP2 POP POP JUMP JUMPDEST PUSH1 0x0 DUP3 DUP3 MSTORE PUSH1 0x20 DUP3 ADD SWAP1 POP SWAP3 SWAP2 POP POP JUMP JUMPDEST PUSH1 0x0 DUP3 DUP3 MSTORE PUSH1 0x20 DUP3 ADD SWAP1 POP SWAP3 SWAP2 POP POP JUMP JUMPDEST PUSH1 0x0 DUP2 SWAP1 POP SWAP3 SWAP2 POP POP JUMP JUMPDEST PUSH1 0x0 PUSH2 0x4A0C DUP3 PUSH2 0x4B54 JUMP JUMPDEST SWAP2 POP PUSH2 0x4A17 DUP4 PUSH2 0x4B54 JUMP JUMPDEST SWAP3 POP DUP3 PUSH32 0xFFFFFFFFFFFFFFFFFFFFFFFFFFFFFFFFFFFFFFFFFFFFFFFFFFFFFFFFFFFFFFFF SUB DUP3 GT ISZERO PUSH2 0x4A4C JUMPI PUSH2 0x4A4B PUSH2 0x4C4C JUMP JUMPDEST JUMPDEST DUP3 DUP3 ADD SWAP1 POP SWAP3 SWAP2 POP POP JUMP JUMPDEST PUSH1 0x0 PUSH2 0x4A62 DUP3 PUSH2 0x4B54 JUMP JUMPDEST SWAP2 POP PUSH2 0x4A6D DUP4 PUSH2 0x4B54 JUMP JUMPDEST SWAP3 POP DUP3 PUSH2 0x4A7D JUMPI PUSH2 0x4A7C PUSH2 0x4C7B JUMP JUMPDEST JUMPDEST DUP3 DUP3 DIV SWAP1 POP SWAP3 SWAP2 POP POP JUMP JUMPDEST PUSH1 0x0 PUSH2 0x4A93 DUP3 PUSH2 0x4B54 JUMP JUMPDEST SWAP2 POP PUSH2 0x4A9E DUP4 PUSH2 0x4B54 JUMP JUMPDEST SWAP3 POP DUP2 PUSH32 0xFFFFFFFFFFFFFFFFFFFFFFFFFFFFFFFFFFFFFFFFFFFFFFFFFFFFFFFFFFFFFFFF DIV DUP4 GT DUP3 ISZERO ISZERO AND ISZERO PUSH2 0x4AD7 JUMPI PUSH2 0x4AD6 PUSH2 0x4C4C JUMP JUMPDEST JUMPDEST DUP3 DUP3 MUL SWAP1 POP SWAP3 SWAP2 POP POP JUMP JUMPDEST PUSH1 0x0 PUSH2 0x4AED DUP3 PUSH2 0x4B54 JUMP JUMPDEST SWAP2 POP PUSH2 0x4AF8 DUP4 PUSH2 0x4B54 JUMP JUMPDEST SWAP3 POP DUP3 DUP3 LT ISZERO PUSH2 0x4B0B JUMPI PUSH2 0x4B0A PUSH2 0x4C4C JUMP JUMPDEST JUMPDEST DUP3 DUP3 SUB SWAP1 POP SWAP3 SWAP2 POP POP JUMP JUMPDEST PUSH1 0x0 PUSH2 0x4B21 DUP3 PUSH2 0x4B34 JUMP JUMPDEST SWAP1 POP SWAP2 SWAP1 POP JUMP JUMPDEST PUSH1 0x0 DUP2 ISZERO ISZERO SWAP1 POP SWAP2 SWAP1 POP JUMP JUMPDEST PUSH1 0x0 PUSH20 0xFFFFFFFFFFFFFFFFFFFFFFFFFFFFFFFFFFFFFFFF DUP3 AND SWAP1 POP SWAP2 SWAP1 POP JUMP JUMPDEST PUSH1 0x0 DUP2 SWAP1 POP SWAP2 SWAP1 POP JUMP JUMPDEST DUP3 DUP2 DUP4 CALLDATACOPY PUSH1 0x0 DUP4 DUP4 ADD MSTORE POP POP POP JUMP JUMPDEST PUSH1 0x0 JUMPDEST DUP4 DUP2 LT ISZERO PUSH2 0x4B8B JUMPI DUP1 DUP3 ADD MLOAD DUP2 DUP5 ADD MSTORE PUSH1 0x20 DUP2 ADD SWAP1 POP PUSH2 0x4B70 JUMP JUMPDEST DUP4 DUP2 GT ISZERO PUSH2 0x4B9A JUMPI PUSH1 0x0 DUP5 DUP5 ADD MSTORE JUMPDEST POP POP POP POP JUMP JUMPDEST PUSH1 0x0 PUSH1 0x2 DUP3 DIV SWAP1 POP PUSH1 0x1 DUP3 AND DUP1 PUSH2 0x4BB8 JUMPI PUSH1 0x7F DUP3 AND SWAP2 POP JUMPDEST PUSH1 0x20 DUP3 LT DUP2 EQ ISZERO PUSH2 0x4BCC JUMPI PUSH2 0x4BCB PUSH2 0x4CAA JUMP JUMPDEST JUMPDEST POP SWAP2 SWAP1 POP JUMP JUMPDEST PUSH2 0x4BDB DUP3 PUSH2 0x4D50 JUMP JUMPDEST DUP2 ADD DUP2 DUP2 LT PUSH8 0xFFFFFFFFFFFFFFFF DUP3 GT OR ISZERO PUSH2 0x4BFA JUMPI PUSH2 0x4BF9 PUSH2 0x4D08 JUMP JUMPDEST JUMPDEST DUP1 PUSH1 0x40 MSTORE POP POP POP JUMP JUMPDEST PUSH1 0x0 PUSH2 0x4C0E DUP3 PUSH2 0x4B54 JUMP JUMPDEST SWAP2 POP PUSH32 0xFFFFFFFFFFFFFFFFFFFFFFFFFFFFFFFFFFFFFFFFFFFFFFFFFFFFFFFFFFFFFFFF DUP3 EQ ISZERO PUSH2 0x4C41 JUMPI PUSH2 0x4C40 PUSH2 0x4C4C JUMP JUMPDEST JUMPDEST PUSH1 0x1 DUP3 ADD SWAP1 POP SWAP2 SWAP1 POP JUMP JUMPDEST PUSH32 0x4E487B7100000000000000000000000000000000000000000000000000000000 PUSH1 0x0 MSTORE PUSH1 0x11 PUSH1 0x4 MSTORE PUSH1 0x24 PUSH1 0x0 REVERT JUMPDEST PUSH32 0x4E487B7100000000000000000000000000000000000000000000000000000000 PUSH1 0x0 MSTORE PUSH1 0x12 PUSH1 0x4 MSTORE PUSH1 0x24 PUSH1 0x0 REVERT JUMPDEST PUSH32 0x4E487B7100000000000000000000000000000000000000000000000000000000 PUSH1 0x0 MSTORE PUSH1 0x22 PUSH1 0x4 MSTORE PUSH1 0x24 PUSH1 0x0 REVERT JUMPDEST PUSH32 0x4E487B7100000000000000000000000000000000000000000000000000000000 PUSH1 0x0 MSTORE PUSH1 0x32 PUSH1 0x4 MSTORE PUSH1 0x24 PUSH1 0x0 REVERT JUMPDEST PUSH32 0x4E487B7100000000000000000000000000000000000000000000000000000000 PUSH1 0x0 MSTORE PUSH1 0x41 PUSH1 0x4 MSTORE PUSH1 0x24 PUSH1 0x0 REVERT JUMPDEST PUSH1 0x0 DUP1 REVERT JUMPDEST PUSH1 0x0 DUP1 REVERT JUMPDEST PUSH1 0x0 DUP1 REVERT JUMPDEST PUSH1 0x0 DUP1 REVERT JUMPDEST PUSH1 0x0 DUP1 REVERT JUMPDEST PUSH1 0x0 PUSH1 0x1F NOT PUSH1 0x1F DUP4 ADD AND SWAP1 POP SWAP2 SWAP1 POP JUMP JUMPDEST PUSH32 0x4F776E61626C653A206E6577206F776E657220697320746865207A65726F2061 PUSH1 0x0 DUP3 ADD MSTORE PUSH32 0x6464726573730000000000000000000000000000000000000000000000000000 PUSH1 0x20 DUP3 ADD MSTORE POP JUMP JUMPDEST PUSH32 0x46656573207061796D656E74206661696C656420627574207472616E73616374 PUSH1 0x0 DUP3 ADD MSTORE PUSH32 0x696F6E20776173207375636365737366756C2100000000000000000000000000 PUSH1 0x20 DUP3 ADD MSTORE POP JUMP JUMPDEST PUSH32 0x5472616E73616374696F6E206661696C65642100000000000000000000000000 PUSH1 0x0 DUP3 ADD MSTORE POP JUMP JUMPDEST PUSH32 0x4F776E61626C653A2063616C6C6572206973206E6F7420746865206F776E6572 PUSH1 0x0 DUP3 ADD MSTORE POP JUMP JUMPDEST PUSH32 0x53656E646572206973206E6F7420746865206F776E6572206F66207468652070 PUSH1 0x0 DUP3 ADD MSTORE PUSH32 0x726F647563742100000000000000000000000000000000000000000000000000 PUSH1 0x20 DUP3 ADD MSTORE POP JUMP JUMPDEST POP JUMP JUMPDEST PUSH32 0x4E6F7420656E6F756768207765692073656E7421000000000000000000000000 PUSH1 0x0 DUP3 ADD MSTORE POP JUMP JUMPDEST PUSH2 0x4ED5 DUP2 PUSH2 0x4B16 JUMP JUMPDEST DUP2 EQ PUSH2 0x4EE0 JUMPI PUSH1 0x0 DUP1 REVERT JUMPDEST POP JUMP JUMPDEST PUSH2 0x4EEC DUP2 PUSH2 0x4B54 JUMP JUMPDEST DUP2 EQ PUSH2 0x4EF7 JUMPI PUSH1 0x0 DUP1 REVERT JUMPDEST POP JUMP INVALID LOG2 PUSH5 0x6970667358 0x22 SLT KECCAK256 PUSH24 0x8EB5A96B30CC8134805C6F63A74750F27C6FCAE4B35165DF PUSH9 0x2CE0EEE33EDA64736F PUSH13 0x63430008070033000000000000 "
				},
				"gasEstimates": {
					"creation": {
						"codeDepositCost": "4054400",
						"executionCost": "infinite",
						"totalCost": "infinite"
					},
					"external": {
						"addNonSellableProduct(string,string,string,string[])": "infinite",
						"buyProduct(uint256,address)": "infinite",
						"filterSellingProducts(string,string,address,uint256,uint256,uint256)": "infinite",
						"getAllProductsForSale(uint256,uint256)": "infinite",
						"getHistoryForProduct(uint256)": "infinite",
						"getSellableProductDetails(uint256)": "infinite",
						"listExistingProductForSale(uint256,uint256)": "infinite",
						"listProductForSale(string,string,string,string[],uint256)": "infinite",
						"ownedSellableProducts(address,uint256)": "infinite",
						"owner()": "2589",
						"productHistory(uint256,uint256)": "infinite",
						"renounceOwnership()": "30419",
						"setFeePercentage(uint256)": "24805",
						"transferOwnership(address)": "30789"
					},
					"internal": {
						"clone(struct MarketPlace.Product memory)": "infinite",
						"containsWord(string memory,string memory)": "infinite",
						"transferFromNonSellableToSellable(address,uint256,uint256)": "infinite",
						"transferFromSellableToNonSellable(address,address,uint256)": "infinite"
					}
				},
				"methodIdentifiers": {
					"addNonSellableProduct(string,string,string,string[])": "dd46fa5d",
					"buyProduct(uint256,address)": "a3274c21",
					"filterSellingProducts(string,string,address,uint256,uint256,uint256)": "9ccbff6b",
					"getAllProductsForSale(uint256,uint256)": "6d168461",
					"getHistoryForProduct(uint256)": "fe3d5538",
					"getSellableProductDetails(uint256)": "bed59eae",
					"listExistingProductForSale(uint256,uint256)": "e31465df",
					"listProductForSale(string,string,string,string[],uint256)": "0e448c1e",
					"ownedSellableProducts(address,uint256)": "22634d21",
					"owner()": "8da5cb5b",
					"productHistory(uint256,uint256)": "3a7d2376",
					"renounceOwnership()": "715018a6",
					"setFeePercentage(uint256)": "ae06c1b7",
					"transferOwnership(address)": "f2fde38b"
				}
			},
			"storageLayout": {
				"storage": [
					{
						"astId": 907,
						"contract": "contracts/MarketPlace.sol:MarketPlace",
						"label": "_owner",
						"offset": 0,
						"slot": "0",
						"type": "t_address"
					},
					{
						"astId": 66,
						"contract": "contracts/MarketPlace.sol:MarketPlace",
						"label": "idCount",
						"offset": 0,
						"slot": "1",
						"type": "t_uint256"
					},
					{
						"astId": 73,
						"contract": "contracts/MarketPlace.sol:MarketPlace",
						"label": "ownedSellableProducts",
						"offset": 0,
						"slot": "2",
						"type": "t_mapping(t_address,t_mapping(t_uint256,t_struct(SellableProduct)63_storage))"
					},
					{
						"astId": 80,
						"contract": "contracts/MarketPlace.sol:MarketPlace",
						"label": "ownedNonSellableProducts",
						"offset": 0,
						"slot": "3",
						"type": "t_mapping(t_address,t_mapping(t_uint256,t_struct(Product)42_storage))"
					},
					{
						"astId": 86,
						"contract": "contracts/MarketPlace.sol:MarketPlace",
						"label": "productHistory",
						"offset": 0,
						"slot": "4",
						"type": "t_mapping(t_uint256,t_array(t_struct(TransactionDetails)53_storage)dyn_storage)"
					},
					{
						"astId": 90,
						"contract": "contracts/MarketPlace.sol:MarketPlace",
						"label": "products",
						"offset": 0,
						"slot": "5",
						"type": "t_array(t_struct(Product)42_storage)dyn_storage"
					},
					{
						"astId": 93,
						"contract": "contracts/MarketPlace.sol:MarketPlace",
						"label": "feePricePercentage",
						"offset": 0,
						"slot": "6",
						"type": "t_uint256"
					}
				],
				"types": {
					"t_address": {
						"encoding": "inplace",
						"label": "address",
						"numberOfBytes": "20"
					},
					"t_array(t_string_storage)dyn_storage": {
						"base": "t_string_storage",
						"encoding": "dynamic_array",
						"label": "string[]",
						"numberOfBytes": "32"
					},
					"t_array(t_struct(Product)42_storage)dyn_storage": {
						"base": "t_struct(Product)42_storage",
						"encoding": "dynamic_array",
						"label": "struct MarketPlace.Product[]",
						"numberOfBytes": "32"
					},
					"t_array(t_struct(TransactionDetails)53_storage)dyn_storage": {
						"base": "t_struct(TransactionDetails)53_storage",
						"encoding": "dynamic_array",
						"label": "struct MarketPlace.TransactionDetails[]",
						"numberOfBytes": "32"
					},
					"t_bool": {
						"encoding": "inplace",
						"label": "bool",
						"numberOfBytes": "1"
					},
					"t_mapping(t_address,t_mapping(t_uint256,t_struct(Product)42_storage))": {
						"encoding": "mapping",
						"key": "t_address",
						"label": "mapping(address => mapping(uint256 => struct MarketPlace.Product))",
						"numberOfBytes": "32",
						"value": "t_mapping(t_uint256,t_struct(Product)42_storage)"
					},
					"t_mapping(t_address,t_mapping(t_uint256,t_struct(SellableProduct)63_storage))": {
						"encoding": "mapping",
						"key": "t_address",
						"label": "mapping(address => mapping(uint256 => struct MarketPlace.SellableProduct))",
						"numberOfBytes": "32",
						"value": "t_mapping(t_uint256,t_struct(SellableProduct)63_storage)"
					},
					"t_mapping(t_uint256,t_array(t_struct(TransactionDetails)53_storage)dyn_storage)": {
						"encoding": "mapping",
						"key": "t_uint256",
						"label": "mapping(uint256 => struct MarketPlace.TransactionDetails[])",
						"numberOfBytes": "32",
						"value": "t_array(t_struct(TransactionDetails)53_storage)dyn_storage"
					},
					"t_mapping(t_uint256,t_struct(Product)42_storage)": {
						"encoding": "mapping",
						"key": "t_uint256",
						"label": "mapping(uint256 => struct MarketPlace.Product)",
						"numberOfBytes": "32",
						"value": "t_struct(Product)42_storage"
					},
					"t_mapping(t_uint256,t_struct(SellableProduct)63_storage)": {
						"encoding": "mapping",
						"key": "t_uint256",
						"label": "mapping(uint256 => struct MarketPlace.SellableProduct)",
						"numberOfBytes": "32",
						"value": "t_struct(SellableProduct)63_storage"
					},
					"t_string_storage": {
						"encoding": "bytes",
						"label": "string",
						"numberOfBytes": "32"
					},
					"t_struct(Product)42_storage": {
						"encoding": "inplace",
						"label": "struct MarketPlace.Product",
						"members": [
							{
								"astId": 28,
								"contract": "contracts/MarketPlace.sol:MarketPlace",
								"label": "id",
								"offset": 0,
								"slot": "0",
								"type": "t_uint256"
							},
							{
								"astId": 30,
								"contract": "contracts/MarketPlace.sol:MarketPlace",
								"label": "owner",
								"offset": 0,
								"slot": "1",
								"type": "t_address"
							},
							{
								"astId": 32,
								"contract": "contracts/MarketPlace.sol:MarketPlace",
								"label": "name",
								"offset": 0,
								"slot": "2",
								"type": "t_string_storage"
							},
							{
								"astId": 34,
								"contract": "contracts/MarketPlace.sol:MarketPlace",
								"label": "description",
								"offset": 0,
								"slot": "3",
								"type": "t_string_storage"
							},
							{
								"astId": 36,
								"contract": "contracts/MarketPlace.sol:MarketPlace",
								"label": "link",
								"offset": 0,
								"slot": "4",
								"type": "t_string_storage"
							},
							{
								"astId": 39,
								"contract": "contracts/MarketPlace.sol:MarketPlace",
								"label": "tags",
								"offset": 0,
								"slot": "5",
								"type": "t_array(t_string_storage)dyn_storage"
							},
							{
								"astId": 41,
								"contract": "contracts/MarketPlace.sol:MarketPlace",
								"label": "forSale",
								"offset": 0,
								"slot": "6",
								"type": "t_bool"
							}
						],
						"numberOfBytes": "224"
					},
					"t_struct(SellableProduct)63_storage": {
						"encoding": "inplace",
						"label": "struct MarketPlace.SellableProduct",
						"members": [
							{
								"astId": 55,
								"contract": "contracts/MarketPlace.sol:MarketPlace",
								"label": "price",
								"offset": 0,
								"slot": "0",
								"type": "t_uint256"
							},
							{
								"astId": 57,
								"contract": "contracts/MarketPlace.sol:MarketPlace",
								"label": "fees",
								"offset": 0,
								"slot": "1",
								"type": "t_uint256"
							},
							{
								"astId": 59,
								"contract": "contracts/MarketPlace.sol:MarketPlace",
								"label": "datetime",
								"offset": 0,
								"slot": "2",
								"type": "t_uint256"
							},
							{
								"astId": 62,
								"contract": "contracts/MarketPlace.sol:MarketPlace",
								"label": "product",
								"offset": 0,
								"slot": "3",
								"type": "t_struct(Product)42_storage"
							}
						],
						"numberOfBytes": "320"
					},
					"t_struct(TransactionDetails)53_storage": {
						"encoding": "inplace",
						"label": "struct MarketPlace.TransactionDetails",
						"members": [
							{
								"astId": 44,
								"contract": "contracts/MarketPlace.sol:MarketPlace",
								"label": "price",
								"offset": 0,
								"slot": "0",
								"type": "t_uint256"
							},
							{
								"astId": 46,
								"contract": "contracts/MarketPlace.sol:MarketPlace",
								"label": "fees",
								"offset": 0,
								"slot": "1",
								"type": "t_uint256"
							},
							{
								"astId": 48,
								"contract": "contracts/MarketPlace.sol:MarketPlace",
								"label": "datetime",
								"offset": 0,
								"slot": "2",
								"type": "t_uint256"
							},
							{
								"astId": 50,
								"contract": "contracts/MarketPlace.sol:MarketPlace",
								"label": "seller",
								"offset": 0,
								"slot": "3",
								"type": "t_address"
							},
							{
								"astId": 52,
								"contract": "contracts/MarketPlace.sol:MarketPlace",
								"label": "buyer",
								"offset": 0,
								"slot": "4",
								"type": "t_address"
							}
						],
						"numberOfBytes": "160"
					},
					"t_uint256": {
						"encoding": "inplace",
						"label": "uint256",
						"numberOfBytes": "32"
					}
				}
			},
			"userdoc": {
				"kind": "user",
				"methods": {},
				"version": 1
			}
		}
	}
}