{
	"Desktop/DigitalMarketplace/contracts/MarketPlace.sol": {
		"MarketPlace": {
			"abi": [
				{
					"anonymous": false,
					"inputs": [
						{
							"indexed": true,
							"internalType": "address",
							"name": "_owner",
							"type": "address"
						},
						{
							"indexed": true,
							"internalType": "address",
							"name": "_approved",
							"type": "address"
						},
						{
							"indexed": true,
							"internalType": "uint256",
							"name": "_tokenId",
							"type": "uint256"
						}
					],
					"name": "Approval",
					"type": "event"
				},
				{
					"anonymous": false,
					"inputs": [
						{
							"indexed": true,
							"internalType": "address",
							"name": "_owner",
							"type": "address"
						},
						{
							"indexed": true,
							"internalType": "address",
							"name": "_operator",
							"type": "address"
						},
						{
							"indexed": false,
							"internalType": "bool",
							"name": "_approved",
							"type": "bool"
						}
					],
					"name": "ApprovalForAll",
					"type": "event"
				},
				{
					"anonymous": false,
					"inputs": [
						{
							"indexed": true,
							"internalType": "address",
							"name": "previousOwner",
							"type": "address"
						},
						{
							"indexed": true,
							"internalType": "address",
							"name": "newOwner",
							"type": "address"
						}
					],
					"name": "OwnershipTransferred",
					"type": "event"
				},
				{
					"anonymous": false,
					"inputs": [
						{
							"indexed": true,
							"internalType": "address",
							"name": "_from",
							"type": "address"
						},
						{
							"indexed": true,
							"internalType": "address",
							"name": "_to",
							"type": "address"
						},
						{
							"indexed": true,
							"internalType": "uint256",
							"name": "_tokenId",
							"type": "uint256"
						}
					],
					"name": "Transfer",
					"type": "event"
				},
				{
					"inputs": [
						{
							"internalType": "string",
							"name": "_name",
							"type": "string"
						},
						{
							"internalType": "string",
							"name": "_description",
							"type": "string"
						},
						{
							"internalType": "string",
							"name": "_link",
							"type": "string"
						},
						{
							"internalType": "string[]",
							"name": "_tags",
							"type": "string[]"
						}
					],
					"name": "addNonSellableProduct",
					"outputs": [],
					"stateMutability": "nonpayable",
					"type": "function"
				},
				{
					"inputs": [
						{
							"internalType": "address",
							"name": "_approved",
							"type": "address"
						},
						{
							"internalType": "uint256",
							"name": "_tokenId",
							"type": "uint256"
						}
					],
					"name": "approve",
					"outputs": [],
					"stateMutability": "payable",
					"type": "function"
				},
				{
					"inputs": [
						{
							"internalType": "address",
							"name": "_owner",
							"type": "address"
						}
					],
					"name": "balanceOf",
					"outputs": [
						{
							"internalType": "uint256",
							"name": "",
							"type": "uint256"
						}
					],
					"stateMutability": "view",
					"type": "function"
				},
				{
					"inputs": [
						{
							"internalType": "uint256",
							"name": "_productId",
							"type": "uint256"
						},
						{
							"internalType": "address",
							"name": "_productSeller",
							"type": "address"
						},
						{
							"internalType": "address",
							"name": "_productBuyer",
							"type": "address"
						}
					],
					"name": "buyProduct",
					"outputs": [],
					"stateMutability": "payable",
					"type": "function"
				},
				{
					"inputs": [
						{
							"internalType": "uint256",
							"name": "_productId",
							"type": "uint256"
						}
					],
					"name": "checkProductOwnership",
					"outputs": [
						{
							"internalType": "address",
							"name": "",
							"type": "address"
						}
					],
					"stateMutability": "view",
					"type": "function"
				},
				{
					"inputs": [
						{
							"internalType": "string",
							"name": "_partialTitle",
							"type": "string"
						},
						{
							"internalType": "string",
							"name": "_category",
							"type": "string"
						},
						{
							"internalType": "address",
							"name": "_owner",
							"type": "address"
						},
						{
							"internalType": "uint256",
							"name": "_date",
							"type": "uint256"
						},
						{
							"internalType": "uint256",
							"name": "_startIndexForSearch",
							"type": "uint256"
						},
						{
							"internalType": "uint256",
							"name": "_maxResults",
							"type": "uint256"
						}
					],
					"name": "filterSellingProducts",
					"outputs": [
						{
							"internalType": "uint256",
							"name": "",
							"type": "uint256"
						},
						{
							"components": [
								{
									"internalType": "uint256",
									"name": "id",
									"type": "uint256"
								},
								{
									"internalType": "address",
									"name": "owner",
									"type": "address"
								},
								{
									"internalType": "string",
									"name": "name",
									"type": "string"
								},
								{
									"internalType": "string",
									"name": "description",
									"type": "string"
								},
								{
									"internalType": "string",
									"name": "link",
									"type": "string"
								},
								{
									"internalType": "string[]",
									"name": "tags",
									"type": "string[]"
								},
								{
									"internalType": "bool",
									"name": "forSale",
									"type": "bool"
								}
							],
							"internalType": "struct MarketPlace.Product[]",
							"name": "",
							"type": "tuple[]"
						}
					],
					"stateMutability": "view",
					"type": "function"
				},
				{
					"inputs": [
						{
							"internalType": "uint256",
							"name": "_startIndexForSearch",
							"type": "uint256"
						},
						{
							"internalType": "uint256",
							"name": "_maxResults",
							"type": "uint256"
						}
					],
					"name": "getAllProductsForSale",
					"outputs": [
						{
							"internalType": "uint256",
							"name": "",
							"type": "uint256"
						},
						{
							"components": [
								{
									"internalType": "uint256",
									"name": "id",
									"type": "uint256"
								},
								{
									"internalType": "address",
									"name": "owner",
									"type": "address"
								},
								{
									"internalType": "string",
									"name": "name",
									"type": "string"
								},
								{
									"internalType": "string",
									"name": "description",
									"type": "string"
								},
								{
									"internalType": "string",
									"name": "link",
									"type": "string"
								},
								{
									"internalType": "string[]",
									"name": "tags",
									"type": "string[]"
								},
								{
									"internalType": "bool",
									"name": "forSale",
									"type": "bool"
								}
							],
							"internalType": "struct MarketPlace.Product[]",
							"name": "",
							"type": "tuple[]"
						}
					],
					"stateMutability": "view",
					"type": "function"
				},
				{
					"inputs": [
						{
							"internalType": "uint256",
							"name": "_tokenId",
							"type": "uint256"
						}
					],
					"name": "getApproved",
					"outputs": [
						{
							"internalType": "address",
							"name": "",
							"type": "address"
						}
					],
					"stateMutability": "view",
					"type": "function"
				},
				{
					"inputs": [
						{
							"internalType": "uint256",
							"name": "_productId",
							"type": "uint256"
						}
					],
					"name": "getHistoryForProduct",
					"outputs": [
						{
							"components": [
								{
									"internalType": "uint256",
									"name": "price",
									"type": "uint256"
								},
								{
									"internalType": "uint256",
									"name": "fees",
									"type": "uint256"
								},
								{
									"internalType": "uint256",
									"name": "datetime",
									"type": "uint256"
								},
								{
									"internalType": "address",
									"name": "seller",
									"type": "address"
								},
								{
									"internalType": "address",
									"name": "buyer",
									"type": "address"
								}
							],
							"internalType": "struct MarketPlace.TransactionDetails[]",
							"name": "",
							"type": "tuple[]"
						}
					],
					"stateMutability": "view",
					"type": "function"
				},
				{
					"inputs": [
						{
							"internalType": "uint256",
							"name": "_startIndexForSearch",
							"type": "uint256"
						},
						{
							"internalType": "uint256",
							"name": "_maxResults",
							"type": "uint256"
						}
					],
					"name": "getOwnerProducts",
					"outputs": [
						{
							"internalType": "uint256",
							"name": "",
							"type": "uint256"
						},
						{
							"components": [
								{
									"internalType": "uint256",
									"name": "id",
									"type": "uint256"
								},
								{
									"internalType": "address",
									"name": "owner",
									"type": "address"
								},
								{
									"internalType": "string",
									"name": "name",
									"type": "string"
								},
								{
									"internalType": "string",
									"name": "description",
									"type": "string"
								},
								{
									"internalType": "string",
									"name": "link",
									"type": "string"
								},
								{
									"internalType": "string[]",
									"name": "tags",
									"type": "string[]"
								},
								{
									"internalType": "bool",
									"name": "forSale",
									"type": "bool"
								}
							],
							"internalType": "struct MarketPlace.Product[]",
							"name": "",
							"type": "tuple[]"
						}
					],
					"stateMutability": "view",
					"type": "function"
				},
				{
					"inputs": [
						{
							"internalType": "uint256",
							"name": "_productId",
							"type": "uint256"
						}
					],
					"name": "getSellableProductDetails",
					"outputs": [
						{
							"components": [
								{
									"internalType": "uint256",
									"name": "price",
									"type": "uint256"
								},
								{
									"internalType": "uint256",
									"name": "fees",
									"type": "uint256"
								},
								{
									"internalType": "uint256",
									"name": "datetime",
									"type": "uint256"
								},
								{
									"internalType": "uint256",
									"name": "productId",
									"type": "uint256"
								}
							],
							"internalType": "struct MarketPlace.SellableProduct",
							"name": "",
							"type": "tuple"
						}
					],
					"stateMutability": "view",
					"type": "function"
				},
				{
					"inputs": [
						{
							"internalType": "address",
							"name": "_owner",
							"type": "address"
						},
						{
							"internalType": "address",
							"name": "_operator",
							"type": "address"
						}
					],
					"name": "isApprovedForAll",
					"outputs": [
						{
							"internalType": "bool",
							"name": "",
							"type": "bool"
						}
					],
					"stateMutability": "view",
					"type": "function"
				},
				{
					"inputs": [
						{
							"internalType": "uint256",
							"name": "_productId",
							"type": "uint256"
						},
						{
							"internalType": "uint256",
							"name": "_price",
							"type": "uint256"
						}
					],
					"name": "listExistingProductForSale",
					"outputs": [],
					"stateMutability": "nonpayable",
					"type": "function"
				},
				{
					"inputs": [
						{
							"internalType": "string",
							"name": "_name",
							"type": "string"
						},
						{
							"internalType": "string",
							"name": "_description",
							"type": "string"
						},
						{
							"internalType": "string",
							"name": "_link",
							"type": "string"
						},
						{
							"internalType": "string[]",
							"name": "_tags",
							"type": "string[]"
						},
						{
							"internalType": "uint256",
							"name": "_price",
							"type": "uint256"
						}
					],
					"name": "listProductForSale",
					"outputs": [],
					"stateMutability": "nonpayable",
					"type": "function"
				},
				{
					"inputs": [
						{
							"internalType": "address",
							"name": "",
							"type": "address"
						},
						{
							"internalType": "uint256",
							"name": "",
							"type": "uint256"
						}
					],
					"name": "ownedSellableProducts",
					"outputs": [
						{
							"internalType": "uint256",
							"name": "price",
							"type": "uint256"
						},
						{
							"internalType": "uint256",
							"name": "fees",
							"type": "uint256"
						},
						{
							"internalType": "uint256",
							"name": "datetime",
							"type": "uint256"
						},
						{
							"internalType": "uint256",
							"name": "productId",
							"type": "uint256"
						}
					],
					"stateMutability": "view",
					"type": "function"
				},
				{
					"inputs": [],
					"name": "owner",
					"outputs": [
						{
							"internalType": "address",
							"name": "",
							"type": "address"
						}
					],
					"stateMutability": "view",
					"type": "function"
				},
				{
					"inputs": [
						{
							"internalType": "uint256",
							"name": "_tokenId",
							"type": "uint256"
						}
					],
					"name": "ownerOf",
					"outputs": [
						{
							"internalType": "address",
							"name": "",
							"type": "address"
						}
					],
					"stateMutability": "view",
					"type": "function"
				},
				{
					"inputs": [
						{
							"internalType": "uint256",
							"name": "",
							"type": "uint256"
						},
						{
							"internalType": "uint256",
							"name": "",
							"type": "uint256"
						}
					],
					"name": "productHistory",
					"outputs": [
						{
							"internalType": "uint256",
							"name": "price",
							"type": "uint256"
						},
						{
							"internalType": "uint256",
							"name": "fees",
							"type": "uint256"
						},
						{
							"internalType": "uint256",
							"name": "datetime",
							"type": "uint256"
						},
						{
							"internalType": "address",
							"name": "seller",
							"type": "address"
						},
						{
							"internalType": "address",
							"name": "buyer",
							"type": "address"
						}
					],
					"stateMutability": "view",
					"type": "function"
				},
				{
					"inputs": [],
					"name": "renounceOwnership",
					"outputs": [],
					"stateMutability": "nonpayable",
					"type": "function"
				},
				{
					"inputs": [
						{
							"internalType": "address",
							"name": "_from",
							"type": "address"
						},
						{
							"internalType": "address",
							"name": "_to",
							"type": "address"
						},
						{
							"internalType": "uint256",
							"name": "_tokenId",
							"type": "uint256"
						}
					],
					"name": "safeTransferFrom",
					"outputs": [],
					"stateMutability": "payable",
					"type": "function"
				},
				{
					"inputs": [
						{
							"internalType": "address",
							"name": "_from",
							"type": "address"
						},
						{
							"internalType": "address",
							"name": "_to",
							"type": "address"
						},
						{
							"internalType": "uint256",
							"name": "_tokenId",
							"type": "uint256"
						},
						{
							"internalType": "bytes",
							"name": "data",
							"type": "bytes"
						}
					],
					"name": "safeTransferFrom",
					"outputs": [],
					"stateMutability": "payable",
					"type": "function"
				},
				{
					"inputs": [
						{
							"internalType": "address",
							"name": "_operator",
							"type": "address"
						},
						{
							"internalType": "bool",
							"name": "_approved",
							"type": "bool"
						}
					],
					"name": "setApprovalForAll",
					"outputs": [],
					"stateMutability": "nonpayable",
					"type": "function"
				},
				{
					"inputs": [
						{
							"internalType": "uint256",
							"name": "_feePercentage",
							"type": "uint256"
						}
					],
					"name": "setFeePercentage",
					"outputs": [],
					"stateMutability": "nonpayable",
					"type": "function"
				},
				{
					"inputs": [
						{
							"internalType": "address",
							"name": "_from",
							"type": "address"
						},
						{
							"internalType": "address",
							"name": "_to",
							"type": "address"
						},
						{
							"internalType": "uint256",
							"name": "_tokenId",
							"type": "uint256"
						}
					],
					"name": "transferFrom",
					"outputs": [],
					"stateMutability": "payable",
					"type": "function"
				},
				{
					"inputs": [
						{
							"internalType": "address",
							"name": "newOwner",
							"type": "address"
						}
					],
					"name": "transferOwnership",
					"outputs": [],
					"stateMutability": "nonpayable",
					"type": "function"
				},
				{
					"inputs": [],
					"name": "withdraw",
					"outputs": [],
					"stateMutability": "nonpayable",
					"type": "function"
				}
			],
			"devdoc": {
				"kind": "dev",
				"methods": {
					"approve(address,uint256)": {
						"details": "The zero address indicates there is no approved address.  Throws unless `msg.sender` is the current NFT owner, or an authorized  operator of the current owner.",
						"params": {
							"_approved": "The new approved NFT controller",
							"_tokenId": "The NFT to approve"
						}
					},
					"balanceOf(address)": {
						"details": "NFTs assigned to the zero address are considered invalid, and this  function throws for queries about the zero address.",
						"params": {
							"_owner": "An address for whom to query the balance"
						},
						"returns": {
							"_0": "The number of NFTs owned by `_owner`, possibly zero"
						}
					},
					"getApproved(uint256)": {
						"details": "Throws if `_tokenId` is not a valid NFT.",
						"params": {
							"_tokenId": "The NFT to find the approved address for"
						},
						"returns": {
							"_0": "The approved address for this NFT, or the zero address if there is none"
						}
					},
					"isApprovedForAll(address,address)": {
						"params": {
							"_operator": "The address that acts on behalf of the owner",
							"_owner": "The address that owns the NFTs"
						},
						"returns": {
							"_0": "True if `_operator` is an approved operator for `_owner`, false otherwise"
						}
					},
					"owner()": {
						"details": "Returns the address of the current owner."
					},
					"ownerOf(uint256)": {
						"details": "NFTs assigned to zero address are considered invalid, and queries  about them do throw.",
						"params": {
							"_tokenId": "The identifier for an NFT"
						},
						"returns": {
							"_0": "The address of the owner of the NFT"
						}
					},
					"renounceOwnership()": {
						"details": "Leaves the contract without owner. It will not be possible to call `onlyOwner` functions anymore. Can only be called by the current owner. NOTE: Renouncing ownership will leave the contract without an owner, thereby removing any functionality that is only available to the owner."
					},
					"safeTransferFrom(address,address,uint256)": {
						"details": "This works identically to the other function with an extra data parameter,  except this function just sets data to \"\".",
						"params": {
							"_from": "The current owner of the NFT",
							"_to": "The new owner",
							"_tokenId": "The NFT to transfer"
						}
					},
					"safeTransferFrom(address,address,uint256,bytes)": {
						"details": "Throws unless `msg.sender` is the current owner, an authorized  operator, or the approved address for this NFT. Throws if `_from` is  not the current owner. Throws if `_to` is the zero address. Throws if  `_tokenId` is not a valid NFT. When transfer is complete, this function  checks if `_to` is a smart contract (code size > 0). If so, it calls  `onERC721Received` on `_to` and throws if the return value is not  `bytes4(keccak256(\"onERC721Received(address,address,uint256,bytes)\"))`.",
						"params": {
							"_from": "The current owner of the NFT",
							"_to": "The new owner",
							"_tokenId": "The NFT to transfer",
							"data": "Additional data with no specified format, sent in call to `_to`"
						}
					},
					"setApprovalForAll(address,bool)": {
						"details": "Emits the ApprovalForAll event. The contract MUST allow  multiple operators per owner.",
						"params": {
							"_approved": "True if the operator is approved, false to revoke approval",
							"_operator": "Address to add to the set of authorized operators"
						}
					},
					"transferFrom(address,address,uint256)": {
						"details": "Throws unless `msg.sender` is the current owner, an authorized  operator, or the approved address for this NFT. Throws if `_from` is  not the current owner. Throws if `_to` is the zero address. Throws if  `_tokenId` is not a valid NFT.",
						"params": {
							"_from": "The current owner of the NFT",
							"_to": "The new owner",
							"_tokenId": "The NFT to transfer"
						}
					},
					"transferOwnership(address)": {
						"details": "Transfers ownership of the contract to a new account (`newOwner`). Can only be called by the current owner."
					}
				},
				"version": 1
			},
			"evm": {
				"assembly": "    /* \"Desktop/DigitalMarketplace/contracts/MarketPlace.sol\":86:15746  contract MarketPlace is Ownable, ERC721 {\r... */\n  mstore(0x40, 0x80)\n    /* \"Desktop/DigitalMarketplace/contracts/MarketPlace.sol\":683:684  0 */\n  0x00\n    /* \"Desktop/DigitalMarketplace/contracts/MarketPlace.sol\":657:684  uint256 private idCount = 0 */\n  0x01\n  sstore\n    /* \"Desktop/DigitalMarketplace/contracts/MarketPlace.sol\":1168:1169  2 */\n  0x02\n    /* \"Desktop/DigitalMarketplace/contracts/MarketPlace.sol\":1131:1169  uint256 private feePricePercentage = 2 */\n  0x08\n  sstore\n    /* \"Desktop/DigitalMarketplace/contracts/MarketPlace.sol\":86:15746  contract MarketPlace is Ownable, ERC721 {\r... */\n  callvalue\n  dup1\n  iszero\n  tag_1\n  jumpi\n  0x00\n  dup1\n  revert\ntag_1:\n  pop\n    /* \"Desktop/DigitalMarketplace/contracts/Ownable.sol\":950:982  _transferOwnership(_msgSender()) */\n  tag_4\n    /* \"Desktop/DigitalMarketplace/contracts/Ownable.sol\":969:981  _msgSender() */\n  tag_5\n    /* \"Desktop/DigitalMarketplace/contracts/Ownable.sol\":969:979  _msgSender */\n  shl(0x20, tag_6)\n    /* \"Desktop/DigitalMarketplace/contracts/Ownable.sol\":969:981  _msgSender() */\n  0x20\n  shr\n  jump\t// in\ntag_5:\n    /* \"Desktop/DigitalMarketplace/contracts/Ownable.sol\":950:968  _transferOwnership */\n  shl(0x20, tag_7)\n    /* \"Desktop/DigitalMarketplace/contracts/Ownable.sol\":950:982  _transferOwnership(_msgSender()) */\n  0x20\n  shr\n  jump\t// in\ntag_4:\n    /* \"Desktop/DigitalMarketplace/contracts/MarketPlace.sol\":86:15746  contract MarketPlace is Ownable, ERC721 {\r... */\n  jump(tag_8)\n    /* \"Desktop/DigitalMarketplace/contracts/Context.sol\":656:754  function _msgSender() internal view virtual returns (address) {\r... */\ntag_6:\n    /* \"Desktop/DigitalMarketplace/contracts/Context.sol\":709:716  address */\n  0x00\n    /* \"Desktop/DigitalMarketplace/contracts/Context.sol\":736:746  msg.sender */\n  caller\n    /* \"Desktop/DigitalMarketplace/contracts/Context.sol\":729:746  return msg.sender */\n  swap1\n  pop\n    /* \"Desktop/DigitalMarketplace/contracts/Context.sol\":656:754  function _msgSender() internal view virtual returns (address) {\r... */\n  swap1\n  jump\t// out\n    /* \"Desktop/DigitalMarketplace/contracts/Ownable.sol\":2341:2532  function _transferOwnership(address newOwner) internal virtual {\r... */\ntag_7:\n    /* \"Desktop/DigitalMarketplace/contracts/Ownable.sol\":2415:2431  address oldOwner */\n  0x00\n    /* \"Desktop/DigitalMarketplace/contracts/Ownable.sol\":2434:2440  _owner */\n  dup1\n  0x00\n  swap1\n  sload\n  swap1\n  0x0100\n  exp\n  swap1\n  div\n  0xffffffffffffffffffffffffffffffffffffffff\n  and\n    /* \"Desktop/DigitalMarketplace/contracts/Ownable.sol\":2415:2440  address oldOwner = _owner */\n  swap1\n  pop\n    /* \"Desktop/DigitalMarketplace/contracts/Ownable.sol\":2460:2468  newOwner */\n  dup2\n    /* \"Desktop/DigitalMarketplace/contracts/Ownable.sol\":2451:2457  _owner */\n  0x00\n  dup1\n    /* \"Desktop/DigitalMarketplace/contracts/Ownable.sol\":2451:2468  _owner = newOwner */\n  0x0100\n  exp\n  dup2\n  sload\n  dup2\n  0xffffffffffffffffffffffffffffffffffffffff\n  mul\n  not\n  and\n  swap1\n  dup4\n  0xffffffffffffffffffffffffffffffffffffffff\n  and\n  mul\n  or\n  swap1\n  sstore\n  pop\n    /* \"Desktop/DigitalMarketplace/contracts/Ownable.sol\":2515:2523  newOwner */\n  dup2\n    /* \"Desktop/DigitalMarketplace/contracts/Ownable.sol\":2484:2524  OwnershipTransferred(oldOwner, newOwner) */\n  0xffffffffffffffffffffffffffffffffffffffff\n  and\n    /* \"Desktop/DigitalMarketplace/contracts/Ownable.sol\":2505:2513  oldOwner */\n  dup2\n    /* \"Desktop/DigitalMarketplace/contracts/Ownable.sol\":2484:2524  OwnershipTransferred(oldOwner, newOwner) */\n  0xffffffffffffffffffffffffffffffffffffffff\n  and\n  0x8be0079c531659141344cd1fd0a4f28419497f9722a3daafe3b4186f6b6457e0\n  mload(0x40)\n  mload(0x40)\n  dup1\n  swap2\n  sub\n  swap1\n  log3\n    /* \"Desktop/DigitalMarketplace/contracts/Ownable.sol\":2404:2532  {\r... */\n  pop\n    /* \"Desktop/DigitalMarketplace/contracts/Ownable.sol\":2341:2532  function _transferOwnership(address newOwner) internal virtual {\r... */\n  pop\n  jump\t// out\n    /* \"Desktop/DigitalMarketplace/contracts/MarketPlace.sol\":86:15746  contract MarketPlace is Ownable, ERC721 {\r... */\ntag_8:\n  dataSize(sub_0)\n  dup1\n  dataOffset(sub_0)\n  0x00\n  codecopy\n  0x00\n  return\nstop\n\nsub_0: assembly {\n        /* \"Desktop/DigitalMarketplace/contracts/MarketPlace.sol\":86:15746  contract MarketPlace is Ownable, ERC721 {\r... */\n      mstore(0x40, 0x80)\n      jumpi(tag_1, lt(calldatasize, 0x04))\n      shr(0xe0, calldataload(0x00))\n      dup1\n      0x70a08231\n      gt\n      tag_28\n      jumpi\n      dup1\n      0xb88d4fde\n      gt\n      tag_29\n      jumpi\n      dup1\n      0xe31465df\n      gt\n      tag_30\n      jumpi\n      dup1\n      0xe31465df\n      eq\n      tag_24\n      jumpi\n      dup1\n      0xe985e9c5\n      eq\n      tag_25\n      jumpi\n      dup1\n      0xf2fde38b\n      eq\n      tag_26\n      jumpi\n      dup1\n      0xfe3d5538\n      eq\n      tag_27\n      jumpi\n      jump(tag_1)\n    tag_30:\n      dup1\n      0xb88d4fde\n      eq\n      tag_21\n      jumpi\n      dup1\n      0xbed59eae\n      eq\n      tag_22\n      jumpi\n      dup1\n      0xdd46fa5d\n      eq\n      tag_23\n      jumpi\n      jump(tag_1)\n    tag_29:\n      dup1\n      0x70a08231\n      eq\n      tag_15\n      jumpi\n      dup1\n      0x715018a6\n      eq\n      tag_16\n      jumpi\n      dup1\n      0x8da5cb5b\n      eq\n      tag_17\n      jumpi\n      dup1\n      0x9ccbff6b\n      eq\n      tag_18\n      jumpi\n      dup1\n      0xa22cb465\n      eq\n      tag_19\n      jumpi\n      dup1\n      0xae06c1b7\n      eq\n      tag_20\n      jumpi\n      jump(tag_1)\n    tag_28:\n      dup1\n      0x3996345e\n      gt\n      tag_31\n      jumpi\n      dup1\n      0x3f255ff9\n      gt\n      tag_32\n      jumpi\n      dup1\n      0x3f255ff9\n      eq\n      tag_11\n      jumpi\n      dup1\n      0x42842e0e\n      eq\n      tag_12\n      jumpi\n      dup1\n      0x6352211e\n      eq\n      tag_13\n      jumpi\n      dup1\n      0x6d168461\n      eq\n      tag_14\n      jumpi\n      jump(tag_1)\n    tag_32:\n      dup1\n      0x3996345e\n      eq\n      tag_8\n      jumpi\n      dup1\n      0x3a7d2376\n      eq\n      tag_9\n      jumpi\n      dup1\n      0x3ccfd60b\n      eq\n      tag_10\n      jumpi\n      jump(tag_1)\n    tag_31:\n      dup1\n      0x081812fc\n      eq\n      tag_2\n      jumpi\n      dup1\n      0x095ea7b3\n      eq\n      tag_3\n      jumpi\n      dup1\n      0x0e448c1e\n      eq\n      tag_4\n      jumpi\n      dup1\n      0x22634d21\n      eq\n      tag_5\n      jumpi\n      dup1\n      0x23b872dd\n      eq\n      tag_6\n      jumpi\n      dup1\n      0x28cbc038\n      eq\n      tag_7\n      jumpi\n    tag_1:\n      0x00\n      dup1\n      revert\n        /* \"Desktop/DigitalMarketplace/contracts/MarketPlace.sol\":15130:15270  function getApproved(uint256 _tokenId) override external view returns (address) {\r... */\n    tag_2:\n      callvalue\n      dup1\n      iszero\n      tag_33\n      jumpi\n      0x00\n      dup1\n      revert\n    tag_33:\n      pop\n      tag_34\n      0x04\n      dup1\n      calldatasize\n      sub\n      dup2\n      add\n      swap1\n      tag_35\n      swap2\n      swap1\n      tag_36\n      jump\t// in\n    tag_35:\n      tag_37\n      jump\t// in\n    tag_34:\n      mload(0x40)\n      tag_38\n      swap2\n      swap1\n      tag_39\n      jump\t// in\n    tag_38:\n      mload(0x40)\n      dup1\n      swap2\n      sub\n      swap1\n      return\n        /* \"Desktop/DigitalMarketplace/contracts/MarketPlace.sol\":14091:14294  function approve(address _approved, uint256 _tokenId) override external payable {\r... */\n    tag_3:\n      tag_40\n      0x04\n      dup1\n      calldatasize\n      sub\n      dup2\n      add\n      swap1\n      tag_41\n      swap2\n      swap1\n      tag_42\n      jump\t// in\n    tag_41:\n      tag_43\n      jump\t// in\n    tag_40:\n      stop\n        /* \"Desktop/DigitalMarketplace/contracts/MarketPlace.sol\":1933:2383  function listProductForSale(string memory _name, string memory _description, string memory _link, string[] memory _tags, uint256 _price) external {\r... */\n    tag_4:\n      callvalue\n      dup1\n      iszero\n      tag_44\n      jumpi\n      0x00\n      dup1\n      revert\n    tag_44:\n      pop\n      tag_45\n      0x04\n      dup1\n      calldatasize\n      sub\n      dup2\n      add\n      swap1\n      tag_46\n      swap2\n      swap1\n      tag_47\n      jump\t// in\n    tag_46:\n      tag_48\n      jump\t// in\n    tag_45:\n      stop\n        /* \"Desktop/DigitalMarketplace/contracts/MarketPlace.sol\":693:777  mapping(address => mapping(uint256 => SellableProduct)) public ownedSellableProducts */\n    tag_5:\n      callvalue\n      dup1\n      iszero\n      tag_49\n      jumpi\n      0x00\n      dup1\n      revert\n    tag_49:\n      pop\n      tag_50\n      0x04\n      dup1\n      calldatasize\n      sub\n      dup2\n      add\n      swap1\n      tag_51\n      swap2\n      swap1\n      tag_42\n      jump\t// in\n    tag_51:\n      tag_52\n      jump\t// in\n    tag_50:\n      mload(0x40)\n      tag_53\n      swap5\n      swap4\n      swap3\n      swap2\n      swap1\n      tag_54\n      jump\t// in\n    tag_53:\n      mload(0x40)\n      dup1\n      swap2\n      sub\n      swap1\n      return\n        /* \"Desktop/DigitalMarketplace/contracts/MarketPlace.sol\":13053:13721  function transferFrom(address _from, address _to, uint256 _tokenId) override external payable {\r... */\n    tag_6:\n      tag_55\n      0x04\n      dup1\n      calldatasize\n      sub\n      dup2\n      add\n      swap1\n      tag_56\n      swap2\n      swap1\n      tag_57\n      jump\t// in\n    tag_56:\n      tag_58\n      jump\t// in\n    tag_55:\n      stop\n        /* \"Desktop/DigitalMarketplace/contracts/MarketPlace.sol\":8601:8736  function checkProductOwnership(uint256 _productId) external view returns (address) {\r... */\n    tag_7:\n      callvalue\n      dup1\n      iszero\n      tag_59\n      jumpi\n      0x00\n      dup1\n      revert\n    tag_59:\n      pop\n      tag_60\n      0x04\n      dup1\n      calldatasize\n      sub\n      dup2\n      add\n      swap1\n      tag_61\n      swap2\n      swap1\n      tag_36\n      jump\t// in\n    tag_61:\n      tag_62\n      jump\t// in\n    tag_60:\n      mload(0x40)\n      tag_63\n      swap2\n      swap1\n      tag_39\n      jump\t// in\n    tag_63:\n      mload(0x40)\n      dup1\n      swap2\n      sub\n      swap1\n      return\n        /* \"Desktop/DigitalMarketplace/contracts/MarketPlace.sol\":3736:4466  function buyProduct(uint256 _productId, address _productSeller, address _productBuyer) public payable isProductOwner(_productId, _productSeller) {\r... */\n    tag_8:\n      tag_64\n      0x04\n      dup1\n      calldatasize\n      sub\n      dup2\n      add\n      swap1\n      tag_65\n      swap2\n      swap1\n      tag_66\n      jump\t// in\n    tag_65:\n      tag_67\n      jump\t// in\n    tag_64:\n      stop\n        /* \"Desktop/DigitalMarketplace/contracts/MarketPlace.sol\":1025:1087  mapping(uint256 => TransactionDetails[]) public productHistory */\n    tag_9:\n      callvalue\n      dup1\n      iszero\n      tag_68\n      jumpi\n      0x00\n      dup1\n      revert\n    tag_68:\n      pop\n      tag_69\n      0x04\n      dup1\n      calldatasize\n      sub\n      dup2\n      add\n      swap1\n      tag_70\n      swap2\n      swap1\n      tag_71\n      jump\t// in\n    tag_70:\n      tag_72\n      jump\t// in\n    tag_69:\n      mload(0x40)\n      tag_73\n      swap6\n      swap5\n      swap4\n      swap3\n      swap2\n      swap1\n      tag_74\n      jump\t// in\n    tag_73:\n      mload(0x40)\n      dup1\n      swap2\n      sub\n      swap1\n      return\n        /* \"Desktop/DigitalMarketplace/contracts/MarketPlace.sol\":1379:1560  function withdraw() external onlyOwner {\r... */\n    tag_10:\n      callvalue\n      dup1\n      iszero\n      tag_75\n      jumpi\n      0x00\n      dup1\n      revert\n    tag_75:\n      pop\n      tag_76\n      tag_77\n      jump\t// in\n    tag_76:\n      stop\n        /* \"Desktop/DigitalMarketplace/contracts/MarketPlace.sol\":7999:8593  function getOwnerProducts(uint256 _startIndexForSearch, uint256 _maxResults) external view returns (uint256, Product[] memory) {\r... */\n    tag_11:\n      callvalue\n      dup1\n      iszero\n      tag_78\n      jumpi\n      0x00\n      dup1\n      revert\n    tag_78:\n      pop\n      tag_79\n      0x04\n      dup1\n      calldatasize\n      sub\n      dup2\n      add\n      swap1\n      tag_80\n      swap2\n      swap1\n      tag_71\n      jump\t// in\n    tag_80:\n      tag_81\n      jump\t// in\n    tag_79:\n      mload(0x40)\n      tag_82\n      swap3\n      swap2\n      swap1\n      tag_83\n      jump\t// in\n    tag_82:\n      mload(0x40)\n      dup1\n      swap2\n      sub\n      swap1\n      return\n        /* \"Desktop/DigitalMarketplace/contracts/MarketPlace.sol\":11783:12455  function safeTransferFrom(address _from, address _to, uint256 _tokenId) override external payable {\r... */\n    tag_12:\n      tag_84\n      0x04\n      dup1\n      calldatasize\n      sub\n      dup2\n      add\n      swap1\n      tag_85\n      swap2\n      swap1\n      tag_57\n      jump\t// in\n    tag_85:\n      tag_86\n      jump\t// in\n    tag_84:\n      stop\n        /* \"Desktop/DigitalMarketplace/contracts/MarketPlace.sol\":9654:9860  function ownerOf(uint256 _tokenId) override external view returns (address) {\r... */\n    tag_13:\n      callvalue\n      dup1\n      iszero\n      tag_87\n      jumpi\n      0x00\n      dup1\n      revert\n    tag_87:\n      pop\n      tag_88\n      0x04\n      dup1\n      calldatasize\n      sub\n      dup2\n      add\n      swap1\n      tag_89\n      swap2\n      swap1\n      tag_36\n      jump\t// in\n    tag_89:\n      tag_90\n      jump\t// in\n    tag_88:\n      mload(0x40)\n      tag_91\n      swap2\n      swap1\n      tag_39\n      jump\t// in\n    tag_91:\n      mload(0x40)\n      dup1\n      swap2\n      sub\n      swap1\n      return\n        /* \"Desktop/DigitalMarketplace/contracts/MarketPlace.sol\":4474:5039  function getAllProductsForSale(uint256 _startIndexForSearch, uint256 _maxResults) external view returns (uint256, Product[] memory) {\r... */\n    tag_14:\n      callvalue\n      dup1\n      iszero\n      tag_92\n      jumpi\n      0x00\n      dup1\n      revert\n    tag_92:\n      pop\n      tag_93\n      0x04\n      dup1\n      calldatasize\n      sub\n      dup2\n      add\n      swap1\n      tag_94\n      swap2\n      swap1\n      tag_71\n      jump\t// in\n    tag_94:\n      tag_95\n      jump\t// in\n    tag_93:\n      mload(0x40)\n      tag_96\n      swap3\n      swap2\n      swap1\n      tag_83\n      jump\t// in\n    tag_96:\n      mload(0x40)\n      dup1\n      swap2\n      sub\n      swap1\n      return\n        /* \"Desktop/DigitalMarketplace/contracts/MarketPlace.sol\":9073:9389  function balanceOf(address _owner) override external view returns (uint256) {\r... */\n    tag_15:\n      callvalue\n      dup1\n      iszero\n      tag_97\n      jumpi\n      0x00\n      dup1\n      revert\n    tag_97:\n      pop\n      tag_98\n      0x04\n      dup1\n      calldatasize\n      sub\n      dup2\n      add\n      swap1\n      tag_99\n      swap2\n      swap1\n      tag_100\n      jump\t// in\n    tag_99:\n      tag_101\n      jump\t// in\n    tag_98:\n      mload(0x40)\n      tag_102\n      swap2\n      swap1\n      tag_103\n      jump\t// in\n    tag_102:\n      mload(0x40)\n      dup1\n      swap2\n      sub\n      swap1\n      return\n        /* \"Desktop/DigitalMarketplace/contracts/Ownable.sol\":1722:1825  function renounceOwnership() public virtual onlyOwner {\r... */\n    tag_16:\n      callvalue\n      dup1\n      iszero\n      tag_104\n      jumpi\n      0x00\n      dup1\n      revert\n    tag_104:\n      pop\n      tag_105\n      tag_106\n      jump\t// in\n    tag_105:\n      stop\n        /* \"Desktop/DigitalMarketplace/contracts/Ownable.sol\":1071:1158  function owner() public view virtual returns (address) {\r... */\n    tag_17:\n      callvalue\n      dup1\n      iszero\n      tag_107\n      jumpi\n      0x00\n      dup1\n      revert\n    tag_107:\n      pop\n      tag_108\n      tag_109\n      jump\t// in\n    tag_108:\n      mload(0x40)\n      tag_110\n      swap2\n      swap1\n      tag_39\n      jump\t// in\n    tag_110:\n      mload(0x40)\n      dup1\n      swap2\n      sub\n      swap1\n      return\n        /* \"Desktop/DigitalMarketplace/contracts/MarketPlace.sol\":5047:6763  function filterSellingProducts(string memory _partialTitle, string memory _category, address _owner, uint256 _date, uint256 _startIndexForSearch, uint256 _maxResults) external view returns (uint256, Product[] memory) {\r... */\n    tag_18:\n      callvalue\n      dup1\n      iszero\n      tag_111\n      jumpi\n      0x00\n      dup1\n      revert\n    tag_111:\n      pop\n      tag_112\n      0x04\n      dup1\n      calldatasize\n      sub\n      dup2\n      add\n      swap1\n      tag_113\n      swap2\n      swap1\n      tag_114\n      jump\t// in\n    tag_113:\n      tag_115\n      jump\t// in\n    tag_112:\n      mload(0x40)\n      tag_116\n      swap3\n      swap2\n      swap1\n      tag_83\n      jump\t// in\n    tag_116:\n      mload(0x40)\n      dup1\n      swap2\n      sub\n      swap1\n      return\n        /* \"Desktop/DigitalMarketplace/contracts/MarketPlace.sol\":14697:14853  function setApprovalForAll(address _operator, bool _approved) override external {\r... */\n    tag_19:\n      callvalue\n      dup1\n      iszero\n      tag_117\n      jumpi\n      0x00\n      dup1\n      revert\n    tag_117:\n      pop\n      tag_118\n      0x04\n      dup1\n      calldatasize\n      sub\n      dup2\n      add\n      swap1\n      tag_119\n      swap2\n      swap1\n      tag_120\n      jump\t// in\n    tag_119:\n      tag_121\n      jump\t// in\n    tag_118:\n      stop\n        /* \"Desktop/DigitalMarketplace/contracts/MarketPlace.sol\":1568:1691  function setFeePercentage(uint256 _feePercentage) external onlyOwner {\r... */\n    tag_20:\n      callvalue\n      dup1\n      iszero\n      tag_122\n      jumpi\n      0x00\n      dup1\n      revert\n    tag_122:\n      pop\n      tag_123\n      0x04\n      dup1\n      calldatasize\n      sub\n      dup2\n      add\n      swap1\n      tag_124\n      swap2\n      swap1\n      tag_36\n      jump\t// in\n    tag_124:\n      tag_125\n      jump\t// in\n    tag_123:\n      stop\n        /* \"Desktop/DigitalMarketplace/contracts/MarketPlace.sol\":10725:11416  function safeTransferFrom(address _from, address _to, uint256 _tokenId, bytes memory data) override external payable {\r... */\n    tag_21:\n      tag_126\n      0x04\n      dup1\n      calldatasize\n      sub\n      dup2\n      add\n      swap1\n      tag_127\n      swap2\n      swap1\n      tag_128\n      jump\t// in\n    tag_127:\n      tag_129\n      jump\t// in\n    tag_126:\n      stop\n        /* \"Desktop/DigitalMarketplace/contracts/MarketPlace.sol\":6933:7208  function getSellableProductDetails(uint256 _productId) external view returns (SellableProduct memory) {\r... */\n    tag_22:\n      callvalue\n      dup1\n      iszero\n      tag_130\n      jumpi\n      0x00\n      dup1\n      revert\n    tag_130:\n      pop\n      tag_131\n      0x04\n      dup1\n      calldatasize\n      sub\n      dup2\n      add\n      swap1\n      tag_132\n      swap2\n      swap1\n      tag_36\n      jump\t// in\n    tag_132:\n      tag_133\n      jump\t// in\n    tag_131:\n      mload(0x40)\n      tag_134\n      swap2\n      swap1\n      tag_135\n      jump\t// in\n    tag_134:\n      mload(0x40)\n      dup1\n      swap2\n      sub\n      swap1\n      return\n        /* \"Desktop/DigitalMarketplace/contracts/MarketPlace.sol\":2391:2757  function addNonSellableProduct(string memory _name, string memory _description, string memory _link, string[] memory _tags) external {\r... */\n    tag_23:\n      callvalue\n      dup1\n      iszero\n      tag_136\n      jumpi\n      0x00\n      dup1\n      revert\n    tag_136:\n      pop\n      tag_137\n      0x04\n      dup1\n      calldatasize\n      sub\n      dup2\n      add\n      swap1\n      tag_138\n      swap2\n      swap1\n      tag_139\n      jump\t// in\n    tag_138:\n      tag_140\n      jump\t// in\n    tag_137:\n      stop\n        /* \"Desktop/DigitalMarketplace/contracts/MarketPlace.sol\":3520:3724  function listExistingProductForSale(uint256 _productId, uint256 _price) external isProductOwner(_productId, msg.sender) {\r... */\n    tag_24:\n      callvalue\n      dup1\n      iszero\n      tag_141\n      jumpi\n      0x00\n      dup1\n      revert\n    tag_141:\n      pop\n      tag_142\n      0x04\n      dup1\n      calldatasize\n      sub\n      dup2\n      add\n      swap1\n      tag_143\n      swap2\n      swap1\n      tag_71\n      jump\t// in\n    tag_143:\n      tag_144\n      jump\t// in\n    tag_142:\n      stop\n        /* \"Desktop/DigitalMarketplace/contracts/MarketPlace.sol\":15577:15743  function isApprovedForAll(address _owner, address _operator) override external view returns (bool) {\r... */\n    tag_25:\n      callvalue\n      dup1\n      iszero\n      tag_145\n      jumpi\n      0x00\n      dup1\n      revert\n    tag_145:\n      pop\n      tag_146\n      0x04\n      dup1\n      calldatasize\n      sub\n      dup2\n      add\n      swap1\n      tag_147\n      swap2\n      swap1\n      tag_148\n      jump\t// in\n    tag_147:\n      tag_149\n      jump\t// in\n    tag_146:\n      mload(0x40)\n      tag_150\n      swap2\n      swap1\n      tag_151\n      jump\t// in\n    tag_150:\n      mload(0x40)\n      dup1\n      swap2\n      sub\n      swap1\n      return\n        /* \"Desktop/DigitalMarketplace/contracts/Ownable.sol\":1980:2181  function transferOwnership(address newOwner) public virtual onlyOwner {\r... */\n    tag_26:\n      callvalue\n      dup1\n      iszero\n      tag_152\n      jumpi\n      0x00\n      dup1\n      revert\n    tag_152:\n      pop\n      tag_153\n      0x04\n      dup1\n      calldatasize\n      sub\n      dup2\n      add\n      swap1\n      tag_154\n      swap2\n      swap1\n      tag_100\n      jump\t// in\n    tag_154:\n      tag_155\n      jump\t// in\n    tag_153:\n      stop\n        /* \"Desktop/DigitalMarketplace/contracts/MarketPlace.sol\":6771:6925  function getHistoryForProduct(uint256 _productId) external view returns (TransactionDetails[] memory) {\r... */\n    tag_27:\n      callvalue\n      dup1\n      iszero\n      tag_156\n      jumpi\n      0x00\n      dup1\n      revert\n    tag_156:\n      pop\n      tag_157\n      0x04\n      dup1\n      calldatasize\n      sub\n      dup2\n      add\n      swap1\n      tag_158\n      swap2\n      swap1\n      tag_36\n      jump\t// in\n    tag_158:\n      tag_159\n      jump\t// in\n    tag_157:\n      mload(0x40)\n      tag_160\n      swap2\n      swap1\n      tag_161\n      jump\t// in\n    tag_160:\n      mload(0x40)\n      dup1\n      swap2\n      sub\n      swap1\n      return\n        /* \"Desktop/DigitalMarketplace/contracts/MarketPlace.sol\":15130:15270  function getApproved(uint256 _tokenId) override external view returns (address) {\r... */\n    tag_37:\n        /* \"Desktop/DigitalMarketplace/contracts/MarketPlace.sol\":15201:15208  address */\n      0x00\n        /* \"Desktop/DigitalMarketplace/contracts/MarketPlace.sol\":15228:15252  productToApprovedAddress */\n      0x04\n        /* \"Desktop/DigitalMarketplace/contracts/MarketPlace.sol\":15228:15262  productToApprovedAddress[_tokenId] */\n      0x00\n        /* \"Desktop/DigitalMarketplace/contracts/MarketPlace.sol\":15253:15261  _tokenId */\n      dup4\n        /* \"Desktop/DigitalMarketplace/contracts/MarketPlace.sol\":15228:15262  productToApprovedAddress[_tokenId] */\n      dup2\n      mstore\n      0x20\n      add\n      swap1\n      dup2\n      mstore\n      0x20\n      add\n      0x00\n      keccak256\n      0x00\n      swap1\n      sload\n      swap1\n      0x0100\n      exp\n      swap1\n      div\n      0xffffffffffffffffffffffffffffffffffffffff\n      and\n        /* \"Desktop/DigitalMarketplace/contracts/MarketPlace.sol\":15221:15262  return productToApprovedAddress[_tokenId] */\n      swap1\n      pop\n        /* \"Desktop/DigitalMarketplace/contracts/MarketPlace.sol\":15130:15270  function getApproved(uint256 _tokenId) override external view returns (address) {\r... */\n      swap2\n      swap1\n      pop\n      jump\t// out\n        /* \"Desktop/DigitalMarketplace/contracts/MarketPlace.sol\":14091:14294  function approve(address _approved, uint256 _tokenId) override external payable {\r... */\n    tag_43:\n        /* \"Desktop/DigitalMarketplace/contracts/MarketPlace.sol\":14204:14212  products */\n      0x07\n        /* \"Desktop/DigitalMarketplace/contracts/MarketPlace.sol\":14213:14221  _tokenId */\n      dup2\n        /* \"Desktop/DigitalMarketplace/contracts/MarketPlace.sol\":14204:14222  products[_tokenId] */\n      dup2\n      sload\n      dup2\n      lt\n      tag_164\n      jumpi\n      tag_165\n      tag_166\n      jump\t// in\n    tag_165:\n    tag_164:\n      swap1\n      0x00\n      mstore\n      keccak256(0x00, 0x20)\n      swap1\n      0x07\n      mul\n      add\n        /* \"Desktop/DigitalMarketplace/contracts/MarketPlace.sol\":14204:14228  products[_tokenId].owner */\n      0x01\n      add\n      0x00\n      swap1\n      sload\n      swap1\n      0x0100\n      exp\n      swap1\n      div\n      0xffffffffffffffffffffffffffffffffffffffff\n      and\n        /* \"Desktop/DigitalMarketplace/contracts/MarketPlace.sol\":14190:14228  msg.sender == products[_tokenId].owner */\n      0xffffffffffffffffffffffffffffffffffffffff\n      and\n        /* \"Desktop/DigitalMarketplace/contracts/MarketPlace.sol\":14190:14200  msg.sender */\n      caller\n        /* \"Desktop/DigitalMarketplace/contracts/MarketPlace.sol\":14190:14228  msg.sender == products[_tokenId].owner */\n      0xffffffffffffffffffffffffffffffffffffffff\n      and\n      eq\n        /* \"Desktop/DigitalMarketplace/contracts/MarketPlace.sol\":14182:14229  require(msg.sender == products[_tokenId].owner) */\n      tag_168\n      jumpi\n      0x00\n      dup1\n      revert\n    tag_168:\n        /* \"Desktop/DigitalMarketplace/contracts/MarketPlace.sol\":14277:14286  _approved */\n      dup2\n        /* \"Desktop/DigitalMarketplace/contracts/MarketPlace.sol\":14240:14264  productToApprovedAddress */\n      0x04\n        /* \"Desktop/DigitalMarketplace/contracts/MarketPlace.sol\":14240:14274  productToApprovedAddress[_tokenId] */\n      0x00\n        /* \"Desktop/DigitalMarketplace/contracts/MarketPlace.sol\":14265:14273  _tokenId */\n      dup4\n        /* \"Desktop/DigitalMarketplace/contracts/MarketPlace.sol\":14240:14274  productToApprovedAddress[_tokenId] */\n      dup2\n      mstore\n      0x20\n      add\n      swap1\n      dup2\n      mstore\n      0x20\n      add\n      0x00\n      keccak256\n      0x00\n        /* \"Desktop/DigitalMarketplace/contracts/MarketPlace.sol\":14240:14286  productToApprovedAddress[_tokenId] = _approved */\n      0x0100\n      exp\n      dup2\n      sload\n      dup2\n      0xffffffffffffffffffffffffffffffffffffffff\n      mul\n      not\n      and\n      swap1\n      dup4\n      0xffffffffffffffffffffffffffffffffffffffff\n      and\n      mul\n      or\n      swap1\n      sstore\n      pop\n        /* \"Desktop/DigitalMarketplace/contracts/MarketPlace.sol\":14091:14294  function approve(address _approved, uint256 _tokenId) override external payable {\r... */\n      pop\n      pop\n      jump\t// out\n        /* \"Desktop/DigitalMarketplace/contracts/MarketPlace.sol\":1933:2383  function listProductForSale(string memory _name, string memory _description, string memory _link, string[] memory _tags, uint256 _price) external {\r... */\n    tag_48:\n        /* \"Desktop/DigitalMarketplace/contracts/MarketPlace.sol\":2090:2100  uint256 id */\n      0x00\n        /* \"Desktop/DigitalMarketplace/contracts/MarketPlace.sol\":2103:2110  idCount */\n      0x01\n      0x00\n        /* \"Desktop/DigitalMarketplace/contracts/MarketPlace.sol\":2103:2112  idCount++ */\n      dup2\n      sload\n      dup1\n      swap3\n      swap2\n      swap1\n      tag_170\n      swap1\n      tag_171\n      jump\t// in\n    tag_170:\n      swap2\n      swap1\n      pop\n      sstore\n        /* \"Desktop/DigitalMarketplace/contracts/MarketPlace.sol\":2090:2112  uint256 id = idCount++ */\n      swap1\n      pop\n        /* \"Desktop/DigitalMarketplace/contracts/MarketPlace.sol\":2123:2145  Product memory product */\n      0x00\n        /* \"Desktop/DigitalMarketplace/contracts/MarketPlace.sol\":2148:2212  Product(id, msg.sender, _name, _description, _link, _tags, true) */\n      mload(0x40)\n      dup1\n      0xe0\n      add\n      0x40\n      mstore\n      dup1\n        /* \"Desktop/DigitalMarketplace/contracts/MarketPlace.sol\":2156:2158  id */\n      dup4\n        /* \"Desktop/DigitalMarketplace/contracts/MarketPlace.sol\":2148:2212  Product(id, msg.sender, _name, _description, _link, _tags, true) */\n      dup2\n      mstore\n      0x20\n      add\n        /* \"Desktop/DigitalMarketplace/contracts/MarketPlace.sol\":2160:2170  msg.sender */\n      caller\n        /* \"Desktop/DigitalMarketplace/contracts/MarketPlace.sol\":2148:2212  Product(id, msg.sender, _name, _description, _link, _tags, true) */\n      0xffffffffffffffffffffffffffffffffffffffff\n      and\n      dup2\n      mstore\n      0x20\n      add\n        /* \"Desktop/DigitalMarketplace/contracts/MarketPlace.sol\":2172:2177  _name */\n      dup9\n        /* \"Desktop/DigitalMarketplace/contracts/MarketPlace.sol\":2148:2212  Product(id, msg.sender, _name, _description, _link, _tags, true) */\n      dup2\n      mstore\n      0x20\n      add\n        /* \"Desktop/DigitalMarketplace/contracts/MarketPlace.sol\":2179:2191  _description */\n      dup8\n        /* \"Desktop/DigitalMarketplace/contracts/MarketPlace.sol\":2148:2212  Product(id, msg.sender, _name, _description, _link, _tags, true) */\n      dup2\n      mstore\n      0x20\n      add\n        /* \"Desktop/DigitalMarketplace/contracts/MarketPlace.sol\":2193:2198  _link */\n      dup7\n        /* \"Desktop/DigitalMarketplace/contracts/MarketPlace.sol\":2148:2212  Product(id, msg.sender, _name, _description, _link, _tags, true) */\n      dup2\n      mstore\n      0x20\n      add\n        /* \"Desktop/DigitalMarketplace/contracts/MarketPlace.sol\":2200:2205  _tags */\n      dup6\n        /* \"Desktop/DigitalMarketplace/contracts/MarketPlace.sol\":2148:2212  Product(id, msg.sender, _name, _description, _link, _tags, true) */\n      dup2\n      mstore\n      0x20\n      add\n        /* \"Desktop/DigitalMarketplace/contracts/MarketPlace.sol\":2207:2211  true */\n      0x01\n        /* \"Desktop/DigitalMarketplace/contracts/MarketPlace.sol\":2148:2212  Product(id, msg.sender, _name, _description, _link, _tags, true) */\n      iszero\n      iszero\n      dup2\n      mstore\n      pop\n        /* \"Desktop/DigitalMarketplace/contracts/MarketPlace.sol\":2123:2212  Product memory product = Product(id, msg.sender, _name, _description, _link, _tags, true) */\n      swap1\n      pop\n        /* \"Desktop/DigitalMarketplace/contracts/MarketPlace.sol\":2223:2231  products */\n      0x07\n        /* \"Desktop/DigitalMarketplace/contracts/MarketPlace.sol\":2237:2244  product */\n      dup2\n        /* \"Desktop/DigitalMarketplace/contracts/MarketPlace.sol\":2223:2245  products.push(product) */\n      swap1\n      dup1\n      0x01\n      dup2\n      sload\n      add\n      dup1\n      dup3\n      sstore\n      dup1\n      swap2\n      pop\n      pop\n      0x01\n      swap1\n      sub\n      swap1\n      0x00\n      mstore\n      keccak256(0x00, 0x20)\n      swap1\n      0x07\n      mul\n      add\n      0x00\n      swap1\n      swap2\n      swap1\n      swap2\n      swap1\n      swap2\n      pop\n      0x00\n      dup3\n      add\n      mload\n      dup2\n      0x00\n      add\n      sstore\n      0x20\n      dup3\n      add\n      mload\n      dup2\n      0x01\n      add\n      exp(0x0100, 0x00)\n      dup2\n      sload\n      dup2\n      0xffffffffffffffffffffffffffffffffffffffff\n      mul\n      not\n      and\n      swap1\n      dup4\n      0xffffffffffffffffffffffffffffffffffffffff\n      and\n      mul\n      or\n      swap1\n      sstore\n      pop\n      0x40\n      dup3\n      add\n      mload\n      dup2\n      0x02\n      add\n      swap1\n      dup1\n      mload\n      swap1\n      0x20\n      add\n      swap1\n      tag_173\n      swap3\n      swap2\n      swap1\n      tag_174\n      jump\t// in\n    tag_173:\n      pop\n      0x60\n      dup3\n      add\n      mload\n      dup2\n      0x03\n      add\n      swap1\n      dup1\n      mload\n      swap1\n      0x20\n      add\n      swap1\n      tag_175\n      swap3\n      swap2\n      swap1\n      tag_174\n      jump\t// in\n    tag_175:\n      pop\n      0x80\n      dup3\n      add\n      mload\n      dup2\n      0x04\n      add\n      swap1\n      dup1\n      mload\n      swap1\n      0x20\n      add\n      swap1\n      tag_176\n      swap3\n      swap2\n      swap1\n      tag_174\n      jump\t// in\n    tag_176:\n      pop\n      0xa0\n      dup3\n      add\n      mload\n      dup2\n      0x05\n      add\n      swap1\n      dup1\n      mload\n      swap1\n      0x20\n      add\n      swap1\n      tag_177\n      swap3\n      swap2\n      swap1\n      tag_178\n      jump\t// in\n    tag_177:\n      pop\n      0xc0\n      dup3\n      add\n      mload\n      dup2\n      0x06\n      add\n      exp(0x0100, 0x00)\n      dup2\n      sload\n      dup2\n      0xff\n      mul\n      not\n      and\n      swap1\n      dup4\n      iszero\n      iszero\n      mul\n      or\n      swap1\n      sstore\n      pop\n      pop\n      pop\n        /* \"Desktop/DigitalMarketplace/contracts/MarketPlace.sol\":2296:2375  SellableProduct(_price, _price * feePricePercentage / 100, block.timestamp, id) */\n      mload(0x40)\n      dup1\n      0x80\n      add\n      0x40\n      mstore\n      dup1\n        /* \"Desktop/DigitalMarketplace/contracts/MarketPlace.sol\":2312:2318  _price */\n      dup5\n        /* \"Desktop/DigitalMarketplace/contracts/MarketPlace.sol\":2296:2375  SellableProduct(_price, _price * feePricePercentage / 100, block.timestamp, id) */\n      dup2\n      mstore\n      0x20\n      add\n        /* \"Desktop/DigitalMarketplace/contracts/MarketPlace.sol\":2350:2353  100 */\n      0x64\n        /* \"Desktop/DigitalMarketplace/contracts/MarketPlace.sol\":2329:2347  feePricePercentage */\n      sload(0x08)\n        /* \"Desktop/DigitalMarketplace/contracts/MarketPlace.sol\":2320:2326  _price */\n      dup7\n        /* \"Desktop/DigitalMarketplace/contracts/MarketPlace.sol\":2320:2347  _price * feePricePercentage */\n      tag_179\n      swap2\n      swap1\n      tag_180\n      jump\t// in\n    tag_179:\n        /* \"Desktop/DigitalMarketplace/contracts/MarketPlace.sol\":2320:2353  _price * feePricePercentage / 100 */\n      tag_181\n      swap2\n      swap1\n      tag_182\n      jump\t// in\n    tag_181:\n        /* \"Desktop/DigitalMarketplace/contracts/MarketPlace.sol\":2296:2375  SellableProduct(_price, _price * feePricePercentage / 100, block.timestamp, id) */\n      dup2\n      mstore\n      0x20\n      add\n        /* \"Desktop/DigitalMarketplace/contracts/MarketPlace.sol\":2355:2370  block.timestamp */\n      timestamp\n        /* \"Desktop/DigitalMarketplace/contracts/MarketPlace.sol\":2296:2375  SellableProduct(_price, _price * feePricePercentage / 100, block.timestamp, id) */\n      dup2\n      mstore\n      0x20\n      add\n        /* \"Desktop/DigitalMarketplace/contracts/MarketPlace.sol\":2372:2374  id */\n      dup4\n        /* \"Desktop/DigitalMarketplace/contracts/MarketPlace.sol\":2296:2375  SellableProduct(_price, _price * feePricePercentage / 100, block.timestamp, id) */\n      dup2\n      mstore\n      pop\n        /* \"Desktop/DigitalMarketplace/contracts/MarketPlace.sol\":2256:2277  ownedSellableProducts */\n      0x02\n        /* \"Desktop/DigitalMarketplace/contracts/MarketPlace.sol\":2256:2289  ownedSellableProducts[msg.sender] */\n      0x00\n        /* \"Desktop/DigitalMarketplace/contracts/MarketPlace.sol\":2278:2288  msg.sender */\n      caller\n        /* \"Desktop/DigitalMarketplace/contracts/MarketPlace.sol\":2256:2289  ownedSellableProducts[msg.sender] */\n      0xffffffffffffffffffffffffffffffffffffffff\n      and\n      0xffffffffffffffffffffffffffffffffffffffff\n      and\n      dup2\n      mstore\n      0x20\n      add\n      swap1\n      dup2\n      mstore\n      0x20\n      add\n      0x00\n      keccak256\n        /* \"Desktop/DigitalMarketplace/contracts/MarketPlace.sol\":2256:2293  ownedSellableProducts[msg.sender][id] */\n      0x00\n        /* \"Desktop/DigitalMarketplace/contracts/MarketPlace.sol\":2290:2292  id */\n      dup5\n        /* \"Desktop/DigitalMarketplace/contracts/MarketPlace.sol\":2256:2293  ownedSellableProducts[msg.sender][id] */\n      dup2\n      mstore\n      0x20\n      add\n      swap1\n      dup2\n      mstore\n      0x20\n      add\n      0x00\n      keccak256\n        /* \"Desktop/DigitalMarketplace/contracts/MarketPlace.sol\":2256:2375  ownedSellableProducts[msg.sender][id] = SellableProduct(_price, _price * feePricePercentage / 100, block.timestamp, id) */\n      0x00\n      dup3\n      add\n      mload\n      dup2\n      0x00\n      add\n      sstore\n      0x20\n      dup3\n      add\n      mload\n      dup2\n      0x01\n      add\n      sstore\n      0x40\n      dup3\n      add\n      mload\n      dup2\n      0x02\n      add\n      sstore\n      0x60\n      dup3\n      add\n      mload\n      dup2\n      0x03\n      add\n      sstore\n      swap1\n      pop\n      pop\n        /* \"Desktop/DigitalMarketplace/contracts/MarketPlace.sol\":2079:2383  {\r... */\n      pop\n      pop\n        /* \"Desktop/DigitalMarketplace/contracts/MarketPlace.sol\":1933:2383  function listProductForSale(string memory _name, string memory _description, string memory _link, string[] memory _tags, uint256 _price) external {\r... */\n      pop\n      pop\n      pop\n      pop\n      pop\n      jump\t// out\n        /* \"Desktop/DigitalMarketplace/contracts/MarketPlace.sol\":693:777  mapping(address => mapping(uint256 => SellableProduct)) public ownedSellableProducts */\n    tag_52:\n      mstore(0x20, 0x02)\n      dup2\n      0x00\n      mstore\n      mstore(0x20, keccak256(0x00, 0x40))\n      dup1\n      0x00\n      mstore\n      keccak256(0x00, 0x40)\n      0x00\n      swap2\n      pop\n      swap2\n      pop\n      pop\n      dup1\n      0x00\n      add\n      sload\n      swap1\n      dup1\n      0x01\n      add\n      sload\n      swap1\n      dup1\n      0x02\n      add\n      sload\n      swap1\n      dup1\n      0x03\n      add\n      sload\n      swap1\n      pop\n      dup5\n      jump\t// out\n        /* \"Desktop/DigitalMarketplace/contracts/MarketPlace.sol\":13053:13721  function transferFrom(address _from, address _to, uint256 _tokenId) override external payable {\r... */\n    tag_58:\n        /* \"Desktop/DigitalMarketplace/contracts/MarketPlace.sol\":13180:13188  products */\n      0x07\n        /* \"Desktop/DigitalMarketplace/contracts/MarketPlace.sol\":13189:13197  _tokenId */\n      dup2\n        /* \"Desktop/DigitalMarketplace/contracts/MarketPlace.sol\":13180:13198  products[_tokenId] */\n      dup2\n      sload\n      dup2\n      lt\n      tag_184\n      jumpi\n      tag_185\n      tag_166\n      jump\t// in\n    tag_185:\n    tag_184:\n      swap1\n      0x00\n      mstore\n      keccak256(0x00, 0x20)\n      swap1\n      0x07\n      mul\n      add\n        /* \"Desktop/DigitalMarketplace/contracts/MarketPlace.sol\":13180:13204  products[_tokenId].owner */\n      0x01\n      add\n      0x00\n      swap1\n      sload\n      swap1\n      0x0100\n      exp\n      swap1\n      div\n      0xffffffffffffffffffffffffffffffffffffffff\n      and\n        /* \"Desktop/DigitalMarketplace/contracts/MarketPlace.sol\":13166:13204  msg.sender == products[_tokenId].owner */\n      0xffffffffffffffffffffffffffffffffffffffff\n      and\n        /* \"Desktop/DigitalMarketplace/contracts/MarketPlace.sol\":13166:13176  msg.sender */\n      caller\n        /* \"Desktop/DigitalMarketplace/contracts/MarketPlace.sol\":13166:13204  msg.sender == products[_tokenId].owner */\n      0xffffffffffffffffffffffffffffffffffffffff\n      and\n      eq\n        /* \"Desktop/DigitalMarketplace/contracts/MarketPlace.sol\":13166:13242  msg.sender == products[_tokenId].owner || addressToOperatorCheck[_from][_to] */\n      dup1\n      tag_187\n      jumpi\n      pop\n        /* \"Desktop/DigitalMarketplace/contracts/MarketPlace.sol\":13208:13230  addressToOperatorCheck */\n      0x05\n        /* \"Desktop/DigitalMarketplace/contracts/MarketPlace.sol\":13208:13237  addressToOperatorCheck[_from] */\n      0x00\n        /* \"Desktop/DigitalMarketplace/contracts/MarketPlace.sol\":13231:13236  _from */\n      dup5\n        /* \"Desktop/DigitalMarketplace/contracts/MarketPlace.sol\":13208:13237  addressToOperatorCheck[_from] */\n      0xffffffffffffffffffffffffffffffffffffffff\n      and\n      0xffffffffffffffffffffffffffffffffffffffff\n      and\n      dup2\n      mstore\n      0x20\n      add\n      swap1\n      dup2\n      mstore\n      0x20\n      add\n      0x00\n      keccak256\n        /* \"Desktop/DigitalMarketplace/contracts/MarketPlace.sol\":13208:13242  addressToOperatorCheck[_from][_to] */\n      0x00\n        /* \"Desktop/DigitalMarketplace/contracts/MarketPlace.sol\":13238:13241  _to */\n      dup4\n        /* \"Desktop/DigitalMarketplace/contracts/MarketPlace.sol\":13208:13242  addressToOperatorCheck[_from][_to] */\n      0xffffffffffffffffffffffffffffffffffffffff\n      and\n      0xffffffffffffffffffffffffffffffffffffffff\n      and\n      dup2\n      mstore\n      0x20\n      add\n      swap1\n      dup2\n      mstore\n      0x20\n      add\n      0x00\n      keccak256\n      0x00\n      swap1\n      sload\n      swap1\n      0x0100\n      exp\n      swap1\n      div\n      0xff\n      and\n        /* \"Desktop/DigitalMarketplace/contracts/MarketPlace.sol\":13166:13242  msg.sender == products[_tokenId].owner || addressToOperatorCheck[_from][_to] */\n    tag_187:\n        /* \"Desktop/DigitalMarketplace/contracts/MarketPlace.sol\":13166:13287  msg.sender == products[_tokenId].owner || addressToOperatorCheck[_from][_to] || productToApprovedAddress[_tokenId] == _to */\n      dup1\n      tag_188\n      jumpi\n      pop\n        /* \"Desktop/DigitalMarketplace/contracts/MarketPlace.sol\":13284:13287  _to */\n      dup2\n        /* \"Desktop/DigitalMarketplace/contracts/MarketPlace.sol\":13246:13287  productToApprovedAddress[_tokenId] == _to */\n      0xffffffffffffffffffffffffffffffffffffffff\n      and\n        /* \"Desktop/DigitalMarketplace/contracts/MarketPlace.sol\":13246:13270  productToApprovedAddress */\n      0x04\n        /* \"Desktop/DigitalMarketplace/contracts/MarketPlace.sol\":13246:13280  productToApprovedAddress[_tokenId] */\n      0x00\n        /* \"Desktop/DigitalMarketplace/contracts/MarketPlace.sol\":13271:13279  _tokenId */\n      dup4\n        /* \"Desktop/DigitalMarketplace/contracts/MarketPlace.sol\":13246:13280  productToApprovedAddress[_tokenId] */\n      dup2\n      mstore\n      0x20\n      add\n      swap1\n      dup2\n      mstore\n      0x20\n      add\n      0x00\n      keccak256\n      0x00\n      swap1\n      sload\n      swap1\n      0x0100\n      exp\n      swap1\n      div\n      0xffffffffffffffffffffffffffffffffffffffff\n      and\n        /* \"Desktop/DigitalMarketplace/contracts/MarketPlace.sol\":13246:13287  productToApprovedAddress[_tokenId] == _to */\n      0xffffffffffffffffffffffffffffffffffffffff\n      and\n      eq\n        /* \"Desktop/DigitalMarketplace/contracts/MarketPlace.sol\":13166:13287  msg.sender == products[_tokenId].owner || addressToOperatorCheck[_from][_to] || productToApprovedAddress[_tokenId] == _to */\n    tag_188:\n        /* \"Desktop/DigitalMarketplace/contracts/MarketPlace.sol\":13158:13309  require(msg.sender == products[_tokenId].owner || addressToOperatorCheck[_from][_to] || productToApprovedAddress[_tokenId] == _to, \"Permission denied\") */\n      tag_189\n      jumpi\n      mload(0x40)\n      0x08c379a000000000000000000000000000000000000000000000000000000000\n      dup2\n      mstore\n      0x04\n      add\n      tag_190\n      swap1\n      tag_191\n      jump\t// in\n    tag_190:\n      mload(0x40)\n      dup1\n      swap2\n      sub\n      swap1\n      revert\n    tag_189:\n        /* \"Desktop/DigitalMarketplace/contracts/MarketPlace.sol\":13343:13344  0 */\n      0x00\n        /* \"Desktop/DigitalMarketplace/contracts/MarketPlace.sol\":13328:13345  _to != address(0) */\n      0xffffffffffffffffffffffffffffffffffffffff\n      and\n        /* \"Desktop/DigitalMarketplace/contracts/MarketPlace.sol\":13328:13331  _to */\n      dup3\n        /* \"Desktop/DigitalMarketplace/contracts/MarketPlace.sol\":13328:13345  _to != address(0) */\n      0xffffffffffffffffffffffffffffffffffffffff\n      and\n      eq\n      iszero\n        /* \"Desktop/DigitalMarketplace/contracts/MarketPlace.sol\":13320:13378  require(_to != address(0), \"Cannot transfer to address 0\") */\n      tag_192\n      jumpi\n      mload(0x40)\n      0x08c379a000000000000000000000000000000000000000000000000000000000\n      dup2\n      mstore\n      0x04\n      add\n      tag_193\n      swap1\n      tag_194\n      jump\t// in\n    tag_193:\n      mload(0x40)\n      dup1\n      swap2\n      sub\n      swap1\n      revert\n    tag_192:\n        /* \"Desktop/DigitalMarketplace/contracts/MarketPlace.sol\":13393:13401  products */\n      0x07\n        /* \"Desktop/DigitalMarketplace/contracts/MarketPlace.sol\":13402:13410  _tokenId */\n      dup2\n        /* \"Desktop/DigitalMarketplace/contracts/MarketPlace.sol\":13393:13411  products[_tokenId] */\n      dup2\n      sload\n      dup2\n      lt\n      tag_195\n      jumpi\n      tag_196\n      tag_166\n      jump\t// in\n    tag_196:\n    tag_195:\n      swap1\n      0x00\n      mstore\n      keccak256(0x00, 0x20)\n      swap1\n      0x07\n      mul\n      add\n        /* \"Desktop/DigitalMarketplace/contracts/MarketPlace.sol\":13393:13419  products[_tokenId].forSale */\n      0x06\n      add\n      0x00\n      swap1\n      sload\n      swap1\n      0x0100\n      exp\n      swap1\n      div\n      0xff\n      and\n        /* \"Desktop/DigitalMarketplace/contracts/MarketPlace.sol\":13389:13714  if (products[_tokenId].forSale) {\r... */\n      iszero\n      tag_198\n      jumpi\n        /* \"Desktop/DigitalMarketplace/contracts/MarketPlace.sol\":13436:13468  buyProduct(_tokenId, _from, _to) */\n      tag_199\n        /* \"Desktop/DigitalMarketplace/contracts/MarketPlace.sol\":13447:13455  _tokenId */\n      dup2\n        /* \"Desktop/DigitalMarketplace/contracts/MarketPlace.sol\":13457:13462  _from */\n      dup5\n        /* \"Desktop/DigitalMarketplace/contracts/MarketPlace.sol\":13464:13467  _to */\n      dup5\n        /* \"Desktop/DigitalMarketplace/contracts/MarketPlace.sol\":13436:13446  buyProduct */\n      tag_67\n        /* \"Desktop/DigitalMarketplace/contracts/MarketPlace.sol\":13436:13468  buyProduct(_tokenId, _from, _to) */\n      jump\t// in\n    tag_199:\n        /* \"Desktop/DigitalMarketplace/contracts/MarketPlace.sol\":13389:13714  if (products[_tokenId].forSale) {\r... */\n      jump(tag_200)\n    tag_198:\n        /* \"Desktop/DigitalMarketplace/contracts/MarketPlace.sol\":13552:13576  ownedNonSellableProducts */\n      0x03\n        /* \"Desktop/DigitalMarketplace/contracts/MarketPlace.sol\":13552:13583  ownedNonSellableProducts[_from] */\n      0x00\n        /* \"Desktop/DigitalMarketplace/contracts/MarketPlace.sol\":13577:13582  _from */\n      dup5\n        /* \"Desktop/DigitalMarketplace/contracts/MarketPlace.sol\":13552:13583  ownedNonSellableProducts[_from] */\n      0xffffffffffffffffffffffffffffffffffffffff\n      and\n      0xffffffffffffffffffffffffffffffffffffffff\n      and\n      dup2\n      mstore\n      0x20\n      add\n      swap1\n      dup2\n      mstore\n      0x20\n      add\n      0x00\n      keccak256\n        /* \"Desktop/DigitalMarketplace/contracts/MarketPlace.sol\":13552:13593  ownedNonSellableProducts[_from][_tokenId] */\n      0x00\n        /* \"Desktop/DigitalMarketplace/contracts/MarketPlace.sol\":13584:13592  _tokenId */\n      dup3\n        /* \"Desktop/DigitalMarketplace/contracts/MarketPlace.sol\":13552:13593  ownedNonSellableProducts[_from][_tokenId] */\n      dup2\n      mstore\n      0x20\n      add\n      swap1\n      dup2\n      mstore\n      0x20\n      add\n      0x00\n      keccak256\n      0x00\n      swap1\n      sload\n      swap1\n      0x0100\n      exp\n      swap1\n      div\n      0xff\n      and\n        /* \"Desktop/DigitalMarketplace/contracts/MarketPlace.sol\":13510:13534  ownedNonSellableProducts */\n      0x03\n        /* \"Desktop/DigitalMarketplace/contracts/MarketPlace.sol\":13510:13539  ownedNonSellableProducts[_to] */\n      0x00\n        /* \"Desktop/DigitalMarketplace/contracts/MarketPlace.sol\":13535:13538  _to */\n      dup5\n        /* \"Desktop/DigitalMarketplace/contracts/MarketPlace.sol\":13510:13539  ownedNonSellableProducts[_to] */\n      0xffffffffffffffffffffffffffffffffffffffff\n      and\n      0xffffffffffffffffffffffffffffffffffffffff\n      and\n      dup2\n      mstore\n      0x20\n      add\n      swap1\n      dup2\n      mstore\n      0x20\n      add\n      0x00\n      keccak256\n        /* \"Desktop/DigitalMarketplace/contracts/MarketPlace.sol\":13510:13549  ownedNonSellableProducts[_to][_tokenId] */\n      0x00\n        /* \"Desktop/DigitalMarketplace/contracts/MarketPlace.sol\":13540:13548  _tokenId */\n      dup4\n        /* \"Desktop/DigitalMarketplace/contracts/MarketPlace.sol\":13510:13549  ownedNonSellableProducts[_to][_tokenId] */\n      dup2\n      mstore\n      0x20\n      add\n      swap1\n      dup2\n      mstore\n      0x20\n      add\n      0x00\n      keccak256\n      0x00\n        /* \"Desktop/DigitalMarketplace/contracts/MarketPlace.sol\":13510:13593  ownedNonSellableProducts[_to][_tokenId] = ownedNonSellableProducts[_from][_tokenId] */\n      0x0100\n      exp\n      dup2\n      sload\n      dup2\n      0xff\n      mul\n      not\n      and\n      swap1\n      dup4\n      iszero\n      iszero\n      mul\n      or\n      swap1\n      sstore\n      pop\n        /* \"Desktop/DigitalMarketplace/contracts/MarketPlace.sol\":13615:13639  ownedNonSellableProducts */\n      0x03\n        /* \"Desktop/DigitalMarketplace/contracts/MarketPlace.sol\":13615:13646  ownedNonSellableProducts[_from] */\n      0x00\n        /* \"Desktop/DigitalMarketplace/contracts/MarketPlace.sol\":13640:13645  _from */\n      dup5\n        /* \"Desktop/DigitalMarketplace/contracts/MarketPlace.sol\":13615:13646  ownedNonSellableProducts[_from] */\n      0xffffffffffffffffffffffffffffffffffffffff\n      and\n      0xffffffffffffffffffffffffffffffffffffffff\n      and\n      dup2\n      mstore\n      0x20\n      add\n      swap1\n      dup2\n      mstore\n      0x20\n      add\n      0x00\n      keccak256\n        /* \"Desktop/DigitalMarketplace/contracts/MarketPlace.sol\":13615:13656  ownedNonSellableProducts[_from][_tokenId] */\n      0x00\n        /* \"Desktop/DigitalMarketplace/contracts/MarketPlace.sol\":13647:13655  _tokenId */\n      dup3\n        /* \"Desktop/DigitalMarketplace/contracts/MarketPlace.sol\":13615:13656  ownedNonSellableProducts[_from][_tokenId] */\n      dup2\n      mstore\n      0x20\n      add\n      swap1\n      dup2\n      mstore\n      0x20\n      add\n      0x00\n      keccak256\n      0x00\n        /* \"Desktop/DigitalMarketplace/contracts/MarketPlace.sol\":13608:13657  delete(ownedNonSellableProducts[_from][_tokenId]) */\n      0x0100\n      exp\n      dup2\n      sload\n      swap1\n      0xff\n      mul\n      not\n      and\n      swap1\n      sstore\n        /* \"Desktop/DigitalMarketplace/contracts/MarketPlace.sol\":13699:13702  _to */\n      dup2\n        /* \"Desktop/DigitalMarketplace/contracts/MarketPlace.sol\":13672:13680  products */\n      0x07\n        /* \"Desktop/DigitalMarketplace/contracts/MarketPlace.sol\":13681:13689  _tokenId */\n      dup3\n        /* \"Desktop/DigitalMarketplace/contracts/MarketPlace.sol\":13672:13690  products[_tokenId] */\n      dup2\n      sload\n      dup2\n      lt\n      tag_201\n      jumpi\n      tag_202\n      tag_166\n      jump\t// in\n    tag_202:\n    tag_201:\n      swap1\n      0x00\n      mstore\n      keccak256(0x00, 0x20)\n      swap1\n      0x07\n      mul\n      add\n        /* \"Desktop/DigitalMarketplace/contracts/MarketPlace.sol\":13672:13696  products[_tokenId].owner */\n      0x01\n      add\n      0x00\n        /* \"Desktop/DigitalMarketplace/contracts/MarketPlace.sol\":13672:13702  products[_tokenId].owner = _to */\n      0x0100\n      exp\n      dup2\n      sload\n      dup2\n      0xffffffffffffffffffffffffffffffffffffffff\n      mul\n      not\n      and\n      swap1\n      dup4\n      0xffffffffffffffffffffffffffffffffffffffff\n      and\n      mul\n      or\n      swap1\n      sstore\n      pop\n        /* \"Desktop/DigitalMarketplace/contracts/MarketPlace.sol\":13389:13714  if (products[_tokenId].forSale) {\r... */\n    tag_200:\n        /* \"Desktop/DigitalMarketplace/contracts/MarketPlace.sol\":13053:13721  function transferFrom(address _from, address _to, uint256 _tokenId) override external payable {\r... */\n      pop\n      pop\n      pop\n      jump\t// out\n        /* \"Desktop/DigitalMarketplace/contracts/MarketPlace.sol\":8601:8736  function checkProductOwnership(uint256 _productId) external view returns (address) {\r... */\n    tag_62:\n        /* \"Desktop/DigitalMarketplace/contracts/MarketPlace.sol\":8675:8682  address */\n      0x00\n        /* \"Desktop/DigitalMarketplace/contracts/MarketPlace.sol\":8702:8710  products */\n      0x07\n        /* \"Desktop/DigitalMarketplace/contracts/MarketPlace.sol\":8711:8721  _productId */\n      dup3\n        /* \"Desktop/DigitalMarketplace/contracts/MarketPlace.sol\":8702:8722  products[_productId] */\n      dup2\n      sload\n      dup2\n      lt\n      tag_205\n      jumpi\n      tag_206\n      tag_166\n      jump\t// in\n    tag_206:\n    tag_205:\n      swap1\n      0x00\n      mstore\n      keccak256(0x00, 0x20)\n      swap1\n      0x07\n      mul\n      add\n        /* \"Desktop/DigitalMarketplace/contracts/MarketPlace.sol\":8702:8728  products[_productId].owner */\n      0x01\n      add\n      0x00\n      swap1\n      sload\n      swap1\n      0x0100\n      exp\n      swap1\n      div\n      0xffffffffffffffffffffffffffffffffffffffff\n      and\n        /* \"Desktop/DigitalMarketplace/contracts/MarketPlace.sol\":8695:8728  return products[_productId].owner */\n      swap1\n      pop\n        /* \"Desktop/DigitalMarketplace/contracts/MarketPlace.sol\":8601:8736  function checkProductOwnership(uint256 _productId) external view returns (address) {\r... */\n      swap2\n      swap1\n      pop\n      jump\t// out\n        /* \"Desktop/DigitalMarketplace/contracts/MarketPlace.sol\":3736:4466  function buyProduct(uint256 _productId, address _productSeller, address _productBuyer) public payable isProductOwner(_productId, _productSeller) {\r... */\n    tag_67:\n        /* \"Desktop/DigitalMarketplace/contracts/MarketPlace.sol\":3853:3863  _productId */\n      dup3\n        /* \"Desktop/DigitalMarketplace/contracts/MarketPlace.sol\":3865:3879  _productSeller */\n      dup3\n        /* \"Desktop/DigitalMarketplace/contracts/MarketPlace.sol\":1287:1293  _owner */\n      dup1\n        /* \"Desktop/DigitalMarketplace/contracts/MarketPlace.sol\":1257:1293  products[_productId].owner == _owner */\n      0xffffffffffffffffffffffffffffffffffffffff\n      and\n        /* \"Desktop/DigitalMarketplace/contracts/MarketPlace.sol\":1257:1265  products */\n      0x07\n        /* \"Desktop/DigitalMarketplace/contracts/MarketPlace.sol\":1266:1276  _productId */\n      dup4\n        /* \"Desktop/DigitalMarketplace/contracts/MarketPlace.sol\":1257:1277  products[_productId] */\n      dup2\n      sload\n      dup2\n      lt\n      tag_209\n      jumpi\n      tag_210\n      tag_166\n      jump\t// in\n    tag_210:\n    tag_209:\n      swap1\n      0x00\n      mstore\n      keccak256(0x00, 0x20)\n      swap1\n      0x07\n      mul\n      add\n        /* \"Desktop/DigitalMarketplace/contracts/MarketPlace.sol\":1257:1283  products[_productId].owner */\n      0x01\n      add\n      0x00\n      swap1\n      sload\n      swap1\n      0x0100\n      exp\n      swap1\n      div\n      0xffffffffffffffffffffffffffffffffffffffff\n      and\n        /* \"Desktop/DigitalMarketplace/contracts/MarketPlace.sol\":1257:1293  products[_productId].owner == _owner */\n      0xffffffffffffffffffffffffffffffffffffffff\n      and\n      eq\n        /* \"Desktop/DigitalMarketplace/contracts/MarketPlace.sol\":1249:1351  require(products[_productId].owner == _owner, \"The supplied address is not the owner of the product!\") */\n      tag_212\n      jumpi\n      mload(0x40)\n      0x08c379a000000000000000000000000000000000000000000000000000000000\n      dup2\n      mstore\n      0x04\n      add\n      tag_213\n      swap1\n      tag_214\n      jump\t// in\n    tag_213:\n      mload(0x40)\n      dup1\n      swap2\n      sub\n      swap1\n      revert\n    tag_212:\n        /* \"Desktop/DigitalMarketplace/contracts/MarketPlace.sol\":3892:3926  SellableProduct memory soldProduct */\n      0x00\n        /* \"Desktop/DigitalMarketplace/contracts/MarketPlace.sol\":3929:3950  ownedSellableProducts */\n      0x02\n        /* \"Desktop/DigitalMarketplace/contracts/MarketPlace.sol\":3929:3966  ownedSellableProducts[_productSeller] */\n      0x00\n        /* \"Desktop/DigitalMarketplace/contracts/MarketPlace.sol\":3951:3965  _productSeller */\n      dup7\n        /* \"Desktop/DigitalMarketplace/contracts/MarketPlace.sol\":3929:3966  ownedSellableProducts[_productSeller] */\n      0xffffffffffffffffffffffffffffffffffffffff\n      and\n      0xffffffffffffffffffffffffffffffffffffffff\n      and\n      dup2\n      mstore\n      0x20\n      add\n      swap1\n      dup2\n      mstore\n      0x20\n      add\n      0x00\n      keccak256\n        /* \"Desktop/DigitalMarketplace/contracts/MarketPlace.sol\":3929:3978  ownedSellableProducts[_productSeller][_productId] */\n      0x00\n        /* \"Desktop/DigitalMarketplace/contracts/MarketPlace.sol\":3967:3977  _productId */\n      dup8\n        /* \"Desktop/DigitalMarketplace/contracts/MarketPlace.sol\":3929:3978  ownedSellableProducts[_productSeller][_productId] */\n      dup2\n      mstore\n      0x20\n      add\n      swap1\n      dup2\n      mstore\n      0x20\n      add\n      0x00\n      keccak256\n        /* \"Desktop/DigitalMarketplace/contracts/MarketPlace.sol\":3892:3978  SellableProduct memory soldProduct = ownedSellableProducts[_productSeller][_productId] */\n      mload(0x40)\n      dup1\n      0x80\n      add\n      0x40\n      mstore\n      swap1\n      dup2\n      0x00\n      dup3\n      add\n      sload\n      dup2\n      mstore\n      0x20\n      add\n      0x01\n      dup3\n      add\n      sload\n      dup2\n      mstore\n      0x20\n      add\n      0x02\n      dup3\n      add\n      sload\n      dup2\n      mstore\n      0x20\n      add\n      0x03\n      dup3\n      add\n      sload\n      dup2\n      mstore\n      pop\n      pop\n      swap1\n      pop\n        /* \"Desktop/DigitalMarketplace/contracts/MarketPlace.sol\":4030:4041  soldProduct */\n      dup1\n        /* \"Desktop/DigitalMarketplace/contracts/MarketPlace.sol\":4030:4046  soldProduct.fees */\n      0x20\n      add\n      mload\n        /* \"Desktop/DigitalMarketplace/contracts/MarketPlace.sol\":4010:4021  soldProduct */\n      dup2\n        /* \"Desktop/DigitalMarketplace/contracts/MarketPlace.sol\":4010:4027  soldProduct.price */\n      0x00\n      add\n      mload\n        /* \"Desktop/DigitalMarketplace/contracts/MarketPlace.sol\":4010:4046  soldProduct.price + soldProduct.fees */\n      tag_216\n      swap2\n      swap1\n      tag_217\n      jump\t// in\n    tag_216:\n        /* \"Desktop/DigitalMarketplace/contracts/MarketPlace.sol\":3997:4006  msg.value */\n      callvalue\n        /* \"Desktop/DigitalMarketplace/contracts/MarketPlace.sol\":3997:4046  msg.value >= soldProduct.price + soldProduct.fees */\n      lt\n      iszero\n        /* \"Desktop/DigitalMarketplace/contracts/MarketPlace.sol\":3989:4071  require(msg.value >= soldProduct.price + soldProduct.fees, \"Not enough wei sent!\") */\n      tag_218\n      jumpi\n      mload(0x40)\n      0x08c379a000000000000000000000000000000000000000000000000000000000\n      dup2\n      mstore\n      0x04\n      add\n      tag_219\n      swap1\n      tag_220\n      jump\t// in\n    tag_219:\n      mload(0x40)\n      dup1\n      swap2\n      sub\n      swap1\n      revert\n    tag_218:\n        /* \"Desktop/DigitalMarketplace/contracts/MarketPlace.sol\":4083:4095  bool success */\n      0x00\n        /* \"Desktop/DigitalMarketplace/contracts/MarketPlace.sol\":4109:4123  _productSeller */\n      dup6\n        /* \"Desktop/DigitalMarketplace/contracts/MarketPlace.sol\":4101:4129  payable(_productSeller).call */\n      0xffffffffffffffffffffffffffffffffffffffff\n      and\n        /* \"Desktop/DigitalMarketplace/contracts/MarketPlace.sol\":4137:4148  soldProduct */\n      dup3\n        /* \"Desktop/DigitalMarketplace/contracts/MarketPlace.sol\":4137:4154  soldProduct.price */\n      0x00\n      add\n      mload\n        /* \"Desktop/DigitalMarketplace/contracts/MarketPlace.sol\":4101:4159  payable(_productSeller).call{value: soldProduct.price}(\"\") */\n      mload(0x40)\n      tag_221\n      swap1\n      tag_222\n      jump\t// in\n    tag_221:\n      0x00\n      mload(0x40)\n      dup1\n      dup4\n      sub\n      dup2\n      dup6\n      dup8\n      gas\n      call\n      swap3\n      pop\n      pop\n      pop\n      returndatasize\n      dup1\n      0x00\n      dup2\n      eq\n      tag_225\n      jumpi\n      mload(0x40)\n      swap2\n      pop\n      and(add(returndatasize, 0x3f), not(0x1f))\n      dup3\n      add\n      0x40\n      mstore\n      returndatasize\n      dup3\n      mstore\n      returndatasize\n      0x00\n      0x20\n      dup5\n      add\n      returndatacopy\n      jump(tag_224)\n    tag_225:\n      0x60\n      swap2\n      pop\n    tag_224:\n      pop\n        /* \"Desktop/DigitalMarketplace/contracts/MarketPlace.sol\":4082:4159  (bool success, ) = payable(_productSeller).call{value: soldProduct.price}(\"\") */\n      pop\n      swap1\n      pop\n        /* \"Desktop/DigitalMarketplace/contracts/MarketPlace.sol\":4178:4185  success */\n      dup1\n        /* \"Desktop/DigitalMarketplace/contracts/MarketPlace.sol\":4170:4209  require(success, \"Transaction failed!\") */\n      tag_226\n      jumpi\n      mload(0x40)\n      0x08c379a000000000000000000000000000000000000000000000000000000000\n      dup2\n      mstore\n      0x04\n      add\n      tag_227\n      swap1\n      tag_228\n      jump\t// in\n    tag_227:\n      mload(0x40)\n      dup1\n      swap2\n      sub\n      swap1\n      revert\n    tag_226:\n        /* \"Desktop/DigitalMarketplace/contracts/MarketPlace.sol\":4230:4244  productHistory */\n      0x06\n        /* \"Desktop/DigitalMarketplace/contracts/MarketPlace.sol\":4230:4256  productHistory[_productId] */\n      0x00\n        /* \"Desktop/DigitalMarketplace/contracts/MarketPlace.sol\":4245:4255  _productId */\n      dup9\n        /* \"Desktop/DigitalMarketplace/contracts/MarketPlace.sol\":4230:4256  productHistory[_productId] */\n      dup2\n      mstore\n      0x20\n      add\n      swap1\n      dup2\n      mstore\n      0x20\n      add\n      0x00\n      keccak256\n        /* \"Desktop/DigitalMarketplace/contracts/MarketPlace.sol\":4262:4370  TransactionDetails(soldProduct.price, soldProduct.fees, soldProduct.datetime, _productSeller, _productBuyer) */\n      mload(0x40)\n      dup1\n      0xa0\n      add\n      0x40\n      mstore\n      dup1\n        /* \"Desktop/DigitalMarketplace/contracts/MarketPlace.sol\":4281:4292  soldProduct */\n      dup5\n        /* \"Desktop/DigitalMarketplace/contracts/MarketPlace.sol\":4281:4298  soldProduct.price */\n      0x00\n      add\n      mload\n        /* \"Desktop/DigitalMarketplace/contracts/MarketPlace.sol\":4262:4370  TransactionDetails(soldProduct.price, soldProduct.fees, soldProduct.datetime, _productSeller, _productBuyer) */\n      dup2\n      mstore\n      0x20\n      add\n        /* \"Desktop/DigitalMarketplace/contracts/MarketPlace.sol\":4300:4311  soldProduct */\n      dup5\n        /* \"Desktop/DigitalMarketplace/contracts/MarketPlace.sol\":4300:4316  soldProduct.fees */\n      0x20\n      add\n      mload\n        /* \"Desktop/DigitalMarketplace/contracts/MarketPlace.sol\":4262:4370  TransactionDetails(soldProduct.price, soldProduct.fees, soldProduct.datetime, _productSeller, _productBuyer) */\n      dup2\n      mstore\n      0x20\n      add\n        /* \"Desktop/DigitalMarketplace/contracts/MarketPlace.sol\":4318:4329  soldProduct */\n      dup5\n        /* \"Desktop/DigitalMarketplace/contracts/MarketPlace.sol\":4318:4338  soldProduct.datetime */\n      0x40\n      add\n      mload\n        /* \"Desktop/DigitalMarketplace/contracts/MarketPlace.sol\":4262:4370  TransactionDetails(soldProduct.price, soldProduct.fees, soldProduct.datetime, _productSeller, _productBuyer) */\n      dup2\n      mstore\n      0x20\n      add\n        /* \"Desktop/DigitalMarketplace/contracts/MarketPlace.sol\":4340:4354  _productSeller */\n      dup9\n        /* \"Desktop/DigitalMarketplace/contracts/MarketPlace.sol\":4262:4370  TransactionDetails(soldProduct.price, soldProduct.fees, soldProduct.datetime, _productSeller, _productBuyer) */\n      0xffffffffffffffffffffffffffffffffffffffff\n      and\n      dup2\n      mstore\n      0x20\n      add\n        /* \"Desktop/DigitalMarketplace/contracts/MarketPlace.sol\":4356:4369  _productBuyer */\n      dup8\n        /* \"Desktop/DigitalMarketplace/contracts/MarketPlace.sol\":4262:4370  TransactionDetails(soldProduct.price, soldProduct.fees, soldProduct.datetime, _productSeller, _productBuyer) */\n      0xffffffffffffffffffffffffffffffffffffffff\n      and\n      dup2\n      mstore\n      pop\n        /* \"Desktop/DigitalMarketplace/contracts/MarketPlace.sol\":4230:4371  productHistory[_productId].push(TransactionDetails(soldProduct.price, soldProduct.fees, soldProduct.datetime, _productSeller, _productBuyer)) */\n      swap1\n      dup1\n      0x01\n      dup2\n      sload\n      add\n      dup1\n      dup3\n      sstore\n      dup1\n      swap2\n      pop\n      pop\n      0x01\n      swap1\n      sub\n      swap1\n      0x00\n      mstore\n      keccak256(0x00, 0x20)\n      swap1\n      0x05\n      mul\n      add\n      0x00\n      swap1\n      swap2\n      swap1\n      swap2\n      swap1\n      swap2\n      pop\n      0x00\n      dup3\n      add\n      mload\n      dup2\n      0x00\n      add\n      sstore\n      0x20\n      dup3\n      add\n      mload\n      dup2\n      0x01\n      add\n      sstore\n      0x40\n      dup3\n      add\n      mload\n      dup2\n      0x02\n      add\n      sstore\n      0x60\n      dup3\n      add\n      mload\n      dup2\n      0x03\n      add\n      exp(0x0100, 0x00)\n      dup2\n      sload\n      dup2\n      0xffffffffffffffffffffffffffffffffffffffff\n      mul\n      not\n      and\n      swap1\n      dup4\n      0xffffffffffffffffffffffffffffffffffffffff\n      and\n      mul\n      or\n      swap1\n      sstore\n      pop\n      0x80\n      dup3\n      add\n      mload\n      dup2\n      0x04\n      add\n      exp(0x0100, 0x00)\n      dup2\n      sload\n      dup2\n      0xffffffffffffffffffffffffffffffffffffffff\n      mul\n      not\n      and\n      swap1\n      dup4\n      0xffffffffffffffffffffffffffffffffffffffff\n      and\n      mul\n      or\n      swap1\n      sstore\n      pop\n      pop\n      pop\n        /* \"Desktop/DigitalMarketplace/contracts/MarketPlace.sol\":4382:4458  transferFromSellableToNonSellable(_productSeller, _productBuyer, _productId) */\n      tag_230\n        /* \"Desktop/DigitalMarketplace/contracts/MarketPlace.sol\":4416:4430  _productSeller */\n      dup7\n        /* \"Desktop/DigitalMarketplace/contracts/MarketPlace.sol\":4432:4445  _productBuyer */\n      dup7\n        /* \"Desktop/DigitalMarketplace/contracts/MarketPlace.sol\":4447:4457  _productId */\n      dup10\n        /* \"Desktop/DigitalMarketplace/contracts/MarketPlace.sol\":4382:4415  transferFromSellableToNonSellable */\n      tag_231\n        /* \"Desktop/DigitalMarketplace/contracts/MarketPlace.sol\":4382:4458  transferFromSellableToNonSellable(_productSeller, _productBuyer, _productId) */\n      jump\t// in\n    tag_230:\n        /* \"Desktop/DigitalMarketplace/contracts/MarketPlace.sol\":3881:4466  {\r... */\n      pop\n      pop\n        /* \"Desktop/DigitalMarketplace/contracts/MarketPlace.sol\":3736:4466  function buyProduct(uint256 _productId, address _productSeller, address _productBuyer) public payable isProductOwner(_productId, _productSeller) {\r... */\n      pop\n      pop\n      pop\n      pop\n      pop\n      jump\t// out\n        /* \"Desktop/DigitalMarketplace/contracts/MarketPlace.sol\":1025:1087  mapping(uint256 => TransactionDetails[]) public productHistory */\n    tag_72:\n      mstore(0x20, 0x06)\n      dup2\n      0x00\n      mstore\n      keccak256(0x00, 0x40)\n      dup2\n      dup2\n      sload\n      dup2\n      lt\n      tag_232\n      jumpi\n      0x00\n      dup1\n      revert\n    tag_232:\n      swap1\n      0x00\n      mstore\n      keccak256(0x00, 0x20)\n      swap1\n      0x05\n      mul\n      add\n      0x00\n      swap2\n      pop\n      swap2\n      pop\n      pop\n      dup1\n      0x00\n      add\n      sload\n      swap1\n      dup1\n      0x01\n      add\n      sload\n      swap1\n      dup1\n      0x02\n      add\n      sload\n      swap1\n      dup1\n      0x03\n      add\n      0x00\n      swap1\n      sload\n      swap1\n      0x0100\n      exp\n      swap1\n      div\n      0xffffffffffffffffffffffffffffffffffffffff\n      and\n      swap1\n      dup1\n      0x04\n      add\n      0x00\n      swap1\n      sload\n      swap1\n      0x0100\n      exp\n      swap1\n      div\n      0xffffffffffffffffffffffffffffffffffffffff\n      and\n      swap1\n      pop\n      dup6\n      jump\t// out\n        /* \"Desktop/DigitalMarketplace/contracts/MarketPlace.sol\":1379:1560  function withdraw() external onlyOwner {\r... */\n    tag_77:\n        /* \"Desktop/DigitalMarketplace/contracts/Ownable.sol\":1302:1314  _msgSender() */\n      tag_235\n        /* \"Desktop/DigitalMarketplace/contracts/Ownable.sol\":1302:1312  _msgSender */\n      tag_236\n        /* \"Desktop/DigitalMarketplace/contracts/Ownable.sol\":1302:1314  _msgSender() */\n      jump\t// in\n    tag_235:\n        /* \"Desktop/DigitalMarketplace/contracts/Ownable.sol\":1291:1314  owner() == _msgSender() */\n      0xffffffffffffffffffffffffffffffffffffffff\n      and\n        /* \"Desktop/DigitalMarketplace/contracts/Ownable.sol\":1291:1298  owner() */\n      tag_237\n        /* \"Desktop/DigitalMarketplace/contracts/Ownable.sol\":1291:1296  owner */\n      tag_109\n        /* \"Desktop/DigitalMarketplace/contracts/Ownable.sol\":1291:1298  owner() */\n      jump\t// in\n    tag_237:\n        /* \"Desktop/DigitalMarketplace/contracts/Ownable.sol\":1291:1314  owner() == _msgSender() */\n      0xffffffffffffffffffffffffffffffffffffffff\n      and\n      eq\n        /* \"Desktop/DigitalMarketplace/contracts/Ownable.sol\":1283:1351  require(owner() == _msgSender(), \"Ownable: caller is not the owner\") */\n      tag_238\n      jumpi\n      mload(0x40)\n      0x08c379a000000000000000000000000000000000000000000000000000000000\n      dup2\n      mstore\n      0x04\n      add\n      tag_239\n      swap1\n      tag_240\n      jump\t// in\n    tag_239:\n      mload(0x40)\n      dup1\n      swap2\n      sub\n      swap1\n      revert\n    tag_238:\n        /* \"Desktop/DigitalMarketplace/contracts/MarketPlace.sol\":1430:1442  bool success */\n      0x00\n        /* \"Desktop/DigitalMarketplace/contracts/MarketPlace.sol\":1456:1463  owner() */\n      tag_242\n        /* \"Desktop/DigitalMarketplace/contracts/MarketPlace.sol\":1456:1461  owner */\n      tag_109\n        /* \"Desktop/DigitalMarketplace/contracts/MarketPlace.sol\":1456:1463  owner() */\n      jump\t// in\n    tag_242:\n        /* \"Desktop/DigitalMarketplace/contracts/MarketPlace.sol\":1448:1469  payable(owner()).call */\n      0xffffffffffffffffffffffffffffffffffffffff\n      and\n        /* \"Desktop/DigitalMarketplace/contracts/MarketPlace.sol\":1477:1498  address(this).balance */\n      selfbalance\n        /* \"Desktop/DigitalMarketplace/contracts/MarketPlace.sol\":1448:1503  payable(owner()).call{value: address(this).balance}(\"\") */\n      mload(0x40)\n      tag_243\n      swap1\n      tag_222\n      jump\t// in\n    tag_243:\n      0x00\n      mload(0x40)\n      dup1\n      dup4\n      sub\n      dup2\n      dup6\n      dup8\n      gas\n      call\n      swap3\n      pop\n      pop\n      pop\n      returndatasize\n      dup1\n      0x00\n      dup2\n      eq\n      tag_246\n      jumpi\n      mload(0x40)\n      swap2\n      pop\n      and(add(returndatasize, 0x3f), not(0x1f))\n      dup3\n      add\n      0x40\n      mstore\n      returndatasize\n      dup3\n      mstore\n      returndatasize\n      0x00\n      0x20\n      dup5\n      add\n      returndatacopy\n      jump(tag_245)\n    tag_246:\n      0x60\n      swap2\n      pop\n    tag_245:\n      pop\n        /* \"Desktop/DigitalMarketplace/contracts/MarketPlace.sol\":1429:1503  (bool success, ) = payable(owner()).call{value: address(this).balance}(\"\") */\n      pop\n      swap1\n      pop\n        /* \"Desktop/DigitalMarketplace/contracts/MarketPlace.sol\":1522:1529  success */\n      dup1\n        /* \"Desktop/DigitalMarketplace/contracts/MarketPlace.sol\":1514:1552  require(success, \"Couldn't withdraw!\") */\n      tag_247\n      jumpi\n      mload(0x40)\n      0x08c379a000000000000000000000000000000000000000000000000000000000\n      dup2\n      mstore\n      0x04\n      add\n      tag_248\n      swap1\n      tag_249\n      jump\t// in\n    tag_248:\n      mload(0x40)\n      dup1\n      swap2\n      sub\n      swap1\n      revert\n    tag_247:\n        /* \"Desktop/DigitalMarketplace/contracts/MarketPlace.sol\":1418:1560  {\r... */\n      pop\n        /* \"Desktop/DigitalMarketplace/contracts/MarketPlace.sol\":1379:1560  function withdraw() external onlyOwner {\r... */\n      jump\t// out\n        /* \"Desktop/DigitalMarketplace/contracts/MarketPlace.sol\":7999:8593  function getOwnerProducts(uint256 _startIndexForSearch, uint256 _maxResults) external view returns (uint256, Product[] memory) {\r... */\n    tag_81:\n        /* \"Desktop/DigitalMarketplace/contracts/MarketPlace.sol\":8099:8106  uint256 */\n      0x00\n        /* \"Desktop/DigitalMarketplace/contracts/MarketPlace.sol\":8108:8124  Product[] memory */\n      0x60\n        /* \"Desktop/DigitalMarketplace/contracts/MarketPlace.sol\":8137:8150  address owner */\n      0x00\n        /* \"Desktop/DigitalMarketplace/contracts/MarketPlace.sol\":8153:8163  msg.sender */\n      caller\n        /* \"Desktop/DigitalMarketplace/contracts/MarketPlace.sol\":8137:8163  address owner = msg.sender */\n      swap1\n      pop\n        /* \"Desktop/DigitalMarketplace/contracts/MarketPlace.sol\":8174:8204  Product[] memory ownerProducts */\n      0x00\n        /* \"Desktop/DigitalMarketplace/contracts/MarketPlace.sol\":8221:8229  products */\n      0x07\n        /* \"Desktop/DigitalMarketplace/contracts/MarketPlace.sol\":8221:8236  products.length */\n      dup1\n      sload\n      swap1\n      pop\n        /* \"Desktop/DigitalMarketplace/contracts/MarketPlace.sol\":8207:8237  new Product[](products.length) */\n      0xffffffffffffffff\n      dup2\n      gt\n      iszero\n      tag_251\n      jumpi\n      tag_252\n      tag_253\n      jump\t// in\n    tag_252:\n    tag_251:\n      mload(0x40)\n      swap1\n      dup1\n      dup3\n      mstore\n      dup1\n      0x20\n      mul\n      0x20\n      add\n      dup3\n      add\n      0x40\n      mstore\n      dup1\n      iszero\n      tag_254\n      jumpi\n      dup2\n      0x20\n      add\n    tag_255:\n      tag_256\n      tag_257\n      jump\t// in\n    tag_256:\n      dup2\n      mstore\n      0x20\n      add\n      swap1\n      0x01\n      swap1\n      sub\n      swap1\n      dup2\n      tag_255\n      jumpi\n      swap1\n      pop\n    tag_254:\n      pop\n        /* \"Desktop/DigitalMarketplace/contracts/MarketPlace.sol\":8174:8237  Product[] memory ownerProducts = new Product[](products.length) */\n      swap1\n      pop\n        /* \"Desktop/DigitalMarketplace/contracts/MarketPlace.sol\":8248:8276  uint256 ownerProductsCounter */\n      0x00\n        /* \"Desktop/DigitalMarketplace/contracts/MarketPlace.sol\":8291:8300  uint256 i */\n      dup1\n        /* \"Desktop/DigitalMarketplace/contracts/MarketPlace.sol\":8320:8340  _startIndexForSearch */\n      dup8\n        /* \"Desktop/DigitalMarketplace/contracts/MarketPlace.sol\":8316:8340  i = _startIndexForSearch */\n      swap1\n      pop\n        /* \"Desktop/DigitalMarketplace/contracts/MarketPlace.sol\":8311:8550  for (i = _startIndexForSearch; i < products.length && ownerProductsCounter < _maxResults; i++) {\r... */\n    tag_258:\n        /* \"Desktop/DigitalMarketplace/contracts/MarketPlace.sol\":8346:8354  products */\n      0x07\n        /* \"Desktop/DigitalMarketplace/contracts/MarketPlace.sol\":8346:8361  products.length */\n      dup1\n      sload\n      swap1\n      pop\n        /* \"Desktop/DigitalMarketplace/contracts/MarketPlace.sol\":8342:8343  i */\n      dup2\n        /* \"Desktop/DigitalMarketplace/contracts/MarketPlace.sol\":8342:8361  i < products.length */\n      lt\n        /* \"Desktop/DigitalMarketplace/contracts/MarketPlace.sol\":8342:8399  i < products.length && ownerProductsCounter < _maxResults */\n      dup1\n      iszero\n      tag_261\n      jumpi\n      pop\n        /* \"Desktop/DigitalMarketplace/contracts/MarketPlace.sol\":8388:8399  _maxResults */\n      dup7\n        /* \"Desktop/DigitalMarketplace/contracts/MarketPlace.sol\":8365:8385  ownerProductsCounter */\n      dup3\n        /* \"Desktop/DigitalMarketplace/contracts/MarketPlace.sol\":8365:8399  ownerProductsCounter < _maxResults */\n      lt\n        /* \"Desktop/DigitalMarketplace/contracts/MarketPlace.sol\":8342:8399  i < products.length && ownerProductsCounter < _maxResults */\n    tag_261:\n        /* \"Desktop/DigitalMarketplace/contracts/MarketPlace.sol\":8311:8550  for (i = _startIndexForSearch; i < products.length && ownerProductsCounter < _maxResults; i++) {\r... */\n      iszero\n      tag_259\n      jumpi\n        /* \"Desktop/DigitalMarketplace/contracts/MarketPlace.sol\":8446:8451  owner */\n      dup4\n        /* \"Desktop/DigitalMarketplace/contracts/MarketPlace.sol\":8425:8451  products[i].owner == owner */\n      0xffffffffffffffffffffffffffffffffffffffff\n      and\n        /* \"Desktop/DigitalMarketplace/contracts/MarketPlace.sol\":8425:8433  products */\n      0x07\n        /* \"Desktop/DigitalMarketplace/contracts/MarketPlace.sol\":8434:8435  i */\n      dup3\n        /* \"Desktop/DigitalMarketplace/contracts/MarketPlace.sol\":8425:8436  products[i] */\n      dup2\n      sload\n      dup2\n      lt\n      tag_262\n      jumpi\n      tag_263\n      tag_166\n      jump\t// in\n    tag_263:\n    tag_262:\n      swap1\n      0x00\n      mstore\n      keccak256(0x00, 0x20)\n      swap1\n      0x07\n      mul\n      add\n        /* \"Desktop/DigitalMarketplace/contracts/MarketPlace.sol\":8425:8442  products[i].owner */\n      0x01\n      add\n      0x00\n      swap1\n      sload\n      swap1\n      0x0100\n      exp\n      swap1\n      div\n      0xffffffffffffffffffffffffffffffffffffffff\n      and\n        /* \"Desktop/DigitalMarketplace/contracts/MarketPlace.sol\":8425:8451  products[i].owner == owner */\n      0xffffffffffffffffffffffffffffffffffffffff\n      and\n      eq\n        /* \"Desktop/DigitalMarketplace/contracts/MarketPlace.sol\":8421:8539  if (products[i].owner == owner) {\r... */\n      iszero\n      tag_265\n      jumpi\n        /* \"Desktop/DigitalMarketplace/contracts/MarketPlace.sol\":8512:8520  products */\n      0x07\n        /* \"Desktop/DigitalMarketplace/contracts/MarketPlace.sol\":8521:8522  i */\n      dup2\n        /* \"Desktop/DigitalMarketplace/contracts/MarketPlace.sol\":8512:8523  products[i] */\n      dup2\n      sload\n      dup2\n      lt\n      tag_266\n      jumpi\n      tag_267\n      tag_166\n      jump\t// in\n    tag_267:\n    tag_266:\n      swap1\n      0x00\n      mstore\n      keccak256(0x00, 0x20)\n      swap1\n      0x07\n      mul\n      add\n        /* \"Desktop/DigitalMarketplace/contracts/MarketPlace.sol\":8472:8523  ownerProducts[ownerProductsCounter++] = products[i] */\n      mload(0x40)\n      dup1\n      0xe0\n      add\n      0x40\n      mstore\n      swap1\n      dup2\n      0x00\n      dup3\n      add\n      sload\n      dup2\n      mstore\n      0x20\n      add\n      0x01\n      dup3\n      add\n      0x00\n      swap1\n      sload\n      swap1\n      0x0100\n      exp\n      swap1\n      div\n      0xffffffffffffffffffffffffffffffffffffffff\n      and\n      0xffffffffffffffffffffffffffffffffffffffff\n      and\n      0xffffffffffffffffffffffffffffffffffffffff\n      and\n      dup2\n      mstore\n      0x20\n      add\n      0x02\n      dup3\n      add\n      dup1\n      sload\n      tag_269\n      swap1\n      tag_270\n      jump\t// in\n    tag_269:\n      dup1\n      0x1f\n      add\n      0x20\n      dup1\n      swap2\n      div\n      mul\n      0x20\n      add\n      mload(0x40)\n      swap1\n      dup2\n      add\n      0x40\n      mstore\n      dup1\n      swap3\n      swap2\n      swap1\n      dup2\n      dup2\n      mstore\n      0x20\n      add\n      dup3\n      dup1\n      sload\n      tag_271\n      swap1\n      tag_270\n      jump\t// in\n    tag_271:\n      dup1\n      iszero\n      tag_272\n      jumpi\n      dup1\n      0x1f\n      lt\n      tag_273\n      jumpi\n      0x0100\n      dup1\n      dup4\n      sload\n      div\n      mul\n      dup4\n      mstore\n      swap2\n      0x20\n      add\n      swap2\n      jump(tag_272)\n    tag_273:\n      dup3\n      add\n      swap2\n      swap1\n      0x00\n      mstore\n      keccak256(0x00, 0x20)\n      swap1\n    tag_274:\n      dup2\n      sload\n      dup2\n      mstore\n      swap1\n      0x01\n      add\n      swap1\n      0x20\n      add\n      dup1\n      dup4\n      gt\n      tag_274\n      jumpi\n      dup3\n      swap1\n      sub\n      0x1f\n      and\n      dup3\n      add\n      swap2\n    tag_272:\n      pop\n      pop\n      pop\n      pop\n      pop\n      dup2\n      mstore\n      0x20\n      add\n      0x03\n      dup3\n      add\n      dup1\n      sload\n      tag_275\n      swap1\n      tag_270\n      jump\t// in\n    tag_275:\n      dup1\n      0x1f\n      add\n      0x20\n      dup1\n      swap2\n      div\n      mul\n      0x20\n      add\n      mload(0x40)\n      swap1\n      dup2\n      add\n      0x40\n      mstore\n      dup1\n      swap3\n      swap2\n      swap1\n      dup2\n      dup2\n      mstore\n      0x20\n      add\n      dup3\n      dup1\n      sload\n      tag_276\n      swap1\n      tag_270\n      jump\t// in\n    tag_276:\n      dup1\n      iszero\n      tag_277\n      jumpi\n      dup1\n      0x1f\n      lt\n      tag_278\n      jumpi\n      0x0100\n      dup1\n      dup4\n      sload\n      div\n      mul\n      dup4\n      mstore\n      swap2\n      0x20\n      add\n      swap2\n      jump(tag_277)\n    tag_278:\n      dup3\n      add\n      swap2\n      swap1\n      0x00\n      mstore\n      keccak256(0x00, 0x20)\n      swap1\n    tag_279:\n      dup2\n      sload\n      dup2\n      mstore\n      swap1\n      0x01\n      add\n      swap1\n      0x20\n      add\n      dup1\n      dup4\n      gt\n      tag_279\n      jumpi\n      dup3\n      swap1\n      sub\n      0x1f\n      and\n      dup3\n      add\n      swap2\n    tag_277:\n      pop\n      pop\n      pop\n      pop\n      pop\n      dup2\n      mstore\n      0x20\n      add\n      0x04\n      dup3\n      add\n      dup1\n      sload\n      tag_280\n      swap1\n      tag_270\n      jump\t// in\n    tag_280:\n      dup1\n      0x1f\n      add\n      0x20\n      dup1\n      swap2\n      div\n      mul\n      0x20\n      add\n      mload(0x40)\n      swap1\n      dup2\n      add\n      0x40\n      mstore\n      dup1\n      swap3\n      swap2\n      swap1\n      dup2\n      dup2\n      mstore\n      0x20\n      add\n      dup3\n      dup1\n      sload\n      tag_281\n      swap1\n      tag_270\n      jump\t// in\n    tag_281:\n      dup1\n      iszero\n      tag_282\n      jumpi\n      dup1\n      0x1f\n      lt\n      tag_283\n      jumpi\n      0x0100\n      dup1\n      dup4\n      sload\n      div\n      mul\n      dup4\n      mstore\n      swap2\n      0x20\n      add\n      swap2\n      jump(tag_282)\n    tag_283:\n      dup3\n      add\n      swap2\n      swap1\n      0x00\n      mstore\n      keccak256(0x00, 0x20)\n      swap1\n    tag_284:\n      dup2\n      sload\n      dup2\n      mstore\n      swap1\n      0x01\n      add\n      swap1\n      0x20\n      add\n      dup1\n      dup4\n      gt\n      tag_284\n      jumpi\n      dup3\n      swap1\n      sub\n      0x1f\n      and\n      dup3\n      add\n      swap2\n    tag_282:\n      pop\n      pop\n      pop\n      pop\n      pop\n      dup2\n      mstore\n      0x20\n      add\n      0x05\n      dup3\n      add\n      dup1\n      sload\n      dup1\n      0x20\n      mul\n      0x20\n      add\n      mload(0x40)\n      swap1\n      dup2\n      add\n      0x40\n      mstore\n      dup1\n      swap3\n      swap2\n      swap1\n      dup2\n      dup2\n      mstore\n      0x20\n      add\n      0x00\n      swap1\n    tag_285:\n      dup3\n      dup3\n      lt\n      iszero\n      tag_286\n      jumpi\n      dup4\n      dup3\n      swap1\n      0x00\n      mstore\n      keccak256(0x00, 0x20)\n      add\n      dup1\n      sload\n      tag_288\n      swap1\n      tag_270\n      jump\t// in\n    tag_288:\n      dup1\n      0x1f\n      add\n      0x20\n      dup1\n      swap2\n      div\n      mul\n      0x20\n      add\n      mload(0x40)\n      swap1\n      dup2\n      add\n      0x40\n      mstore\n      dup1\n      swap3\n      swap2\n      swap1\n      dup2\n      dup2\n      mstore\n      0x20\n      add\n      dup3\n      dup1\n      sload\n      tag_289\n      swap1\n      tag_270\n      jump\t// in\n    tag_289:\n      dup1\n      iszero\n      tag_290\n      jumpi\n      dup1\n      0x1f\n      lt\n      tag_291\n      jumpi\n      0x0100\n      dup1\n      dup4\n      sload\n      div\n      mul\n      dup4\n      mstore\n      swap2\n      0x20\n      add\n      swap2\n      jump(tag_290)\n    tag_291:\n      dup3\n      add\n      swap2\n      swap1\n      0x00\n      mstore\n      keccak256(0x00, 0x20)\n      swap1\n    tag_292:\n      dup2\n      sload\n      dup2\n      mstore\n      swap1\n      0x01\n      add\n      swap1\n      0x20\n      add\n      dup1\n      dup4\n      gt\n      tag_292\n      jumpi\n      dup3\n      swap1\n      sub\n      0x1f\n      and\n      dup3\n      add\n      swap2\n    tag_290:\n      pop\n      pop\n      pop\n      pop\n      pop\n      dup2\n      mstore\n      0x20\n      add\n      swap1\n      0x01\n      add\n      swap1\n      jump(tag_285)\n    tag_286:\n      pop\n      pop\n      pop\n      pop\n      dup2\n      mstore\n      0x20\n      add\n      0x06\n      dup3\n      add\n      0x00\n      swap1\n      sload\n      swap1\n      0x0100\n      exp\n      swap1\n      div\n      0xff\n      and\n      iszero\n      iszero\n      iszero\n      iszero\n      dup2\n      mstore\n      pop\n      pop\n        /* \"Desktop/DigitalMarketplace/contracts/MarketPlace.sol\":8472:8485  ownerProducts */\n      dup4\n        /* \"Desktop/DigitalMarketplace/contracts/MarketPlace.sol\":8486:8508  ownerProductsCounter++ */\n      dup4\n      dup1\n      tag_293\n      swap1\n      tag_171\n      jump\t// in\n    tag_293:\n      swap5\n      pop\n        /* \"Desktop/DigitalMarketplace/contracts/MarketPlace.sol\":8472:8509  ownerProducts[ownerProductsCounter++] */\n      dup2\n      mload\n      dup2\n      lt\n      tag_294\n      jumpi\n      tag_295\n      tag_166\n      jump\t// in\n    tag_295:\n    tag_294:\n      0x20\n      mul\n      0x20\n      add\n      add\n        /* \"Desktop/DigitalMarketplace/contracts/MarketPlace.sol\":8472:8523  ownerProducts[ownerProductsCounter++] = products[i] */\n      dup2\n      swap1\n      mstore\n      pop\n        /* \"Desktop/DigitalMarketplace/contracts/MarketPlace.sol\":8421:8539  if (products[i].owner == owner) {\r... */\n    tag_265:\n        /* \"Desktop/DigitalMarketplace/contracts/MarketPlace.sol\":8401:8404  i++ */\n      dup1\n      dup1\n      tag_296\n      swap1\n      tag_171\n      jump\t// in\n    tag_296:\n      swap2\n      pop\n      pop\n        /* \"Desktop/DigitalMarketplace/contracts/MarketPlace.sol\":8311:8550  for (i = _startIndexForSearch; i < products.length && ownerProductsCounter < _maxResults; i++) {\r... */\n      jump(tag_258)\n    tag_259:\n        /* \"Desktop/DigitalMarketplace/contracts/MarketPlace.sol\":8568:8569  i */\n      dup1\n        /* \"Desktop/DigitalMarketplace/contracts/MarketPlace.sol\":8571:8584  ownerProducts */\n      dup4\n        /* \"Desktop/DigitalMarketplace/contracts/MarketPlace.sol\":8560:8585  return (i, ownerProducts) */\n      swap6\n      pop\n      swap6\n      pop\n      pop\n      pop\n      pop\n      pop\n        /* \"Desktop/DigitalMarketplace/contracts/MarketPlace.sol\":7999:8593  function getOwnerProducts(uint256 _startIndexForSearch, uint256 _maxResults) external view returns (uint256, Product[] memory) {\r... */\n      swap3\n      pop\n      swap3\n      swap1\n      pop\n      jump\t// out\n        /* \"Desktop/DigitalMarketplace/contracts/MarketPlace.sol\":11783:12455  function safeTransferFrom(address _from, address _to, uint256 _tokenId) override external payable {\r... */\n    tag_86:\n        /* \"Desktop/DigitalMarketplace/contracts/MarketPlace.sol\":11914:11922  products */\n      0x07\n        /* \"Desktop/DigitalMarketplace/contracts/MarketPlace.sol\":11923:11931  _tokenId */\n      dup2\n        /* \"Desktop/DigitalMarketplace/contracts/MarketPlace.sol\":11914:11932  products[_tokenId] */\n      dup2\n      sload\n      dup2\n      lt\n      tag_298\n      jumpi\n      tag_299\n      tag_166\n      jump\t// in\n    tag_299:\n    tag_298:\n      swap1\n      0x00\n      mstore\n      keccak256(0x00, 0x20)\n      swap1\n      0x07\n      mul\n      add\n        /* \"Desktop/DigitalMarketplace/contracts/MarketPlace.sol\":11914:11938  products[_tokenId].owner */\n      0x01\n      add\n      0x00\n      swap1\n      sload\n      swap1\n      0x0100\n      exp\n      swap1\n      div\n      0xffffffffffffffffffffffffffffffffffffffff\n      and\n        /* \"Desktop/DigitalMarketplace/contracts/MarketPlace.sol\":11900:11938  msg.sender == products[_tokenId].owner */\n      0xffffffffffffffffffffffffffffffffffffffff\n      and\n        /* \"Desktop/DigitalMarketplace/contracts/MarketPlace.sol\":11900:11910  msg.sender */\n      caller\n        /* \"Desktop/DigitalMarketplace/contracts/MarketPlace.sol\":11900:11938  msg.sender == products[_tokenId].owner */\n      0xffffffffffffffffffffffffffffffffffffffff\n      and\n      eq\n        /* \"Desktop/DigitalMarketplace/contracts/MarketPlace.sol\":11900:11976  msg.sender == products[_tokenId].owner || addressToOperatorCheck[_from][_to] */\n      dup1\n      tag_301\n      jumpi\n      pop\n        /* \"Desktop/DigitalMarketplace/contracts/MarketPlace.sol\":11942:11964  addressToOperatorCheck */\n      0x05\n        /* \"Desktop/DigitalMarketplace/contracts/MarketPlace.sol\":11942:11971  addressToOperatorCheck[_from] */\n      0x00\n        /* \"Desktop/DigitalMarketplace/contracts/MarketPlace.sol\":11965:11970  _from */\n      dup5\n        /* \"Desktop/DigitalMarketplace/contracts/MarketPlace.sol\":11942:11971  addressToOperatorCheck[_from] */\n      0xffffffffffffffffffffffffffffffffffffffff\n      and\n      0xffffffffffffffffffffffffffffffffffffffff\n      and\n      dup2\n      mstore\n      0x20\n      add\n      swap1\n      dup2\n      mstore\n      0x20\n      add\n      0x00\n      keccak256\n        /* \"Desktop/DigitalMarketplace/contracts/MarketPlace.sol\":11942:11976  addressToOperatorCheck[_from][_to] */\n      0x00\n        /* \"Desktop/DigitalMarketplace/contracts/MarketPlace.sol\":11972:11975  _to */\n      dup4\n        /* \"Desktop/DigitalMarketplace/contracts/MarketPlace.sol\":11942:11976  addressToOperatorCheck[_from][_to] */\n      0xffffffffffffffffffffffffffffffffffffffff\n      and\n      0xffffffffffffffffffffffffffffffffffffffff\n      and\n      dup2\n      mstore\n      0x20\n      add\n      swap1\n      dup2\n      mstore\n      0x20\n      add\n      0x00\n      keccak256\n      0x00\n      swap1\n      sload\n      swap1\n      0x0100\n      exp\n      swap1\n      div\n      0xff\n      and\n        /* \"Desktop/DigitalMarketplace/contracts/MarketPlace.sol\":11900:11976  msg.sender == products[_tokenId].owner || addressToOperatorCheck[_from][_to] */\n    tag_301:\n        /* \"Desktop/DigitalMarketplace/contracts/MarketPlace.sol\":11900:12021  msg.sender == products[_tokenId].owner || addressToOperatorCheck[_from][_to] || productToApprovedAddress[_tokenId] == _to */\n      dup1\n      tag_302\n      jumpi\n      pop\n        /* \"Desktop/DigitalMarketplace/contracts/MarketPlace.sol\":12018:12021  _to */\n      dup2\n        /* \"Desktop/DigitalMarketplace/contracts/MarketPlace.sol\":11980:12021  productToApprovedAddress[_tokenId] == _to */\n      0xffffffffffffffffffffffffffffffffffffffff\n      and\n        /* \"Desktop/DigitalMarketplace/contracts/MarketPlace.sol\":11980:12004  productToApprovedAddress */\n      0x04\n        /* \"Desktop/DigitalMarketplace/contracts/MarketPlace.sol\":11980:12014  productToApprovedAddress[_tokenId] */\n      0x00\n        /* \"Desktop/DigitalMarketplace/contracts/MarketPlace.sol\":12005:12013  _tokenId */\n      dup4\n        /* \"Desktop/DigitalMarketplace/contracts/MarketPlace.sol\":11980:12014  productToApprovedAddress[_tokenId] */\n      dup2\n      mstore\n      0x20\n      add\n      swap1\n      dup2\n      mstore\n      0x20\n      add\n      0x00\n      keccak256\n      0x00\n      swap1\n      sload\n      swap1\n      0x0100\n      exp\n      swap1\n      div\n      0xffffffffffffffffffffffffffffffffffffffff\n      and\n        /* \"Desktop/DigitalMarketplace/contracts/MarketPlace.sol\":11980:12021  productToApprovedAddress[_tokenId] == _to */\n      0xffffffffffffffffffffffffffffffffffffffff\n      and\n      eq\n        /* \"Desktop/DigitalMarketplace/contracts/MarketPlace.sol\":11900:12021  msg.sender == products[_tokenId].owner || addressToOperatorCheck[_from][_to] || productToApprovedAddress[_tokenId] == _to */\n    tag_302:\n        /* \"Desktop/DigitalMarketplace/contracts/MarketPlace.sol\":11892:12043  require(msg.sender == products[_tokenId].owner || addressToOperatorCheck[_from][_to] || productToApprovedAddress[_tokenId] == _to, \"Permission denied\") */\n      tag_303\n      jumpi\n      mload(0x40)\n      0x08c379a000000000000000000000000000000000000000000000000000000000\n      dup2\n      mstore\n      0x04\n      add\n      tag_304\n      swap1\n      tag_191\n      jump\t// in\n    tag_304:\n      mload(0x40)\n      dup1\n      swap2\n      sub\n      swap1\n      revert\n    tag_303:\n        /* \"Desktop/DigitalMarketplace/contracts/MarketPlace.sol\":12077:12078  0 */\n      0x00\n        /* \"Desktop/DigitalMarketplace/contracts/MarketPlace.sol\":12062:12079  _to != address(0) */\n      0xffffffffffffffffffffffffffffffffffffffff\n      and\n        /* \"Desktop/DigitalMarketplace/contracts/MarketPlace.sol\":12062:12065  _to */\n      dup3\n        /* \"Desktop/DigitalMarketplace/contracts/MarketPlace.sol\":12062:12079  _to != address(0) */\n      0xffffffffffffffffffffffffffffffffffffffff\n      and\n      eq\n      iszero\n        /* \"Desktop/DigitalMarketplace/contracts/MarketPlace.sol\":12054:12112  require(_to != address(0), \"Cannot transfer to address 0\") */\n      tag_305\n      jumpi\n      mload(0x40)\n      0x08c379a000000000000000000000000000000000000000000000000000000000\n      dup2\n      mstore\n      0x04\n      add\n      tag_306\n      swap1\n      tag_194\n      jump\t// in\n    tag_306:\n      mload(0x40)\n      dup1\n      swap2\n      sub\n      swap1\n      revert\n    tag_305:\n        /* \"Desktop/DigitalMarketplace/contracts/MarketPlace.sol\":12127:12135  products */\n      0x07\n        /* \"Desktop/DigitalMarketplace/contracts/MarketPlace.sol\":12136:12144  _tokenId */\n      dup2\n        /* \"Desktop/DigitalMarketplace/contracts/MarketPlace.sol\":12127:12145  products[_tokenId] */\n      dup2\n      sload\n      dup2\n      lt\n      tag_307\n      jumpi\n      tag_308\n      tag_166\n      jump\t// in\n    tag_308:\n    tag_307:\n      swap1\n      0x00\n      mstore\n      keccak256(0x00, 0x20)\n      swap1\n      0x07\n      mul\n      add\n        /* \"Desktop/DigitalMarketplace/contracts/MarketPlace.sol\":12127:12153  products[_tokenId].forSale */\n      0x06\n      add\n      0x00\n      swap1\n      sload\n      swap1\n      0x0100\n      exp\n      swap1\n      div\n      0xff\n      and\n        /* \"Desktop/DigitalMarketplace/contracts/MarketPlace.sol\":12123:12448  if (products[_tokenId].forSale) {\r... */\n      iszero\n      tag_310\n      jumpi\n        /* \"Desktop/DigitalMarketplace/contracts/MarketPlace.sol\":12170:12202  buyProduct(_tokenId, _from, _to) */\n      tag_311\n        /* \"Desktop/DigitalMarketplace/contracts/MarketPlace.sol\":12181:12189  _tokenId */\n      dup2\n        /* \"Desktop/DigitalMarketplace/contracts/MarketPlace.sol\":12191:12196  _from */\n      dup5\n        /* \"Desktop/DigitalMarketplace/contracts/MarketPlace.sol\":12198:12201  _to */\n      dup5\n        /* \"Desktop/DigitalMarketplace/contracts/MarketPlace.sol\":12170:12180  buyProduct */\n      tag_67\n        /* \"Desktop/DigitalMarketplace/contracts/MarketPlace.sol\":12170:12202  buyProduct(_tokenId, _from, _to) */\n      jump\t// in\n    tag_311:\n        /* \"Desktop/DigitalMarketplace/contracts/MarketPlace.sol\":12123:12448  if (products[_tokenId].forSale) {\r... */\n      jump(tag_312)\n    tag_310:\n        /* \"Desktop/DigitalMarketplace/contracts/MarketPlace.sol\":12286:12310  ownedNonSellableProducts */\n      0x03\n        /* \"Desktop/DigitalMarketplace/contracts/MarketPlace.sol\":12286:12317  ownedNonSellableProducts[_from] */\n      0x00\n        /* \"Desktop/DigitalMarketplace/contracts/MarketPlace.sol\":12311:12316  _from */\n      dup5\n        /* \"Desktop/DigitalMarketplace/contracts/MarketPlace.sol\":12286:12317  ownedNonSellableProducts[_from] */\n      0xffffffffffffffffffffffffffffffffffffffff\n      and\n      0xffffffffffffffffffffffffffffffffffffffff\n      and\n      dup2\n      mstore\n      0x20\n      add\n      swap1\n      dup2\n      mstore\n      0x20\n      add\n      0x00\n      keccak256\n        /* \"Desktop/DigitalMarketplace/contracts/MarketPlace.sol\":12286:12327  ownedNonSellableProducts[_from][_tokenId] */\n      0x00\n        /* \"Desktop/DigitalMarketplace/contracts/MarketPlace.sol\":12318:12326  _tokenId */\n      dup3\n        /* \"Desktop/DigitalMarketplace/contracts/MarketPlace.sol\":12286:12327  ownedNonSellableProducts[_from][_tokenId] */\n      dup2\n      mstore\n      0x20\n      add\n      swap1\n      dup2\n      mstore\n      0x20\n      add\n      0x00\n      keccak256\n      0x00\n      swap1\n      sload\n      swap1\n      0x0100\n      exp\n      swap1\n      div\n      0xff\n      and\n        /* \"Desktop/DigitalMarketplace/contracts/MarketPlace.sol\":12244:12268  ownedNonSellableProducts */\n      0x03\n        /* \"Desktop/DigitalMarketplace/contracts/MarketPlace.sol\":12244:12273  ownedNonSellableProducts[_to] */\n      0x00\n        /* \"Desktop/DigitalMarketplace/contracts/MarketPlace.sol\":12269:12272  _to */\n      dup5\n        /* \"Desktop/DigitalMarketplace/contracts/MarketPlace.sol\":12244:12273  ownedNonSellableProducts[_to] */\n      0xffffffffffffffffffffffffffffffffffffffff\n      and\n      0xffffffffffffffffffffffffffffffffffffffff\n      and\n      dup2\n      mstore\n      0x20\n      add\n      swap1\n      dup2\n      mstore\n      0x20\n      add\n      0x00\n      keccak256\n        /* \"Desktop/DigitalMarketplace/contracts/MarketPlace.sol\":12244:12283  ownedNonSellableProducts[_to][_tokenId] */\n      0x00\n        /* \"Desktop/DigitalMarketplace/contracts/MarketPlace.sol\":12274:12282  _tokenId */\n      dup4\n        /* \"Desktop/DigitalMarketplace/contracts/MarketPlace.sol\":12244:12283  ownedNonSellableProducts[_to][_tokenId] */\n      dup2\n      mstore\n      0x20\n      add\n      swap1\n      dup2\n      mstore\n      0x20\n      add\n      0x00\n      keccak256\n      0x00\n        /* \"Desktop/DigitalMarketplace/contracts/MarketPlace.sol\":12244:12327  ownedNonSellableProducts[_to][_tokenId] = ownedNonSellableProducts[_from][_tokenId] */\n      0x0100\n      exp\n      dup2\n      sload\n      dup2\n      0xff\n      mul\n      not\n      and\n      swap1\n      dup4\n      iszero\n      iszero\n      mul\n      or\n      swap1\n      sstore\n      pop\n        /* \"Desktop/DigitalMarketplace/contracts/MarketPlace.sol\":12349:12373  ownedNonSellableProducts */\n      0x03\n        /* \"Desktop/DigitalMarketplace/contracts/MarketPlace.sol\":12349:12380  ownedNonSellableProducts[_from] */\n      0x00\n        /* \"Desktop/DigitalMarketplace/contracts/MarketPlace.sol\":12374:12379  _from */\n      dup5\n        /* \"Desktop/DigitalMarketplace/contracts/MarketPlace.sol\":12349:12380  ownedNonSellableProducts[_from] */\n      0xffffffffffffffffffffffffffffffffffffffff\n      and\n      0xffffffffffffffffffffffffffffffffffffffff\n      and\n      dup2\n      mstore\n      0x20\n      add\n      swap1\n      dup2\n      mstore\n      0x20\n      add\n      0x00\n      keccak256\n        /* \"Desktop/DigitalMarketplace/contracts/MarketPlace.sol\":12349:12390  ownedNonSellableProducts[_from][_tokenId] */\n      0x00\n        /* \"Desktop/DigitalMarketplace/contracts/MarketPlace.sol\":12381:12389  _tokenId */\n      dup3\n        /* \"Desktop/DigitalMarketplace/contracts/MarketPlace.sol\":12349:12390  ownedNonSellableProducts[_from][_tokenId] */\n      dup2\n      mstore\n      0x20\n      add\n      swap1\n      dup2\n      mstore\n      0x20\n      add\n      0x00\n      keccak256\n      0x00\n        /* \"Desktop/DigitalMarketplace/contracts/MarketPlace.sol\":12342:12391  delete(ownedNonSellableProducts[_from][_tokenId]) */\n      0x0100\n      exp\n      dup2\n      sload\n      swap1\n      0xff\n      mul\n      not\n      and\n      swap1\n      sstore\n        /* \"Desktop/DigitalMarketplace/contracts/MarketPlace.sol\":12433:12436  _to */\n      dup2\n        /* \"Desktop/DigitalMarketplace/contracts/MarketPlace.sol\":12406:12414  products */\n      0x07\n        /* \"Desktop/DigitalMarketplace/contracts/MarketPlace.sol\":12415:12423  _tokenId */\n      dup3\n        /* \"Desktop/DigitalMarketplace/contracts/MarketPlace.sol\":12406:12424  products[_tokenId] */\n      dup2\n      sload\n      dup2\n      lt\n      tag_313\n      jumpi\n      tag_314\n      tag_166\n      jump\t// in\n    tag_314:\n    tag_313:\n      swap1\n      0x00\n      mstore\n      keccak256(0x00, 0x20)\n      swap1\n      0x07\n      mul\n      add\n        /* \"Desktop/DigitalMarketplace/contracts/MarketPlace.sol\":12406:12430  products[_tokenId].owner */\n      0x01\n      add\n      0x00\n        /* \"Desktop/DigitalMarketplace/contracts/MarketPlace.sol\":12406:12436  products[_tokenId].owner = _to */\n      0x0100\n      exp\n      dup2\n      sload\n      dup2\n      0xffffffffffffffffffffffffffffffffffffffff\n      mul\n      not\n      and\n      swap1\n      dup4\n      0xffffffffffffffffffffffffffffffffffffffff\n      and\n      mul\n      or\n      swap1\n      sstore\n      pop\n        /* \"Desktop/DigitalMarketplace/contracts/MarketPlace.sol\":12123:12448  if (products[_tokenId].forSale) {\r... */\n    tag_312:\n        /* \"Desktop/DigitalMarketplace/contracts/MarketPlace.sol\":11783:12455  function safeTransferFrom(address _from, address _to, uint256 _tokenId) override external payable {\r... */\n      pop\n      pop\n      pop\n      jump\t// out\n        /* \"Desktop/DigitalMarketplace/contracts/MarketPlace.sol\":9654:9860  function ownerOf(uint256 _tokenId) override external view returns (address) {\r... */\n    tag_90:\n        /* \"Desktop/DigitalMarketplace/contracts/MarketPlace.sol\":9721:9728  address */\n      0x00\n        /* \"Desktop/DigitalMarketplace/contracts/MarketPlace.sol\":9785:9786  0 */\n      dup1\n        /* \"Desktop/DigitalMarketplace/contracts/MarketPlace.sol\":9749:9787  products[_tokenId].owner != address(0) */\n      0xffffffffffffffffffffffffffffffffffffffff\n      and\n        /* \"Desktop/DigitalMarketplace/contracts/MarketPlace.sol\":9749:9757  products */\n      0x07\n        /* \"Desktop/DigitalMarketplace/contracts/MarketPlace.sol\":9758:9766  _tokenId */\n      dup4\n        /* \"Desktop/DigitalMarketplace/contracts/MarketPlace.sol\":9749:9767  products[_tokenId] */\n      dup2\n      sload\n      dup2\n      lt\n      tag_317\n      jumpi\n      tag_318\n      tag_166\n      jump\t// in\n    tag_318:\n    tag_317:\n      swap1\n      0x00\n      mstore\n      keccak256(0x00, 0x20)\n      swap1\n      0x07\n      mul\n      add\n        /* \"Desktop/DigitalMarketplace/contracts/MarketPlace.sol\":9749:9773  products[_tokenId].owner */\n      0x01\n      add\n      0x00\n      swap1\n      sload\n      swap1\n      0x0100\n      exp\n      swap1\n      div\n      0xffffffffffffffffffffffffffffffffffffffff\n      and\n        /* \"Desktop/DigitalMarketplace/contracts/MarketPlace.sol\":9749:9787  products[_tokenId].owner != address(0) */\n      0xffffffffffffffffffffffffffffffffffffffff\n      and\n      eq\n      iszero\n        /* \"Desktop/DigitalMarketplace/contracts/MarketPlace.sol\":9741:9810  require(products[_tokenId].owner != address(0), \"Address owner is 0\") */\n      tag_320\n      jumpi\n      mload(0x40)\n      0x08c379a000000000000000000000000000000000000000000000000000000000\n      dup2\n      mstore\n      0x04\n      add\n      tag_321\n      swap1\n      tag_322\n      jump\t// in\n    tag_321:\n      mload(0x40)\n      dup1\n      swap2\n      sub\n      swap1\n      revert\n    tag_320:\n        /* \"Desktop/DigitalMarketplace/contracts/MarketPlace.sol\":9828:9836  products */\n      0x07\n        /* \"Desktop/DigitalMarketplace/contracts/MarketPlace.sol\":9837:9845  _tokenId */\n      dup3\n        /* \"Desktop/DigitalMarketplace/contracts/MarketPlace.sol\":9828:9846  products[_tokenId] */\n      dup2\n      sload\n      dup2\n      lt\n      tag_323\n      jumpi\n      tag_324\n      tag_166\n      jump\t// in\n    tag_324:\n    tag_323:\n      swap1\n      0x00\n      mstore\n      keccak256(0x00, 0x20)\n      swap1\n      0x07\n      mul\n      add\n        /* \"Desktop/DigitalMarketplace/contracts/MarketPlace.sol\":9828:9852  products[_tokenId].owner */\n      0x01\n      add\n      0x00\n      swap1\n      sload\n      swap1\n      0x0100\n      exp\n      swap1\n      div\n      0xffffffffffffffffffffffffffffffffffffffff\n      and\n        /* \"Desktop/DigitalMarketplace/contracts/MarketPlace.sol\":9821:9852  return products[_tokenId].owner */\n      swap1\n      pop\n        /* \"Desktop/DigitalMarketplace/contracts/MarketPlace.sol\":9654:9860  function ownerOf(uint256 _tokenId) override external view returns (address) {\r... */\n      swap2\n      swap1\n      pop\n      jump\t// out\n        /* \"Desktop/DigitalMarketplace/contracts/MarketPlace.sol\":4474:5039  function getAllProductsForSale(uint256 _startIndexForSearch, uint256 _maxResults) external view returns (uint256, Product[] memory) {\r... */\n    tag_95:\n        /* \"Desktop/DigitalMarketplace/contracts/MarketPlace.sol\":4579:4586  uint256 */\n      0x00\n        /* \"Desktop/DigitalMarketplace/contracts/MarketPlace.sol\":4588:4604  Product[] memory */\n      0x60\n        /* \"Desktop/DigitalMarketplace/contracts/MarketPlace.sol\":4617:4649  Product[] memory productsForSale */\n      0x00\n        /* \"Desktop/DigitalMarketplace/contracts/MarketPlace.sol\":4666:4677  _maxResults */\n      dup4\n        /* \"Desktop/DigitalMarketplace/contracts/MarketPlace.sol\":4652:4678  new Product[](_maxResults) */\n      0xffffffffffffffff\n      dup2\n      gt\n      iszero\n      tag_327\n      jumpi\n      tag_328\n      tag_253\n      jump\t// in\n    tag_328:\n    tag_327:\n      mload(0x40)\n      swap1\n      dup1\n      dup3\n      mstore\n      dup1\n      0x20\n      mul\n      0x20\n      add\n      dup3\n      add\n      0x40\n      mstore\n      dup1\n      iszero\n      tag_329\n      jumpi\n      dup2\n      0x20\n      add\n    tag_330:\n      tag_331\n      tag_257\n      jump\t// in\n    tag_331:\n      dup2\n      mstore\n      0x20\n      add\n      swap1\n      0x01\n      swap1\n      sub\n      swap1\n      dup2\n      tag_330\n      jumpi\n      swap1\n      pop\n    tag_329:\n      pop\n        /* \"Desktop/DigitalMarketplace/contracts/MarketPlace.sol\":4617:4678  Product[] memory productsForSale = new Product[](_maxResults) */\n      swap1\n      pop\n        /* \"Desktop/DigitalMarketplace/contracts/MarketPlace.sol\":4689:4716  uint productsForSaleCounter */\n      0x00\n        /* \"Desktop/DigitalMarketplace/contracts/MarketPlace.sol\":4731:4737  uint i */\n      dup1\n        /* \"Desktop/DigitalMarketplace/contracts/MarketPlace.sol\":4757:4777  _startIndexForSearch */\n      dup7\n        /* \"Desktop/DigitalMarketplace/contracts/MarketPlace.sol\":4753:4777  i = _startIndexForSearch */\n      swap1\n      pop\n        /* \"Desktop/DigitalMarketplace/contracts/MarketPlace.sol\":4748:4994  for (i = _startIndexForSearch; i < products.length && productsForSaleCounter < _maxResults; i++) {\r... */\n    tag_332:\n        /* \"Desktop/DigitalMarketplace/contracts/MarketPlace.sol\":4783:4791  products */\n      0x07\n        /* \"Desktop/DigitalMarketplace/contracts/MarketPlace.sol\":4783:4798  products.length */\n      dup1\n      sload\n      swap1\n      pop\n        /* \"Desktop/DigitalMarketplace/contracts/MarketPlace.sol\":4779:4780  i */\n      dup2\n        /* \"Desktop/DigitalMarketplace/contracts/MarketPlace.sol\":4779:4798  i < products.length */\n      lt\n        /* \"Desktop/DigitalMarketplace/contracts/MarketPlace.sol\":4779:4838  i < products.length && productsForSaleCounter < _maxResults */\n      dup1\n      iszero\n      tag_335\n      jumpi\n      pop\n        /* \"Desktop/DigitalMarketplace/contracts/MarketPlace.sol\":4827:4838  _maxResults */\n      dup6\n        /* \"Desktop/DigitalMarketplace/contracts/MarketPlace.sol\":4802:4824  productsForSaleCounter */\n      dup3\n        /* \"Desktop/DigitalMarketplace/contracts/MarketPlace.sol\":4802:4838  productsForSaleCounter < _maxResults */\n      lt\n        /* \"Desktop/DigitalMarketplace/contracts/MarketPlace.sol\":4779:4838  i < products.length && productsForSaleCounter < _maxResults */\n    tag_335:\n        /* \"Desktop/DigitalMarketplace/contracts/MarketPlace.sol\":4748:4994  for (i = _startIndexForSearch; i < products.length && productsForSaleCounter < _maxResults; i++) {\r... */\n      iszero\n      tag_333\n      jumpi\n        /* \"Desktop/DigitalMarketplace/contracts/MarketPlace.sol\":4887:4891  true */\n      0x01\n        /* \"Desktop/DigitalMarketplace/contracts/MarketPlace.sol\":4864:4891  products[i].forSale == true */\n      iszero\n      iszero\n        /* \"Desktop/DigitalMarketplace/contracts/MarketPlace.sol\":4864:4872  products */\n      0x07\n        /* \"Desktop/DigitalMarketplace/contracts/MarketPlace.sol\":4873:4874  i */\n      dup3\n        /* \"Desktop/DigitalMarketplace/contracts/MarketPlace.sol\":4864:4875  products[i] */\n      dup2\n      sload\n      dup2\n      lt\n      tag_336\n      jumpi\n      tag_337\n      tag_166\n      jump\t// in\n    tag_337:\n    tag_336:\n      swap1\n      0x00\n      mstore\n      keccak256(0x00, 0x20)\n      swap1\n      0x07\n      mul\n      add\n        /* \"Desktop/DigitalMarketplace/contracts/MarketPlace.sol\":4864:4883  products[i].forSale */\n      0x06\n      add\n      0x00\n      swap1\n      sload\n      swap1\n      0x0100\n      exp\n      swap1\n      div\n      0xff\n      and\n        /* \"Desktop/DigitalMarketplace/contracts/MarketPlace.sol\":4864:4891  products[i].forSale == true */\n      iszero\n      iszero\n      eq\n        /* \"Desktop/DigitalMarketplace/contracts/MarketPlace.sol\":4860:4983  if (products[i].forSale == true) {\r... */\n      iszero\n      tag_339\n      jumpi\n        /* \"Desktop/DigitalMarketplace/contracts/MarketPlace.sol\":4956:4964  products */\n      0x07\n        /* \"Desktop/DigitalMarketplace/contracts/MarketPlace.sol\":4965:4966  i */\n      dup2\n        /* \"Desktop/DigitalMarketplace/contracts/MarketPlace.sol\":4956:4967  products[i] */\n      dup2\n      sload\n      dup2\n      lt\n      tag_340\n      jumpi\n      tag_341\n      tag_166\n      jump\t// in\n    tag_341:\n    tag_340:\n      swap1\n      0x00\n      mstore\n      keccak256(0x00, 0x20)\n      swap1\n      0x07\n      mul\n      add\n        /* \"Desktop/DigitalMarketplace/contracts/MarketPlace.sol\":4912:4967  productsForSale[productsForSaleCounter++] = products[i] */\n      mload(0x40)\n      dup1\n      0xe0\n      add\n      0x40\n      mstore\n      swap1\n      dup2\n      0x00\n      dup3\n      add\n      sload\n      dup2\n      mstore\n      0x20\n      add\n      0x01\n      dup3\n      add\n      0x00\n      swap1\n      sload\n      swap1\n      0x0100\n      exp\n      swap1\n      div\n      0xffffffffffffffffffffffffffffffffffffffff\n      and\n      0xffffffffffffffffffffffffffffffffffffffff\n      and\n      0xffffffffffffffffffffffffffffffffffffffff\n      and\n      dup2\n      mstore\n      0x20\n      add\n      0x02\n      dup3\n      add\n      dup1\n      sload\n      tag_343\n      swap1\n      tag_270\n      jump\t// in\n    tag_343:\n      dup1\n      0x1f\n      add\n      0x20\n      dup1\n      swap2\n      div\n      mul\n      0x20\n      add\n      mload(0x40)\n      swap1\n      dup2\n      add\n      0x40\n      mstore\n      dup1\n      swap3\n      swap2\n      swap1\n      dup2\n      dup2\n      mstore\n      0x20\n      add\n      dup3\n      dup1\n      sload\n      tag_344\n      swap1\n      tag_270\n      jump\t// in\n    tag_344:\n      dup1\n      iszero\n      tag_345\n      jumpi\n      dup1\n      0x1f\n      lt\n      tag_346\n      jumpi\n      0x0100\n      dup1\n      dup4\n      sload\n      div\n      mul\n      dup4\n      mstore\n      swap2\n      0x20\n      add\n      swap2\n      jump(tag_345)\n    tag_346:\n      dup3\n      add\n      swap2\n      swap1\n      0x00\n      mstore\n      keccak256(0x00, 0x20)\n      swap1\n    tag_347:\n      dup2\n      sload\n      dup2\n      mstore\n      swap1\n      0x01\n      add\n      swap1\n      0x20\n      add\n      dup1\n      dup4\n      gt\n      tag_347\n      jumpi\n      dup3\n      swap1\n      sub\n      0x1f\n      and\n      dup3\n      add\n      swap2\n    tag_345:\n      pop\n      pop\n      pop\n      pop\n      pop\n      dup2\n      mstore\n      0x20\n      add\n      0x03\n      dup3\n      add\n      dup1\n      sload\n      tag_348\n      swap1\n      tag_270\n      jump\t// in\n    tag_348:\n      dup1\n      0x1f\n      add\n      0x20\n      dup1\n      swap2\n      div\n      mul\n      0x20\n      add\n      mload(0x40)\n      swap1\n      dup2\n      add\n      0x40\n      mstore\n      dup1\n      swap3\n      swap2\n      swap1\n      dup2\n      dup2\n      mstore\n      0x20\n      add\n      dup3\n      dup1\n      sload\n      tag_349\n      swap1\n      tag_270\n      jump\t// in\n    tag_349:\n      dup1\n      iszero\n      tag_350\n      jumpi\n      dup1\n      0x1f\n      lt\n      tag_351\n      jumpi\n      0x0100\n      dup1\n      dup4\n      sload\n      div\n      mul\n      dup4\n      mstore\n      swap2\n      0x20\n      add\n      swap2\n      jump(tag_350)\n    tag_351:\n      dup3\n      add\n      swap2\n      swap1\n      0x00\n      mstore\n      keccak256(0x00, 0x20)\n      swap1\n    tag_352:\n      dup2\n      sload\n      dup2\n      mstore\n      swap1\n      0x01\n      add\n      swap1\n      0x20\n      add\n      dup1\n      dup4\n      gt\n      tag_352\n      jumpi\n      dup3\n      swap1\n      sub\n      0x1f\n      and\n      dup3\n      add\n      swap2\n    tag_350:\n      pop\n      pop\n      pop\n      pop\n      pop\n      dup2\n      mstore\n      0x20\n      add\n      0x04\n      dup3\n      add\n      dup1\n      sload\n      tag_353\n      swap1\n      tag_270\n      jump\t// in\n    tag_353:\n      dup1\n      0x1f\n      add\n      0x20\n      dup1\n      swap2\n      div\n      mul\n      0x20\n      add\n      mload(0x40)\n      swap1\n      dup2\n      add\n      0x40\n      mstore\n      dup1\n      swap3\n      swap2\n      swap1\n      dup2\n      dup2\n      mstore\n      0x20\n      add\n      dup3\n      dup1\n      sload\n      tag_354\n      swap1\n      tag_270\n      jump\t// in\n    tag_354:\n      dup1\n      iszero\n      tag_355\n      jumpi\n      dup1\n      0x1f\n      lt\n      tag_356\n      jumpi\n      0x0100\n      dup1\n      dup4\n      sload\n      div\n      mul\n      dup4\n      mstore\n      swap2\n      0x20\n      add\n      swap2\n      jump(tag_355)\n    tag_356:\n      dup3\n      add\n      swap2\n      swap1\n      0x00\n      mstore\n      keccak256(0x00, 0x20)\n      swap1\n    tag_357:\n      dup2\n      sload\n      dup2\n      mstore\n      swap1\n      0x01\n      add\n      swap1\n      0x20\n      add\n      dup1\n      dup4\n      gt\n      tag_357\n      jumpi\n      dup3\n      swap1\n      sub\n      0x1f\n      and\n      dup3\n      add\n      swap2\n    tag_355:\n      pop\n      pop\n      pop\n      pop\n      pop\n      dup2\n      mstore\n      0x20\n      add\n      0x05\n      dup3\n      add\n      dup1\n      sload\n      dup1\n      0x20\n      mul\n      0x20\n      add\n      mload(0x40)\n      swap1\n      dup2\n      add\n      0x40\n      mstore\n      dup1\n      swap3\n      swap2\n      swap1\n      dup2\n      dup2\n      mstore\n      0x20\n      add\n      0x00\n      swap1\n    tag_358:\n      dup3\n      dup3\n      lt\n      iszero\n      tag_359\n      jumpi\n      dup4\n      dup3\n      swap1\n      0x00\n      mstore\n      keccak256(0x00, 0x20)\n      add\n      dup1\n      sload\n      tag_361\n      swap1\n      tag_270\n      jump\t// in\n    tag_361:\n      dup1\n      0x1f\n      add\n      0x20\n      dup1\n      swap2\n      div\n      mul\n      0x20\n      add\n      mload(0x40)\n      swap1\n      dup2\n      add\n      0x40\n      mstore\n      dup1\n      swap3\n      swap2\n      swap1\n      dup2\n      dup2\n      mstore\n      0x20\n      add\n      dup3\n      dup1\n      sload\n      tag_362\n      swap1\n      tag_270\n      jump\t// in\n    tag_362:\n      dup1\n      iszero\n      tag_363\n      jumpi\n      dup1\n      0x1f\n      lt\n      tag_364\n      jumpi\n      0x0100\n      dup1\n      dup4\n      sload\n      div\n      mul\n      dup4\n      mstore\n      swap2\n      0x20\n      add\n      swap2\n      jump(tag_363)\n    tag_364:\n      dup3\n      add\n      swap2\n      swap1\n      0x00\n      mstore\n      keccak256(0x00, 0x20)\n      swap1\n    tag_365:\n      dup2\n      sload\n      dup2\n      mstore\n      swap1\n      0x01\n      add\n      swap1\n      0x20\n      add\n      dup1\n      dup4\n      gt\n      tag_365\n      jumpi\n      dup3\n      swap1\n      sub\n      0x1f\n      and\n      dup3\n      add\n      swap2\n    tag_363:\n      pop\n      pop\n      pop\n      pop\n      pop\n      dup2\n      mstore\n      0x20\n      add\n      swap1\n      0x01\n      add\n      swap1\n      jump(tag_358)\n    tag_359:\n      pop\n      pop\n      pop\n      pop\n      dup2\n      mstore\n      0x20\n      add\n      0x06\n      dup3\n      add\n      0x00\n      swap1\n      sload\n      swap1\n      0x0100\n      exp\n      swap1\n      div\n      0xff\n      and\n      iszero\n      iszero\n      iszero\n      iszero\n      dup2\n      mstore\n      pop\n      pop\n        /* \"Desktop/DigitalMarketplace/contracts/MarketPlace.sol\":4912:4927  productsForSale */\n      dup4\n        /* \"Desktop/DigitalMarketplace/contracts/MarketPlace.sol\":4928:4952  productsForSaleCounter++ */\n      dup4\n      dup1\n      tag_366\n      swap1\n      tag_171\n      jump\t// in\n    tag_366:\n      swap5\n      pop\n        /* \"Desktop/DigitalMarketplace/contracts/MarketPlace.sol\":4912:4953  productsForSale[productsForSaleCounter++] */\n      dup2\n      mload\n      dup2\n      lt\n      tag_367\n      jumpi\n      tag_368\n      tag_166\n      jump\t// in\n    tag_368:\n    tag_367:\n      0x20\n      mul\n      0x20\n      add\n      add\n        /* \"Desktop/DigitalMarketplace/contracts/MarketPlace.sol\":4912:4967  productsForSale[productsForSaleCounter++] = products[i] */\n      dup2\n      swap1\n      mstore\n      pop\n        /* \"Desktop/DigitalMarketplace/contracts/MarketPlace.sol\":4860:4983  if (products[i].forSale == true) {\r... */\n    tag_339:\n        /* \"Desktop/DigitalMarketplace/contracts/MarketPlace.sol\":4840:4843  i++ */\n      dup1\n      dup1\n      tag_369\n      swap1\n      tag_171\n      jump\t// in\n    tag_369:\n      swap2\n      pop\n      pop\n        /* \"Desktop/DigitalMarketplace/contracts/MarketPlace.sol\":4748:4994  for (i = _startIndexForSearch; i < products.length && productsForSaleCounter < _maxResults; i++) {\r... */\n      jump(tag_332)\n    tag_333:\n        /* \"Desktop/DigitalMarketplace/contracts/MarketPlace.sol\":5012:5013  i */\n      dup1\n        /* \"Desktop/DigitalMarketplace/contracts/MarketPlace.sol\":5015:5030  productsForSale */\n      dup4\n        /* \"Desktop/DigitalMarketplace/contracts/MarketPlace.sol\":5004:5031  return (i, productsForSale) */\n      swap5\n      pop\n      swap5\n      pop\n      pop\n      pop\n      pop\n        /* \"Desktop/DigitalMarketplace/contracts/MarketPlace.sol\":4474:5039  function getAllProductsForSale(uint256 _startIndexForSearch, uint256 _maxResults) external view returns (uint256, Product[] memory) {\r... */\n      swap3\n      pop\n      swap3\n      swap1\n      pop\n      jump\t// out\n        /* \"Desktop/DigitalMarketplace/contracts/MarketPlace.sol\":9073:9389  function balanceOf(address _owner) override external view returns (uint256) {\r... */\n    tag_101:\n        /* \"Desktop/DigitalMarketplace/contracts/MarketPlace.sol\":9140:9147  uint256 */\n      0x00\n        /* \"Desktop/DigitalMarketplace/contracts/MarketPlace.sol\":9186:9187  0 */\n      dup1\n        /* \"Desktop/DigitalMarketplace/contracts/MarketPlace.sol\":9168:9188  _owner != address(0) */\n      0xffffffffffffffffffffffffffffffffffffffff\n      and\n        /* \"Desktop/DigitalMarketplace/contracts/MarketPlace.sol\":9168:9174  _owner */\n      dup3\n        /* \"Desktop/DigitalMarketplace/contracts/MarketPlace.sol\":9168:9188  _owner != address(0) */\n      0xffffffffffffffffffffffffffffffffffffffff\n      and\n      eq\n      iszero\n        /* \"Desktop/DigitalMarketplace/contracts/MarketPlace.sol\":9160:9214  require(_owner != address(0), \"Address must not be 0\") */\n      tag_371\n      jumpi\n      mload(0x40)\n      0x08c379a000000000000000000000000000000000000000000000000000000000\n      dup2\n      mstore\n      0x04\n      add\n      tag_372\n      swap1\n      tag_373\n      jump\t// in\n    tag_372:\n      mload(0x40)\n      dup1\n      swap2\n      sub\n      swap1\n      revert\n    tag_371:\n        /* \"Desktop/DigitalMarketplace/contracts/MarketPlace.sol\":9225:9235  uint count */\n      0x00\n        /* \"Desktop/DigitalMarketplace/contracts/MarketPlace.sol\":9255:9261  uint i */\n      dup1\n        /* \"Desktop/DigitalMarketplace/contracts/MarketPlace.sol\":9250:9359  for (uint i = 0; i < products.length; i++) {\r... */\n    tag_374:\n        /* \"Desktop/DigitalMarketplace/contracts/MarketPlace.sol\":9271:9279  products */\n      0x07\n        /* \"Desktop/DigitalMarketplace/contracts/MarketPlace.sol\":9271:9286  products.length */\n      dup1\n      sload\n      swap1\n      pop\n        /* \"Desktop/DigitalMarketplace/contracts/MarketPlace.sol\":9267:9268  i */\n      dup2\n        /* \"Desktop/DigitalMarketplace/contracts/MarketPlace.sol\":9267:9286  i < products.length */\n      lt\n        /* \"Desktop/DigitalMarketplace/contracts/MarketPlace.sol\":9250:9359  for (uint i = 0; i < products.length; i++) {\r... */\n      iszero\n      tag_375\n      jumpi\n        /* \"Desktop/DigitalMarketplace/contracts/MarketPlace.sol\":9332:9338  _owner */\n      dup4\n        /* \"Desktop/DigitalMarketplace/contracts/MarketPlace.sol\":9311:9338  products[i].owner == _owner */\n      0xffffffffffffffffffffffffffffffffffffffff\n      and\n        /* \"Desktop/DigitalMarketplace/contracts/MarketPlace.sol\":9311:9319  products */\n      0x07\n        /* \"Desktop/DigitalMarketplace/contracts/MarketPlace.sol\":9320:9321  i */\n      dup3\n        /* \"Desktop/DigitalMarketplace/contracts/MarketPlace.sol\":9311:9322  products[i] */\n      dup2\n      sload\n      dup2\n      lt\n      tag_377\n      jumpi\n      tag_378\n      tag_166\n      jump\t// in\n    tag_378:\n    tag_377:\n      swap1\n      0x00\n      mstore\n      keccak256(0x00, 0x20)\n      swap1\n      0x07\n      mul\n      add\n        /* \"Desktop/DigitalMarketplace/contracts/MarketPlace.sol\":9311:9328  products[i].owner */\n      0x01\n      add\n      0x00\n      swap1\n      sload\n      swap1\n      0x0100\n      exp\n      swap1\n      div\n      0xffffffffffffffffffffffffffffffffffffffff\n      and\n        /* \"Desktop/DigitalMarketplace/contracts/MarketPlace.sol\":9311:9338  products[i].owner == _owner */\n      0xffffffffffffffffffffffffffffffffffffffff\n      and\n      eq\n        /* \"Desktop/DigitalMarketplace/contracts/MarketPlace.sol\":9308:9347  if(products[i].owner == _owner) count++ */\n      iszero\n      tag_380\n      jumpi\n        /* \"Desktop/DigitalMarketplace/contracts/MarketPlace.sol\":9340:9347  count++ */\n      dup2\n      dup1\n      tag_381\n      swap1\n      tag_171\n      jump\t// in\n    tag_381:\n      swap3\n      pop\n      pop\n        /* \"Desktop/DigitalMarketplace/contracts/MarketPlace.sol\":9308:9347  if(products[i].owner == _owner) count++ */\n    tag_380:\n        /* \"Desktop/DigitalMarketplace/contracts/MarketPlace.sol\":9288:9291  i++ */\n      dup1\n      dup1\n      tag_382\n      swap1\n      tag_171\n      jump\t// in\n    tag_382:\n      swap2\n      pop\n      pop\n        /* \"Desktop/DigitalMarketplace/contracts/MarketPlace.sol\":9250:9359  for (uint i = 0; i < products.length; i++) {\r... */\n      jump(tag_374)\n    tag_375:\n      pop\n        /* \"Desktop/DigitalMarketplace/contracts/MarketPlace.sol\":9376:9381  count */\n      dup1\n        /* \"Desktop/DigitalMarketplace/contracts/MarketPlace.sol\":9369:9381  return count */\n      swap2\n      pop\n      pop\n        /* \"Desktop/DigitalMarketplace/contracts/MarketPlace.sol\":9073:9389  function balanceOf(address _owner) override external view returns (uint256) {\r... */\n      swap2\n      swap1\n      pop\n      jump\t// out\n        /* \"Desktop/DigitalMarketplace/contracts/Ownable.sol\":1722:1825  function renounceOwnership() public virtual onlyOwner {\r... */\n    tag_106:\n        /* \"Desktop/DigitalMarketplace/contracts/Ownable.sol\":1302:1314  _msgSender() */\n      tag_384\n        /* \"Desktop/DigitalMarketplace/contracts/Ownable.sol\":1302:1312  _msgSender */\n      tag_236\n        /* \"Desktop/DigitalMarketplace/contracts/Ownable.sol\":1302:1314  _msgSender() */\n      jump\t// in\n    tag_384:\n        /* \"Desktop/DigitalMarketplace/contracts/Ownable.sol\":1291:1314  owner() == _msgSender() */\n      0xffffffffffffffffffffffffffffffffffffffff\n      and\n        /* \"Desktop/DigitalMarketplace/contracts/Ownable.sol\":1291:1298  owner() */\n      tag_385\n        /* \"Desktop/DigitalMarketplace/contracts/Ownable.sol\":1291:1296  owner */\n      tag_109\n        /* \"Desktop/DigitalMarketplace/contracts/Ownable.sol\":1291:1298  owner() */\n      jump\t// in\n    tag_385:\n        /* \"Desktop/DigitalMarketplace/contracts/Ownable.sol\":1291:1314  owner() == _msgSender() */\n      0xffffffffffffffffffffffffffffffffffffffff\n      and\n      eq\n        /* \"Desktop/DigitalMarketplace/contracts/Ownable.sol\":1283:1351  require(owner() == _msgSender(), \"Ownable: caller is not the owner\") */\n      tag_386\n      jumpi\n      mload(0x40)\n      0x08c379a000000000000000000000000000000000000000000000000000000000\n      dup2\n      mstore\n      0x04\n      add\n      tag_387\n      swap1\n      tag_240\n      jump\t// in\n    tag_387:\n      mload(0x40)\n      dup1\n      swap2\n      sub\n      swap1\n      revert\n    tag_386:\n        /* \"Desktop/DigitalMarketplace/contracts/Ownable.sol\":1787:1817  _transferOwnership(address(0)) */\n      tag_389\n        /* \"Desktop/DigitalMarketplace/contracts/Ownable.sol\":1814:1815  0 */\n      0x00\n        /* \"Desktop/DigitalMarketplace/contracts/Ownable.sol\":1787:1805  _transferOwnership */\n      tag_390\n        /* \"Desktop/DigitalMarketplace/contracts/Ownable.sol\":1787:1817  _transferOwnership(address(0)) */\n      jump\t// in\n    tag_389:\n        /* \"Desktop/DigitalMarketplace/contracts/Ownable.sol\":1722:1825  function renounceOwnership() public virtual onlyOwner {\r... */\n      jump\t// out\n        /* \"Desktop/DigitalMarketplace/contracts/Ownable.sol\":1071:1158  function owner() public view virtual returns (address) {\r... */\n    tag_109:\n        /* \"Desktop/DigitalMarketplace/contracts/Ownable.sol\":1117:1124  address */\n      0x00\n        /* \"Desktop/DigitalMarketplace/contracts/Ownable.sol\":1144:1150  _owner */\n      dup1\n      0x00\n      swap1\n      sload\n      swap1\n      0x0100\n      exp\n      swap1\n      div\n      0xffffffffffffffffffffffffffffffffffffffff\n      and\n        /* \"Desktop/DigitalMarketplace/contracts/Ownable.sol\":1137:1150  return _owner */\n      swap1\n      pop\n        /* \"Desktop/DigitalMarketplace/contracts/Ownable.sol\":1071:1158  function owner() public view virtual returns (address) {\r... */\n      swap1\n      jump\t// out\n        /* \"Desktop/DigitalMarketplace/contracts/MarketPlace.sol\":5047:6763  function filterSellingProducts(string memory _partialTitle, string memory _category, address _owner, uint256 _date, uint256 _startIndexForSearch, uint256 _maxResults) external view returns (uint256, Product[] memory) {\r... */\n    tag_115:\n        /* \"Desktop/DigitalMarketplace/contracts/MarketPlace.sol\":5237:5244  uint256 */\n      0x00\n        /* \"Desktop/DigitalMarketplace/contracts/MarketPlace.sol\":5246:5262  Product[] memory */\n      0x60\n        /* \"Desktop/DigitalMarketplace/contracts/MarketPlace.sol\":5275:5307  Product[] memory productsForSale */\n      0x00\n        /* \"Desktop/DigitalMarketplace/contracts/MarketPlace.sol\":5324:5332  products */\n      0x07\n        /* \"Desktop/DigitalMarketplace/contracts/MarketPlace.sol\":5324:5339  products.length */\n      dup1\n      sload\n      swap1\n      pop\n        /* \"Desktop/DigitalMarketplace/contracts/MarketPlace.sol\":5310:5340  new Product[](products.length) */\n      0xffffffffffffffff\n      dup2\n      gt\n      iszero\n      tag_393\n      jumpi\n      tag_394\n      tag_253\n      jump\t// in\n    tag_394:\n    tag_393:\n      mload(0x40)\n      swap1\n      dup1\n      dup3\n      mstore\n      dup1\n      0x20\n      mul\n      0x20\n      add\n      dup3\n      add\n      0x40\n      mstore\n      dup1\n      iszero\n      tag_395\n      jumpi\n      dup2\n      0x20\n      add\n    tag_396:\n      tag_397\n      tag_257\n      jump\t// in\n    tag_397:\n      dup2\n      mstore\n      0x20\n      add\n      swap1\n      0x01\n      swap1\n      sub\n      swap1\n      dup2\n      tag_396\n      jumpi\n      swap1\n      pop\n    tag_395:\n      pop\n        /* \"Desktop/DigitalMarketplace/contracts/MarketPlace.sol\":5275:5340  Product[] memory productsForSale = new Product[](products.length) */\n      swap1\n      pop\n        /* \"Desktop/DigitalMarketplace/contracts/MarketPlace.sol\":5351:5378  uint productsForSaleCounter */\n      0x00\n        /* \"Desktop/DigitalMarketplace/contracts/MarketPlace.sol\":5393:5399  uint i */\n      dup1\n        /* \"Desktop/DigitalMarketplace/contracts/MarketPlace.sol\":5419:5439  _startIndexForSearch */\n      dup7\n        /* \"Desktop/DigitalMarketplace/contracts/MarketPlace.sol\":5415:5439  i = _startIndexForSearch */\n      swap1\n      pop\n        /* \"Desktop/DigitalMarketplace/contracts/MarketPlace.sol\":5410:6718  for (i = _startIndexForSearch; i < products.length && productsForSaleCounter < _maxResults; i++) {\r... */\n    tag_398:\n        /* \"Desktop/DigitalMarketplace/contracts/MarketPlace.sol\":5445:5453  products */\n      0x07\n        /* \"Desktop/DigitalMarketplace/contracts/MarketPlace.sol\":5445:5460  products.length */\n      dup1\n      sload\n      swap1\n      pop\n        /* \"Desktop/DigitalMarketplace/contracts/MarketPlace.sol\":5441:5442  i */\n      dup2\n        /* \"Desktop/DigitalMarketplace/contracts/MarketPlace.sol\":5441:5460  i < products.length */\n      lt\n        /* \"Desktop/DigitalMarketplace/contracts/MarketPlace.sol\":5441:5500  i < products.length && productsForSaleCounter < _maxResults */\n      dup1\n      iszero\n      tag_401\n      jumpi\n      pop\n        /* \"Desktop/DigitalMarketplace/contracts/MarketPlace.sol\":5489:5500  _maxResults */\n      dup6\n        /* \"Desktop/DigitalMarketplace/contracts/MarketPlace.sol\":5464:5486  productsForSaleCounter */\n      dup3\n        /* \"Desktop/DigitalMarketplace/contracts/MarketPlace.sol\":5464:5500  productsForSaleCounter < _maxResults */\n      lt\n        /* \"Desktop/DigitalMarketplace/contracts/MarketPlace.sol\":5441:5500  i < products.length && productsForSaleCounter < _maxResults */\n    tag_401:\n        /* \"Desktop/DigitalMarketplace/contracts/MarketPlace.sol\":5410:6718  for (i = _startIndexForSearch; i < products.length && productsForSaleCounter < _maxResults; i++) {\r... */\n      iszero\n      tag_399\n      jumpi\n        /* \"Desktop/DigitalMarketplace/contracts/MarketPlace.sol\":5527:5535  products */\n      0x07\n        /* \"Desktop/DigitalMarketplace/contracts/MarketPlace.sol\":5536:5537  i */\n      dup2\n        /* \"Desktop/DigitalMarketplace/contracts/MarketPlace.sol\":5527:5538  products[i] */\n      dup2\n      sload\n      dup2\n      lt\n      tag_402\n      jumpi\n      tag_403\n      tag_166\n      jump\t// in\n    tag_403:\n    tag_402:\n      swap1\n      0x00\n      mstore\n      keccak256(0x00, 0x20)\n      swap1\n      0x07\n      mul\n      add\n        /* \"Desktop/DigitalMarketplace/contracts/MarketPlace.sol\":5527:5546  products[i].forSale */\n      0x06\n      add\n      0x00\n      swap1\n      sload\n      swap1\n      0x0100\n      exp\n      swap1\n      div\n      0xff\n      and\n        /* \"Desktop/DigitalMarketplace/contracts/MarketPlace.sol\":5522:5591  if (!products[i].forSale) {\r... */\n      tag_405\n      jumpi\n        /* \"Desktop/DigitalMarketplace/contracts/MarketPlace.sol\":5567:5575  continue */\n      jump(tag_400)\n        /* \"Desktop/DigitalMarketplace/contracts/MarketPlace.sol\":5522:5591  if (!products[i].forSale) {\r... */\n    tag_405:\n        /* \"Desktop/DigitalMarketplace/contracts/MarketPlace.sol\":5605:5617  bool isValid */\n      0x00\n        /* \"Desktop/DigitalMarketplace/contracts/MarketPlace.sol\":5620:5624  true */\n      0x01\n        /* \"Desktop/DigitalMarketplace/contracts/MarketPlace.sol\":5605:5624  bool isValid = true */\n      swap1\n      pop\n        /* \"Desktop/DigitalMarketplace/contracts/MarketPlace.sol\":5639:5659  bytes32 categoryHash */\n      0x00\n        /* \"Desktop/DigitalMarketplace/contracts/MarketPlace.sol\":5689:5698  _category */\n      dup12\n        /* \"Desktop/DigitalMarketplace/contracts/MarketPlace.sol\":5672:5699  abi.encodePacked(_category) */\n      add(0x20, mload(0x40))\n      tag_406\n      swap2\n      swap1\n      tag_407\n      jump\t// in\n    tag_406:\n      mload(0x40)\n      0x20\n      dup2\n      dup4\n      sub\n      sub\n      dup2\n      mstore\n      swap1\n      0x40\n      mstore\n        /* \"Desktop/DigitalMarketplace/contracts/MarketPlace.sol\":5662:5700  keccak256(abi.encodePacked(_category)) */\n      dup1\n      mload\n      swap1\n      0x20\n      add\n      keccak256\n        /* \"Desktop/DigitalMarketplace/contracts/MarketPlace.sol\":5639:5700  bytes32 categoryHash = keccak256(abi.encodePacked(_category)) */\n      swap1\n      pop\n        /* \"Desktop/DigitalMarketplace/contracts/MarketPlace.sol\":5745:5765  abi.encodePacked(\"\") */\n      add(0x20, mload(0x40))\n      tag_408\n      swap1\n      tag_409\n      jump\t// in\n    tag_408:\n      mload(0x40)\n      0x20\n      dup2\n      dup4\n      sub\n      sub\n      dup2\n      mstore\n      swap1\n      0x40\n      mstore\n        /* \"Desktop/DigitalMarketplace/contracts/MarketPlace.sol\":5735:5766  keccak256(abi.encodePacked(\"\")) */\n      dup1\n      mload\n      swap1\n      0x20\n      add\n      keccak256\n        /* \"Desktop/DigitalMarketplace/contracts/MarketPlace.sol\":5719:5731  categoryHash */\n      dup2\n        /* \"Desktop/DigitalMarketplace/contracts/MarketPlace.sol\":5719:5766  categoryHash != keccak256(abi.encodePacked(\"\")) */\n      eq\n        /* \"Desktop/DigitalMarketplace/contracts/MarketPlace.sol\":5715:6173  if (categoryHash != keccak256(abi.encodePacked(\"\"))) {\r... */\n      tag_410\n      jumpi\n        /* \"Desktop/DigitalMarketplace/contracts/MarketPlace.sol\":5787:5807  string[] memory tags */\n      0x00\n        /* \"Desktop/DigitalMarketplace/contracts/MarketPlace.sol\":5810:5818  products */\n      0x07\n        /* \"Desktop/DigitalMarketplace/contracts/MarketPlace.sol\":5819:5820  i */\n      dup5\n        /* \"Desktop/DigitalMarketplace/contracts/MarketPlace.sol\":5810:5821  products[i] */\n      dup2\n      sload\n      dup2\n      lt\n      tag_411\n      jumpi\n      tag_412\n      tag_166\n      jump\t// in\n    tag_412:\n    tag_411:\n      swap1\n      0x00\n      mstore\n      keccak256(0x00, 0x20)\n      swap1\n      0x07\n      mul\n      add\n        /* \"Desktop/DigitalMarketplace/contracts/MarketPlace.sol\":5810:5826  products[i].tags */\n      0x05\n      add\n        /* \"Desktop/DigitalMarketplace/contracts/MarketPlace.sol\":5787:5826  string[] memory tags = products[i].tags */\n      dup1\n      sload\n      dup1\n      0x20\n      mul\n      0x20\n      add\n      mload(0x40)\n      swap1\n      dup2\n      add\n      0x40\n      mstore\n      dup1\n      swap3\n      swap2\n      swap1\n      dup2\n      dup2\n      mstore\n      0x20\n      add\n      0x00\n      swap1\n    tag_414:\n      dup3\n      dup3\n      lt\n      iszero\n      tag_415\n      jumpi\n      dup4\n      dup3\n      swap1\n      0x00\n      mstore\n      keccak256(0x00, 0x20)\n      add\n      dup1\n      sload\n      tag_417\n      swap1\n      tag_270\n      jump\t// in\n    tag_417:\n      dup1\n      0x1f\n      add\n      0x20\n      dup1\n      swap2\n      div\n      mul\n      0x20\n      add\n      mload(0x40)\n      swap1\n      dup2\n      add\n      0x40\n      mstore\n      dup1\n      swap3\n      swap2\n      swap1\n      dup2\n      dup2\n      mstore\n      0x20\n      add\n      dup3\n      dup1\n      sload\n      tag_418\n      swap1\n      tag_270\n      jump\t// in\n    tag_418:\n      dup1\n      iszero\n      tag_419\n      jumpi\n      dup1\n      0x1f\n      lt\n      tag_420\n      jumpi\n      0x0100\n      dup1\n      dup4\n      sload\n      div\n      mul\n      dup4\n      mstore\n      swap2\n      0x20\n      add\n      swap2\n      jump(tag_419)\n    tag_420:\n      dup3\n      add\n      swap2\n      swap1\n      0x00\n      mstore\n      keccak256(0x00, 0x20)\n      swap1\n    tag_421:\n      dup2\n      sload\n      dup2\n      mstore\n      swap1\n      0x01\n      add\n      swap1\n      0x20\n      add\n      dup1\n      dup4\n      gt\n      tag_421\n      jumpi\n      dup3\n      swap1\n      sub\n      0x1f\n      and\n      dup3\n      add\n      swap2\n    tag_419:\n      pop\n      pop\n      pop\n      pop\n      pop\n      dup2\n      mstore\n      0x20\n      add\n      swap1\n      0x01\n      add\n      swap1\n      jump(tag_414)\n    tag_415:\n      pop\n      pop\n      pop\n      pop\n      swap1\n      pop\n        /* \"Desktop/DigitalMarketplace/contracts/MarketPlace.sol\":5845:5851  uint j */\n      0x00\n        /* \"Desktop/DigitalMarketplace/contracts/MarketPlace.sol\":5870:6060  for (j = 0; j < tags.length; j++) {\r... */\n    tag_422:\n        /* \"Desktop/DigitalMarketplace/contracts/MarketPlace.sol\":5886:5890  tags */\n      dup2\n        /* \"Desktop/DigitalMarketplace/contracts/MarketPlace.sol\":5886:5897  tags.length */\n      mload\n        /* \"Desktop/DigitalMarketplace/contracts/MarketPlace.sol\":5882:5883  j */\n      dup2\n        /* \"Desktop/DigitalMarketplace/contracts/MarketPlace.sol\":5882:5897  j < tags.length */\n      lt\n        /* \"Desktop/DigitalMarketplace/contracts/MarketPlace.sol\":5870:6060  for (j = 0; j < tags.length; j++) {\r... */\n      iszero\n      tag_423\n      jumpi\n        /* \"Desktop/DigitalMarketplace/contracts/MarketPlace.sol\":5974:5978  tags */\n      dup2\n        /* \"Desktop/DigitalMarketplace/contracts/MarketPlace.sol\":5979:5980  j */\n      dup2\n        /* \"Desktop/DigitalMarketplace/contracts/MarketPlace.sol\":5974:5981  tags[j] */\n      dup2\n      mload\n      dup2\n      lt\n      tag_425\n      jumpi\n      tag_426\n      tag_166\n      jump\t// in\n    tag_426:\n    tag_425:\n      0x20\n      mul\n      0x20\n      add\n      add\n      mload\n        /* \"Desktop/DigitalMarketplace/contracts/MarketPlace.sol\":5957:5982  abi.encodePacked(tags[j]) */\n      add(0x20, mload(0x40))\n      tag_427\n      swap2\n      swap1\n      tag_407\n      jump\t// in\n    tag_427:\n      mload(0x40)\n      0x20\n      dup2\n      dup4\n      sub\n      sub\n      dup2\n      mstore\n      swap1\n      0x40\n      mstore\n        /* \"Desktop/DigitalMarketplace/contracts/MarketPlace.sol\":5947:5983  keccak256(abi.encodePacked(tags[j])) */\n      dup1\n      mload\n      swap1\n      0x20\n      add\n      keccak256\n        /* \"Desktop/DigitalMarketplace/contracts/MarketPlace.sol\":5931:5943  categoryHash */\n      dup4\n        /* \"Desktop/DigitalMarketplace/contracts/MarketPlace.sol\":5931:5983  categoryHash == keccak256(abi.encodePacked(tags[j])) */\n      eq\n        /* \"Desktop/DigitalMarketplace/contracts/MarketPlace.sol\":5927:6041  if (categoryHash == keccak256(abi.encodePacked(tags[j]))) {\r... */\n      iszero\n      tag_428\n      jumpi\n        /* \"Desktop/DigitalMarketplace/contracts/MarketPlace.sol\":6012:6017  break */\n      jump(tag_423)\n        /* \"Desktop/DigitalMarketplace/contracts/MarketPlace.sol\":5927:6041  if (categoryHash == keccak256(abi.encodePacked(tags[j]))) {\r... */\n    tag_428:\n        /* \"Desktop/DigitalMarketplace/contracts/MarketPlace.sol\":5899:5902  j++ */\n      dup1\n      dup1\n      tag_429\n      swap1\n      tag_171\n      jump\t// in\n    tag_429:\n      swap2\n      pop\n      pop\n        /* \"Desktop/DigitalMarketplace/contracts/MarketPlace.sol\":5870:6060  for (j = 0; j < tags.length; j++) {\r... */\n      jump(tag_422)\n    tag_423:\n        /* \"Desktop/DigitalMarketplace/contracts/MarketPlace.sol\":6087:6091  tags */\n      dup2\n        /* \"Desktop/DigitalMarketplace/contracts/MarketPlace.sol\":6087:6098  tags.length */\n      mload\n        /* \"Desktop/DigitalMarketplace/contracts/MarketPlace.sol\":6082:6083  j */\n      dup2\n        /* \"Desktop/DigitalMarketplace/contracts/MarketPlace.sol\":6082:6098  j >= tags.length */\n      lt\n        /* \"Desktop/DigitalMarketplace/contracts/MarketPlace.sol\":6078:6158  if (j >= tags.length) {\r... */\n      tag_430\n      jumpi\n        /* \"Desktop/DigitalMarketplace/contracts/MarketPlace.sol\":6133:6138  false */\n      0x00\n        /* \"Desktop/DigitalMarketplace/contracts/MarketPlace.sol\":6123:6138  isValid = false */\n      swap4\n      pop\n        /* \"Desktop/DigitalMarketplace/contracts/MarketPlace.sol\":6078:6158  if (j >= tags.length) {\r... */\n    tag_430:\n        /* \"Desktop/DigitalMarketplace/contracts/MarketPlace.sol\":5768:6173  {\r... */\n      pop\n      pop\n        /* \"Desktop/DigitalMarketplace/contracts/MarketPlace.sol\":5715:6173  if (categoryHash != keccak256(abi.encodePacked(\"\"))) {\r... */\n    tag_410:\n        /* \"Desktop/DigitalMarketplace/contracts/MarketPlace.sol\":6193:6200  isValid */\n      dup2\n        /* \"Desktop/DigitalMarketplace/contracts/MarketPlace.sol\":6193:6274  isValid &&\r... */\n      dup1\n      iszero\n      tag_431\n      jumpi\n      pop\n        /* \"Desktop/DigitalMarketplace/contracts/MarketPlace.sol\":6240:6241  0 */\n      0x00\n        /* \"Desktop/DigitalMarketplace/contracts/MarketPlace.sol\":6222:6242  _owner != address(0) */\n      0xffffffffffffffffffffffffffffffffffffffff\n      and\n        /* \"Desktop/DigitalMarketplace/contracts/MarketPlace.sol\":6222:6228  _owner */\n      dup12\n        /* \"Desktop/DigitalMarketplace/contracts/MarketPlace.sol\":6222:6242  _owner != address(0) */\n      0xffffffffffffffffffffffffffffffffffffffff\n      and\n      eq\n      iszero\n        /* \"Desktop/DigitalMarketplace/contracts/MarketPlace.sol\":6222:6273  _owner != address(0) || _owner == products[i].owner */\n      dup1\n      tag_432\n      jumpi\n      pop\n        /* \"Desktop/DigitalMarketplace/contracts/MarketPlace.sol\":6256:6264  products */\n      0x07\n        /* \"Desktop/DigitalMarketplace/contracts/MarketPlace.sol\":6265:6266  i */\n      dup4\n        /* \"Desktop/DigitalMarketplace/contracts/MarketPlace.sol\":6256:6267  products[i] */\n      dup2\n      sload\n      dup2\n      lt\n      tag_433\n      jumpi\n      tag_434\n      tag_166\n      jump\t// in\n    tag_434:\n    tag_433:\n      swap1\n      0x00\n      mstore\n      keccak256(0x00, 0x20)\n      swap1\n      0x07\n      mul\n      add\n        /* \"Desktop/DigitalMarketplace/contracts/MarketPlace.sol\":6256:6273  products[i].owner */\n      0x01\n      add\n      0x00\n      swap1\n      sload\n      swap1\n      0x0100\n      exp\n      swap1\n      div\n      0xffffffffffffffffffffffffffffffffffffffff\n      and\n        /* \"Desktop/DigitalMarketplace/contracts/MarketPlace.sol\":6246:6273  _owner == products[i].owner */\n      0xffffffffffffffffffffffffffffffffffffffff\n      and\n        /* \"Desktop/DigitalMarketplace/contracts/MarketPlace.sol\":6246:6252  _owner */\n      dup12\n        /* \"Desktop/DigitalMarketplace/contracts/MarketPlace.sol\":6246:6273  _owner == products[i].owner */\n      0xffffffffffffffffffffffffffffffffffffffff\n      and\n      eq\n        /* \"Desktop/DigitalMarketplace/contracts/MarketPlace.sol\":6222:6273  _owner != address(0) || _owner == products[i].owner */\n    tag_432:\n        /* \"Desktop/DigitalMarketplace/contracts/MarketPlace.sol\":6193:6274  isValid &&\r... */\n    tag_431:\n        /* \"Desktop/DigitalMarketplace/contracts/MarketPlace.sol\":6193:6372  isValid &&\r... */\n      dup1\n      iszero\n      tag_436\n      jumpi\n      pop\n        /* \"Desktop/DigitalMarketplace/contracts/MarketPlace.sol\":6305:6306  0 */\n      0x00\n        /* \"Desktop/DigitalMarketplace/contracts/MarketPlace.sol\":6296:6301  _date */\n      dup11\n        /* \"Desktop/DigitalMarketplace/contracts/MarketPlace.sol\":6296:6306  _date != 0 */\n      eq\n      iszero\n        /* \"Desktop/DigitalMarketplace/contracts/MarketPlace.sol\":6296:6371  _date != 0 || _date <= ownedSellableProducts[products[i].owner][i].datetime */\n      dup1\n      tag_437\n      jumpi\n      pop\n        /* \"Desktop/DigitalMarketplace/contracts/MarketPlace.sol\":6319:6340  ownedSellableProducts */\n      0x02\n        /* \"Desktop/DigitalMarketplace/contracts/MarketPlace.sol\":6319:6359  ownedSellableProducts[products[i].owner] */\n      0x00\n        /* \"Desktop/DigitalMarketplace/contracts/MarketPlace.sol\":6341:6349  products */\n      0x07\n        /* \"Desktop/DigitalMarketplace/contracts/MarketPlace.sol\":6350:6351  i */\n      dup6\n        /* \"Desktop/DigitalMarketplace/contracts/MarketPlace.sol\":6341:6352  products[i] */\n      dup2\n      sload\n      dup2\n      lt\n      tag_438\n      jumpi\n      tag_439\n      tag_166\n      jump\t// in\n    tag_439:\n    tag_438:\n      swap1\n      0x00\n      mstore\n      keccak256(0x00, 0x20)\n      swap1\n      0x07\n      mul\n      add\n        /* \"Desktop/DigitalMarketplace/contracts/MarketPlace.sol\":6341:6358  products[i].owner */\n      0x01\n      add\n      0x00\n      swap1\n      sload\n      swap1\n      0x0100\n      exp\n      swap1\n      div\n      0xffffffffffffffffffffffffffffffffffffffff\n      and\n        /* \"Desktop/DigitalMarketplace/contracts/MarketPlace.sol\":6319:6359  ownedSellableProducts[products[i].owner] */\n      0xffffffffffffffffffffffffffffffffffffffff\n      and\n      0xffffffffffffffffffffffffffffffffffffffff\n      and\n      dup2\n      mstore\n      0x20\n      add\n      swap1\n      dup2\n      mstore\n      0x20\n      add\n      0x00\n      keccak256\n        /* \"Desktop/DigitalMarketplace/contracts/MarketPlace.sol\":6319:6362  ownedSellableProducts[products[i].owner][i] */\n      0x00\n        /* \"Desktop/DigitalMarketplace/contracts/MarketPlace.sol\":6360:6361  i */\n      dup5\n        /* \"Desktop/DigitalMarketplace/contracts/MarketPlace.sol\":6319:6362  ownedSellableProducts[products[i].owner][i] */\n      dup2\n      mstore\n      0x20\n      add\n      swap1\n      dup2\n      mstore\n      0x20\n      add\n      0x00\n      keccak256\n        /* \"Desktop/DigitalMarketplace/contracts/MarketPlace.sol\":6319:6371  ownedSellableProducts[products[i].owner][i].datetime */\n      0x02\n      add\n      sload\n        /* \"Desktop/DigitalMarketplace/contracts/MarketPlace.sol\":6310:6315  _date */\n      dup11\n        /* \"Desktop/DigitalMarketplace/contracts/MarketPlace.sol\":6310:6371  _date <= ownedSellableProducts[products[i].owner][i].datetime */\n      gt\n      iszero\n        /* \"Desktop/DigitalMarketplace/contracts/MarketPlace.sol\":6296:6371  _date != 0 || _date <= ownedSellableProducts[products[i].owner][i].datetime */\n    tag_437:\n        /* \"Desktop/DigitalMarketplace/contracts/MarketPlace.sol\":6193:6372  isValid &&\r... */\n    tag_436:\n        /* \"Desktop/DigitalMarketplace/contracts/MarketPlace.sol\":6193:6438  isValid &&\r... */\n      dup1\n      iszero\n      tag_441\n      jumpi\n      pop\n        /* \"Desktop/DigitalMarketplace/contracts/MarketPlace.sol\":6393:6438  containsWord(_partialTitle, products[i].name) */\n      tag_442\n        /* \"Desktop/DigitalMarketplace/contracts/MarketPlace.sol\":6406:6419  _partialTitle */\n      dup14\n        /* \"Desktop/DigitalMarketplace/contracts/MarketPlace.sol\":6421:6429  products */\n      0x07\n        /* \"Desktop/DigitalMarketplace/contracts/MarketPlace.sol\":6430:6431  i */\n      dup6\n        /* \"Desktop/DigitalMarketplace/contracts/MarketPlace.sol\":6421:6432  products[i] */\n      dup2\n      sload\n      dup2\n      lt\n      tag_443\n      jumpi\n      tag_444\n      tag_166\n      jump\t// in\n    tag_444:\n    tag_443:\n      swap1\n      0x00\n      mstore\n      keccak256(0x00, 0x20)\n      swap1\n      0x07\n      mul\n      add\n        /* \"Desktop/DigitalMarketplace/contracts/MarketPlace.sol\":6421:6437  products[i].name */\n      0x02\n      add\n        /* \"Desktop/DigitalMarketplace/contracts/MarketPlace.sol\":6393:6438  containsWord(_partialTitle, products[i].name) */\n      dup1\n      sload\n      tag_446\n      swap1\n      tag_270\n      jump\t// in\n    tag_446:\n      dup1\n      0x1f\n      add\n      0x20\n      dup1\n      swap2\n      div\n      mul\n      0x20\n      add\n      mload(0x40)\n      swap1\n      dup2\n      add\n      0x40\n      mstore\n      dup1\n      swap3\n      swap2\n      swap1\n      dup2\n      dup2\n      mstore\n      0x20\n      add\n      dup3\n      dup1\n      sload\n      tag_447\n      swap1\n      tag_270\n      jump\t// in\n    tag_447:\n      dup1\n      iszero\n      tag_448\n      jumpi\n      dup1\n      0x1f\n      lt\n      tag_449\n      jumpi\n      0x0100\n      dup1\n      dup4\n      sload\n      div\n      mul\n      dup4\n      mstore\n      swap2\n      0x20\n      add\n      swap2\n      jump(tag_448)\n    tag_449:\n      dup3\n      add\n      swap2\n      swap1\n      0x00\n      mstore\n      keccak256(0x00, 0x20)\n      swap1\n    tag_450:\n      dup2\n      sload\n      dup2\n      mstore\n      swap1\n      0x01\n      add\n      swap1\n      0x20\n      add\n      dup1\n      dup4\n      gt\n      tag_450\n      jumpi\n      dup3\n      swap1\n      sub\n      0x1f\n      and\n      dup3\n      add\n      swap2\n    tag_448:\n      pop\n      pop\n      pop\n      pop\n      pop\n        /* \"Desktop/DigitalMarketplace/contracts/MarketPlace.sol\":6393:6405  containsWord */\n      tag_451\n        /* \"Desktop/DigitalMarketplace/contracts/MarketPlace.sol\":6393:6438  containsWord(_partialTitle, products[i].name) */\n      jump\t// in\n    tag_442:\n        /* \"Desktop/DigitalMarketplace/contracts/MarketPlace.sol\":6193:6438  isValid &&\r... */\n    tag_441:\n        /* \"Desktop/DigitalMarketplace/contracts/MarketPlace.sol\":6187:6590  if (!(isValid &&\r... */\n      tag_452\n      jumpi\n        /* \"Desktop/DigitalMarketplace/contracts/MarketPlace.sol\":6569:6574  false */\n      0x00\n        /* \"Desktop/DigitalMarketplace/contracts/MarketPlace.sol\":6559:6574  isValid = false */\n      swap2\n      pop\n        /* \"Desktop/DigitalMarketplace/contracts/MarketPlace.sol\":6187:6590  if (!(isValid &&\r... */\n    tag_452:\n        /* \"Desktop/DigitalMarketplace/contracts/MarketPlace.sol\":6608:6615  isValid */\n      dup2\n        /* \"Desktop/DigitalMarketplace/contracts/MarketPlace.sol\":6604:6707  if (isValid) {\r... */\n      iszero\n      tag_453\n      jumpi\n        /* \"Desktop/DigitalMarketplace/contracts/MarketPlace.sol\":6680:6688  products */\n      0x07\n        /* \"Desktop/DigitalMarketplace/contracts/MarketPlace.sol\":6689:6690  i */\n      dup4\n        /* \"Desktop/DigitalMarketplace/contracts/MarketPlace.sol\":6680:6691  products[i] */\n      dup2\n      sload\n      dup2\n      lt\n      tag_454\n      jumpi\n      tag_455\n      tag_166\n      jump\t// in\n    tag_455:\n    tag_454:\n      swap1\n      0x00\n      mstore\n      keccak256(0x00, 0x20)\n      swap1\n      0x07\n      mul\n      add\n        /* \"Desktop/DigitalMarketplace/contracts/MarketPlace.sol\":6636:6691  productsForSale[productsForSaleCounter++] = products[i] */\n      mload(0x40)\n      dup1\n      0xe0\n      add\n      0x40\n      mstore\n      swap1\n      dup2\n      0x00\n      dup3\n      add\n      sload\n      dup2\n      mstore\n      0x20\n      add\n      0x01\n      dup3\n      add\n      0x00\n      swap1\n      sload\n      swap1\n      0x0100\n      exp\n      swap1\n      div\n      0xffffffffffffffffffffffffffffffffffffffff\n      and\n      0xffffffffffffffffffffffffffffffffffffffff\n      and\n      0xffffffffffffffffffffffffffffffffffffffff\n      and\n      dup2\n      mstore\n      0x20\n      add\n      0x02\n      dup3\n      add\n      dup1\n      sload\n      tag_457\n      swap1\n      tag_270\n      jump\t// in\n    tag_457:\n      dup1\n      0x1f\n      add\n      0x20\n      dup1\n      swap2\n      div\n      mul\n      0x20\n      add\n      mload(0x40)\n      swap1\n      dup2\n      add\n      0x40\n      mstore\n      dup1\n      swap3\n      swap2\n      swap1\n      dup2\n      dup2\n      mstore\n      0x20\n      add\n      dup3\n      dup1\n      sload\n      tag_458\n      swap1\n      tag_270\n      jump\t// in\n    tag_458:\n      dup1\n      iszero\n      tag_459\n      jumpi\n      dup1\n      0x1f\n      lt\n      tag_460\n      jumpi\n      0x0100\n      dup1\n      dup4\n      sload\n      div\n      mul\n      dup4\n      mstore\n      swap2\n      0x20\n      add\n      swap2\n      jump(tag_459)\n    tag_460:\n      dup3\n      add\n      swap2\n      swap1\n      0x00\n      mstore\n      keccak256(0x00, 0x20)\n      swap1\n    tag_461:\n      dup2\n      sload\n      dup2\n      mstore\n      swap1\n      0x01\n      add\n      swap1\n      0x20\n      add\n      dup1\n      dup4\n      gt\n      tag_461\n      jumpi\n      dup3\n      swap1\n      sub\n      0x1f\n      and\n      dup3\n      add\n      swap2\n    tag_459:\n      pop\n      pop\n      pop\n      pop\n      pop\n      dup2\n      mstore\n      0x20\n      add\n      0x03\n      dup3\n      add\n      dup1\n      sload\n      tag_462\n      swap1\n      tag_270\n      jump\t// in\n    tag_462:\n      dup1\n      0x1f\n      add\n      0x20\n      dup1\n      swap2\n      div\n      mul\n      0x20\n      add\n      mload(0x40)\n      swap1\n      dup2\n      add\n      0x40\n      mstore\n      dup1\n      swap3\n      swap2\n      swap1\n      dup2\n      dup2\n      mstore\n      0x20\n      add\n      dup3\n      dup1\n      sload\n      tag_463\n      swap1\n      tag_270\n      jump\t// in\n    tag_463:\n      dup1\n      iszero\n      tag_464\n      jumpi\n      dup1\n      0x1f\n      lt\n      tag_465\n      jumpi\n      0x0100\n      dup1\n      dup4\n      sload\n      div\n      mul\n      dup4\n      mstore\n      swap2\n      0x20\n      add\n      swap2\n      jump(tag_464)\n    tag_465:\n      dup3\n      add\n      swap2\n      swap1\n      0x00\n      mstore\n      keccak256(0x00, 0x20)\n      swap1\n    tag_466:\n      dup2\n      sload\n      dup2\n      mstore\n      swap1\n      0x01\n      add\n      swap1\n      0x20\n      add\n      dup1\n      dup4\n      gt\n      tag_466\n      jumpi\n      dup3\n      swap1\n      sub\n      0x1f\n      and\n      dup3\n      add\n      swap2\n    tag_464:\n      pop\n      pop\n      pop\n      pop\n      pop\n      dup2\n      mstore\n      0x20\n      add\n      0x04\n      dup3\n      add\n      dup1\n      sload\n      tag_467\n      swap1\n      tag_270\n      jump\t// in\n    tag_467:\n      dup1\n      0x1f\n      add\n      0x20\n      dup1\n      swap2\n      div\n      mul\n      0x20\n      add\n      mload(0x40)\n      swap1\n      dup2\n      add\n      0x40\n      mstore\n      dup1\n      swap3\n      swap2\n      swap1\n      dup2\n      dup2\n      mstore\n      0x20\n      add\n      dup3\n      dup1\n      sload\n      tag_468\n      swap1\n      tag_270\n      jump\t// in\n    tag_468:\n      dup1\n      iszero\n      tag_469\n      jumpi\n      dup1\n      0x1f\n      lt\n      tag_470\n      jumpi\n      0x0100\n      dup1\n      dup4\n      sload\n      div\n      mul\n      dup4\n      mstore\n      swap2\n      0x20\n      add\n      swap2\n      jump(tag_469)\n    tag_470:\n      dup3\n      add\n      swap2\n      swap1\n      0x00\n      mstore\n      keccak256(0x00, 0x20)\n      swap1\n    tag_471:\n      dup2\n      sload\n      dup2\n      mstore\n      swap1\n      0x01\n      add\n      swap1\n      0x20\n      add\n      dup1\n      dup4\n      gt\n      tag_471\n      jumpi\n      dup3\n      swap1\n      sub\n      0x1f\n      and\n      dup3\n      add\n      swap2\n    tag_469:\n      pop\n      pop\n      pop\n      pop\n      pop\n      dup2\n      mstore\n      0x20\n      add\n      0x05\n      dup3\n      add\n      dup1\n      sload\n      dup1\n      0x20\n      mul\n      0x20\n      add\n      mload(0x40)\n      swap1\n      dup2\n      add\n      0x40\n      mstore\n      dup1\n      swap3\n      swap2\n      swap1\n      dup2\n      dup2\n      mstore\n      0x20\n      add\n      0x00\n      swap1\n    tag_472:\n      dup3\n      dup3\n      lt\n      iszero\n      tag_473\n      jumpi\n      dup4\n      dup3\n      swap1\n      0x00\n      mstore\n      keccak256(0x00, 0x20)\n      add\n      dup1\n      sload\n      tag_475\n      swap1\n      tag_270\n      jump\t// in\n    tag_475:\n      dup1\n      0x1f\n      add\n      0x20\n      dup1\n      swap2\n      div\n      mul\n      0x20\n      add\n      mload(0x40)\n      swap1\n      dup2\n      add\n      0x40\n      mstore\n      dup1\n      swap3\n      swap2\n      swap1\n      dup2\n      dup2\n      mstore\n      0x20\n      add\n      dup3\n      dup1\n      sload\n      tag_476\n      swap1\n      tag_270\n      jump\t// in\n    tag_476:\n      dup1\n      iszero\n      tag_477\n      jumpi\n      dup1\n      0x1f\n      lt\n      tag_478\n      jumpi\n      0x0100\n      dup1\n      dup4\n      sload\n      div\n      mul\n      dup4\n      mstore\n      swap2\n      0x20\n      add\n      swap2\n      jump(tag_477)\n    tag_478:\n      dup3\n      add\n      swap2\n      swap1\n      0x00\n      mstore\n      keccak256(0x00, 0x20)\n      swap1\n    tag_479:\n      dup2\n      sload\n      dup2\n      mstore\n      swap1\n      0x01\n      add\n      swap1\n      0x20\n      add\n      dup1\n      dup4\n      gt\n      tag_479\n      jumpi\n      dup3\n      swap1\n      sub\n      0x1f\n      and\n      dup3\n      add\n      swap2\n    tag_477:\n      pop\n      pop\n      pop\n      pop\n      pop\n      dup2\n      mstore\n      0x20\n      add\n      swap1\n      0x01\n      add\n      swap1\n      jump(tag_472)\n    tag_473:\n      pop\n      pop\n      pop\n      pop\n      dup2\n      mstore\n      0x20\n      add\n      0x06\n      dup3\n      add\n      0x00\n      swap1\n      sload\n      swap1\n      0x0100\n      exp\n      swap1\n      div\n      0xff\n      and\n      iszero\n      iszero\n      iszero\n      iszero\n      dup2\n      mstore\n      pop\n      pop\n        /* \"Desktop/DigitalMarketplace/contracts/MarketPlace.sol\":6636:6651  productsForSale */\n      dup6\n        /* \"Desktop/DigitalMarketplace/contracts/MarketPlace.sol\":6652:6676  productsForSaleCounter++ */\n      dup6\n      dup1\n      tag_480\n      swap1\n      tag_171\n      jump\t// in\n    tag_480:\n      swap7\n      pop\n        /* \"Desktop/DigitalMarketplace/contracts/MarketPlace.sol\":6636:6677  productsForSale[productsForSaleCounter++] */\n      dup2\n      mload\n      dup2\n      lt\n      tag_481\n      jumpi\n      tag_482\n      tag_166\n      jump\t// in\n    tag_482:\n    tag_481:\n      0x20\n      mul\n      0x20\n      add\n      add\n        /* \"Desktop/DigitalMarketplace/contracts/MarketPlace.sol\":6636:6691  productsForSale[productsForSaleCounter++] = products[i] */\n      dup2\n      swap1\n      mstore\n      pop\n        /* \"Desktop/DigitalMarketplace/contracts/MarketPlace.sol\":6604:6707  if (isValid) {\r... */\n    tag_453:\n        /* \"Desktop/DigitalMarketplace/contracts/MarketPlace.sol\":5507:6718  {\r... */\n      pop\n      pop\n        /* \"Desktop/DigitalMarketplace/contracts/MarketPlace.sol\":5410:6718  for (i = _startIndexForSearch; i < products.length && productsForSaleCounter < _maxResults; i++) {\r... */\n    tag_400:\n        /* \"Desktop/DigitalMarketplace/contracts/MarketPlace.sol\":5502:5505  i++ */\n      dup1\n      dup1\n      tag_483\n      swap1\n      tag_171\n      jump\t// in\n    tag_483:\n      swap2\n      pop\n      pop\n        /* \"Desktop/DigitalMarketplace/contracts/MarketPlace.sol\":5410:6718  for (i = _startIndexForSearch; i < products.length && productsForSaleCounter < _maxResults; i++) {\r... */\n      jump(tag_398)\n    tag_399:\n        /* \"Desktop/DigitalMarketplace/contracts/MarketPlace.sol\":6736:6737  i */\n      dup1\n        /* \"Desktop/DigitalMarketplace/contracts/MarketPlace.sol\":6739:6754  productsForSale */\n      dup4\n        /* \"Desktop/DigitalMarketplace/contracts/MarketPlace.sol\":6728:6755  return (i, productsForSale) */\n      swap5\n      pop\n      swap5\n      pop\n      pop\n      pop\n      pop\n        /* \"Desktop/DigitalMarketplace/contracts/MarketPlace.sol\":5047:6763  function filterSellingProducts(string memory _partialTitle, string memory _category, address _owner, uint256 _date, uint256 _startIndexForSearch, uint256 _maxResults) external view returns (uint256, Product[] memory) {\r... */\n      swap7\n      pop\n      swap7\n      swap5\n      pop\n      pop\n      pop\n      pop\n      pop\n      jump\t// out\n        /* \"Desktop/DigitalMarketplace/contracts/MarketPlace.sol\":14697:14853  function setApprovalForAll(address _operator, bool _approved) override external {\r... */\n    tag_121:\n        /* \"Desktop/DigitalMarketplace/contracts/MarketPlace.sol\":14836:14845  _approved */\n      dup1\n        /* \"Desktop/DigitalMarketplace/contracts/MarketPlace.sol\":14788:14810  addressToOperatorCheck */\n      0x05\n        /* \"Desktop/DigitalMarketplace/contracts/MarketPlace.sol\":14788:14822  addressToOperatorCheck[msg.sender] */\n      0x00\n        /* \"Desktop/DigitalMarketplace/contracts/MarketPlace.sol\":14811:14821  msg.sender */\n      caller\n        /* \"Desktop/DigitalMarketplace/contracts/MarketPlace.sol\":14788:14822  addressToOperatorCheck[msg.sender] */\n      0xffffffffffffffffffffffffffffffffffffffff\n      and\n      0xffffffffffffffffffffffffffffffffffffffff\n      and\n      dup2\n      mstore\n      0x20\n      add\n      swap1\n      dup2\n      mstore\n      0x20\n      add\n      0x00\n      keccak256\n        /* \"Desktop/DigitalMarketplace/contracts/MarketPlace.sol\":14788:14833  addressToOperatorCheck[msg.sender][_operator] */\n      0x00\n        /* \"Desktop/DigitalMarketplace/contracts/MarketPlace.sol\":14823:14832  _operator */\n      dup5\n        /* \"Desktop/DigitalMarketplace/contracts/MarketPlace.sol\":14788:14833  addressToOperatorCheck[msg.sender][_operator] */\n      0xffffffffffffffffffffffffffffffffffffffff\n      and\n      0xffffffffffffffffffffffffffffffffffffffff\n      and\n      dup2\n      mstore\n      0x20\n      add\n      swap1\n      dup2\n      mstore\n      0x20\n      add\n      0x00\n      keccak256\n      0x00\n        /* \"Desktop/DigitalMarketplace/contracts/MarketPlace.sol\":14788:14845  addressToOperatorCheck[msg.sender][_operator] = _approved */\n      0x0100\n      exp\n      dup2\n      sload\n      dup2\n      0xff\n      mul\n      not\n      and\n      swap1\n      dup4\n      iszero\n      iszero\n      mul\n      or\n      swap1\n      sstore\n      pop\n        /* \"Desktop/DigitalMarketplace/contracts/MarketPlace.sol\":14697:14853  function setApprovalForAll(address _operator, bool _approved) override external {\r... */\n      pop\n      pop\n      jump\t// out\n        /* \"Desktop/DigitalMarketplace/contracts/MarketPlace.sol\":1568:1691  function setFeePercentage(uint256 _feePercentage) external onlyOwner {\r... */\n    tag_125:\n        /* \"Desktop/DigitalMarketplace/contracts/Ownable.sol\":1302:1314  _msgSender() */\n      tag_486\n        /* \"Desktop/DigitalMarketplace/contracts/Ownable.sol\":1302:1312  _msgSender */\n      tag_236\n        /* \"Desktop/DigitalMarketplace/contracts/Ownable.sol\":1302:1314  _msgSender() */\n      jump\t// in\n    tag_486:\n        /* \"Desktop/DigitalMarketplace/contracts/Ownable.sol\":1291:1314  owner() == _msgSender() */\n      0xffffffffffffffffffffffffffffffffffffffff\n      and\n        /* \"Desktop/DigitalMarketplace/contracts/Ownable.sol\":1291:1298  owner() */\n      tag_487\n        /* \"Desktop/DigitalMarketplace/contracts/Ownable.sol\":1291:1296  owner */\n      tag_109\n        /* \"Desktop/DigitalMarketplace/contracts/Ownable.sol\":1291:1298  owner() */\n      jump\t// in\n    tag_487:\n        /* \"Desktop/DigitalMarketplace/contracts/Ownable.sol\":1291:1314  owner() == _msgSender() */\n      0xffffffffffffffffffffffffffffffffffffffff\n      and\n      eq\n        /* \"Desktop/DigitalMarketplace/contracts/Ownable.sol\":1283:1351  require(owner() == _msgSender(), \"Ownable: caller is not the owner\") */\n      tag_488\n      jumpi\n      mload(0x40)\n      0x08c379a000000000000000000000000000000000000000000000000000000000\n      dup2\n      mstore\n      0x04\n      add\n      tag_489\n      swap1\n      tag_240\n      jump\t// in\n    tag_489:\n      mload(0x40)\n      dup1\n      swap2\n      sub\n      swap1\n      revert\n    tag_488:\n        /* \"Desktop/DigitalMarketplace/contracts/MarketPlace.sol\":1669:1683  _feePercentage */\n      dup1\n        /* \"Desktop/DigitalMarketplace/contracts/MarketPlace.sol\":1648:1666  feePricePercentage */\n      0x08\n        /* \"Desktop/DigitalMarketplace/contracts/MarketPlace.sol\":1648:1683  feePricePercentage = _feePercentage */\n      dup2\n      swap1\n      sstore\n      pop\n        /* \"Desktop/DigitalMarketplace/contracts/MarketPlace.sol\":1568:1691  function setFeePercentage(uint256 _feePercentage) external onlyOwner {\r... */\n      pop\n      jump\t// out\n        /* \"Desktop/DigitalMarketplace/contracts/MarketPlace.sol\":10725:11416  function safeTransferFrom(address _from, address _to, uint256 _tokenId, bytes memory data) override external payable {\r... */\n    tag_129:\n        /* \"Desktop/DigitalMarketplace/contracts/MarketPlace.sol\":10875:10883  products */\n      0x07\n        /* \"Desktop/DigitalMarketplace/contracts/MarketPlace.sol\":10884:10892  _tokenId */\n      dup3\n        /* \"Desktop/DigitalMarketplace/contracts/MarketPlace.sol\":10875:10893  products[_tokenId] */\n      dup2\n      sload\n      dup2\n      lt\n      tag_492\n      jumpi\n      tag_493\n      tag_166\n      jump\t// in\n    tag_493:\n    tag_492:\n      swap1\n      0x00\n      mstore\n      keccak256(0x00, 0x20)\n      swap1\n      0x07\n      mul\n      add\n        /* \"Desktop/DigitalMarketplace/contracts/MarketPlace.sol\":10875:10899  products[_tokenId].owner */\n      0x01\n      add\n      0x00\n      swap1\n      sload\n      swap1\n      0x0100\n      exp\n      swap1\n      div\n      0xffffffffffffffffffffffffffffffffffffffff\n      and\n        /* \"Desktop/DigitalMarketplace/contracts/MarketPlace.sol\":10861:10899  msg.sender == products[_tokenId].owner */\n      0xffffffffffffffffffffffffffffffffffffffff\n      and\n        /* \"Desktop/DigitalMarketplace/contracts/MarketPlace.sol\":10861:10871  msg.sender */\n      caller\n        /* \"Desktop/DigitalMarketplace/contracts/MarketPlace.sol\":10861:10899  msg.sender == products[_tokenId].owner */\n      0xffffffffffffffffffffffffffffffffffffffff\n      and\n      eq\n        /* \"Desktop/DigitalMarketplace/contracts/MarketPlace.sol\":10861:10937  msg.sender == products[_tokenId].owner || addressToOperatorCheck[_from][_to] */\n      dup1\n      tag_495\n      jumpi\n      pop\n        /* \"Desktop/DigitalMarketplace/contracts/MarketPlace.sol\":10903:10925  addressToOperatorCheck */\n      0x05\n        /* \"Desktop/DigitalMarketplace/contracts/MarketPlace.sol\":10903:10932  addressToOperatorCheck[_from] */\n      0x00\n        /* \"Desktop/DigitalMarketplace/contracts/MarketPlace.sol\":10926:10931  _from */\n      dup6\n        /* \"Desktop/DigitalMarketplace/contracts/MarketPlace.sol\":10903:10932  addressToOperatorCheck[_from] */\n      0xffffffffffffffffffffffffffffffffffffffff\n      and\n      0xffffffffffffffffffffffffffffffffffffffff\n      and\n      dup2\n      mstore\n      0x20\n      add\n      swap1\n      dup2\n      mstore\n      0x20\n      add\n      0x00\n      keccak256\n        /* \"Desktop/DigitalMarketplace/contracts/MarketPlace.sol\":10903:10937  addressToOperatorCheck[_from][_to] */\n      0x00\n        /* \"Desktop/DigitalMarketplace/contracts/MarketPlace.sol\":10933:10936  _to */\n      dup5\n        /* \"Desktop/DigitalMarketplace/contracts/MarketPlace.sol\":10903:10937  addressToOperatorCheck[_from][_to] */\n      0xffffffffffffffffffffffffffffffffffffffff\n      and\n      0xffffffffffffffffffffffffffffffffffffffff\n      and\n      dup2\n      mstore\n      0x20\n      add\n      swap1\n      dup2\n      mstore\n      0x20\n      add\n      0x00\n      keccak256\n      0x00\n      swap1\n      sload\n      swap1\n      0x0100\n      exp\n      swap1\n      div\n      0xff\n      and\n        /* \"Desktop/DigitalMarketplace/contracts/MarketPlace.sol\":10861:10937  msg.sender == products[_tokenId].owner || addressToOperatorCheck[_from][_to] */\n    tag_495:\n        /* \"Desktop/DigitalMarketplace/contracts/MarketPlace.sol\":10861:10982  msg.sender == products[_tokenId].owner || addressToOperatorCheck[_from][_to] || productToApprovedAddress[_tokenId] == _to */\n      dup1\n      tag_496\n      jumpi\n      pop\n        /* \"Desktop/DigitalMarketplace/contracts/MarketPlace.sol\":10979:10982  _to */\n      dup3\n        /* \"Desktop/DigitalMarketplace/contracts/MarketPlace.sol\":10941:10982  productToApprovedAddress[_tokenId] == _to */\n      0xffffffffffffffffffffffffffffffffffffffff\n      and\n        /* \"Desktop/DigitalMarketplace/contracts/MarketPlace.sol\":10941:10965  productToApprovedAddress */\n      0x04\n        /* \"Desktop/DigitalMarketplace/contracts/MarketPlace.sol\":10941:10975  productToApprovedAddress[_tokenId] */\n      0x00\n        /* \"Desktop/DigitalMarketplace/contracts/MarketPlace.sol\":10966:10974  _tokenId */\n      dup5\n        /* \"Desktop/DigitalMarketplace/contracts/MarketPlace.sol\":10941:10975  productToApprovedAddress[_tokenId] */\n      dup2\n      mstore\n      0x20\n      add\n      swap1\n      dup2\n      mstore\n      0x20\n      add\n      0x00\n      keccak256\n      0x00\n      swap1\n      sload\n      swap1\n      0x0100\n      exp\n      swap1\n      div\n      0xffffffffffffffffffffffffffffffffffffffff\n      and\n        /* \"Desktop/DigitalMarketplace/contracts/MarketPlace.sol\":10941:10982  productToApprovedAddress[_tokenId] == _to */\n      0xffffffffffffffffffffffffffffffffffffffff\n      and\n      eq\n        /* \"Desktop/DigitalMarketplace/contracts/MarketPlace.sol\":10861:10982  msg.sender == products[_tokenId].owner || addressToOperatorCheck[_from][_to] || productToApprovedAddress[_tokenId] == _to */\n    tag_496:\n        /* \"Desktop/DigitalMarketplace/contracts/MarketPlace.sol\":10853:11004  require(msg.sender == products[_tokenId].owner || addressToOperatorCheck[_from][_to] || productToApprovedAddress[_tokenId] == _to, \"Permission denied\") */\n      tag_497\n      jumpi\n      mload(0x40)\n      0x08c379a000000000000000000000000000000000000000000000000000000000\n      dup2\n      mstore\n      0x04\n      add\n      tag_498\n      swap1\n      tag_191\n      jump\t// in\n    tag_498:\n      mload(0x40)\n      dup1\n      swap2\n      sub\n      swap1\n      revert\n    tag_497:\n        /* \"Desktop/DigitalMarketplace/contracts/MarketPlace.sol\":11038:11039  0 */\n      0x00\n        /* \"Desktop/DigitalMarketplace/contracts/MarketPlace.sol\":11023:11040  _to != address(0) */\n      0xffffffffffffffffffffffffffffffffffffffff\n      and\n        /* \"Desktop/DigitalMarketplace/contracts/MarketPlace.sol\":11023:11026  _to */\n      dup4\n        /* \"Desktop/DigitalMarketplace/contracts/MarketPlace.sol\":11023:11040  _to != address(0) */\n      0xffffffffffffffffffffffffffffffffffffffff\n      and\n      eq\n      iszero\n        /* \"Desktop/DigitalMarketplace/contracts/MarketPlace.sol\":11015:11073  require(_to != address(0), \"Cannot transfer to address 0\") */\n      tag_499\n      jumpi\n      mload(0x40)\n      0x08c379a000000000000000000000000000000000000000000000000000000000\n      dup2\n      mstore\n      0x04\n      add\n      tag_500\n      swap1\n      tag_194\n      jump\t// in\n    tag_500:\n      mload(0x40)\n      dup1\n      swap2\n      sub\n      swap1\n      revert\n    tag_499:\n        /* \"Desktop/DigitalMarketplace/contracts/MarketPlace.sol\":11088:11096  products */\n      0x07\n        /* \"Desktop/DigitalMarketplace/contracts/MarketPlace.sol\":11097:11105  _tokenId */\n      dup3\n        /* \"Desktop/DigitalMarketplace/contracts/MarketPlace.sol\":11088:11106  products[_tokenId] */\n      dup2\n      sload\n      dup2\n      lt\n      tag_501\n      jumpi\n      tag_502\n      tag_166\n      jump\t// in\n    tag_502:\n    tag_501:\n      swap1\n      0x00\n      mstore\n      keccak256(0x00, 0x20)\n      swap1\n      0x07\n      mul\n      add\n        /* \"Desktop/DigitalMarketplace/contracts/MarketPlace.sol\":11088:11114  products[_tokenId].forSale */\n      0x06\n      add\n      0x00\n      swap1\n      sload\n      swap1\n      0x0100\n      exp\n      swap1\n      div\n      0xff\n      and\n        /* \"Desktop/DigitalMarketplace/contracts/MarketPlace.sol\":11084:11409  if (products[_tokenId].forSale) {\r... */\n      iszero\n      tag_504\n      jumpi\n        /* \"Desktop/DigitalMarketplace/contracts/MarketPlace.sol\":11131:11163  buyProduct(_tokenId, _from, _to) */\n      tag_505\n        /* \"Desktop/DigitalMarketplace/contracts/MarketPlace.sol\":11142:11150  _tokenId */\n      dup3\n        /* \"Desktop/DigitalMarketplace/contracts/MarketPlace.sol\":11152:11157  _from */\n      dup6\n        /* \"Desktop/DigitalMarketplace/contracts/MarketPlace.sol\":11159:11162  _to */\n      dup6\n        /* \"Desktop/DigitalMarketplace/contracts/MarketPlace.sol\":11131:11141  buyProduct */\n      tag_67\n        /* \"Desktop/DigitalMarketplace/contracts/MarketPlace.sol\":11131:11163  buyProduct(_tokenId, _from, _to) */\n      jump\t// in\n    tag_505:\n        /* \"Desktop/DigitalMarketplace/contracts/MarketPlace.sol\":11084:11409  if (products[_tokenId].forSale) {\r... */\n      jump(tag_506)\n    tag_504:\n        /* \"Desktop/DigitalMarketplace/contracts/MarketPlace.sol\":11247:11271  ownedNonSellableProducts */\n      0x03\n        /* \"Desktop/DigitalMarketplace/contracts/MarketPlace.sol\":11247:11278  ownedNonSellableProducts[_from] */\n      0x00\n        /* \"Desktop/DigitalMarketplace/contracts/MarketPlace.sol\":11272:11277  _from */\n      dup6\n        /* \"Desktop/DigitalMarketplace/contracts/MarketPlace.sol\":11247:11278  ownedNonSellableProducts[_from] */\n      0xffffffffffffffffffffffffffffffffffffffff\n      and\n      0xffffffffffffffffffffffffffffffffffffffff\n      and\n      dup2\n      mstore\n      0x20\n      add\n      swap1\n      dup2\n      mstore\n      0x20\n      add\n      0x00\n      keccak256\n        /* \"Desktop/DigitalMarketplace/contracts/MarketPlace.sol\":11247:11288  ownedNonSellableProducts[_from][_tokenId] */\n      0x00\n        /* \"Desktop/DigitalMarketplace/contracts/MarketPlace.sol\":11279:11287  _tokenId */\n      dup4\n        /* \"Desktop/DigitalMarketplace/contracts/MarketPlace.sol\":11247:11288  ownedNonSellableProducts[_from][_tokenId] */\n      dup2\n      mstore\n      0x20\n      add\n      swap1\n      dup2\n      mstore\n      0x20\n      add\n      0x00\n      keccak256\n      0x00\n      swap1\n      sload\n      swap1\n      0x0100\n      exp\n      swap1\n      div\n      0xff\n      and\n        /* \"Desktop/DigitalMarketplace/contracts/MarketPlace.sol\":11205:11229  ownedNonSellableProducts */\n      0x03\n        /* \"Desktop/DigitalMarketplace/contracts/MarketPlace.sol\":11205:11234  ownedNonSellableProducts[_to] */\n      0x00\n        /* \"Desktop/DigitalMarketplace/contracts/MarketPlace.sol\":11230:11233  _to */\n      dup6\n        /* \"Desktop/DigitalMarketplace/contracts/MarketPlace.sol\":11205:11234  ownedNonSellableProducts[_to] */\n      0xffffffffffffffffffffffffffffffffffffffff\n      and\n      0xffffffffffffffffffffffffffffffffffffffff\n      and\n      dup2\n      mstore\n      0x20\n      add\n      swap1\n      dup2\n      mstore\n      0x20\n      add\n      0x00\n      keccak256\n        /* \"Desktop/DigitalMarketplace/contracts/MarketPlace.sol\":11205:11244  ownedNonSellableProducts[_to][_tokenId] */\n      0x00\n        /* \"Desktop/DigitalMarketplace/contracts/MarketPlace.sol\":11235:11243  _tokenId */\n      dup5\n        /* \"Desktop/DigitalMarketplace/contracts/MarketPlace.sol\":11205:11244  ownedNonSellableProducts[_to][_tokenId] */\n      dup2\n      mstore\n      0x20\n      add\n      swap1\n      dup2\n      mstore\n      0x20\n      add\n      0x00\n      keccak256\n      0x00\n        /* \"Desktop/DigitalMarketplace/contracts/MarketPlace.sol\":11205:11288  ownedNonSellableProducts[_to][_tokenId] = ownedNonSellableProducts[_from][_tokenId] */\n      0x0100\n      exp\n      dup2\n      sload\n      dup2\n      0xff\n      mul\n      not\n      and\n      swap1\n      dup4\n      iszero\n      iszero\n      mul\n      or\n      swap1\n      sstore\n      pop\n        /* \"Desktop/DigitalMarketplace/contracts/MarketPlace.sol\":11310:11334  ownedNonSellableProducts */\n      0x03\n        /* \"Desktop/DigitalMarketplace/contracts/MarketPlace.sol\":11310:11341  ownedNonSellableProducts[_from] */\n      0x00\n        /* \"Desktop/DigitalMarketplace/contracts/MarketPlace.sol\":11335:11340  _from */\n      dup6\n        /* \"Desktop/DigitalMarketplace/contracts/MarketPlace.sol\":11310:11341  ownedNonSellableProducts[_from] */\n      0xffffffffffffffffffffffffffffffffffffffff\n      and\n      0xffffffffffffffffffffffffffffffffffffffff\n      and\n      dup2\n      mstore\n      0x20\n      add\n      swap1\n      dup2\n      mstore\n      0x20\n      add\n      0x00\n      keccak256\n        /* \"Desktop/DigitalMarketplace/contracts/MarketPlace.sol\":11310:11351  ownedNonSellableProducts[_from][_tokenId] */\n      0x00\n        /* \"Desktop/DigitalMarketplace/contracts/MarketPlace.sol\":11342:11350  _tokenId */\n      dup4\n        /* \"Desktop/DigitalMarketplace/contracts/MarketPlace.sol\":11310:11351  ownedNonSellableProducts[_from][_tokenId] */\n      dup2\n      mstore\n      0x20\n      add\n      swap1\n      dup2\n      mstore\n      0x20\n      add\n      0x00\n      keccak256\n      0x00\n        /* \"Desktop/DigitalMarketplace/contracts/MarketPlace.sol\":11303:11352  delete(ownedNonSellableProducts[_from][_tokenId]) */\n      0x0100\n      exp\n      dup2\n      sload\n      swap1\n      0xff\n      mul\n      not\n      and\n      swap1\n      sstore\n        /* \"Desktop/DigitalMarketplace/contracts/MarketPlace.sol\":11394:11397  _to */\n      dup3\n        /* \"Desktop/DigitalMarketplace/contracts/MarketPlace.sol\":11367:11375  products */\n      0x07\n        /* \"Desktop/DigitalMarketplace/contracts/MarketPlace.sol\":11376:11384  _tokenId */\n      dup4\n        /* \"Desktop/DigitalMarketplace/contracts/MarketPlace.sol\":11367:11385  products[_tokenId] */\n      dup2\n      sload\n      dup2\n      lt\n      tag_507\n      jumpi\n      tag_508\n      tag_166\n      jump\t// in\n    tag_508:\n    tag_507:\n      swap1\n      0x00\n      mstore\n      keccak256(0x00, 0x20)\n      swap1\n      0x07\n      mul\n      add\n        /* \"Desktop/DigitalMarketplace/contracts/MarketPlace.sol\":11367:11391  products[_tokenId].owner */\n      0x01\n      add\n      0x00\n        /* \"Desktop/DigitalMarketplace/contracts/MarketPlace.sol\":11367:11397  products[_tokenId].owner = _to */\n      0x0100\n      exp\n      dup2\n      sload\n      dup2\n      0xffffffffffffffffffffffffffffffffffffffff\n      mul\n      not\n      and\n      swap1\n      dup4\n      0xffffffffffffffffffffffffffffffffffffffff\n      and\n      mul\n      or\n      swap1\n      sstore\n      pop\n        /* \"Desktop/DigitalMarketplace/contracts/MarketPlace.sol\":11084:11409  if (products[_tokenId].forSale) {\r... */\n    tag_506:\n        /* \"Desktop/DigitalMarketplace/contracts/MarketPlace.sol\":10725:11416  function safeTransferFrom(address _from, address _to, uint256 _tokenId, bytes memory data) override external payable {\r... */\n      pop\n      pop\n      pop\n      pop\n      jump\t// out\n        /* \"Desktop/DigitalMarketplace/contracts/MarketPlace.sol\":6933:7208  function getSellableProductDetails(uint256 _productId) external view returns (SellableProduct memory) {\r... */\n    tag_133:\n        /* \"Desktop/DigitalMarketplace/contracts/MarketPlace.sol\":7011:7033  SellableProduct memory */\n      tag_510\n      tag_511\n      jump\t// in\n    tag_510:\n        /* \"Desktop/DigitalMarketplace/contracts/MarketPlace.sol\":7046:7068  Product memory product */\n      0x00\n        /* \"Desktop/DigitalMarketplace/contracts/MarketPlace.sol\":7071:7079  products */\n      0x07\n        /* \"Desktop/DigitalMarketplace/contracts/MarketPlace.sol\":7080:7090  _productId */\n      dup4\n        /* \"Desktop/DigitalMarketplace/contracts/MarketPlace.sol\":7071:7091  products[_productId] */\n      dup2\n      sload\n      dup2\n      lt\n      tag_513\n      jumpi\n      tag_514\n      tag_166\n      jump\t// in\n    tag_514:\n    tag_513:\n      swap1\n      0x00\n      mstore\n      keccak256(0x00, 0x20)\n      swap1\n      0x07\n      mul\n      add\n        /* \"Desktop/DigitalMarketplace/contracts/MarketPlace.sol\":7046:7091  Product memory product = products[_productId] */\n      mload(0x40)\n      dup1\n      0xe0\n      add\n      0x40\n      mstore\n      swap1\n      dup2\n      0x00\n      dup3\n      add\n      sload\n      dup2\n      mstore\n      0x20\n      add\n      0x01\n      dup3\n      add\n      0x00\n      swap1\n      sload\n      swap1\n      0x0100\n      exp\n      swap1\n      div\n      0xffffffffffffffffffffffffffffffffffffffff\n      and\n      0xffffffffffffffffffffffffffffffffffffffff\n      and\n      0xffffffffffffffffffffffffffffffffffffffff\n      and\n      dup2\n      mstore\n      0x20\n      add\n      0x02\n      dup3\n      add\n      dup1\n      sload\n      tag_516\n      swap1\n      tag_270\n      jump\t// in\n    tag_516:\n      dup1\n      0x1f\n      add\n      0x20\n      dup1\n      swap2\n      div\n      mul\n      0x20\n      add\n      mload(0x40)\n      swap1\n      dup2\n      add\n      0x40\n      mstore\n      dup1\n      swap3\n      swap2\n      swap1\n      dup2\n      dup2\n      mstore\n      0x20\n      add\n      dup3\n      dup1\n      sload\n      tag_517\n      swap1\n      tag_270\n      jump\t// in\n    tag_517:\n      dup1\n      iszero\n      tag_518\n      jumpi\n      dup1\n      0x1f\n      lt\n      tag_519\n      jumpi\n      0x0100\n      dup1\n      dup4\n      sload\n      div\n      mul\n      dup4\n      mstore\n      swap2\n      0x20\n      add\n      swap2\n      jump(tag_518)\n    tag_519:\n      dup3\n      add\n      swap2\n      swap1\n      0x00\n      mstore\n      keccak256(0x00, 0x20)\n      swap1\n    tag_520:\n      dup2\n      sload\n      dup2\n      mstore\n      swap1\n      0x01\n      add\n      swap1\n      0x20\n      add\n      dup1\n      dup4\n      gt\n      tag_520\n      jumpi\n      dup3\n      swap1\n      sub\n      0x1f\n      and\n      dup3\n      add\n      swap2\n    tag_518:\n      pop\n      pop\n      pop\n      pop\n      pop\n      dup2\n      mstore\n      0x20\n      add\n      0x03\n      dup3\n      add\n      dup1\n      sload\n      tag_521\n      swap1\n      tag_270\n      jump\t// in\n    tag_521:\n      dup1\n      0x1f\n      add\n      0x20\n      dup1\n      swap2\n      div\n      mul\n      0x20\n      add\n      mload(0x40)\n      swap1\n      dup2\n      add\n      0x40\n      mstore\n      dup1\n      swap3\n      swap2\n      swap1\n      dup2\n      dup2\n      mstore\n      0x20\n      add\n      dup3\n      dup1\n      sload\n      tag_522\n      swap1\n      tag_270\n      jump\t// in\n    tag_522:\n      dup1\n      iszero\n      tag_523\n      jumpi\n      dup1\n      0x1f\n      lt\n      tag_524\n      jumpi\n      0x0100\n      dup1\n      dup4\n      sload\n      div\n      mul\n      dup4\n      mstore\n      swap2\n      0x20\n      add\n      swap2\n      jump(tag_523)\n    tag_524:\n      dup3\n      add\n      swap2\n      swap1\n      0x00\n      mstore\n      keccak256(0x00, 0x20)\n      swap1\n    tag_525:\n      dup2\n      sload\n      dup2\n      mstore\n      swap1\n      0x01\n      add\n      swap1\n      0x20\n      add\n      dup1\n      dup4\n      gt\n      tag_525\n      jumpi\n      dup3\n      swap1\n      sub\n      0x1f\n      and\n      dup3\n      add\n      swap2\n    tag_523:\n      pop\n      pop\n      pop\n      pop\n      pop\n      dup2\n      mstore\n      0x20\n      add\n      0x04\n      dup3\n      add\n      dup1\n      sload\n      tag_526\n      swap1\n      tag_270\n      jump\t// in\n    tag_526:\n      dup1\n      0x1f\n      add\n      0x20\n      dup1\n      swap2\n      div\n      mul\n      0x20\n      add\n      mload(0x40)\n      swap1\n      dup2\n      add\n      0x40\n      mstore\n      dup1\n      swap3\n      swap2\n      swap1\n      dup2\n      dup2\n      mstore\n      0x20\n      add\n      dup3\n      dup1\n      sload\n      tag_527\n      swap1\n      tag_270\n      jump\t// in\n    tag_527:\n      dup1\n      iszero\n      tag_528\n      jumpi\n      dup1\n      0x1f\n      lt\n      tag_529\n      jumpi\n      0x0100\n      dup1\n      dup4\n      sload\n      div\n      mul\n      dup4\n      mstore\n      swap2\n      0x20\n      add\n      swap2\n      jump(tag_528)\n    tag_529:\n      dup3\n      add\n      swap2\n      swap1\n      0x00\n      mstore\n      keccak256(0x00, 0x20)\n      swap1\n    tag_530:\n      dup2\n      sload\n      dup2\n      mstore\n      swap1\n      0x01\n      add\n      swap1\n      0x20\n      add\n      dup1\n      dup4\n      gt\n      tag_530\n      jumpi\n      dup3\n      swap1\n      sub\n      0x1f\n      and\n      dup3\n      add\n      swap2\n    tag_528:\n      pop\n      pop\n      pop\n      pop\n      pop\n      dup2\n      mstore\n      0x20\n      add\n      0x05\n      dup3\n      add\n      dup1\n      sload\n      dup1\n      0x20\n      mul\n      0x20\n      add\n      mload(0x40)\n      swap1\n      dup2\n      add\n      0x40\n      mstore\n      dup1\n      swap3\n      swap2\n      swap1\n      dup2\n      dup2\n      mstore\n      0x20\n      add\n      0x00\n      swap1\n    tag_531:\n      dup3\n      dup3\n      lt\n      iszero\n      tag_532\n      jumpi\n      dup4\n      dup3\n      swap1\n      0x00\n      mstore\n      keccak256(0x00, 0x20)\n      add\n      dup1\n      sload\n      tag_534\n      swap1\n      tag_270\n      jump\t// in\n    tag_534:\n      dup1\n      0x1f\n      add\n      0x20\n      dup1\n      swap2\n      div\n      mul\n      0x20\n      add\n      mload(0x40)\n      swap1\n      dup2\n      add\n      0x40\n      mstore\n      dup1\n      swap3\n      swap2\n      swap1\n      dup2\n      dup2\n      mstore\n      0x20\n      add\n      dup3\n      dup1\n      sload\n      tag_535\n      swap1\n      tag_270\n      jump\t// in\n    tag_535:\n      dup1\n      iszero\n      tag_536\n      jumpi\n      dup1\n      0x1f\n      lt\n      tag_537\n      jumpi\n      0x0100\n      dup1\n      dup4\n      sload\n      div\n      mul\n      dup4\n      mstore\n      swap2\n      0x20\n      add\n      swap2\n      jump(tag_536)\n    tag_537:\n      dup3\n      add\n      swap2\n      swap1\n      0x00\n      mstore\n      keccak256(0x00, 0x20)\n      swap1\n    tag_538:\n      dup2\n      sload\n      dup2\n      mstore\n      swap1\n      0x01\n      add\n      swap1\n      0x20\n      add\n      dup1\n      dup4\n      gt\n      tag_538\n      jumpi\n      dup3\n      swap1\n      sub\n      0x1f\n      and\n      dup3\n      add\n      swap2\n    tag_536:\n      pop\n      pop\n      pop\n      pop\n      pop\n      dup2\n      mstore\n      0x20\n      add\n      swap1\n      0x01\n      add\n      swap1\n      jump(tag_531)\n    tag_532:\n      pop\n      pop\n      pop\n      pop\n      dup2\n      mstore\n      0x20\n      add\n      0x06\n      dup3\n      add\n      0x00\n      swap1\n      sload\n      swap1\n      0x0100\n      exp\n      swap1\n      div\n      0xff\n      and\n      iszero\n      iszero\n      iszero\n      iszero\n      dup2\n      mstore\n      pop\n      pop\n      swap1\n      pop\n        /* \"Desktop/DigitalMarketplace/contracts/MarketPlace.sol\":7129:7133  true */\n      0x01\n        /* \"Desktop/DigitalMarketplace/contracts/MarketPlace.sol\":7110:7133  product.forSale == true */\n      iszero\n      iszero\n        /* \"Desktop/DigitalMarketplace/contracts/MarketPlace.sol\":7110:7117  product */\n      dup2\n        /* \"Desktop/DigitalMarketplace/contracts/MarketPlace.sol\":7110:7125  product.forSale */\n      0xc0\n      add\n      mload\n        /* \"Desktop/DigitalMarketplace/contracts/MarketPlace.sol\":7110:7133  product.forSale == true */\n      iszero\n      iszero\n      eq\n        /* \"Desktop/DigitalMarketplace/contracts/MarketPlace.sol\":7102:7134  require(product.forSale == true) */\n      tag_539\n      jumpi\n      0x00\n      dup1\n      revert\n    tag_539:\n        /* \"Desktop/DigitalMarketplace/contracts/MarketPlace.sol\":7152:7173  ownedSellableProducts */\n      0x02\n        /* \"Desktop/DigitalMarketplace/contracts/MarketPlace.sol\":7152:7188  ownedSellableProducts[product.owner] */\n      0x00\n        /* \"Desktop/DigitalMarketplace/contracts/MarketPlace.sol\":7174:7181  product */\n      dup3\n        /* \"Desktop/DigitalMarketplace/contracts/MarketPlace.sol\":7174:7187  product.owner */\n      0x20\n      add\n      mload\n        /* \"Desktop/DigitalMarketplace/contracts/MarketPlace.sol\":7152:7188  ownedSellableProducts[product.owner] */\n      0xffffffffffffffffffffffffffffffffffffffff\n      and\n      0xffffffffffffffffffffffffffffffffffffffff\n      and\n      dup2\n      mstore\n      0x20\n      add\n      swap1\n      dup2\n      mstore\n      0x20\n      add\n      0x00\n      keccak256\n        /* \"Desktop/DigitalMarketplace/contracts/MarketPlace.sol\":7152:7200  ownedSellableProducts[product.owner][_productId] */\n      0x00\n        /* \"Desktop/DigitalMarketplace/contracts/MarketPlace.sol\":7189:7199  _productId */\n      dup5\n        /* \"Desktop/DigitalMarketplace/contracts/MarketPlace.sol\":7152:7200  ownedSellableProducts[product.owner][_productId] */\n      dup2\n      mstore\n      0x20\n      add\n      swap1\n      dup2\n      mstore\n      0x20\n      add\n      0x00\n      keccak256\n        /* \"Desktop/DigitalMarketplace/contracts/MarketPlace.sol\":7145:7200  return ownedSellableProducts[product.owner][_productId] */\n      mload(0x40)\n      dup1\n      0x80\n      add\n      0x40\n      mstore\n      swap1\n      dup2\n      0x00\n      dup3\n      add\n      sload\n      dup2\n      mstore\n      0x20\n      add\n      0x01\n      dup3\n      add\n      sload\n      dup2\n      mstore\n      0x20\n      add\n      0x02\n      dup3\n      add\n      sload\n      dup2\n      mstore\n      0x20\n      add\n      0x03\n      dup3\n      add\n      sload\n      dup2\n      mstore\n      pop\n      pop\n      swap2\n      pop\n      pop\n        /* \"Desktop/DigitalMarketplace/contracts/MarketPlace.sol\":6933:7208  function getSellableProductDetails(uint256 _productId) external view returns (SellableProduct memory) {\r... */\n      swap2\n      swap1\n      pop\n      jump\t// out\n        /* \"Desktop/DigitalMarketplace/contracts/MarketPlace.sol\":2391:2757  function addNonSellableProduct(string memory _name, string memory _description, string memory _link, string[] memory _tags) external {\r... */\n    tag_140:\n        /* \"Desktop/DigitalMarketplace/contracts/MarketPlace.sol\":2535:2545  uint256 id */\n      0x00\n        /* \"Desktop/DigitalMarketplace/contracts/MarketPlace.sol\":2548:2555  idCount */\n      0x01\n      0x00\n        /* \"Desktop/DigitalMarketplace/contracts/MarketPlace.sol\":2548:2557  idCount++ */\n      dup2\n      sload\n      dup1\n      swap3\n      swap2\n      swap1\n      tag_541\n      swap1\n      tag_171\n      jump\t// in\n    tag_541:\n      swap2\n      swap1\n      pop\n      sstore\n        /* \"Desktop/DigitalMarketplace/contracts/MarketPlace.sol\":2535:2557  uint256 id = idCount++ */\n      swap1\n      pop\n        /* \"Desktop/DigitalMarketplace/contracts/MarketPlace.sol\":2568:2590  Product memory product */\n      0x00\n        /* \"Desktop/DigitalMarketplace/contracts/MarketPlace.sol\":2593:2658  Product(id, msg.sender, _name, _description, _link, _tags, false) */\n      mload(0x40)\n      dup1\n      0xe0\n      add\n      0x40\n      mstore\n      dup1\n        /* \"Desktop/DigitalMarketplace/contracts/MarketPlace.sol\":2601:2603  id */\n      dup4\n        /* \"Desktop/DigitalMarketplace/contracts/MarketPlace.sol\":2593:2658  Product(id, msg.sender, _name, _description, _link, _tags, false) */\n      dup2\n      mstore\n      0x20\n      add\n        /* \"Desktop/DigitalMarketplace/contracts/MarketPlace.sol\":2605:2615  msg.sender */\n      caller\n        /* \"Desktop/DigitalMarketplace/contracts/MarketPlace.sol\":2593:2658  Product(id, msg.sender, _name, _description, _link, _tags, false) */\n      0xffffffffffffffffffffffffffffffffffffffff\n      and\n      dup2\n      mstore\n      0x20\n      add\n        /* \"Desktop/DigitalMarketplace/contracts/MarketPlace.sol\":2617:2622  _name */\n      dup8\n        /* \"Desktop/DigitalMarketplace/contracts/MarketPlace.sol\":2593:2658  Product(id, msg.sender, _name, _description, _link, _tags, false) */\n      dup2\n      mstore\n      0x20\n      add\n        /* \"Desktop/DigitalMarketplace/contracts/MarketPlace.sol\":2624:2636  _description */\n      dup7\n        /* \"Desktop/DigitalMarketplace/contracts/MarketPlace.sol\":2593:2658  Product(id, msg.sender, _name, _description, _link, _tags, false) */\n      dup2\n      mstore\n      0x20\n      add\n        /* \"Desktop/DigitalMarketplace/contracts/MarketPlace.sol\":2638:2643  _link */\n      dup6\n        /* \"Desktop/DigitalMarketplace/contracts/MarketPlace.sol\":2593:2658  Product(id, msg.sender, _name, _description, _link, _tags, false) */\n      dup2\n      mstore\n      0x20\n      add\n        /* \"Desktop/DigitalMarketplace/contracts/MarketPlace.sol\":2645:2650  _tags */\n      dup5\n        /* \"Desktop/DigitalMarketplace/contracts/MarketPlace.sol\":2593:2658  Product(id, msg.sender, _name, _description, _link, _tags, false) */\n      dup2\n      mstore\n      0x20\n      add\n        /* \"Desktop/DigitalMarketplace/contracts/MarketPlace.sol\":2652:2657  false */\n      0x00\n        /* \"Desktop/DigitalMarketplace/contracts/MarketPlace.sol\":2593:2658  Product(id, msg.sender, _name, _description, _link, _tags, false) */\n      iszero\n      iszero\n      dup2\n      mstore\n      pop\n        /* \"Desktop/DigitalMarketplace/contracts/MarketPlace.sol\":2568:2658  Product memory product = Product(id, msg.sender, _name, _description, _link, _tags, false) */\n      swap1\n      pop\n        /* \"Desktop/DigitalMarketplace/contracts/MarketPlace.sol\":2669:2677  products */\n      0x07\n        /* \"Desktop/DigitalMarketplace/contracts/MarketPlace.sol\":2683:2690  product */\n      dup2\n        /* \"Desktop/DigitalMarketplace/contracts/MarketPlace.sol\":2669:2691  products.push(product) */\n      swap1\n      dup1\n      0x01\n      dup2\n      sload\n      add\n      dup1\n      dup3\n      sstore\n      dup1\n      swap2\n      pop\n      pop\n      0x01\n      swap1\n      sub\n      swap1\n      0x00\n      mstore\n      keccak256(0x00, 0x20)\n      swap1\n      0x07\n      mul\n      add\n      0x00\n      swap1\n      swap2\n      swap1\n      swap2\n      swap1\n      swap2\n      pop\n      0x00\n      dup3\n      add\n      mload\n      dup2\n      0x00\n      add\n      sstore\n      0x20\n      dup3\n      add\n      mload\n      dup2\n      0x01\n      add\n      exp(0x0100, 0x00)\n      dup2\n      sload\n      dup2\n      0xffffffffffffffffffffffffffffffffffffffff\n      mul\n      not\n      and\n      swap1\n      dup4\n      0xffffffffffffffffffffffffffffffffffffffff\n      and\n      mul\n      or\n      swap1\n      sstore\n      pop\n      0x40\n      dup3\n      add\n      mload\n      dup2\n      0x02\n      add\n      swap1\n      dup1\n      mload\n      swap1\n      0x20\n      add\n      swap1\n      tag_543\n      swap3\n      swap2\n      swap1\n      tag_174\n      jump\t// in\n    tag_543:\n      pop\n      0x60\n      dup3\n      add\n      mload\n      dup2\n      0x03\n      add\n      swap1\n      dup1\n      mload\n      swap1\n      0x20\n      add\n      swap1\n      tag_544\n      swap3\n      swap2\n      swap1\n      tag_174\n      jump\t// in\n    tag_544:\n      pop\n      0x80\n      dup3\n      add\n      mload\n      dup2\n      0x04\n      add\n      swap1\n      dup1\n      mload\n      swap1\n      0x20\n      add\n      swap1\n      tag_545\n      swap3\n      swap2\n      swap1\n      tag_174\n      jump\t// in\n    tag_545:\n      pop\n      0xa0\n      dup3\n      add\n      mload\n      dup2\n      0x05\n      add\n      swap1\n      dup1\n      mload\n      swap1\n      0x20\n      add\n      swap1\n      tag_546\n      swap3\n      swap2\n      swap1\n      tag_178\n      jump\t// in\n    tag_546:\n      pop\n      0xc0\n      dup3\n      add\n      mload\n      dup2\n      0x06\n      add\n      exp(0x0100, 0x00)\n      dup2\n      sload\n      dup2\n      0xff\n      mul\n      not\n      and\n      swap1\n      dup4\n      iszero\n      iszero\n      mul\n      or\n      swap1\n      sstore\n      pop\n      pop\n      pop\n        /* \"Desktop/DigitalMarketplace/contracts/MarketPlace.sol\":2745:2749  true */\n      0x01\n        /* \"Desktop/DigitalMarketplace/contracts/MarketPlace.sol\":2702:2726  ownedNonSellableProducts */\n      0x03\n        /* \"Desktop/DigitalMarketplace/contracts/MarketPlace.sol\":2702:2738  ownedNonSellableProducts[msg.sender] */\n      0x00\n        /* \"Desktop/DigitalMarketplace/contracts/MarketPlace.sol\":2727:2737  msg.sender */\n      caller\n        /* \"Desktop/DigitalMarketplace/contracts/MarketPlace.sol\":2702:2738  ownedNonSellableProducts[msg.sender] */\n      0xffffffffffffffffffffffffffffffffffffffff\n      and\n      0xffffffffffffffffffffffffffffffffffffffff\n      and\n      dup2\n      mstore\n      0x20\n      add\n      swap1\n      dup2\n      mstore\n      0x20\n      add\n      0x00\n      keccak256\n        /* \"Desktop/DigitalMarketplace/contracts/MarketPlace.sol\":2702:2742  ownedNonSellableProducts[msg.sender][id] */\n      0x00\n        /* \"Desktop/DigitalMarketplace/contracts/MarketPlace.sol\":2739:2741  id */\n      dup5\n        /* \"Desktop/DigitalMarketplace/contracts/MarketPlace.sol\":2702:2742  ownedNonSellableProducts[msg.sender][id] */\n      dup2\n      mstore\n      0x20\n      add\n      swap1\n      dup2\n      mstore\n      0x20\n      add\n      0x00\n      keccak256\n      0x00\n        /* \"Desktop/DigitalMarketplace/contracts/MarketPlace.sol\":2702:2749  ownedNonSellableProducts[msg.sender][id] = true */\n      0x0100\n      exp\n      dup2\n      sload\n      dup2\n      0xff\n      mul\n      not\n      and\n      swap1\n      dup4\n      iszero\n      iszero\n      mul\n      or\n      swap1\n      sstore\n      pop\n        /* \"Desktop/DigitalMarketplace/contracts/MarketPlace.sol\":2524:2757  {\r... */\n      pop\n      pop\n        /* \"Desktop/DigitalMarketplace/contracts/MarketPlace.sol\":2391:2757  function addNonSellableProduct(string memory _name, string memory _description, string memory _link, string[] memory _tags) external {\r... */\n      pop\n      pop\n      pop\n      pop\n      jump\t// out\n        /* \"Desktop/DigitalMarketplace/contracts/MarketPlace.sol\":3520:3724  function listExistingProductForSale(uint256 _productId, uint256 _price) external isProductOwner(_productId, msg.sender) {\r... */\n    tag_144:\n        /* \"Desktop/DigitalMarketplace/contracts/MarketPlace.sol\":3616:3626  _productId */\n      dup2\n        /* \"Desktop/DigitalMarketplace/contracts/MarketPlace.sol\":3628:3638  msg.sender */\n      caller\n        /* \"Desktop/DigitalMarketplace/contracts/MarketPlace.sol\":1287:1293  _owner */\n      dup1\n        /* \"Desktop/DigitalMarketplace/contracts/MarketPlace.sol\":1257:1293  products[_productId].owner == _owner */\n      0xffffffffffffffffffffffffffffffffffffffff\n      and\n        /* \"Desktop/DigitalMarketplace/contracts/MarketPlace.sol\":1257:1265  products */\n      0x07\n        /* \"Desktop/DigitalMarketplace/contracts/MarketPlace.sol\":1266:1276  _productId */\n      dup4\n        /* \"Desktop/DigitalMarketplace/contracts/MarketPlace.sol\":1257:1277  products[_productId] */\n      dup2\n      sload\n      dup2\n      lt\n      tag_548\n      jumpi\n      tag_549\n      tag_166\n      jump\t// in\n    tag_549:\n    tag_548:\n      swap1\n      0x00\n      mstore\n      keccak256(0x00, 0x20)\n      swap1\n      0x07\n      mul\n      add\n        /* \"Desktop/DigitalMarketplace/contracts/MarketPlace.sol\":1257:1283  products[_productId].owner */\n      0x01\n      add\n      0x00\n      swap1\n      sload\n      swap1\n      0x0100\n      exp\n      swap1\n      div\n      0xffffffffffffffffffffffffffffffffffffffff\n      and\n        /* \"Desktop/DigitalMarketplace/contracts/MarketPlace.sol\":1257:1293  products[_productId].owner == _owner */\n      0xffffffffffffffffffffffffffffffffffffffff\n      and\n      eq\n        /* \"Desktop/DigitalMarketplace/contracts/MarketPlace.sol\":1249:1351  require(products[_productId].owner == _owner, \"The supplied address is not the owner of the product!\") */\n      tag_551\n      jumpi\n      mload(0x40)\n      0x08c379a000000000000000000000000000000000000000000000000000000000\n      dup2\n      mstore\n      0x04\n      add\n      tag_552\n      swap1\n      tag_214\n      jump\t// in\n    tag_552:\n      mload(0x40)\n      dup1\n      swap2\n      sub\n      swap1\n      revert\n    tag_551:\n        /* \"Desktop/DigitalMarketplace/contracts/MarketPlace.sol\":3651:3716  transferFromNonSellableToSellable(msg.sender, _productId, _price) */\n      tag_554\n        /* \"Desktop/DigitalMarketplace/contracts/MarketPlace.sol\":3685:3695  msg.sender */\n      caller\n        /* \"Desktop/DigitalMarketplace/contracts/MarketPlace.sol\":3697:3707  _productId */\n      dup6\n        /* \"Desktop/DigitalMarketplace/contracts/MarketPlace.sol\":3709:3715  _price */\n      dup6\n        /* \"Desktop/DigitalMarketplace/contracts/MarketPlace.sol\":3651:3684  transferFromNonSellableToSellable */\n      tag_555\n        /* \"Desktop/DigitalMarketplace/contracts/MarketPlace.sol\":3651:3716  transferFromNonSellableToSellable(msg.sender, _productId, _price) */\n      jump\t// in\n    tag_554:\n        /* \"Desktop/DigitalMarketplace/contracts/MarketPlace.sol\":3520:3724  function listExistingProductForSale(uint256 _productId, uint256 _price) external isProductOwner(_productId, msg.sender) {\r... */\n      pop\n      pop\n      pop\n      pop\n      jump\t// out\n        /* \"Desktop/DigitalMarketplace/contracts/MarketPlace.sol\":15577:15743  function isApprovedForAll(address _owner, address _operator) override external view returns (bool) {\r... */\n    tag_149:\n        /* \"Desktop/DigitalMarketplace/contracts/MarketPlace.sol\":15670:15674  bool */\n      0x00\n        /* \"Desktop/DigitalMarketplace/contracts/MarketPlace.sol\":15694:15716  addressToOperatorCheck */\n      0x05\n        /* \"Desktop/DigitalMarketplace/contracts/MarketPlace.sol\":15694:15724  addressToOperatorCheck[_owner] */\n      0x00\n        /* \"Desktop/DigitalMarketplace/contracts/MarketPlace.sol\":15717:15723  _owner */\n      dup5\n        /* \"Desktop/DigitalMarketplace/contracts/MarketPlace.sol\":15694:15724  addressToOperatorCheck[_owner] */\n      0xffffffffffffffffffffffffffffffffffffffff\n      and\n      0xffffffffffffffffffffffffffffffffffffffff\n      and\n      dup2\n      mstore\n      0x20\n      add\n      swap1\n      dup2\n      mstore\n      0x20\n      add\n      0x00\n      keccak256\n        /* \"Desktop/DigitalMarketplace/contracts/MarketPlace.sol\":15694:15735  addressToOperatorCheck[_owner][_operator] */\n      0x00\n        /* \"Desktop/DigitalMarketplace/contracts/MarketPlace.sol\":15725:15734  _operator */\n      dup4\n        /* \"Desktop/DigitalMarketplace/contracts/MarketPlace.sol\":15694:15735  addressToOperatorCheck[_owner][_operator] */\n      0xffffffffffffffffffffffffffffffffffffffff\n      and\n      0xffffffffffffffffffffffffffffffffffffffff\n      and\n      dup2\n      mstore\n      0x20\n      add\n      swap1\n      dup2\n      mstore\n      0x20\n      add\n      0x00\n      keccak256\n      0x00\n      swap1\n      sload\n      swap1\n      0x0100\n      exp\n      swap1\n      div\n      0xff\n      and\n        /* \"Desktop/DigitalMarketplace/contracts/MarketPlace.sol\":15687:15735  return addressToOperatorCheck[_owner][_operator] */\n      swap1\n      pop\n        /* \"Desktop/DigitalMarketplace/contracts/MarketPlace.sol\":15577:15743  function isApprovedForAll(address _owner, address _operator) override external view returns (bool) {\r... */\n      swap3\n      swap2\n      pop\n      pop\n      jump\t// out\n        /* \"Desktop/DigitalMarketplace/contracts/Ownable.sol\":1980:2181  function transferOwnership(address newOwner) public virtual onlyOwner {\r... */\n    tag_155:\n        /* \"Desktop/DigitalMarketplace/contracts/Ownable.sol\":1302:1314  _msgSender() */\n      tag_558\n        /* \"Desktop/DigitalMarketplace/contracts/Ownable.sol\":1302:1312  _msgSender */\n      tag_236\n        /* \"Desktop/DigitalMarketplace/contracts/Ownable.sol\":1302:1314  _msgSender() */\n      jump\t// in\n    tag_558:\n        /* \"Desktop/DigitalMarketplace/contracts/Ownable.sol\":1291:1314  owner() == _msgSender() */\n      0xffffffffffffffffffffffffffffffffffffffff\n      and\n        /* \"Desktop/DigitalMarketplace/contracts/Ownable.sol\":1291:1298  owner() */\n      tag_559\n        /* \"Desktop/DigitalMarketplace/contracts/Ownable.sol\":1291:1296  owner */\n      tag_109\n        /* \"Desktop/DigitalMarketplace/contracts/Ownable.sol\":1291:1298  owner() */\n      jump\t// in\n    tag_559:\n        /* \"Desktop/DigitalMarketplace/contracts/Ownable.sol\":1291:1314  owner() == _msgSender() */\n      0xffffffffffffffffffffffffffffffffffffffff\n      and\n      eq\n        /* \"Desktop/DigitalMarketplace/contracts/Ownable.sol\":1283:1351  require(owner() == _msgSender(), \"Ownable: caller is not the owner\") */\n      tag_560\n      jumpi\n      mload(0x40)\n      0x08c379a000000000000000000000000000000000000000000000000000000000\n      dup2\n      mstore\n      0x04\n      add\n      tag_561\n      swap1\n      tag_240\n      jump\t// in\n    tag_561:\n      mload(0x40)\n      dup1\n      swap2\n      sub\n      swap1\n      revert\n    tag_560:\n        /* \"Desktop/DigitalMarketplace/contracts/Ownable.sol\":2089:2090  0 */\n      0x00\n        /* \"Desktop/DigitalMarketplace/contracts/Ownable.sol\":2069:2091  newOwner != address(0) */\n      0xffffffffffffffffffffffffffffffffffffffff\n      and\n        /* \"Desktop/DigitalMarketplace/contracts/Ownable.sol\":2069:2077  newOwner */\n      dup2\n        /* \"Desktop/DigitalMarketplace/contracts/Ownable.sol\":2069:2091  newOwner != address(0) */\n      0xffffffffffffffffffffffffffffffffffffffff\n      and\n      eq\n      iszero\n        /* \"Desktop/DigitalMarketplace/contracts/Ownable.sol\":2061:2134  require(newOwner != address(0), \"Ownable: new owner is the zero address\") */\n      tag_563\n      jumpi\n      mload(0x40)\n      0x08c379a000000000000000000000000000000000000000000000000000000000\n      dup2\n      mstore\n      0x04\n      add\n      tag_564\n      swap1\n      tag_565\n      jump\t// in\n    tag_564:\n      mload(0x40)\n      dup1\n      swap2\n      sub\n      swap1\n      revert\n    tag_563:\n        /* \"Desktop/DigitalMarketplace/contracts/Ownable.sol\":2145:2173  _transferOwnership(newOwner) */\n      tag_566\n        /* \"Desktop/DigitalMarketplace/contracts/Ownable.sol\":2164:2172  newOwner */\n      dup2\n        /* \"Desktop/DigitalMarketplace/contracts/Ownable.sol\":2145:2163  _transferOwnership */\n      tag_390\n        /* \"Desktop/DigitalMarketplace/contracts/Ownable.sol\":2145:2173  _transferOwnership(newOwner) */\n      jump\t// in\n    tag_566:\n        /* \"Desktop/DigitalMarketplace/contracts/Ownable.sol\":1980:2181  function transferOwnership(address newOwner) public virtual onlyOwner {\r... */\n      pop\n      jump\t// out\n        /* \"Desktop/DigitalMarketplace/contracts/MarketPlace.sol\":6771:6925  function getHistoryForProduct(uint256 _productId) external view returns (TransactionDetails[] memory) {\r... */\n    tag_159:\n        /* \"Desktop/DigitalMarketplace/contracts/MarketPlace.sol\":6844:6871  TransactionDetails[] memory */\n      0x60\n        /* \"Desktop/DigitalMarketplace/contracts/MarketPlace.sol\":6891:6905  productHistory */\n      0x06\n        /* \"Desktop/DigitalMarketplace/contracts/MarketPlace.sol\":6891:6917  productHistory[_productId] */\n      0x00\n        /* \"Desktop/DigitalMarketplace/contracts/MarketPlace.sol\":6906:6916  _productId */\n      dup4\n        /* \"Desktop/DigitalMarketplace/contracts/MarketPlace.sol\":6891:6917  productHistory[_productId] */\n      dup2\n      mstore\n      0x20\n      add\n      swap1\n      dup2\n      mstore\n      0x20\n      add\n      0x00\n      keccak256\n        /* \"Desktop/DigitalMarketplace/contracts/MarketPlace.sol\":6884:6917  return productHistory[_productId] */\n      dup1\n      sload\n      dup1\n      0x20\n      mul\n      0x20\n      add\n      mload(0x40)\n      swap1\n      dup2\n      add\n      0x40\n      mstore\n      dup1\n      swap3\n      swap2\n      swap1\n      dup2\n      dup2\n      mstore\n      0x20\n      add\n      0x00\n      swap1\n    tag_568:\n      dup3\n      dup3\n      lt\n      iszero\n      tag_569\n      jumpi\n      dup4\n      dup3\n      swap1\n      0x00\n      mstore\n      keccak256(0x00, 0x20)\n      swap1\n      0x05\n      mul\n      add\n      mload(0x40)\n      dup1\n      0xa0\n      add\n      0x40\n      mstore\n      swap1\n      dup2\n      0x00\n      dup3\n      add\n      sload\n      dup2\n      mstore\n      0x20\n      add\n      0x01\n      dup3\n      add\n      sload\n      dup2\n      mstore\n      0x20\n      add\n      0x02\n      dup3\n      add\n      sload\n      dup2\n      mstore\n      0x20\n      add\n      0x03\n      dup3\n      add\n      0x00\n      swap1\n      sload\n      swap1\n      0x0100\n      exp\n      swap1\n      div\n      0xffffffffffffffffffffffffffffffffffffffff\n      and\n      0xffffffffffffffffffffffffffffffffffffffff\n      and\n      0xffffffffffffffffffffffffffffffffffffffff\n      and\n      dup2\n      mstore\n      0x20\n      add\n      0x04\n      dup3\n      add\n      0x00\n      swap1\n      sload\n      swap1\n      0x0100\n      exp\n      swap1\n      div\n      0xffffffffffffffffffffffffffffffffffffffff\n      and\n      0xffffffffffffffffffffffffffffffffffffffff\n      and\n      0xffffffffffffffffffffffffffffffffffffffff\n      and\n      dup2\n      mstore\n      pop\n      pop\n      dup2\n      mstore\n      0x20\n      add\n      swap1\n      0x01\n      add\n      swap1\n      jump(tag_568)\n    tag_569:\n      pop\n      pop\n      pop\n      pop\n      swap1\n      pop\n        /* \"Desktop/DigitalMarketplace/contracts/MarketPlace.sol\":6771:6925  function getHistoryForProduct(uint256 _productId) external view returns (TransactionDetails[] memory) {\r... */\n      swap2\n      swap1\n      pop\n      jump\t// out\n        /* \"Desktop/DigitalMarketplace/contracts/MarketPlace.sol\":2765:3141  function transferFromSellableToNonSellable(address _ownerSellable, address _ownerNonSellable, uint256 _productId) internal {\r... */\n    tag_231:\n        /* \"Desktop/DigitalMarketplace/contracts/MarketPlace.sol\":2957:2961  true */\n      0x01\n        /* \"Desktop/DigitalMarketplace/contracts/MarketPlace.sol\":2899:2923  ownedNonSellableProducts */\n      0x03\n        /* \"Desktop/DigitalMarketplace/contracts/MarketPlace.sol\":2899:2942  ownedNonSellableProducts[_ownerNonSellable] */\n      0x00\n        /* \"Desktop/DigitalMarketplace/contracts/MarketPlace.sol\":2924:2941  _ownerNonSellable */\n      dup5\n        /* \"Desktop/DigitalMarketplace/contracts/MarketPlace.sol\":2899:2942  ownedNonSellableProducts[_ownerNonSellable] */\n      0xffffffffffffffffffffffffffffffffffffffff\n      and\n      0xffffffffffffffffffffffffffffffffffffffff\n      and\n      dup2\n      mstore\n      0x20\n      add\n      swap1\n      dup2\n      mstore\n      0x20\n      add\n      0x00\n      keccak256\n        /* \"Desktop/DigitalMarketplace/contracts/MarketPlace.sol\":2899:2954  ownedNonSellableProducts[_ownerNonSellable][_productId] */\n      0x00\n        /* \"Desktop/DigitalMarketplace/contracts/MarketPlace.sol\":2943:2953  _productId */\n      dup4\n        /* \"Desktop/DigitalMarketplace/contracts/MarketPlace.sol\":2899:2954  ownedNonSellableProducts[_ownerNonSellable][_productId] */\n      dup2\n      mstore\n      0x20\n      add\n      swap1\n      dup2\n      mstore\n      0x20\n      add\n      0x00\n      keccak256\n      0x00\n        /* \"Desktop/DigitalMarketplace/contracts/MarketPlace.sol\":2899:2961  ownedNonSellableProducts[_ownerNonSellable][_productId] = true */\n      0x0100\n      exp\n      dup2\n      sload\n      dup2\n      0xff\n      mul\n      not\n      and\n      swap1\n      dup4\n      iszero\n      iszero\n      mul\n      or\n      swap1\n      sstore\n      pop\n        /* \"Desktop/DigitalMarketplace/contracts/MarketPlace.sol\":3001:3018  _ownerNonSellable */\n      dup2\n        /* \"Desktop/DigitalMarketplace/contracts/MarketPlace.sol\":2972:2980  products */\n      0x07\n        /* \"Desktop/DigitalMarketplace/contracts/MarketPlace.sol\":2981:2991  _productId */\n      dup3\n        /* \"Desktop/DigitalMarketplace/contracts/MarketPlace.sol\":2972:2992  products[_productId] */\n      dup2\n      sload\n      dup2\n      lt\n      tag_572\n      jumpi\n      tag_573\n      tag_166\n      jump\t// in\n    tag_573:\n    tag_572:\n      swap1\n      0x00\n      mstore\n      keccak256(0x00, 0x20)\n      swap1\n      0x07\n      mul\n      add\n        /* \"Desktop/DigitalMarketplace/contracts/MarketPlace.sol\":2972:2998  products[_productId].owner */\n      0x01\n      add\n      0x00\n        /* \"Desktop/DigitalMarketplace/contracts/MarketPlace.sol\":2972:3018  products[_productId].owner = _ownerNonSellable */\n      0x0100\n      exp\n      dup2\n      sload\n      dup2\n      0xffffffffffffffffffffffffffffffffffffffff\n      mul\n      not\n      and\n      swap1\n      dup4\n      0xffffffffffffffffffffffffffffffffffffffff\n      and\n      mul\n      or\n      swap1\n      sstore\n      pop\n        /* \"Desktop/DigitalMarketplace/contracts/MarketPlace.sol\":3060:3065  false */\n      0x00\n        /* \"Desktop/DigitalMarketplace/contracts/MarketPlace.sol\":3029:3037  products */\n      0x07\n        /* \"Desktop/DigitalMarketplace/contracts/MarketPlace.sol\":3038:3048  _productId */\n      dup3\n        /* \"Desktop/DigitalMarketplace/contracts/MarketPlace.sol\":3029:3049  products[_productId] */\n      dup2\n      sload\n      dup2\n      lt\n      tag_575\n      jumpi\n      tag_576\n      tag_166\n      jump\t// in\n    tag_576:\n    tag_575:\n      swap1\n      0x00\n      mstore\n      keccak256(0x00, 0x20)\n      swap1\n      0x07\n      mul\n      add\n        /* \"Desktop/DigitalMarketplace/contracts/MarketPlace.sol\":3029:3057  products[_productId].forSale */\n      0x06\n      add\n      0x00\n        /* \"Desktop/DigitalMarketplace/contracts/MarketPlace.sol\":3029:3065  products[_productId].forSale = false */\n      0x0100\n      exp\n      dup2\n      sload\n      dup2\n      0xff\n      mul\n      not\n      and\n      swap1\n      dup4\n      iszero\n      iszero\n      mul\n      or\n      swap1\n      sstore\n      pop\n        /* \"Desktop/DigitalMarketplace/contracts/MarketPlace.sol\":3083:3104  ownedSellableProducts */\n      0x02\n        /* \"Desktop/DigitalMarketplace/contracts/MarketPlace.sol\":3083:3120  ownedSellableProducts[_ownerSellable] */\n      0x00\n        /* \"Desktop/DigitalMarketplace/contracts/MarketPlace.sol\":3105:3119  _ownerSellable */\n      dup5\n        /* \"Desktop/DigitalMarketplace/contracts/MarketPlace.sol\":3083:3120  ownedSellableProducts[_ownerSellable] */\n      0xffffffffffffffffffffffffffffffffffffffff\n      and\n      0xffffffffffffffffffffffffffffffffffffffff\n      and\n      dup2\n      mstore\n      0x20\n      add\n      swap1\n      dup2\n      mstore\n      0x20\n      add\n      0x00\n      keccak256\n        /* \"Desktop/DigitalMarketplace/contracts/MarketPlace.sol\":3083:3132  ownedSellableProducts[_ownerSellable][_productId] */\n      0x00\n        /* \"Desktop/DigitalMarketplace/contracts/MarketPlace.sol\":3121:3131  _productId */\n      dup3\n        /* \"Desktop/DigitalMarketplace/contracts/MarketPlace.sol\":3083:3132  ownedSellableProducts[_ownerSellable][_productId] */\n      dup2\n      mstore\n      0x20\n      add\n      swap1\n      dup2\n      mstore\n      0x20\n      add\n      0x00\n      keccak256\n      0x00\n        /* \"Desktop/DigitalMarketplace/contracts/MarketPlace.sol\":3076:3133  delete(ownedSellableProducts[_ownerSellable][_productId]) */\n      dup1\n      dup3\n      add\n      0x00\n      swap1\n      sstore\n      0x01\n      dup3\n      add\n      0x00\n      swap1\n      sstore\n      0x02\n      dup3\n      add\n      0x00\n      swap1\n      sstore\n      0x03\n      dup3\n      add\n      0x00\n      swap1\n      sstore\n      pop\n      pop\n        /* \"Desktop/DigitalMarketplace/contracts/MarketPlace.sol\":2765:3141  function transferFromSellableToNonSellable(address _ownerSellable, address _ownerNonSellable, uint256 _productId) internal {\r... */\n      pop\n      pop\n      pop\n      jump\t// out\n        /* \"Desktop/DigitalMarketplace/contracts/Context.sol\":656:754  function _msgSender() internal view virtual returns (address) {\r... */\n    tag_236:\n        /* \"Desktop/DigitalMarketplace/contracts/Context.sol\":709:716  address */\n      0x00\n        /* \"Desktop/DigitalMarketplace/contracts/Context.sol\":736:746  msg.sender */\n      caller\n        /* \"Desktop/DigitalMarketplace/contracts/Context.sol\":729:746  return msg.sender */\n      swap1\n      pop\n        /* \"Desktop/DigitalMarketplace/contracts/Context.sol\":656:754  function _msgSender() internal view virtual returns (address) {\r... */\n      swap1\n      jump\t// out\n        /* \"Desktop/DigitalMarketplace/contracts/Ownable.sol\":2341:2532  function _transferOwnership(address newOwner) internal virtual {\r... */\n    tag_390:\n        /* \"Desktop/DigitalMarketplace/contracts/Ownable.sol\":2415:2431  address oldOwner */\n      0x00\n        /* \"Desktop/DigitalMarketplace/contracts/Ownable.sol\":2434:2440  _owner */\n      dup1\n      0x00\n      swap1\n      sload\n      swap1\n      0x0100\n      exp\n      swap1\n      div\n      0xffffffffffffffffffffffffffffffffffffffff\n      and\n        /* \"Desktop/DigitalMarketplace/contracts/Ownable.sol\":2415:2440  address oldOwner = _owner */\n      swap1\n      pop\n        /* \"Desktop/DigitalMarketplace/contracts/Ownable.sol\":2460:2468  newOwner */\n      dup2\n        /* \"Desktop/DigitalMarketplace/contracts/Ownable.sol\":2451:2457  _owner */\n      0x00\n      dup1\n        /* \"Desktop/DigitalMarketplace/contracts/Ownable.sol\":2451:2468  _owner = newOwner */\n      0x0100\n      exp\n      dup2\n      sload\n      dup2\n      0xffffffffffffffffffffffffffffffffffffffff\n      mul\n      not\n      and\n      swap1\n      dup4\n      0xffffffffffffffffffffffffffffffffffffffff\n      and\n      mul\n      or\n      swap1\n      sstore\n      pop\n        /* \"Desktop/DigitalMarketplace/contracts/Ownable.sol\":2515:2523  newOwner */\n      dup2\n        /* \"Desktop/DigitalMarketplace/contracts/Ownable.sol\":2484:2524  OwnershipTransferred(oldOwner, newOwner) */\n      0xffffffffffffffffffffffffffffffffffffffff\n      and\n        /* \"Desktop/DigitalMarketplace/contracts/Ownable.sol\":2505:2513  oldOwner */\n      dup2\n        /* \"Desktop/DigitalMarketplace/contracts/Ownable.sol\":2484:2524  OwnershipTransferred(oldOwner, newOwner) */\n      0xffffffffffffffffffffffffffffffffffffffff\n      and\n      0x8be0079c531659141344cd1fd0a4f28419497f9722a3daafe3b4186f6b6457e0\n      mload(0x40)\n      mload(0x40)\n      dup1\n      swap2\n      sub\n      swap1\n      log3\n        /* \"Desktop/DigitalMarketplace/contracts/Ownable.sol\":2404:2532  {\r... */\n      pop\n        /* \"Desktop/DigitalMarketplace/contracts/Ownable.sol\":2341:2532  function _transferOwnership(address newOwner) internal virtual {\r... */\n      pop\n      jump\t// out\n        /* \"Desktop/DigitalMarketplace/contracts/MarketPlace.sol\":7216:7991  function containsWord(string memory _what, string memory _where) internal pure returns (bool found) {\r... */\n    tag_451:\n        /* \"Desktop/DigitalMarketplace/contracts/MarketPlace.sol\":7304:7314  bool found */\n      0x00\n        /* \"Desktop/DigitalMarketplace/contracts/MarketPlace.sol\":7327:7349  bytes memory whatBytes */\n      dup1\n        /* \"Desktop/DigitalMarketplace/contracts/MarketPlace.sol\":7358:7363  _what */\n      dup4\n        /* \"Desktop/DigitalMarketplace/contracts/MarketPlace.sol\":7327:7364  bytes memory whatBytes = bytes(_what) */\n      swap1\n      pop\n        /* \"Desktop/DigitalMarketplace/contracts/MarketPlace.sol\":7375:7398  bytes memory whereBytes */\n      0x00\n        /* \"Desktop/DigitalMarketplace/contracts/MarketPlace.sol\":7407:7413  _where */\n      dup4\n        /* \"Desktop/DigitalMarketplace/contracts/MarketPlace.sol\":7375:7414  bytes memory whereBytes = bytes(_where) */\n      swap1\n      pop\n        /* \"Desktop/DigitalMarketplace/contracts/MarketPlace.sol\":7449:7458  whatBytes */\n      dup2\n        /* \"Desktop/DigitalMarketplace/contracts/MarketPlace.sol\":7449:7465  whatBytes.length */\n      mload\n        /* \"Desktop/DigitalMarketplace/contracts/MarketPlace.sol\":7429:7439  whereBytes */\n      dup2\n        /* \"Desktop/DigitalMarketplace/contracts/MarketPlace.sol\":7429:7446  whereBytes.length */\n      mload\n        /* \"Desktop/DigitalMarketplace/contracts/MarketPlace.sol\":7429:7465  whereBytes.length < whatBytes.length */\n      lt\n        /* \"Desktop/DigitalMarketplace/contracts/MarketPlace.sol\":7425:7508  if (whereBytes.length < whatBytes.length) { \r... */\n      iszero\n      tag_581\n      jumpi\n        /* \"Desktop/DigitalMarketplace/contracts/MarketPlace.sol\":7490:7495  false */\n      0x00\n        /* \"Desktop/DigitalMarketplace/contracts/MarketPlace.sol\":7483:7495  return false */\n      swap3\n      pop\n      pop\n      pop\n      jump(tag_580)\n        /* \"Desktop/DigitalMarketplace/contracts/MarketPlace.sol\":7425:7508  if (whereBytes.length < whatBytes.length) { \r... */\n    tag_581:\n        /* \"Desktop/DigitalMarketplace/contracts/MarketPlace.sol\":7526:7531  false */\n      0x00\n        /* \"Desktop/DigitalMarketplace/contracts/MarketPlace.sol\":7518:7531  found = false */\n      swap3\n      pop\n        /* \"Desktop/DigitalMarketplace/contracts/MarketPlace.sol\":7547:7553  uint i */\n      0x00\n        /* \"Desktop/DigitalMarketplace/contracts/MarketPlace.sol\":7542:7961  for (uint i = 0; i <= whereBytes.length - whatBytes.length; i++) {\r... */\n    tag_582:\n        /* \"Desktop/DigitalMarketplace/contracts/MarketPlace.sol\":7584:7593  whatBytes */\n      dup3\n        /* \"Desktop/DigitalMarketplace/contracts/MarketPlace.sol\":7584:7600  whatBytes.length */\n      mload\n        /* \"Desktop/DigitalMarketplace/contracts/MarketPlace.sol\":7564:7574  whereBytes */\n      dup3\n        /* \"Desktop/DigitalMarketplace/contracts/MarketPlace.sol\":7564:7581  whereBytes.length */\n      mload\n        /* \"Desktop/DigitalMarketplace/contracts/MarketPlace.sol\":7564:7600  whereBytes.length - whatBytes.length */\n      tag_585\n      swap2\n      swap1\n      tag_586\n      jump\t// in\n    tag_585:\n        /* \"Desktop/DigitalMarketplace/contracts/MarketPlace.sol\":7559:7560  i */\n      dup2\n        /* \"Desktop/DigitalMarketplace/contracts/MarketPlace.sol\":7559:7600  i <= whereBytes.length - whatBytes.length */\n      gt\n        /* \"Desktop/DigitalMarketplace/contracts/MarketPlace.sol\":7542:7961  for (uint i = 0; i <= whereBytes.length - whatBytes.length; i++) {\r... */\n      tag_583\n      jumpi\n        /* \"Desktop/DigitalMarketplace/contracts/MarketPlace.sol\":7622:7631  bool flag */\n      0x00\n        /* \"Desktop/DigitalMarketplace/contracts/MarketPlace.sol\":7634:7638  true */\n      0x01\n        /* \"Desktop/DigitalMarketplace/contracts/MarketPlace.sol\":7622:7638  bool flag = true */\n      swap1\n      pop\n        /* \"Desktop/DigitalMarketplace/contracts/MarketPlace.sol\":7658:7664  uint j */\n      0x00\n        /* \"Desktop/DigitalMarketplace/contracts/MarketPlace.sol\":7653:7855  for (uint j = 0; j < whatBytes.length; j++) {\r... */\n    tag_587:\n        /* \"Desktop/DigitalMarketplace/contracts/MarketPlace.sol\":7674:7683  whatBytes */\n      dup5\n        /* \"Desktop/DigitalMarketplace/contracts/MarketPlace.sol\":7674:7690  whatBytes.length */\n      mload\n        /* \"Desktop/DigitalMarketplace/contracts/MarketPlace.sol\":7670:7671  j */\n      dup2\n        /* \"Desktop/DigitalMarketplace/contracts/MarketPlace.sol\":7670:7690  j < whatBytes.length */\n      lt\n        /* \"Desktop/DigitalMarketplace/contracts/MarketPlace.sol\":7653:7855  for (uint j = 0; j < whatBytes.length; j++) {\r... */\n      iszero\n      tag_588\n      jumpi\n        /* \"Desktop/DigitalMarketplace/contracts/MarketPlace.sol\":7742:7751  whatBytes */\n      dup5\n        /* \"Desktop/DigitalMarketplace/contracts/MarketPlace.sol\":7753:7754  j */\n      dup2\n        /* \"Desktop/DigitalMarketplace/contracts/MarketPlace.sol\":7742:7755  whatBytes [j] */\n      dup2\n      mload\n      dup2\n      lt\n      tag_590\n      jumpi\n      tag_591\n      tag_166\n      jump\t// in\n    tag_591:\n    tag_590:\n      0x20\n      add\n      add\n      mload\n      0xf8\n      shr\n      0xf8\n      shl\n        /* \"Desktop/DigitalMarketplace/contracts/MarketPlace.sol\":7720:7755  whereBytes [i + j] != whatBytes [j] */\n      not(0xffffffffffffffffffffffffffffffffffffffffffffffffffffffffffffff)\n      and\n        /* \"Desktop/DigitalMarketplace/contracts/MarketPlace.sol\":7720:7730  whereBytes */\n      dup5\n        /* \"Desktop/DigitalMarketplace/contracts/MarketPlace.sol\":7736:7737  j */\n      dup3\n        /* \"Desktop/DigitalMarketplace/contracts/MarketPlace.sol\":7732:7733  i */\n      dup6\n        /* \"Desktop/DigitalMarketplace/contracts/MarketPlace.sol\":7732:7737  i + j */\n      tag_592\n      swap2\n      swap1\n      tag_217\n      jump\t// in\n    tag_592:\n        /* \"Desktop/DigitalMarketplace/contracts/MarketPlace.sol\":7720:7738  whereBytes [i + j] */\n      dup2\n      mload\n      dup2\n      lt\n      tag_593\n      jumpi\n      tag_594\n      tag_166\n      jump\t// in\n    tag_594:\n    tag_593:\n      0x20\n      add\n      add\n      mload\n      0xf8\n      shr\n      0xf8\n      shl\n        /* \"Desktop/DigitalMarketplace/contracts/MarketPlace.sol\":7720:7755  whereBytes [i + j] != whatBytes [j] */\n      not(0xffffffffffffffffffffffffffffffffffffffffffffffffffffffffffffff)\n      and\n      eq\n        /* \"Desktop/DigitalMarketplace/contracts/MarketPlace.sol\":7716:7840  if (whereBytes [i + j] != whatBytes [j]) {\r... */\n      tag_595\n      jumpi\n        /* \"Desktop/DigitalMarketplace/contracts/MarketPlace.sol\":7787:7792  false */\n      0x00\n        /* \"Desktop/DigitalMarketplace/contracts/MarketPlace.sol\":7780:7792  flag = false */\n      swap2\n      pop\n        /* \"Desktop/DigitalMarketplace/contracts/MarketPlace.sol\":7815:7820  break */\n      jump(tag_588)\n        /* \"Desktop/DigitalMarketplace/contracts/MarketPlace.sol\":7716:7840  if (whereBytes [i + j] != whatBytes [j]) {\r... */\n    tag_595:\n        /* \"Desktop/DigitalMarketplace/contracts/MarketPlace.sol\":7692:7695  j++ */\n      dup1\n      dup1\n      tag_596\n      swap1\n      tag_171\n      jump\t// in\n    tag_596:\n      swap2\n      pop\n      pop\n        /* \"Desktop/DigitalMarketplace/contracts/MarketPlace.sol\":7653:7855  for (uint j = 0; j < whatBytes.length; j++) {\r... */\n      jump(tag_587)\n    tag_588:\n      pop\n        /* \"Desktop/DigitalMarketplace/contracts/MarketPlace.sol\":7873:7877  flag */\n      dup1\n        /* \"Desktop/DigitalMarketplace/contracts/MarketPlace.sol\":7869:7950  if (flag) {\r... */\n      iszero\n      tag_597\n      jumpi\n        /* \"Desktop/DigitalMarketplace/contracts/MarketPlace.sol\":7906:7910  true */\n      0x01\n        /* \"Desktop/DigitalMarketplace/contracts/MarketPlace.sol\":7898:7910  found = true */\n      swap5\n      pop\n        /* \"Desktop/DigitalMarketplace/contracts/MarketPlace.sol\":7929:7934  break */\n      pop\n      jump(tag_583)\n        /* \"Desktop/DigitalMarketplace/contracts/MarketPlace.sol\":7869:7950  if (flag) {\r... */\n    tag_597:\n        /* \"Desktop/DigitalMarketplace/contracts/MarketPlace.sol\":7607:7961  {\r... */\n      pop\n        /* \"Desktop/DigitalMarketplace/contracts/MarketPlace.sol\":7602:7605  i++ */\n      dup1\n      dup1\n      tag_598\n      swap1\n      tag_171\n      jump\t// in\n    tag_598:\n      swap2\n      pop\n      pop\n        /* \"Desktop/DigitalMarketplace/contracts/MarketPlace.sol\":7542:7961  for (uint i = 0; i <= whereBytes.length - whatBytes.length; i++) {\r... */\n      jump(tag_582)\n    tag_583:\n      pop\n        /* \"Desktop/DigitalMarketplace/contracts/MarketPlace.sol\":7971:7983  return found */\n      pop\n      pop\n        /* \"Desktop/DigitalMarketplace/contracts/MarketPlace.sol\":7216:7991  function containsWord(string memory _what, string memory _where) internal pure returns (bool found) {\r... */\n    tag_580:\n      swap3\n      swap2\n      pop\n      pop\n      jump\t// out\n        /* \"Desktop/DigitalMarketplace/contracts/MarketPlace.sol\":3149:3512  function transferFromNonSellableToSellable(address _owner, uint256 _productId, uint256 _price) internal {\r... */\n    tag_555:\n        /* \"Desktop/DigitalMarketplace/contracts/MarketPlace.sol\":3308:3395  SellableProduct(_price, _price * feePricePercentage / 100, block.timestamp, _productId) */\n      mload(0x40)\n      dup1\n      0x80\n      add\n      0x40\n      mstore\n      dup1\n        /* \"Desktop/DigitalMarketplace/contracts/MarketPlace.sol\":3324:3330  _price */\n      dup3\n        /* \"Desktop/DigitalMarketplace/contracts/MarketPlace.sol\":3308:3395  SellableProduct(_price, _price * feePricePercentage / 100, block.timestamp, _productId) */\n      dup2\n      mstore\n      0x20\n      add\n        /* \"Desktop/DigitalMarketplace/contracts/MarketPlace.sol\":3362:3365  100 */\n      0x64\n        /* \"Desktop/DigitalMarketplace/contracts/MarketPlace.sol\":3341:3359  feePricePercentage */\n      sload(0x08)\n        /* \"Desktop/DigitalMarketplace/contracts/MarketPlace.sol\":3332:3338  _price */\n      dup5\n        /* \"Desktop/DigitalMarketplace/contracts/MarketPlace.sol\":3332:3359  _price * feePricePercentage */\n      tag_600\n      swap2\n      swap1\n      tag_180\n      jump\t// in\n    tag_600:\n        /* \"Desktop/DigitalMarketplace/contracts/MarketPlace.sol\":3332:3365  _price * feePricePercentage / 100 */\n      tag_601\n      swap2\n      swap1\n      tag_182\n      jump\t// in\n    tag_601:\n        /* \"Desktop/DigitalMarketplace/contracts/MarketPlace.sol\":3308:3395  SellableProduct(_price, _price * feePricePercentage / 100, block.timestamp, _productId) */\n      dup2\n      mstore\n      0x20\n      add\n        /* \"Desktop/DigitalMarketplace/contracts/MarketPlace.sol\":3367:3382  block.timestamp */\n      timestamp\n        /* \"Desktop/DigitalMarketplace/contracts/MarketPlace.sol\":3308:3395  SellableProduct(_price, _price * feePricePercentage / 100, block.timestamp, _productId) */\n      dup2\n      mstore\n      0x20\n      add\n        /* \"Desktop/DigitalMarketplace/contracts/MarketPlace.sol\":3384:3394  _productId */\n      dup4\n        /* \"Desktop/DigitalMarketplace/contracts/MarketPlace.sol\":3308:3395  SellableProduct(_price, _price * feePricePercentage / 100, block.timestamp, _productId) */\n      dup2\n      mstore\n      pop\n        /* \"Desktop/DigitalMarketplace/contracts/MarketPlace.sol\":3264:3285  ownedSellableProducts */\n      0x02\n        /* \"Desktop/DigitalMarketplace/contracts/MarketPlace.sol\":3264:3293  ownedSellableProducts[_owner] */\n      0x00\n        /* \"Desktop/DigitalMarketplace/contracts/MarketPlace.sol\":3286:3292  _owner */\n      dup6\n        /* \"Desktop/DigitalMarketplace/contracts/MarketPlace.sol\":3264:3293  ownedSellableProducts[_owner] */\n      0xffffffffffffffffffffffffffffffffffffffff\n      and\n      0xffffffffffffffffffffffffffffffffffffffff\n      and\n      dup2\n      mstore\n      0x20\n      add\n      swap1\n      dup2\n      mstore\n      0x20\n      add\n      0x00\n      keccak256\n        /* \"Desktop/DigitalMarketplace/contracts/MarketPlace.sol\":3264:3305  ownedSellableProducts[_owner][_productId] */\n      0x00\n        /* \"Desktop/DigitalMarketplace/contracts/MarketPlace.sol\":3294:3304  _productId */\n      dup5\n        /* \"Desktop/DigitalMarketplace/contracts/MarketPlace.sol\":3264:3305  ownedSellableProducts[_owner][_productId] */\n      dup2\n      mstore\n      0x20\n      add\n      swap1\n      dup2\n      mstore\n      0x20\n      add\n      0x00\n      keccak256\n        /* \"Desktop/DigitalMarketplace/contracts/MarketPlace.sol\":3264:3395  ownedSellableProducts[_owner][_productId] = SellableProduct(_price, _price * feePricePercentage / 100, block.timestamp, _productId) */\n      0x00\n      dup3\n      add\n      mload\n      dup2\n      0x00\n      add\n      sstore\n      0x20\n      dup3\n      add\n      mload\n      dup2\n      0x01\n      add\n      sstore\n      0x40\n      dup3\n      add\n      mload\n      dup2\n      0x02\n      add\n      sstore\n      0x60\n      dup3\n      add\n      mload\n      dup2\n      0x03\n      add\n      sstore\n      swap1\n      pop\n      pop\n        /* \"Desktop/DigitalMarketplace/contracts/MarketPlace.sol\":3437:3441  true */\n      0x01\n        /* \"Desktop/DigitalMarketplace/contracts/MarketPlace.sol\":3406:3414  products */\n      0x07\n        /* \"Desktop/DigitalMarketplace/contracts/MarketPlace.sol\":3415:3425  _productId */\n      dup4\n        /* \"Desktop/DigitalMarketplace/contracts/MarketPlace.sol\":3406:3426  products[_productId] */\n      dup2\n      sload\n      dup2\n      lt\n      tag_602\n      jumpi\n      tag_603\n      tag_166\n      jump\t// in\n    tag_603:\n    tag_602:\n      swap1\n      0x00\n      mstore\n      keccak256(0x00, 0x20)\n      swap1\n      0x07\n      mul\n      add\n        /* \"Desktop/DigitalMarketplace/contracts/MarketPlace.sol\":3406:3434  products[_productId].forSale */\n      0x06\n      add\n      0x00\n        /* \"Desktop/DigitalMarketplace/contracts/MarketPlace.sol\":3406:3441  products[_productId].forSale = true */\n      0x0100\n      exp\n      dup2\n      sload\n      dup2\n      0xff\n      mul\n      not\n      and\n      swap1\n      dup4\n      iszero\n      iszero\n      mul\n      or\n      swap1\n      sstore\n      pop\n        /* \"Desktop/DigitalMarketplace/contracts/MarketPlace.sol\":3459:3483  ownedNonSellableProducts */\n      0x03\n        /* \"Desktop/DigitalMarketplace/contracts/MarketPlace.sol\":3459:3491  ownedNonSellableProducts[_owner] */\n      0x00\n        /* \"Desktop/DigitalMarketplace/contracts/MarketPlace.sol\":3484:3490  _owner */\n      dup5\n        /* \"Desktop/DigitalMarketplace/contracts/MarketPlace.sol\":3459:3491  ownedNonSellableProducts[_owner] */\n      0xffffffffffffffffffffffffffffffffffffffff\n      and\n      0xffffffffffffffffffffffffffffffffffffffff\n      and\n      dup2\n      mstore\n      0x20\n      add\n      swap1\n      dup2\n      mstore\n      0x20\n      add\n      0x00\n      keccak256\n        /* \"Desktop/DigitalMarketplace/contracts/MarketPlace.sol\":3459:3503  ownedNonSellableProducts[_owner][_productId] */\n      0x00\n        /* \"Desktop/DigitalMarketplace/contracts/MarketPlace.sol\":3492:3502  _productId */\n      dup4\n        /* \"Desktop/DigitalMarketplace/contracts/MarketPlace.sol\":3459:3503  ownedNonSellableProducts[_owner][_productId] */\n      dup2\n      mstore\n      0x20\n      add\n      swap1\n      dup2\n      mstore\n      0x20\n      add\n      0x00\n      keccak256\n      0x00\n        /* \"Desktop/DigitalMarketplace/contracts/MarketPlace.sol\":3452:3504  delete(ownedNonSellableProducts[_owner][_productId]) */\n      0x0100\n      exp\n      dup2\n      sload\n      swap1\n      0xff\n      mul\n      not\n      and\n      swap1\n      sstore\n        /* \"Desktop/DigitalMarketplace/contracts/MarketPlace.sol\":3149:3512  function transferFromNonSellableToSellable(address _owner, uint256 _productId, uint256 _price) internal {\r... */\n      pop\n      pop\n      pop\n      jump\t// out\n    tag_174:\n      dup3\n      dup1\n      sload\n      tag_605\n      swap1\n      tag_270\n      jump\t// in\n    tag_605:\n      swap1\n      0x00\n      mstore\n      keccak256(0x00, 0x20)\n      swap1\n      0x1f\n      add\n      0x20\n      swap1\n      div\n      dup2\n      add\n      swap3\n      dup3\n      tag_607\n      jumpi\n      0x00\n      dup6\n      sstore\n      jump(tag_606)\n    tag_607:\n      dup3\n      0x1f\n      lt\n      tag_608\n      jumpi\n      dup1\n      mload\n      not(0xff)\n      and\n      dup4\n      dup1\n      add\n      or\n      dup6\n      sstore\n      jump(tag_606)\n    tag_608:\n      dup3\n      dup1\n      add\n      0x01\n      add\n      dup6\n      sstore\n      dup3\n      iszero\n      tag_606\n      jumpi\n      swap2\n      dup3\n      add\n    tag_609:\n      dup3\n      dup2\n      gt\n      iszero\n      tag_610\n      jumpi\n      dup3\n      mload\n      dup3\n      sstore\n      swap2\n      0x20\n      add\n      swap2\n      swap1\n      0x01\n      add\n      swap1\n      jump(tag_609)\n    tag_610:\n    tag_606:\n      pop\n      swap1\n      pop\n      tag_611\n      swap2\n      swap1\n      tag_612\n      jump\t// in\n    tag_611:\n      pop\n      swap1\n      jump\t// out\n    tag_178:\n      dup3\n      dup1\n      sload\n      dup3\n      dup3\n      sstore\n      swap1\n      0x00\n      mstore\n      keccak256(0x00, 0x20)\n      swap1\n      dup2\n      add\n      swap3\n      dup3\n      iszero\n      tag_613\n      jumpi\n      swap2\n      0x20\n      mul\n      dup3\n      add\n    tag_614:\n      dup3\n      dup2\n      gt\n      iszero\n      tag_615\n      jumpi\n      dup3\n      mload\n      dup3\n      swap1\n      dup1\n      mload\n      swap1\n      0x20\n      add\n      swap1\n      tag_616\n      swap3\n      swap2\n      swap1\n      tag_174\n      jump\t// in\n    tag_616:\n      pop\n      swap2\n      0x20\n      add\n      swap2\n      swap1\n      0x01\n      add\n      swap1\n      jump(tag_614)\n    tag_615:\n    tag_613:\n      pop\n      swap1\n      pop\n      tag_617\n      swap2\n      swap1\n      tag_618\n      jump\t// in\n    tag_617:\n      pop\n      swap1\n      jump\t// out\n    tag_257:\n      mload(0x40)\n      dup1\n      0xe0\n      add\n      0x40\n      mstore\n      dup1\n      0x00\n      dup2\n      mstore\n      0x20\n      add\n      and(0xffffffffffffffffffffffffffffffffffffffff, 0x00)\n      dup2\n      mstore\n      0x20\n      add\n      0x60\n      dup2\n      mstore\n      0x20\n      add\n      0x60\n      dup2\n      mstore\n      0x20\n      add\n      0x60\n      dup2\n      mstore\n      0x20\n      add\n      0x60\n      dup2\n      mstore\n      0x20\n      add\n      iszero(iszero(0x00))\n      dup2\n      mstore\n      pop\n      swap1\n      jump\t// out\n    tag_511:\n      mload(0x40)\n      dup1\n      0x80\n      add\n      0x40\n      mstore\n      dup1\n      0x00\n      dup2\n      mstore\n      0x20\n      add\n      0x00\n      dup2\n      mstore\n      0x20\n      add\n      0x00\n      dup2\n      mstore\n      0x20\n      add\n      0x00\n      dup2\n      mstore\n      pop\n      swap1\n      jump\t// out\n    tag_612:\n    tag_619:\n      dup1\n      dup3\n      gt\n      iszero\n      tag_620\n      jumpi\n      0x00\n      dup2\n      0x00\n      swap1\n      sstore\n      pop\n      0x01\n      add\n      jump(tag_619)\n    tag_620:\n      pop\n      swap1\n      jump\t// out\n    tag_618:\n    tag_621:\n      dup1\n      dup3\n      gt\n      iszero\n      tag_622\n      jumpi\n      0x00\n      dup2\n      dup2\n      tag_623\n      swap2\n      swap1\n      tag_624\n      jump\t// in\n    tag_623:\n      pop\n      0x01\n      add\n      jump(tag_621)\n    tag_622:\n      pop\n      swap1\n      jump\t// out\n    tag_624:\n      pop\n      dup1\n      sload\n      tag_625\n      swap1\n      tag_270\n      jump\t// in\n    tag_625:\n      0x00\n      dup3\n      sstore\n      dup1\n      0x1f\n      lt\n      tag_627\n      jumpi\n      pop\n      jump(tag_626)\n    tag_627:\n      0x1f\n      add\n      0x20\n      swap1\n      div\n      swap1\n      0x00\n      mstore\n      keccak256(0x00, 0x20)\n      swap1\n      dup2\n      add\n      swap1\n      tag_628\n      swap2\n      swap1\n      tag_612\n      jump\t// in\n    tag_628:\n    tag_626:\n      pop\n      jump\t// out\n        /* \"#utility.yul\":23:980   */\n    tag_630:\n        /* \"#utility.yul\":129:134   */\n      0x00\n        /* \"#utility.yul\":154:245   */\n      tag_632\n        /* \"#utility.yul\":170:244   */\n      tag_633\n        /* \"#utility.yul\":237:243   */\n      dup5\n        /* \"#utility.yul\":170:244   */\n      tag_634\n      jump\t// in\n    tag_633:\n        /* \"#utility.yul\":154:245   */\n      tag_635\n      jump\t// in\n    tag_632:\n        /* \"#utility.yul\":145:245   */\n      swap1\n      pop\n        /* \"#utility.yul\":265:270   */\n      dup1\n        /* \"#utility.yul\":294:300   */\n      dup4\n        /* \"#utility.yul\":287:292   */\n      dup3\n        /* \"#utility.yul\":280:301   */\n      mstore\n        /* \"#utility.yul\":328:332   */\n      0x20\n        /* \"#utility.yul\":321:326   */\n      dup3\n        /* \"#utility.yul\":317:333   */\n      add\n        /* \"#utility.yul\":310:333   */\n      swap1\n      pop\n        /* \"#utility.yul\":354:360   */\n      dup3\n        /* \"#utility.yul\":404:407   */\n      dup6\n        /* \"#utility.yul\":396:400   */\n      0x20\n        /* \"#utility.yul\":388:394   */\n      dup7\n        /* \"#utility.yul\":384:401   */\n      mul\n        /* \"#utility.yul\":379:382   */\n      dup3\n        /* \"#utility.yul\":375:402   */\n      add\n        /* \"#utility.yul\":372:408   */\n      gt\n        /* \"#utility.yul\":369:512   */\n      iszero\n      tag_636\n      jumpi\n        /* \"#utility.yul\":423:502   */\n      tag_637\n      tag_638\n      jump\t// in\n    tag_637:\n        /* \"#utility.yul\":369:512   */\n    tag_636:\n        /* \"#utility.yul\":536:537   */\n      0x00\n        /* \"#utility.yul\":521:974   */\n    tag_639:\n        /* \"#utility.yul\":546:552   */\n      dup6\n        /* \"#utility.yul\":543:544   */\n      dup2\n        /* \"#utility.yul\":540:553   */\n      lt\n        /* \"#utility.yul\":521:974   */\n      iszero\n      tag_641\n      jumpi\n        /* \"#utility.yul\":628:631   */\n      dup2\n        /* \"#utility.yul\":615:632   */\n      calldataload\n        /* \"#utility.yul\":664:682   */\n      0xffffffffffffffff\n        /* \"#utility.yul\":651:662   */\n      dup2\n        /* \"#utility.yul\":648:683   */\n      gt\n        /* \"#utility.yul\":645:767   */\n      iszero\n      tag_642\n      jumpi\n        /* \"#utility.yul\":686:765   */\n      tag_643\n      tag_644\n      jump\t// in\n    tag_643:\n        /* \"#utility.yul\":645:767   */\n    tag_642:\n        /* \"#utility.yul\":810:821   */\n      dup1\n        /* \"#utility.yul\":802:808   */\n      dup7\n        /* \"#utility.yul\":798:822   */\n      add\n        /* \"#utility.yul\":848:895   */\n      tag_645\n        /* \"#utility.yul\":891:894   */\n      dup10\n        /* \"#utility.yul\":879:889   */\n      dup3\n        /* \"#utility.yul\":848:895   */\n      tag_646\n      jump\t// in\n    tag_645:\n        /* \"#utility.yul\":843:846   */\n      dup6\n        /* \"#utility.yul\":836:896   */\n      mstore\n        /* \"#utility.yul\":925:929   */\n      0x20\n        /* \"#utility.yul\":920:923   */\n      dup6\n        /* \"#utility.yul\":916:930   */\n      add\n        /* \"#utility.yul\":909:930   */\n      swap5\n      pop\n        /* \"#utility.yul\":959:963   */\n      0x20\n        /* \"#utility.yul\":954:957   */\n      dup5\n        /* \"#utility.yul\":950:964   */\n      add\n        /* \"#utility.yul\":943:964   */\n      swap4\n      pop\n        /* \"#utility.yul\":581:974   */\n      pop\n      pop\n        /* \"#utility.yul\":568:569   */\n      0x01\n        /* \"#utility.yul\":565:566   */\n      dup2\n        /* \"#utility.yul\":561:570   */\n      add\n        /* \"#utility.yul\":556:570   */\n      swap1\n      pop\n        /* \"#utility.yul\":521:974   */\n      jump(tag_639)\n    tag_641:\n        /* \"#utility.yul\":525:539   */\n      pop\n        /* \"#utility.yul\":135:980   */\n      pop\n      pop\n        /* \"#utility.yul\":23:980   */\n      swap4\n      swap3\n      pop\n      pop\n      pop\n      jump\t// out\n        /* \"#utility.yul\":986:1396   */\n    tag_647:\n        /* \"#utility.yul\":1063:1068   */\n      0x00\n        /* \"#utility.yul\":1088:1153   */\n      tag_649\n        /* \"#utility.yul\":1104:1152   */\n      tag_650\n        /* \"#utility.yul\":1145:1151   */\n      dup5\n        /* \"#utility.yul\":1104:1152   */\n      tag_651\n      jump\t// in\n    tag_650:\n        /* \"#utility.yul\":1088:1153   */\n      tag_635\n      jump\t// in\n    tag_649:\n        /* \"#utility.yul\":1079:1153   */\n      swap1\n      pop\n        /* \"#utility.yul\":1176:1182   */\n      dup3\n        /* \"#utility.yul\":1169:1174   */\n      dup2\n        /* \"#utility.yul\":1162:1183   */\n      mstore\n        /* \"#utility.yul\":1214:1218   */\n      0x20\n        /* \"#utility.yul\":1207:1212   */\n      dup2\n        /* \"#utility.yul\":1203:1219   */\n      add\n        /* \"#utility.yul\":1252:1255   */\n      dup5\n        /* \"#utility.yul\":1243:1249   */\n      dup5\n        /* \"#utility.yul\":1238:1241   */\n      dup5\n        /* \"#utility.yul\":1234:1250   */\n      add\n        /* \"#utility.yul\":1231:1256   */\n      gt\n        /* \"#utility.yul\":1228:1340   */\n      iszero\n      tag_652\n      jumpi\n        /* \"#utility.yul\":1259:1338   */\n      tag_653\n      tag_654\n      jump\t// in\n    tag_653:\n        /* \"#utility.yul\":1228:1340   */\n    tag_652:\n        /* \"#utility.yul\":1349:1390   */\n      tag_655\n        /* \"#utility.yul\":1383:1389   */\n      dup5\n        /* \"#utility.yul\":1378:1381   */\n      dup3\n        /* \"#utility.yul\":1373:1376   */\n      dup6\n        /* \"#utility.yul\":1349:1390   */\n      tag_656\n      jump\t// in\n    tag_655:\n        /* \"#utility.yul\":1069:1396   */\n      pop\n        /* \"#utility.yul\":986:1396   */\n      swap4\n      swap3\n      pop\n      pop\n      pop\n      jump\t// out\n        /* \"#utility.yul\":1402:1814   */\n    tag_657:\n        /* \"#utility.yul\":1480:1485   */\n      0x00\n        /* \"#utility.yul\":1505:1571   */\n      tag_659\n        /* \"#utility.yul\":1521:1570   */\n      tag_660\n        /* \"#utility.yul\":1563:1569   */\n      dup5\n        /* \"#utility.yul\":1521:1570   */\n      tag_661\n      jump\t// in\n    tag_660:\n        /* \"#utility.yul\":1505:1571   */\n      tag_635\n      jump\t// in\n    tag_659:\n        /* \"#utility.yul\":1496:1571   */\n      swap1\n      pop\n        /* \"#utility.yul\":1594:1600   */\n      dup3\n        /* \"#utility.yul\":1587:1592   */\n      dup2\n        /* \"#utility.yul\":1580:1601   */\n      mstore\n        /* \"#utility.yul\":1632:1636   */\n      0x20\n        /* \"#utility.yul\":1625:1630   */\n      dup2\n        /* \"#utility.yul\":1621:1637   */\n      add\n        /* \"#utility.yul\":1670:1673   */\n      dup5\n        /* \"#utility.yul\":1661:1667   */\n      dup5\n        /* \"#utility.yul\":1656:1659   */\n      dup5\n        /* \"#utility.yul\":1652:1668   */\n      add\n        /* \"#utility.yul\":1649:1674   */\n      gt\n        /* \"#utility.yul\":1646:1758   */\n      iszero\n      tag_662\n      jumpi\n        /* \"#utility.yul\":1677:1756   */\n      tag_663\n      tag_654\n      jump\t// in\n    tag_663:\n        /* \"#utility.yul\":1646:1758   */\n    tag_662:\n        /* \"#utility.yul\":1767:1808   */\n      tag_664\n        /* \"#utility.yul\":1801:1807   */\n      dup5\n        /* \"#utility.yul\":1796:1799   */\n      dup3\n        /* \"#utility.yul\":1791:1794   */\n      dup6\n        /* \"#utility.yul\":1767:1808   */\n      tag_656\n      jump\t// in\n    tag_664:\n        /* \"#utility.yul\":1486:1814   */\n      pop\n        /* \"#utility.yul\":1402:1814   */\n      swap4\n      swap3\n      pop\n      pop\n      pop\n      jump\t// out\n        /* \"#utility.yul\":1820:1959   */\n    tag_665:\n        /* \"#utility.yul\":1866:1871   */\n      0x00\n        /* \"#utility.yul\":1904:1910   */\n      dup2\n        /* \"#utility.yul\":1891:1911   */\n      calldataload\n        /* \"#utility.yul\":1882:1911   */\n      swap1\n      pop\n        /* \"#utility.yul\":1920:1953   */\n      tag_667\n        /* \"#utility.yul\":1947:1952   */\n      dup2\n        /* \"#utility.yul\":1920:1953   */\n      tag_668\n      jump\t// in\n    tag_667:\n        /* \"#utility.yul\":1820:1959   */\n      swap3\n      swap2\n      pop\n      pop\n      jump\t// out\n        /* \"#utility.yul\":1981:2371   */\n    tag_669:\n        /* \"#utility.yul\":2062:2067   */\n      0x00\n        /* \"#utility.yul\":2111:2114   */\n      dup3\n        /* \"#utility.yul\":2104:2108   */\n      0x1f\n        /* \"#utility.yul\":2096:2102   */\n      dup4\n        /* \"#utility.yul\":2092:2109   */\n      add\n        /* \"#utility.yul\":2088:2115   */\n      slt\n        /* \"#utility.yul\":2078:2200   */\n      tag_671\n      jumpi\n        /* \"#utility.yul\":2119:2198   */\n      tag_672\n      tag_644\n      jump\t// in\n    tag_672:\n        /* \"#utility.yul\":2078:2200   */\n    tag_671:\n        /* \"#utility.yul\":2236:2242   */\n      dup2\n        /* \"#utility.yul\":2223:2243   */\n      calldataload\n        /* \"#utility.yul\":2261:2365   */\n      tag_673\n        /* \"#utility.yul\":2361:2364   */\n      dup5\n        /* \"#utility.yul\":2353:2359   */\n      dup3\n        /* \"#utility.yul\":2346:2350   */\n      0x20\n        /* \"#utility.yul\":2338:2344   */\n      dup7\n        /* \"#utility.yul\":2334:2351   */\n      add\n        /* \"#utility.yul\":2261:2365   */\n      tag_630\n      jump\t// in\n    tag_673:\n        /* \"#utility.yul\":2252:2365   */\n      swap2\n      pop\n        /* \"#utility.yul\":2068:2371   */\n      pop\n        /* \"#utility.yul\":1981:2371   */\n      swap3\n      swap2\n      pop\n      pop\n      jump\t// out\n        /* \"#utility.yul\":2377:2510   */\n    tag_674:\n        /* \"#utility.yul\":2420:2425   */\n      0x00\n        /* \"#utility.yul\":2458:2464   */\n      dup2\n        /* \"#utility.yul\":2445:2465   */\n      calldataload\n        /* \"#utility.yul\":2436:2465   */\n      swap1\n      pop\n        /* \"#utility.yul\":2474:2504   */\n      tag_676\n        /* \"#utility.yul\":2498:2503   */\n      dup2\n        /* \"#utility.yul\":2474:2504   */\n      tag_677\n      jump\t// in\n    tag_676:\n        /* \"#utility.yul\":2377:2510   */\n      swap3\n      swap2\n      pop\n      pop\n      jump\t// out\n        /* \"#utility.yul\":2529:2867   */\n    tag_678:\n        /* \"#utility.yul\":2584:2589   */\n      0x00\n        /* \"#utility.yul\":2633:2636   */\n      dup3\n        /* \"#utility.yul\":2626:2630   */\n      0x1f\n        /* \"#utility.yul\":2618:2624   */\n      dup4\n        /* \"#utility.yul\":2614:2631   */\n      add\n        /* \"#utility.yul\":2610:2637   */\n      slt\n        /* \"#utility.yul\":2600:2722   */\n      tag_680\n      jumpi\n        /* \"#utility.yul\":2641:2720   */\n      tag_681\n      tag_644\n      jump\t// in\n    tag_681:\n        /* \"#utility.yul\":2600:2722   */\n    tag_680:\n        /* \"#utility.yul\":2758:2764   */\n      dup2\n        /* \"#utility.yul\":2745:2765   */\n      calldataload\n        /* \"#utility.yul\":2783:2861   */\n      tag_682\n        /* \"#utility.yul\":2857:2860   */\n      dup5\n        /* \"#utility.yul\":2849:2855   */\n      dup3\n        /* \"#utility.yul\":2842:2846   */\n      0x20\n        /* \"#utility.yul\":2834:2840   */\n      dup7\n        /* \"#utility.yul\":2830:2847   */\n      add\n        /* \"#utility.yul\":2783:2861   */\n      tag_647\n      jump\t// in\n    tag_682:\n        /* \"#utility.yul\":2774:2861   */\n      swap2\n      pop\n        /* \"#utility.yul\":2590:2867   */\n      pop\n        /* \"#utility.yul\":2529:2867   */\n      swap3\n      swap2\n      pop\n      pop\n      jump\t// out\n        /* \"#utility.yul\":2887:3227   */\n    tag_646:\n        /* \"#utility.yul\":2943:2948   */\n      0x00\n        /* \"#utility.yul\":2992:2995   */\n      dup3\n        /* \"#utility.yul\":2985:2989   */\n      0x1f\n        /* \"#utility.yul\":2977:2983   */\n      dup4\n        /* \"#utility.yul\":2973:2990   */\n      add\n        /* \"#utility.yul\":2969:2996   */\n      slt\n        /* \"#utility.yul\":2959:3081   */\n      tag_684\n      jumpi\n        /* \"#utility.yul\":3000:3079   */\n      tag_685\n      tag_644\n      jump\t// in\n    tag_685:\n        /* \"#utility.yul\":2959:3081   */\n    tag_684:\n        /* \"#utility.yul\":3117:3123   */\n      dup2\n        /* \"#utility.yul\":3104:3124   */\n      calldataload\n        /* \"#utility.yul\":3142:3221   */\n      tag_686\n        /* \"#utility.yul\":3217:3220   */\n      dup5\n        /* \"#utility.yul\":3209:3215   */\n      dup3\n        /* \"#utility.yul\":3202:3206   */\n      0x20\n        /* \"#utility.yul\":3194:3200   */\n      dup7\n        /* \"#utility.yul\":3190:3207   */\n      add\n        /* \"#utility.yul\":3142:3221   */\n      tag_657\n      jump\t// in\n    tag_686:\n        /* \"#utility.yul\":3133:3221   */\n      swap2\n      pop\n        /* \"#utility.yul\":2949:3227   */\n      pop\n        /* \"#utility.yul\":2887:3227   */\n      swap3\n      swap2\n      pop\n      pop\n      jump\t// out\n        /* \"#utility.yul\":3233:3372   */\n    tag_687:\n        /* \"#utility.yul\":3279:3284   */\n      0x00\n        /* \"#utility.yul\":3317:3323   */\n      dup2\n        /* \"#utility.yul\":3304:3324   */\n      calldataload\n        /* \"#utility.yul\":3295:3324   */\n      swap1\n      pop\n        /* \"#utility.yul\":3333:3366   */\n      tag_689\n        /* \"#utility.yul\":3360:3365   */\n      dup2\n        /* \"#utility.yul\":3333:3366   */\n      tag_690\n      jump\t// in\n    tag_689:\n        /* \"#utility.yul\":3233:3372   */\n      swap3\n      swap2\n      pop\n      pop\n      jump\t// out\n        /* \"#utility.yul\":3378:3707   */\n    tag_100:\n        /* \"#utility.yul\":3437:3443   */\n      0x00\n        /* \"#utility.yul\":3486:3488   */\n      0x20\n        /* \"#utility.yul\":3474:3483   */\n      dup3\n        /* \"#utility.yul\":3465:3472   */\n      dup5\n        /* \"#utility.yul\":3461:3484   */\n      sub\n        /* \"#utility.yul\":3457:3489   */\n      slt\n        /* \"#utility.yul\":3454:3573   */\n      iszero\n      tag_692\n      jumpi\n        /* \"#utility.yul\":3492:3571   */\n      tag_693\n      tag_694\n      jump\t// in\n    tag_693:\n        /* \"#utility.yul\":3454:3573   */\n    tag_692:\n        /* \"#utility.yul\":3612:3613   */\n      0x00\n        /* \"#utility.yul\":3637:3690   */\n      tag_695\n        /* \"#utility.yul\":3682:3689   */\n      dup5\n        /* \"#utility.yul\":3673:3679   */\n      dup3\n        /* \"#utility.yul\":3662:3671   */\n      dup6\n        /* \"#utility.yul\":3658:3680   */\n      add\n        /* \"#utility.yul\":3637:3690   */\n      tag_665\n      jump\t// in\n    tag_695:\n        /* \"#utility.yul\":3627:3690   */\n      swap2\n      pop\n        /* \"#utility.yul\":3583:3700   */\n      pop\n        /* \"#utility.yul\":3378:3707   */\n      swap3\n      swap2\n      pop\n      pop\n      jump\t// out\n        /* \"#utility.yul\":3713:4187   */\n    tag_148:\n        /* \"#utility.yul\":3781:3787   */\n      0x00\n        /* \"#utility.yul\":3789:3795   */\n      dup1\n        /* \"#utility.yul\":3838:3840   */\n      0x40\n        /* \"#utility.yul\":3826:3835   */\n      dup4\n        /* \"#utility.yul\":3817:3824   */\n      dup6\n        /* \"#utility.yul\":3813:3836   */\n      sub\n        /* \"#utility.yul\":3809:3841   */\n      slt\n        /* \"#utility.yul\":3806:3925   */\n      iszero\n      tag_697\n      jumpi\n        /* \"#utility.yul\":3844:3923   */\n      tag_698\n      tag_694\n      jump\t// in\n    tag_698:\n        /* \"#utility.yul\":3806:3925   */\n    tag_697:\n        /* \"#utility.yul\":3964:3965   */\n      0x00\n        /* \"#utility.yul\":3989:4042   */\n      tag_699\n        /* \"#utility.yul\":4034:4041   */\n      dup6\n        /* \"#utility.yul\":4025:4031   */\n      dup3\n        /* \"#utility.yul\":4014:4023   */\n      dup7\n        /* \"#utility.yul\":4010:4032   */\n      add\n        /* \"#utility.yul\":3989:4042   */\n      tag_665\n      jump\t// in\n    tag_699:\n        /* \"#utility.yul\":3979:4042   */\n      swap3\n      pop\n        /* \"#utility.yul\":3935:4052   */\n      pop\n        /* \"#utility.yul\":4091:4093   */\n      0x20\n        /* \"#utility.yul\":4117:4170   */\n      tag_700\n        /* \"#utility.yul\":4162:4169   */\n      dup6\n        /* \"#utility.yul\":4153:4159   */\n      dup3\n        /* \"#utility.yul\":4142:4151   */\n      dup7\n        /* \"#utility.yul\":4138:4160   */\n      add\n        /* \"#utility.yul\":4117:4170   */\n      tag_665\n      jump\t// in\n    tag_700:\n        /* \"#utility.yul\":4107:4170   */\n      swap2\n      pop\n        /* \"#utility.yul\":4062:4180   */\n      pop\n        /* \"#utility.yul\":3713:4187   */\n      swap3\n      pop\n      swap3\n      swap1\n      pop\n      jump\t// out\n        /* \"#utility.yul\":4193:4812   */\n    tag_57:\n        /* \"#utility.yul\":4270:4276   */\n      0x00\n        /* \"#utility.yul\":4278:4284   */\n      dup1\n        /* \"#utility.yul\":4286:4292   */\n      0x00\n        /* \"#utility.yul\":4335:4337   */\n      0x60\n        /* \"#utility.yul\":4323:4332   */\n      dup5\n        /* \"#utility.yul\":4314:4321   */\n      dup7\n        /* \"#utility.yul\":4310:4333   */\n      sub\n        /* \"#utility.yul\":4306:4338   */\n      slt\n        /* \"#utility.yul\":4303:4422   */\n      iszero\n      tag_702\n      jumpi\n        /* \"#utility.yul\":4341:4420   */\n      tag_703\n      tag_694\n      jump\t// in\n    tag_703:\n        /* \"#utility.yul\":4303:4422   */\n    tag_702:\n        /* \"#utility.yul\":4461:4462   */\n      0x00\n        /* \"#utility.yul\":4486:4539   */\n      tag_704\n        /* \"#utility.yul\":4531:4538   */\n      dup7\n        /* \"#utility.yul\":4522:4528   */\n      dup3\n        /* \"#utility.yul\":4511:4520   */\n      dup8\n        /* \"#utility.yul\":4507:4529   */\n      add\n        /* \"#utility.yul\":4486:4539   */\n      tag_665\n      jump\t// in\n    tag_704:\n        /* \"#utility.yul\":4476:4539   */\n      swap4\n      pop\n        /* \"#utility.yul\":4432:4549   */\n      pop\n        /* \"#utility.yul\":4588:4590   */\n      0x20\n        /* \"#utility.yul\":4614:4667   */\n      tag_705\n        /* \"#utility.yul\":4659:4666   */\n      dup7\n        /* \"#utility.yul\":4650:4656   */\n      dup3\n        /* \"#utility.yul\":4639:4648   */\n      dup8\n        /* \"#utility.yul\":4635:4657   */\n      add\n        /* \"#utility.yul\":4614:4667   */\n      tag_665\n      jump\t// in\n    tag_705:\n        /* \"#utility.yul\":4604:4667   */\n      swap3\n      pop\n        /* \"#utility.yul\":4559:4677   */\n      pop\n        /* \"#utility.yul\":4716:4718   */\n      0x40\n        /* \"#utility.yul\":4742:4795   */\n      tag_706\n        /* \"#utility.yul\":4787:4794   */\n      dup7\n        /* \"#utility.yul\":4778:4784   */\n      dup3\n        /* \"#utility.yul\":4767:4776   */\n      dup8\n        /* \"#utility.yul\":4763:4785   */\n      add\n        /* \"#utility.yul\":4742:4795   */\n      tag_687\n      jump\t// in\n    tag_706:\n        /* \"#utility.yul\":4732:4795   */\n      swap2\n      pop\n        /* \"#utility.yul\":4687:4805   */\n      pop\n        /* \"#utility.yul\":4193:4812   */\n      swap3\n      pop\n      swap3\n      pop\n      swap3\n      jump\t// out\n        /* \"#utility.yul\":4818:5761   */\n    tag_128:\n        /* \"#utility.yul\":4913:4919   */\n      0x00\n        /* \"#utility.yul\":4921:4927   */\n      dup1\n        /* \"#utility.yul\":4929:4935   */\n      0x00\n        /* \"#utility.yul\":4937:4943   */\n      dup1\n        /* \"#utility.yul\":4986:4989   */\n      0x80\n        /* \"#utility.yul\":4974:4983   */\n      dup6\n        /* \"#utility.yul\":4965:4972   */\n      dup8\n        /* \"#utility.yul\":4961:4984   */\n      sub\n        /* \"#utility.yul\":4957:4990   */\n      slt\n        /* \"#utility.yul\":4954:5074   */\n      iszero\n      tag_708\n      jumpi\n        /* \"#utility.yul\":4993:5072   */\n      tag_709\n      tag_694\n      jump\t// in\n    tag_709:\n        /* \"#utility.yul\":4954:5074   */\n    tag_708:\n        /* \"#utility.yul\":5113:5114   */\n      0x00\n        /* \"#utility.yul\":5138:5191   */\n      tag_710\n        /* \"#utility.yul\":5183:5190   */\n      dup8\n        /* \"#utility.yul\":5174:5180   */\n      dup3\n        /* \"#utility.yul\":5163:5172   */\n      dup9\n        /* \"#utility.yul\":5159:5181   */\n      add\n        /* \"#utility.yul\":5138:5191   */\n      tag_665\n      jump\t// in\n    tag_710:\n        /* \"#utility.yul\":5128:5191   */\n      swap5\n      pop\n        /* \"#utility.yul\":5084:5201   */\n      pop\n        /* \"#utility.yul\":5240:5242   */\n      0x20\n        /* \"#utility.yul\":5266:5319   */\n      tag_711\n        /* \"#utility.yul\":5311:5318   */\n      dup8\n        /* \"#utility.yul\":5302:5308   */\n      dup3\n        /* \"#utility.yul\":5291:5300   */\n      dup9\n        /* \"#utility.yul\":5287:5309   */\n      add\n        /* \"#utility.yul\":5266:5319   */\n      tag_665\n      jump\t// in\n    tag_711:\n        /* \"#utility.yul\":5256:5319   */\n      swap4\n      pop\n        /* \"#utility.yul\":5211:5329   */\n      pop\n        /* \"#utility.yul\":5368:5370   */\n      0x40\n        /* \"#utility.yul\":5394:5447   */\n      tag_712\n        /* \"#utility.yul\":5439:5446   */\n      dup8\n        /* \"#utility.yul\":5430:5436   */\n      dup3\n        /* \"#utility.yul\":5419:5428   */\n      dup9\n        /* \"#utility.yul\":5415:5437   */\n      add\n        /* \"#utility.yul\":5394:5447   */\n      tag_687\n      jump\t// in\n    tag_712:\n        /* \"#utility.yul\":5384:5447   */\n      swap3\n      pop\n        /* \"#utility.yul\":5339:5457   */\n      pop\n        /* \"#utility.yul\":5524:5526   */\n      0x60\n        /* \"#utility.yul\":5513:5522   */\n      dup6\n        /* \"#utility.yul\":5509:5527   */\n      add\n        /* \"#utility.yul\":5496:5528   */\n      calldataload\n        /* \"#utility.yul\":5555:5573   */\n      0xffffffffffffffff\n        /* \"#utility.yul\":5547:5553   */\n      dup2\n        /* \"#utility.yul\":5544:5574   */\n      gt\n        /* \"#utility.yul\":5541:5658   */\n      iszero\n      tag_713\n      jumpi\n        /* \"#utility.yul\":5577:5656   */\n      tag_714\n      tag_715\n      jump\t// in\n    tag_714:\n        /* \"#utility.yul\":5541:5658   */\n    tag_713:\n        /* \"#utility.yul\":5682:5744   */\n      tag_716\n        /* \"#utility.yul\":5736:5743   */\n      dup8\n        /* \"#utility.yul\":5727:5733   */\n      dup3\n        /* \"#utility.yul\":5716:5725   */\n      dup9\n        /* \"#utility.yul\":5712:5734   */\n      add\n        /* \"#utility.yul\":5682:5744   */\n      tag_678\n      jump\t// in\n    tag_716:\n        /* \"#utility.yul\":5672:5744   */\n      swap2\n      pop\n        /* \"#utility.yul\":5467:5754   */\n      pop\n        /* \"#utility.yul\":4818:5761   */\n      swap3\n      swap6\n      swap2\n      swap5\n      pop\n      swap3\n      pop\n      jump\t// out\n        /* \"#utility.yul\":5767:6235   */\n    tag_120:\n        /* \"#utility.yul\":5832:5838   */\n      0x00\n        /* \"#utility.yul\":5840:5846   */\n      dup1\n        /* \"#utility.yul\":5889:5891   */\n      0x40\n        /* \"#utility.yul\":5877:5886   */\n      dup4\n        /* \"#utility.yul\":5868:5875   */\n      dup6\n        /* \"#utility.yul\":5864:5887   */\n      sub\n        /* \"#utility.yul\":5860:5892   */\n      slt\n        /* \"#utility.yul\":5857:5976   */\n      iszero\n      tag_718\n      jumpi\n        /* \"#utility.yul\":5895:5974   */\n      tag_719\n      tag_694\n      jump\t// in\n    tag_719:\n        /* \"#utility.yul\":5857:5976   */\n    tag_718:\n        /* \"#utility.yul\":6015:6016   */\n      0x00\n        /* \"#utility.yul\":6040:6093   */\n      tag_720\n        /* \"#utility.yul\":6085:6092   */\n      dup6\n        /* \"#utility.yul\":6076:6082   */\n      dup3\n        /* \"#utility.yul\":6065:6074   */\n      dup7\n        /* \"#utility.yul\":6061:6083   */\n      add\n        /* \"#utility.yul\":6040:6093   */\n      tag_665\n      jump\t// in\n    tag_720:\n        /* \"#utility.yul\":6030:6093   */\n      swap3\n      pop\n        /* \"#utility.yul\":5986:6103   */\n      pop\n        /* \"#utility.yul\":6142:6144   */\n      0x20\n        /* \"#utility.yul\":6168:6218   */\n      tag_721\n        /* \"#utility.yul\":6210:6217   */\n      dup6\n        /* \"#utility.yul\":6201:6207   */\n      dup3\n        /* \"#utility.yul\":6190:6199   */\n      dup7\n        /* \"#utility.yul\":6186:6208   */\n      add\n        /* \"#utility.yul\":6168:6218   */\n      tag_674\n      jump\t// in\n    tag_721:\n        /* \"#utility.yul\":6158:6218   */\n      swap2\n      pop\n        /* \"#utility.yul\":6113:6228   */\n      pop\n        /* \"#utility.yul\":5767:6235   */\n      swap3\n      pop\n      swap3\n      swap1\n      pop\n      jump\t// out\n        /* \"#utility.yul\":6241:6715   */\n    tag_42:\n        /* \"#utility.yul\":6309:6315   */\n      0x00\n        /* \"#utility.yul\":6317:6323   */\n      dup1\n        /* \"#utility.yul\":6366:6368   */\n      0x40\n        /* \"#utility.yul\":6354:6363   */\n      dup4\n        /* \"#utility.yul\":6345:6352   */\n      dup6\n        /* \"#utility.yul\":6341:6364   */\n      sub\n        /* \"#utility.yul\":6337:6369   */\n      slt\n        /* \"#utility.yul\":6334:6453   */\n      iszero\n      tag_723\n      jumpi\n        /* \"#utility.yul\":6372:6451   */\n      tag_724\n      tag_694\n      jump\t// in\n    tag_724:\n        /* \"#utility.yul\":6334:6453   */\n    tag_723:\n        /* \"#utility.yul\":6492:6493   */\n      0x00\n        /* \"#utility.yul\":6517:6570   */\n      tag_725\n        /* \"#utility.yul\":6562:6569   */\n      dup6\n        /* \"#utility.yul\":6553:6559   */\n      dup3\n        /* \"#utility.yul\":6542:6551   */\n      dup7\n        /* \"#utility.yul\":6538:6560   */\n      add\n        /* \"#utility.yul\":6517:6570   */\n      tag_665\n      jump\t// in\n    tag_725:\n        /* \"#utility.yul\":6507:6570   */\n      swap3\n      pop\n        /* \"#utility.yul\":6463:6580   */\n      pop\n        /* \"#utility.yul\":6619:6621   */\n      0x20\n        /* \"#utility.yul\":6645:6698   */\n      tag_726\n        /* \"#utility.yul\":6690:6697   */\n      dup6\n        /* \"#utility.yul\":6681:6687   */\n      dup3\n        /* \"#utility.yul\":6670:6679   */\n      dup7\n        /* \"#utility.yul\":6666:6688   */\n      add\n        /* \"#utility.yul\":6645:6698   */\n      tag_687\n      jump\t// in\n    tag_726:\n        /* \"#utility.yul\":6635:6698   */\n      swap2\n      pop\n        /* \"#utility.yul\":6590:6708   */\n      pop\n        /* \"#utility.yul\":6241:6715   */\n      swap3\n      pop\n      swap3\n      swap1\n      pop\n      jump\t// out\n        /* \"#utility.yul\":6721:8138   */\n    tag_114:\n        /* \"#utility.yul\":6845:6851   */\n      0x00\n        /* \"#utility.yul\":6853:6859   */\n      dup1\n        /* \"#utility.yul\":6861:6867   */\n      0x00\n        /* \"#utility.yul\":6869:6875   */\n      dup1\n        /* \"#utility.yul\":6877:6883   */\n      0x00\n        /* \"#utility.yul\":6885:6891   */\n      dup1\n        /* \"#utility.yul\":6934:6937   */\n      0xc0\n        /* \"#utility.yul\":6922:6931   */\n      dup8\n        /* \"#utility.yul\":6913:6920   */\n      dup10\n        /* \"#utility.yul\":6909:6932   */\n      sub\n        /* \"#utility.yul\":6905:6938   */\n      slt\n        /* \"#utility.yul\":6902:7022   */\n      iszero\n      tag_728\n      jumpi\n        /* \"#utility.yul\":6941:7020   */\n      tag_729\n      tag_694\n      jump\t// in\n    tag_729:\n        /* \"#utility.yul\":6902:7022   */\n    tag_728:\n        /* \"#utility.yul\":7089:7090   */\n      0x00\n        /* \"#utility.yul\":7078:7087   */\n      dup8\n        /* \"#utility.yul\":7074:7091   */\n      add\n        /* \"#utility.yul\":7061:7092   */\n      calldataload\n        /* \"#utility.yul\":7119:7137   */\n      0xffffffffffffffff\n        /* \"#utility.yul\":7111:7117   */\n      dup2\n        /* \"#utility.yul\":7108:7138   */\n      gt\n        /* \"#utility.yul\":7105:7222   */\n      iszero\n      tag_730\n      jumpi\n        /* \"#utility.yul\":7141:7220   */\n      tag_731\n      tag_715\n      jump\t// in\n    tag_731:\n        /* \"#utility.yul\":7105:7222   */\n    tag_730:\n        /* \"#utility.yul\":7246:7309   */\n      tag_732\n        /* \"#utility.yul\":7301:7308   */\n      dup10\n        /* \"#utility.yul\":7292:7298   */\n      dup3\n        /* \"#utility.yul\":7281:7290   */\n      dup11\n        /* \"#utility.yul\":7277:7299   */\n      add\n        /* \"#utility.yul\":7246:7309   */\n      tag_646\n      jump\t// in\n    tag_732:\n        /* \"#utility.yul\":7236:7309   */\n      swap7\n      pop\n        /* \"#utility.yul\":7032:7319   */\n      pop\n        /* \"#utility.yul\":7386:7388   */\n      0x20\n        /* \"#utility.yul\":7375:7384   */\n      dup8\n        /* \"#utility.yul\":7371:7389   */\n      add\n        /* \"#utility.yul\":7358:7390   */\n      calldataload\n        /* \"#utility.yul\":7417:7435   */\n      0xffffffffffffffff\n        /* \"#utility.yul\":7409:7415   */\n      dup2\n        /* \"#utility.yul\":7406:7436   */\n      gt\n        /* \"#utility.yul\":7403:7520   */\n      iszero\n      tag_733\n      jumpi\n        /* \"#utility.yul\":7439:7518   */\n      tag_734\n      tag_715\n      jump\t// in\n    tag_734:\n        /* \"#utility.yul\":7403:7520   */\n    tag_733:\n        /* \"#utility.yul\":7544:7607   */\n      tag_735\n        /* \"#utility.yul\":7599:7606   */\n      dup10\n        /* \"#utility.yul\":7590:7596   */\n      dup3\n        /* \"#utility.yul\":7579:7588   */\n      dup11\n        /* \"#utility.yul\":7575:7597   */\n      add\n        /* \"#utility.yul\":7544:7607   */\n      tag_646\n      jump\t// in\n    tag_735:\n        /* \"#utility.yul\":7534:7607   */\n      swap6\n      pop\n        /* \"#utility.yul\":7329:7617   */\n      pop\n        /* \"#utility.yul\":7656:7658   */\n      0x40\n        /* \"#utility.yul\":7682:7735   */\n      tag_736\n        /* \"#utility.yul\":7727:7734   */\n      dup10\n        /* \"#utility.yul\":7718:7724   */\n      dup3\n        /* \"#utility.yul\":7707:7716   */\n      dup11\n        /* \"#utility.yul\":7703:7725   */\n      add\n        /* \"#utility.yul\":7682:7735   */\n      tag_665\n      jump\t// in\n    tag_736:\n        /* \"#utility.yul\":7672:7735   */\n      swap5\n      pop\n        /* \"#utility.yul\":7627:7745   */\n      pop\n        /* \"#utility.yul\":7784:7786   */\n      0x60\n        /* \"#utility.yul\":7810:7863   */\n      tag_737\n        /* \"#utility.yul\":7855:7862   */\n      dup10\n        /* \"#utility.yul\":7846:7852   */\n      dup3\n        /* \"#utility.yul\":7835:7844   */\n      dup11\n        /* \"#utility.yul\":7831:7853   */\n      add\n        /* \"#utility.yul\":7810:7863   */\n      tag_687\n      jump\t// in\n    tag_737:\n        /* \"#utility.yul\":7800:7863   */\n      swap4\n      pop\n        /* \"#utility.yul\":7755:7873   */\n      pop\n        /* \"#utility.yul\":7912:7915   */\n      0x80\n        /* \"#utility.yul\":7939:7992   */\n      tag_738\n        /* \"#utility.yul\":7984:7991   */\n      dup10\n        /* \"#utility.yul\":7975:7981   */\n      dup3\n        /* \"#utility.yul\":7964:7973   */\n      dup11\n        /* \"#utility.yul\":7960:7982   */\n      add\n        /* \"#utility.yul\":7939:7992   */\n      tag_687\n      jump\t// in\n    tag_738:\n        /* \"#utility.yul\":7929:7992   */\n      swap3\n      pop\n        /* \"#utility.yul\":7883:8002   */\n      pop\n        /* \"#utility.yul\":8041:8044   */\n      0xa0\n        /* \"#utility.yul\":8068:8121   */\n      tag_739\n        /* \"#utility.yul\":8113:8120   */\n      dup10\n        /* \"#utility.yul\":8104:8110   */\n      dup3\n        /* \"#utility.yul\":8093:8102   */\n      dup11\n        /* \"#utility.yul\":8089:8111   */\n      add\n        /* \"#utility.yul\":8068:8121   */\n      tag_687\n      jump\t// in\n    tag_739:\n        /* \"#utility.yul\":8058:8121   */\n      swap2\n      pop\n        /* \"#utility.yul\":8012:8131   */\n      pop\n        /* \"#utility.yul\":6721:8138   */\n      swap3\n      swap6\n      pop\n      swap3\n      swap6\n      pop\n      swap3\n      swap6\n      jump\t// out\n        /* \"#utility.yul\":8144:9679   */\n    tag_139:\n        /* \"#utility.yul\":8295:8301   */\n      0x00\n        /* \"#utility.yul\":8303:8309   */\n      dup1\n        /* \"#utility.yul\":8311:8317   */\n      0x00\n        /* \"#utility.yul\":8319:8325   */\n      dup1\n        /* \"#utility.yul\":8368:8371   */\n      0x80\n        /* \"#utility.yul\":8356:8365   */\n      dup6\n        /* \"#utility.yul\":8347:8354   */\n      dup8\n        /* \"#utility.yul\":8343:8366   */\n      sub\n        /* \"#utility.yul\":8339:8372   */\n      slt\n        /* \"#utility.yul\":8336:8456   */\n      iszero\n      tag_741\n      jumpi\n        /* \"#utility.yul\":8375:8454   */\n      tag_742\n      tag_694\n      jump\t// in\n    tag_742:\n        /* \"#utility.yul\":8336:8456   */\n    tag_741:\n        /* \"#utility.yul\":8523:8524   */\n      0x00\n        /* \"#utility.yul\":8512:8521   */\n      dup6\n        /* \"#utility.yul\":8508:8525   */\n      add\n        /* \"#utility.yul\":8495:8526   */\n      calldataload\n        /* \"#utility.yul\":8553:8571   */\n      0xffffffffffffffff\n        /* \"#utility.yul\":8545:8551   */\n      dup2\n        /* \"#utility.yul\":8542:8572   */\n      gt\n        /* \"#utility.yul\":8539:8656   */\n      iszero\n      tag_743\n      jumpi\n        /* \"#utility.yul\":8575:8654   */\n      tag_744\n      tag_715\n      jump\t// in\n    tag_744:\n        /* \"#utility.yul\":8539:8656   */\n    tag_743:\n        /* \"#utility.yul\":8680:8743   */\n      tag_745\n        /* \"#utility.yul\":8735:8742   */\n      dup8\n        /* \"#utility.yul\":8726:8732   */\n      dup3\n        /* \"#utility.yul\":8715:8724   */\n      dup9\n        /* \"#utility.yul\":8711:8733   */\n      add\n        /* \"#utility.yul\":8680:8743   */\n      tag_646\n      jump\t// in\n    tag_745:\n        /* \"#utility.yul\":8670:8743   */\n      swap5\n      pop\n        /* \"#utility.yul\":8466:8753   */\n      pop\n        /* \"#utility.yul\":8820:8822   */\n      0x20\n        /* \"#utility.yul\":8809:8818   */\n      dup6\n        /* \"#utility.yul\":8805:8823   */\n      add\n        /* \"#utility.yul\":8792:8824   */\n      calldataload\n        /* \"#utility.yul\":8851:8869   */\n      0xffffffffffffffff\n        /* \"#utility.yul\":8843:8849   */\n      dup2\n        /* \"#utility.yul\":8840:8870   */\n      gt\n        /* \"#utility.yul\":8837:8954   */\n      iszero\n      tag_746\n      jumpi\n        /* \"#utility.yul\":8873:8952   */\n      tag_747\n      tag_715\n      jump\t// in\n    tag_747:\n        /* \"#utility.yul\":8837:8954   */\n    tag_746:\n        /* \"#utility.yul\":8978:9041   */\n      tag_748\n        /* \"#utility.yul\":9033:9040   */\n      dup8\n        /* \"#utility.yul\":9024:9030   */\n      dup3\n        /* \"#utility.yul\":9013:9022   */\n      dup9\n        /* \"#utility.yul\":9009:9031   */\n      add\n        /* \"#utility.yul\":8978:9041   */\n      tag_646\n      jump\t// in\n    tag_748:\n        /* \"#utility.yul\":8968:9041   */\n      swap4\n      pop\n        /* \"#utility.yul\":8763:9051   */\n      pop\n        /* \"#utility.yul\":9118:9120   */\n      0x40\n        /* \"#utility.yul\":9107:9116   */\n      dup6\n        /* \"#utility.yul\":9103:9121   */\n      add\n        /* \"#utility.yul\":9090:9122   */\n      calldataload\n        /* \"#utility.yul\":9149:9167   */\n      0xffffffffffffffff\n        /* \"#utility.yul\":9141:9147   */\n      dup2\n        /* \"#utility.yul\":9138:9168   */\n      gt\n        /* \"#utility.yul\":9135:9252   */\n      iszero\n      tag_749\n      jumpi\n        /* \"#utility.yul\":9171:9250   */\n      tag_750\n      tag_715\n      jump\t// in\n    tag_750:\n        /* \"#utility.yul\":9135:9252   */\n    tag_749:\n        /* \"#utility.yul\":9276:9339   */\n      tag_751\n        /* \"#utility.yul\":9331:9338   */\n      dup8\n        /* \"#utility.yul\":9322:9328   */\n      dup3\n        /* \"#utility.yul\":9311:9320   */\n      dup9\n        /* \"#utility.yul\":9307:9329   */\n      add\n        /* \"#utility.yul\":9276:9339   */\n      tag_646\n      jump\t// in\n    tag_751:\n        /* \"#utility.yul\":9266:9339   */\n      swap3\n      pop\n        /* \"#utility.yul\":9061:9349   */\n      pop\n        /* \"#utility.yul\":9416:9418   */\n      0x60\n        /* \"#utility.yul\":9405:9414   */\n      dup6\n        /* \"#utility.yul\":9401:9419   */\n      add\n        /* \"#utility.yul\":9388:9420   */\n      calldataload\n        /* \"#utility.yul\":9447:9465   */\n      0xffffffffffffffff\n        /* \"#utility.yul\":9439:9445   */\n      dup2\n        /* \"#utility.yul\":9436:9466   */\n      gt\n        /* \"#utility.yul\":9433:9550   */\n      iszero\n      tag_752\n      jumpi\n        /* \"#utility.yul\":9469:9548   */\n      tag_753\n      tag_715\n      jump\t// in\n    tag_753:\n        /* \"#utility.yul\":9433:9550   */\n    tag_752:\n        /* \"#utility.yul\":9574:9662   */\n      tag_754\n        /* \"#utility.yul\":9654:9661   */\n      dup8\n        /* \"#utility.yul\":9645:9651   */\n      dup3\n        /* \"#utility.yul\":9634:9643   */\n      dup9\n        /* \"#utility.yul\":9630:9652   */\n      add\n        /* \"#utility.yul\":9574:9662   */\n      tag_669\n      jump\t// in\n    tag_754:\n        /* \"#utility.yul\":9564:9662   */\n      swap2\n      pop\n        /* \"#utility.yul\":9359:9672   */\n      pop\n        /* \"#utility.yul\":8144:9679   */\n      swap3\n      swap6\n      swap2\n      swap5\n      pop\n      swap3\n      pop\n      jump\t// out\n        /* \"#utility.yul\":9685:11366   */\n    tag_47:\n        /* \"#utility.yul\":9845:9851   */\n      0x00\n        /* \"#utility.yul\":9853:9859   */\n      dup1\n        /* \"#utility.yul\":9861:9867   */\n      0x00\n        /* \"#utility.yul\":9869:9875   */\n      dup1\n        /* \"#utility.yul\":9877:9883   */\n      0x00\n        /* \"#utility.yul\":9926:9929   */\n      0xa0\n        /* \"#utility.yul\":9914:9923   */\n      dup7\n        /* \"#utility.yul\":9905:9912   */\n      dup9\n        /* \"#utility.yul\":9901:9924   */\n      sub\n        /* \"#utility.yul\":9897:9930   */\n      slt\n        /* \"#utility.yul\":9894:10014   */\n      iszero\n      tag_756\n      jumpi\n        /* \"#utility.yul\":9933:10012   */\n      tag_757\n      tag_694\n      jump\t// in\n    tag_757:\n        /* \"#utility.yul\":9894:10014   */\n    tag_756:\n        /* \"#utility.yul\":10081:10082   */\n      0x00\n        /* \"#utility.yul\":10070:10079   */\n      dup7\n        /* \"#utility.yul\":10066:10083   */\n      add\n        /* \"#utility.yul\":10053:10084   */\n      calldataload\n        /* \"#utility.yul\":10111:10129   */\n      0xffffffffffffffff\n        /* \"#utility.yul\":10103:10109   */\n      dup2\n        /* \"#utility.yul\":10100:10130   */\n      gt\n        /* \"#utility.yul\":10097:10214   */\n      iszero\n      tag_758\n      jumpi\n        /* \"#utility.yul\":10133:10212   */\n      tag_759\n      tag_715\n      jump\t// in\n    tag_759:\n        /* \"#utility.yul\":10097:10214   */\n    tag_758:\n        /* \"#utility.yul\":10238:10301   */\n      tag_760\n        /* \"#utility.yul\":10293:10300   */\n      dup9\n        /* \"#utility.yul\":10284:10290   */\n      dup3\n        /* \"#utility.yul\":10273:10282   */\n      dup10\n        /* \"#utility.yul\":10269:10291   */\n      add\n        /* \"#utility.yul\":10238:10301   */\n      tag_646\n      jump\t// in\n    tag_760:\n        /* \"#utility.yul\":10228:10301   */\n      swap6\n      pop\n        /* \"#utility.yul\":10024:10311   */\n      pop\n        /* \"#utility.yul\":10378:10380   */\n      0x20\n        /* \"#utility.yul\":10367:10376   */\n      dup7\n        /* \"#utility.yul\":10363:10381   */\n      add\n        /* \"#utility.yul\":10350:10382   */\n      calldataload\n        /* \"#utility.yul\":10409:10427   */\n      0xffffffffffffffff\n        /* \"#utility.yul\":10401:10407   */\n      dup2\n        /* \"#utility.yul\":10398:10428   */\n      gt\n        /* \"#utility.yul\":10395:10512   */\n      iszero\n      tag_761\n      jumpi\n        /* \"#utility.yul\":10431:10510   */\n      tag_762\n      tag_715\n      jump\t// in\n    tag_762:\n        /* \"#utility.yul\":10395:10512   */\n    tag_761:\n        /* \"#utility.yul\":10536:10599   */\n      tag_763\n        /* \"#utility.yul\":10591:10598   */\n      dup9\n        /* \"#utility.yul\":10582:10588   */\n      dup3\n        /* \"#utility.yul\":10571:10580   */\n      dup10\n        /* \"#utility.yul\":10567:10589   */\n      add\n        /* \"#utility.yul\":10536:10599   */\n      tag_646\n      jump\t// in\n    tag_763:\n        /* \"#utility.yul\":10526:10599   */\n      swap5\n      pop\n        /* \"#utility.yul\":10321:10609   */\n      pop\n        /* \"#utility.yul\":10676:10678   */\n      0x40\n        /* \"#utility.yul\":10665:10674   */\n      dup7\n        /* \"#utility.yul\":10661:10679   */\n      add\n        /* \"#utility.yul\":10648:10680   */\n      calldataload\n        /* \"#utility.yul\":10707:10725   */\n      0xffffffffffffffff\n        /* \"#utility.yul\":10699:10705   */\n      dup2\n        /* \"#utility.yul\":10696:10726   */\n      gt\n        /* \"#utility.yul\":10693:10810   */\n      iszero\n      tag_764\n      jumpi\n        /* \"#utility.yul\":10729:10808   */\n      tag_765\n      tag_715\n      jump\t// in\n    tag_765:\n        /* \"#utility.yul\":10693:10810   */\n    tag_764:\n        /* \"#utility.yul\":10834:10897   */\n      tag_766\n        /* \"#utility.yul\":10889:10896   */\n      dup9\n        /* \"#utility.yul\":10880:10886   */\n      dup3\n        /* \"#utility.yul\":10869:10878   */\n      dup10\n        /* \"#utility.yul\":10865:10887   */\n      add\n        /* \"#utility.yul\":10834:10897   */\n      tag_646\n      jump\t// in\n    tag_766:\n        /* \"#utility.yul\":10824:10897   */\n      swap4\n      pop\n        /* \"#utility.yul\":10619:10907   */\n      pop\n        /* \"#utility.yul\":10974:10976   */\n      0x60\n        /* \"#utility.yul\":10963:10972   */\n      dup7\n        /* \"#utility.yul\":10959:10977   */\n      add\n        /* \"#utility.yul\":10946:10978   */\n      calldataload\n        /* \"#utility.yul\":11005:11023   */\n      0xffffffffffffffff\n        /* \"#utility.yul\":10997:11003   */\n      dup2\n        /* \"#utility.yul\":10994:11024   */\n      gt\n        /* \"#utility.yul\":10991:11108   */\n      iszero\n      tag_767\n      jumpi\n        /* \"#utility.yul\":11027:11106   */\n      tag_768\n      tag_715\n      jump\t// in\n    tag_768:\n        /* \"#utility.yul\":10991:11108   */\n    tag_767:\n        /* \"#utility.yul\":11132:11220   */\n      tag_769\n        /* \"#utility.yul\":11212:11219   */\n      dup9\n        /* \"#utility.yul\":11203:11209   */\n      dup3\n        /* \"#utility.yul\":11192:11201   */\n      dup10\n        /* \"#utility.yul\":11188:11210   */\n      add\n        /* \"#utility.yul\":11132:11220   */\n      tag_669\n      jump\t// in\n    tag_769:\n        /* \"#utility.yul\":11122:11220   */\n      swap3\n      pop\n        /* \"#utility.yul\":10917:11230   */\n      pop\n        /* \"#utility.yul\":11269:11272   */\n      0x80\n        /* \"#utility.yul\":11296:11349   */\n      tag_770\n        /* \"#utility.yul\":11341:11348   */\n      dup9\n        /* \"#utility.yul\":11332:11338   */\n      dup3\n        /* \"#utility.yul\":11321:11330   */\n      dup10\n        /* \"#utility.yul\":11317:11339   */\n      add\n        /* \"#utility.yul\":11296:11349   */\n      tag_687\n      jump\t// in\n    tag_770:\n        /* \"#utility.yul\":11286:11349   */\n      swap2\n      pop\n        /* \"#utility.yul\":11240:11359   */\n      pop\n        /* \"#utility.yul\":9685:11366   */\n      swap3\n      swap6\n      pop\n      swap3\n      swap6\n      swap1\n      swap4\n      pop\n      jump\t// out\n        /* \"#utility.yul\":11372:11701   */\n    tag_36:\n        /* \"#utility.yul\":11431:11437   */\n      0x00\n        /* \"#utility.yul\":11480:11482   */\n      0x20\n        /* \"#utility.yul\":11468:11477   */\n      dup3\n        /* \"#utility.yul\":11459:11466   */\n      dup5\n        /* \"#utility.yul\":11455:11478   */\n      sub\n        /* \"#utility.yul\":11451:11483   */\n      slt\n        /* \"#utility.yul\":11448:11567   */\n      iszero\n      tag_772\n      jumpi\n        /* \"#utility.yul\":11486:11565   */\n      tag_773\n      tag_694\n      jump\t// in\n    tag_773:\n        /* \"#utility.yul\":11448:11567   */\n    tag_772:\n        /* \"#utility.yul\":11606:11607   */\n      0x00\n        /* \"#utility.yul\":11631:11684   */\n      tag_774\n        /* \"#utility.yul\":11676:11683   */\n      dup5\n        /* \"#utility.yul\":11667:11673   */\n      dup3\n        /* \"#utility.yul\":11656:11665   */\n      dup6\n        /* \"#utility.yul\":11652:11674   */\n      add\n        /* \"#utility.yul\":11631:11684   */\n      tag_687\n      jump\t// in\n    tag_774:\n        /* \"#utility.yul\":11621:11684   */\n      swap2\n      pop\n        /* \"#utility.yul\":11577:11694   */\n      pop\n        /* \"#utility.yul\":11372:11701   */\n      swap3\n      swap2\n      pop\n      pop\n      jump\t// out\n        /* \"#utility.yul\":11707:12326   */\n    tag_66:\n        /* \"#utility.yul\":11784:11790   */\n      0x00\n        /* \"#utility.yul\":11792:11798   */\n      dup1\n        /* \"#utility.yul\":11800:11806   */\n      0x00\n        /* \"#utility.yul\":11849:11851   */\n      0x60\n        /* \"#utility.yul\":11837:11846   */\n      dup5\n        /* \"#utility.yul\":11828:11835   */\n      dup7\n        /* \"#utility.yul\":11824:11847   */\n      sub\n        /* \"#utility.yul\":11820:11852   */\n      slt\n        /* \"#utility.yul\":11817:11936   */\n      iszero\n      tag_776\n      jumpi\n        /* \"#utility.yul\":11855:11934   */\n      tag_777\n      tag_694\n      jump\t// in\n    tag_777:\n        /* \"#utility.yul\":11817:11936   */\n    tag_776:\n        /* \"#utility.yul\":11975:11976   */\n      0x00\n        /* \"#utility.yul\":12000:12053   */\n      tag_778\n        /* \"#utility.yul\":12045:12052   */\n      dup7\n        /* \"#utility.yul\":12036:12042   */\n      dup3\n        /* \"#utility.yul\":12025:12034   */\n      dup8\n        /* \"#utility.yul\":12021:12043   */\n      add\n        /* \"#utility.yul\":12000:12053   */\n      tag_687\n      jump\t// in\n    tag_778:\n        /* \"#utility.yul\":11990:12053   */\n      swap4\n      pop\n        /* \"#utility.yul\":11946:12063   */\n      pop\n        /* \"#utility.yul\":12102:12104   */\n      0x20\n        /* \"#utility.yul\":12128:12181   */\n      tag_779\n        /* \"#utility.yul\":12173:12180   */\n      dup7\n        /* \"#utility.yul\":12164:12170   */\n      dup3\n        /* \"#utility.yul\":12153:12162   */\n      dup8\n        /* \"#utility.yul\":12149:12171   */\n      add\n        /* \"#utility.yul\":12128:12181   */\n      tag_665\n      jump\t// in\n    tag_779:\n        /* \"#utility.yul\":12118:12181   */\n      swap3\n      pop\n        /* \"#utility.yul\":12073:12191   */\n      pop\n        /* \"#utility.yul\":12230:12232   */\n      0x40\n        /* \"#utility.yul\":12256:12309   */\n      tag_780\n        /* \"#utility.yul\":12301:12308   */\n      dup7\n        /* \"#utility.yul\":12292:12298   */\n      dup3\n        /* \"#utility.yul\":12281:12290   */\n      dup8\n        /* \"#utility.yul\":12277:12299   */\n      add\n        /* \"#utility.yul\":12256:12309   */\n      tag_665\n      jump\t// in\n    tag_780:\n        /* \"#utility.yul\":12246:12309   */\n      swap2\n      pop\n        /* \"#utility.yul\":12201:12319   */\n      pop\n        /* \"#utility.yul\":11707:12326   */\n      swap3\n      pop\n      swap3\n      pop\n      swap3\n      jump\t// out\n        /* \"#utility.yul\":12332:12806   */\n    tag_71:\n        /* \"#utility.yul\":12400:12406   */\n      0x00\n        /* \"#utility.yul\":12408:12414   */\n      dup1\n        /* \"#utility.yul\":12457:12459   */\n      0x40\n        /* \"#utility.yul\":12445:12454   */\n      dup4\n        /* \"#utility.yul\":12436:12443   */\n      dup6\n        /* \"#utility.yul\":12432:12455   */\n      sub\n        /* \"#utility.yul\":12428:12460   */\n      slt\n        /* \"#utility.yul\":12425:12544   */\n      iszero\n      tag_782\n      jumpi\n        /* \"#utility.yul\":12463:12542   */\n      tag_783\n      tag_694\n      jump\t// in\n    tag_783:\n        /* \"#utility.yul\":12425:12544   */\n    tag_782:\n        /* \"#utility.yul\":12583:12584   */\n      0x00\n        /* \"#utility.yul\":12608:12661   */\n      tag_784\n        /* \"#utility.yul\":12653:12660   */\n      dup6\n        /* \"#utility.yul\":12644:12650   */\n      dup3\n        /* \"#utility.yul\":12633:12642   */\n      dup7\n        /* \"#utility.yul\":12629:12651   */\n      add\n        /* \"#utility.yul\":12608:12661   */\n      tag_687\n      jump\t// in\n    tag_784:\n        /* \"#utility.yul\":12598:12661   */\n      swap3\n      pop\n        /* \"#utility.yul\":12554:12671   */\n      pop\n        /* \"#utility.yul\":12710:12712   */\n      0x20\n        /* \"#utility.yul\":12736:12789   */\n      tag_785\n        /* \"#utility.yul\":12781:12788   */\n      dup6\n        /* \"#utility.yul\":12772:12778   */\n      dup3\n        /* \"#utility.yul\":12761:12770   */\n      dup7\n        /* \"#utility.yul\":12757:12779   */\n      add\n        /* \"#utility.yul\":12736:12789   */\n      tag_687\n      jump\t// in\n    tag_785:\n        /* \"#utility.yul\":12726:12789   */\n      swap2\n      pop\n        /* \"#utility.yul\":12681:12799   */\n      pop\n        /* \"#utility.yul\":12332:12806   */\n      swap3\n      pop\n      swap3\n      swap1\n      pop\n      jump\t// out\n        /* \"#utility.yul\":12812:13008   */\n    tag_786:\n        /* \"#utility.yul\":12901:12911   */\n      0x00\n        /* \"#utility.yul\":12936:13002   */\n      tag_788\n        /* \"#utility.yul\":12998:13001   */\n      dup4\n        /* \"#utility.yul\":12990:12996   */\n      dup4\n        /* \"#utility.yul\":12936:13002   */\n      tag_789\n      jump\t// in\n    tag_788:\n        /* \"#utility.yul\":12922:13002   */\n      swap1\n      pop\n        /* \"#utility.yul\":12812:13008   */\n      swap3\n      swap2\n      pop\n      pop\n      jump\t// out\n        /* \"#utility.yul\":13014:13266   */\n    tag_790:\n        /* \"#utility.yul\":13131:13141   */\n      0x00\n        /* \"#utility.yul\":13166:13260   */\n      tag_792\n        /* \"#utility.yul\":13256:13259   */\n      dup4\n        /* \"#utility.yul\":13248:13254   */\n      dup4\n        /* \"#utility.yul\":13166:13260   */\n      tag_793\n      jump\t// in\n    tag_792:\n        /* \"#utility.yul\":13152:13260   */\n      swap1\n      pop\n        /* \"#utility.yul\":13014:13266   */\n      swap3\n      swap2\n      pop\n      pop\n      jump\t// out\n        /* \"#utility.yul\":13272:13591   */\n    tag_794:\n        /* \"#utility.yul\":13411:13421   */\n      0x00\n        /* \"#utility.yul\":13432:13548   */\n      tag_796\n        /* \"#utility.yul\":13544:13547   */\n      dup4\n        /* \"#utility.yul\":13536:13542   */\n      dup4\n        /* \"#utility.yul\":13432:13548   */\n      tag_797\n      jump\t// in\n    tag_796:\n        /* \"#utility.yul\":13580:13584   */\n      0xa0\n        /* \"#utility.yul\":13575:13578   */\n      dup4\n        /* \"#utility.yul\":13571:13585   */\n      add\n        /* \"#utility.yul\":13557:13585   */\n      swap1\n      pop\n        /* \"#utility.yul\":13272:13591   */\n      swap3\n      swap2\n      pop\n      pop\n      jump\t// out\n        /* \"#utility.yul\":13597:13705   */\n    tag_798:\n        /* \"#utility.yul\":13674:13698   */\n      tag_800\n        /* \"#utility.yul\":13692:13697   */\n      dup2\n        /* \"#utility.yul\":13674:13698   */\n      tag_801\n      jump\t// in\n    tag_800:\n        /* \"#utility.yul\":13669:13672   */\n      dup3\n        /* \"#utility.yul\":13662:13699   */\n      mstore\n        /* \"#utility.yul\":13597:13705   */\n      pop\n      pop\n      jump\t// out\n        /* \"#utility.yul\":13711:13829   */\n    tag_802:\n        /* \"#utility.yul\":13798:13822   */\n      tag_804\n        /* \"#utility.yul\":13816:13821   */\n      dup2\n        /* \"#utility.yul\":13798:13822   */\n      tag_801\n      jump\t// in\n    tag_804:\n        /* \"#utility.yul\":13793:13796   */\n      dup3\n        /* \"#utility.yul\":13786:13823   */\n      mstore\n        /* \"#utility.yul\":13711:13829   */\n      pop\n      pop\n      jump\t// out\n        /* \"#utility.yul\":13863:14834   */\n    tag_805:\n        /* \"#utility.yul\":13992:13995   */\n      0x00\n        /* \"#utility.yul\":14021:14085   */\n      tag_807\n        /* \"#utility.yul\":14079:14084   */\n      dup3\n        /* \"#utility.yul\":14021:14085   */\n      tag_808\n      jump\t// in\n    tag_807:\n        /* \"#utility.yul\":14101:14187   */\n      tag_809\n        /* \"#utility.yul\":14180:14186   */\n      dup2\n        /* \"#utility.yul\":14175:14178   */\n      dup6\n        /* \"#utility.yul\":14101:14187   */\n      tag_810\n      jump\t// in\n    tag_809:\n        /* \"#utility.yul\":14094:14187   */\n      swap4\n      pop\n        /* \"#utility.yul\":14213:14216   */\n      dup4\n        /* \"#utility.yul\":14258:14262   */\n      0x20\n        /* \"#utility.yul\":14250:14256   */\n      dup3\n        /* \"#utility.yul\":14246:14263   */\n      mul\n        /* \"#utility.yul\":14241:14244   */\n      dup6\n        /* \"#utility.yul\":14237:14264   */\n      add\n        /* \"#utility.yul\":14288:14354   */\n      tag_811\n        /* \"#utility.yul\":14348:14353   */\n      dup6\n        /* \"#utility.yul\":14288:14354   */\n      tag_812\n      jump\t// in\n    tag_811:\n        /* \"#utility.yul\":14377:14384   */\n      dup1\n        /* \"#utility.yul\":14408:14409   */\n      0x00\n        /* \"#utility.yul\":14393:14789   */\n    tag_813:\n        /* \"#utility.yul\":14418:14424   */\n      dup6\n        /* \"#utility.yul\":14415:14416   */\n      dup2\n        /* \"#utility.yul\":14412:14425   */\n      lt\n        /* \"#utility.yul\":14393:14789   */\n      iszero\n      tag_815\n      jumpi\n        /* \"#utility.yul\":14489:14498   */\n      dup5\n        /* \"#utility.yul\":14483:14487   */\n      dup5\n        /* \"#utility.yul\":14479:14499   */\n      sub\n        /* \"#utility.yul\":14474:14477   */\n      dup10\n        /* \"#utility.yul\":14467:14500   */\n      mstore\n        /* \"#utility.yul\":14540:14546   */\n      dup2\n        /* \"#utility.yul\":14534:14547   */\n      mload\n        /* \"#utility.yul\":14568:14652   */\n      tag_816\n        /* \"#utility.yul\":14647:14651   */\n      dup6\n        /* \"#utility.yul\":14632:14645   */\n      dup3\n        /* \"#utility.yul\":14568:14652   */\n      tag_786\n      jump\t// in\n    tag_816:\n        /* \"#utility.yul\":14560:14652   */\n      swap5\n      pop\n        /* \"#utility.yul\":14675:14745   */\n      tag_817\n        /* \"#utility.yul\":14738:14744   */\n      dup4\n        /* \"#utility.yul\":14675:14745   */\n      tag_818\n      jump\t// in\n    tag_817:\n        /* \"#utility.yul\":14665:14745   */\n      swap3\n      pop\n        /* \"#utility.yul\":14774:14778   */\n      0x20\n        /* \"#utility.yul\":14769:14772   */\n      dup11\n        /* \"#utility.yul\":14765:14779   */\n      add\n        /* \"#utility.yul\":14758:14779   */\n      swap10\n      pop\n        /* \"#utility.yul\":14453:14789   */\n      pop\n        /* \"#utility.yul\":14440:14441   */\n      0x01\n        /* \"#utility.yul\":14437:14438   */\n      dup2\n        /* \"#utility.yul\":14433:14442   */\n      add\n        /* \"#utility.yul\":14428:14442   */\n      swap1\n      pop\n        /* \"#utility.yul\":14393:14789   */\n      jump(tag_813)\n    tag_815:\n        /* \"#utility.yul\":14397:14411   */\n      pop\n        /* \"#utility.yul\":14805:14809   */\n      dup3\n        /* \"#utility.yul\":14798:14809   */\n      swap8\n      pop\n        /* \"#utility.yul\":14825:14828   */\n      dup8\n        /* \"#utility.yul\":14818:14828   */\n      swap6\n      pop\n        /* \"#utility.yul\":13997:14834   */\n      pop\n      pop\n      pop\n      pop\n      pop\n        /* \"#utility.yul\":13863:14834   */\n      swap3\n      swap2\n      pop\n      pop\n      jump\t// out\n        /* \"#utility.yul\":14908:16011   */\n    tag_819:\n        /* \"#utility.yul\":15075:15078   */\n      0x00\n        /* \"#utility.yul\":15104:15182   */\n      tag_821\n        /* \"#utility.yul\":15176:15181   */\n      dup3\n        /* \"#utility.yul\":15104:15182   */\n      tag_822\n      jump\t// in\n    tag_821:\n        /* \"#utility.yul\":15198:15308   */\n      tag_823\n        /* \"#utility.yul\":15301:15307   */\n      dup2\n        /* \"#utility.yul\":15296:15299   */\n      dup6\n        /* \"#utility.yul\":15198:15308   */\n      tag_824\n      jump\t// in\n    tag_823:\n        /* \"#utility.yul\":15191:15308   */\n      swap4\n      pop\n        /* \"#utility.yul\":15334:15337   */\n      dup4\n        /* \"#utility.yul\":15379:15383   */\n      0x20\n        /* \"#utility.yul\":15371:15377   */\n      dup3\n        /* \"#utility.yul\":15367:15384   */\n      mul\n        /* \"#utility.yul\":15362:15365   */\n      dup6\n        /* \"#utility.yul\":15358:15385   */\n      add\n        /* \"#utility.yul\":15409:15489   */\n      tag_825\n        /* \"#utility.yul\":15483:15488   */\n      dup6\n        /* \"#utility.yul\":15409:15489   */\n      tag_826\n      jump\t// in\n    tag_825:\n        /* \"#utility.yul\":15512:15519   */\n      dup1\n        /* \"#utility.yul\":15543:15544   */\n      0x00\n        /* \"#utility.yul\":15528:15966   */\n    tag_827:\n        /* \"#utility.yul\":15553:15559   */\n      dup6\n        /* \"#utility.yul\":15550:15551   */\n      dup2\n        /* \"#utility.yul\":15547:15560   */\n      lt\n        /* \"#utility.yul\":15528:15966   */\n      iszero\n      tag_829\n      jumpi\n        /* \"#utility.yul\":15624:15633   */\n      dup5\n        /* \"#utility.yul\":15618:15622   */\n      dup5\n        /* \"#utility.yul\":15614:15634   */\n      sub\n        /* \"#utility.yul\":15609:15612   */\n      dup10\n        /* \"#utility.yul\":15602:15635   */\n      mstore\n        /* \"#utility.yul\":15675:15681   */\n      dup2\n        /* \"#utility.yul\":15669:15682   */\n      mload\n        /* \"#utility.yul\":15703:15815   */\n      tag_830\n        /* \"#utility.yul\":15810:15814   */\n      dup6\n        /* \"#utility.yul\":15795:15808   */\n      dup3\n        /* \"#utility.yul\":15703:15815   */\n      tag_790\n      jump\t// in\n    tag_830:\n        /* \"#utility.yul\":15695:15815   */\n      swap5\n      pop\n        /* \"#utility.yul\":15838:15922   */\n      tag_831\n        /* \"#utility.yul\":15915:15921   */\n      dup4\n        /* \"#utility.yul\":15838:15922   */\n      tag_832\n      jump\t// in\n    tag_831:\n        /* \"#utility.yul\":15828:15922   */\n      swap3\n      pop\n        /* \"#utility.yul\":15951:15955   */\n      0x20\n        /* \"#utility.yul\":15946:15949   */\n      dup11\n        /* \"#utility.yul\":15942:15956   */\n      add\n        /* \"#utility.yul\":15935:15956   */\n      swap10\n      pop\n        /* \"#utility.yul\":15588:15966   */\n      pop\n        /* \"#utility.yul\":15575:15576   */\n      0x01\n        /* \"#utility.yul\":15572:15573   */\n      dup2\n        /* \"#utility.yul\":15568:15577   */\n      add\n        /* \"#utility.yul\":15563:15577   */\n      swap1\n      pop\n        /* \"#utility.yul\":15528:15966   */\n      jump(tag_827)\n    tag_829:\n        /* \"#utility.yul\":15532:15546   */\n      pop\n        /* \"#utility.yul\":15982:15986   */\n      dup3\n        /* \"#utility.yul\":15975:15986   */\n      swap8\n      pop\n        /* \"#utility.yul\":16002:16005   */\n      dup8\n        /* \"#utility.yul\":15995:16005   */\n      swap6\n      pop\n        /* \"#utility.yul\":15080:16011   */\n      pop\n      pop\n      pop\n      pop\n      pop\n        /* \"#utility.yul\":14908:16011   */\n      swap3\n      swap2\n      pop\n      pop\n      jump\t// out\n        /* \"#utility.yul\":16107:17119   */\n    tag_833:\n        /* \"#utility.yul\":16296:16299   */\n      0x00\n        /* \"#utility.yul\":16325:16414   */\n      tag_835\n        /* \"#utility.yul\":16408:16413   */\n      dup3\n        /* \"#utility.yul\":16325:16414   */\n      tag_836\n      jump\t// in\n    tag_835:\n        /* \"#utility.yul\":16430:16551   */\n      tag_837\n        /* \"#utility.yul\":16544:16550   */\n      dup2\n        /* \"#utility.yul\":16539:16542   */\n      dup6\n        /* \"#utility.yul\":16430:16551   */\n      tag_838\n      jump\t// in\n    tag_837:\n        /* \"#utility.yul\":16423:16551   */\n      swap4\n      pop\n        /* \"#utility.yul\":16575:16666   */\n      tag_839\n        /* \"#utility.yul\":16660:16665   */\n      dup4\n        /* \"#utility.yul\":16575:16666   */\n      tag_840\n      jump\t// in\n    tag_839:\n        /* \"#utility.yul\":16689:16696   */\n      dup1\n        /* \"#utility.yul\":16720:16721   */\n      0x00\n        /* \"#utility.yul\":16705:17094   */\n    tag_841:\n        /* \"#utility.yul\":16730:16736   */\n      dup4\n        /* \"#utility.yul\":16727:16728   */\n      dup2\n        /* \"#utility.yul\":16724:16737   */\n      lt\n        /* \"#utility.yul\":16705:17094   */\n      iszero\n      tag_843\n      jumpi\n        /* \"#utility.yul\":16806:16812   */\n      dup2\n        /* \"#utility.yul\":16800:16813   */\n      mload\n        /* \"#utility.yul\":16833:16966   */\n      tag_844\n        /* \"#utility.yul\":16962:16965   */\n      dup9\n        /* \"#utility.yul\":16947:16960   */\n      dup3\n        /* \"#utility.yul\":16833:16966   */\n      tag_794\n      jump\t// in\n    tag_844:\n        /* \"#utility.yul\":16826:16966   */\n      swap8\n      pop\n        /* \"#utility.yul\":16989:17084   */\n      tag_845\n        /* \"#utility.yul\":17077:17083   */\n      dup4\n        /* \"#utility.yul\":16989:17084   */\n      tag_846\n      jump\t// in\n    tag_845:\n        /* \"#utility.yul\":16979:17084   */\n      swap3\n      pop\n        /* \"#utility.yul\":16765:17094   */\n      pop\n        /* \"#utility.yul\":16752:16753   */\n      0x01\n        /* \"#utility.yul\":16749:16750   */\n      dup2\n        /* \"#utility.yul\":16745:16754   */\n      add\n        /* \"#utility.yul\":16740:16754   */\n      swap1\n      pop\n        /* \"#utility.yul\":16705:17094   */\n      jump(tag_841)\n    tag_843:\n        /* \"#utility.yul\":16709:16723   */\n      pop\n        /* \"#utility.yul\":17110:17113   */\n      dup6\n        /* \"#utility.yul\":17103:17113   */\n      swap4\n      pop\n        /* \"#utility.yul\":16301:17119   */\n      pop\n      pop\n      pop\n        /* \"#utility.yul\":16107:17119   */\n      swap3\n      swap2\n      pop\n      pop\n      jump\t// out\n        /* \"#utility.yul\":17125:17224   */\n    tag_847:\n        /* \"#utility.yul\":17196:17217   */\n      tag_849\n        /* \"#utility.yul\":17211:17216   */\n      dup2\n        /* \"#utility.yul\":17196:17217   */\n      tag_850\n      jump\t// in\n    tag_849:\n        /* \"#utility.yul\":17191:17194   */\n      dup3\n        /* \"#utility.yul\":17184:17218   */\n      mstore\n        /* \"#utility.yul\":17125:17224   */\n      pop\n      pop\n      jump\t// out\n        /* \"#utility.yul\":17230:17339   */\n    tag_851:\n        /* \"#utility.yul\":17311:17332   */\n      tag_853\n        /* \"#utility.yul\":17326:17331   */\n      dup2\n        /* \"#utility.yul\":17311:17332   */\n      tag_850\n      jump\t// in\n    tag_853:\n        /* \"#utility.yul\":17306:17309   */\n      dup3\n        /* \"#utility.yul\":17299:17333   */\n      mstore\n        /* \"#utility.yul\":17230:17339   */\n      pop\n      pop\n      jump\t// out\n        /* \"#utility.yul\":17345:17689   */\n    tag_789:\n        /* \"#utility.yul\":17423:17426   */\n      0x00\n        /* \"#utility.yul\":17451:17490   */\n      tag_855\n        /* \"#utility.yul\":17484:17489   */\n      dup3\n        /* \"#utility.yul\":17451:17490   */\n      tag_856\n      jump\t// in\n    tag_855:\n        /* \"#utility.yul\":17506:17567   */\n      tag_857\n        /* \"#utility.yul\":17560:17566   */\n      dup2\n        /* \"#utility.yul\":17555:17558   */\n      dup6\n        /* \"#utility.yul\":17506:17567   */\n      tag_858\n      jump\t// in\n    tag_857:\n        /* \"#utility.yul\":17499:17567   */\n      swap4\n      pop\n        /* \"#utility.yul\":17576:17628   */\n      tag_859\n        /* \"#utility.yul\":17621:17627   */\n      dup2\n        /* \"#utility.yul\":17616:17619   */\n      dup6\n        /* \"#utility.yul\":17609:17613   */\n      0x20\n        /* \"#utility.yul\":17602:17607   */\n      dup7\n        /* \"#utility.yul\":17598:17614   */\n      add\n        /* \"#utility.yul\":17576:17628   */\n      tag_860\n      jump\t// in\n    tag_859:\n        /* \"#utility.yul\":17653:17682   */\n      tag_861\n        /* \"#utility.yul\":17675:17681   */\n      dup2\n        /* \"#utility.yul\":17653:17682   */\n      tag_862\n      jump\t// in\n    tag_861:\n        /* \"#utility.yul\":17648:17651   */\n      dup5\n        /* \"#utility.yul\":17644:17683   */\n      add\n        /* \"#utility.yul\":17637:17683   */\n      swap2\n      pop\n        /* \"#utility.yul\":17427:17689   */\n      pop\n        /* \"#utility.yul\":17345:17689   */\n      swap3\n      swap2\n      pop\n      pop\n      jump\t// out\n        /* \"#utility.yul\":17695:18072   */\n    tag_863:\n        /* \"#utility.yul\":17801:17804   */\n      0x00\n        /* \"#utility.yul\":17829:17868   */\n      tag_865\n        /* \"#utility.yul\":17862:17867   */\n      dup3\n        /* \"#utility.yul\":17829:17868   */\n      tag_856\n      jump\t// in\n    tag_865:\n        /* \"#utility.yul\":17884:17973   */\n      tag_866\n        /* \"#utility.yul\":17966:17972   */\n      dup2\n        /* \"#utility.yul\":17961:17964   */\n      dup6\n        /* \"#utility.yul\":17884:17973   */\n      tag_867\n      jump\t// in\n    tag_866:\n        /* \"#utility.yul\":17877:17973   */\n      swap4\n      pop\n        /* \"#utility.yul\":17982:18034   */\n      tag_868\n        /* \"#utility.yul\":18027:18033   */\n      dup2\n        /* \"#utility.yul\":18022:18025   */\n      dup6\n        /* \"#utility.yul\":18015:18019   */\n      0x20\n        /* \"#utility.yul\":18008:18013   */\n      dup7\n        /* \"#utility.yul\":18004:18020   */\n      add\n        /* \"#utility.yul\":17982:18034   */\n      tag_860\n      jump\t// in\n    tag_868:\n        /* \"#utility.yul\":18059:18065   */\n      dup1\n        /* \"#utility.yul\":18054:18057   */\n      dup5\n        /* \"#utility.yul\":18050:18066   */\n      add\n        /* \"#utility.yul\":18043:18066   */\n      swap2\n      pop\n        /* \"#utility.yul\":17805:18072   */\n      pop\n        /* \"#utility.yul\":17695:18072   */\n      swap3\n      swap2\n      pop\n      pop\n      jump\t// out\n        /* \"#utility.yul\":18078:18444   */\n    tag_869:\n        /* \"#utility.yul\":18220:18223   */\n      0x00\n        /* \"#utility.yul\":18241:18308   */\n      tag_871\n        /* \"#utility.yul\":18305:18307   */\n      0x12\n        /* \"#utility.yul\":18300:18303   */\n      dup4\n        /* \"#utility.yul\":18241:18308   */\n      tag_872\n      jump\t// in\n    tag_871:\n        /* \"#utility.yul\":18234:18308   */\n      swap2\n      pop\n        /* \"#utility.yul\":18317:18410   */\n      tag_873\n        /* \"#utility.yul\":18406:18409   */\n      dup3\n        /* \"#utility.yul\":18317:18410   */\n      tag_874\n      jump\t// in\n    tag_873:\n        /* \"#utility.yul\":18435:18437   */\n      0x20\n        /* \"#utility.yul\":18430:18433   */\n      dup3\n        /* \"#utility.yul\":18426:18438   */\n      add\n        /* \"#utility.yul\":18419:18438   */\n      swap1\n      pop\n        /* \"#utility.yul\":18078:18444   */\n      swap2\n      swap1\n      pop\n      jump\t// out\n        /* \"#utility.yul\":18450:18816   */\n    tag_875:\n        /* \"#utility.yul\":18592:18595   */\n      0x00\n        /* \"#utility.yul\":18613:18680   */\n      tag_877\n        /* \"#utility.yul\":18677:18679   */\n      0x26\n        /* \"#utility.yul\":18672:18675   */\n      dup4\n        /* \"#utility.yul\":18613:18680   */\n      tag_872\n      jump\t// in\n    tag_877:\n        /* \"#utility.yul\":18606:18680   */\n      swap2\n      pop\n        /* \"#utility.yul\":18689:18782   */\n      tag_878\n        /* \"#utility.yul\":18778:18781   */\n      dup3\n        /* \"#utility.yul\":18689:18782   */\n      tag_879\n      jump\t// in\n    tag_878:\n        /* \"#utility.yul\":18807:18809   */\n      0x40\n        /* \"#utility.yul\":18802:18805   */\n      dup3\n        /* \"#utility.yul\":18798:18810   */\n      add\n        /* \"#utility.yul\":18791:18810   */\n      swap1\n      pop\n        /* \"#utility.yul\":18450:18816   */\n      swap2\n      swap1\n      pop\n      jump\t// out\n        /* \"#utility.yul\":18822:19188   */\n    tag_880:\n        /* \"#utility.yul\":18964:18967   */\n      0x00\n        /* \"#utility.yul\":18985:19052   */\n      tag_882\n        /* \"#utility.yul\":19049:19051   */\n      0x35\n        /* \"#utility.yul\":19044:19047   */\n      dup4\n        /* \"#utility.yul\":18985:19052   */\n      tag_872\n      jump\t// in\n    tag_882:\n        /* \"#utility.yul\":18978:19052   */\n      swap2\n      pop\n        /* \"#utility.yul\":19061:19154   */\n      tag_883\n        /* \"#utility.yul\":19150:19153   */\n      dup3\n        /* \"#utility.yul\":19061:19154   */\n      tag_884\n      jump\t// in\n    tag_883:\n        /* \"#utility.yul\":19179:19181   */\n      0x40\n        /* \"#utility.yul\":19174:19177   */\n      dup3\n        /* \"#utility.yul\":19170:19182   */\n      add\n        /* \"#utility.yul\":19163:19182   */\n      swap1\n      pop\n        /* \"#utility.yul\":18822:19188   */\n      swap2\n      swap1\n      pop\n      jump\t// out\n        /* \"#utility.yul\":19194:19560   */\n    tag_885:\n        /* \"#utility.yul\":19336:19339   */\n      0x00\n        /* \"#utility.yul\":19357:19424   */\n      tag_887\n        /* \"#utility.yul\":19421:19423   */\n      0x13\n        /* \"#utility.yul\":19416:19419   */\n      dup4\n        /* \"#utility.yul\":19357:19424   */\n      tag_872\n      jump\t// in\n    tag_887:\n        /* \"#utility.yul\":19350:19424   */\n      swap2\n      pop\n        /* \"#utility.yul\":19433:19526   */\n      tag_888\n        /* \"#utility.yul\":19522:19525   */\n      dup3\n        /* \"#utility.yul\":19433:19526   */\n      tag_889\n      jump\t// in\n    tag_888:\n        /* \"#utility.yul\":19551:19553   */\n      0x20\n        /* \"#utility.yul\":19546:19549   */\n      dup3\n        /* \"#utility.yul\":19542:19554   */\n      add\n        /* \"#utility.yul\":19535:19554   */\n      swap1\n      pop\n        /* \"#utility.yul\":19194:19560   */\n      swap2\n      swap1\n      pop\n      jump\t// out\n        /* \"#utility.yul\":19566:19932   */\n    tag_890:\n        /* \"#utility.yul\":19708:19711   */\n      0x00\n        /* \"#utility.yul\":19729:19796   */\n      tag_892\n        /* \"#utility.yul\":19793:19795   */\n      0x11\n        /* \"#utility.yul\":19788:19791   */\n      dup4\n        /* \"#utility.yul\":19729:19796   */\n      tag_872\n      jump\t// in\n    tag_892:\n        /* \"#utility.yul\":19722:19796   */\n      swap2\n      pop\n        /* \"#utility.yul\":19805:19898   */\n      tag_893\n        /* \"#utility.yul\":19894:19897   */\n      dup3\n        /* \"#utility.yul\":19805:19898   */\n      tag_894\n      jump\t// in\n    tag_893:\n        /* \"#utility.yul\":19923:19925   */\n      0x20\n        /* \"#utility.yul\":19918:19921   */\n      dup3\n        /* \"#utility.yul\":19914:19926   */\n      add\n        /* \"#utility.yul\":19907:19926   */\n      swap1\n      pop\n        /* \"#utility.yul\":19566:19932   */\n      swap2\n      swap1\n      pop\n      jump\t// out\n        /* \"#utility.yul\":19938:20304   */\n    tag_895:\n        /* \"#utility.yul\":20080:20083   */\n      0x00\n        /* \"#utility.yul\":20101:20168   */\n      tag_897\n        /* \"#utility.yul\":20165:20167   */\n      0x1c\n        /* \"#utility.yul\":20160:20163   */\n      dup4\n        /* \"#utility.yul\":20101:20168   */\n      tag_872\n      jump\t// in\n    tag_897:\n        /* \"#utility.yul\":20094:20168   */\n      swap2\n      pop\n        /* \"#utility.yul\":20177:20270   */\n      tag_898\n        /* \"#utility.yul\":20266:20269   */\n      dup3\n        /* \"#utility.yul\":20177:20270   */\n      tag_899\n      jump\t// in\n    tag_898:\n        /* \"#utility.yul\":20295:20297   */\n      0x20\n        /* \"#utility.yul\":20290:20293   */\n      dup3\n        /* \"#utility.yul\":20286:20298   */\n      add\n        /* \"#utility.yul\":20279:20298   */\n      swap1\n      pop\n        /* \"#utility.yul\":19938:20304   */\n      swap2\n      swap1\n      pop\n      jump\t// out\n        /* \"#utility.yul\":20310:20676   */\n    tag_900:\n        /* \"#utility.yul\":20452:20455   */\n      0x00\n        /* \"#utility.yul\":20473:20540   */\n      tag_902\n        /* \"#utility.yul\":20537:20539   */\n      0x20\n        /* \"#utility.yul\":20532:20535   */\n      dup4\n        /* \"#utility.yul\":20473:20540   */\n      tag_872\n      jump\t// in\n    tag_902:\n        /* \"#utility.yul\":20466:20540   */\n      swap2\n      pop\n        /* \"#utility.yul\":20549:20642   */\n      tag_903\n        /* \"#utility.yul\":20638:20641   */\n      dup3\n        /* \"#utility.yul\":20549:20642   */\n      tag_904\n      jump\t// in\n    tag_903:\n        /* \"#utility.yul\":20667:20669   */\n      0x20\n        /* \"#utility.yul\":20662:20665   */\n      dup3\n        /* \"#utility.yul\":20658:20670   */\n      add\n        /* \"#utility.yul\":20651:20670   */\n      swap1\n      pop\n        /* \"#utility.yul\":20310:20676   */\n      swap2\n      swap1\n      pop\n      jump\t// out\n        /* \"#utility.yul\":20682:21048   */\n    tag_905:\n        /* \"#utility.yul\":20824:20827   */\n      0x00\n        /* \"#utility.yul\":20845:20912   */\n      tag_907\n        /* \"#utility.yul\":20909:20911   */\n      0x15\n        /* \"#utility.yul\":20904:20907   */\n      dup4\n        /* \"#utility.yul\":20845:20912   */\n      tag_872\n      jump\t// in\n    tag_907:\n        /* \"#utility.yul\":20838:20912   */\n      swap2\n      pop\n        /* \"#utility.yul\":20921:21014   */\n      tag_908\n        /* \"#utility.yul\":21010:21013   */\n      dup3\n        /* \"#utility.yul\":20921:21014   */\n      tag_909\n      jump\t// in\n    tag_908:\n        /* \"#utility.yul\":21039:21041   */\n      0x20\n        /* \"#utility.yul\":21034:21037   */\n      dup3\n        /* \"#utility.yul\":21030:21042   */\n      add\n        /* \"#utility.yul\":21023:21042   */\n      swap1\n      pop\n        /* \"#utility.yul\":20682:21048   */\n      swap2\n      swap1\n      pop\n      jump\t// out\n        /* \"#utility.yul\":21054:21420   */\n    tag_910:\n        /* \"#utility.yul\":21196:21199   */\n      0x00\n        /* \"#utility.yul\":21217:21284   */\n      tag_912\n        /* \"#utility.yul\":21281:21283   */\n      0x12\n        /* \"#utility.yul\":21276:21279   */\n      dup4\n        /* \"#utility.yul\":21217:21284   */\n      tag_872\n      jump\t// in\n    tag_912:\n        /* \"#utility.yul\":21210:21284   */\n      swap2\n      pop\n        /* \"#utility.yul\":21293:21386   */\n      tag_913\n        /* \"#utility.yul\":21382:21385   */\n      dup3\n        /* \"#utility.yul\":21293:21386   */\n      tag_914\n      jump\t// in\n    tag_913:\n        /* \"#utility.yul\":21411:21413   */\n      0x20\n        /* \"#utility.yul\":21406:21409   */\n      dup3\n        /* \"#utility.yul\":21402:21414   */\n      add\n        /* \"#utility.yul\":21395:21414   */\n      swap1\n      pop\n        /* \"#utility.yul\":21054:21420   */\n      swap2\n      swap1\n      pop\n      jump\t// out\n        /* \"#utility.yul\":21426:21824   */\n    tag_915:\n        /* \"#utility.yul\":21585:21588   */\n      0x00\n        /* \"#utility.yul\":21606:21689   */\n      tag_917\n        /* \"#utility.yul\":21687:21688   */\n      0x00\n        /* \"#utility.yul\":21682:21685   */\n      dup4\n        /* \"#utility.yul\":21606:21689   */\n      tag_918\n      jump\t// in\n    tag_917:\n        /* \"#utility.yul\":21599:21689   */\n      swap2\n      pop\n        /* \"#utility.yul\":21698:21791   */\n      tag_919\n        /* \"#utility.yul\":21787:21790   */\n      dup3\n        /* \"#utility.yul\":21698:21791   */\n      tag_920\n      jump\t// in\n    tag_919:\n        /* \"#utility.yul\":21816:21817   */\n      0x00\n        /* \"#utility.yul\":21811:21814   */\n      dup3\n        /* \"#utility.yul\":21807:21818   */\n      add\n        /* \"#utility.yul\":21800:21818   */\n      swap1\n      pop\n        /* \"#utility.yul\":21426:21824   */\n      swap2\n      swap1\n      pop\n      jump\t// out\n        /* \"#utility.yul\":21830:22230   */\n    tag_921:\n        /* \"#utility.yul\":21990:21993   */\n      0x00\n        /* \"#utility.yul\":22011:22095   */\n      tag_923\n        /* \"#utility.yul\":22093:22094   */\n      0x00\n        /* \"#utility.yul\":22088:22091   */\n      dup4\n        /* \"#utility.yul\":22011:22095   */\n      tag_867\n      jump\t// in\n    tag_923:\n        /* \"#utility.yul\":22004:22095   */\n      swap2\n      pop\n        /* \"#utility.yul\":22104:22197   */\n      tag_924\n        /* \"#utility.yul\":22193:22196   */\n      dup3\n        /* \"#utility.yul\":22104:22197   */\n      tag_920\n      jump\t// in\n    tag_924:\n        /* \"#utility.yul\":22222:22223   */\n      0x00\n        /* \"#utility.yul\":22217:22220   */\n      dup3\n        /* \"#utility.yul\":22213:22224   */\n      add\n        /* \"#utility.yul\":22206:22224   */\n      swap1\n      pop\n        /* \"#utility.yul\":21830:22230   */\n      swap2\n      swap1\n      pop\n      jump\t// out\n        /* \"#utility.yul\":22236:22602   */\n    tag_925:\n        /* \"#utility.yul\":22378:22381   */\n      0x00\n        /* \"#utility.yul\":22399:22466   */\n      tag_927\n        /* \"#utility.yul\":22463:22465   */\n      0x14\n        /* \"#utility.yul\":22458:22461   */\n      dup4\n        /* \"#utility.yul\":22399:22466   */\n      tag_872\n      jump\t// in\n    tag_927:\n        /* \"#utility.yul\":22392:22466   */\n      swap2\n      pop\n        /* \"#utility.yul\":22475:22568   */\n      tag_928\n        /* \"#utility.yul\":22564:22567   */\n      dup3\n        /* \"#utility.yul\":22475:22568   */\n      tag_929\n      jump\t// in\n    tag_928:\n        /* \"#utility.yul\":22593:22595   */\n      0x20\n        /* \"#utility.yul\":22588:22591   */\n      dup3\n        /* \"#utility.yul\":22584:22596   */\n      add\n        /* \"#utility.yul\":22577:22596   */\n      swap1\n      pop\n        /* \"#utility.yul\":22236:22602   */\n      swap2\n      swap1\n      pop\n      jump\t// out\n        /* \"#utility.yul\":22672:24402   */\n    tag_793:\n        /* \"#utility.yul\":22779:22782   */\n      0x00\n        /* \"#utility.yul\":22815:22819   */\n      0xe0\n        /* \"#utility.yul\":22810:22813   */\n      dup4\n        /* \"#utility.yul\":22806:22820   */\n      add\n        /* \"#utility.yul\":22900:22904   */\n      0x00\n        /* \"#utility.yul\":22893:22898   */\n      dup4\n        /* \"#utility.yul\":22889:22905   */\n      add\n        /* \"#utility.yul\":22883:22906   */\n      mload\n        /* \"#utility.yul\":22919:22982   */\n      tag_931\n        /* \"#utility.yul\":22976:22980   */\n      0x00\n        /* \"#utility.yul\":22971:22974   */\n      dup7\n        /* \"#utility.yul\":22967:22981   */\n      add\n        /* \"#utility.yul\":22953:22965   */\n      dup3\n        /* \"#utility.yul\":22919:22982   */\n      tag_932\n      jump\t// in\n    tag_931:\n        /* \"#utility.yul\":22830:22992   */\n      pop\n        /* \"#utility.yul\":23075:23079   */\n      0x20\n        /* \"#utility.yul\":23068:23073   */\n      dup4\n        /* \"#utility.yul\":23064:23080   */\n      add\n        /* \"#utility.yul\":23058:23081   */\n      mload\n        /* \"#utility.yul\":23094:23157   */\n      tag_933\n        /* \"#utility.yul\":23151:23155   */\n      0x20\n        /* \"#utility.yul\":23146:23149   */\n      dup7\n        /* \"#utility.yul\":23142:23156   */\n      add\n        /* \"#utility.yul\":23128:23140   */\n      dup3\n        /* \"#utility.yul\":23094:23157   */\n      tag_798\n      jump\t// in\n    tag_933:\n        /* \"#utility.yul\":23002:23167   */\n      pop\n        /* \"#utility.yul\":23249:23253   */\n      0x40\n        /* \"#utility.yul\":23242:23247   */\n      dup4\n        /* \"#utility.yul\":23238:23254   */\n      add\n        /* \"#utility.yul\":23232:23255   */\n      mload\n        /* \"#utility.yul\":23302:23305   */\n      dup5\n        /* \"#utility.yul\":23296:23300   */\n      dup3\n        /* \"#utility.yul\":23292:23306   */\n      sub\n        /* \"#utility.yul\":23285:23289   */\n      0x40\n        /* \"#utility.yul\":23280:23283   */\n      dup7\n        /* \"#utility.yul\":23276:23290   */\n      add\n        /* \"#utility.yul\":23269:23307   */\n      mstore\n        /* \"#utility.yul\":23328:23401   */\n      tag_934\n        /* \"#utility.yul\":23396:23400   */\n      dup3\n        /* \"#utility.yul\":23382:23394   */\n      dup3\n        /* \"#utility.yul\":23328:23401   */\n      tag_789\n      jump\t// in\n    tag_934:\n        /* \"#utility.yul\":23320:23401   */\n      swap2\n      pop\n        /* \"#utility.yul\":23177:23412   */\n      pop\n        /* \"#utility.yul\":23501:23505   */\n      0x60\n        /* \"#utility.yul\":23494:23499   */\n      dup4\n        /* \"#utility.yul\":23490:23506   */\n      add\n        /* \"#utility.yul\":23484:23507   */\n      mload\n        /* \"#utility.yul\":23554:23557   */\n      dup5\n        /* \"#utility.yul\":23548:23552   */\n      dup3\n        /* \"#utility.yul\":23544:23558   */\n      sub\n        /* \"#utility.yul\":23537:23541   */\n      0x60\n        /* \"#utility.yul\":23532:23535   */\n      dup7\n        /* \"#utility.yul\":23528:23542   */\n      add\n        /* \"#utility.yul\":23521:23559   */\n      mstore\n        /* \"#utility.yul\":23580:23653   */\n      tag_935\n        /* \"#utility.yul\":23648:23652   */\n      dup3\n        /* \"#utility.yul\":23634:23646   */\n      dup3\n        /* \"#utility.yul\":23580:23653   */\n      tag_789\n      jump\t// in\n    tag_935:\n        /* \"#utility.yul\":23572:23653   */\n      swap2\n      pop\n        /* \"#utility.yul\":23422:23664   */\n      pop\n        /* \"#utility.yul\":23746:23750   */\n      0x80\n        /* \"#utility.yul\":23739:23744   */\n      dup4\n        /* \"#utility.yul\":23735:23751   */\n      add\n        /* \"#utility.yul\":23729:23752   */\n      mload\n        /* \"#utility.yul\":23799:23802   */\n      dup5\n        /* \"#utility.yul\":23793:23797   */\n      dup3\n        /* \"#utility.yul\":23789:23803   */\n      sub\n        /* \"#utility.yul\":23782:23786   */\n      0x80\n        /* \"#utility.yul\":23777:23780   */\n      dup7\n        /* \"#utility.yul\":23773:23787   */\n      add\n        /* \"#utility.yul\":23766:23804   */\n      mstore\n        /* \"#utility.yul\":23825:23898   */\n      tag_936\n        /* \"#utility.yul\":23893:23897   */\n      dup3\n        /* \"#utility.yul\":23879:23891   */\n      dup3\n        /* \"#utility.yul\":23825:23898   */\n      tag_789\n      jump\t// in\n    tag_936:\n        /* \"#utility.yul\":23817:23898   */\n      swap2\n      pop\n        /* \"#utility.yul\":23674:23909   */\n      pop\n        /* \"#utility.yul\":23991:23995   */\n      0xa0\n        /* \"#utility.yul\":23984:23989   */\n      dup4\n        /* \"#utility.yul\":23980:23996   */\n      add\n        /* \"#utility.yul\":23974:23997   */\n      mload\n        /* \"#utility.yul\":24044:24047   */\n      dup5\n        /* \"#utility.yul\":24038:24042   */\n      dup3\n        /* \"#utility.yul\":24034:24048   */\n      sub\n        /* \"#utility.yul\":24027:24031   */\n      0xa0\n        /* \"#utility.yul\":24022:24025   */\n      dup7\n        /* \"#utility.yul\":24018:24032   */\n      add\n        /* \"#utility.yul\":24011:24049   */\n      mstore\n        /* \"#utility.yul\":24070:24193   */\n      tag_937\n        /* \"#utility.yul\":24188:24192   */\n      dup3\n        /* \"#utility.yul\":24174:24186   */\n      dup3\n        /* \"#utility.yul\":24070:24193   */\n      tag_805\n      jump\t// in\n    tag_937:\n        /* \"#utility.yul\":24062:24193   */\n      swap2\n      pop\n        /* \"#utility.yul\":23919:24204   */\n      pop\n        /* \"#utility.yul\":24289:24293   */\n      0xc0\n        /* \"#utility.yul\":24282:24287   */\n      dup4\n        /* \"#utility.yul\":24278:24294   */\n      add\n        /* \"#utility.yul\":24272:24295   */\n      mload\n        /* \"#utility.yul\":24308:24365   */\n      tag_938\n        /* \"#utility.yul\":24359:24363   */\n      0xc0\n        /* \"#utility.yul\":24354:24357   */\n      dup7\n        /* \"#utility.yul\":24350:24364   */\n      add\n        /* \"#utility.yul\":24336:24348   */\n      dup3\n        /* \"#utility.yul\":24308:24365   */\n      tag_847\n      jump\t// in\n    tag_938:\n        /* \"#utility.yul\":24214:24375   */\n      pop\n        /* \"#utility.yul\":24392:24396   */\n      dup1\n        /* \"#utility.yul\":24385:24396   */\n      swap2\n      pop\n        /* \"#utility.yul\":22784:24402   */\n      pop\n        /* \"#utility.yul\":22672:24402   */\n      swap3\n      swap2\n      pop\n      pop\n      jump\t// out\n        /* \"#utility.yul\":24488:25367   */\n    tag_939:\n        /* \"#utility.yul\":24649:24653   */\n      0x80\n        /* \"#utility.yul\":24644:24647   */\n      dup3\n        /* \"#utility.yul\":24640:24654   */\n      add\n        /* \"#utility.yul\":24737:24741   */\n      0x00\n        /* \"#utility.yul\":24730:24735   */\n      dup3\n        /* \"#utility.yul\":24726:24742   */\n      add\n        /* \"#utility.yul\":24720:24743   */\n      mload\n        /* \"#utility.yul\":24756:24819   */\n      tag_941\n        /* \"#utility.yul\":24813:24817   */\n      0x00\n        /* \"#utility.yul\":24808:24811   */\n      dup6\n        /* \"#utility.yul\":24804:24818   */\n      add\n        /* \"#utility.yul\":24790:24802   */\n      dup3\n        /* \"#utility.yul\":24756:24819   */\n      tag_932\n      jump\t// in\n    tag_941:\n        /* \"#utility.yul\":24664:24829   */\n      pop\n        /* \"#utility.yul\":24911:24915   */\n      0x20\n        /* \"#utility.yul\":24904:24909   */\n      dup3\n        /* \"#utility.yul\":24900:24916   */\n      add\n        /* \"#utility.yul\":24894:24917   */\n      mload\n        /* \"#utility.yul\":24930:24993   */\n      tag_942\n        /* \"#utility.yul\":24987:24991   */\n      0x20\n        /* \"#utility.yul\":24982:24985   */\n      dup6\n        /* \"#utility.yul\":24978:24992   */\n      add\n        /* \"#utility.yul\":24964:24976   */\n      dup3\n        /* \"#utility.yul\":24930:24993   */\n      tag_932\n      jump\t// in\n    tag_942:\n        /* \"#utility.yul\":24839:25003   */\n      pop\n        /* \"#utility.yul\":25089:25093   */\n      0x40\n        /* \"#utility.yul\":25082:25087   */\n      dup3\n        /* \"#utility.yul\":25078:25094   */\n      add\n        /* \"#utility.yul\":25072:25095   */\n      mload\n        /* \"#utility.yul\":25108:25171   */\n      tag_943\n        /* \"#utility.yul\":25165:25169   */\n      0x40\n        /* \"#utility.yul\":25160:25163   */\n      dup6\n        /* \"#utility.yul\":25156:25170   */\n      add\n        /* \"#utility.yul\":25142:25154   */\n      dup3\n        /* \"#utility.yul\":25108:25171   */\n      tag_932\n      jump\t// in\n    tag_943:\n        /* \"#utility.yul\":25013:25181   */\n      pop\n        /* \"#utility.yul\":25268:25272   */\n      0x60\n        /* \"#utility.yul\":25261:25266   */\n      dup3\n        /* \"#utility.yul\":25257:25273   */\n      add\n        /* \"#utility.yul\":25251:25274   */\n      mload\n        /* \"#utility.yul\":25287:25350   */\n      tag_944\n        /* \"#utility.yul\":25344:25348   */\n      0x60\n        /* \"#utility.yul\":25339:25342   */\n      dup6\n        /* \"#utility.yul\":25335:25349   */\n      add\n        /* \"#utility.yul\":25321:25333   */\n      dup3\n        /* \"#utility.yul\":25287:25350   */\n      tag_932\n      jump\t// in\n    tag_944:\n        /* \"#utility.yul\":25191:25360   */\n      pop\n        /* \"#utility.yul\":24618:25367   */\n      pop\n        /* \"#utility.yul\":24488:25367   */\n      pop\n      pop\n      jump\t// out\n        /* \"#utility.yul\":25459:26506   */\n    tag_797:\n        /* \"#utility.yul\":25616:25620   */\n      0xa0\n        /* \"#utility.yul\":25611:25614   */\n      dup3\n        /* \"#utility.yul\":25607:25621   */\n      add\n        /* \"#utility.yul\":25704:25708   */\n      0x00\n        /* \"#utility.yul\":25697:25702   */\n      dup3\n        /* \"#utility.yul\":25693:25709   */\n      add\n        /* \"#utility.yul\":25687:25710   */\n      mload\n        /* \"#utility.yul\":25723:25786   */\n      tag_946\n        /* \"#utility.yul\":25780:25784   */\n      0x00\n        /* \"#utility.yul\":25775:25778   */\n      dup6\n        /* \"#utility.yul\":25771:25785   */\n      add\n        /* \"#utility.yul\":25757:25769   */\n      dup3\n        /* \"#utility.yul\":25723:25786   */\n      tag_932\n      jump\t// in\n    tag_946:\n        /* \"#utility.yul\":25631:25796   */\n      pop\n        /* \"#utility.yul\":25878:25882   */\n      0x20\n        /* \"#utility.yul\":25871:25876   */\n      dup3\n        /* \"#utility.yul\":25867:25883   */\n      add\n        /* \"#utility.yul\":25861:25884   */\n      mload\n        /* \"#utility.yul\":25897:25960   */\n      tag_947\n        /* \"#utility.yul\":25954:25958   */\n      0x20\n        /* \"#utility.yul\":25949:25952   */\n      dup6\n        /* \"#utility.yul\":25945:25959   */\n      add\n        /* \"#utility.yul\":25931:25943   */\n      dup3\n        /* \"#utility.yul\":25897:25960   */\n      tag_932\n      jump\t// in\n    tag_947:\n        /* \"#utility.yul\":25806:25970   */\n      pop\n        /* \"#utility.yul\":26056:26060   */\n      0x40\n        /* \"#utility.yul\":26049:26054   */\n      dup3\n        /* \"#utility.yul\":26045:26061   */\n      add\n        /* \"#utility.yul\":26039:26062   */\n      mload\n        /* \"#utility.yul\":26075:26138   */\n      tag_948\n        /* \"#utility.yul\":26132:26136   */\n      0x40\n        /* \"#utility.yul\":26127:26130   */\n      dup6\n        /* \"#utility.yul\":26123:26137   */\n      add\n        /* \"#utility.yul\":26109:26121   */\n      dup3\n        /* \"#utility.yul\":26075:26138   */\n      tag_932\n      jump\t// in\n    tag_948:\n        /* \"#utility.yul\":25980:26148   */\n      pop\n        /* \"#utility.yul\":26232:26236   */\n      0x60\n        /* \"#utility.yul\":26225:26230   */\n      dup3\n        /* \"#utility.yul\":26221:26237   */\n      add\n        /* \"#utility.yul\":26215:26238   */\n      mload\n        /* \"#utility.yul\":26251:26314   */\n      tag_949\n        /* \"#utility.yul\":26308:26312   */\n      0x60\n        /* \"#utility.yul\":26303:26306   */\n      dup6\n        /* \"#utility.yul\":26299:26313   */\n      add\n        /* \"#utility.yul\":26285:26297   */\n      dup3\n        /* \"#utility.yul\":26251:26314   */\n      tag_798\n      jump\t// in\n    tag_949:\n        /* \"#utility.yul\":26158:26324   */\n      pop\n        /* \"#utility.yul\":26407:26411   */\n      0x80\n        /* \"#utility.yul\":26400:26405   */\n      dup3\n        /* \"#utility.yul\":26396:26412   */\n      add\n        /* \"#utility.yul\":26390:26413   */\n      mload\n        /* \"#utility.yul\":26426:26489   */\n      tag_950\n        /* \"#utility.yul\":26483:26487   */\n      0x80\n        /* \"#utility.yul\":26478:26481   */\n      dup6\n        /* \"#utility.yul\":26474:26488   */\n      add\n        /* \"#utility.yul\":26460:26472   */\n      dup3\n        /* \"#utility.yul\":26426:26489   */\n      tag_798\n      jump\t// in\n    tag_950:\n        /* \"#utility.yul\":26334:26499   */\n      pop\n        /* \"#utility.yul\":25585:26506   */\n      pop\n        /* \"#utility.yul\":25459:26506   */\n      pop\n      pop\n      jump\t// out\n        /* \"#utility.yul\":26512:26620   */\n    tag_932:\n        /* \"#utility.yul\":26589:26613   */\n      tag_952\n        /* \"#utility.yul\":26607:26612   */\n      dup2\n        /* \"#utility.yul\":26589:26613   */\n      tag_953\n      jump\t// in\n    tag_952:\n        /* \"#utility.yul\":26584:26587   */\n      dup3\n        /* \"#utility.yul\":26577:26614   */\n      mstore\n        /* \"#utility.yul\":26512:26620   */\n      pop\n      pop\n      jump\t// out\n        /* \"#utility.yul\":26626:26744   */\n    tag_954:\n        /* \"#utility.yul\":26713:26737   */\n      tag_956\n        /* \"#utility.yul\":26731:26736   */\n      dup2\n        /* \"#utility.yul\":26713:26737   */\n      tag_953\n      jump\t// in\n    tag_956:\n        /* \"#utility.yul\":26708:26711   */\n      dup3\n        /* \"#utility.yul\":26701:26738   */\n      mstore\n        /* \"#utility.yul\":26626:26744   */\n      pop\n      pop\n      jump\t// out\n        /* \"#utility.yul\":26750:27025   */\n    tag_407:\n        /* \"#utility.yul\":26882:26885   */\n      0x00\n        /* \"#utility.yul\":26904:26999   */\n      tag_958\n        /* \"#utility.yul\":26995:26998   */\n      dup3\n        /* \"#utility.yul\":26986:26992   */\n      dup5\n        /* \"#utility.yul\":26904:26999   */\n      tag_863\n      jump\t// in\n    tag_958:\n        /* \"#utility.yul\":26897:26999   */\n      swap2\n      pop\n        /* \"#utility.yul\":27016:27019   */\n      dup2\n        /* \"#utility.yul\":27009:27019   */\n      swap1\n      pop\n        /* \"#utility.yul\":26750:27025   */\n      swap3\n      swap2\n      pop\n      pop\n      jump\t// out\n        /* \"#utility.yul\":27031:27410   */\n    tag_222:\n        /* \"#utility.yul\":27215:27218   */\n      0x00\n        /* \"#utility.yul\":27237:27384   */\n      tag_960\n        /* \"#utility.yul\":27380:27383   */\n      dup3\n        /* \"#utility.yul\":27237:27384   */\n      tag_915\n      jump\t// in\n    tag_960:\n        /* \"#utility.yul\":27230:27384   */\n      swap2\n      pop\n        /* \"#utility.yul\":27401:27404   */\n      dup2\n        /* \"#utility.yul\":27394:27404   */\n      swap1\n      pop\n        /* \"#utility.yul\":27031:27410   */\n      swap2\n      swap1\n      pop\n      jump\t// out\n        /* \"#utility.yul\":27416:27797   */\n    tag_409:\n        /* \"#utility.yul\":27601:27604   */\n      0x00\n        /* \"#utility.yul\":27623:27771   */\n      tag_962\n        /* \"#utility.yul\":27767:27770   */\n      dup3\n        /* \"#utility.yul\":27623:27771   */\n      tag_921\n      jump\t// in\n    tag_962:\n        /* \"#utility.yul\":27616:27771   */\n      swap2\n      pop\n        /* \"#utility.yul\":27788:27791   */\n      dup2\n        /* \"#utility.yul\":27781:27791   */\n      swap1\n      pop\n        /* \"#utility.yul\":27416:27797   */\n      swap2\n      swap1\n      pop\n      jump\t// out\n        /* \"#utility.yul\":27803:28025   */\n    tag_39:\n        /* \"#utility.yul\":27896:27900   */\n      0x00\n        /* \"#utility.yul\":27934:27936   */\n      0x20\n        /* \"#utility.yul\":27923:27932   */\n      dup3\n        /* \"#utility.yul\":27919:27937   */\n      add\n        /* \"#utility.yul\":27911:27937   */\n      swap1\n      pop\n        /* \"#utility.yul\":27947:28018   */\n      tag_964\n        /* \"#utility.yul\":28015:28016   */\n      0x00\n        /* \"#utility.yul\":28004:28013   */\n      dup4\n        /* \"#utility.yul\":28000:28017   */\n      add\n        /* \"#utility.yul\":27991:27997   */\n      dup5\n        /* \"#utility.yul\":27947:28018   */\n      tag_802\n      jump\t// in\n    tag_964:\n        /* \"#utility.yul\":27803:28025   */\n      swap3\n      swap2\n      pop\n      pop\n      jump\t// out\n        /* \"#utility.yul\":28031:28544   */\n    tag_161:\n        /* \"#utility.yul\":28244:28248   */\n      0x00\n        /* \"#utility.yul\":28282:28284   */\n      0x20\n        /* \"#utility.yul\":28271:28280   */\n      dup3\n        /* \"#utility.yul\":28267:28285   */\n      add\n        /* \"#utility.yul\":28259:28285   */\n      swap1\n      pop\n        /* \"#utility.yul\":28331:28340   */\n      dup2\n        /* \"#utility.yul\":28325:28329   */\n      dup2\n        /* \"#utility.yul\":28321:28341   */\n      sub\n        /* \"#utility.yul\":28317:28318   */\n      0x00\n        /* \"#utility.yul\":28306:28315   */\n      dup4\n        /* \"#utility.yul\":28302:28319   */\n      add\n        /* \"#utility.yul\":28295:28342   */\n      mstore\n        /* \"#utility.yul\":28359:28537   */\n      tag_966\n        /* \"#utility.yul\":28532:28536   */\n      dup2\n        /* \"#utility.yul\":28523:28529   */\n      dup5\n        /* \"#utility.yul\":28359:28537   */\n      tag_833\n      jump\t// in\n    tag_966:\n        /* \"#utility.yul\":28351:28537   */\n      swap1\n      pop\n        /* \"#utility.yul\":28031:28544   */\n      swap3\n      swap2\n      pop\n      pop\n      jump\t// out\n        /* \"#utility.yul\":28550:28760   */\n    tag_151:\n        /* \"#utility.yul\":28637:28641   */\n      0x00\n        /* \"#utility.yul\":28675:28677   */\n      0x20\n        /* \"#utility.yul\":28664:28673   */\n      dup3\n        /* \"#utility.yul\":28660:28678   */\n      add\n        /* \"#utility.yul\":28652:28678   */\n      swap1\n      pop\n        /* \"#utility.yul\":28688:28753   */\n      tag_968\n        /* \"#utility.yul\":28750:28751   */\n      0x00\n        /* \"#utility.yul\":28739:28748   */\n      dup4\n        /* \"#utility.yul\":28735:28752   */\n      add\n        /* \"#utility.yul\":28726:28732   */\n      dup5\n        /* \"#utility.yul\":28688:28753   */\n      tag_851\n      jump\t// in\n    tag_968:\n        /* \"#utility.yul\":28550:28760   */\n      swap3\n      swap2\n      pop\n      pop\n      jump\t// out\n        /* \"#utility.yul\":28766:29185   */\n    tag_249:\n        /* \"#utility.yul\":28932:28936   */\n      0x00\n        /* \"#utility.yul\":28970:28972   */\n      0x20\n        /* \"#utility.yul\":28959:28968   */\n      dup3\n        /* \"#utility.yul\":28955:28973   */\n      add\n        /* \"#utility.yul\":28947:28973   */\n      swap1\n      pop\n        /* \"#utility.yul\":29019:29028   */\n      dup2\n        /* \"#utility.yul\":29013:29017   */\n      dup2\n        /* \"#utility.yul\":29009:29029   */\n      sub\n        /* \"#utility.yul\":29005:29006   */\n      0x00\n        /* \"#utility.yul\":28994:29003   */\n      dup4\n        /* \"#utility.yul\":28990:29007   */\n      add\n        /* \"#utility.yul\":28983:29030   */\n      mstore\n        /* \"#utility.yul\":29047:29178   */\n      tag_970\n        /* \"#utility.yul\":29173:29177   */\n      dup2\n        /* \"#utility.yul\":29047:29178   */\n      tag_869\n      jump\t// in\n    tag_970:\n        /* \"#utility.yul\":29039:29178   */\n      swap1\n      pop\n        /* \"#utility.yul\":28766:29185   */\n      swap2\n      swap1\n      pop\n      jump\t// out\n        /* \"#utility.yul\":29191:29610   */\n    tag_565:\n        /* \"#utility.yul\":29357:29361   */\n      0x00\n        /* \"#utility.yul\":29395:29397   */\n      0x20\n        /* \"#utility.yul\":29384:29393   */\n      dup3\n        /* \"#utility.yul\":29380:29398   */\n      add\n        /* \"#utility.yul\":29372:29398   */\n      swap1\n      pop\n        /* \"#utility.yul\":29444:29453   */\n      dup2\n        /* \"#utility.yul\":29438:29442   */\n      dup2\n        /* \"#utility.yul\":29434:29454   */\n      sub\n        /* \"#utility.yul\":29430:29431   */\n      0x00\n        /* \"#utility.yul\":29419:29428   */\n      dup4\n        /* \"#utility.yul\":29415:29432   */\n      add\n        /* \"#utility.yul\":29408:29455   */\n      mstore\n        /* \"#utility.yul\":29472:29603   */\n      tag_972\n        /* \"#utility.yul\":29598:29602   */\n      dup2\n        /* \"#utility.yul\":29472:29603   */\n      tag_875\n      jump\t// in\n    tag_972:\n        /* \"#utility.yul\":29464:29603   */\n      swap1\n      pop\n        /* \"#utility.yul\":29191:29610   */\n      swap2\n      swap1\n      pop\n      jump\t// out\n        /* \"#utility.yul\":29616:30035   */\n    tag_214:\n        /* \"#utility.yul\":29782:29786   */\n      0x00\n        /* \"#utility.yul\":29820:29822   */\n      0x20\n        /* \"#utility.yul\":29809:29818   */\n      dup3\n        /* \"#utility.yul\":29805:29823   */\n      add\n        /* \"#utility.yul\":29797:29823   */\n      swap1\n      pop\n        /* \"#utility.yul\":29869:29878   */\n      dup2\n        /* \"#utility.yul\":29863:29867   */\n      dup2\n        /* \"#utility.yul\":29859:29879   */\n      sub\n        /* \"#utility.yul\":29855:29856   */\n      0x00\n        /* \"#utility.yul\":29844:29853   */\n      dup4\n        /* \"#utility.yul\":29840:29857   */\n      add\n        /* \"#utility.yul\":29833:29880   */\n      mstore\n        /* \"#utility.yul\":29897:30028   */\n      tag_974\n        /* \"#utility.yul\":30023:30027   */\n      dup2\n        /* \"#utility.yul\":29897:30028   */\n      tag_880\n      jump\t// in\n    tag_974:\n        /* \"#utility.yul\":29889:30028   */\n      swap1\n      pop\n        /* \"#utility.yul\":29616:30035   */\n      swap2\n      swap1\n      pop\n      jump\t// out\n        /* \"#utility.yul\":30041:30460   */\n    tag_228:\n        /* \"#utility.yul\":30207:30211   */\n      0x00\n        /* \"#utility.yul\":30245:30247   */\n      0x20\n        /* \"#utility.yul\":30234:30243   */\n      dup3\n        /* \"#utility.yul\":30230:30248   */\n      add\n        /* \"#utility.yul\":30222:30248   */\n      swap1\n      pop\n        /* \"#utility.yul\":30294:30303   */\n      dup2\n        /* \"#utility.yul\":30288:30292   */\n      dup2\n        /* \"#utility.yul\":30284:30304   */\n      sub\n        /* \"#utility.yul\":30280:30281   */\n      0x00\n        /* \"#utility.yul\":30269:30278   */\n      dup4\n        /* \"#utility.yul\":30265:30282   */\n      add\n        /* \"#utility.yul\":30258:30305   */\n      mstore\n        /* \"#utility.yul\":30322:30453   */\n      tag_976\n        /* \"#utility.yul\":30448:30452   */\n      dup2\n        /* \"#utility.yul\":30322:30453   */\n      tag_885\n      jump\t// in\n    tag_976:\n        /* \"#utility.yul\":30314:30453   */\n      swap1\n      pop\n        /* \"#utility.yul\":30041:30460   */\n      swap2\n      swap1\n      pop\n      jump\t// out\n        /* \"#utility.yul\":30466:30885   */\n    tag_191:\n        /* \"#utility.yul\":30632:30636   */\n      0x00\n        /* \"#utility.yul\":30670:30672   */\n      0x20\n        /* \"#utility.yul\":30659:30668   */\n      dup3\n        /* \"#utility.yul\":30655:30673   */\n      add\n        /* \"#utility.yul\":30647:30673   */\n      swap1\n      pop\n        /* \"#utility.yul\":30719:30728   */\n      dup2\n        /* \"#utility.yul\":30713:30717   */\n      dup2\n        /* \"#utility.yul\":30709:30729   */\n      sub\n        /* \"#utility.yul\":30705:30706   */\n      0x00\n        /* \"#utility.yul\":30694:30703   */\n      dup4\n        /* \"#utility.yul\":30690:30707   */\n      add\n        /* \"#utility.yul\":30683:30730   */\n      mstore\n        /* \"#utility.yul\":30747:30878   */\n      tag_978\n        /* \"#utility.yul\":30873:30877   */\n      dup2\n        /* \"#utility.yul\":30747:30878   */\n      tag_890\n      jump\t// in\n    tag_978:\n        /* \"#utility.yul\":30739:30878   */\n      swap1\n      pop\n        /* \"#utility.yul\":30466:30885   */\n      swap2\n      swap1\n      pop\n      jump\t// out\n        /* \"#utility.yul\":30891:31310   */\n    tag_194:\n        /* \"#utility.yul\":31057:31061   */\n      0x00\n        /* \"#utility.yul\":31095:31097   */\n      0x20\n        /* \"#utility.yul\":31084:31093   */\n      dup3\n        /* \"#utility.yul\":31080:31098   */\n      add\n        /* \"#utility.yul\":31072:31098   */\n      swap1\n      pop\n        /* \"#utility.yul\":31144:31153   */\n      dup2\n        /* \"#utility.yul\":31138:31142   */\n      dup2\n        /* \"#utility.yul\":31134:31154   */\n      sub\n        /* \"#utility.yul\":31130:31131   */\n      0x00\n        /* \"#utility.yul\":31119:31128   */\n      dup4\n        /* \"#utility.yul\":31115:31132   */\n      add\n        /* \"#utility.yul\":31108:31155   */\n      mstore\n        /* \"#utility.yul\":31172:31303   */\n      tag_980\n        /* \"#utility.yul\":31298:31302   */\n      dup2\n        /* \"#utility.yul\":31172:31303   */\n      tag_895\n      jump\t// in\n    tag_980:\n        /* \"#utility.yul\":31164:31303   */\n      swap1\n      pop\n        /* \"#utility.yul\":30891:31310   */\n      swap2\n      swap1\n      pop\n      jump\t// out\n        /* \"#utility.yul\":31316:31735   */\n    tag_240:\n        /* \"#utility.yul\":31482:31486   */\n      0x00\n        /* \"#utility.yul\":31520:31522   */\n      0x20\n        /* \"#utility.yul\":31509:31518   */\n      dup3\n        /* \"#utility.yul\":31505:31523   */\n      add\n        /* \"#utility.yul\":31497:31523   */\n      swap1\n      pop\n        /* \"#utility.yul\":31569:31578   */\n      dup2\n        /* \"#utility.yul\":31563:31567   */\n      dup2\n        /* \"#utility.yul\":31559:31579   */\n      sub\n        /* \"#utility.yul\":31555:31556   */\n      0x00\n        /* \"#utility.yul\":31544:31553   */\n      dup4\n        /* \"#utility.yul\":31540:31557   */\n      add\n        /* \"#utility.yul\":31533:31580   */\n      mstore\n        /* \"#utility.yul\":31597:31728   */\n      tag_982\n        /* \"#utility.yul\":31723:31727   */\n      dup2\n        /* \"#utility.yul\":31597:31728   */\n      tag_900\n      jump\t// in\n    tag_982:\n        /* \"#utility.yul\":31589:31728   */\n      swap1\n      pop\n        /* \"#utility.yul\":31316:31735   */\n      swap2\n      swap1\n      pop\n      jump\t// out\n        /* \"#utility.yul\":31741:32160   */\n    tag_373:\n        /* \"#utility.yul\":31907:31911   */\n      0x00\n        /* \"#utility.yul\":31945:31947   */\n      0x20\n        /* \"#utility.yul\":31934:31943   */\n      dup3\n        /* \"#utility.yul\":31930:31948   */\n      add\n        /* \"#utility.yul\":31922:31948   */\n      swap1\n      pop\n        /* \"#utility.yul\":31994:32003   */\n      dup2\n        /* \"#utility.yul\":31988:31992   */\n      dup2\n        /* \"#utility.yul\":31984:32004   */\n      sub\n        /* \"#utility.yul\":31980:31981   */\n      0x00\n        /* \"#utility.yul\":31969:31978   */\n      dup4\n        /* \"#utility.yul\":31965:31982   */\n      add\n        /* \"#utility.yul\":31958:32005   */\n      mstore\n        /* \"#utility.yul\":32022:32153   */\n      tag_984\n        /* \"#utility.yul\":32148:32152   */\n      dup2\n        /* \"#utility.yul\":32022:32153   */\n      tag_905\n      jump\t// in\n    tag_984:\n        /* \"#utility.yul\":32014:32153   */\n      swap1\n      pop\n        /* \"#utility.yul\":31741:32160   */\n      swap2\n      swap1\n      pop\n      jump\t// out\n        /* \"#utility.yul\":32166:32585   */\n    tag_322:\n        /* \"#utility.yul\":32332:32336   */\n      0x00\n        /* \"#utility.yul\":32370:32372   */\n      0x20\n        /* \"#utility.yul\":32359:32368   */\n      dup3\n        /* \"#utility.yul\":32355:32373   */\n      add\n        /* \"#utility.yul\":32347:32373   */\n      swap1\n      pop\n        /* \"#utility.yul\":32419:32428   */\n      dup2\n        /* \"#utility.yul\":32413:32417   */\n      dup2\n        /* \"#utility.yul\":32409:32429   */\n      sub\n        /* \"#utility.yul\":32405:32406   */\n      0x00\n        /* \"#utility.yul\":32394:32403   */\n      dup4\n        /* \"#utility.yul\":32390:32407   */\n      add\n        /* \"#utility.yul\":32383:32430   */\n      mstore\n        /* \"#utility.yul\":32447:32578   */\n      tag_986\n        /* \"#utility.yul\":32573:32577   */\n      dup2\n        /* \"#utility.yul\":32447:32578   */\n      tag_910\n      jump\t// in\n    tag_986:\n        /* \"#utility.yul\":32439:32578   */\n      swap1\n      pop\n        /* \"#utility.yul\":32166:32585   */\n      swap2\n      swap1\n      pop\n      jump\t// out\n        /* \"#utility.yul\":32591:33010   */\n    tag_220:\n        /* \"#utility.yul\":32757:32761   */\n      0x00\n        /* \"#utility.yul\":32795:32797   */\n      0x20\n        /* \"#utility.yul\":32784:32793   */\n      dup3\n        /* \"#utility.yul\":32780:32798   */\n      add\n        /* \"#utility.yul\":32772:32798   */\n      swap1\n      pop\n        /* \"#utility.yul\":32844:32853   */\n      dup2\n        /* \"#utility.yul\":32838:32842   */\n      dup2\n        /* \"#utility.yul\":32834:32854   */\n      sub\n        /* \"#utility.yul\":32830:32831   */\n      0x00\n        /* \"#utility.yul\":32819:32828   */\n      dup4\n        /* \"#utility.yul\":32815:32832   */\n      add\n        /* \"#utility.yul\":32808:32855   */\n      mstore\n        /* \"#utility.yul\":32872:33003   */\n      tag_988\n        /* \"#utility.yul\":32998:33002   */\n      dup2\n        /* \"#utility.yul\":32872:33003   */\n      tag_925\n      jump\t// in\n    tag_988:\n        /* \"#utility.yul\":32864:33003   */\n      swap1\n      pop\n        /* \"#utility.yul\":32591:33010   */\n      swap2\n      swap1\n      pop\n      jump\t// out\n        /* \"#utility.yul\":33016:33367   */\n    tag_135:\n        /* \"#utility.yul\":33173:33177   */\n      0x00\n        /* \"#utility.yul\":33211:33214   */\n      0x80\n        /* \"#utility.yul\":33200:33209   */\n      dup3\n        /* \"#utility.yul\":33196:33215   */\n      add\n        /* \"#utility.yul\":33188:33215   */\n      swap1\n      pop\n        /* \"#utility.yul\":33225:33360   */\n      tag_990\n        /* \"#utility.yul\":33357:33358   */\n      0x00\n        /* \"#utility.yul\":33346:33355   */\n      dup4\n        /* \"#utility.yul\":33342:33359   */\n      add\n        /* \"#utility.yul\":33333:33339   */\n      dup5\n        /* \"#utility.yul\":33225:33360   */\n      tag_939\n      jump\t// in\n    tag_990:\n        /* \"#utility.yul\":33016:33367   */\n      swap3\n      swap2\n      pop\n      pop\n      jump\t// out\n        /* \"#utility.yul\":33373:33595   */\n    tag_103:\n        /* \"#utility.yul\":33466:33470   */\n      0x00\n        /* \"#utility.yul\":33504:33506   */\n      0x20\n        /* \"#utility.yul\":33493:33502   */\n      dup3\n        /* \"#utility.yul\":33489:33507   */\n      add\n        /* \"#utility.yul\":33481:33507   */\n      swap1\n      pop\n        /* \"#utility.yul\":33517:33588   */\n      tag_992\n        /* \"#utility.yul\":33585:33586   */\n      0x00\n        /* \"#utility.yul\":33574:33583   */\n      dup4\n        /* \"#utility.yul\":33570:33587   */\n      add\n        /* \"#utility.yul\":33561:33567   */\n      dup5\n        /* \"#utility.yul\":33517:33588   */\n      tag_954\n      jump\t// in\n    tag_992:\n        /* \"#utility.yul\":33373:33595   */\n      swap3\n      swap2\n      pop\n      pop\n      jump\t// out\n        /* \"#utility.yul\":33601:34180   */\n    tag_83:\n        /* \"#utility.yul\":33820:33824   */\n      0x00\n        /* \"#utility.yul\":33858:33860   */\n      0x40\n        /* \"#utility.yul\":33847:33856   */\n      dup3\n        /* \"#utility.yul\":33843:33861   */\n      add\n        /* \"#utility.yul\":33835:33861   */\n      swap1\n      pop\n        /* \"#utility.yul\":33871:33942   */\n      tag_994\n        /* \"#utility.yul\":33939:33940   */\n      0x00\n        /* \"#utility.yul\":33928:33937   */\n      dup4\n        /* \"#utility.yul\":33924:33941   */\n      add\n        /* \"#utility.yul\":33915:33921   */\n      dup6\n        /* \"#utility.yul\":33871:33942   */\n      tag_954\n      jump\t// in\n    tag_994:\n        /* \"#utility.yul\":33989:33998   */\n      dup2\n        /* \"#utility.yul\":33983:33987   */\n      dup2\n        /* \"#utility.yul\":33979:33999   */\n      sub\n        /* \"#utility.yul\":33974:33976   */\n      0x20\n        /* \"#utility.yul\":33963:33972   */\n      dup4\n        /* \"#utility.yul\":33959:33977   */\n      add\n        /* \"#utility.yul\":33952:34000   */\n      mstore\n        /* \"#utility.yul\":34017:34173   */\n      tag_995\n        /* \"#utility.yul\":34168:34172   */\n      dup2\n        /* \"#utility.yul\":34159:34165   */\n      dup5\n        /* \"#utility.yul\":34017:34173   */\n      tag_819\n      jump\t// in\n    tag_995:\n        /* \"#utility.yul\":34009:34173   */\n      swap1\n      pop\n        /* \"#utility.yul\":33601:34180   */\n      swap4\n      swap3\n      pop\n      pop\n      pop\n      jump\t// out\n        /* \"#utility.yul\":34186:34850   */\n    tag_74:\n        /* \"#utility.yul\":34391:34395   */\n      0x00\n        /* \"#utility.yul\":34429:34432   */\n      0xa0\n        /* \"#utility.yul\":34418:34427   */\n      dup3\n        /* \"#utility.yul\":34414:34433   */\n      add\n        /* \"#utility.yul\":34406:34433   */\n      swap1\n      pop\n        /* \"#utility.yul\":34443:34514   */\n      tag_997\n        /* \"#utility.yul\":34511:34512   */\n      0x00\n        /* \"#utility.yul\":34500:34509   */\n      dup4\n        /* \"#utility.yul\":34496:34513   */\n      add\n        /* \"#utility.yul\":34487:34493   */\n      dup9\n        /* \"#utility.yul\":34443:34514   */\n      tag_954\n      jump\t// in\n    tag_997:\n        /* \"#utility.yul\":34524:34596   */\n      tag_998\n        /* \"#utility.yul\":34592:34594   */\n      0x20\n        /* \"#utility.yul\":34581:34590   */\n      dup4\n        /* \"#utility.yul\":34577:34595   */\n      add\n        /* \"#utility.yul\":34568:34574   */\n      dup8\n        /* \"#utility.yul\":34524:34596   */\n      tag_954\n      jump\t// in\n    tag_998:\n        /* \"#utility.yul\":34606:34678   */\n      tag_999\n        /* \"#utility.yul\":34674:34676   */\n      0x40\n        /* \"#utility.yul\":34663:34672   */\n      dup4\n        /* \"#utility.yul\":34659:34677   */\n      add\n        /* \"#utility.yul\":34650:34656   */\n      dup7\n        /* \"#utility.yul\":34606:34678   */\n      tag_954\n      jump\t// in\n    tag_999:\n        /* \"#utility.yul\":34688:34760   */\n      tag_1000\n        /* \"#utility.yul\":34756:34758   */\n      0x60\n        /* \"#utility.yul\":34745:34754   */\n      dup4\n        /* \"#utility.yul\":34741:34759   */\n      add\n        /* \"#utility.yul\":34732:34738   */\n      dup6\n        /* \"#utility.yul\":34688:34760   */\n      tag_802\n      jump\t// in\n    tag_1000:\n        /* \"#utility.yul\":34770:34843   */\n      tag_1001\n        /* \"#utility.yul\":34838:34841   */\n      0x80\n        /* \"#utility.yul\":34827:34836   */\n      dup4\n        /* \"#utility.yul\":34823:34842   */\n      add\n        /* \"#utility.yul\":34814:34820   */\n      dup5\n        /* \"#utility.yul\":34770:34843   */\n      tag_802\n      jump\t// in\n    tag_1001:\n        /* \"#utility.yul\":34186:34850   */\n      swap7\n      swap6\n      pop\n      pop\n      pop\n      pop\n      pop\n      pop\n      jump\t// out\n        /* \"#utility.yul\":34856:35409   */\n    tag_54:\n        /* \"#utility.yul\":35033:35037   */\n      0x00\n        /* \"#utility.yul\":35071:35074   */\n      0x80\n        /* \"#utility.yul\":35060:35069   */\n      dup3\n        /* \"#utility.yul\":35056:35075   */\n      add\n        /* \"#utility.yul\":35048:35075   */\n      swap1\n      pop\n        /* \"#utility.yul\":35085:35156   */\n      tag_1003\n        /* \"#utility.yul\":35153:35154   */\n      0x00\n        /* \"#utility.yul\":35142:35151   */\n      dup4\n        /* \"#utility.yul\":35138:35155   */\n      add\n        /* \"#utility.yul\":35129:35135   */\n      dup8\n        /* \"#utility.yul\":35085:35156   */\n      tag_954\n      jump\t// in\n    tag_1003:\n        /* \"#utility.yul\":35166:35238   */\n      tag_1004\n        /* \"#utility.yul\":35234:35236   */\n      0x20\n        /* \"#utility.yul\":35223:35232   */\n      dup4\n        /* \"#utility.yul\":35219:35237   */\n      add\n        /* \"#utility.yul\":35210:35216   */\n      dup7\n        /* \"#utility.yul\":35166:35238   */\n      tag_954\n      jump\t// in\n    tag_1004:\n        /* \"#utility.yul\":35248:35320   */\n      tag_1005\n        /* \"#utility.yul\":35316:35318   */\n      0x40\n        /* \"#utility.yul\":35305:35314   */\n      dup4\n        /* \"#utility.yul\":35301:35319   */\n      add\n        /* \"#utility.yul\":35292:35298   */\n      dup6\n        /* \"#utility.yul\":35248:35320   */\n      tag_954\n      jump\t// in\n    tag_1005:\n        /* \"#utility.yul\":35330:35402   */\n      tag_1006\n        /* \"#utility.yul\":35398:35400   */\n      0x60\n        /* \"#utility.yul\":35387:35396   */\n      dup4\n        /* \"#utility.yul\":35383:35401   */\n      add\n        /* \"#utility.yul\":35374:35380   */\n      dup5\n        /* \"#utility.yul\":35330:35402   */\n      tag_954\n      jump\t// in\n    tag_1006:\n        /* \"#utility.yul\":34856:35409   */\n      swap6\n      swap5\n      pop\n      pop\n      pop\n      pop\n      pop\n      jump\t// out\n        /* \"#utility.yul\":35415:35544   */\n    tag_635:\n        /* \"#utility.yul\":35449:35455   */\n      0x00\n        /* \"#utility.yul\":35476:35496   */\n      tag_1008\n      tag_1009\n      jump\t// in\n    tag_1008:\n        /* \"#utility.yul\":35466:35496   */\n      swap1\n      pop\n        /* \"#utility.yul\":35505:35538   */\n      tag_1010\n        /* \"#utility.yul\":35533:35537   */\n      dup3\n        /* \"#utility.yul\":35525:35531   */\n      dup3\n        /* \"#utility.yul\":35505:35538   */\n      tag_1011\n      jump\t// in\n    tag_1010:\n        /* \"#utility.yul\":35415:35544   */\n      swap2\n      swap1\n      pop\n      jump\t// out\n        /* \"#utility.yul\":35550:35625   */\n    tag_1009:\n        /* \"#utility.yul\":35583:35589   */\n      0x00\n        /* \"#utility.yul\":35616:35618   */\n      0x40\n        /* \"#utility.yul\":35610:35619   */\n      mload\n        /* \"#utility.yul\":35600:35619   */\n      swap1\n      pop\n        /* \"#utility.yul\":35550:35625   */\n      swap1\n      jump\t// out\n        /* \"#utility.yul\":35631:35952   */\n    tag_634:\n        /* \"#utility.yul\":35718:35722   */\n      0x00\n        /* \"#utility.yul\":35808:35826   */\n      0xffffffffffffffff\n        /* \"#utility.yul\":35800:35806   */\n      dup3\n        /* \"#utility.yul\":35797:35827   */\n      gt\n        /* \"#utility.yul\":35794:35850   */\n      iszero\n      tag_1014\n      jumpi\n        /* \"#utility.yul\":35830:35848   */\n      tag_1015\n      tag_253\n      jump\t// in\n    tag_1015:\n        /* \"#utility.yul\":35794:35850   */\n    tag_1014:\n        /* \"#utility.yul\":35880:35884   */\n      0x20\n        /* \"#utility.yul\":35872:35878   */\n      dup3\n        /* \"#utility.yul\":35868:35885   */\n      mul\n        /* \"#utility.yul\":35860:35885   */\n      swap1\n      pop\n        /* \"#utility.yul\":35940:35944   */\n      0x20\n        /* \"#utility.yul\":35934:35938   */\n      dup2\n        /* \"#utility.yul\":35930:35945   */\n      add\n        /* \"#utility.yul\":35922:35945   */\n      swap1\n      pop\n        /* \"#utility.yul\":35631:35952   */\n      swap2\n      swap1\n      pop\n      jump\t// out\n        /* \"#utility.yul\":35958:36265   */\n    tag_651:\n        /* \"#utility.yul\":36019:36023   */\n      0x00\n        /* \"#utility.yul\":36109:36127   */\n      0xffffffffffffffff\n        /* \"#utility.yul\":36101:36107   */\n      dup3\n        /* \"#utility.yul\":36098:36128   */\n      gt\n        /* \"#utility.yul\":36095:36151   */\n      iszero\n      tag_1017\n      jumpi\n        /* \"#utility.yul\":36131:36149   */\n      tag_1018\n      tag_253\n      jump\t// in\n    tag_1018:\n        /* \"#utility.yul\":36095:36151   */\n    tag_1017:\n        /* \"#utility.yul\":36169:36198   */\n      tag_1019\n        /* \"#utility.yul\":36191:36197   */\n      dup3\n        /* \"#utility.yul\":36169:36198   */\n      tag_862\n      jump\t// in\n    tag_1019:\n        /* \"#utility.yul\":36161:36198   */\n      swap1\n      pop\n        /* \"#utility.yul\":36253:36257   */\n      0x20\n        /* \"#utility.yul\":36247:36251   */\n      dup2\n        /* \"#utility.yul\":36243:36258   */\n      add\n        /* \"#utility.yul\":36235:36258   */\n      swap1\n      pop\n        /* \"#utility.yul\":35958:36265   */\n      swap2\n      swap1\n      pop\n      jump\t// out\n        /* \"#utility.yul\":36271:36579   */\n    tag_661:\n        /* \"#utility.yul\":36333:36337   */\n      0x00\n        /* \"#utility.yul\":36423:36441   */\n      0xffffffffffffffff\n        /* \"#utility.yul\":36415:36421   */\n      dup3\n        /* \"#utility.yul\":36412:36442   */\n      gt\n        /* \"#utility.yul\":36409:36465   */\n      iszero\n      tag_1021\n      jumpi\n        /* \"#utility.yul\":36445:36463   */\n      tag_1022\n      tag_253\n      jump\t// in\n    tag_1022:\n        /* \"#utility.yul\":36409:36465   */\n    tag_1021:\n        /* \"#utility.yul\":36483:36512   */\n      tag_1023\n        /* \"#utility.yul\":36505:36511   */\n      dup3\n        /* \"#utility.yul\":36483:36512   */\n      tag_862\n      jump\t// in\n    tag_1023:\n        /* \"#utility.yul\":36475:36512   */\n      swap1\n      pop\n        /* \"#utility.yul\":36567:36571   */\n      0x20\n        /* \"#utility.yul\":36561:36565   */\n      dup2\n        /* \"#utility.yul\":36557:36572   */\n      add\n        /* \"#utility.yul\":36549:36572   */\n      swap1\n      pop\n        /* \"#utility.yul\":36271:36579   */\n      swap2\n      swap1\n      pop\n      jump\t// out\n        /* \"#utility.yul\":36585:36727   */\n    tag_812:\n        /* \"#utility.yul\":36662:36666   */\n      0x00\n        /* \"#utility.yul\":36685:36688   */\n      dup2\n        /* \"#utility.yul\":36677:36688   */\n      swap1\n      pop\n        /* \"#utility.yul\":36715:36719   */\n      0x20\n        /* \"#utility.yul\":36710:36713   */\n      dup3\n        /* \"#utility.yul\":36706:36720   */\n      add\n        /* \"#utility.yul\":36698:36720   */\n      swap1\n      pop\n        /* \"#utility.yul\":36585:36727   */\n      swap2\n      swap1\n      pop\n      jump\t// out\n        /* \"#utility.yul\":36733:36889   */\n    tag_826:\n        /* \"#utility.yul\":36824:36828   */\n      0x00\n        /* \"#utility.yul\":36847:36850   */\n      dup2\n        /* \"#utility.yul\":36839:36850   */\n      swap1\n      pop\n        /* \"#utility.yul\":36877:36881   */\n      0x20\n        /* \"#utility.yul\":36872:36875   */\n      dup3\n        /* \"#utility.yul\":36868:36882   */\n      add\n        /* \"#utility.yul\":36860:36882   */\n      swap1\n      pop\n        /* \"#utility.yul\":36733:36889   */\n      swap2\n      swap1\n      pop\n      jump\t// out\n        /* \"#utility.yul\":36895:37062   */\n    tag_840:\n        /* \"#utility.yul\":36997:37001   */\n      0x00\n        /* \"#utility.yul\":37020:37023   */\n      dup2\n        /* \"#utility.yul\":37012:37023   */\n      swap1\n      pop\n        /* \"#utility.yul\":37050:37054   */\n      0x20\n        /* \"#utility.yul\":37045:37048   */\n      dup3\n        /* \"#utility.yul\":37041:37055   */\n      add\n        /* \"#utility.yul\":37033:37055   */\n      swap1\n      pop\n        /* \"#utility.yul\":36895:37062   */\n      swap2\n      swap1\n      pop\n      jump\t// out\n        /* \"#utility.yul\":37068:37192   */\n    tag_808:\n        /* \"#utility.yul\":37145:37151   */\n      0x00\n        /* \"#utility.yul\":37179:37184   */\n      dup2\n        /* \"#utility.yul\":37173:37185   */\n      mload\n        /* \"#utility.yul\":37163:37185   */\n      swap1\n      pop\n        /* \"#utility.yul\":37068:37192   */\n      swap2\n      swap1\n      pop\n      jump\t// out\n        /* \"#utility.yul\":37198:37336   */\n    tag_822:\n        /* \"#utility.yul\":37289:37295   */\n      0x00\n        /* \"#utility.yul\":37323:37328   */\n      dup2\n        /* \"#utility.yul\":37317:37329   */\n      mload\n        /* \"#utility.yul\":37307:37329   */\n      swap1\n      pop\n        /* \"#utility.yul\":37198:37336   */\n      swap2\n      swap1\n      pop\n      jump\t// out\n        /* \"#utility.yul\":37342:37491   */\n    tag_836:\n        /* \"#utility.yul\":37444:37450   */\n      0x00\n        /* \"#utility.yul\":37478:37483   */\n      dup2\n        /* \"#utility.yul\":37472:37484   */\n      mload\n        /* \"#utility.yul\":37462:37484   */\n      swap1\n      pop\n        /* \"#utility.yul\":37342:37491   */\n      swap2\n      swap1\n      pop\n      jump\t// out\n        /* \"#utility.yul\":37497:37596   */\n    tag_856:\n        /* \"#utility.yul\":37549:37555   */\n      0x00\n        /* \"#utility.yul\":37583:37588   */\n      dup2\n        /* \"#utility.yul\":37577:37589   */\n      mload\n        /* \"#utility.yul\":37567:37589   */\n      swap1\n      pop\n        /* \"#utility.yul\":37497:37596   */\n      swap2\n      swap1\n      pop\n      jump\t// out\n        /* \"#utility.yul\":37602:37725   */\n    tag_818:\n        /* \"#utility.yul\":37682:37686   */\n      0x00\n        /* \"#utility.yul\":37714:37718   */\n      0x20\n        /* \"#utility.yul\":37709:37712   */\n      dup3\n        /* \"#utility.yul\":37705:37719   */\n      add\n        /* \"#utility.yul\":37697:37719   */\n      swap1\n      pop\n        /* \"#utility.yul\":37602:37725   */\n      swap2\n      swap1\n      pop\n      jump\t// out\n        /* \"#utility.yul\":37731:37868   */\n    tag_832:\n        /* \"#utility.yul\":37825:37829   */\n      0x00\n        /* \"#utility.yul\":37857:37861   */\n      0x20\n        /* \"#utility.yul\":37852:37855   */\n      dup3\n        /* \"#utility.yul\":37848:37862   */\n      add\n        /* \"#utility.yul\":37840:37862   */\n      swap1\n      pop\n        /* \"#utility.yul\":37731:37868   */\n      swap2\n      swap1\n      pop\n      jump\t// out\n        /* \"#utility.yul\":37874:38022   */\n    tag_846:\n        /* \"#utility.yul\":37979:37983   */\n      0x00\n        /* \"#utility.yul\":38011:38015   */\n      0x20\n        /* \"#utility.yul\":38006:38009   */\n      dup3\n        /* \"#utility.yul\":38002:38016   */\n      add\n        /* \"#utility.yul\":37994:38016   */\n      swap1\n      pop\n        /* \"#utility.yul\":37874:38022   */\n      swap2\n      swap1\n      pop\n      jump\t// out\n        /* \"#utility.yul\":38028:38212   */\n    tag_810:\n        /* \"#utility.yul\":38127:38138   */\n      0x00\n        /* \"#utility.yul\":38161:38167   */\n      dup3\n        /* \"#utility.yul\":38156:38159   */\n      dup3\n        /* \"#utility.yul\":38149:38168   */\n      mstore\n        /* \"#utility.yul\":38201:38205   */\n      0x20\n        /* \"#utility.yul\":38196:38199   */\n      dup3\n        /* \"#utility.yul\":38192:38206   */\n      add\n        /* \"#utility.yul\":38177:38206   */\n      swap1\n      pop\n        /* \"#utility.yul\":38028:38212   */\n      swap3\n      swap2\n      pop\n      pop\n      jump\t// out\n        /* \"#utility.yul\":38218:38426   */\n    tag_824:\n        /* \"#utility.yul\":38341:38352   */\n      0x00\n        /* \"#utility.yul\":38375:38381   */\n      dup3\n        /* \"#utility.yul\":38370:38373   */\n      dup3\n        /* \"#utility.yul\":38363:38382   */\n      mstore\n        /* \"#utility.yul\":38415:38419   */\n      0x20\n        /* \"#utility.yul\":38410:38413   */\n      dup3\n        /* \"#utility.yul\":38406:38420   */\n      add\n        /* \"#utility.yul\":38391:38420   */\n      swap1\n      pop\n        /* \"#utility.yul\":38218:38426   */\n      swap3\n      swap2\n      pop\n      pop\n      jump\t// out\n        /* \"#utility.yul\":38432:38651   */\n    tag_838:\n        /* \"#utility.yul\":38566:38577   */\n      0x00\n        /* \"#utility.yul\":38600:38606   */\n      dup3\n        /* \"#utility.yul\":38595:38598   */\n      dup3\n        /* \"#utility.yul\":38588:38607   */\n      mstore\n        /* \"#utility.yul\":38640:38644   */\n      0x20\n        /* \"#utility.yul\":38635:38638   */\n      dup3\n        /* \"#utility.yul\":38631:38645   */\n      add\n        /* \"#utility.yul\":38616:38645   */\n      swap1\n      pop\n        /* \"#utility.yul\":38432:38651   */\n      swap3\n      swap2\n      pop\n      pop\n      jump\t// out\n        /* \"#utility.yul\":38657:38804   */\n    tag_918:\n        /* \"#utility.yul\":38758:38769   */\n      0x00\n        /* \"#utility.yul\":38795:38798   */\n      dup2\n        /* \"#utility.yul\":38780:38798   */\n      swap1\n      pop\n        /* \"#utility.yul\":38657:38804   */\n      swap3\n      swap2\n      pop\n      pop\n      jump\t// out\n        /* \"#utility.yul\":38810:38969   */\n    tag_858:\n        /* \"#utility.yul\":38884:38895   */\n      0x00\n        /* \"#utility.yul\":38918:38924   */\n      dup3\n        /* \"#utility.yul\":38913:38916   */\n      dup3\n        /* \"#utility.yul\":38906:38925   */\n      mstore\n        /* \"#utility.yul\":38958:38962   */\n      0x20\n        /* \"#utility.yul\":38953:38956   */\n      dup3\n        /* \"#utility.yul\":38949:38963   */\n      add\n        /* \"#utility.yul\":38934:38963   */\n      swap1\n      pop\n        /* \"#utility.yul\":38810:38969   */\n      swap3\n      swap2\n      pop\n      pop\n      jump\t// out\n        /* \"#utility.yul\":38975:39144   */\n    tag_872:\n        /* \"#utility.yul\":39059:39070   */\n      0x00\n        /* \"#utility.yul\":39093:39099   */\n      dup3\n        /* \"#utility.yul\":39088:39091   */\n      dup3\n        /* \"#utility.yul\":39081:39100   */\n      mstore\n        /* \"#utility.yul\":39133:39137   */\n      0x20\n        /* \"#utility.yul\":39128:39131   */\n      dup3\n        /* \"#utility.yul\":39124:39138   */\n      add\n        /* \"#utility.yul\":39109:39138   */\n      swap1\n      pop\n        /* \"#utility.yul\":38975:39144   */\n      swap3\n      swap2\n      pop\n      pop\n      jump\t// out\n        /* \"#utility.yul\":39150:39298   */\n    tag_867:\n        /* \"#utility.yul\":39252:39263   */\n      0x00\n        /* \"#utility.yul\":39289:39292   */\n      dup2\n        /* \"#utility.yul\":39274:39292   */\n      swap1\n      pop\n        /* \"#utility.yul\":39150:39298   */\n      swap3\n      swap2\n      pop\n      pop\n      jump\t// out\n        /* \"#utility.yul\":39304:39609   */\n    tag_217:\n        /* \"#utility.yul\":39344:39347   */\n      0x00\n        /* \"#utility.yul\":39363:39383   */\n      tag_1042\n        /* \"#utility.yul\":39381:39382   */\n      dup3\n        /* \"#utility.yul\":39363:39383   */\n      tag_953\n      jump\t// in\n    tag_1042:\n        /* \"#utility.yul\":39358:39383   */\n      swap2\n      pop\n        /* \"#utility.yul\":39397:39417   */\n      tag_1043\n        /* \"#utility.yul\":39415:39416   */\n      dup4\n        /* \"#utility.yul\":39397:39417   */\n      tag_953\n      jump\t// in\n    tag_1043:\n        /* \"#utility.yul\":39392:39417   */\n      swap3\n      pop\n        /* \"#utility.yul\":39551:39552   */\n      dup3\n        /* \"#utility.yul\":39483:39549   */\n      0xffffffffffffffffffffffffffffffffffffffffffffffffffffffffffffffff\n        /* \"#utility.yul\":39479:39553   */\n      sub\n        /* \"#utility.yul\":39476:39477   */\n      dup3\n        /* \"#utility.yul\":39473:39554   */\n      gt\n        /* \"#utility.yul\":39470:39577   */\n      iszero\n      tag_1044\n      jumpi\n        /* \"#utility.yul\":39557:39575   */\n      tag_1045\n      tag_1046\n      jump\t// in\n    tag_1045:\n        /* \"#utility.yul\":39470:39577   */\n    tag_1044:\n        /* \"#utility.yul\":39601:39602   */\n      dup3\n        /* \"#utility.yul\":39598:39599   */\n      dup3\n        /* \"#utility.yul\":39594:39603   */\n      add\n        /* \"#utility.yul\":39587:39603   */\n      swap1\n      pop\n        /* \"#utility.yul\":39304:39609   */\n      swap3\n      swap2\n      pop\n      pop\n      jump\t// out\n        /* \"#utility.yul\":39615:39800   */\n    tag_182:\n        /* \"#utility.yul\":39655:39656   */\n      0x00\n        /* \"#utility.yul\":39672:39692   */\n      tag_1048\n        /* \"#utility.yul\":39690:39691   */\n      dup3\n        /* \"#utility.yul\":39672:39692   */\n      tag_953\n      jump\t// in\n    tag_1048:\n        /* \"#utility.yul\":39667:39692   */\n      swap2\n      pop\n        /* \"#utility.yul\":39706:39726   */\n      tag_1049\n        /* \"#utility.yul\":39724:39725   */\n      dup4\n        /* \"#utility.yul\":39706:39726   */\n      tag_953\n      jump\t// in\n    tag_1049:\n        /* \"#utility.yul\":39701:39726   */\n      swap3\n      pop\n        /* \"#utility.yul\":39745:39746   */\n      dup3\n        /* \"#utility.yul\":39735:39770   */\n      tag_1050\n      jumpi\n        /* \"#utility.yul\":39750:39768   */\n      tag_1051\n      tag_1052\n      jump\t// in\n    tag_1051:\n        /* \"#utility.yul\":39735:39770   */\n    tag_1050:\n        /* \"#utility.yul\":39792:39793   */\n      dup3\n        /* \"#utility.yul\":39789:39790   */\n      dup3\n        /* \"#utility.yul\":39785:39794   */\n      div\n        /* \"#utility.yul\":39780:39794   */\n      swap1\n      pop\n        /* \"#utility.yul\":39615:39800   */\n      swap3\n      swap2\n      pop\n      pop\n      jump\t// out\n        /* \"#utility.yul\":39806:40154   */\n    tag_180:\n        /* \"#utility.yul\":39846:39853   */\n      0x00\n        /* \"#utility.yul\":39869:39889   */\n      tag_1054\n        /* \"#utility.yul\":39887:39888   */\n      dup3\n        /* \"#utility.yul\":39869:39889   */\n      tag_953\n      jump\t// in\n    tag_1054:\n        /* \"#utility.yul\":39864:39889   */\n      swap2\n      pop\n        /* \"#utility.yul\":39903:39923   */\n      tag_1055\n        /* \"#utility.yul\":39921:39922   */\n      dup4\n        /* \"#utility.yul\":39903:39923   */\n      tag_953\n      jump\t// in\n    tag_1055:\n        /* \"#utility.yul\":39898:39923   */\n      swap3\n      pop\n        /* \"#utility.yul\":40091:40092   */\n      dup2\n        /* \"#utility.yul\":40023:40089   */\n      0xffffffffffffffffffffffffffffffffffffffffffffffffffffffffffffffff\n        /* \"#utility.yul\":40019:40093   */\n      div\n        /* \"#utility.yul\":40016:40017   */\n      dup4\n        /* \"#utility.yul\":40013:40094   */\n      gt\n        /* \"#utility.yul\":40008:40009   */\n      dup3\n        /* \"#utility.yul\":40001:40010   */\n      iszero\n        /* \"#utility.yul\":39994:40011   */\n      iszero\n        /* \"#utility.yul\":39990:40095   */\n      and\n        /* \"#utility.yul\":39987:40118   */\n      iszero\n      tag_1056\n      jumpi\n        /* \"#utility.yul\":40098:40116   */\n      tag_1057\n      tag_1046\n      jump\t// in\n    tag_1057:\n        /* \"#utility.yul\":39987:40118   */\n    tag_1056:\n        /* \"#utility.yul\":40146:40147   */\n      dup3\n        /* \"#utility.yul\":40143:40144   */\n      dup3\n        /* \"#utility.yul\":40139:40148   */\n      mul\n        /* \"#utility.yul\":40128:40148   */\n      swap1\n      pop\n        /* \"#utility.yul\":39806:40154   */\n      swap3\n      swap2\n      pop\n      pop\n      jump\t// out\n        /* \"#utility.yul\":40160:40351   */\n    tag_586:\n        /* \"#utility.yul\":40200:40204   */\n      0x00\n        /* \"#utility.yul\":40220:40240   */\n      tag_1059\n        /* \"#utility.yul\":40238:40239   */\n      dup3\n        /* \"#utility.yul\":40220:40240   */\n      tag_953\n      jump\t// in\n    tag_1059:\n        /* \"#utility.yul\":40215:40240   */\n      swap2\n      pop\n        /* \"#utility.yul\":40254:40274   */\n      tag_1060\n        /* \"#utility.yul\":40272:40273   */\n      dup4\n        /* \"#utility.yul\":40254:40274   */\n      tag_953\n      jump\t// in\n    tag_1060:\n        /* \"#utility.yul\":40249:40274   */\n      swap3\n      pop\n        /* \"#utility.yul\":40293:40294   */\n      dup3\n        /* \"#utility.yul\":40290:40291   */\n      dup3\n        /* \"#utility.yul\":40287:40295   */\n      lt\n        /* \"#utility.yul\":40284:40318   */\n      iszero\n      tag_1061\n      jumpi\n        /* \"#utility.yul\":40298:40316   */\n      tag_1062\n      tag_1046\n      jump\t// in\n    tag_1062:\n        /* \"#utility.yul\":40284:40318   */\n    tag_1061:\n        /* \"#utility.yul\":40343:40344   */\n      dup3\n        /* \"#utility.yul\":40340:40341   */\n      dup3\n        /* \"#utility.yul\":40336:40345   */\n      sub\n        /* \"#utility.yul\":40328:40345   */\n      swap1\n      pop\n        /* \"#utility.yul\":40160:40351   */\n      swap3\n      swap2\n      pop\n      pop\n      jump\t// out\n        /* \"#utility.yul\":40357:40453   */\n    tag_801:\n        /* \"#utility.yul\":40394:40401   */\n      0x00\n        /* \"#utility.yul\":40423:40447   */\n      tag_1064\n        /* \"#utility.yul\":40441:40446   */\n      dup3\n        /* \"#utility.yul\":40423:40447   */\n      tag_1065\n      jump\t// in\n    tag_1064:\n        /* \"#utility.yul\":40412:40447   */\n      swap1\n      pop\n        /* \"#utility.yul\":40357:40453   */\n      swap2\n      swap1\n      pop\n      jump\t// out\n        /* \"#utility.yul\":40459:40549   */\n    tag_850:\n        /* \"#utility.yul\":40493:40500   */\n      0x00\n        /* \"#utility.yul\":40536:40541   */\n      dup2\n        /* \"#utility.yul\":40529:40542   */\n      iszero\n        /* \"#utility.yul\":40522:40543   */\n      iszero\n        /* \"#utility.yul\":40511:40543   */\n      swap1\n      pop\n        /* \"#utility.yul\":40459:40549   */\n      swap2\n      swap1\n      pop\n      jump\t// out\n        /* \"#utility.yul\":40555:40681   */\n    tag_1065:\n        /* \"#utility.yul\":40592:40599   */\n      0x00\n        /* \"#utility.yul\":40632:40674   */\n      0xffffffffffffffffffffffffffffffffffffffff\n        /* \"#utility.yul\":40625:40630   */\n      dup3\n        /* \"#utility.yul\":40621:40675   */\n      and\n        /* \"#utility.yul\":40610:40675   */\n      swap1\n      pop\n        /* \"#utility.yul\":40555:40681   */\n      swap2\n      swap1\n      pop\n      jump\t// out\n        /* \"#utility.yul\":40687:40764   */\n    tag_953:\n        /* \"#utility.yul\":40724:40731   */\n      0x00\n        /* \"#utility.yul\":40753:40758   */\n      dup2\n        /* \"#utility.yul\":40742:40758   */\n      swap1\n      pop\n        /* \"#utility.yul\":40687:40764   */\n      swap2\n      swap1\n      pop\n      jump\t// out\n        /* \"#utility.yul\":40770:40924   */\n    tag_656:\n        /* \"#utility.yul\":40854:40860   */\n      dup3\n        /* \"#utility.yul\":40849:40852   */\n      dup2\n        /* \"#utility.yul\":40844:40847   */\n      dup4\n        /* \"#utility.yul\":40831:40861   */\n      calldatacopy\n        /* \"#utility.yul\":40916:40917   */\n      0x00\n        /* \"#utility.yul\":40907:40913   */\n      dup4\n        /* \"#utility.yul\":40902:40905   */\n      dup4\n        /* \"#utility.yul\":40898:40914   */\n      add\n        /* \"#utility.yul\":40891:40918   */\n      mstore\n        /* \"#utility.yul\":40770:40924   */\n      pop\n      pop\n      pop\n      jump\t// out\n        /* \"#utility.yul\":40930:41237   */\n    tag_860:\n        /* \"#utility.yul\":40998:40999   */\n      0x00\n        /* \"#utility.yul\":41008:41121   */\n    tag_1071:\n        /* \"#utility.yul\":41022:41028   */\n      dup4\n        /* \"#utility.yul\":41019:41020   */\n      dup2\n        /* \"#utility.yul\":41016:41029   */\n      lt\n        /* \"#utility.yul\":41008:41121   */\n      iszero\n      tag_1073\n      jumpi\n        /* \"#utility.yul\":41107:41108   */\n      dup1\n        /* \"#utility.yul\":41102:41105   */\n      dup3\n        /* \"#utility.yul\":41098:41109   */\n      add\n        /* \"#utility.yul\":41092:41110   */\n      mload\n        /* \"#utility.yul\":41088:41089   */\n      dup2\n        /* \"#utility.yul\":41083:41086   */\n      dup5\n        /* \"#utility.yul\":41079:41090   */\n      add\n        /* \"#utility.yul\":41072:41111   */\n      mstore\n        /* \"#utility.yul\":41044:41046   */\n      0x20\n        /* \"#utility.yul\":41041:41042   */\n      dup2\n        /* \"#utility.yul\":41037:41047   */\n      add\n        /* \"#utility.yul\":41032:41047   */\n      swap1\n      pop\n        /* \"#utility.yul\":41008:41121   */\n      jump(tag_1071)\n    tag_1073:\n        /* \"#utility.yul\":41139:41145   */\n      dup4\n        /* \"#utility.yul\":41136:41137   */\n      dup2\n        /* \"#utility.yul\":41133:41146   */\n      gt\n        /* \"#utility.yul\":41130:41231   */\n      iszero\n      tag_1074\n      jumpi\n        /* \"#utility.yul\":41219:41220   */\n      0x00\n        /* \"#utility.yul\":41210:41216   */\n      dup5\n        /* \"#utility.yul\":41205:41208   */\n      dup5\n        /* \"#utility.yul\":41201:41217   */\n      add\n        /* \"#utility.yul\":41194:41221   */\n      mstore\n        /* \"#utility.yul\":41130:41231   */\n    tag_1074:\n        /* \"#utility.yul\":40979:41237   */\n      pop\n        /* \"#utility.yul\":40930:41237   */\n      pop\n      pop\n      pop\n      jump\t// out\n        /* \"#utility.yul\":41243:41563   */\n    tag_270:\n        /* \"#utility.yul\":41287:41293   */\n      0x00\n        /* \"#utility.yul\":41324:41325   */\n      0x02\n        /* \"#utility.yul\":41318:41322   */\n      dup3\n        /* \"#utility.yul\":41314:41326   */\n      div\n        /* \"#utility.yul\":41304:41326   */\n      swap1\n      pop\n        /* \"#utility.yul\":41371:41372   */\n      0x01\n        /* \"#utility.yul\":41365:41369   */\n      dup3\n        /* \"#utility.yul\":41361:41373   */\n      and\n        /* \"#utility.yul\":41392:41410   */\n      dup1\n        /* \"#utility.yul\":41382:41463   */\n      tag_1076\n      jumpi\n        /* \"#utility.yul\":41448:41452   */\n      0x7f\n        /* \"#utility.yul\":41440:41446   */\n      dup3\n        /* \"#utility.yul\":41436:41453   */\n      and\n        /* \"#utility.yul\":41426:41453   */\n      swap2\n      pop\n        /* \"#utility.yul\":41382:41463   */\n    tag_1076:\n        /* \"#utility.yul\":41510:41512   */\n      0x20\n        /* \"#utility.yul\":41502:41508   */\n      dup3\n        /* \"#utility.yul\":41499:41513   */\n      lt\n        /* \"#utility.yul\":41479:41497   */\n      dup2\n        /* \"#utility.yul\":41476:41514   */\n      eq\n        /* \"#utility.yul\":41473:41557   */\n      iszero\n      tag_1077\n      jumpi\n        /* \"#utility.yul\":41529:41547   */\n      tag_1078\n      tag_1079\n      jump\t// in\n    tag_1078:\n        /* \"#utility.yul\":41473:41557   */\n    tag_1077:\n        /* \"#utility.yul\":41294:41563   */\n      pop\n        /* \"#utility.yul\":41243:41563   */\n      swap2\n      swap1\n      pop\n      jump\t// out\n        /* \"#utility.yul\":41569:41850   */\n    tag_1011:\n        /* \"#utility.yul\":41652:41679   */\n      tag_1081\n        /* \"#utility.yul\":41674:41678   */\n      dup3\n        /* \"#utility.yul\":41652:41679   */\n      tag_862\n      jump\t// in\n    tag_1081:\n        /* \"#utility.yul\":41644:41650   */\n      dup2\n        /* \"#utility.yul\":41640:41680   */\n      add\n        /* \"#utility.yul\":41782:41788   */\n      dup2\n        /* \"#utility.yul\":41770:41780   */\n      dup2\n        /* \"#utility.yul\":41767:41789   */\n      lt\n        /* \"#utility.yul\":41746:41764   */\n      0xffffffffffffffff\n        /* \"#utility.yul\":41734:41744   */\n      dup3\n        /* \"#utility.yul\":41731:41765   */\n      gt\n        /* \"#utility.yul\":41728:41790   */\n      or\n        /* \"#utility.yul\":41725:41813   */\n      iszero\n      tag_1082\n      jumpi\n        /* \"#utility.yul\":41793:41811   */\n      tag_1083\n      tag_253\n      jump\t// in\n    tag_1083:\n        /* \"#utility.yul\":41725:41813   */\n    tag_1082:\n        /* \"#utility.yul\":41833:41843   */\n      dup1\n        /* \"#utility.yul\":41829:41831   */\n      0x40\n        /* \"#utility.yul\":41822:41844   */\n      mstore\n        /* \"#utility.yul\":41612:41850   */\n      pop\n        /* \"#utility.yul\":41569:41850   */\n      pop\n      pop\n      jump\t// out\n        /* \"#utility.yul\":41856:42089   */\n    tag_171:\n        /* \"#utility.yul\":41895:41898   */\n      0x00\n        /* \"#utility.yul\":41918:41942   */\n      tag_1085\n        /* \"#utility.yul\":41936:41941   */\n      dup3\n        /* \"#utility.yul\":41918:41942   */\n      tag_953\n      jump\t// in\n    tag_1085:\n        /* \"#utility.yul\":41909:41942   */\n      swap2\n      pop\n        /* \"#utility.yul\":41964:42030   */\n      0xffffffffffffffffffffffffffffffffffffffffffffffffffffffffffffffff\n        /* \"#utility.yul\":41957:41962   */\n      dup3\n        /* \"#utility.yul\":41954:42031   */\n      eq\n        /* \"#utility.yul\":41951:42054   */\n      iszero\n      tag_1086\n      jumpi\n        /* \"#utility.yul\":42034:42052   */\n      tag_1087\n      tag_1046\n      jump\t// in\n    tag_1087:\n        /* \"#utility.yul\":41951:42054   */\n    tag_1086:\n        /* \"#utility.yul\":42081:42082   */\n      0x01\n        /* \"#utility.yul\":42074:42079   */\n      dup3\n        /* \"#utility.yul\":42070:42083   */\n      add\n        /* \"#utility.yul\":42063:42083   */\n      swap1\n      pop\n        /* \"#utility.yul\":41856:42089   */\n      swap2\n      swap1\n      pop\n      jump\t// out\n        /* \"#utility.yul\":42095:42275   */\n    tag_1046:\n        /* \"#utility.yul\":42143:42220   */\n      0x4e487b7100000000000000000000000000000000000000000000000000000000\n        /* \"#utility.yul\":42140:42141   */\n      0x00\n        /* \"#utility.yul\":42133:42221   */\n      mstore\n        /* \"#utility.yul\":42240:42244   */\n      0x11\n        /* \"#utility.yul\":42237:42238   */\n      0x04\n        /* \"#utility.yul\":42230:42245   */\n      mstore\n        /* \"#utility.yul\":42264:42268   */\n      0x24\n        /* \"#utility.yul\":42261:42262   */\n      0x00\n        /* \"#utility.yul\":42254:42269   */\n      revert\n        /* \"#utility.yul\":42281:42461   */\n    tag_1052:\n        /* \"#utility.yul\":42329:42406   */\n      0x4e487b7100000000000000000000000000000000000000000000000000000000\n        /* \"#utility.yul\":42326:42327   */\n      0x00\n        /* \"#utility.yul\":42319:42407   */\n      mstore\n        /* \"#utility.yul\":42426:42430   */\n      0x12\n        /* \"#utility.yul\":42423:42424   */\n      0x04\n        /* \"#utility.yul\":42416:42431   */\n      mstore\n        /* \"#utility.yul\":42450:42454   */\n      0x24\n        /* \"#utility.yul\":42447:42448   */\n      0x00\n        /* \"#utility.yul\":42440:42455   */\n      revert\n        /* \"#utility.yul\":42467:42647   */\n    tag_1079:\n        /* \"#utility.yul\":42515:42592   */\n      0x4e487b7100000000000000000000000000000000000000000000000000000000\n        /* \"#utility.yul\":42512:42513   */\n      0x00\n        /* \"#utility.yul\":42505:42593   */\n      mstore\n        /* \"#utility.yul\":42612:42616   */\n      0x22\n        /* \"#utility.yul\":42609:42610   */\n      0x04\n        /* \"#utility.yul\":42602:42617   */\n      mstore\n        /* \"#utility.yul\":42636:42640   */\n      0x24\n        /* \"#utility.yul\":42633:42634   */\n      0x00\n        /* \"#utility.yul\":42626:42641   */\n      revert\n        /* \"#utility.yul\":42653:42833   */\n    tag_166:\n        /* \"#utility.yul\":42701:42778   */\n      0x4e487b7100000000000000000000000000000000000000000000000000000000\n        /* \"#utility.yul\":42698:42699   */\n      0x00\n        /* \"#utility.yul\":42691:42779   */\n      mstore\n        /* \"#utility.yul\":42798:42802   */\n      0x32\n        /* \"#utility.yul\":42795:42796   */\n      0x04\n        /* \"#utility.yul\":42788:42803   */\n      mstore\n        /* \"#utility.yul\":42822:42826   */\n      0x24\n        /* \"#utility.yul\":42819:42820   */\n      0x00\n        /* \"#utility.yul\":42812:42827   */\n      revert\n        /* \"#utility.yul\":42839:43019   */\n    tag_253:\n        /* \"#utility.yul\":42887:42964   */\n      0x4e487b7100000000000000000000000000000000000000000000000000000000\n        /* \"#utility.yul\":42884:42885   */\n      0x00\n        /* \"#utility.yul\":42877:42965   */\n      mstore\n        /* \"#utility.yul\":42984:42988   */\n      0x41\n        /* \"#utility.yul\":42981:42982   */\n      0x04\n        /* \"#utility.yul\":42974:42989   */\n      mstore\n        /* \"#utility.yul\":43008:43012   */\n      0x24\n        /* \"#utility.yul\":43005:43006   */\n      0x00\n        /* \"#utility.yul\":42998:43013   */\n      revert\n        /* \"#utility.yul\":43025:43142   */\n    tag_644:\n        /* \"#utility.yul\":43134:43135   */\n      0x00\n        /* \"#utility.yul\":43131:43132   */\n      dup1\n        /* \"#utility.yul\":43124:43136   */\n      revert\n        /* \"#utility.yul\":43148:43265   */\n    tag_638:\n        /* \"#utility.yul\":43257:43258   */\n      0x00\n        /* \"#utility.yul\":43254:43255   */\n      dup1\n        /* \"#utility.yul\":43247:43259   */\n      revert\n        /* \"#utility.yul\":43271:43388   */\n    tag_654:\n        /* \"#utility.yul\":43380:43381   */\n      0x00\n        /* \"#utility.yul\":43377:43378   */\n      dup1\n        /* \"#utility.yul\":43370:43382   */\n      revert\n        /* \"#utility.yul\":43394:43511   */\n    tag_715:\n        /* \"#utility.yul\":43503:43504   */\n      0x00\n        /* \"#utility.yul\":43500:43501   */\n      dup1\n        /* \"#utility.yul\":43493:43505   */\n      revert\n        /* \"#utility.yul\":43517:43634   */\n    tag_694:\n        /* \"#utility.yul\":43626:43627   */\n      0x00\n        /* \"#utility.yul\":43623:43624   */\n      dup1\n        /* \"#utility.yul\":43616:43628   */\n      revert\n        /* \"#utility.yul\":43640:43742   */\n    tag_862:\n        /* \"#utility.yul\":43681:43687   */\n      0x00\n        /* \"#utility.yul\":43732:43734   */\n      0x1f\n        /* \"#utility.yul\":43728:43735   */\n      not\n        /* \"#utility.yul\":43723:43725   */\n      0x1f\n        /* \"#utility.yul\":43716:43721   */\n      dup4\n        /* \"#utility.yul\":43712:43726   */\n      add\n        /* \"#utility.yul\":43708:43736   */\n      and\n        /* \"#utility.yul\":43698:43736   */\n      swap1\n      pop\n        /* \"#utility.yul\":43640:43742   */\n      swap2\n      swap1\n      pop\n      jump\t// out\n        /* \"#utility.yul\":43748:43916   */\n    tag_874:\n        /* \"#utility.yul\":43888:43908   */\n      0x436f756c646e2774207769746864726177210000000000000000000000000000\n        /* \"#utility.yul\":43884:43885   */\n      0x00\n        /* \"#utility.yul\":43876:43882   */\n      dup3\n        /* \"#utility.yul\":43872:43886   */\n      add\n        /* \"#utility.yul\":43865:43909   */\n      mstore\n        /* \"#utility.yul\":43748:43916   */\n      pop\n      jump\t// out\n        /* \"#utility.yul\":43922:44147   */\n    tag_879:\n        /* \"#utility.yul\":44062:44096   */\n      0x4f776e61626c653a206e6577206f776e657220697320746865207a65726f2061\n        /* \"#utility.yul\":44058:44059   */\n      0x00\n        /* \"#utility.yul\":44050:44056   */\n      dup3\n        /* \"#utility.yul\":44046:44060   */\n      add\n        /* \"#utility.yul\":44039:44097   */\n      mstore\n        /* \"#utility.yul\":44131:44139   */\n      0x6464726573730000000000000000000000000000000000000000000000000000\n        /* \"#utility.yul\":44126:44128   */\n      0x20\n        /* \"#utility.yul\":44118:44124   */\n      dup3\n        /* \"#utility.yul\":44114:44129   */\n      add\n        /* \"#utility.yul\":44107:44140   */\n      mstore\n        /* \"#utility.yul\":43922:44147   */\n      pop\n      jump\t// out\n        /* \"#utility.yul\":44153:44393   */\n    tag_884:\n        /* \"#utility.yul\":44293:44327   */\n      0x54686520737570706c6965642061646472657373206973206e6f742074686520\n        /* \"#utility.yul\":44289:44290   */\n      0x00\n        /* \"#utility.yul\":44281:44287   */\n      dup3\n        /* \"#utility.yul\":44277:44291   */\n      add\n        /* \"#utility.yul\":44270:44328   */\n      mstore\n        /* \"#utility.yul\":44362:44385   */\n      0x6f776e6572206f66207468652070726f64756374210000000000000000000000\n        /* \"#utility.yul\":44357:44359   */\n      0x20\n        /* \"#utility.yul\":44349:44355   */\n      dup3\n        /* \"#utility.yul\":44345:44360   */\n      add\n        /* \"#utility.yul\":44338:44386   */\n      mstore\n        /* \"#utility.yul\":44153:44393   */\n      pop\n      jump\t// out\n        /* \"#utility.yul\":44399:44568   */\n    tag_889:\n        /* \"#utility.yul\":44539:44560   */\n      0x5472616e73616374696f6e206661696c65642100000000000000000000000000\n        /* \"#utility.yul\":44535:44536   */\n      0x00\n        /* \"#utility.yul\":44527:44533   */\n      dup3\n        /* \"#utility.yul\":44523:44537   */\n      add\n        /* \"#utility.yul\":44516:44561   */\n      mstore\n        /* \"#utility.yul\":44399:44568   */\n      pop\n      jump\t// out\n        /* \"#utility.yul\":44574:44741   */\n    tag_894:\n        /* \"#utility.yul\":44714:44733   */\n      0x5065726d697373696f6e2064656e696564000000000000000000000000000000\n        /* \"#utility.yul\":44710:44711   */\n      0x00\n        /* \"#utility.yul\":44702:44708   */\n      dup3\n        /* \"#utility.yul\":44698:44712   */\n      add\n        /* \"#utility.yul\":44691:44734   */\n      mstore\n        /* \"#utility.yul\":44574:44741   */\n      pop\n      jump\t// out\n        /* \"#utility.yul\":44747:44925   */\n    tag_899:\n        /* \"#utility.yul\":44887:44917   */\n      0x43616e6e6f74207472616e7366657220746f2061646472657373203000000000\n        /* \"#utility.yul\":44883:44884   */\n      0x00\n        /* \"#utility.yul\":44875:44881   */\n      dup3\n        /* \"#utility.yul\":44871:44885   */\n      add\n        /* \"#utility.yul\":44864:44918   */\n      mstore\n        /* \"#utility.yul\":44747:44925   */\n      pop\n      jump\t// out\n        /* \"#utility.yul\":44931:45113   */\n    tag_904:\n        /* \"#utility.yul\":45071:45105   */\n      0x4f776e61626c653a2063616c6c6572206973206e6f7420746865206f776e6572\n        /* \"#utility.yul\":45067:45068   */\n      0x00\n        /* \"#utility.yul\":45059:45065   */\n      dup3\n        /* \"#utility.yul\":45055:45069   */\n      add\n        /* \"#utility.yul\":45048:45106   */\n      mstore\n        /* \"#utility.yul\":44931:45113   */\n      pop\n      jump\t// out\n        /* \"#utility.yul\":45119:45290   */\n    tag_909:\n        /* \"#utility.yul\":45259:45282   */\n      0x41646472657373206d757374206e6f7420626520300000000000000000000000\n        /* \"#utility.yul\":45255:45256   */\n      0x00\n        /* \"#utility.yul\":45247:45253   */\n      dup3\n        /* \"#utility.yul\":45243:45257   */\n      add\n        /* \"#utility.yul\":45236:45283   */\n      mstore\n        /* \"#utility.yul\":45119:45290   */\n      pop\n      jump\t// out\n        /* \"#utility.yul\":45296:45464   */\n    tag_914:\n        /* \"#utility.yul\":45436:45456   */\n      0x41646472657373206f776e657220697320300000000000000000000000000000\n        /* \"#utility.yul\":45432:45433   */\n      0x00\n        /* \"#utility.yul\":45424:45430   */\n      dup3\n        /* \"#utility.yul\":45420:45434   */\n      add\n        /* \"#utility.yul\":45413:45457   */\n      mstore\n        /* \"#utility.yul\":45296:45464   */\n      pop\n      jump\t// out\n        /* \"#utility.yul\":45470:45584   */\n    tag_920:\n      pop\n      jump\t// out\n        /* \"#utility.yul\":45590:45760   */\n    tag_929:\n        /* \"#utility.yul\":45730:45752   */\n      0x4e6f7420656e6f756768207765692073656e7421000000000000000000000000\n        /* \"#utility.yul\":45726:45727   */\n      0x00\n        /* \"#utility.yul\":45718:45724   */\n      dup3\n        /* \"#utility.yul\":45714:45728   */\n      add\n        /* \"#utility.yul\":45707:45753   */\n      mstore\n        /* \"#utility.yul\":45590:45760   */\n      pop\n      jump\t// out\n        /* \"#utility.yul\":45766:45888   */\n    tag_668:\n        /* \"#utility.yul\":45839:45863   */\n      tag_1111\n        /* \"#utility.yul\":45857:45862   */\n      dup2\n        /* \"#utility.yul\":45839:45863   */\n      tag_801\n      jump\t// in\n    tag_1111:\n        /* \"#utility.yul\":45832:45837   */\n      dup2\n        /* \"#utility.yul\":45829:45864   */\n      eq\n        /* \"#utility.yul\":45819:45882   */\n      tag_1112\n      jumpi\n        /* \"#utility.yul\":45878:45879   */\n      0x00\n        /* \"#utility.yul\":45875:45876   */\n      dup1\n        /* \"#utility.yul\":45868:45880   */\n      revert\n        /* \"#utility.yul\":45819:45882   */\n    tag_1112:\n        /* \"#utility.yul\":45766:45888   */\n      pop\n      jump\t// out\n        /* \"#utility.yul\":45894:46010   */\n    tag_677:\n        /* \"#utility.yul\":45964:45985   */\n      tag_1114\n        /* \"#utility.yul\":45979:45984   */\n      dup2\n        /* \"#utility.yul\":45964:45985   */\n      tag_850\n      jump\t// in\n    tag_1114:\n        /* \"#utility.yul\":45957:45962   */\n      dup2\n        /* \"#utility.yul\":45954:45986   */\n      eq\n        /* \"#utility.yul\":45944:46004   */\n      tag_1115\n      jumpi\n        /* \"#utility.yul\":46000:46001   */\n      0x00\n        /* \"#utility.yul\":45997:45998   */\n      dup1\n        /* \"#utility.yul\":45990:46002   */\n      revert\n        /* \"#utility.yul\":45944:46004   */\n    tag_1115:\n        /* \"#utility.yul\":45894:46010   */\n      pop\n      jump\t// out\n        /* \"#utility.yul\":46016:46138   */\n    tag_690:\n        /* \"#utility.yul\":46089:46113   */\n      tag_1117\n        /* \"#utility.yul\":46107:46112   */\n      dup2\n        /* \"#utility.yul\":46089:46113   */\n      tag_953\n      jump\t// in\n    tag_1117:\n        /* \"#utility.yul\":46082:46087   */\n      dup2\n        /* \"#utility.yul\":46079:46114   */\n      eq\n        /* \"#utility.yul\":46069:46132   */\n      tag_1118\n      jumpi\n        /* \"#utility.yul\":46128:46129   */\n      0x00\n        /* \"#utility.yul\":46125:46126   */\n      dup1\n        /* \"#utility.yul\":46118:46130   */\n      revert\n        /* \"#utility.yul\":46069:46132   */\n    tag_1118:\n        /* \"#utility.yul\":46016:46138   */\n      pop\n      jump\t// out\n\n    auxdata: 0xa26469706673582212201269b51b4e423a713f67ea9052754e0db8d7abdb551a3181e768768e759ee07d64736f6c63430008070033\n}\n",
				"bytecode": {
					"linkReferences": {},
					"object": "6080604052600060015560026008553480156200001b57600080fd5b506200003c620000306200004260201b60201c565b6200004a60201b60201c565b6200010e565b600033905090565b60008060009054906101000a900473ffffffffffffffffffffffffffffffffffffffff169050816000806101000a81548173ffffffffffffffffffffffffffffffffffffffff021916908373ffffffffffffffffffffffffffffffffffffffff1602179055508173ffffffffffffffffffffffffffffffffffffffff168173ffffffffffffffffffffffffffffffffffffffff167f8be0079c531659141344cd1fd0a4f28419497f9722a3daafe3b4186f6b6457e060405160405180910390a35050565b6156fe806200011e6000396000f3fe6080604052600436106101815760003560e01c806370a08231116100d1578063b88d4fde1161008a578063e31465df11610064578063e31465df1461057b578063e985e9c5146105a4578063f2fde38b146105e1578063fe3d55381461060a57610181565b8063b88d4fde146104f9578063bed59eae14610515578063dd46fa5d1461055257610181565b806370a08231146103ea578063715018a6146104275780638da5cb5b1461043e5780639ccbff6b14610469578063a22cb465146104a7578063ae06c1b7146104d057610181565b80633996345e1161013e5780633f255ff9116101185780633f255ff91461031557806342842e0e146103535780636352211e1461036f5780636d168461146103ac57610181565b80633996345e146102a15780633a7d2376146102bd5780633ccfd60b146102fe57610181565b8063081812fc14610186578063095ea7b3146101c35780630e448c1e146101df57806322634d211461020857806323b872dd1461024857806328cbc03814610264575b600080fd5b34801561019257600080fd5b506101ad60048036038101906101a891906146a4565b610647565b6040516101ba9190614d03565b60405180910390f35b6101dd60048036038101906101d891906143dd565b610684565b005b3480156101eb57600080fd5b50610206600480360381019061020191906145b9565b610757565b005b34801561021457600080fd5b5061022f600480360381019061022a91906143dd565b610993565b60405161023f9493929190614f54565b60405180910390f35b610262600480360381019061025d91906142c7565b6109d0565b005b34801561027057600080fd5b5061028b600480360381019061028691906146a4565b610dc4565b6040516102989190614d03565b60405180910390f35b6102bb60048036038101906102b691906146d1565b610e13565b005b3480156102c957600080fd5b506102e460048036038101906102df9190614724565b6111b2565b6040516102f5959493929190614f01565b60405180910390f35b34801561030a57600080fd5b50610313611245565b005b34801561032157600080fd5b5061033c60048036038101906103379190614724565b611377565b60405161034a929190614ed1565b60405180910390f35b61036d600480360381019061036891906142c7565b6117fb565b005b34801561037b57600080fd5b50610396600480360381019061039191906146a4565b611bef565b6040516103a39190614d03565b60405180910390f35b3480156103b857600080fd5b506103d360048036038101906103ce9190614724565b611cf2565b6040516103e1929190614ed1565b60405180910390f35b3480156103f657600080fd5b50610411600480360381019061040c919061425a565b612131565b60405161041e9190614eb6565b60405180910390f35b34801561043357600080fd5b5061043c612258565b005b34801561044a57600080fd5b506104536122e0565b6040516104609190614d03565b60405180910390f35b34801561047557600080fd5b50610490600480360381019061048b919061441d565b612309565b60405161049e929190614ed1565b60405180910390f35b3480156104b357600080fd5b506104ce60048036038101906104c9919061439d565b612b55565b005b3480156104dc57600080fd5b506104f760048036038101906104f291906146a4565b612bed565b005b610513600480360381019061050e919061431a565b612c73565b005b34801561052157600080fd5b5061053c600480360381019061053791906146a4565b613068565b6040516105499190614e9b565b60405180910390f35b34801561055e57600080fd5b50610579600480360381019061057491906144e2565b61344f565b005b34801561058757600080fd5b506105a2600480360381019061059d9190614724565b61363e565b005b3480156105b057600080fd5b506105cb60048036038101906105c69190614287565b613704565b6040516105d89190614d40565b60405180910390f35b3480156105ed57600080fd5b506106086004803603810190610603919061425a565b613798565b005b34801561061657600080fd5b50610631600480360381019061062c91906146a4565b613890565b60405161063e9190614d1e565b60405180910390f35b60006004600083815260200190815260200160002060009054906101000a900473ffffffffffffffffffffffffffffffffffffffff169050919050565b6007818154811061069857610697615412565b5b906000526020600020906007020160010160009054906101000a900473ffffffffffffffffffffffffffffffffffffffff1673ffffffffffffffffffffffffffffffffffffffff163373ffffffffffffffffffffffffffffffffffffffff161461070157600080fd5b816004600083815260200190815260200160002060006101000a81548173ffffffffffffffffffffffffffffffffffffffff021916908373ffffffffffffffffffffffffffffffffffffffff1602179055505050565b60006001600081548092919061076c9061533c565b91905055905060006040518060e001604052808381526020013373ffffffffffffffffffffffffffffffffffffffff16815260200188815260200187815260200186815260200185815260200160011515815250905060078190806001815401808255809150506001900390600052602060002090600702016000909190919091506000820151816000015560208201518160010160006101000a81548173ffffffffffffffffffffffffffffffffffffffff021916908373ffffffffffffffffffffffffffffffffffffffff160217905550604082015181600201908051906020019061085b929190613e9b565b506060820151816003019080519060200190610878929190613e9b565b506080820151816004019080519060200190610895929190613e9b565b5060a08201518160050190805190602001906108b2929190613f21565b5060c08201518160060160006101000a81548160ff021916908315150217905550505060405180608001604052808481526020016064600854866108f691906151c1565b6109009190615190565b815260200142815260200183815250600260003373ffffffffffffffffffffffffffffffffffffffff1673ffffffffffffffffffffffffffffffffffffffff16815260200190815260200160002060008481526020019081526020016000206000820151816000015560208201518160010155604082015181600201556060820151816003015590505050505050505050565b6002602052816000526040600020602052806000526040600020600091509150508060000154908060010154908060020154908060030154905084565b600781815481106109e4576109e3615412565b5b906000526020600020906007020160010160009054906101000a900473ffffffffffffffffffffffffffffffffffffffff1673ffffffffffffffffffffffffffffffffffffffff163373ffffffffffffffffffffffffffffffffffffffff161480610ad55750600560008473ffffffffffffffffffffffffffffffffffffffff1673ffffffffffffffffffffffffffffffffffffffff16815260200190815260200160002060008373ffffffffffffffffffffffffffffffffffffffff1673ffffffffffffffffffffffffffffffffffffffff16815260200190815260200160002060009054906101000a900460ff165b80610b3e57508173ffffffffffffffffffffffffffffffffffffffff166004600083815260200190815260200160002060009054906101000a900473ffffffffffffffffffffffffffffffffffffffff1673ffffffffffffffffffffffffffffffffffffffff16145b610b7d576040517f08c379a0000000000000000000000000000000000000000000000000000000008152600401610b7490614ddb565b60405180910390fd5b600073ffffffffffffffffffffffffffffffffffffffff168273ffffffffffffffffffffffffffffffffffffffff161415610bed576040517f08c379a0000000000000000000000000000000000000000000000000000000008152600401610be490614dfb565b60405180910390fd5b60078181548110610c0157610c00615412565b5b906000526020600020906007020160060160009054906101000a900460ff1615610c3557610c30818484610e13565b610dbf565b600360008473ffffffffffffffffffffffffffffffffffffffff1673ffffffffffffffffffffffffffffffffffffffff168152602001908152602001600020600082815260200190815260200160002060009054906101000a900460ff16600360008473ffffffffffffffffffffffffffffffffffffffff1673ffffffffffffffffffffffffffffffffffffffff168152602001908152602001600020600083815260200190815260200160002060006101000a81548160ff021916908315150217905550600360008473ffffffffffffffffffffffffffffffffffffffff1673ffffffffffffffffffffffffffffffffffffffff168152602001908152602001600020600082815260200190815260200160002060006101000a81549060ff02191690558160078281548110610d6f57610d6e615412565b5b906000526020600020906007020160010160006101000a81548173ffffffffffffffffffffffffffffffffffffffff021916908373ffffffffffffffffffffffffffffffffffffffff1602179055505b505050565b600060078281548110610dda57610dd9615412565b5b906000526020600020906007020160010160009054906101000a900473ffffffffffffffffffffffffffffffffffffffff169050919050565b82828073ffffffffffffffffffffffffffffffffffffffff1660078381548110610e4057610e3f615412565b5b906000526020600020906007020160010160009054906101000a900473ffffffffffffffffffffffffffffffffffffffff1673ffffffffffffffffffffffffffffffffffffffff1614610ec8576040517f08c379a0000000000000000000000000000000000000000000000000000000008152600401610ebf90614d9b565b60405180910390fd5b6000600260008673ffffffffffffffffffffffffffffffffffffffff1673ffffffffffffffffffffffffffffffffffffffff1681526020019081526020016000206000878152602001908152602001600020604051806080016040529081600082015481526020016001820154815260200160028201548152602001600382015481525050905080602001518160000151610f63919061513a565b341015610fa5576040517f08c379a0000000000000000000000000000000000000000000000000000000008152600401610f9c90614e7b565b60405180910390fd5b60008573ffffffffffffffffffffffffffffffffffffffff168260000151604051610fcf90614cd9565b60006040518083038185875af1925050503d806000811461100c576040519150601f19603f3d011682016040523d82523d6000602084013e611011565b606091505b5050905080611055576040517f08c379a000000000000000000000000000000000000000000000000000000000815260040161104c90614dbb565b60405180910390fd5b600660008881526020019081526020016000206040518060a001604052808460000151815260200184602001518152602001846040015181526020018873ffffffffffffffffffffffffffffffffffffffff1681526020018773ffffffffffffffffffffffffffffffffffffffff16815250908060018154018082558091505060019003906000526020600020906005020160009091909190915060008201518160000155602082015181600101556040820151816002015560608201518160030160006101000a81548173ffffffffffffffffffffffffffffffffffffffff021916908373ffffffffffffffffffffffffffffffffffffffff16021790555060808201518160040160006101000a81548173ffffffffffffffffffffffffffffffffffffffff021916908373ffffffffffffffffffffffffffffffffffffffff16021790555050506111a98686896139cc565b50505050505050565b600660205281600052604060002081815481106111ce57600080fd5b9060005260206000209060050201600091509150508060000154908060010154908060020154908060030160009054906101000a900473ffffffffffffffffffffffffffffffffffffffff16908060040160009054906101000a900473ffffffffffffffffffffffffffffffffffffffff16905085565b61124d613b4f565b73ffffffffffffffffffffffffffffffffffffffff1661126b6122e0565b73ffffffffffffffffffffffffffffffffffffffff16146112c1576040517f08c379a00000000000000000000000000000000000000000000000000000000081526004016112b890614e1b565b60405180910390fd5b60006112cb6122e0565b73ffffffffffffffffffffffffffffffffffffffff16476040516112ee90614cd9565b60006040518083038185875af1925050503d806000811461132b576040519150601f19603f3d011682016040523d82523d6000602084013e611330565b606091505b5050905080611374576040517f08c379a000000000000000000000000000000000000000000000000000000000815260040161136b90614d5b565b60405180910390fd5b50565b600060606000339050600060078054905067ffffffffffffffff8111156113a1576113a0615441565b5b6040519080825280602002602001820160405280156113da57816020015b6113c7613f81565b8152602001906001900390816113bf5790505b5090506000808790505b600780549050811080156113f757508682105b156117ea578373ffffffffffffffffffffffffffffffffffffffff166007828154811061142757611426615412565b5b906000526020600020906007020160010160009054906101000a900473ffffffffffffffffffffffffffffffffffffffff1673ffffffffffffffffffffffffffffffffffffffff1614156117d7576007818154811061148957611488615412565b5b90600052602060002090600702016040518060e0016040529081600082015481526020016001820160009054906101000a900473ffffffffffffffffffffffffffffffffffffffff1673ffffffffffffffffffffffffffffffffffffffff1673ffffffffffffffffffffffffffffffffffffffff168152602001600282018054611512906152d9565b80601f016020809104026020016040519081016040528092919081815260200182805461153e906152d9565b801561158b5780601f106115605761010080835404028352916020019161158b565b820191906000526020600020905b81548152906001019060200180831161156e57829003601f168201915b505050505081526020016003820180546115a4906152d9565b80601f01602080910402602001604051908101604052809291908181526020018280546115d0906152d9565b801561161d5780601f106115f25761010080835404028352916020019161161d565b820191906000526020600020905b81548152906001019060200180831161160057829003601f168201915b50505050508152602001600482018054611636906152d9565b80601f0160208091040260200160405190810160405280929190818152602001828054611662906152d9565b80156116af5780601f10611684576101008083540402835291602001916116af565b820191906000526020600020905b81548152906001019060200180831161169257829003601f168201915b5050505050815260200160058201805480602002602001604051908101604052809291908181526020016000905b828210156117895783829060005260206000200180546116fc906152d9565b80601f0160208091040260200160405190810160405280929190818152602001828054611728906152d9565b80156117755780601f1061174a57610100808354040283529160200191611775565b820191906000526020600020905b81548152906001019060200180831161175857829003601f168201915b5050505050815260200190600101906116dd565b5050505081526020016006820160009054906101000a900460ff1615151515815250508383806117b89061533c565b9450815181106117cb576117ca615412565b5b60200260200101819052505b80806117e29061533c565b9150506113e4565b808395509550505050509250929050565b6007818154811061180f5761180e615412565b5b906000526020600020906007020160010160009054906101000a900473ffffffffffffffffffffffffffffffffffffffff1673ffffffffffffffffffffffffffffffffffffffff163373ffffffffffffffffffffffffffffffffffffffff1614806119005750600560008473ffffffffffffffffffffffffffffffffffffffff1673ffffffffffffffffffffffffffffffffffffffff16815260200190815260200160002060008373ffffffffffffffffffffffffffffffffffffffff1673ffffffffffffffffffffffffffffffffffffffff16815260200190815260200160002060009054906101000a900460ff165b8061196957508173ffffffffffffffffffffffffffffffffffffffff166004600083815260200190815260200160002060009054906101000a900473ffffffffffffffffffffffffffffffffffffffff1673ffffffffffffffffffffffffffffffffffffffff16145b6119a8576040517f08c379a000000000000000000000000000000000000000000000000000000000815260040161199f90614ddb565b60405180910390fd5b600073ffffffffffffffffffffffffffffffffffffffff168273ffffffffffffffffffffffffffffffffffffffff161415611a18576040517f08c379a0000000000000000000000000000000000000000000000000000000008152600401611a0f90614dfb565b60405180910390fd5b60078181548110611a2c57611a2b615412565b5b906000526020600020906007020160060160009054906101000a900460ff1615611a6057611a5b818484610e13565b611bea565b600360008473ffffffffffffffffffffffffffffffffffffffff1673ffffffffffffffffffffffffffffffffffffffff168152602001908152602001600020600082815260200190815260200160002060009054906101000a900460ff16600360008473ffffffffffffffffffffffffffffffffffffffff1673ffffffffffffffffffffffffffffffffffffffff168152602001908152602001600020600083815260200190815260200160002060006101000a81548160ff021916908315150217905550600360008473ffffffffffffffffffffffffffffffffffffffff1673ffffffffffffffffffffffffffffffffffffffff168152602001908152602001600020600082815260200190815260200160002060006101000a81549060ff02191690558160078281548110611b9a57611b99615412565b5b906000526020600020906007020160010160006101000a81548173ffffffffffffffffffffffffffffffffffffffff021916908373ffffffffffffffffffffffffffffffffffffffff1602179055505b505050565b60008073ffffffffffffffffffffffffffffffffffffffff1660078381548110611c1c57611c1b615412565b5b906000526020600020906007020160010160009054906101000a900473ffffffffffffffffffffffffffffffffffffffff1673ffffffffffffffffffffffffffffffffffffffff161415611ca5576040517f08c379a0000000000000000000000000000000000000000000000000000000008152600401611c9c90614e5b565b60405180910390fd5b60078281548110611cb957611cb8615412565b5b906000526020600020906007020160010160009054906101000a900473ffffffffffffffffffffffffffffffffffffffff169050919050565b6000606060008367ffffffffffffffff811115611d1257611d11615441565b5b604051908082528060200260200182016040528015611d4b57816020015b611d38613f81565b815260200190600190039081611d305790505b5090506000808690505b60078054905081108015611d6857508582105b15612121576001151560078281548110611d8557611d84615412565b5b906000526020600020906007020160060160009054906101000a900460ff161515141561210e5760078181548110611dc057611dbf615412565b5b90600052602060002090600702016040518060e0016040529081600082015481526020016001820160009054906101000a900473ffffffffffffffffffffffffffffffffffffffff1673ffffffffffffffffffffffffffffffffffffffff1673ffffffffffffffffffffffffffffffffffffffff168152602001600282018054611e49906152d9565b80601f0160208091040260200160405190810160405280929190818152602001828054611e75906152d9565b8015611ec25780601f10611e9757610100808354040283529160200191611ec2565b820191906000526020600020905b815481529060010190602001808311611ea557829003601f168201915b50505050508152602001600382018054611edb906152d9565b80601f0160208091040260200160405190810160405280929190818152602001828054611f07906152d9565b8015611f545780601f10611f2957610100808354040283529160200191611f54565b820191906000526020600020905b815481529060010190602001808311611f3757829003601f168201915b50505050508152602001600482018054611f6d906152d9565b80601f0160208091040260200160405190810160405280929190818152602001828054611f99906152d9565b8015611fe65780601f10611fbb57610100808354040283529160200191611fe6565b820191906000526020600020905b815481529060010190602001808311611fc957829003601f168201915b5050505050815260200160058201805480602002602001604051908101604052809291908181526020016000905b828210156120c0578382906000526020600020018054612033906152d9565b80601f016020809104026020016040519081016040528092919081815260200182805461205f906152d9565b80156120ac5780601f10612081576101008083540402835291602001916120ac565b820191906000526020600020905b81548152906001019060200180831161208f57829003601f168201915b505050505081526020019060010190612014565b5050505081526020016006820160009054906101000a900460ff1615151515815250508383806120ef9061533c565b94508151811061210257612101615412565b5b60200260200101819052505b80806121199061533c565b915050611d55565b8083945094505050509250929050565b60008073ffffffffffffffffffffffffffffffffffffffff168273ffffffffffffffffffffffffffffffffffffffff1614156121a2576040517f08c379a000000000000000000000000000000000000000000000000000000000815260040161219990614e3b565b60405180910390fd5b6000805b60078054905081101561224e578373ffffffffffffffffffffffffffffffffffffffff16600782815481106121de576121dd615412565b5b906000526020600020906007020160010160009054906101000a900473ffffffffffffffffffffffffffffffffffffffff1673ffffffffffffffffffffffffffffffffffffffff16141561223b5781806122379061533c565b9250505b80806122469061533c565b9150506121a6565b5080915050919050565b612260613b4f565b73ffffffffffffffffffffffffffffffffffffffff1661227e6122e0565b73ffffffffffffffffffffffffffffffffffffffff16146122d4576040517f08c379a00000000000000000000000000000000000000000000000000000000081526004016122cb90614e1b565b60405180910390fd5b6122de6000613b57565b565b60008060009054906101000a900473ffffffffffffffffffffffffffffffffffffffff16905090565b60006060600060078054905067ffffffffffffffff81111561232e5761232d615441565b5b60405190808252806020026020018201604052801561236757816020015b612354613f81565b81526020019060019003908161234c5790505b5090506000808690505b6007805490508110801561238457508582105b15612b41576007818154811061239d5761239c615412565b5b906000526020600020906007020160060160009054906101000a900460ff166123c557612b2e565b60006001905060008b6040516020016123de9190614cc2565b60405160208183030381529060405280519060200120905060405160200161240590614cee565b6040516020818303038152906040528051906020012081146125965760006007848154811061243757612436615412565b5b9060005260206000209060070201600501805480602002602001604051908101604052809291908181526020016000905b82821015612514578382906000526020600020018054612487906152d9565b80601f01602080910402602001604051908101604052809291908181526020018280546124b3906152d9565b80156125005780601f106124d557610100808354040283529160200191612500565b820191906000526020600020905b8154815290600101906020018083116124e357829003601f168201915b505050505081526020019060010190612468565b50505050905060005b81518110156125865781818151811061253957612538615412565b5b60200260200101516040516020016125519190614cc2565b6040516020818303038152906040528051906020012083141561257357612586565b808061257e9061533c565b91505061251d565b8151811061259357600093505b50505b81801561264b5750600073ffffffffffffffffffffffffffffffffffffffff168b73ffffffffffffffffffffffffffffffffffffffff1614158061264a5750600783815481106125e9576125e8615412565b5b906000526020600020906007020160010160009054906101000a900473ffffffffffffffffffffffffffffffffffffffff1673ffffffffffffffffffffffffffffffffffffffff168b73ffffffffffffffffffffffffffffffffffffffff16145b5b80156126fb575060008a1415806126fa5750600260006007858154811061267557612674615412565b5b906000526020600020906007020160010160009054906101000a900473ffffffffffffffffffffffffffffffffffffffff1673ffffffffffffffffffffffffffffffffffffffff1673ffffffffffffffffffffffffffffffffffffffff1681526020019081526020016000206000848152602001908152602001600020600201548a11155b5b80156127ba57506127b98d6007858154811061271a57612719615412565b5b90600052602060002090600702016002018054612736906152d9565b80601f0160208091040260200160405190810160405280929190818152602001828054612762906152d9565b80156127af5780601f10612784576101008083540402835291602001916127af565b820191906000526020600020905b81548152906001019060200180831161279257829003601f168201915b5050505050613c1b565b5b6127c357600091505b8115612b2b57600783815481106127dd576127dc615412565b5b90600052602060002090600702016040518060e0016040529081600082015481526020016001820160009054906101000a900473ffffffffffffffffffffffffffffffffffffffff1673ffffffffffffffffffffffffffffffffffffffff1673ffffffffffffffffffffffffffffffffffffffff168152602001600282018054612866906152d9565b80601f0160208091040260200160405190810160405280929190818152602001828054612892906152d9565b80156128df5780601f106128b4576101008083540402835291602001916128df565b820191906000526020600020905b8154815290600101906020018083116128c257829003601f168201915b505050505081526020016003820180546128f8906152d9565b80601f0160208091040260200160405190810160405280929190818152602001828054612924906152d9565b80156129715780601f1061294657610100808354040283529160200191612971565b820191906000526020600020905b81548152906001019060200180831161295457829003601f168201915b5050505050815260200160048201805461298a906152d9565b80601f01602080910402602001604051908101604052809291908181526020018280546129b6906152d9565b8015612a035780601f106129d857610100808354040283529160200191612a03565b820191906000526020600020905b8154815290600101906020018083116129e657829003601f168201915b5050505050815260200160058201805480602002602001604051908101604052809291908181526020016000905b82821015612add578382906000526020600020018054612a50906152d9565b80601f0160208091040260200160405190810160405280929190818152602001828054612a7c906152d9565b8015612ac95780601f10612a9e57610100808354040283529160200191612ac9565b820191906000526020600020905b815481529060010190602001808311612aac57829003601f168201915b505050505081526020019060010190612a31565b5050505081526020016006820160009054906101000a900460ff161515151581525050858580612b0c9061533c565b965081518110612b1f57612b1e615412565b5b60200260200101819052505b50505b8080612b399061533c565b915050612371565b808394509450505050965096945050505050565b80600560003373ffffffffffffffffffffffffffffffffffffffff1673ffffffffffffffffffffffffffffffffffffffff16815260200190815260200160002060008473ffffffffffffffffffffffffffffffffffffffff1673ffffffffffffffffffffffffffffffffffffffff16815260200190815260200160002060006101000a81548160ff0219169083151502179055505050565b612bf5613b4f565b73ffffffffffffffffffffffffffffffffffffffff16612c136122e0565b73ffffffffffffffffffffffffffffffffffffffff1614612c69576040517f08c379a0000000000000000000000000000000000000000000000000000000008152600401612c6090614e1b565b60405180910390fd5b8060088190555050565b60078281548110612c8757612c86615412565b5b906000526020600020906007020160010160009054906101000a900473ffffffffffffffffffffffffffffffffffffffff1673ffffffffffffffffffffffffffffffffffffffff163373ffffffffffffffffffffffffffffffffffffffff161480612d785750600560008573ffffffffffffffffffffffffffffffffffffffff1673ffffffffffffffffffffffffffffffffffffffff16815260200190815260200160002060008473ffffffffffffffffffffffffffffffffffffffff1673ffffffffffffffffffffffffffffffffffffffff16815260200190815260200160002060009054906101000a900460ff165b80612de157508273ffffffffffffffffffffffffffffffffffffffff166004600084815260200190815260200160002060009054906101000a900473ffffffffffffffffffffffffffffffffffffffff1673ffffffffffffffffffffffffffffffffffffffff16145b612e20576040517f08c379a0000000000000000000000000000000000000000000000000000000008152600401612e1790614ddb565b60405180910390fd5b600073ffffffffffffffffffffffffffffffffffffffff168373ffffffffffffffffffffffffffffffffffffffff161415612e90576040517f08c379a0000000000000000000000000000000000000000000000000000000008152600401612e8790614dfb565b60405180910390fd5b60078281548110612ea457612ea3615412565b5b906000526020600020906007020160060160009054906101000a900460ff1615612ed857612ed3828585610e13565b613062565b600360008573ffffffffffffffffffffffffffffffffffffffff1673ffffffffffffffffffffffffffffffffffffffff168152602001908152602001600020600083815260200190815260200160002060009054906101000a900460ff16600360008573ffffffffffffffffffffffffffffffffffffffff1673ffffffffffffffffffffffffffffffffffffffff168152602001908152602001600020600084815260200190815260200160002060006101000a81548160ff021916908315150217905550600360008573ffffffffffffffffffffffffffffffffffffffff1673ffffffffffffffffffffffffffffffffffffffff168152602001908152602001600020600083815260200190815260200160002060006101000a81549060ff0219169055826007838154811061301257613011615412565b5b906000526020600020906007020160010160006101000a81548173ffffffffffffffffffffffffffffffffffffffff021916908373ffffffffffffffffffffffffffffffffffffffff1602179055505b50505050565b613070613fd6565b60006007838154811061308657613085615412565b5b90600052602060002090600702016040518060e0016040529081600082015481526020016001820160009054906101000a900473ffffffffffffffffffffffffffffffffffffffff1673ffffffffffffffffffffffffffffffffffffffff1673ffffffffffffffffffffffffffffffffffffffff16815260200160028201805461310f906152d9565b80601f016020809104026020016040519081016040528092919081815260200182805461313b906152d9565b80156131885780601f1061315d57610100808354040283529160200191613188565b820191906000526020600020905b81548152906001019060200180831161316b57829003601f168201915b505050505081526020016003820180546131a1906152d9565b80601f01602080910402602001604051908101604052809291908181526020018280546131cd906152d9565b801561321a5780601f106131ef5761010080835404028352916020019161321a565b820191906000526020600020905b8154815290600101906020018083116131fd57829003601f168201915b50505050508152602001600482018054613233906152d9565b80601f016020809104026020016040519081016040528092919081815260200182805461325f906152d9565b80156132ac5780601f10613281576101008083540402835291602001916132ac565b820191906000526020600020905b81548152906001019060200180831161328f57829003601f168201915b5050505050815260200160058201805480602002602001604051908101604052809291908181526020016000905b828210156133865783829060005260206000200180546132f9906152d9565b80601f0160208091040260200160405190810160405280929190818152602001828054613325906152d9565b80156133725780601f1061334757610100808354040283529160200191613372565b820191906000526020600020905b81548152906001019060200180831161335557829003601f168201915b5050505050815260200190600101906132da565b5050505081526020016006820160009054906101000a900460ff1615151515815250509050600115158160c001511515146133c057600080fd5b60026000826020015173ffffffffffffffffffffffffffffffffffffffff1673ffffffffffffffffffffffffffffffffffffffff1681526020019081526020016000206000848152602001908152602001600020604051806080016040529081600082015481526020016001820154815260200160028201548152602001600382015481525050915050919050565b6000600160008154809291906134649061533c565b91905055905060006040518060e001604052808381526020013373ffffffffffffffffffffffffffffffffffffffff16815260200187815260200186815260200185815260200184815260200160001515815250905060078190806001815401808255809150506001900390600052602060002090600702016000909190919091506000820151816000015560208201518160010160006101000a81548173ffffffffffffffffffffffffffffffffffffffff021916908373ffffffffffffffffffffffffffffffffffffffff1602179055506040820151816002019080519060200190613553929190613e9b565b506060820151816003019080519060200190613570929190613e9b565b50608082015181600401908051906020019061358d929190613e9b565b5060a08201518160050190805190602001906135aa929190613f21565b5060c08201518160060160006101000a81548160ff02191690831515021790555050506001600360003373ffffffffffffffffffffffffffffffffffffffff1673ffffffffffffffffffffffffffffffffffffffff168152602001908152602001600020600084815260200190815260200160002060006101000a81548160ff021916908315150217905550505050505050565b81338073ffffffffffffffffffffffffffffffffffffffff166007838154811061366b5761366a615412565b5b906000526020600020906007020160010160009054906101000a900473ffffffffffffffffffffffffffffffffffffffff1673ffffffffffffffffffffffffffffffffffffffff16146136f3576040517f08c379a00000000000000000000000000000000000000000000000000000000081526004016136ea90614d9b565b60405180910390fd5b6136fe338585613d43565b50505050565b6000600560008473ffffffffffffffffffffffffffffffffffffffff1673ffffffffffffffffffffffffffffffffffffffff16815260200190815260200160002060008373ffffffffffffffffffffffffffffffffffffffff1673ffffffffffffffffffffffffffffffffffffffff16815260200190815260200160002060009054906101000a900460ff16905092915050565b6137a0613b4f565b73ffffffffffffffffffffffffffffffffffffffff166137be6122e0565b73ffffffffffffffffffffffffffffffffffffffff1614613814576040517f08c379a000000000000000000000000000000000000000000000000000000000815260040161380b90614e1b565b60405180910390fd5b600073ffffffffffffffffffffffffffffffffffffffff168173ffffffffffffffffffffffffffffffffffffffff161415613884576040517f08c379a000000000000000000000000000000000000000000000000000000000815260040161387b90614d7b565b60405180910390fd5b61388d81613b57565b50565b606060066000838152602001908152602001600020805480602002602001604051908101604052809291908181526020016000905b828210156139c157838290600052602060002090600502016040518060a00160405290816000820154815260200160018201548152602001600282015481526020016003820160009054906101000a900473ffffffffffffffffffffffffffffffffffffffff1673ffffffffffffffffffffffffffffffffffffffff1673ffffffffffffffffffffffffffffffffffffffff1681526020016004820160009054906101000a900473ffffffffffffffffffffffffffffffffffffffff1673ffffffffffffffffffffffffffffffffffffffff1673ffffffffffffffffffffffffffffffffffffffff1681525050815260200190600101906138c5565b505050509050919050565b6001600360008473ffffffffffffffffffffffffffffffffffffffff1673ffffffffffffffffffffffffffffffffffffffff168152602001908152602001600020600083815260200190815260200160002060006101000a81548160ff0219169083151502179055508160078281548110613a4a57613a49615412565b5b906000526020600020906007020160010160006101000a81548173ffffffffffffffffffffffffffffffffffffffff021916908373ffffffffffffffffffffffffffffffffffffffff160217905550600060078281548110613aaf57613aae615412565b5b906000526020600020906007020160060160006101000a81548160ff021916908315150217905550600260008473ffffffffffffffffffffffffffffffffffffffff1673ffffffffffffffffffffffffffffffffffffffff16815260200190815260200160002060008281526020019081526020016000206000808201600090556001820160009055600282016000905560038201600090555050505050565b600033905090565b60008060009054906101000a900473ffffffffffffffffffffffffffffffffffffffff169050816000806101000a81548173ffffffffffffffffffffffffffffffffffffffff021916908373ffffffffffffffffffffffffffffffffffffffff1602179055508173ffffffffffffffffffffffffffffffffffffffff168173ffffffffffffffffffffffffffffffffffffffff167f8be0079c531659141344cd1fd0a4f28419497f9722a3daafe3b4186f6b6457e060405160405180910390a35050565b6000808390506000839050815181511015613c3b57600092505050613d3d565b6000925060005b82518251613c50919061521b565b8111613d395760006001905060005b8451811015613d1457848181518110613c7b57613c7a615412565b5b602001015160f81c60f81b7effffffffffffffffffffffffffffffffffffffffffffffffffffffffffffff1916848285613cb5919061513a565b81518110613cc657613cc5615412565b5b602001015160f81c60f81b7effffffffffffffffffffffffffffffffffffffffffffffffffffffffffffff191614613d015760009150613d14565b8080613d0c9061533c565b915050613c5f565b508015613d25576001945050613d39565b508080613d319061533c565b915050613c42565b5050505b92915050565b6040518060800160405280828152602001606460085484613d6491906151c1565b613d6e9190615190565b815260200142815260200183815250600260008573ffffffffffffffffffffffffffffffffffffffff1673ffffffffffffffffffffffffffffffffffffffff168152602001908152602001600020600084815260200190815260200160002060008201518160000155602082015181600101556040820151816002015560608201518160030155905050600160078381548110613e0e57613e0d615412565b5b906000526020600020906007020160060160006101000a81548160ff021916908315150217905550600360008473ffffffffffffffffffffffffffffffffffffffff1673ffffffffffffffffffffffffffffffffffffffff168152602001908152602001600020600083815260200190815260200160002060006101000a81549060ff0219169055505050565b828054613ea7906152d9565b90600052602060002090601f016020900481019282613ec95760008555613f10565b82601f10613ee257805160ff1916838001178555613f10565b82800160010185558215613f10579182015b82811115613f0f578251825591602001919060010190613ef4565b5b509050613f1d9190613ffe565b5090565b828054828255906000526020600020908101928215613f70579160200282015b82811115613f6f578251829080519060200190613f5f929190613e9b565b5091602001919060010190613f41565b5b509050613f7d919061401b565b5090565b6040518060e0016040528060008152602001600073ffffffffffffffffffffffffffffffffffffffff168152602001606081526020016060815260200160608152602001606081526020016000151581525090565b6040518060800160405280600081526020016000815260200160008152602001600081525090565b5b80821115614017576000816000905550600101613fff565b5090565b5b8082111561403b5760008181614032919061403f565b5060010161401c565b5090565b50805461404b906152d9565b6000825580601f1061405d575061407c565b601f01602090049060005260206000209081019061407b9190613ffe565b5b50565b600061409261408d84614fbe565b614f99565b905080838252602082019050828560208602820111156140b5576140b4615475565b5b60005b8581101561410357813567ffffffffffffffff8111156140db576140da615470565b5b8086016140e88982614217565b855260208501945060208401935050506001810190506140b8565b5050509392505050565b600061412061411b84614fea565b614f99565b90508281526020810184848401111561413c5761413b61547a565b5b614147848285615297565b509392505050565b600061416261415d8461501b565b614f99565b90508281526020810184848401111561417e5761417d61547a565b5b614189848285615297565b509392505050565b6000813590506141a081615683565b92915050565b600082601f8301126141bb576141ba615470565b5b81356141cb84826020860161407f565b91505092915050565b6000813590506141e38161569a565b92915050565b600082601f8301126141fe576141fd615470565b5b813561420e84826020860161410d565b91505092915050565b600082601f83011261422c5761422b615470565b5b813561423c84826020860161414f565b91505092915050565b600081359050614254816156b1565b92915050565b6000602082840312156142705761426f615484565b5b600061427e84828501614191565b91505092915050565b6000806040838503121561429e5761429d615484565b5b60006142ac85828601614191565b92505060206142bd85828601614191565b9150509250929050565b6000806000606084860312156142e0576142df615484565b5b60006142ee86828701614191565b93505060206142ff86828701614191565b925050604061431086828701614245565b9150509250925092565b6000806000806080858703121561433457614333615484565b5b600061434287828801614191565b945050602061435387828801614191565b935050604061436487828801614245565b925050606085013567ffffffffffffffff8111156143855761438461547f565b5b614391878288016141e9565b91505092959194509250565b600080604083850312156143b4576143b3615484565b5b60006143c285828601614191565b92505060206143d3858286016141d4565b9150509250929050565b600080604083850312156143f4576143f3615484565b5b600061440285828601614191565b925050602061441385828601614245565b9150509250929050565b60008060008060008060c0878903121561443a57614439615484565b5b600087013567ffffffffffffffff8111156144585761445761547f565b5b61446489828a01614217565b965050602087013567ffffffffffffffff8111156144855761448461547f565b5b61449189828a01614217565b95505060406144a289828a01614191565b94505060606144b389828a01614245565b93505060806144c489828a01614245565b92505060a06144d589828a01614245565b9150509295509295509295565b600080600080608085870312156144fc576144fb615484565b5b600085013567ffffffffffffffff81111561451a5761451961547f565b5b61452687828801614217565b945050602085013567ffffffffffffffff8111156145475761454661547f565b5b61455387828801614217565b935050604085013567ffffffffffffffff8111156145745761457361547f565b5b61458087828801614217565b925050606085013567ffffffffffffffff8111156145a1576145a061547f565b5b6145ad878288016141a6565b91505092959194509250565b600080600080600060a086880312156145d5576145d4615484565b5b600086013567ffffffffffffffff8111156145f3576145f261547f565b5b6145ff88828901614217565b955050602086013567ffffffffffffffff8111156146205761461f61547f565b5b61462c88828901614217565b945050604086013567ffffffffffffffff81111561464d5761464c61547f565b5b61465988828901614217565b935050606086013567ffffffffffffffff81111561467a5761467961547f565b5b614686888289016141a6565b925050608061469788828901614245565b9150509295509295909350565b6000602082840312156146ba576146b9615484565b5b60006146c884828501614245565b91505092915050565b6000806000606084860312156146ea576146e9615484565b5b60006146f886828701614245565b935050602061470986828701614191565b925050604061471a86828701614191565b9150509250925092565b6000806040838503121561473b5761473a615484565b5b600061474985828601614245565b925050602061475a85828601614245565b9150509250929050565b60006147708383614928565b905092915050565b60006147848383614b36565b905092915050565b60006147988383614c3c565b60a08301905092915050565b6147ad8161524f565b82525050565b6147bc8161524f565b82525050565b60006147cd8261507c565b6147d781856150cf565b9350836020820285016147e98561504c565b8060005b8581101561482557848403895281516148068582614764565b9450614811836150a8565b925060208a019950506001810190506147ed565b50829750879550505050505092915050565b600061484282615087565b61484c81856150e0565b93508360208202850161485e8561505c565b8060005b8581101561489a578484038952815161487b8582614778565b9450614886836150b5565b925060208a01995050600181019050614862565b50829750879550505050505092915050565b60006148b782615092565b6148c181856150f1565b93506148cc8361506c565b8060005b838110156148fd5781516148e4888261478c565b97506148ef836150c2565b9250506001810190506148d0565b5085935050505092915050565b61491381615261565b82525050565b61492281615261565b82525050565b60006149338261509d565b61493d818561510d565b935061494d8185602086016152a6565b61495681615489565b840191505092915050565b600061496c8261509d565b614976818561512f565b93506149868185602086016152a6565b80840191505092915050565b600061499f60128361511e565b91506149aa8261549a565b602082019050919050565b60006149c260268361511e565b91506149cd826154c3565b604082019050919050565b60006149e560358361511e565b91506149f082615512565b604082019050919050565b6000614a0860138361511e565b9150614a1382615561565b602082019050919050565b6000614a2b60118361511e565b9150614a368261558a565b602082019050919050565b6000614a4e601c8361511e565b9150614a59826155b3565b602082019050919050565b6000614a7160208361511e565b9150614a7c826155dc565b602082019050919050565b6000614a9460158361511e565b9150614a9f82615605565b602082019050919050565b6000614ab760128361511e565b9150614ac28261562e565b602082019050919050565b6000614ada600083615102565b9150614ae582615657565b600082019050919050565b6000614afd60008361512f565b9150614b0882615657565b600082019050919050565b6000614b2060148361511e565b9150614b2b8261565a565b602082019050919050565b600060e083016000830151614b4e6000860182614ca4565b506020830151614b6160208601826147a4565b5060408301518482036040860152614b798282614928565b91505060608301518482036060860152614b938282614928565b91505060808301518482036080860152614bad8282614928565b91505060a083015184820360a0860152614bc782826147c2565b91505060c0830151614bdc60c086018261490a565b508091505092915050565b608082016000820151614bfd6000850182614ca4565b506020820151614c106020850182614ca4565b506040820151614c236040850182614ca4565b506060820151614c366060850182614ca4565b50505050565b60a082016000820151614c526000850182614ca4565b506020820151614c656020850182614ca4565b506040820151614c786040850182614ca4565b506060820151614c8b60608501826147a4565b506080820151614c9e60808501826147a4565b50505050565b614cad8161528d565b82525050565b614cbc8161528d565b82525050565b6000614cce8284614961565b915081905092915050565b6000614ce482614acd565b9150819050919050565b6000614cf982614af0565b9150819050919050565b6000602082019050614d1860008301846147b3565b92915050565b60006020820190508181036000830152614d3881846148ac565b905092915050565b6000602082019050614d556000830184614919565b92915050565b60006020820190508181036000830152614d7481614992565b9050919050565b60006020820190508181036000830152614d94816149b5565b9050919050565b60006020820190508181036000830152614db4816149d8565b9050919050565b60006020820190508181036000830152614dd4816149fb565b9050919050565b60006020820190508181036000830152614df481614a1e565b9050919050565b60006020820190508181036000830152614e1481614a41565b9050919050565b60006020820190508181036000830152614e3481614a64565b9050919050565b60006020820190508181036000830152614e5481614a87565b9050919050565b60006020820190508181036000830152614e7481614aaa565b9050919050565b60006020820190508181036000830152614e9481614b13565b9050919050565b6000608082019050614eb06000830184614be7565b92915050565b6000602082019050614ecb6000830184614cb3565b92915050565b6000604082019050614ee66000830185614cb3565b8181036020830152614ef88184614837565b90509392505050565b600060a082019050614f166000830188614cb3565b614f236020830187614cb3565b614f306040830186614cb3565b614f3d60608301856147b3565b614f4a60808301846147b3565b9695505050505050565b6000608082019050614f696000830187614cb3565b614f766020830186614cb3565b614f836040830185614cb3565b614f906060830184614cb3565b95945050505050565b6000614fa3614fb4565b9050614faf828261530b565b919050565b6000604051905090565b600067ffffffffffffffff821115614fd957614fd8615441565b5b602082029050602081019050919050565b600067ffffffffffffffff82111561500557615004615441565b5b61500e82615489565b9050602081019050919050565b600067ffffffffffffffff82111561503657615035615441565b5b61503f82615489565b9050602081019050919050565b6000819050602082019050919050565b6000819050602082019050919050565b6000819050602082019050919050565b600081519050919050565b600081519050919050565b600081519050919050565b600081519050919050565b6000602082019050919050565b6000602082019050919050565b6000602082019050919050565b600082825260208201905092915050565b600082825260208201905092915050565b600082825260208201905092915050565b600081905092915050565b600082825260208201905092915050565b600082825260208201905092915050565b600081905092915050565b60006151458261528d565b91506151508361528d565b9250827fffffffffffffffffffffffffffffffffffffffffffffffffffffffffffffffff0382111561518557615184615385565b5b828201905092915050565b600061519b8261528d565b91506151a68361528d565b9250826151b6576151b56153b4565b5b828204905092915050565b60006151cc8261528d565b91506151d78361528d565b9250817fffffffffffffffffffffffffffffffffffffffffffffffffffffffffffffffff04831182151516156152105761520f615385565b5b828202905092915050565b60006152268261528d565b91506152318361528d565b92508282101561524457615243615385565b5b828203905092915050565b600061525a8261526d565b9050919050565b60008115159050919050565b600073ffffffffffffffffffffffffffffffffffffffff82169050919050565b6000819050919050565b82818337600083830152505050565b60005b838110156152c45780820151818401526020810190506152a9565b838111156152d3576000848401525b50505050565b600060028204905060018216806152f157607f821691505b60208210811415615305576153046153e3565b5b50919050565b61531482615489565b810181811067ffffffffffffffff8211171561533357615332615441565b5b80604052505050565b60006153478261528d565b91507fffffffffffffffffffffffffffffffffffffffffffffffffffffffffffffffff82141561537a57615379615385565b5b600182019050919050565b7f4e487b7100000000000000000000000000000000000000000000000000000000600052601160045260246000fd5b7f4e487b7100000000000000000000000000000000000000000000000000000000600052601260045260246000fd5b7f4e487b7100000000000000000000000000000000000000000000000000000000600052602260045260246000fd5b7f4e487b7100000000000000000000000000000000000000000000000000000000600052603260045260246000fd5b7f4e487b7100000000000000000000000000000000000000000000000000000000600052604160045260246000fd5b600080fd5b600080fd5b600080fd5b600080fd5b600080fd5b6000601f19601f8301169050919050565b7f436f756c646e2774207769746864726177210000000000000000000000000000600082015250565b7f4f776e61626c653a206e6577206f776e657220697320746865207a65726f206160008201527f6464726573730000000000000000000000000000000000000000000000000000602082015250565b7f54686520737570706c6965642061646472657373206973206e6f74207468652060008201527f6f776e6572206f66207468652070726f64756374210000000000000000000000602082015250565b7f5472616e73616374696f6e206661696c65642100000000000000000000000000600082015250565b7f5065726d697373696f6e2064656e696564000000000000000000000000000000600082015250565b7f43616e6e6f74207472616e7366657220746f2061646472657373203000000000600082015250565b7f4f776e61626c653a2063616c6c6572206973206e6f7420746865206f776e6572600082015250565b7f41646472657373206d757374206e6f7420626520300000000000000000000000600082015250565b7f41646472657373206f776e657220697320300000000000000000000000000000600082015250565b50565b7f4e6f7420656e6f756768207765692073656e7421000000000000000000000000600082015250565b61568c8161524f565b811461569757600080fd5b50565b6156a381615261565b81146156ae57600080fd5b50565b6156ba8161528d565b81146156c557600080fd5b5056fea26469706673582212201269b51b4e423a713f67ea9052754e0db8d7abdb551a3181e768768e759ee07d64736f6c63430008070033",
					"opcodes": "PUSH1 0x80 PUSH1 0x40 MSTORE PUSH1 0x0 PUSH1 0x1 SSTORE PUSH1 0x2 PUSH1 0x8 SSTORE CALLVALUE DUP1 ISZERO PUSH3 0x1B JUMPI PUSH1 0x0 DUP1 REVERT JUMPDEST POP PUSH3 0x3C PUSH3 0x30 PUSH3 0x42 PUSH1 0x20 SHL PUSH1 0x20 SHR JUMP JUMPDEST PUSH3 0x4A PUSH1 0x20 SHL PUSH1 0x20 SHR JUMP JUMPDEST PUSH3 0x10E JUMP JUMPDEST PUSH1 0x0 CALLER SWAP1 POP SWAP1 JUMP JUMPDEST PUSH1 0x0 DUP1 PUSH1 0x0 SWAP1 SLOAD SWAP1 PUSH2 0x100 EXP SWAP1 DIV PUSH20 0xFFFFFFFFFFFFFFFFFFFFFFFFFFFFFFFFFFFFFFFF AND SWAP1 POP DUP2 PUSH1 0x0 DUP1 PUSH2 0x100 EXP DUP2 SLOAD DUP2 PUSH20 0xFFFFFFFFFFFFFFFFFFFFFFFFFFFFFFFFFFFFFFFF MUL NOT AND SWAP1 DUP4 PUSH20 0xFFFFFFFFFFFFFFFFFFFFFFFFFFFFFFFFFFFFFFFF AND MUL OR SWAP1 SSTORE POP DUP2 PUSH20 0xFFFFFFFFFFFFFFFFFFFFFFFFFFFFFFFFFFFFFFFF AND DUP2 PUSH20 0xFFFFFFFFFFFFFFFFFFFFFFFFFFFFFFFFFFFFFFFF AND PUSH32 0x8BE0079C531659141344CD1FD0A4F28419497F9722A3DAAFE3B4186F6B6457E0 PUSH1 0x40 MLOAD PUSH1 0x40 MLOAD DUP1 SWAP2 SUB SWAP1 LOG3 POP POP JUMP JUMPDEST PUSH2 0x56FE DUP1 PUSH3 0x11E PUSH1 0x0 CODECOPY PUSH1 0x0 RETURN INVALID PUSH1 0x80 PUSH1 0x40 MSTORE PUSH1 0x4 CALLDATASIZE LT PUSH2 0x181 JUMPI PUSH1 0x0 CALLDATALOAD PUSH1 0xE0 SHR DUP1 PUSH4 0x70A08231 GT PUSH2 0xD1 JUMPI DUP1 PUSH4 0xB88D4FDE GT PUSH2 0x8A JUMPI DUP1 PUSH4 0xE31465DF GT PUSH2 0x64 JUMPI DUP1 PUSH4 0xE31465DF EQ PUSH2 0x57B JUMPI DUP1 PUSH4 0xE985E9C5 EQ PUSH2 0x5A4 JUMPI DUP1 PUSH4 0xF2FDE38B EQ PUSH2 0x5E1 JUMPI DUP1 PUSH4 0xFE3D5538 EQ PUSH2 0x60A JUMPI PUSH2 0x181 JUMP JUMPDEST DUP1 PUSH4 0xB88D4FDE EQ PUSH2 0x4F9 JUMPI DUP1 PUSH4 0xBED59EAE EQ PUSH2 0x515 JUMPI DUP1 PUSH4 0xDD46FA5D EQ PUSH2 0x552 JUMPI PUSH2 0x181 JUMP JUMPDEST DUP1 PUSH4 0x70A08231 EQ PUSH2 0x3EA JUMPI DUP1 PUSH4 0x715018A6 EQ PUSH2 0x427 JUMPI DUP1 PUSH4 0x8DA5CB5B EQ PUSH2 0x43E JUMPI DUP1 PUSH4 0x9CCBFF6B EQ PUSH2 0x469 JUMPI DUP1 PUSH4 0xA22CB465 EQ PUSH2 0x4A7 JUMPI DUP1 PUSH4 0xAE06C1B7 EQ PUSH2 0x4D0 JUMPI PUSH2 0x181 JUMP JUMPDEST DUP1 PUSH4 0x3996345E GT PUSH2 0x13E JUMPI DUP1 PUSH4 0x3F255FF9 GT PUSH2 0x118 JUMPI DUP1 PUSH4 0x3F255FF9 EQ PUSH2 0x315 JUMPI DUP1 PUSH4 0x42842E0E EQ PUSH2 0x353 JUMPI DUP1 PUSH4 0x6352211E EQ PUSH2 0x36F JUMPI DUP1 PUSH4 0x6D168461 EQ PUSH2 0x3AC JUMPI PUSH2 0x181 JUMP JUMPDEST DUP1 PUSH4 0x3996345E EQ PUSH2 0x2A1 JUMPI DUP1 PUSH4 0x3A7D2376 EQ PUSH2 0x2BD JUMPI DUP1 PUSH4 0x3CCFD60B EQ PUSH2 0x2FE JUMPI PUSH2 0x181 JUMP JUMPDEST DUP1 PUSH4 0x81812FC EQ PUSH2 0x186 JUMPI DUP1 PUSH4 0x95EA7B3 EQ PUSH2 0x1C3 JUMPI DUP1 PUSH4 0xE448C1E EQ PUSH2 0x1DF JUMPI DUP1 PUSH4 0x22634D21 EQ PUSH2 0x208 JUMPI DUP1 PUSH4 0x23B872DD EQ PUSH2 0x248 JUMPI DUP1 PUSH4 0x28CBC038 EQ PUSH2 0x264 JUMPI JUMPDEST PUSH1 0x0 DUP1 REVERT JUMPDEST CALLVALUE DUP1 ISZERO PUSH2 0x192 JUMPI PUSH1 0x0 DUP1 REVERT JUMPDEST POP PUSH2 0x1AD PUSH1 0x4 DUP1 CALLDATASIZE SUB DUP2 ADD SWAP1 PUSH2 0x1A8 SWAP2 SWAP1 PUSH2 0x46A4 JUMP JUMPDEST PUSH2 0x647 JUMP JUMPDEST PUSH1 0x40 MLOAD PUSH2 0x1BA SWAP2 SWAP1 PUSH2 0x4D03 JUMP JUMPDEST PUSH1 0x40 MLOAD DUP1 SWAP2 SUB SWAP1 RETURN JUMPDEST PUSH2 0x1DD PUSH1 0x4 DUP1 CALLDATASIZE SUB DUP2 ADD SWAP1 PUSH2 0x1D8 SWAP2 SWAP1 PUSH2 0x43DD JUMP JUMPDEST PUSH2 0x684 JUMP JUMPDEST STOP JUMPDEST CALLVALUE DUP1 ISZERO PUSH2 0x1EB JUMPI PUSH1 0x0 DUP1 REVERT JUMPDEST POP PUSH2 0x206 PUSH1 0x4 DUP1 CALLDATASIZE SUB DUP2 ADD SWAP1 PUSH2 0x201 SWAP2 SWAP1 PUSH2 0x45B9 JUMP JUMPDEST PUSH2 0x757 JUMP JUMPDEST STOP JUMPDEST CALLVALUE DUP1 ISZERO PUSH2 0x214 JUMPI PUSH1 0x0 DUP1 REVERT JUMPDEST POP PUSH2 0x22F PUSH1 0x4 DUP1 CALLDATASIZE SUB DUP2 ADD SWAP1 PUSH2 0x22A SWAP2 SWAP1 PUSH2 0x43DD JUMP JUMPDEST PUSH2 0x993 JUMP JUMPDEST PUSH1 0x40 MLOAD PUSH2 0x23F SWAP5 SWAP4 SWAP3 SWAP2 SWAP1 PUSH2 0x4F54 JUMP JUMPDEST PUSH1 0x40 MLOAD DUP1 SWAP2 SUB SWAP1 RETURN JUMPDEST PUSH2 0x262 PUSH1 0x4 DUP1 CALLDATASIZE SUB DUP2 ADD SWAP1 PUSH2 0x25D SWAP2 SWAP1 PUSH2 0x42C7 JUMP JUMPDEST PUSH2 0x9D0 JUMP JUMPDEST STOP JUMPDEST CALLVALUE DUP1 ISZERO PUSH2 0x270 JUMPI PUSH1 0x0 DUP1 REVERT JUMPDEST POP PUSH2 0x28B PUSH1 0x4 DUP1 CALLDATASIZE SUB DUP2 ADD SWAP1 PUSH2 0x286 SWAP2 SWAP1 PUSH2 0x46A4 JUMP JUMPDEST PUSH2 0xDC4 JUMP JUMPDEST PUSH1 0x40 MLOAD PUSH2 0x298 SWAP2 SWAP1 PUSH2 0x4D03 JUMP JUMPDEST PUSH1 0x40 MLOAD DUP1 SWAP2 SUB SWAP1 RETURN JUMPDEST PUSH2 0x2BB PUSH1 0x4 DUP1 CALLDATASIZE SUB DUP2 ADD SWAP1 PUSH2 0x2B6 SWAP2 SWAP1 PUSH2 0x46D1 JUMP JUMPDEST PUSH2 0xE13 JUMP JUMPDEST STOP JUMPDEST CALLVALUE DUP1 ISZERO PUSH2 0x2C9 JUMPI PUSH1 0x0 DUP1 REVERT JUMPDEST POP PUSH2 0x2E4 PUSH1 0x4 DUP1 CALLDATASIZE SUB DUP2 ADD SWAP1 PUSH2 0x2DF SWAP2 SWAP1 PUSH2 0x4724 JUMP JUMPDEST PUSH2 0x11B2 JUMP JUMPDEST PUSH1 0x40 MLOAD PUSH2 0x2F5 SWAP6 SWAP5 SWAP4 SWAP3 SWAP2 SWAP1 PUSH2 0x4F01 JUMP JUMPDEST PUSH1 0x40 MLOAD DUP1 SWAP2 SUB SWAP1 RETURN JUMPDEST CALLVALUE DUP1 ISZERO PUSH2 0x30A JUMPI PUSH1 0x0 DUP1 REVERT JUMPDEST POP PUSH2 0x313 PUSH2 0x1245 JUMP JUMPDEST STOP JUMPDEST CALLVALUE DUP1 ISZERO PUSH2 0x321 JUMPI PUSH1 0x0 DUP1 REVERT JUMPDEST POP PUSH2 0x33C PUSH1 0x4 DUP1 CALLDATASIZE SUB DUP2 ADD SWAP1 PUSH2 0x337 SWAP2 SWAP1 PUSH2 0x4724 JUMP JUMPDEST PUSH2 0x1377 JUMP JUMPDEST PUSH1 0x40 MLOAD PUSH2 0x34A SWAP3 SWAP2 SWAP1 PUSH2 0x4ED1 JUMP JUMPDEST PUSH1 0x40 MLOAD DUP1 SWAP2 SUB SWAP1 RETURN JUMPDEST PUSH2 0x36D PUSH1 0x4 DUP1 CALLDATASIZE SUB DUP2 ADD SWAP1 PUSH2 0x368 SWAP2 SWAP1 PUSH2 0x42C7 JUMP JUMPDEST PUSH2 0x17FB JUMP JUMPDEST STOP JUMPDEST CALLVALUE DUP1 ISZERO PUSH2 0x37B JUMPI PUSH1 0x0 DUP1 REVERT JUMPDEST POP PUSH2 0x396 PUSH1 0x4 DUP1 CALLDATASIZE SUB DUP2 ADD SWAP1 PUSH2 0x391 SWAP2 SWAP1 PUSH2 0x46A4 JUMP JUMPDEST PUSH2 0x1BEF JUMP JUMPDEST PUSH1 0x40 MLOAD PUSH2 0x3A3 SWAP2 SWAP1 PUSH2 0x4D03 JUMP JUMPDEST PUSH1 0x40 MLOAD DUP1 SWAP2 SUB SWAP1 RETURN JUMPDEST CALLVALUE DUP1 ISZERO PUSH2 0x3B8 JUMPI PUSH1 0x0 DUP1 REVERT JUMPDEST POP PUSH2 0x3D3 PUSH1 0x4 DUP1 CALLDATASIZE SUB DUP2 ADD SWAP1 PUSH2 0x3CE SWAP2 SWAP1 PUSH2 0x4724 JUMP JUMPDEST PUSH2 0x1CF2 JUMP JUMPDEST PUSH1 0x40 MLOAD PUSH2 0x3E1 SWAP3 SWAP2 SWAP1 PUSH2 0x4ED1 JUMP JUMPDEST PUSH1 0x40 MLOAD DUP1 SWAP2 SUB SWAP1 RETURN JUMPDEST CALLVALUE DUP1 ISZERO PUSH2 0x3F6 JUMPI PUSH1 0x0 DUP1 REVERT JUMPDEST POP PUSH2 0x411 PUSH1 0x4 DUP1 CALLDATASIZE SUB DUP2 ADD SWAP1 PUSH2 0x40C SWAP2 SWAP1 PUSH2 0x425A JUMP JUMPDEST PUSH2 0x2131 JUMP JUMPDEST PUSH1 0x40 MLOAD PUSH2 0x41E SWAP2 SWAP1 PUSH2 0x4EB6 JUMP JUMPDEST PUSH1 0x40 MLOAD DUP1 SWAP2 SUB SWAP1 RETURN JUMPDEST CALLVALUE DUP1 ISZERO PUSH2 0x433 JUMPI PUSH1 0x0 DUP1 REVERT JUMPDEST POP PUSH2 0x43C PUSH2 0x2258 JUMP JUMPDEST STOP JUMPDEST CALLVALUE DUP1 ISZERO PUSH2 0x44A JUMPI PUSH1 0x0 DUP1 REVERT JUMPDEST POP PUSH2 0x453 PUSH2 0x22E0 JUMP JUMPDEST PUSH1 0x40 MLOAD PUSH2 0x460 SWAP2 SWAP1 PUSH2 0x4D03 JUMP JUMPDEST PUSH1 0x40 MLOAD DUP1 SWAP2 SUB SWAP1 RETURN JUMPDEST CALLVALUE DUP1 ISZERO PUSH2 0x475 JUMPI PUSH1 0x0 DUP1 REVERT JUMPDEST POP PUSH2 0x490 PUSH1 0x4 DUP1 CALLDATASIZE SUB DUP2 ADD SWAP1 PUSH2 0x48B SWAP2 SWAP1 PUSH2 0x441D JUMP JUMPDEST PUSH2 0x2309 JUMP JUMPDEST PUSH1 0x40 MLOAD PUSH2 0x49E SWAP3 SWAP2 SWAP1 PUSH2 0x4ED1 JUMP JUMPDEST PUSH1 0x40 MLOAD DUP1 SWAP2 SUB SWAP1 RETURN JUMPDEST CALLVALUE DUP1 ISZERO PUSH2 0x4B3 JUMPI PUSH1 0x0 DUP1 REVERT JUMPDEST POP PUSH2 0x4CE PUSH1 0x4 DUP1 CALLDATASIZE SUB DUP2 ADD SWAP1 PUSH2 0x4C9 SWAP2 SWAP1 PUSH2 0x439D JUMP JUMPDEST PUSH2 0x2B55 JUMP JUMPDEST STOP JUMPDEST CALLVALUE DUP1 ISZERO PUSH2 0x4DC JUMPI PUSH1 0x0 DUP1 REVERT JUMPDEST POP PUSH2 0x4F7 PUSH1 0x4 DUP1 CALLDATASIZE SUB DUP2 ADD SWAP1 PUSH2 0x4F2 SWAP2 SWAP1 PUSH2 0x46A4 JUMP JUMPDEST PUSH2 0x2BED JUMP JUMPDEST STOP JUMPDEST PUSH2 0x513 PUSH1 0x4 DUP1 CALLDATASIZE SUB DUP2 ADD SWAP1 PUSH2 0x50E SWAP2 SWAP1 PUSH2 0x431A JUMP JUMPDEST PUSH2 0x2C73 JUMP JUMPDEST STOP JUMPDEST CALLVALUE DUP1 ISZERO PUSH2 0x521 JUMPI PUSH1 0x0 DUP1 REVERT JUMPDEST POP PUSH2 0x53C PUSH1 0x4 DUP1 CALLDATASIZE SUB DUP2 ADD SWAP1 PUSH2 0x537 SWAP2 SWAP1 PUSH2 0x46A4 JUMP JUMPDEST PUSH2 0x3068 JUMP JUMPDEST PUSH1 0x40 MLOAD PUSH2 0x549 SWAP2 SWAP1 PUSH2 0x4E9B JUMP JUMPDEST PUSH1 0x40 MLOAD DUP1 SWAP2 SUB SWAP1 RETURN JUMPDEST CALLVALUE DUP1 ISZERO PUSH2 0x55E JUMPI PUSH1 0x0 DUP1 REVERT JUMPDEST POP PUSH2 0x579 PUSH1 0x4 DUP1 CALLDATASIZE SUB DUP2 ADD SWAP1 PUSH2 0x574 SWAP2 SWAP1 PUSH2 0x44E2 JUMP JUMPDEST PUSH2 0x344F JUMP JUMPDEST STOP JUMPDEST CALLVALUE DUP1 ISZERO PUSH2 0x587 JUMPI PUSH1 0x0 DUP1 REVERT JUMPDEST POP PUSH2 0x5A2 PUSH1 0x4 DUP1 CALLDATASIZE SUB DUP2 ADD SWAP1 PUSH2 0x59D SWAP2 SWAP1 PUSH2 0x4724 JUMP JUMPDEST PUSH2 0x363E JUMP JUMPDEST STOP JUMPDEST CALLVALUE DUP1 ISZERO PUSH2 0x5B0 JUMPI PUSH1 0x0 DUP1 REVERT JUMPDEST POP PUSH2 0x5CB PUSH1 0x4 DUP1 CALLDATASIZE SUB DUP2 ADD SWAP1 PUSH2 0x5C6 SWAP2 SWAP1 PUSH2 0x4287 JUMP JUMPDEST PUSH2 0x3704 JUMP JUMPDEST PUSH1 0x40 MLOAD PUSH2 0x5D8 SWAP2 SWAP1 PUSH2 0x4D40 JUMP JUMPDEST PUSH1 0x40 MLOAD DUP1 SWAP2 SUB SWAP1 RETURN JUMPDEST CALLVALUE DUP1 ISZERO PUSH2 0x5ED JUMPI PUSH1 0x0 DUP1 REVERT JUMPDEST POP PUSH2 0x608 PUSH1 0x4 DUP1 CALLDATASIZE SUB DUP2 ADD SWAP1 PUSH2 0x603 SWAP2 SWAP1 PUSH2 0x425A JUMP JUMPDEST PUSH2 0x3798 JUMP JUMPDEST STOP JUMPDEST CALLVALUE DUP1 ISZERO PUSH2 0x616 JUMPI PUSH1 0x0 DUP1 REVERT JUMPDEST POP PUSH2 0x631 PUSH1 0x4 DUP1 CALLDATASIZE SUB DUP2 ADD SWAP1 PUSH2 0x62C SWAP2 SWAP1 PUSH2 0x46A4 JUMP JUMPDEST PUSH2 0x3890 JUMP JUMPDEST PUSH1 0x40 MLOAD PUSH2 0x63E SWAP2 SWAP1 PUSH2 0x4D1E JUMP JUMPDEST PUSH1 0x40 MLOAD DUP1 SWAP2 SUB SWAP1 RETURN JUMPDEST PUSH1 0x0 PUSH1 0x4 PUSH1 0x0 DUP4 DUP2 MSTORE PUSH1 0x20 ADD SWAP1 DUP2 MSTORE PUSH1 0x20 ADD PUSH1 0x0 KECCAK256 PUSH1 0x0 SWAP1 SLOAD SWAP1 PUSH2 0x100 EXP SWAP1 DIV PUSH20 0xFFFFFFFFFFFFFFFFFFFFFFFFFFFFFFFFFFFFFFFF AND SWAP1 POP SWAP2 SWAP1 POP JUMP JUMPDEST PUSH1 0x7 DUP2 DUP2 SLOAD DUP2 LT PUSH2 0x698 JUMPI PUSH2 0x697 PUSH2 0x5412 JUMP JUMPDEST JUMPDEST SWAP1 PUSH1 0x0 MSTORE PUSH1 0x20 PUSH1 0x0 KECCAK256 SWAP1 PUSH1 0x7 MUL ADD PUSH1 0x1 ADD PUSH1 0x0 SWAP1 SLOAD SWAP1 PUSH2 0x100 EXP SWAP1 DIV PUSH20 0xFFFFFFFFFFFFFFFFFFFFFFFFFFFFFFFFFFFFFFFF AND PUSH20 0xFFFFFFFFFFFFFFFFFFFFFFFFFFFFFFFFFFFFFFFF AND CALLER PUSH20 0xFFFFFFFFFFFFFFFFFFFFFFFFFFFFFFFFFFFFFFFF AND EQ PUSH2 0x701 JUMPI PUSH1 0x0 DUP1 REVERT JUMPDEST DUP2 PUSH1 0x4 PUSH1 0x0 DUP4 DUP2 MSTORE PUSH1 0x20 ADD SWAP1 DUP2 MSTORE PUSH1 0x20 ADD PUSH1 0x0 KECCAK256 PUSH1 0x0 PUSH2 0x100 EXP DUP2 SLOAD DUP2 PUSH20 0xFFFFFFFFFFFFFFFFFFFFFFFFFFFFFFFFFFFFFFFF MUL NOT AND SWAP1 DUP4 PUSH20 0xFFFFFFFFFFFFFFFFFFFFFFFFFFFFFFFFFFFFFFFF AND MUL OR SWAP1 SSTORE POP POP POP JUMP JUMPDEST PUSH1 0x0 PUSH1 0x1 PUSH1 0x0 DUP2 SLOAD DUP1 SWAP3 SWAP2 SWAP1 PUSH2 0x76C SWAP1 PUSH2 0x533C JUMP JUMPDEST SWAP2 SWAP1 POP SSTORE SWAP1 POP PUSH1 0x0 PUSH1 0x40 MLOAD DUP1 PUSH1 0xE0 ADD PUSH1 0x40 MSTORE DUP1 DUP4 DUP2 MSTORE PUSH1 0x20 ADD CALLER PUSH20 0xFFFFFFFFFFFFFFFFFFFFFFFFFFFFFFFFFFFFFFFF AND DUP2 MSTORE PUSH1 0x20 ADD DUP9 DUP2 MSTORE PUSH1 0x20 ADD DUP8 DUP2 MSTORE PUSH1 0x20 ADD DUP7 DUP2 MSTORE PUSH1 0x20 ADD DUP6 DUP2 MSTORE PUSH1 0x20 ADD PUSH1 0x1 ISZERO ISZERO DUP2 MSTORE POP SWAP1 POP PUSH1 0x7 DUP2 SWAP1 DUP1 PUSH1 0x1 DUP2 SLOAD ADD DUP1 DUP3 SSTORE DUP1 SWAP2 POP POP PUSH1 0x1 SWAP1 SUB SWAP1 PUSH1 0x0 MSTORE PUSH1 0x20 PUSH1 0x0 KECCAK256 SWAP1 PUSH1 0x7 MUL ADD PUSH1 0x0 SWAP1 SWAP2 SWAP1 SWAP2 SWAP1 SWAP2 POP PUSH1 0x0 DUP3 ADD MLOAD DUP2 PUSH1 0x0 ADD SSTORE PUSH1 0x20 DUP3 ADD MLOAD DUP2 PUSH1 0x1 ADD PUSH1 0x0 PUSH2 0x100 EXP DUP2 SLOAD DUP2 PUSH20 0xFFFFFFFFFFFFFFFFFFFFFFFFFFFFFFFFFFFFFFFF MUL NOT AND SWAP1 DUP4 PUSH20 0xFFFFFFFFFFFFFFFFFFFFFFFFFFFFFFFFFFFFFFFF AND MUL OR SWAP1 SSTORE POP PUSH1 0x40 DUP3 ADD MLOAD DUP2 PUSH1 0x2 ADD SWAP1 DUP1 MLOAD SWAP1 PUSH1 0x20 ADD SWAP1 PUSH2 0x85B SWAP3 SWAP2 SWAP1 PUSH2 0x3E9B JUMP JUMPDEST POP PUSH1 0x60 DUP3 ADD MLOAD DUP2 PUSH1 0x3 ADD SWAP1 DUP1 MLOAD SWAP1 PUSH1 0x20 ADD SWAP1 PUSH2 0x878 SWAP3 SWAP2 SWAP1 PUSH2 0x3E9B JUMP JUMPDEST POP PUSH1 0x80 DUP3 ADD MLOAD DUP2 PUSH1 0x4 ADD SWAP1 DUP1 MLOAD SWAP1 PUSH1 0x20 ADD SWAP1 PUSH2 0x895 SWAP3 SWAP2 SWAP1 PUSH2 0x3E9B JUMP JUMPDEST POP PUSH1 0xA0 DUP3 ADD MLOAD DUP2 PUSH1 0x5 ADD SWAP1 DUP1 MLOAD SWAP1 PUSH1 0x20 ADD SWAP1 PUSH2 0x8B2 SWAP3 SWAP2 SWAP1 PUSH2 0x3F21 JUMP JUMPDEST POP PUSH1 0xC0 DUP3 ADD MLOAD DUP2 PUSH1 0x6 ADD PUSH1 0x0 PUSH2 0x100 EXP DUP2 SLOAD DUP2 PUSH1 0xFF MUL NOT AND SWAP1 DUP4 ISZERO ISZERO MUL OR SWAP1 SSTORE POP POP POP PUSH1 0x40 MLOAD DUP1 PUSH1 0x80 ADD PUSH1 0x40 MSTORE DUP1 DUP5 DUP2 MSTORE PUSH1 0x20 ADD PUSH1 0x64 PUSH1 0x8 SLOAD DUP7 PUSH2 0x8F6 SWAP2 SWAP1 PUSH2 0x51C1 JUMP JUMPDEST PUSH2 0x900 SWAP2 SWAP1 PUSH2 0x5190 JUMP JUMPDEST DUP2 MSTORE PUSH1 0x20 ADD TIMESTAMP DUP2 MSTORE PUSH1 0x20 ADD DUP4 DUP2 MSTORE POP PUSH1 0x2 PUSH1 0x0 CALLER PUSH20 0xFFFFFFFFFFFFFFFFFFFFFFFFFFFFFFFFFFFFFFFF AND PUSH20 0xFFFFFFFFFFFFFFFFFFFFFFFFFFFFFFFFFFFFFFFF AND DUP2 MSTORE PUSH1 0x20 ADD SWAP1 DUP2 MSTORE PUSH1 0x20 ADD PUSH1 0x0 KECCAK256 PUSH1 0x0 DUP5 DUP2 MSTORE PUSH1 0x20 ADD SWAP1 DUP2 MSTORE PUSH1 0x20 ADD PUSH1 0x0 KECCAK256 PUSH1 0x0 DUP3 ADD MLOAD DUP2 PUSH1 0x0 ADD SSTORE PUSH1 0x20 DUP3 ADD MLOAD DUP2 PUSH1 0x1 ADD SSTORE PUSH1 0x40 DUP3 ADD MLOAD DUP2 PUSH1 0x2 ADD SSTORE PUSH1 0x60 DUP3 ADD MLOAD DUP2 PUSH1 0x3 ADD SSTORE SWAP1 POP POP POP POP POP POP POP POP POP JUMP JUMPDEST PUSH1 0x2 PUSH1 0x20 MSTORE DUP2 PUSH1 0x0 MSTORE PUSH1 0x40 PUSH1 0x0 KECCAK256 PUSH1 0x20 MSTORE DUP1 PUSH1 0x0 MSTORE PUSH1 0x40 PUSH1 0x0 KECCAK256 PUSH1 0x0 SWAP2 POP SWAP2 POP POP DUP1 PUSH1 0x0 ADD SLOAD SWAP1 DUP1 PUSH1 0x1 ADD SLOAD SWAP1 DUP1 PUSH1 0x2 ADD SLOAD SWAP1 DUP1 PUSH1 0x3 ADD SLOAD SWAP1 POP DUP5 JUMP JUMPDEST PUSH1 0x7 DUP2 DUP2 SLOAD DUP2 LT PUSH2 0x9E4 JUMPI PUSH2 0x9E3 PUSH2 0x5412 JUMP JUMPDEST JUMPDEST SWAP1 PUSH1 0x0 MSTORE PUSH1 0x20 PUSH1 0x0 KECCAK256 SWAP1 PUSH1 0x7 MUL ADD PUSH1 0x1 ADD PUSH1 0x0 SWAP1 SLOAD SWAP1 PUSH2 0x100 EXP SWAP1 DIV PUSH20 0xFFFFFFFFFFFFFFFFFFFFFFFFFFFFFFFFFFFFFFFF AND PUSH20 0xFFFFFFFFFFFFFFFFFFFFFFFFFFFFFFFFFFFFFFFF AND CALLER PUSH20 0xFFFFFFFFFFFFFFFFFFFFFFFFFFFFFFFFFFFFFFFF AND EQ DUP1 PUSH2 0xAD5 JUMPI POP PUSH1 0x5 PUSH1 0x0 DUP5 PUSH20 0xFFFFFFFFFFFFFFFFFFFFFFFFFFFFFFFFFFFFFFFF AND PUSH20 0xFFFFFFFFFFFFFFFFFFFFFFFFFFFFFFFFFFFFFFFF AND DUP2 MSTORE PUSH1 0x20 ADD SWAP1 DUP2 MSTORE PUSH1 0x20 ADD PUSH1 0x0 KECCAK256 PUSH1 0x0 DUP4 PUSH20 0xFFFFFFFFFFFFFFFFFFFFFFFFFFFFFFFFFFFFFFFF AND PUSH20 0xFFFFFFFFFFFFFFFFFFFFFFFFFFFFFFFFFFFFFFFF AND DUP2 MSTORE PUSH1 0x20 ADD SWAP1 DUP2 MSTORE PUSH1 0x20 ADD PUSH1 0x0 KECCAK256 PUSH1 0x0 SWAP1 SLOAD SWAP1 PUSH2 0x100 EXP SWAP1 DIV PUSH1 0xFF AND JUMPDEST DUP1 PUSH2 0xB3E JUMPI POP DUP2 PUSH20 0xFFFFFFFFFFFFFFFFFFFFFFFFFFFFFFFFFFFFFFFF AND PUSH1 0x4 PUSH1 0x0 DUP4 DUP2 MSTORE PUSH1 0x20 ADD SWAP1 DUP2 MSTORE PUSH1 0x20 ADD PUSH1 0x0 KECCAK256 PUSH1 0x0 SWAP1 SLOAD SWAP1 PUSH2 0x100 EXP SWAP1 DIV PUSH20 0xFFFFFFFFFFFFFFFFFFFFFFFFFFFFFFFFFFFFFFFF AND PUSH20 0xFFFFFFFFFFFFFFFFFFFFFFFFFFFFFFFFFFFFFFFF AND EQ JUMPDEST PUSH2 0xB7D JUMPI PUSH1 0x40 MLOAD PUSH32 0x8C379A000000000000000000000000000000000000000000000000000000000 DUP2 MSTORE PUSH1 0x4 ADD PUSH2 0xB74 SWAP1 PUSH2 0x4DDB JUMP JUMPDEST PUSH1 0x40 MLOAD DUP1 SWAP2 SUB SWAP1 REVERT JUMPDEST PUSH1 0x0 PUSH20 0xFFFFFFFFFFFFFFFFFFFFFFFFFFFFFFFFFFFFFFFF AND DUP3 PUSH20 0xFFFFFFFFFFFFFFFFFFFFFFFFFFFFFFFFFFFFFFFF AND EQ ISZERO PUSH2 0xBED JUMPI PUSH1 0x40 MLOAD PUSH32 0x8C379A000000000000000000000000000000000000000000000000000000000 DUP2 MSTORE PUSH1 0x4 ADD PUSH2 0xBE4 SWAP1 PUSH2 0x4DFB JUMP JUMPDEST PUSH1 0x40 MLOAD DUP1 SWAP2 SUB SWAP1 REVERT JUMPDEST PUSH1 0x7 DUP2 DUP2 SLOAD DUP2 LT PUSH2 0xC01 JUMPI PUSH2 0xC00 PUSH2 0x5412 JUMP JUMPDEST JUMPDEST SWAP1 PUSH1 0x0 MSTORE PUSH1 0x20 PUSH1 0x0 KECCAK256 SWAP1 PUSH1 0x7 MUL ADD PUSH1 0x6 ADD PUSH1 0x0 SWAP1 SLOAD SWAP1 PUSH2 0x100 EXP SWAP1 DIV PUSH1 0xFF AND ISZERO PUSH2 0xC35 JUMPI PUSH2 0xC30 DUP2 DUP5 DUP5 PUSH2 0xE13 JUMP JUMPDEST PUSH2 0xDBF JUMP JUMPDEST PUSH1 0x3 PUSH1 0x0 DUP5 PUSH20 0xFFFFFFFFFFFFFFFFFFFFFFFFFFFFFFFFFFFFFFFF AND PUSH20 0xFFFFFFFFFFFFFFFFFFFFFFFFFFFFFFFFFFFFFFFF AND DUP2 MSTORE PUSH1 0x20 ADD SWAP1 DUP2 MSTORE PUSH1 0x20 ADD PUSH1 0x0 KECCAK256 PUSH1 0x0 DUP3 DUP2 MSTORE PUSH1 0x20 ADD SWAP1 DUP2 MSTORE PUSH1 0x20 ADD PUSH1 0x0 KECCAK256 PUSH1 0x0 SWAP1 SLOAD SWAP1 PUSH2 0x100 EXP SWAP1 DIV PUSH1 0xFF AND PUSH1 0x3 PUSH1 0x0 DUP5 PUSH20 0xFFFFFFFFFFFFFFFFFFFFFFFFFFFFFFFFFFFFFFFF AND PUSH20 0xFFFFFFFFFFFFFFFFFFFFFFFFFFFFFFFFFFFFFFFF AND DUP2 MSTORE PUSH1 0x20 ADD SWAP1 DUP2 MSTORE PUSH1 0x20 ADD PUSH1 0x0 KECCAK256 PUSH1 0x0 DUP4 DUP2 MSTORE PUSH1 0x20 ADD SWAP1 DUP2 MSTORE PUSH1 0x20 ADD PUSH1 0x0 KECCAK256 PUSH1 0x0 PUSH2 0x100 EXP DUP2 SLOAD DUP2 PUSH1 0xFF MUL NOT AND SWAP1 DUP4 ISZERO ISZERO MUL OR SWAP1 SSTORE POP PUSH1 0x3 PUSH1 0x0 DUP5 PUSH20 0xFFFFFFFFFFFFFFFFFFFFFFFFFFFFFFFFFFFFFFFF AND PUSH20 0xFFFFFFFFFFFFFFFFFFFFFFFFFFFFFFFFFFFFFFFF AND DUP2 MSTORE PUSH1 0x20 ADD SWAP1 DUP2 MSTORE PUSH1 0x20 ADD PUSH1 0x0 KECCAK256 PUSH1 0x0 DUP3 DUP2 MSTORE PUSH1 0x20 ADD SWAP1 DUP2 MSTORE PUSH1 0x20 ADD PUSH1 0x0 KECCAK256 PUSH1 0x0 PUSH2 0x100 EXP DUP2 SLOAD SWAP1 PUSH1 0xFF MUL NOT AND SWAP1 SSTORE DUP2 PUSH1 0x7 DUP3 DUP2 SLOAD DUP2 LT PUSH2 0xD6F JUMPI PUSH2 0xD6E PUSH2 0x5412 JUMP JUMPDEST JUMPDEST SWAP1 PUSH1 0x0 MSTORE PUSH1 0x20 PUSH1 0x0 KECCAK256 SWAP1 PUSH1 0x7 MUL ADD PUSH1 0x1 ADD PUSH1 0x0 PUSH2 0x100 EXP DUP2 SLOAD DUP2 PUSH20 0xFFFFFFFFFFFFFFFFFFFFFFFFFFFFFFFFFFFFFFFF MUL NOT AND SWAP1 DUP4 PUSH20 0xFFFFFFFFFFFFFFFFFFFFFFFFFFFFFFFFFFFFFFFF AND MUL OR SWAP1 SSTORE POP JUMPDEST POP POP POP JUMP JUMPDEST PUSH1 0x0 PUSH1 0x7 DUP3 DUP2 SLOAD DUP2 LT PUSH2 0xDDA JUMPI PUSH2 0xDD9 PUSH2 0x5412 JUMP JUMPDEST JUMPDEST SWAP1 PUSH1 0x0 MSTORE PUSH1 0x20 PUSH1 0x0 KECCAK256 SWAP1 PUSH1 0x7 MUL ADD PUSH1 0x1 ADD PUSH1 0x0 SWAP1 SLOAD SWAP1 PUSH2 0x100 EXP SWAP1 DIV PUSH20 0xFFFFFFFFFFFFFFFFFFFFFFFFFFFFFFFFFFFFFFFF AND SWAP1 POP SWAP2 SWAP1 POP JUMP JUMPDEST DUP3 DUP3 DUP1 PUSH20 0xFFFFFFFFFFFFFFFFFFFFFFFFFFFFFFFFFFFFFFFF AND PUSH1 0x7 DUP4 DUP2 SLOAD DUP2 LT PUSH2 0xE40 JUMPI PUSH2 0xE3F PUSH2 0x5412 JUMP JUMPDEST JUMPDEST SWAP1 PUSH1 0x0 MSTORE PUSH1 0x20 PUSH1 0x0 KECCAK256 SWAP1 PUSH1 0x7 MUL ADD PUSH1 0x1 ADD PUSH1 0x0 SWAP1 SLOAD SWAP1 PUSH2 0x100 EXP SWAP1 DIV PUSH20 0xFFFFFFFFFFFFFFFFFFFFFFFFFFFFFFFFFFFFFFFF AND PUSH20 0xFFFFFFFFFFFFFFFFFFFFFFFFFFFFFFFFFFFFFFFF AND EQ PUSH2 0xEC8 JUMPI PUSH1 0x40 MLOAD PUSH32 0x8C379A000000000000000000000000000000000000000000000000000000000 DUP2 MSTORE PUSH1 0x4 ADD PUSH2 0xEBF SWAP1 PUSH2 0x4D9B JUMP JUMPDEST PUSH1 0x40 MLOAD DUP1 SWAP2 SUB SWAP1 REVERT JUMPDEST PUSH1 0x0 PUSH1 0x2 PUSH1 0x0 DUP7 PUSH20 0xFFFFFFFFFFFFFFFFFFFFFFFFFFFFFFFFFFFFFFFF AND PUSH20 0xFFFFFFFFFFFFFFFFFFFFFFFFFFFFFFFFFFFFFFFF AND DUP2 MSTORE PUSH1 0x20 ADD SWAP1 DUP2 MSTORE PUSH1 0x20 ADD PUSH1 0x0 KECCAK256 PUSH1 0x0 DUP8 DUP2 MSTORE PUSH1 0x20 ADD SWAP1 DUP2 MSTORE PUSH1 0x20 ADD PUSH1 0x0 KECCAK256 PUSH1 0x40 MLOAD DUP1 PUSH1 0x80 ADD PUSH1 0x40 MSTORE SWAP1 DUP2 PUSH1 0x0 DUP3 ADD SLOAD DUP2 MSTORE PUSH1 0x20 ADD PUSH1 0x1 DUP3 ADD SLOAD DUP2 MSTORE PUSH1 0x20 ADD PUSH1 0x2 DUP3 ADD SLOAD DUP2 MSTORE PUSH1 0x20 ADD PUSH1 0x3 DUP3 ADD SLOAD DUP2 MSTORE POP POP SWAP1 POP DUP1 PUSH1 0x20 ADD MLOAD DUP2 PUSH1 0x0 ADD MLOAD PUSH2 0xF63 SWAP2 SWAP1 PUSH2 0x513A JUMP JUMPDEST CALLVALUE LT ISZERO PUSH2 0xFA5 JUMPI PUSH1 0x40 MLOAD PUSH32 0x8C379A000000000000000000000000000000000000000000000000000000000 DUP2 MSTORE PUSH1 0x4 ADD PUSH2 0xF9C SWAP1 PUSH2 0x4E7B JUMP JUMPDEST PUSH1 0x40 MLOAD DUP1 SWAP2 SUB SWAP1 REVERT JUMPDEST PUSH1 0x0 DUP6 PUSH20 0xFFFFFFFFFFFFFFFFFFFFFFFFFFFFFFFFFFFFFFFF AND DUP3 PUSH1 0x0 ADD MLOAD PUSH1 0x40 MLOAD PUSH2 0xFCF SWAP1 PUSH2 0x4CD9 JUMP JUMPDEST PUSH1 0x0 PUSH1 0x40 MLOAD DUP1 DUP4 SUB DUP2 DUP6 DUP8 GAS CALL SWAP3 POP POP POP RETURNDATASIZE DUP1 PUSH1 0x0 DUP2 EQ PUSH2 0x100C JUMPI PUSH1 0x40 MLOAD SWAP2 POP PUSH1 0x1F NOT PUSH1 0x3F RETURNDATASIZE ADD AND DUP3 ADD PUSH1 0x40 MSTORE RETURNDATASIZE DUP3 MSTORE RETURNDATASIZE PUSH1 0x0 PUSH1 0x20 DUP5 ADD RETURNDATACOPY PUSH2 0x1011 JUMP JUMPDEST PUSH1 0x60 SWAP2 POP JUMPDEST POP POP SWAP1 POP DUP1 PUSH2 0x1055 JUMPI PUSH1 0x40 MLOAD PUSH32 0x8C379A000000000000000000000000000000000000000000000000000000000 DUP2 MSTORE PUSH1 0x4 ADD PUSH2 0x104C SWAP1 PUSH2 0x4DBB JUMP JUMPDEST PUSH1 0x40 MLOAD DUP1 SWAP2 SUB SWAP1 REVERT JUMPDEST PUSH1 0x6 PUSH1 0x0 DUP9 DUP2 MSTORE PUSH1 0x20 ADD SWAP1 DUP2 MSTORE PUSH1 0x20 ADD PUSH1 0x0 KECCAK256 PUSH1 0x40 MLOAD DUP1 PUSH1 0xA0 ADD PUSH1 0x40 MSTORE DUP1 DUP5 PUSH1 0x0 ADD MLOAD DUP2 MSTORE PUSH1 0x20 ADD DUP5 PUSH1 0x20 ADD MLOAD DUP2 MSTORE PUSH1 0x20 ADD DUP5 PUSH1 0x40 ADD MLOAD DUP2 MSTORE PUSH1 0x20 ADD DUP9 PUSH20 0xFFFFFFFFFFFFFFFFFFFFFFFFFFFFFFFFFFFFFFFF AND DUP2 MSTORE PUSH1 0x20 ADD DUP8 PUSH20 0xFFFFFFFFFFFFFFFFFFFFFFFFFFFFFFFFFFFFFFFF AND DUP2 MSTORE POP SWAP1 DUP1 PUSH1 0x1 DUP2 SLOAD ADD DUP1 DUP3 SSTORE DUP1 SWAP2 POP POP PUSH1 0x1 SWAP1 SUB SWAP1 PUSH1 0x0 MSTORE PUSH1 0x20 PUSH1 0x0 KECCAK256 SWAP1 PUSH1 0x5 MUL ADD PUSH1 0x0 SWAP1 SWAP2 SWAP1 SWAP2 SWAP1 SWAP2 POP PUSH1 0x0 DUP3 ADD MLOAD DUP2 PUSH1 0x0 ADD SSTORE PUSH1 0x20 DUP3 ADD MLOAD DUP2 PUSH1 0x1 ADD SSTORE PUSH1 0x40 DUP3 ADD MLOAD DUP2 PUSH1 0x2 ADD SSTORE PUSH1 0x60 DUP3 ADD MLOAD DUP2 PUSH1 0x3 ADD PUSH1 0x0 PUSH2 0x100 EXP DUP2 SLOAD DUP2 PUSH20 0xFFFFFFFFFFFFFFFFFFFFFFFFFFFFFFFFFFFFFFFF MUL NOT AND SWAP1 DUP4 PUSH20 0xFFFFFFFFFFFFFFFFFFFFFFFFFFFFFFFFFFFFFFFF AND MUL OR SWAP1 SSTORE POP PUSH1 0x80 DUP3 ADD MLOAD DUP2 PUSH1 0x4 ADD PUSH1 0x0 PUSH2 0x100 EXP DUP2 SLOAD DUP2 PUSH20 0xFFFFFFFFFFFFFFFFFFFFFFFFFFFFFFFFFFFFFFFF MUL NOT AND SWAP1 DUP4 PUSH20 0xFFFFFFFFFFFFFFFFFFFFFFFFFFFFFFFFFFFFFFFF AND MUL OR SWAP1 SSTORE POP POP POP PUSH2 0x11A9 DUP7 DUP7 DUP10 PUSH2 0x39CC JUMP JUMPDEST POP POP POP POP POP POP POP JUMP JUMPDEST PUSH1 0x6 PUSH1 0x20 MSTORE DUP2 PUSH1 0x0 MSTORE PUSH1 0x40 PUSH1 0x0 KECCAK256 DUP2 DUP2 SLOAD DUP2 LT PUSH2 0x11CE JUMPI PUSH1 0x0 DUP1 REVERT JUMPDEST SWAP1 PUSH1 0x0 MSTORE PUSH1 0x20 PUSH1 0x0 KECCAK256 SWAP1 PUSH1 0x5 MUL ADD PUSH1 0x0 SWAP2 POP SWAP2 POP POP DUP1 PUSH1 0x0 ADD SLOAD SWAP1 DUP1 PUSH1 0x1 ADD SLOAD SWAP1 DUP1 PUSH1 0x2 ADD SLOAD SWAP1 DUP1 PUSH1 0x3 ADD PUSH1 0x0 SWAP1 SLOAD SWAP1 PUSH2 0x100 EXP SWAP1 DIV PUSH20 0xFFFFFFFFFFFFFFFFFFFFFFFFFFFFFFFFFFFFFFFF AND SWAP1 DUP1 PUSH1 0x4 ADD PUSH1 0x0 SWAP1 SLOAD SWAP1 PUSH2 0x100 EXP SWAP1 DIV PUSH20 0xFFFFFFFFFFFFFFFFFFFFFFFFFFFFFFFFFFFFFFFF AND SWAP1 POP DUP6 JUMP JUMPDEST PUSH2 0x124D PUSH2 0x3B4F JUMP JUMPDEST PUSH20 0xFFFFFFFFFFFFFFFFFFFFFFFFFFFFFFFFFFFFFFFF AND PUSH2 0x126B PUSH2 0x22E0 JUMP JUMPDEST PUSH20 0xFFFFFFFFFFFFFFFFFFFFFFFFFFFFFFFFFFFFFFFF AND EQ PUSH2 0x12C1 JUMPI PUSH1 0x40 MLOAD PUSH32 0x8C379A000000000000000000000000000000000000000000000000000000000 DUP2 MSTORE PUSH1 0x4 ADD PUSH2 0x12B8 SWAP1 PUSH2 0x4E1B JUMP JUMPDEST PUSH1 0x40 MLOAD DUP1 SWAP2 SUB SWAP1 REVERT JUMPDEST PUSH1 0x0 PUSH2 0x12CB PUSH2 0x22E0 JUMP JUMPDEST PUSH20 0xFFFFFFFFFFFFFFFFFFFFFFFFFFFFFFFFFFFFFFFF AND SELFBALANCE PUSH1 0x40 MLOAD PUSH2 0x12EE SWAP1 PUSH2 0x4CD9 JUMP JUMPDEST PUSH1 0x0 PUSH1 0x40 MLOAD DUP1 DUP4 SUB DUP2 DUP6 DUP8 GAS CALL SWAP3 POP POP POP RETURNDATASIZE DUP1 PUSH1 0x0 DUP2 EQ PUSH2 0x132B JUMPI PUSH1 0x40 MLOAD SWAP2 POP PUSH1 0x1F NOT PUSH1 0x3F RETURNDATASIZE ADD AND DUP3 ADD PUSH1 0x40 MSTORE RETURNDATASIZE DUP3 MSTORE RETURNDATASIZE PUSH1 0x0 PUSH1 0x20 DUP5 ADD RETURNDATACOPY PUSH2 0x1330 JUMP JUMPDEST PUSH1 0x60 SWAP2 POP JUMPDEST POP POP SWAP1 POP DUP1 PUSH2 0x1374 JUMPI PUSH1 0x40 MLOAD PUSH32 0x8C379A000000000000000000000000000000000000000000000000000000000 DUP2 MSTORE PUSH1 0x4 ADD PUSH2 0x136B SWAP1 PUSH2 0x4D5B JUMP JUMPDEST PUSH1 0x40 MLOAD DUP1 SWAP2 SUB SWAP1 REVERT JUMPDEST POP JUMP JUMPDEST PUSH1 0x0 PUSH1 0x60 PUSH1 0x0 CALLER SWAP1 POP PUSH1 0x0 PUSH1 0x7 DUP1 SLOAD SWAP1 POP PUSH8 0xFFFFFFFFFFFFFFFF DUP2 GT ISZERO PUSH2 0x13A1 JUMPI PUSH2 0x13A0 PUSH2 0x5441 JUMP JUMPDEST JUMPDEST PUSH1 0x40 MLOAD SWAP1 DUP1 DUP3 MSTORE DUP1 PUSH1 0x20 MUL PUSH1 0x20 ADD DUP3 ADD PUSH1 0x40 MSTORE DUP1 ISZERO PUSH2 0x13DA JUMPI DUP2 PUSH1 0x20 ADD JUMPDEST PUSH2 0x13C7 PUSH2 0x3F81 JUMP JUMPDEST DUP2 MSTORE PUSH1 0x20 ADD SWAP1 PUSH1 0x1 SWAP1 SUB SWAP1 DUP2 PUSH2 0x13BF JUMPI SWAP1 POP JUMPDEST POP SWAP1 POP PUSH1 0x0 DUP1 DUP8 SWAP1 POP JUMPDEST PUSH1 0x7 DUP1 SLOAD SWAP1 POP DUP2 LT DUP1 ISZERO PUSH2 0x13F7 JUMPI POP DUP7 DUP3 LT JUMPDEST ISZERO PUSH2 0x17EA JUMPI DUP4 PUSH20 0xFFFFFFFFFFFFFFFFFFFFFFFFFFFFFFFFFFFFFFFF AND PUSH1 0x7 DUP3 DUP2 SLOAD DUP2 LT PUSH2 0x1427 JUMPI PUSH2 0x1426 PUSH2 0x5412 JUMP JUMPDEST JUMPDEST SWAP1 PUSH1 0x0 MSTORE PUSH1 0x20 PUSH1 0x0 KECCAK256 SWAP1 PUSH1 0x7 MUL ADD PUSH1 0x1 ADD PUSH1 0x0 SWAP1 SLOAD SWAP1 PUSH2 0x100 EXP SWAP1 DIV PUSH20 0xFFFFFFFFFFFFFFFFFFFFFFFFFFFFFFFFFFFFFFFF AND PUSH20 0xFFFFFFFFFFFFFFFFFFFFFFFFFFFFFFFFFFFFFFFF AND EQ ISZERO PUSH2 0x17D7 JUMPI PUSH1 0x7 DUP2 DUP2 SLOAD DUP2 LT PUSH2 0x1489 JUMPI PUSH2 0x1488 PUSH2 0x5412 JUMP JUMPDEST JUMPDEST SWAP1 PUSH1 0x0 MSTORE PUSH1 0x20 PUSH1 0x0 KECCAK256 SWAP1 PUSH1 0x7 MUL ADD PUSH1 0x40 MLOAD DUP1 PUSH1 0xE0 ADD PUSH1 0x40 MSTORE SWAP1 DUP2 PUSH1 0x0 DUP3 ADD SLOAD DUP2 MSTORE PUSH1 0x20 ADD PUSH1 0x1 DUP3 ADD PUSH1 0x0 SWAP1 SLOAD SWAP1 PUSH2 0x100 EXP SWAP1 DIV PUSH20 0xFFFFFFFFFFFFFFFFFFFFFFFFFFFFFFFFFFFFFFFF AND PUSH20 0xFFFFFFFFFFFFFFFFFFFFFFFFFFFFFFFFFFFFFFFF AND PUSH20 0xFFFFFFFFFFFFFFFFFFFFFFFFFFFFFFFFFFFFFFFF AND DUP2 MSTORE PUSH1 0x20 ADD PUSH1 0x2 DUP3 ADD DUP1 SLOAD PUSH2 0x1512 SWAP1 PUSH2 0x52D9 JUMP JUMPDEST DUP1 PUSH1 0x1F ADD PUSH1 0x20 DUP1 SWAP2 DIV MUL PUSH1 0x20 ADD PUSH1 0x40 MLOAD SWAP1 DUP2 ADD PUSH1 0x40 MSTORE DUP1 SWAP3 SWAP2 SWAP1 DUP2 DUP2 MSTORE PUSH1 0x20 ADD DUP3 DUP1 SLOAD PUSH2 0x153E SWAP1 PUSH2 0x52D9 JUMP JUMPDEST DUP1 ISZERO PUSH2 0x158B JUMPI DUP1 PUSH1 0x1F LT PUSH2 0x1560 JUMPI PUSH2 0x100 DUP1 DUP4 SLOAD DIV MUL DUP4 MSTORE SWAP2 PUSH1 0x20 ADD SWAP2 PUSH2 0x158B JUMP JUMPDEST DUP3 ADD SWAP2 SWAP1 PUSH1 0x0 MSTORE PUSH1 0x20 PUSH1 0x0 KECCAK256 SWAP1 JUMPDEST DUP2 SLOAD DUP2 MSTORE SWAP1 PUSH1 0x1 ADD SWAP1 PUSH1 0x20 ADD DUP1 DUP4 GT PUSH2 0x156E JUMPI DUP3 SWAP1 SUB PUSH1 0x1F AND DUP3 ADD SWAP2 JUMPDEST POP POP POP POP POP DUP2 MSTORE PUSH1 0x20 ADD PUSH1 0x3 DUP3 ADD DUP1 SLOAD PUSH2 0x15A4 SWAP1 PUSH2 0x52D9 JUMP JUMPDEST DUP1 PUSH1 0x1F ADD PUSH1 0x20 DUP1 SWAP2 DIV MUL PUSH1 0x20 ADD PUSH1 0x40 MLOAD SWAP1 DUP2 ADD PUSH1 0x40 MSTORE DUP1 SWAP3 SWAP2 SWAP1 DUP2 DUP2 MSTORE PUSH1 0x20 ADD DUP3 DUP1 SLOAD PUSH2 0x15D0 SWAP1 PUSH2 0x52D9 JUMP JUMPDEST DUP1 ISZERO PUSH2 0x161D JUMPI DUP1 PUSH1 0x1F LT PUSH2 0x15F2 JUMPI PUSH2 0x100 DUP1 DUP4 SLOAD DIV MUL DUP4 MSTORE SWAP2 PUSH1 0x20 ADD SWAP2 PUSH2 0x161D JUMP JUMPDEST DUP3 ADD SWAP2 SWAP1 PUSH1 0x0 MSTORE PUSH1 0x20 PUSH1 0x0 KECCAK256 SWAP1 JUMPDEST DUP2 SLOAD DUP2 MSTORE SWAP1 PUSH1 0x1 ADD SWAP1 PUSH1 0x20 ADD DUP1 DUP4 GT PUSH2 0x1600 JUMPI DUP3 SWAP1 SUB PUSH1 0x1F AND DUP3 ADD SWAP2 JUMPDEST POP POP POP POP POP DUP2 MSTORE PUSH1 0x20 ADD PUSH1 0x4 DUP3 ADD DUP1 SLOAD PUSH2 0x1636 SWAP1 PUSH2 0x52D9 JUMP JUMPDEST DUP1 PUSH1 0x1F ADD PUSH1 0x20 DUP1 SWAP2 DIV MUL PUSH1 0x20 ADD PUSH1 0x40 MLOAD SWAP1 DUP2 ADD PUSH1 0x40 MSTORE DUP1 SWAP3 SWAP2 SWAP1 DUP2 DUP2 MSTORE PUSH1 0x20 ADD DUP3 DUP1 SLOAD PUSH2 0x1662 SWAP1 PUSH2 0x52D9 JUMP JUMPDEST DUP1 ISZERO PUSH2 0x16AF JUMPI DUP1 PUSH1 0x1F LT PUSH2 0x1684 JUMPI PUSH2 0x100 DUP1 DUP4 SLOAD DIV MUL DUP4 MSTORE SWAP2 PUSH1 0x20 ADD SWAP2 PUSH2 0x16AF JUMP JUMPDEST DUP3 ADD SWAP2 SWAP1 PUSH1 0x0 MSTORE PUSH1 0x20 PUSH1 0x0 KECCAK256 SWAP1 JUMPDEST DUP2 SLOAD DUP2 MSTORE SWAP1 PUSH1 0x1 ADD SWAP1 PUSH1 0x20 ADD DUP1 DUP4 GT PUSH2 0x1692 JUMPI DUP3 SWAP1 SUB PUSH1 0x1F AND DUP3 ADD SWAP2 JUMPDEST POP POP POP POP POP DUP2 MSTORE PUSH1 0x20 ADD PUSH1 0x5 DUP3 ADD DUP1 SLOAD DUP1 PUSH1 0x20 MUL PUSH1 0x20 ADD PUSH1 0x40 MLOAD SWAP1 DUP2 ADD PUSH1 0x40 MSTORE DUP1 SWAP3 SWAP2 SWAP1 DUP2 DUP2 MSTORE PUSH1 0x20 ADD PUSH1 0x0 SWAP1 JUMPDEST DUP3 DUP3 LT ISZERO PUSH2 0x1789 JUMPI DUP4 DUP3 SWAP1 PUSH1 0x0 MSTORE PUSH1 0x20 PUSH1 0x0 KECCAK256 ADD DUP1 SLOAD PUSH2 0x16FC SWAP1 PUSH2 0x52D9 JUMP JUMPDEST DUP1 PUSH1 0x1F ADD PUSH1 0x20 DUP1 SWAP2 DIV MUL PUSH1 0x20 ADD PUSH1 0x40 MLOAD SWAP1 DUP2 ADD PUSH1 0x40 MSTORE DUP1 SWAP3 SWAP2 SWAP1 DUP2 DUP2 MSTORE PUSH1 0x20 ADD DUP3 DUP1 SLOAD PUSH2 0x1728 SWAP1 PUSH2 0x52D9 JUMP JUMPDEST DUP1 ISZERO PUSH2 0x1775 JUMPI DUP1 PUSH1 0x1F LT PUSH2 0x174A JUMPI PUSH2 0x100 DUP1 DUP4 SLOAD DIV MUL DUP4 MSTORE SWAP2 PUSH1 0x20 ADD SWAP2 PUSH2 0x1775 JUMP JUMPDEST DUP3 ADD SWAP2 SWAP1 PUSH1 0x0 MSTORE PUSH1 0x20 PUSH1 0x0 KECCAK256 SWAP1 JUMPDEST DUP2 SLOAD DUP2 MSTORE SWAP1 PUSH1 0x1 ADD SWAP1 PUSH1 0x20 ADD DUP1 DUP4 GT PUSH2 0x1758 JUMPI DUP3 SWAP1 SUB PUSH1 0x1F AND DUP3 ADD SWAP2 JUMPDEST POP POP POP POP POP DUP2 MSTORE PUSH1 0x20 ADD SWAP1 PUSH1 0x1 ADD SWAP1 PUSH2 0x16DD JUMP JUMPDEST POP POP POP POP DUP2 MSTORE PUSH1 0x20 ADD PUSH1 0x6 DUP3 ADD PUSH1 0x0 SWAP1 SLOAD SWAP1 PUSH2 0x100 EXP SWAP1 DIV PUSH1 0xFF AND ISZERO ISZERO ISZERO ISZERO DUP2 MSTORE POP POP DUP4 DUP4 DUP1 PUSH2 0x17B8 SWAP1 PUSH2 0x533C JUMP JUMPDEST SWAP5 POP DUP2 MLOAD DUP2 LT PUSH2 0x17CB JUMPI PUSH2 0x17CA PUSH2 0x5412 JUMP JUMPDEST JUMPDEST PUSH1 0x20 MUL PUSH1 0x20 ADD ADD DUP2 SWAP1 MSTORE POP JUMPDEST DUP1 DUP1 PUSH2 0x17E2 SWAP1 PUSH2 0x533C JUMP JUMPDEST SWAP2 POP POP PUSH2 0x13E4 JUMP JUMPDEST DUP1 DUP4 SWAP6 POP SWAP6 POP POP POP POP POP SWAP3 POP SWAP3 SWAP1 POP JUMP JUMPDEST PUSH1 0x7 DUP2 DUP2 SLOAD DUP2 LT PUSH2 0x180F JUMPI PUSH2 0x180E PUSH2 0x5412 JUMP JUMPDEST JUMPDEST SWAP1 PUSH1 0x0 MSTORE PUSH1 0x20 PUSH1 0x0 KECCAK256 SWAP1 PUSH1 0x7 MUL ADD PUSH1 0x1 ADD PUSH1 0x0 SWAP1 SLOAD SWAP1 PUSH2 0x100 EXP SWAP1 DIV PUSH20 0xFFFFFFFFFFFFFFFFFFFFFFFFFFFFFFFFFFFFFFFF AND PUSH20 0xFFFFFFFFFFFFFFFFFFFFFFFFFFFFFFFFFFFFFFFF AND CALLER PUSH20 0xFFFFFFFFFFFFFFFFFFFFFFFFFFFFFFFFFFFFFFFF AND EQ DUP1 PUSH2 0x1900 JUMPI POP PUSH1 0x5 PUSH1 0x0 DUP5 PUSH20 0xFFFFFFFFFFFFFFFFFFFFFFFFFFFFFFFFFFFFFFFF AND PUSH20 0xFFFFFFFFFFFFFFFFFFFFFFFFFFFFFFFFFFFFFFFF AND DUP2 MSTORE PUSH1 0x20 ADD SWAP1 DUP2 MSTORE PUSH1 0x20 ADD PUSH1 0x0 KECCAK256 PUSH1 0x0 DUP4 PUSH20 0xFFFFFFFFFFFFFFFFFFFFFFFFFFFFFFFFFFFFFFFF AND PUSH20 0xFFFFFFFFFFFFFFFFFFFFFFFFFFFFFFFFFFFFFFFF AND DUP2 MSTORE PUSH1 0x20 ADD SWAP1 DUP2 MSTORE PUSH1 0x20 ADD PUSH1 0x0 KECCAK256 PUSH1 0x0 SWAP1 SLOAD SWAP1 PUSH2 0x100 EXP SWAP1 DIV PUSH1 0xFF AND JUMPDEST DUP1 PUSH2 0x1969 JUMPI POP DUP2 PUSH20 0xFFFFFFFFFFFFFFFFFFFFFFFFFFFFFFFFFFFFFFFF AND PUSH1 0x4 PUSH1 0x0 DUP4 DUP2 MSTORE PUSH1 0x20 ADD SWAP1 DUP2 MSTORE PUSH1 0x20 ADD PUSH1 0x0 KECCAK256 PUSH1 0x0 SWAP1 SLOAD SWAP1 PUSH2 0x100 EXP SWAP1 DIV PUSH20 0xFFFFFFFFFFFFFFFFFFFFFFFFFFFFFFFFFFFFFFFF AND PUSH20 0xFFFFFFFFFFFFFFFFFFFFFFFFFFFFFFFFFFFFFFFF AND EQ JUMPDEST PUSH2 0x19A8 JUMPI PUSH1 0x40 MLOAD PUSH32 0x8C379A000000000000000000000000000000000000000000000000000000000 DUP2 MSTORE PUSH1 0x4 ADD PUSH2 0x199F SWAP1 PUSH2 0x4DDB JUMP JUMPDEST PUSH1 0x40 MLOAD DUP1 SWAP2 SUB SWAP1 REVERT JUMPDEST PUSH1 0x0 PUSH20 0xFFFFFFFFFFFFFFFFFFFFFFFFFFFFFFFFFFFFFFFF AND DUP3 PUSH20 0xFFFFFFFFFFFFFFFFFFFFFFFFFFFFFFFFFFFFFFFF AND EQ ISZERO PUSH2 0x1A18 JUMPI PUSH1 0x40 MLOAD PUSH32 0x8C379A000000000000000000000000000000000000000000000000000000000 DUP2 MSTORE PUSH1 0x4 ADD PUSH2 0x1A0F SWAP1 PUSH2 0x4DFB JUMP JUMPDEST PUSH1 0x40 MLOAD DUP1 SWAP2 SUB SWAP1 REVERT JUMPDEST PUSH1 0x7 DUP2 DUP2 SLOAD DUP2 LT PUSH2 0x1A2C JUMPI PUSH2 0x1A2B PUSH2 0x5412 JUMP JUMPDEST JUMPDEST SWAP1 PUSH1 0x0 MSTORE PUSH1 0x20 PUSH1 0x0 KECCAK256 SWAP1 PUSH1 0x7 MUL ADD PUSH1 0x6 ADD PUSH1 0x0 SWAP1 SLOAD SWAP1 PUSH2 0x100 EXP SWAP1 DIV PUSH1 0xFF AND ISZERO PUSH2 0x1A60 JUMPI PUSH2 0x1A5B DUP2 DUP5 DUP5 PUSH2 0xE13 JUMP JUMPDEST PUSH2 0x1BEA JUMP JUMPDEST PUSH1 0x3 PUSH1 0x0 DUP5 PUSH20 0xFFFFFFFFFFFFFFFFFFFFFFFFFFFFFFFFFFFFFFFF AND PUSH20 0xFFFFFFFFFFFFFFFFFFFFFFFFFFFFFFFFFFFFFFFF AND DUP2 MSTORE PUSH1 0x20 ADD SWAP1 DUP2 MSTORE PUSH1 0x20 ADD PUSH1 0x0 KECCAK256 PUSH1 0x0 DUP3 DUP2 MSTORE PUSH1 0x20 ADD SWAP1 DUP2 MSTORE PUSH1 0x20 ADD PUSH1 0x0 KECCAK256 PUSH1 0x0 SWAP1 SLOAD SWAP1 PUSH2 0x100 EXP SWAP1 DIV PUSH1 0xFF AND PUSH1 0x3 PUSH1 0x0 DUP5 PUSH20 0xFFFFFFFFFFFFFFFFFFFFFFFFFFFFFFFFFFFFFFFF AND PUSH20 0xFFFFFFFFFFFFFFFFFFFFFFFFFFFFFFFFFFFFFFFF AND DUP2 MSTORE PUSH1 0x20 ADD SWAP1 DUP2 MSTORE PUSH1 0x20 ADD PUSH1 0x0 KECCAK256 PUSH1 0x0 DUP4 DUP2 MSTORE PUSH1 0x20 ADD SWAP1 DUP2 MSTORE PUSH1 0x20 ADD PUSH1 0x0 KECCAK256 PUSH1 0x0 PUSH2 0x100 EXP DUP2 SLOAD DUP2 PUSH1 0xFF MUL NOT AND SWAP1 DUP4 ISZERO ISZERO MUL OR SWAP1 SSTORE POP PUSH1 0x3 PUSH1 0x0 DUP5 PUSH20 0xFFFFFFFFFFFFFFFFFFFFFFFFFFFFFFFFFFFFFFFF AND PUSH20 0xFFFFFFFFFFFFFFFFFFFFFFFFFFFFFFFFFFFFFFFF AND DUP2 MSTORE PUSH1 0x20 ADD SWAP1 DUP2 MSTORE PUSH1 0x20 ADD PUSH1 0x0 KECCAK256 PUSH1 0x0 DUP3 DUP2 MSTORE PUSH1 0x20 ADD SWAP1 DUP2 MSTORE PUSH1 0x20 ADD PUSH1 0x0 KECCAK256 PUSH1 0x0 PUSH2 0x100 EXP DUP2 SLOAD SWAP1 PUSH1 0xFF MUL NOT AND SWAP1 SSTORE DUP2 PUSH1 0x7 DUP3 DUP2 SLOAD DUP2 LT PUSH2 0x1B9A JUMPI PUSH2 0x1B99 PUSH2 0x5412 JUMP JUMPDEST JUMPDEST SWAP1 PUSH1 0x0 MSTORE PUSH1 0x20 PUSH1 0x0 KECCAK256 SWAP1 PUSH1 0x7 MUL ADD PUSH1 0x1 ADD PUSH1 0x0 PUSH2 0x100 EXP DUP2 SLOAD DUP2 PUSH20 0xFFFFFFFFFFFFFFFFFFFFFFFFFFFFFFFFFFFFFFFF MUL NOT AND SWAP1 DUP4 PUSH20 0xFFFFFFFFFFFFFFFFFFFFFFFFFFFFFFFFFFFFFFFF AND MUL OR SWAP1 SSTORE POP JUMPDEST POP POP POP JUMP JUMPDEST PUSH1 0x0 DUP1 PUSH20 0xFFFFFFFFFFFFFFFFFFFFFFFFFFFFFFFFFFFFFFFF AND PUSH1 0x7 DUP4 DUP2 SLOAD DUP2 LT PUSH2 0x1C1C JUMPI PUSH2 0x1C1B PUSH2 0x5412 JUMP JUMPDEST JUMPDEST SWAP1 PUSH1 0x0 MSTORE PUSH1 0x20 PUSH1 0x0 KECCAK256 SWAP1 PUSH1 0x7 MUL ADD PUSH1 0x1 ADD PUSH1 0x0 SWAP1 SLOAD SWAP1 PUSH2 0x100 EXP SWAP1 DIV PUSH20 0xFFFFFFFFFFFFFFFFFFFFFFFFFFFFFFFFFFFFFFFF AND PUSH20 0xFFFFFFFFFFFFFFFFFFFFFFFFFFFFFFFFFFFFFFFF AND EQ ISZERO PUSH2 0x1CA5 JUMPI PUSH1 0x40 MLOAD PUSH32 0x8C379A000000000000000000000000000000000000000000000000000000000 DUP2 MSTORE PUSH1 0x4 ADD PUSH2 0x1C9C SWAP1 PUSH2 0x4E5B JUMP JUMPDEST PUSH1 0x40 MLOAD DUP1 SWAP2 SUB SWAP1 REVERT JUMPDEST PUSH1 0x7 DUP3 DUP2 SLOAD DUP2 LT PUSH2 0x1CB9 JUMPI PUSH2 0x1CB8 PUSH2 0x5412 JUMP JUMPDEST JUMPDEST SWAP1 PUSH1 0x0 MSTORE PUSH1 0x20 PUSH1 0x0 KECCAK256 SWAP1 PUSH1 0x7 MUL ADD PUSH1 0x1 ADD PUSH1 0x0 SWAP1 SLOAD SWAP1 PUSH2 0x100 EXP SWAP1 DIV PUSH20 0xFFFFFFFFFFFFFFFFFFFFFFFFFFFFFFFFFFFFFFFF AND SWAP1 POP SWAP2 SWAP1 POP JUMP JUMPDEST PUSH1 0x0 PUSH1 0x60 PUSH1 0x0 DUP4 PUSH8 0xFFFFFFFFFFFFFFFF DUP2 GT ISZERO PUSH2 0x1D12 JUMPI PUSH2 0x1D11 PUSH2 0x5441 JUMP JUMPDEST JUMPDEST PUSH1 0x40 MLOAD SWAP1 DUP1 DUP3 MSTORE DUP1 PUSH1 0x20 MUL PUSH1 0x20 ADD DUP3 ADD PUSH1 0x40 MSTORE DUP1 ISZERO PUSH2 0x1D4B JUMPI DUP2 PUSH1 0x20 ADD JUMPDEST PUSH2 0x1D38 PUSH2 0x3F81 JUMP JUMPDEST DUP2 MSTORE PUSH1 0x20 ADD SWAP1 PUSH1 0x1 SWAP1 SUB SWAP1 DUP2 PUSH2 0x1D30 JUMPI SWAP1 POP JUMPDEST POP SWAP1 POP PUSH1 0x0 DUP1 DUP7 SWAP1 POP JUMPDEST PUSH1 0x7 DUP1 SLOAD SWAP1 POP DUP2 LT DUP1 ISZERO PUSH2 0x1D68 JUMPI POP DUP6 DUP3 LT JUMPDEST ISZERO PUSH2 0x2121 JUMPI PUSH1 0x1 ISZERO ISZERO PUSH1 0x7 DUP3 DUP2 SLOAD DUP2 LT PUSH2 0x1D85 JUMPI PUSH2 0x1D84 PUSH2 0x5412 JUMP JUMPDEST JUMPDEST SWAP1 PUSH1 0x0 MSTORE PUSH1 0x20 PUSH1 0x0 KECCAK256 SWAP1 PUSH1 0x7 MUL ADD PUSH1 0x6 ADD PUSH1 0x0 SWAP1 SLOAD SWAP1 PUSH2 0x100 EXP SWAP1 DIV PUSH1 0xFF AND ISZERO ISZERO EQ ISZERO PUSH2 0x210E JUMPI PUSH1 0x7 DUP2 DUP2 SLOAD DUP2 LT PUSH2 0x1DC0 JUMPI PUSH2 0x1DBF PUSH2 0x5412 JUMP JUMPDEST JUMPDEST SWAP1 PUSH1 0x0 MSTORE PUSH1 0x20 PUSH1 0x0 KECCAK256 SWAP1 PUSH1 0x7 MUL ADD PUSH1 0x40 MLOAD DUP1 PUSH1 0xE0 ADD PUSH1 0x40 MSTORE SWAP1 DUP2 PUSH1 0x0 DUP3 ADD SLOAD DUP2 MSTORE PUSH1 0x20 ADD PUSH1 0x1 DUP3 ADD PUSH1 0x0 SWAP1 SLOAD SWAP1 PUSH2 0x100 EXP SWAP1 DIV PUSH20 0xFFFFFFFFFFFFFFFFFFFFFFFFFFFFFFFFFFFFFFFF AND PUSH20 0xFFFFFFFFFFFFFFFFFFFFFFFFFFFFFFFFFFFFFFFF AND PUSH20 0xFFFFFFFFFFFFFFFFFFFFFFFFFFFFFFFFFFFFFFFF AND DUP2 MSTORE PUSH1 0x20 ADD PUSH1 0x2 DUP3 ADD DUP1 SLOAD PUSH2 0x1E49 SWAP1 PUSH2 0x52D9 JUMP JUMPDEST DUP1 PUSH1 0x1F ADD PUSH1 0x20 DUP1 SWAP2 DIV MUL PUSH1 0x20 ADD PUSH1 0x40 MLOAD SWAP1 DUP2 ADD PUSH1 0x40 MSTORE DUP1 SWAP3 SWAP2 SWAP1 DUP2 DUP2 MSTORE PUSH1 0x20 ADD DUP3 DUP1 SLOAD PUSH2 0x1E75 SWAP1 PUSH2 0x52D9 JUMP JUMPDEST DUP1 ISZERO PUSH2 0x1EC2 JUMPI DUP1 PUSH1 0x1F LT PUSH2 0x1E97 JUMPI PUSH2 0x100 DUP1 DUP4 SLOAD DIV MUL DUP4 MSTORE SWAP2 PUSH1 0x20 ADD SWAP2 PUSH2 0x1EC2 JUMP JUMPDEST DUP3 ADD SWAP2 SWAP1 PUSH1 0x0 MSTORE PUSH1 0x20 PUSH1 0x0 KECCAK256 SWAP1 JUMPDEST DUP2 SLOAD DUP2 MSTORE SWAP1 PUSH1 0x1 ADD SWAP1 PUSH1 0x20 ADD DUP1 DUP4 GT PUSH2 0x1EA5 JUMPI DUP3 SWAP1 SUB PUSH1 0x1F AND DUP3 ADD SWAP2 JUMPDEST POP POP POP POP POP DUP2 MSTORE PUSH1 0x20 ADD PUSH1 0x3 DUP3 ADD DUP1 SLOAD PUSH2 0x1EDB SWAP1 PUSH2 0x52D9 JUMP JUMPDEST DUP1 PUSH1 0x1F ADD PUSH1 0x20 DUP1 SWAP2 DIV MUL PUSH1 0x20 ADD PUSH1 0x40 MLOAD SWAP1 DUP2 ADD PUSH1 0x40 MSTORE DUP1 SWAP3 SWAP2 SWAP1 DUP2 DUP2 MSTORE PUSH1 0x20 ADD DUP3 DUP1 SLOAD PUSH2 0x1F07 SWAP1 PUSH2 0x52D9 JUMP JUMPDEST DUP1 ISZERO PUSH2 0x1F54 JUMPI DUP1 PUSH1 0x1F LT PUSH2 0x1F29 JUMPI PUSH2 0x100 DUP1 DUP4 SLOAD DIV MUL DUP4 MSTORE SWAP2 PUSH1 0x20 ADD SWAP2 PUSH2 0x1F54 JUMP JUMPDEST DUP3 ADD SWAP2 SWAP1 PUSH1 0x0 MSTORE PUSH1 0x20 PUSH1 0x0 KECCAK256 SWAP1 JUMPDEST DUP2 SLOAD DUP2 MSTORE SWAP1 PUSH1 0x1 ADD SWAP1 PUSH1 0x20 ADD DUP1 DUP4 GT PUSH2 0x1F37 JUMPI DUP3 SWAP1 SUB PUSH1 0x1F AND DUP3 ADD SWAP2 JUMPDEST POP POP POP POP POP DUP2 MSTORE PUSH1 0x20 ADD PUSH1 0x4 DUP3 ADD DUP1 SLOAD PUSH2 0x1F6D SWAP1 PUSH2 0x52D9 JUMP JUMPDEST DUP1 PUSH1 0x1F ADD PUSH1 0x20 DUP1 SWAP2 DIV MUL PUSH1 0x20 ADD PUSH1 0x40 MLOAD SWAP1 DUP2 ADD PUSH1 0x40 MSTORE DUP1 SWAP3 SWAP2 SWAP1 DUP2 DUP2 MSTORE PUSH1 0x20 ADD DUP3 DUP1 SLOAD PUSH2 0x1F99 SWAP1 PUSH2 0x52D9 JUMP JUMPDEST DUP1 ISZERO PUSH2 0x1FE6 JUMPI DUP1 PUSH1 0x1F LT PUSH2 0x1FBB JUMPI PUSH2 0x100 DUP1 DUP4 SLOAD DIV MUL DUP4 MSTORE SWAP2 PUSH1 0x20 ADD SWAP2 PUSH2 0x1FE6 JUMP JUMPDEST DUP3 ADD SWAP2 SWAP1 PUSH1 0x0 MSTORE PUSH1 0x20 PUSH1 0x0 KECCAK256 SWAP1 JUMPDEST DUP2 SLOAD DUP2 MSTORE SWAP1 PUSH1 0x1 ADD SWAP1 PUSH1 0x20 ADD DUP1 DUP4 GT PUSH2 0x1FC9 JUMPI DUP3 SWAP1 SUB PUSH1 0x1F AND DUP3 ADD SWAP2 JUMPDEST POP POP POP POP POP DUP2 MSTORE PUSH1 0x20 ADD PUSH1 0x5 DUP3 ADD DUP1 SLOAD DUP1 PUSH1 0x20 MUL PUSH1 0x20 ADD PUSH1 0x40 MLOAD SWAP1 DUP2 ADD PUSH1 0x40 MSTORE DUP1 SWAP3 SWAP2 SWAP1 DUP2 DUP2 MSTORE PUSH1 0x20 ADD PUSH1 0x0 SWAP1 JUMPDEST DUP3 DUP3 LT ISZERO PUSH2 0x20C0 JUMPI DUP4 DUP3 SWAP1 PUSH1 0x0 MSTORE PUSH1 0x20 PUSH1 0x0 KECCAK256 ADD DUP1 SLOAD PUSH2 0x2033 SWAP1 PUSH2 0x52D9 JUMP JUMPDEST DUP1 PUSH1 0x1F ADD PUSH1 0x20 DUP1 SWAP2 DIV MUL PUSH1 0x20 ADD PUSH1 0x40 MLOAD SWAP1 DUP2 ADD PUSH1 0x40 MSTORE DUP1 SWAP3 SWAP2 SWAP1 DUP2 DUP2 MSTORE PUSH1 0x20 ADD DUP3 DUP1 SLOAD PUSH2 0x205F SWAP1 PUSH2 0x52D9 JUMP JUMPDEST DUP1 ISZERO PUSH2 0x20AC JUMPI DUP1 PUSH1 0x1F LT PUSH2 0x2081 JUMPI PUSH2 0x100 DUP1 DUP4 SLOAD DIV MUL DUP4 MSTORE SWAP2 PUSH1 0x20 ADD SWAP2 PUSH2 0x20AC JUMP JUMPDEST DUP3 ADD SWAP2 SWAP1 PUSH1 0x0 MSTORE PUSH1 0x20 PUSH1 0x0 KECCAK256 SWAP1 JUMPDEST DUP2 SLOAD DUP2 MSTORE SWAP1 PUSH1 0x1 ADD SWAP1 PUSH1 0x20 ADD DUP1 DUP4 GT PUSH2 0x208F JUMPI DUP3 SWAP1 SUB PUSH1 0x1F AND DUP3 ADD SWAP2 JUMPDEST POP POP POP POP POP DUP2 MSTORE PUSH1 0x20 ADD SWAP1 PUSH1 0x1 ADD SWAP1 PUSH2 0x2014 JUMP JUMPDEST POP POP POP POP DUP2 MSTORE PUSH1 0x20 ADD PUSH1 0x6 DUP3 ADD PUSH1 0x0 SWAP1 SLOAD SWAP1 PUSH2 0x100 EXP SWAP1 DIV PUSH1 0xFF AND ISZERO ISZERO ISZERO ISZERO DUP2 MSTORE POP POP DUP4 DUP4 DUP1 PUSH2 0x20EF SWAP1 PUSH2 0x533C JUMP JUMPDEST SWAP5 POP DUP2 MLOAD DUP2 LT PUSH2 0x2102 JUMPI PUSH2 0x2101 PUSH2 0x5412 JUMP JUMPDEST JUMPDEST PUSH1 0x20 MUL PUSH1 0x20 ADD ADD DUP2 SWAP1 MSTORE POP JUMPDEST DUP1 DUP1 PUSH2 0x2119 SWAP1 PUSH2 0x533C JUMP JUMPDEST SWAP2 POP POP PUSH2 0x1D55 JUMP JUMPDEST DUP1 DUP4 SWAP5 POP SWAP5 POP POP POP POP SWAP3 POP SWAP3 SWAP1 POP JUMP JUMPDEST PUSH1 0x0 DUP1 PUSH20 0xFFFFFFFFFFFFFFFFFFFFFFFFFFFFFFFFFFFFFFFF AND DUP3 PUSH20 0xFFFFFFFFFFFFFFFFFFFFFFFFFFFFFFFFFFFFFFFF AND EQ ISZERO PUSH2 0x21A2 JUMPI PUSH1 0x40 MLOAD PUSH32 0x8C379A000000000000000000000000000000000000000000000000000000000 DUP2 MSTORE PUSH1 0x4 ADD PUSH2 0x2199 SWAP1 PUSH2 0x4E3B JUMP JUMPDEST PUSH1 0x40 MLOAD DUP1 SWAP2 SUB SWAP1 REVERT JUMPDEST PUSH1 0x0 DUP1 JUMPDEST PUSH1 0x7 DUP1 SLOAD SWAP1 POP DUP2 LT ISZERO PUSH2 0x224E JUMPI DUP4 PUSH20 0xFFFFFFFFFFFFFFFFFFFFFFFFFFFFFFFFFFFFFFFF AND PUSH1 0x7 DUP3 DUP2 SLOAD DUP2 LT PUSH2 0x21DE JUMPI PUSH2 0x21DD PUSH2 0x5412 JUMP JUMPDEST JUMPDEST SWAP1 PUSH1 0x0 MSTORE PUSH1 0x20 PUSH1 0x0 KECCAK256 SWAP1 PUSH1 0x7 MUL ADD PUSH1 0x1 ADD PUSH1 0x0 SWAP1 SLOAD SWAP1 PUSH2 0x100 EXP SWAP1 DIV PUSH20 0xFFFFFFFFFFFFFFFFFFFFFFFFFFFFFFFFFFFFFFFF AND PUSH20 0xFFFFFFFFFFFFFFFFFFFFFFFFFFFFFFFFFFFFFFFF AND EQ ISZERO PUSH2 0x223B JUMPI DUP2 DUP1 PUSH2 0x2237 SWAP1 PUSH2 0x533C JUMP JUMPDEST SWAP3 POP POP JUMPDEST DUP1 DUP1 PUSH2 0x2246 SWAP1 PUSH2 0x533C JUMP JUMPDEST SWAP2 POP POP PUSH2 0x21A6 JUMP JUMPDEST POP DUP1 SWAP2 POP POP SWAP2 SWAP1 POP JUMP JUMPDEST PUSH2 0x2260 PUSH2 0x3B4F JUMP JUMPDEST PUSH20 0xFFFFFFFFFFFFFFFFFFFFFFFFFFFFFFFFFFFFFFFF AND PUSH2 0x227E PUSH2 0x22E0 JUMP JUMPDEST PUSH20 0xFFFFFFFFFFFFFFFFFFFFFFFFFFFFFFFFFFFFFFFF AND EQ PUSH2 0x22D4 JUMPI PUSH1 0x40 MLOAD PUSH32 0x8C379A000000000000000000000000000000000000000000000000000000000 DUP2 MSTORE PUSH1 0x4 ADD PUSH2 0x22CB SWAP1 PUSH2 0x4E1B JUMP JUMPDEST PUSH1 0x40 MLOAD DUP1 SWAP2 SUB SWAP1 REVERT JUMPDEST PUSH2 0x22DE PUSH1 0x0 PUSH2 0x3B57 JUMP JUMPDEST JUMP JUMPDEST PUSH1 0x0 DUP1 PUSH1 0x0 SWAP1 SLOAD SWAP1 PUSH2 0x100 EXP SWAP1 DIV PUSH20 0xFFFFFFFFFFFFFFFFFFFFFFFFFFFFFFFFFFFFFFFF AND SWAP1 POP SWAP1 JUMP JUMPDEST PUSH1 0x0 PUSH1 0x60 PUSH1 0x0 PUSH1 0x7 DUP1 SLOAD SWAP1 POP PUSH8 0xFFFFFFFFFFFFFFFF DUP2 GT ISZERO PUSH2 0x232E JUMPI PUSH2 0x232D PUSH2 0x5441 JUMP JUMPDEST JUMPDEST PUSH1 0x40 MLOAD SWAP1 DUP1 DUP3 MSTORE DUP1 PUSH1 0x20 MUL PUSH1 0x20 ADD DUP3 ADD PUSH1 0x40 MSTORE DUP1 ISZERO PUSH2 0x2367 JUMPI DUP2 PUSH1 0x20 ADD JUMPDEST PUSH2 0x2354 PUSH2 0x3F81 JUMP JUMPDEST DUP2 MSTORE PUSH1 0x20 ADD SWAP1 PUSH1 0x1 SWAP1 SUB SWAP1 DUP2 PUSH2 0x234C JUMPI SWAP1 POP JUMPDEST POP SWAP1 POP PUSH1 0x0 DUP1 DUP7 SWAP1 POP JUMPDEST PUSH1 0x7 DUP1 SLOAD SWAP1 POP DUP2 LT DUP1 ISZERO PUSH2 0x2384 JUMPI POP DUP6 DUP3 LT JUMPDEST ISZERO PUSH2 0x2B41 JUMPI PUSH1 0x7 DUP2 DUP2 SLOAD DUP2 LT PUSH2 0x239D JUMPI PUSH2 0x239C PUSH2 0x5412 JUMP JUMPDEST JUMPDEST SWAP1 PUSH1 0x0 MSTORE PUSH1 0x20 PUSH1 0x0 KECCAK256 SWAP1 PUSH1 0x7 MUL ADD PUSH1 0x6 ADD PUSH1 0x0 SWAP1 SLOAD SWAP1 PUSH2 0x100 EXP SWAP1 DIV PUSH1 0xFF AND PUSH2 0x23C5 JUMPI PUSH2 0x2B2E JUMP JUMPDEST PUSH1 0x0 PUSH1 0x1 SWAP1 POP PUSH1 0x0 DUP12 PUSH1 0x40 MLOAD PUSH1 0x20 ADD PUSH2 0x23DE SWAP2 SWAP1 PUSH2 0x4CC2 JUMP JUMPDEST PUSH1 0x40 MLOAD PUSH1 0x20 DUP2 DUP4 SUB SUB DUP2 MSTORE SWAP1 PUSH1 0x40 MSTORE DUP1 MLOAD SWAP1 PUSH1 0x20 ADD KECCAK256 SWAP1 POP PUSH1 0x40 MLOAD PUSH1 0x20 ADD PUSH2 0x2405 SWAP1 PUSH2 0x4CEE JUMP JUMPDEST PUSH1 0x40 MLOAD PUSH1 0x20 DUP2 DUP4 SUB SUB DUP2 MSTORE SWAP1 PUSH1 0x40 MSTORE DUP1 MLOAD SWAP1 PUSH1 0x20 ADD KECCAK256 DUP2 EQ PUSH2 0x2596 JUMPI PUSH1 0x0 PUSH1 0x7 DUP5 DUP2 SLOAD DUP2 LT PUSH2 0x2437 JUMPI PUSH2 0x2436 PUSH2 0x5412 JUMP JUMPDEST JUMPDEST SWAP1 PUSH1 0x0 MSTORE PUSH1 0x20 PUSH1 0x0 KECCAK256 SWAP1 PUSH1 0x7 MUL ADD PUSH1 0x5 ADD DUP1 SLOAD DUP1 PUSH1 0x20 MUL PUSH1 0x20 ADD PUSH1 0x40 MLOAD SWAP1 DUP2 ADD PUSH1 0x40 MSTORE DUP1 SWAP3 SWAP2 SWAP1 DUP2 DUP2 MSTORE PUSH1 0x20 ADD PUSH1 0x0 SWAP1 JUMPDEST DUP3 DUP3 LT ISZERO PUSH2 0x2514 JUMPI DUP4 DUP3 SWAP1 PUSH1 0x0 MSTORE PUSH1 0x20 PUSH1 0x0 KECCAK256 ADD DUP1 SLOAD PUSH2 0x2487 SWAP1 PUSH2 0x52D9 JUMP JUMPDEST DUP1 PUSH1 0x1F ADD PUSH1 0x20 DUP1 SWAP2 DIV MUL PUSH1 0x20 ADD PUSH1 0x40 MLOAD SWAP1 DUP2 ADD PUSH1 0x40 MSTORE DUP1 SWAP3 SWAP2 SWAP1 DUP2 DUP2 MSTORE PUSH1 0x20 ADD DUP3 DUP1 SLOAD PUSH2 0x24B3 SWAP1 PUSH2 0x52D9 JUMP JUMPDEST DUP1 ISZERO PUSH2 0x2500 JUMPI DUP1 PUSH1 0x1F LT PUSH2 0x24D5 JUMPI PUSH2 0x100 DUP1 DUP4 SLOAD DIV MUL DUP4 MSTORE SWAP2 PUSH1 0x20 ADD SWAP2 PUSH2 0x2500 JUMP JUMPDEST DUP3 ADD SWAP2 SWAP1 PUSH1 0x0 MSTORE PUSH1 0x20 PUSH1 0x0 KECCAK256 SWAP1 JUMPDEST DUP2 SLOAD DUP2 MSTORE SWAP1 PUSH1 0x1 ADD SWAP1 PUSH1 0x20 ADD DUP1 DUP4 GT PUSH2 0x24E3 JUMPI DUP3 SWAP1 SUB PUSH1 0x1F AND DUP3 ADD SWAP2 JUMPDEST POP POP POP POP POP DUP2 MSTORE PUSH1 0x20 ADD SWAP1 PUSH1 0x1 ADD SWAP1 PUSH2 0x2468 JUMP JUMPDEST POP POP POP POP SWAP1 POP PUSH1 0x0 JUMPDEST DUP2 MLOAD DUP2 LT ISZERO PUSH2 0x2586 JUMPI DUP2 DUP2 DUP2 MLOAD DUP2 LT PUSH2 0x2539 JUMPI PUSH2 0x2538 PUSH2 0x5412 JUMP JUMPDEST JUMPDEST PUSH1 0x20 MUL PUSH1 0x20 ADD ADD MLOAD PUSH1 0x40 MLOAD PUSH1 0x20 ADD PUSH2 0x2551 SWAP2 SWAP1 PUSH2 0x4CC2 JUMP JUMPDEST PUSH1 0x40 MLOAD PUSH1 0x20 DUP2 DUP4 SUB SUB DUP2 MSTORE SWAP1 PUSH1 0x40 MSTORE DUP1 MLOAD SWAP1 PUSH1 0x20 ADD KECCAK256 DUP4 EQ ISZERO PUSH2 0x2573 JUMPI PUSH2 0x2586 JUMP JUMPDEST DUP1 DUP1 PUSH2 0x257E SWAP1 PUSH2 0x533C JUMP JUMPDEST SWAP2 POP POP PUSH2 0x251D JUMP JUMPDEST DUP2 MLOAD DUP2 LT PUSH2 0x2593 JUMPI PUSH1 0x0 SWAP4 POP JUMPDEST POP POP JUMPDEST DUP2 DUP1 ISZERO PUSH2 0x264B JUMPI POP PUSH1 0x0 PUSH20 0xFFFFFFFFFFFFFFFFFFFFFFFFFFFFFFFFFFFFFFFF AND DUP12 PUSH20 0xFFFFFFFFFFFFFFFFFFFFFFFFFFFFFFFFFFFFFFFF AND EQ ISZERO DUP1 PUSH2 0x264A JUMPI POP PUSH1 0x7 DUP4 DUP2 SLOAD DUP2 LT PUSH2 0x25E9 JUMPI PUSH2 0x25E8 PUSH2 0x5412 JUMP JUMPDEST JUMPDEST SWAP1 PUSH1 0x0 MSTORE PUSH1 0x20 PUSH1 0x0 KECCAK256 SWAP1 PUSH1 0x7 MUL ADD PUSH1 0x1 ADD PUSH1 0x0 SWAP1 SLOAD SWAP1 PUSH2 0x100 EXP SWAP1 DIV PUSH20 0xFFFFFFFFFFFFFFFFFFFFFFFFFFFFFFFFFFFFFFFF AND PUSH20 0xFFFFFFFFFFFFFFFFFFFFFFFFFFFFFFFFFFFFFFFF AND DUP12 PUSH20 0xFFFFFFFFFFFFFFFFFFFFFFFFFFFFFFFFFFFFFFFF AND EQ JUMPDEST JUMPDEST DUP1 ISZERO PUSH2 0x26FB JUMPI POP PUSH1 0x0 DUP11 EQ ISZERO DUP1 PUSH2 0x26FA JUMPI POP PUSH1 0x2 PUSH1 0x0 PUSH1 0x7 DUP6 DUP2 SLOAD DUP2 LT PUSH2 0x2675 JUMPI PUSH2 0x2674 PUSH2 0x5412 JUMP JUMPDEST JUMPDEST SWAP1 PUSH1 0x0 MSTORE PUSH1 0x20 PUSH1 0x0 KECCAK256 SWAP1 PUSH1 0x7 MUL ADD PUSH1 0x1 ADD PUSH1 0x0 SWAP1 SLOAD SWAP1 PUSH2 0x100 EXP SWAP1 DIV PUSH20 0xFFFFFFFFFFFFFFFFFFFFFFFFFFFFFFFFFFFFFFFF AND PUSH20 0xFFFFFFFFFFFFFFFFFFFFFFFFFFFFFFFFFFFFFFFF AND PUSH20 0xFFFFFFFFFFFFFFFFFFFFFFFFFFFFFFFFFFFFFFFF AND DUP2 MSTORE PUSH1 0x20 ADD SWAP1 DUP2 MSTORE PUSH1 0x20 ADD PUSH1 0x0 KECCAK256 PUSH1 0x0 DUP5 DUP2 MSTORE PUSH1 0x20 ADD SWAP1 DUP2 MSTORE PUSH1 0x20 ADD PUSH1 0x0 KECCAK256 PUSH1 0x2 ADD SLOAD DUP11 GT ISZERO JUMPDEST JUMPDEST DUP1 ISZERO PUSH2 0x27BA JUMPI POP PUSH2 0x27B9 DUP14 PUSH1 0x7 DUP6 DUP2 SLOAD DUP2 LT PUSH2 0x271A JUMPI PUSH2 0x2719 PUSH2 0x5412 JUMP JUMPDEST JUMPDEST SWAP1 PUSH1 0x0 MSTORE PUSH1 0x20 PUSH1 0x0 KECCAK256 SWAP1 PUSH1 0x7 MUL ADD PUSH1 0x2 ADD DUP1 SLOAD PUSH2 0x2736 SWAP1 PUSH2 0x52D9 JUMP JUMPDEST DUP1 PUSH1 0x1F ADD PUSH1 0x20 DUP1 SWAP2 DIV MUL PUSH1 0x20 ADD PUSH1 0x40 MLOAD SWAP1 DUP2 ADD PUSH1 0x40 MSTORE DUP1 SWAP3 SWAP2 SWAP1 DUP2 DUP2 MSTORE PUSH1 0x20 ADD DUP3 DUP1 SLOAD PUSH2 0x2762 SWAP1 PUSH2 0x52D9 JUMP JUMPDEST DUP1 ISZERO PUSH2 0x27AF JUMPI DUP1 PUSH1 0x1F LT PUSH2 0x2784 JUMPI PUSH2 0x100 DUP1 DUP4 SLOAD DIV MUL DUP4 MSTORE SWAP2 PUSH1 0x20 ADD SWAP2 PUSH2 0x27AF JUMP JUMPDEST DUP3 ADD SWAP2 SWAP1 PUSH1 0x0 MSTORE PUSH1 0x20 PUSH1 0x0 KECCAK256 SWAP1 JUMPDEST DUP2 SLOAD DUP2 MSTORE SWAP1 PUSH1 0x1 ADD SWAP1 PUSH1 0x20 ADD DUP1 DUP4 GT PUSH2 0x2792 JUMPI DUP3 SWAP1 SUB PUSH1 0x1F AND DUP3 ADD SWAP2 JUMPDEST POP POP POP POP POP PUSH2 0x3C1B JUMP JUMPDEST JUMPDEST PUSH2 0x27C3 JUMPI PUSH1 0x0 SWAP2 POP JUMPDEST DUP2 ISZERO PUSH2 0x2B2B JUMPI PUSH1 0x7 DUP4 DUP2 SLOAD DUP2 LT PUSH2 0x27DD JUMPI PUSH2 0x27DC PUSH2 0x5412 JUMP JUMPDEST JUMPDEST SWAP1 PUSH1 0x0 MSTORE PUSH1 0x20 PUSH1 0x0 KECCAK256 SWAP1 PUSH1 0x7 MUL ADD PUSH1 0x40 MLOAD DUP1 PUSH1 0xE0 ADD PUSH1 0x40 MSTORE SWAP1 DUP2 PUSH1 0x0 DUP3 ADD SLOAD DUP2 MSTORE PUSH1 0x20 ADD PUSH1 0x1 DUP3 ADD PUSH1 0x0 SWAP1 SLOAD SWAP1 PUSH2 0x100 EXP SWAP1 DIV PUSH20 0xFFFFFFFFFFFFFFFFFFFFFFFFFFFFFFFFFFFFFFFF AND PUSH20 0xFFFFFFFFFFFFFFFFFFFFFFFFFFFFFFFFFFFFFFFF AND PUSH20 0xFFFFFFFFFFFFFFFFFFFFFFFFFFFFFFFFFFFFFFFF AND DUP2 MSTORE PUSH1 0x20 ADD PUSH1 0x2 DUP3 ADD DUP1 SLOAD PUSH2 0x2866 SWAP1 PUSH2 0x52D9 JUMP JUMPDEST DUP1 PUSH1 0x1F ADD PUSH1 0x20 DUP1 SWAP2 DIV MUL PUSH1 0x20 ADD PUSH1 0x40 MLOAD SWAP1 DUP2 ADD PUSH1 0x40 MSTORE DUP1 SWAP3 SWAP2 SWAP1 DUP2 DUP2 MSTORE PUSH1 0x20 ADD DUP3 DUP1 SLOAD PUSH2 0x2892 SWAP1 PUSH2 0x52D9 JUMP JUMPDEST DUP1 ISZERO PUSH2 0x28DF JUMPI DUP1 PUSH1 0x1F LT PUSH2 0x28B4 JUMPI PUSH2 0x100 DUP1 DUP4 SLOAD DIV MUL DUP4 MSTORE SWAP2 PUSH1 0x20 ADD SWAP2 PUSH2 0x28DF JUMP JUMPDEST DUP3 ADD SWAP2 SWAP1 PUSH1 0x0 MSTORE PUSH1 0x20 PUSH1 0x0 KECCAK256 SWAP1 JUMPDEST DUP2 SLOAD DUP2 MSTORE SWAP1 PUSH1 0x1 ADD SWAP1 PUSH1 0x20 ADD DUP1 DUP4 GT PUSH2 0x28C2 JUMPI DUP3 SWAP1 SUB PUSH1 0x1F AND DUP3 ADD SWAP2 JUMPDEST POP POP POP POP POP DUP2 MSTORE PUSH1 0x20 ADD PUSH1 0x3 DUP3 ADD DUP1 SLOAD PUSH2 0x28F8 SWAP1 PUSH2 0x52D9 JUMP JUMPDEST DUP1 PUSH1 0x1F ADD PUSH1 0x20 DUP1 SWAP2 DIV MUL PUSH1 0x20 ADD PUSH1 0x40 MLOAD SWAP1 DUP2 ADD PUSH1 0x40 MSTORE DUP1 SWAP3 SWAP2 SWAP1 DUP2 DUP2 MSTORE PUSH1 0x20 ADD DUP3 DUP1 SLOAD PUSH2 0x2924 SWAP1 PUSH2 0x52D9 JUMP JUMPDEST DUP1 ISZERO PUSH2 0x2971 JUMPI DUP1 PUSH1 0x1F LT PUSH2 0x2946 JUMPI PUSH2 0x100 DUP1 DUP4 SLOAD DIV MUL DUP4 MSTORE SWAP2 PUSH1 0x20 ADD SWAP2 PUSH2 0x2971 JUMP JUMPDEST DUP3 ADD SWAP2 SWAP1 PUSH1 0x0 MSTORE PUSH1 0x20 PUSH1 0x0 KECCAK256 SWAP1 JUMPDEST DUP2 SLOAD DUP2 MSTORE SWAP1 PUSH1 0x1 ADD SWAP1 PUSH1 0x20 ADD DUP1 DUP4 GT PUSH2 0x2954 JUMPI DUP3 SWAP1 SUB PUSH1 0x1F AND DUP3 ADD SWAP2 JUMPDEST POP POP POP POP POP DUP2 MSTORE PUSH1 0x20 ADD PUSH1 0x4 DUP3 ADD DUP1 SLOAD PUSH2 0x298A SWAP1 PUSH2 0x52D9 JUMP JUMPDEST DUP1 PUSH1 0x1F ADD PUSH1 0x20 DUP1 SWAP2 DIV MUL PUSH1 0x20 ADD PUSH1 0x40 MLOAD SWAP1 DUP2 ADD PUSH1 0x40 MSTORE DUP1 SWAP3 SWAP2 SWAP1 DUP2 DUP2 MSTORE PUSH1 0x20 ADD DUP3 DUP1 SLOAD PUSH2 0x29B6 SWAP1 PUSH2 0x52D9 JUMP JUMPDEST DUP1 ISZERO PUSH2 0x2A03 JUMPI DUP1 PUSH1 0x1F LT PUSH2 0x29D8 JUMPI PUSH2 0x100 DUP1 DUP4 SLOAD DIV MUL DUP4 MSTORE SWAP2 PUSH1 0x20 ADD SWAP2 PUSH2 0x2A03 JUMP JUMPDEST DUP3 ADD SWAP2 SWAP1 PUSH1 0x0 MSTORE PUSH1 0x20 PUSH1 0x0 KECCAK256 SWAP1 JUMPDEST DUP2 SLOAD DUP2 MSTORE SWAP1 PUSH1 0x1 ADD SWAP1 PUSH1 0x20 ADD DUP1 DUP4 GT PUSH2 0x29E6 JUMPI DUP3 SWAP1 SUB PUSH1 0x1F AND DUP3 ADD SWAP2 JUMPDEST POP POP POP POP POP DUP2 MSTORE PUSH1 0x20 ADD PUSH1 0x5 DUP3 ADD DUP1 SLOAD DUP1 PUSH1 0x20 MUL PUSH1 0x20 ADD PUSH1 0x40 MLOAD SWAP1 DUP2 ADD PUSH1 0x40 MSTORE DUP1 SWAP3 SWAP2 SWAP1 DUP2 DUP2 MSTORE PUSH1 0x20 ADD PUSH1 0x0 SWAP1 JUMPDEST DUP3 DUP3 LT ISZERO PUSH2 0x2ADD JUMPI DUP4 DUP3 SWAP1 PUSH1 0x0 MSTORE PUSH1 0x20 PUSH1 0x0 KECCAK256 ADD DUP1 SLOAD PUSH2 0x2A50 SWAP1 PUSH2 0x52D9 JUMP JUMPDEST DUP1 PUSH1 0x1F ADD PUSH1 0x20 DUP1 SWAP2 DIV MUL PUSH1 0x20 ADD PUSH1 0x40 MLOAD SWAP1 DUP2 ADD PUSH1 0x40 MSTORE DUP1 SWAP3 SWAP2 SWAP1 DUP2 DUP2 MSTORE PUSH1 0x20 ADD DUP3 DUP1 SLOAD PUSH2 0x2A7C SWAP1 PUSH2 0x52D9 JUMP JUMPDEST DUP1 ISZERO PUSH2 0x2AC9 JUMPI DUP1 PUSH1 0x1F LT PUSH2 0x2A9E JUMPI PUSH2 0x100 DUP1 DUP4 SLOAD DIV MUL DUP4 MSTORE SWAP2 PUSH1 0x20 ADD SWAP2 PUSH2 0x2AC9 JUMP JUMPDEST DUP3 ADD SWAP2 SWAP1 PUSH1 0x0 MSTORE PUSH1 0x20 PUSH1 0x0 KECCAK256 SWAP1 JUMPDEST DUP2 SLOAD DUP2 MSTORE SWAP1 PUSH1 0x1 ADD SWAP1 PUSH1 0x20 ADD DUP1 DUP4 GT PUSH2 0x2AAC JUMPI DUP3 SWAP1 SUB PUSH1 0x1F AND DUP3 ADD SWAP2 JUMPDEST POP POP POP POP POP DUP2 MSTORE PUSH1 0x20 ADD SWAP1 PUSH1 0x1 ADD SWAP1 PUSH2 0x2A31 JUMP JUMPDEST POP POP POP POP DUP2 MSTORE PUSH1 0x20 ADD PUSH1 0x6 DUP3 ADD PUSH1 0x0 SWAP1 SLOAD SWAP1 PUSH2 0x100 EXP SWAP1 DIV PUSH1 0xFF AND ISZERO ISZERO ISZERO ISZERO DUP2 MSTORE POP POP DUP6 DUP6 DUP1 PUSH2 0x2B0C SWAP1 PUSH2 0x533C JUMP JUMPDEST SWAP7 POP DUP2 MLOAD DUP2 LT PUSH2 0x2B1F JUMPI PUSH2 0x2B1E PUSH2 0x5412 JUMP JUMPDEST JUMPDEST PUSH1 0x20 MUL PUSH1 0x20 ADD ADD DUP2 SWAP1 MSTORE POP JUMPDEST POP POP JUMPDEST DUP1 DUP1 PUSH2 0x2B39 SWAP1 PUSH2 0x533C JUMP JUMPDEST SWAP2 POP POP PUSH2 0x2371 JUMP JUMPDEST DUP1 DUP4 SWAP5 POP SWAP5 POP POP POP POP SWAP7 POP SWAP7 SWAP5 POP POP POP POP POP JUMP JUMPDEST DUP1 PUSH1 0x5 PUSH1 0x0 CALLER PUSH20 0xFFFFFFFFFFFFFFFFFFFFFFFFFFFFFFFFFFFFFFFF AND PUSH20 0xFFFFFFFFFFFFFFFFFFFFFFFFFFFFFFFFFFFFFFFF AND DUP2 MSTORE PUSH1 0x20 ADD SWAP1 DUP2 MSTORE PUSH1 0x20 ADD PUSH1 0x0 KECCAK256 PUSH1 0x0 DUP5 PUSH20 0xFFFFFFFFFFFFFFFFFFFFFFFFFFFFFFFFFFFFFFFF AND PUSH20 0xFFFFFFFFFFFFFFFFFFFFFFFFFFFFFFFFFFFFFFFF AND DUP2 MSTORE PUSH1 0x20 ADD SWAP1 DUP2 MSTORE PUSH1 0x20 ADD PUSH1 0x0 KECCAK256 PUSH1 0x0 PUSH2 0x100 EXP DUP2 SLOAD DUP2 PUSH1 0xFF MUL NOT AND SWAP1 DUP4 ISZERO ISZERO MUL OR SWAP1 SSTORE POP POP POP JUMP JUMPDEST PUSH2 0x2BF5 PUSH2 0x3B4F JUMP JUMPDEST PUSH20 0xFFFFFFFFFFFFFFFFFFFFFFFFFFFFFFFFFFFFFFFF AND PUSH2 0x2C13 PUSH2 0x22E0 JUMP JUMPDEST PUSH20 0xFFFFFFFFFFFFFFFFFFFFFFFFFFFFFFFFFFFFFFFF AND EQ PUSH2 0x2C69 JUMPI PUSH1 0x40 MLOAD PUSH32 0x8C379A000000000000000000000000000000000000000000000000000000000 DUP2 MSTORE PUSH1 0x4 ADD PUSH2 0x2C60 SWAP1 PUSH2 0x4E1B JUMP JUMPDEST PUSH1 0x40 MLOAD DUP1 SWAP2 SUB SWAP1 REVERT JUMPDEST DUP1 PUSH1 0x8 DUP2 SWAP1 SSTORE POP POP JUMP JUMPDEST PUSH1 0x7 DUP3 DUP2 SLOAD DUP2 LT PUSH2 0x2C87 JUMPI PUSH2 0x2C86 PUSH2 0x5412 JUMP JUMPDEST JUMPDEST SWAP1 PUSH1 0x0 MSTORE PUSH1 0x20 PUSH1 0x0 KECCAK256 SWAP1 PUSH1 0x7 MUL ADD PUSH1 0x1 ADD PUSH1 0x0 SWAP1 SLOAD SWAP1 PUSH2 0x100 EXP SWAP1 DIV PUSH20 0xFFFFFFFFFFFFFFFFFFFFFFFFFFFFFFFFFFFFFFFF AND PUSH20 0xFFFFFFFFFFFFFFFFFFFFFFFFFFFFFFFFFFFFFFFF AND CALLER PUSH20 0xFFFFFFFFFFFFFFFFFFFFFFFFFFFFFFFFFFFFFFFF AND EQ DUP1 PUSH2 0x2D78 JUMPI POP PUSH1 0x5 PUSH1 0x0 DUP6 PUSH20 0xFFFFFFFFFFFFFFFFFFFFFFFFFFFFFFFFFFFFFFFF AND PUSH20 0xFFFFFFFFFFFFFFFFFFFFFFFFFFFFFFFFFFFFFFFF AND DUP2 MSTORE PUSH1 0x20 ADD SWAP1 DUP2 MSTORE PUSH1 0x20 ADD PUSH1 0x0 KECCAK256 PUSH1 0x0 DUP5 PUSH20 0xFFFFFFFFFFFFFFFFFFFFFFFFFFFFFFFFFFFFFFFF AND PUSH20 0xFFFFFFFFFFFFFFFFFFFFFFFFFFFFFFFFFFFFFFFF AND DUP2 MSTORE PUSH1 0x20 ADD SWAP1 DUP2 MSTORE PUSH1 0x20 ADD PUSH1 0x0 KECCAK256 PUSH1 0x0 SWAP1 SLOAD SWAP1 PUSH2 0x100 EXP SWAP1 DIV PUSH1 0xFF AND JUMPDEST DUP1 PUSH2 0x2DE1 JUMPI POP DUP3 PUSH20 0xFFFFFFFFFFFFFFFFFFFFFFFFFFFFFFFFFFFFFFFF AND PUSH1 0x4 PUSH1 0x0 DUP5 DUP2 MSTORE PUSH1 0x20 ADD SWAP1 DUP2 MSTORE PUSH1 0x20 ADD PUSH1 0x0 KECCAK256 PUSH1 0x0 SWAP1 SLOAD SWAP1 PUSH2 0x100 EXP SWAP1 DIV PUSH20 0xFFFFFFFFFFFFFFFFFFFFFFFFFFFFFFFFFFFFFFFF AND PUSH20 0xFFFFFFFFFFFFFFFFFFFFFFFFFFFFFFFFFFFFFFFF AND EQ JUMPDEST PUSH2 0x2E20 JUMPI PUSH1 0x40 MLOAD PUSH32 0x8C379A000000000000000000000000000000000000000000000000000000000 DUP2 MSTORE PUSH1 0x4 ADD PUSH2 0x2E17 SWAP1 PUSH2 0x4DDB JUMP JUMPDEST PUSH1 0x40 MLOAD DUP1 SWAP2 SUB SWAP1 REVERT JUMPDEST PUSH1 0x0 PUSH20 0xFFFFFFFFFFFFFFFFFFFFFFFFFFFFFFFFFFFFFFFF AND DUP4 PUSH20 0xFFFFFFFFFFFFFFFFFFFFFFFFFFFFFFFFFFFFFFFF AND EQ ISZERO PUSH2 0x2E90 JUMPI PUSH1 0x40 MLOAD PUSH32 0x8C379A000000000000000000000000000000000000000000000000000000000 DUP2 MSTORE PUSH1 0x4 ADD PUSH2 0x2E87 SWAP1 PUSH2 0x4DFB JUMP JUMPDEST PUSH1 0x40 MLOAD DUP1 SWAP2 SUB SWAP1 REVERT JUMPDEST PUSH1 0x7 DUP3 DUP2 SLOAD DUP2 LT PUSH2 0x2EA4 JUMPI PUSH2 0x2EA3 PUSH2 0x5412 JUMP JUMPDEST JUMPDEST SWAP1 PUSH1 0x0 MSTORE PUSH1 0x20 PUSH1 0x0 KECCAK256 SWAP1 PUSH1 0x7 MUL ADD PUSH1 0x6 ADD PUSH1 0x0 SWAP1 SLOAD SWAP1 PUSH2 0x100 EXP SWAP1 DIV PUSH1 0xFF AND ISZERO PUSH2 0x2ED8 JUMPI PUSH2 0x2ED3 DUP3 DUP6 DUP6 PUSH2 0xE13 JUMP JUMPDEST PUSH2 0x3062 JUMP JUMPDEST PUSH1 0x3 PUSH1 0x0 DUP6 PUSH20 0xFFFFFFFFFFFFFFFFFFFFFFFFFFFFFFFFFFFFFFFF AND PUSH20 0xFFFFFFFFFFFFFFFFFFFFFFFFFFFFFFFFFFFFFFFF AND DUP2 MSTORE PUSH1 0x20 ADD SWAP1 DUP2 MSTORE PUSH1 0x20 ADD PUSH1 0x0 KECCAK256 PUSH1 0x0 DUP4 DUP2 MSTORE PUSH1 0x20 ADD SWAP1 DUP2 MSTORE PUSH1 0x20 ADD PUSH1 0x0 KECCAK256 PUSH1 0x0 SWAP1 SLOAD SWAP1 PUSH2 0x100 EXP SWAP1 DIV PUSH1 0xFF AND PUSH1 0x3 PUSH1 0x0 DUP6 PUSH20 0xFFFFFFFFFFFFFFFFFFFFFFFFFFFFFFFFFFFFFFFF AND PUSH20 0xFFFFFFFFFFFFFFFFFFFFFFFFFFFFFFFFFFFFFFFF AND DUP2 MSTORE PUSH1 0x20 ADD SWAP1 DUP2 MSTORE PUSH1 0x20 ADD PUSH1 0x0 KECCAK256 PUSH1 0x0 DUP5 DUP2 MSTORE PUSH1 0x20 ADD SWAP1 DUP2 MSTORE PUSH1 0x20 ADD PUSH1 0x0 KECCAK256 PUSH1 0x0 PUSH2 0x100 EXP DUP2 SLOAD DUP2 PUSH1 0xFF MUL NOT AND SWAP1 DUP4 ISZERO ISZERO MUL OR SWAP1 SSTORE POP PUSH1 0x3 PUSH1 0x0 DUP6 PUSH20 0xFFFFFFFFFFFFFFFFFFFFFFFFFFFFFFFFFFFFFFFF AND PUSH20 0xFFFFFFFFFFFFFFFFFFFFFFFFFFFFFFFFFFFFFFFF AND DUP2 MSTORE PUSH1 0x20 ADD SWAP1 DUP2 MSTORE PUSH1 0x20 ADD PUSH1 0x0 KECCAK256 PUSH1 0x0 DUP4 DUP2 MSTORE PUSH1 0x20 ADD SWAP1 DUP2 MSTORE PUSH1 0x20 ADD PUSH1 0x0 KECCAK256 PUSH1 0x0 PUSH2 0x100 EXP DUP2 SLOAD SWAP1 PUSH1 0xFF MUL NOT AND SWAP1 SSTORE DUP3 PUSH1 0x7 DUP4 DUP2 SLOAD DUP2 LT PUSH2 0x3012 JUMPI PUSH2 0x3011 PUSH2 0x5412 JUMP JUMPDEST JUMPDEST SWAP1 PUSH1 0x0 MSTORE PUSH1 0x20 PUSH1 0x0 KECCAK256 SWAP1 PUSH1 0x7 MUL ADD PUSH1 0x1 ADD PUSH1 0x0 PUSH2 0x100 EXP DUP2 SLOAD DUP2 PUSH20 0xFFFFFFFFFFFFFFFFFFFFFFFFFFFFFFFFFFFFFFFF MUL NOT AND SWAP1 DUP4 PUSH20 0xFFFFFFFFFFFFFFFFFFFFFFFFFFFFFFFFFFFFFFFF AND MUL OR SWAP1 SSTORE POP JUMPDEST POP POP POP POP JUMP JUMPDEST PUSH2 0x3070 PUSH2 0x3FD6 JUMP JUMPDEST PUSH1 0x0 PUSH1 0x7 DUP4 DUP2 SLOAD DUP2 LT PUSH2 0x3086 JUMPI PUSH2 0x3085 PUSH2 0x5412 JUMP JUMPDEST JUMPDEST SWAP1 PUSH1 0x0 MSTORE PUSH1 0x20 PUSH1 0x0 KECCAK256 SWAP1 PUSH1 0x7 MUL ADD PUSH1 0x40 MLOAD DUP1 PUSH1 0xE0 ADD PUSH1 0x40 MSTORE SWAP1 DUP2 PUSH1 0x0 DUP3 ADD SLOAD DUP2 MSTORE PUSH1 0x20 ADD PUSH1 0x1 DUP3 ADD PUSH1 0x0 SWAP1 SLOAD SWAP1 PUSH2 0x100 EXP SWAP1 DIV PUSH20 0xFFFFFFFFFFFFFFFFFFFFFFFFFFFFFFFFFFFFFFFF AND PUSH20 0xFFFFFFFFFFFFFFFFFFFFFFFFFFFFFFFFFFFFFFFF AND PUSH20 0xFFFFFFFFFFFFFFFFFFFFFFFFFFFFFFFFFFFFFFFF AND DUP2 MSTORE PUSH1 0x20 ADD PUSH1 0x2 DUP3 ADD DUP1 SLOAD PUSH2 0x310F SWAP1 PUSH2 0x52D9 JUMP JUMPDEST DUP1 PUSH1 0x1F ADD PUSH1 0x20 DUP1 SWAP2 DIV MUL PUSH1 0x20 ADD PUSH1 0x40 MLOAD SWAP1 DUP2 ADD PUSH1 0x40 MSTORE DUP1 SWAP3 SWAP2 SWAP1 DUP2 DUP2 MSTORE PUSH1 0x20 ADD DUP3 DUP1 SLOAD PUSH2 0x313B SWAP1 PUSH2 0x52D9 JUMP JUMPDEST DUP1 ISZERO PUSH2 0x3188 JUMPI DUP1 PUSH1 0x1F LT PUSH2 0x315D JUMPI PUSH2 0x100 DUP1 DUP4 SLOAD DIV MUL DUP4 MSTORE SWAP2 PUSH1 0x20 ADD SWAP2 PUSH2 0x3188 JUMP JUMPDEST DUP3 ADD SWAP2 SWAP1 PUSH1 0x0 MSTORE PUSH1 0x20 PUSH1 0x0 KECCAK256 SWAP1 JUMPDEST DUP2 SLOAD DUP2 MSTORE SWAP1 PUSH1 0x1 ADD SWAP1 PUSH1 0x20 ADD DUP1 DUP4 GT PUSH2 0x316B JUMPI DUP3 SWAP1 SUB PUSH1 0x1F AND DUP3 ADD SWAP2 JUMPDEST POP POP POP POP POP DUP2 MSTORE PUSH1 0x20 ADD PUSH1 0x3 DUP3 ADD DUP1 SLOAD PUSH2 0x31A1 SWAP1 PUSH2 0x52D9 JUMP JUMPDEST DUP1 PUSH1 0x1F ADD PUSH1 0x20 DUP1 SWAP2 DIV MUL PUSH1 0x20 ADD PUSH1 0x40 MLOAD SWAP1 DUP2 ADD PUSH1 0x40 MSTORE DUP1 SWAP3 SWAP2 SWAP1 DUP2 DUP2 MSTORE PUSH1 0x20 ADD DUP3 DUP1 SLOAD PUSH2 0x31CD SWAP1 PUSH2 0x52D9 JUMP JUMPDEST DUP1 ISZERO PUSH2 0x321A JUMPI DUP1 PUSH1 0x1F LT PUSH2 0x31EF JUMPI PUSH2 0x100 DUP1 DUP4 SLOAD DIV MUL DUP4 MSTORE SWAP2 PUSH1 0x20 ADD SWAP2 PUSH2 0x321A JUMP JUMPDEST DUP3 ADD SWAP2 SWAP1 PUSH1 0x0 MSTORE PUSH1 0x20 PUSH1 0x0 KECCAK256 SWAP1 JUMPDEST DUP2 SLOAD DUP2 MSTORE SWAP1 PUSH1 0x1 ADD SWAP1 PUSH1 0x20 ADD DUP1 DUP4 GT PUSH2 0x31FD JUMPI DUP3 SWAP1 SUB PUSH1 0x1F AND DUP3 ADD SWAP2 JUMPDEST POP POP POP POP POP DUP2 MSTORE PUSH1 0x20 ADD PUSH1 0x4 DUP3 ADD DUP1 SLOAD PUSH2 0x3233 SWAP1 PUSH2 0x52D9 JUMP JUMPDEST DUP1 PUSH1 0x1F ADD PUSH1 0x20 DUP1 SWAP2 DIV MUL PUSH1 0x20 ADD PUSH1 0x40 MLOAD SWAP1 DUP2 ADD PUSH1 0x40 MSTORE DUP1 SWAP3 SWAP2 SWAP1 DUP2 DUP2 MSTORE PUSH1 0x20 ADD DUP3 DUP1 SLOAD PUSH2 0x325F SWAP1 PUSH2 0x52D9 JUMP JUMPDEST DUP1 ISZERO PUSH2 0x32AC JUMPI DUP1 PUSH1 0x1F LT PUSH2 0x3281 JUMPI PUSH2 0x100 DUP1 DUP4 SLOAD DIV MUL DUP4 MSTORE SWAP2 PUSH1 0x20 ADD SWAP2 PUSH2 0x32AC JUMP JUMPDEST DUP3 ADD SWAP2 SWAP1 PUSH1 0x0 MSTORE PUSH1 0x20 PUSH1 0x0 KECCAK256 SWAP1 JUMPDEST DUP2 SLOAD DUP2 MSTORE SWAP1 PUSH1 0x1 ADD SWAP1 PUSH1 0x20 ADD DUP1 DUP4 GT PUSH2 0x328F JUMPI DUP3 SWAP1 SUB PUSH1 0x1F AND DUP3 ADD SWAP2 JUMPDEST POP POP POP POP POP DUP2 MSTORE PUSH1 0x20 ADD PUSH1 0x5 DUP3 ADD DUP1 SLOAD DUP1 PUSH1 0x20 MUL PUSH1 0x20 ADD PUSH1 0x40 MLOAD SWAP1 DUP2 ADD PUSH1 0x40 MSTORE DUP1 SWAP3 SWAP2 SWAP1 DUP2 DUP2 MSTORE PUSH1 0x20 ADD PUSH1 0x0 SWAP1 JUMPDEST DUP3 DUP3 LT ISZERO PUSH2 0x3386 JUMPI DUP4 DUP3 SWAP1 PUSH1 0x0 MSTORE PUSH1 0x20 PUSH1 0x0 KECCAK256 ADD DUP1 SLOAD PUSH2 0x32F9 SWAP1 PUSH2 0x52D9 JUMP JUMPDEST DUP1 PUSH1 0x1F ADD PUSH1 0x20 DUP1 SWAP2 DIV MUL PUSH1 0x20 ADD PUSH1 0x40 MLOAD SWAP1 DUP2 ADD PUSH1 0x40 MSTORE DUP1 SWAP3 SWAP2 SWAP1 DUP2 DUP2 MSTORE PUSH1 0x20 ADD DUP3 DUP1 SLOAD PUSH2 0x3325 SWAP1 PUSH2 0x52D9 JUMP JUMPDEST DUP1 ISZERO PUSH2 0x3372 JUMPI DUP1 PUSH1 0x1F LT PUSH2 0x3347 JUMPI PUSH2 0x100 DUP1 DUP4 SLOAD DIV MUL DUP4 MSTORE SWAP2 PUSH1 0x20 ADD SWAP2 PUSH2 0x3372 JUMP JUMPDEST DUP3 ADD SWAP2 SWAP1 PUSH1 0x0 MSTORE PUSH1 0x20 PUSH1 0x0 KECCAK256 SWAP1 JUMPDEST DUP2 SLOAD DUP2 MSTORE SWAP1 PUSH1 0x1 ADD SWAP1 PUSH1 0x20 ADD DUP1 DUP4 GT PUSH2 0x3355 JUMPI DUP3 SWAP1 SUB PUSH1 0x1F AND DUP3 ADD SWAP2 JUMPDEST POP POP POP POP POP DUP2 MSTORE PUSH1 0x20 ADD SWAP1 PUSH1 0x1 ADD SWAP1 PUSH2 0x32DA JUMP JUMPDEST POP POP POP POP DUP2 MSTORE PUSH1 0x20 ADD PUSH1 0x6 DUP3 ADD PUSH1 0x0 SWAP1 SLOAD SWAP1 PUSH2 0x100 EXP SWAP1 DIV PUSH1 0xFF AND ISZERO ISZERO ISZERO ISZERO DUP2 MSTORE POP POP SWAP1 POP PUSH1 0x1 ISZERO ISZERO DUP2 PUSH1 0xC0 ADD MLOAD ISZERO ISZERO EQ PUSH2 0x33C0 JUMPI PUSH1 0x0 DUP1 REVERT JUMPDEST PUSH1 0x2 PUSH1 0x0 DUP3 PUSH1 0x20 ADD MLOAD PUSH20 0xFFFFFFFFFFFFFFFFFFFFFFFFFFFFFFFFFFFFFFFF AND PUSH20 0xFFFFFFFFFFFFFFFFFFFFFFFFFFFFFFFFFFFFFFFF AND DUP2 MSTORE PUSH1 0x20 ADD SWAP1 DUP2 MSTORE PUSH1 0x20 ADD PUSH1 0x0 KECCAK256 PUSH1 0x0 DUP5 DUP2 MSTORE PUSH1 0x20 ADD SWAP1 DUP2 MSTORE PUSH1 0x20 ADD PUSH1 0x0 KECCAK256 PUSH1 0x40 MLOAD DUP1 PUSH1 0x80 ADD PUSH1 0x40 MSTORE SWAP1 DUP2 PUSH1 0x0 DUP3 ADD SLOAD DUP2 MSTORE PUSH1 0x20 ADD PUSH1 0x1 DUP3 ADD SLOAD DUP2 MSTORE PUSH1 0x20 ADD PUSH1 0x2 DUP3 ADD SLOAD DUP2 MSTORE PUSH1 0x20 ADD PUSH1 0x3 DUP3 ADD SLOAD DUP2 MSTORE POP POP SWAP2 POP POP SWAP2 SWAP1 POP JUMP JUMPDEST PUSH1 0x0 PUSH1 0x1 PUSH1 0x0 DUP2 SLOAD DUP1 SWAP3 SWAP2 SWAP1 PUSH2 0x3464 SWAP1 PUSH2 0x533C JUMP JUMPDEST SWAP2 SWAP1 POP SSTORE SWAP1 POP PUSH1 0x0 PUSH1 0x40 MLOAD DUP1 PUSH1 0xE0 ADD PUSH1 0x40 MSTORE DUP1 DUP4 DUP2 MSTORE PUSH1 0x20 ADD CALLER PUSH20 0xFFFFFFFFFFFFFFFFFFFFFFFFFFFFFFFFFFFFFFFF AND DUP2 MSTORE PUSH1 0x20 ADD DUP8 DUP2 MSTORE PUSH1 0x20 ADD DUP7 DUP2 MSTORE PUSH1 0x20 ADD DUP6 DUP2 MSTORE PUSH1 0x20 ADD DUP5 DUP2 MSTORE PUSH1 0x20 ADD PUSH1 0x0 ISZERO ISZERO DUP2 MSTORE POP SWAP1 POP PUSH1 0x7 DUP2 SWAP1 DUP1 PUSH1 0x1 DUP2 SLOAD ADD DUP1 DUP3 SSTORE DUP1 SWAP2 POP POP PUSH1 0x1 SWAP1 SUB SWAP1 PUSH1 0x0 MSTORE PUSH1 0x20 PUSH1 0x0 KECCAK256 SWAP1 PUSH1 0x7 MUL ADD PUSH1 0x0 SWAP1 SWAP2 SWAP1 SWAP2 SWAP1 SWAP2 POP PUSH1 0x0 DUP3 ADD MLOAD DUP2 PUSH1 0x0 ADD SSTORE PUSH1 0x20 DUP3 ADD MLOAD DUP2 PUSH1 0x1 ADD PUSH1 0x0 PUSH2 0x100 EXP DUP2 SLOAD DUP2 PUSH20 0xFFFFFFFFFFFFFFFFFFFFFFFFFFFFFFFFFFFFFFFF MUL NOT AND SWAP1 DUP4 PUSH20 0xFFFFFFFFFFFFFFFFFFFFFFFFFFFFFFFFFFFFFFFF AND MUL OR SWAP1 SSTORE POP PUSH1 0x40 DUP3 ADD MLOAD DUP2 PUSH1 0x2 ADD SWAP1 DUP1 MLOAD SWAP1 PUSH1 0x20 ADD SWAP1 PUSH2 0x3553 SWAP3 SWAP2 SWAP1 PUSH2 0x3E9B JUMP JUMPDEST POP PUSH1 0x60 DUP3 ADD MLOAD DUP2 PUSH1 0x3 ADD SWAP1 DUP1 MLOAD SWAP1 PUSH1 0x20 ADD SWAP1 PUSH2 0x3570 SWAP3 SWAP2 SWAP1 PUSH2 0x3E9B JUMP JUMPDEST POP PUSH1 0x80 DUP3 ADD MLOAD DUP2 PUSH1 0x4 ADD SWAP1 DUP1 MLOAD SWAP1 PUSH1 0x20 ADD SWAP1 PUSH2 0x358D SWAP3 SWAP2 SWAP1 PUSH2 0x3E9B JUMP JUMPDEST POP PUSH1 0xA0 DUP3 ADD MLOAD DUP2 PUSH1 0x5 ADD SWAP1 DUP1 MLOAD SWAP1 PUSH1 0x20 ADD SWAP1 PUSH2 0x35AA SWAP3 SWAP2 SWAP1 PUSH2 0x3F21 JUMP JUMPDEST POP PUSH1 0xC0 DUP3 ADD MLOAD DUP2 PUSH1 0x6 ADD PUSH1 0x0 PUSH2 0x100 EXP DUP2 SLOAD DUP2 PUSH1 0xFF MUL NOT AND SWAP1 DUP4 ISZERO ISZERO MUL OR SWAP1 SSTORE POP POP POP PUSH1 0x1 PUSH1 0x3 PUSH1 0x0 CALLER PUSH20 0xFFFFFFFFFFFFFFFFFFFFFFFFFFFFFFFFFFFFFFFF AND PUSH20 0xFFFFFFFFFFFFFFFFFFFFFFFFFFFFFFFFFFFFFFFF AND DUP2 MSTORE PUSH1 0x20 ADD SWAP1 DUP2 MSTORE PUSH1 0x20 ADD PUSH1 0x0 KECCAK256 PUSH1 0x0 DUP5 DUP2 MSTORE PUSH1 0x20 ADD SWAP1 DUP2 MSTORE PUSH1 0x20 ADD PUSH1 0x0 KECCAK256 PUSH1 0x0 PUSH2 0x100 EXP DUP2 SLOAD DUP2 PUSH1 0xFF MUL NOT AND SWAP1 DUP4 ISZERO ISZERO MUL OR SWAP1 SSTORE POP POP POP POP POP POP POP JUMP JUMPDEST DUP2 CALLER DUP1 PUSH20 0xFFFFFFFFFFFFFFFFFFFFFFFFFFFFFFFFFFFFFFFF AND PUSH1 0x7 DUP4 DUP2 SLOAD DUP2 LT PUSH2 0x366B JUMPI PUSH2 0x366A PUSH2 0x5412 JUMP JUMPDEST JUMPDEST SWAP1 PUSH1 0x0 MSTORE PUSH1 0x20 PUSH1 0x0 KECCAK256 SWAP1 PUSH1 0x7 MUL ADD PUSH1 0x1 ADD PUSH1 0x0 SWAP1 SLOAD SWAP1 PUSH2 0x100 EXP SWAP1 DIV PUSH20 0xFFFFFFFFFFFFFFFFFFFFFFFFFFFFFFFFFFFFFFFF AND PUSH20 0xFFFFFFFFFFFFFFFFFFFFFFFFFFFFFFFFFFFFFFFF AND EQ PUSH2 0x36F3 JUMPI PUSH1 0x40 MLOAD PUSH32 0x8C379A000000000000000000000000000000000000000000000000000000000 DUP2 MSTORE PUSH1 0x4 ADD PUSH2 0x36EA SWAP1 PUSH2 0x4D9B JUMP JUMPDEST PUSH1 0x40 MLOAD DUP1 SWAP2 SUB SWAP1 REVERT JUMPDEST PUSH2 0x36FE CALLER DUP6 DUP6 PUSH2 0x3D43 JUMP JUMPDEST POP POP POP POP JUMP JUMPDEST PUSH1 0x0 PUSH1 0x5 PUSH1 0x0 DUP5 PUSH20 0xFFFFFFFFFFFFFFFFFFFFFFFFFFFFFFFFFFFFFFFF AND PUSH20 0xFFFFFFFFFFFFFFFFFFFFFFFFFFFFFFFFFFFFFFFF AND DUP2 MSTORE PUSH1 0x20 ADD SWAP1 DUP2 MSTORE PUSH1 0x20 ADD PUSH1 0x0 KECCAK256 PUSH1 0x0 DUP4 PUSH20 0xFFFFFFFFFFFFFFFFFFFFFFFFFFFFFFFFFFFFFFFF AND PUSH20 0xFFFFFFFFFFFFFFFFFFFFFFFFFFFFFFFFFFFFFFFF AND DUP2 MSTORE PUSH1 0x20 ADD SWAP1 DUP2 MSTORE PUSH1 0x20 ADD PUSH1 0x0 KECCAK256 PUSH1 0x0 SWAP1 SLOAD SWAP1 PUSH2 0x100 EXP SWAP1 DIV PUSH1 0xFF AND SWAP1 POP SWAP3 SWAP2 POP POP JUMP JUMPDEST PUSH2 0x37A0 PUSH2 0x3B4F JUMP JUMPDEST PUSH20 0xFFFFFFFFFFFFFFFFFFFFFFFFFFFFFFFFFFFFFFFF AND PUSH2 0x37BE PUSH2 0x22E0 JUMP JUMPDEST PUSH20 0xFFFFFFFFFFFFFFFFFFFFFFFFFFFFFFFFFFFFFFFF AND EQ PUSH2 0x3814 JUMPI PUSH1 0x40 MLOAD PUSH32 0x8C379A000000000000000000000000000000000000000000000000000000000 DUP2 MSTORE PUSH1 0x4 ADD PUSH2 0x380B SWAP1 PUSH2 0x4E1B JUMP JUMPDEST PUSH1 0x40 MLOAD DUP1 SWAP2 SUB SWAP1 REVERT JUMPDEST PUSH1 0x0 PUSH20 0xFFFFFFFFFFFFFFFFFFFFFFFFFFFFFFFFFFFFFFFF AND DUP2 PUSH20 0xFFFFFFFFFFFFFFFFFFFFFFFFFFFFFFFFFFFFFFFF AND EQ ISZERO PUSH2 0x3884 JUMPI PUSH1 0x40 MLOAD PUSH32 0x8C379A000000000000000000000000000000000000000000000000000000000 DUP2 MSTORE PUSH1 0x4 ADD PUSH2 0x387B SWAP1 PUSH2 0x4D7B JUMP JUMPDEST PUSH1 0x40 MLOAD DUP1 SWAP2 SUB SWAP1 REVERT JUMPDEST PUSH2 0x388D DUP2 PUSH2 0x3B57 JUMP JUMPDEST POP JUMP JUMPDEST PUSH1 0x60 PUSH1 0x6 PUSH1 0x0 DUP4 DUP2 MSTORE PUSH1 0x20 ADD SWAP1 DUP2 MSTORE PUSH1 0x20 ADD PUSH1 0x0 KECCAK256 DUP1 SLOAD DUP1 PUSH1 0x20 MUL PUSH1 0x20 ADD PUSH1 0x40 MLOAD SWAP1 DUP2 ADD PUSH1 0x40 MSTORE DUP1 SWAP3 SWAP2 SWAP1 DUP2 DUP2 MSTORE PUSH1 0x20 ADD PUSH1 0x0 SWAP1 JUMPDEST DUP3 DUP3 LT ISZERO PUSH2 0x39C1 JUMPI DUP4 DUP3 SWAP1 PUSH1 0x0 MSTORE PUSH1 0x20 PUSH1 0x0 KECCAK256 SWAP1 PUSH1 0x5 MUL ADD PUSH1 0x40 MLOAD DUP1 PUSH1 0xA0 ADD PUSH1 0x40 MSTORE SWAP1 DUP2 PUSH1 0x0 DUP3 ADD SLOAD DUP2 MSTORE PUSH1 0x20 ADD PUSH1 0x1 DUP3 ADD SLOAD DUP2 MSTORE PUSH1 0x20 ADD PUSH1 0x2 DUP3 ADD SLOAD DUP2 MSTORE PUSH1 0x20 ADD PUSH1 0x3 DUP3 ADD PUSH1 0x0 SWAP1 SLOAD SWAP1 PUSH2 0x100 EXP SWAP1 DIV PUSH20 0xFFFFFFFFFFFFFFFFFFFFFFFFFFFFFFFFFFFFFFFF AND PUSH20 0xFFFFFFFFFFFFFFFFFFFFFFFFFFFFFFFFFFFFFFFF AND PUSH20 0xFFFFFFFFFFFFFFFFFFFFFFFFFFFFFFFFFFFFFFFF AND DUP2 MSTORE PUSH1 0x20 ADD PUSH1 0x4 DUP3 ADD PUSH1 0x0 SWAP1 SLOAD SWAP1 PUSH2 0x100 EXP SWAP1 DIV PUSH20 0xFFFFFFFFFFFFFFFFFFFFFFFFFFFFFFFFFFFFFFFF AND PUSH20 0xFFFFFFFFFFFFFFFFFFFFFFFFFFFFFFFFFFFFFFFF AND PUSH20 0xFFFFFFFFFFFFFFFFFFFFFFFFFFFFFFFFFFFFFFFF AND DUP2 MSTORE POP POP DUP2 MSTORE PUSH1 0x20 ADD SWAP1 PUSH1 0x1 ADD SWAP1 PUSH2 0x38C5 JUMP JUMPDEST POP POP POP POP SWAP1 POP SWAP2 SWAP1 POP JUMP JUMPDEST PUSH1 0x1 PUSH1 0x3 PUSH1 0x0 DUP5 PUSH20 0xFFFFFFFFFFFFFFFFFFFFFFFFFFFFFFFFFFFFFFFF AND PUSH20 0xFFFFFFFFFFFFFFFFFFFFFFFFFFFFFFFFFFFFFFFF AND DUP2 MSTORE PUSH1 0x20 ADD SWAP1 DUP2 MSTORE PUSH1 0x20 ADD PUSH1 0x0 KECCAK256 PUSH1 0x0 DUP4 DUP2 MSTORE PUSH1 0x20 ADD SWAP1 DUP2 MSTORE PUSH1 0x20 ADD PUSH1 0x0 KECCAK256 PUSH1 0x0 PUSH2 0x100 EXP DUP2 SLOAD DUP2 PUSH1 0xFF MUL NOT AND SWAP1 DUP4 ISZERO ISZERO MUL OR SWAP1 SSTORE POP DUP2 PUSH1 0x7 DUP3 DUP2 SLOAD DUP2 LT PUSH2 0x3A4A JUMPI PUSH2 0x3A49 PUSH2 0x5412 JUMP JUMPDEST JUMPDEST SWAP1 PUSH1 0x0 MSTORE PUSH1 0x20 PUSH1 0x0 KECCAK256 SWAP1 PUSH1 0x7 MUL ADD PUSH1 0x1 ADD PUSH1 0x0 PUSH2 0x100 EXP DUP2 SLOAD DUP2 PUSH20 0xFFFFFFFFFFFFFFFFFFFFFFFFFFFFFFFFFFFFFFFF MUL NOT AND SWAP1 DUP4 PUSH20 0xFFFFFFFFFFFFFFFFFFFFFFFFFFFFFFFFFFFFFFFF AND MUL OR SWAP1 SSTORE POP PUSH1 0x0 PUSH1 0x7 DUP3 DUP2 SLOAD DUP2 LT PUSH2 0x3AAF JUMPI PUSH2 0x3AAE PUSH2 0x5412 JUMP JUMPDEST JUMPDEST SWAP1 PUSH1 0x0 MSTORE PUSH1 0x20 PUSH1 0x0 KECCAK256 SWAP1 PUSH1 0x7 MUL ADD PUSH1 0x6 ADD PUSH1 0x0 PUSH2 0x100 EXP DUP2 SLOAD DUP2 PUSH1 0xFF MUL NOT AND SWAP1 DUP4 ISZERO ISZERO MUL OR SWAP1 SSTORE POP PUSH1 0x2 PUSH1 0x0 DUP5 PUSH20 0xFFFFFFFFFFFFFFFFFFFFFFFFFFFFFFFFFFFFFFFF AND PUSH20 0xFFFFFFFFFFFFFFFFFFFFFFFFFFFFFFFFFFFFFFFF AND DUP2 MSTORE PUSH1 0x20 ADD SWAP1 DUP2 MSTORE PUSH1 0x20 ADD PUSH1 0x0 KECCAK256 PUSH1 0x0 DUP3 DUP2 MSTORE PUSH1 0x20 ADD SWAP1 DUP2 MSTORE PUSH1 0x20 ADD PUSH1 0x0 KECCAK256 PUSH1 0x0 DUP1 DUP3 ADD PUSH1 0x0 SWAP1 SSTORE PUSH1 0x1 DUP3 ADD PUSH1 0x0 SWAP1 SSTORE PUSH1 0x2 DUP3 ADD PUSH1 0x0 SWAP1 SSTORE PUSH1 0x3 DUP3 ADD PUSH1 0x0 SWAP1 SSTORE POP POP POP POP POP JUMP JUMPDEST PUSH1 0x0 CALLER SWAP1 POP SWAP1 JUMP JUMPDEST PUSH1 0x0 DUP1 PUSH1 0x0 SWAP1 SLOAD SWAP1 PUSH2 0x100 EXP SWAP1 DIV PUSH20 0xFFFFFFFFFFFFFFFFFFFFFFFFFFFFFFFFFFFFFFFF AND SWAP1 POP DUP2 PUSH1 0x0 DUP1 PUSH2 0x100 EXP DUP2 SLOAD DUP2 PUSH20 0xFFFFFFFFFFFFFFFFFFFFFFFFFFFFFFFFFFFFFFFF MUL NOT AND SWAP1 DUP4 PUSH20 0xFFFFFFFFFFFFFFFFFFFFFFFFFFFFFFFFFFFFFFFF AND MUL OR SWAP1 SSTORE POP DUP2 PUSH20 0xFFFFFFFFFFFFFFFFFFFFFFFFFFFFFFFFFFFFFFFF AND DUP2 PUSH20 0xFFFFFFFFFFFFFFFFFFFFFFFFFFFFFFFFFFFFFFFF AND PUSH32 0x8BE0079C531659141344CD1FD0A4F28419497F9722A3DAAFE3B4186F6B6457E0 PUSH1 0x40 MLOAD PUSH1 0x40 MLOAD DUP1 SWAP2 SUB SWAP1 LOG3 POP POP JUMP JUMPDEST PUSH1 0x0 DUP1 DUP4 SWAP1 POP PUSH1 0x0 DUP4 SWAP1 POP DUP2 MLOAD DUP2 MLOAD LT ISZERO PUSH2 0x3C3B JUMPI PUSH1 0x0 SWAP3 POP POP POP PUSH2 0x3D3D JUMP JUMPDEST PUSH1 0x0 SWAP3 POP PUSH1 0x0 JUMPDEST DUP3 MLOAD DUP3 MLOAD PUSH2 0x3C50 SWAP2 SWAP1 PUSH2 0x521B JUMP JUMPDEST DUP2 GT PUSH2 0x3D39 JUMPI PUSH1 0x0 PUSH1 0x1 SWAP1 POP PUSH1 0x0 JUMPDEST DUP5 MLOAD DUP2 LT ISZERO PUSH2 0x3D14 JUMPI DUP5 DUP2 DUP2 MLOAD DUP2 LT PUSH2 0x3C7B JUMPI PUSH2 0x3C7A PUSH2 0x5412 JUMP JUMPDEST JUMPDEST PUSH1 0x20 ADD ADD MLOAD PUSH1 0xF8 SHR PUSH1 0xF8 SHL PUSH31 0xFFFFFFFFFFFFFFFFFFFFFFFFFFFFFFFFFFFFFFFFFFFFFFFFFFFFFFFFFFFFFF NOT AND DUP5 DUP3 DUP6 PUSH2 0x3CB5 SWAP2 SWAP1 PUSH2 0x513A JUMP JUMPDEST DUP2 MLOAD DUP2 LT PUSH2 0x3CC6 JUMPI PUSH2 0x3CC5 PUSH2 0x5412 JUMP JUMPDEST JUMPDEST PUSH1 0x20 ADD ADD MLOAD PUSH1 0xF8 SHR PUSH1 0xF8 SHL PUSH31 0xFFFFFFFFFFFFFFFFFFFFFFFFFFFFFFFFFFFFFFFFFFFFFFFFFFFFFFFFFFFFFF NOT AND EQ PUSH2 0x3D01 JUMPI PUSH1 0x0 SWAP2 POP PUSH2 0x3D14 JUMP JUMPDEST DUP1 DUP1 PUSH2 0x3D0C SWAP1 PUSH2 0x533C JUMP JUMPDEST SWAP2 POP POP PUSH2 0x3C5F JUMP JUMPDEST POP DUP1 ISZERO PUSH2 0x3D25 JUMPI PUSH1 0x1 SWAP5 POP POP PUSH2 0x3D39 JUMP JUMPDEST POP DUP1 DUP1 PUSH2 0x3D31 SWAP1 PUSH2 0x533C JUMP JUMPDEST SWAP2 POP POP PUSH2 0x3C42 JUMP JUMPDEST POP POP POP JUMPDEST SWAP3 SWAP2 POP POP JUMP JUMPDEST PUSH1 0x40 MLOAD DUP1 PUSH1 0x80 ADD PUSH1 0x40 MSTORE DUP1 DUP3 DUP2 MSTORE PUSH1 0x20 ADD PUSH1 0x64 PUSH1 0x8 SLOAD DUP5 PUSH2 0x3D64 SWAP2 SWAP1 PUSH2 0x51C1 JUMP JUMPDEST PUSH2 0x3D6E SWAP2 SWAP1 PUSH2 0x5190 JUMP JUMPDEST DUP2 MSTORE PUSH1 0x20 ADD TIMESTAMP DUP2 MSTORE PUSH1 0x20 ADD DUP4 DUP2 MSTORE POP PUSH1 0x2 PUSH1 0x0 DUP6 PUSH20 0xFFFFFFFFFFFFFFFFFFFFFFFFFFFFFFFFFFFFFFFF AND PUSH20 0xFFFFFFFFFFFFFFFFFFFFFFFFFFFFFFFFFFFFFFFF AND DUP2 MSTORE PUSH1 0x20 ADD SWAP1 DUP2 MSTORE PUSH1 0x20 ADD PUSH1 0x0 KECCAK256 PUSH1 0x0 DUP5 DUP2 MSTORE PUSH1 0x20 ADD SWAP1 DUP2 MSTORE PUSH1 0x20 ADD PUSH1 0x0 KECCAK256 PUSH1 0x0 DUP3 ADD MLOAD DUP2 PUSH1 0x0 ADD SSTORE PUSH1 0x20 DUP3 ADD MLOAD DUP2 PUSH1 0x1 ADD SSTORE PUSH1 0x40 DUP3 ADD MLOAD DUP2 PUSH1 0x2 ADD SSTORE PUSH1 0x60 DUP3 ADD MLOAD DUP2 PUSH1 0x3 ADD SSTORE SWAP1 POP POP PUSH1 0x1 PUSH1 0x7 DUP4 DUP2 SLOAD DUP2 LT PUSH2 0x3E0E JUMPI PUSH2 0x3E0D PUSH2 0x5412 JUMP JUMPDEST JUMPDEST SWAP1 PUSH1 0x0 MSTORE PUSH1 0x20 PUSH1 0x0 KECCAK256 SWAP1 PUSH1 0x7 MUL ADD PUSH1 0x6 ADD PUSH1 0x0 PUSH2 0x100 EXP DUP2 SLOAD DUP2 PUSH1 0xFF MUL NOT AND SWAP1 DUP4 ISZERO ISZERO MUL OR SWAP1 SSTORE POP PUSH1 0x3 PUSH1 0x0 DUP5 PUSH20 0xFFFFFFFFFFFFFFFFFFFFFFFFFFFFFFFFFFFFFFFF AND PUSH20 0xFFFFFFFFFFFFFFFFFFFFFFFFFFFFFFFFFFFFFFFF AND DUP2 MSTORE PUSH1 0x20 ADD SWAP1 DUP2 MSTORE PUSH1 0x20 ADD PUSH1 0x0 KECCAK256 PUSH1 0x0 DUP4 DUP2 MSTORE PUSH1 0x20 ADD SWAP1 DUP2 MSTORE PUSH1 0x20 ADD PUSH1 0x0 KECCAK256 PUSH1 0x0 PUSH2 0x100 EXP DUP2 SLOAD SWAP1 PUSH1 0xFF MUL NOT AND SWAP1 SSTORE POP POP POP JUMP JUMPDEST DUP3 DUP1 SLOAD PUSH2 0x3EA7 SWAP1 PUSH2 0x52D9 JUMP JUMPDEST SWAP1 PUSH1 0x0 MSTORE PUSH1 0x20 PUSH1 0x0 KECCAK256 SWAP1 PUSH1 0x1F ADD PUSH1 0x20 SWAP1 DIV DUP2 ADD SWAP3 DUP3 PUSH2 0x3EC9 JUMPI PUSH1 0x0 DUP6 SSTORE PUSH2 0x3F10 JUMP JUMPDEST DUP3 PUSH1 0x1F LT PUSH2 0x3EE2 JUMPI DUP1 MLOAD PUSH1 0xFF NOT AND DUP4 DUP1 ADD OR DUP6 SSTORE PUSH2 0x3F10 JUMP JUMPDEST DUP3 DUP1 ADD PUSH1 0x1 ADD DUP6 SSTORE DUP3 ISZERO PUSH2 0x3F10 JUMPI SWAP2 DUP3 ADD JUMPDEST DUP3 DUP2 GT ISZERO PUSH2 0x3F0F JUMPI DUP3 MLOAD DUP3 SSTORE SWAP2 PUSH1 0x20 ADD SWAP2 SWAP1 PUSH1 0x1 ADD SWAP1 PUSH2 0x3EF4 JUMP JUMPDEST JUMPDEST POP SWAP1 POP PUSH2 0x3F1D SWAP2 SWAP1 PUSH2 0x3FFE JUMP JUMPDEST POP SWAP1 JUMP JUMPDEST DUP3 DUP1 SLOAD DUP3 DUP3 SSTORE SWAP1 PUSH1 0x0 MSTORE PUSH1 0x20 PUSH1 0x0 KECCAK256 SWAP1 DUP2 ADD SWAP3 DUP3 ISZERO PUSH2 0x3F70 JUMPI SWAP2 PUSH1 0x20 MUL DUP3 ADD JUMPDEST DUP3 DUP2 GT ISZERO PUSH2 0x3F6F JUMPI DUP3 MLOAD DUP3 SWAP1 DUP1 MLOAD SWAP1 PUSH1 0x20 ADD SWAP1 PUSH2 0x3F5F SWAP3 SWAP2 SWAP1 PUSH2 0x3E9B JUMP JUMPDEST POP SWAP2 PUSH1 0x20 ADD SWAP2 SWAP1 PUSH1 0x1 ADD SWAP1 PUSH2 0x3F41 JUMP JUMPDEST JUMPDEST POP SWAP1 POP PUSH2 0x3F7D SWAP2 SWAP1 PUSH2 0x401B JUMP JUMPDEST POP SWAP1 JUMP JUMPDEST PUSH1 0x40 MLOAD DUP1 PUSH1 0xE0 ADD PUSH1 0x40 MSTORE DUP1 PUSH1 0x0 DUP2 MSTORE PUSH1 0x20 ADD PUSH1 0x0 PUSH20 0xFFFFFFFFFFFFFFFFFFFFFFFFFFFFFFFFFFFFFFFF AND DUP2 MSTORE PUSH1 0x20 ADD PUSH1 0x60 DUP2 MSTORE PUSH1 0x20 ADD PUSH1 0x60 DUP2 MSTORE PUSH1 0x20 ADD PUSH1 0x60 DUP2 MSTORE PUSH1 0x20 ADD PUSH1 0x60 DUP2 MSTORE PUSH1 0x20 ADD PUSH1 0x0 ISZERO ISZERO DUP2 MSTORE POP SWAP1 JUMP JUMPDEST PUSH1 0x40 MLOAD DUP1 PUSH1 0x80 ADD PUSH1 0x40 MSTORE DUP1 PUSH1 0x0 DUP2 MSTORE PUSH1 0x20 ADD PUSH1 0x0 DUP2 MSTORE PUSH1 0x20 ADD PUSH1 0x0 DUP2 MSTORE PUSH1 0x20 ADD PUSH1 0x0 DUP2 MSTORE POP SWAP1 JUMP JUMPDEST JUMPDEST DUP1 DUP3 GT ISZERO PUSH2 0x4017 JUMPI PUSH1 0x0 DUP2 PUSH1 0x0 SWAP1 SSTORE POP PUSH1 0x1 ADD PUSH2 0x3FFF JUMP JUMPDEST POP SWAP1 JUMP JUMPDEST JUMPDEST DUP1 DUP3 GT ISZERO PUSH2 0x403B JUMPI PUSH1 0x0 DUP2 DUP2 PUSH2 0x4032 SWAP2 SWAP1 PUSH2 0x403F JUMP JUMPDEST POP PUSH1 0x1 ADD PUSH2 0x401C JUMP JUMPDEST POP SWAP1 JUMP JUMPDEST POP DUP1 SLOAD PUSH2 0x404B SWAP1 PUSH2 0x52D9 JUMP JUMPDEST PUSH1 0x0 DUP3 SSTORE DUP1 PUSH1 0x1F LT PUSH2 0x405D JUMPI POP PUSH2 0x407C JUMP JUMPDEST PUSH1 0x1F ADD PUSH1 0x20 SWAP1 DIV SWAP1 PUSH1 0x0 MSTORE PUSH1 0x20 PUSH1 0x0 KECCAK256 SWAP1 DUP2 ADD SWAP1 PUSH2 0x407B SWAP2 SWAP1 PUSH2 0x3FFE JUMP JUMPDEST JUMPDEST POP JUMP JUMPDEST PUSH1 0x0 PUSH2 0x4092 PUSH2 0x408D DUP5 PUSH2 0x4FBE JUMP JUMPDEST PUSH2 0x4F99 JUMP JUMPDEST SWAP1 POP DUP1 DUP4 DUP3 MSTORE PUSH1 0x20 DUP3 ADD SWAP1 POP DUP3 DUP6 PUSH1 0x20 DUP7 MUL DUP3 ADD GT ISZERO PUSH2 0x40B5 JUMPI PUSH2 0x40B4 PUSH2 0x5475 JUMP JUMPDEST JUMPDEST PUSH1 0x0 JUMPDEST DUP6 DUP2 LT ISZERO PUSH2 0x4103 JUMPI DUP2 CALLDATALOAD PUSH8 0xFFFFFFFFFFFFFFFF DUP2 GT ISZERO PUSH2 0x40DB JUMPI PUSH2 0x40DA PUSH2 0x5470 JUMP JUMPDEST JUMPDEST DUP1 DUP7 ADD PUSH2 0x40E8 DUP10 DUP3 PUSH2 0x4217 JUMP JUMPDEST DUP6 MSTORE PUSH1 0x20 DUP6 ADD SWAP5 POP PUSH1 0x20 DUP5 ADD SWAP4 POP POP POP PUSH1 0x1 DUP2 ADD SWAP1 POP PUSH2 0x40B8 JUMP JUMPDEST POP POP POP SWAP4 SWAP3 POP POP POP JUMP JUMPDEST PUSH1 0x0 PUSH2 0x4120 PUSH2 0x411B DUP5 PUSH2 0x4FEA JUMP JUMPDEST PUSH2 0x4F99 JUMP JUMPDEST SWAP1 POP DUP3 DUP2 MSTORE PUSH1 0x20 DUP2 ADD DUP5 DUP5 DUP5 ADD GT ISZERO PUSH2 0x413C JUMPI PUSH2 0x413B PUSH2 0x547A JUMP JUMPDEST JUMPDEST PUSH2 0x4147 DUP5 DUP3 DUP6 PUSH2 0x5297 JUMP JUMPDEST POP SWAP4 SWAP3 POP POP POP JUMP JUMPDEST PUSH1 0x0 PUSH2 0x4162 PUSH2 0x415D DUP5 PUSH2 0x501B JUMP JUMPDEST PUSH2 0x4F99 JUMP JUMPDEST SWAP1 POP DUP3 DUP2 MSTORE PUSH1 0x20 DUP2 ADD DUP5 DUP5 DUP5 ADD GT ISZERO PUSH2 0x417E JUMPI PUSH2 0x417D PUSH2 0x547A JUMP JUMPDEST JUMPDEST PUSH2 0x4189 DUP5 DUP3 DUP6 PUSH2 0x5297 JUMP JUMPDEST POP SWAP4 SWAP3 POP POP POP JUMP JUMPDEST PUSH1 0x0 DUP2 CALLDATALOAD SWAP1 POP PUSH2 0x41A0 DUP2 PUSH2 0x5683 JUMP JUMPDEST SWAP3 SWAP2 POP POP JUMP JUMPDEST PUSH1 0x0 DUP3 PUSH1 0x1F DUP4 ADD SLT PUSH2 0x41BB JUMPI PUSH2 0x41BA PUSH2 0x5470 JUMP JUMPDEST JUMPDEST DUP2 CALLDATALOAD PUSH2 0x41CB DUP5 DUP3 PUSH1 0x20 DUP7 ADD PUSH2 0x407F JUMP JUMPDEST SWAP2 POP POP SWAP3 SWAP2 POP POP JUMP JUMPDEST PUSH1 0x0 DUP2 CALLDATALOAD SWAP1 POP PUSH2 0x41E3 DUP2 PUSH2 0x569A JUMP JUMPDEST SWAP3 SWAP2 POP POP JUMP JUMPDEST PUSH1 0x0 DUP3 PUSH1 0x1F DUP4 ADD SLT PUSH2 0x41FE JUMPI PUSH2 0x41FD PUSH2 0x5470 JUMP JUMPDEST JUMPDEST DUP2 CALLDATALOAD PUSH2 0x420E DUP5 DUP3 PUSH1 0x20 DUP7 ADD PUSH2 0x410D JUMP JUMPDEST SWAP2 POP POP SWAP3 SWAP2 POP POP JUMP JUMPDEST PUSH1 0x0 DUP3 PUSH1 0x1F DUP4 ADD SLT PUSH2 0x422C JUMPI PUSH2 0x422B PUSH2 0x5470 JUMP JUMPDEST JUMPDEST DUP2 CALLDATALOAD PUSH2 0x423C DUP5 DUP3 PUSH1 0x20 DUP7 ADD PUSH2 0x414F JUMP JUMPDEST SWAP2 POP POP SWAP3 SWAP2 POP POP JUMP JUMPDEST PUSH1 0x0 DUP2 CALLDATALOAD SWAP1 POP PUSH2 0x4254 DUP2 PUSH2 0x56B1 JUMP JUMPDEST SWAP3 SWAP2 POP POP JUMP JUMPDEST PUSH1 0x0 PUSH1 0x20 DUP3 DUP5 SUB SLT ISZERO PUSH2 0x4270 JUMPI PUSH2 0x426F PUSH2 0x5484 JUMP JUMPDEST JUMPDEST PUSH1 0x0 PUSH2 0x427E DUP5 DUP3 DUP6 ADD PUSH2 0x4191 JUMP JUMPDEST SWAP2 POP POP SWAP3 SWAP2 POP POP JUMP JUMPDEST PUSH1 0x0 DUP1 PUSH1 0x40 DUP4 DUP6 SUB SLT ISZERO PUSH2 0x429E JUMPI PUSH2 0x429D PUSH2 0x5484 JUMP JUMPDEST JUMPDEST PUSH1 0x0 PUSH2 0x42AC DUP6 DUP3 DUP7 ADD PUSH2 0x4191 JUMP JUMPDEST SWAP3 POP POP PUSH1 0x20 PUSH2 0x42BD DUP6 DUP3 DUP7 ADD PUSH2 0x4191 JUMP JUMPDEST SWAP2 POP POP SWAP3 POP SWAP3 SWAP1 POP JUMP JUMPDEST PUSH1 0x0 DUP1 PUSH1 0x0 PUSH1 0x60 DUP5 DUP7 SUB SLT ISZERO PUSH2 0x42E0 JUMPI PUSH2 0x42DF PUSH2 0x5484 JUMP JUMPDEST JUMPDEST PUSH1 0x0 PUSH2 0x42EE DUP7 DUP3 DUP8 ADD PUSH2 0x4191 JUMP JUMPDEST SWAP4 POP POP PUSH1 0x20 PUSH2 0x42FF DUP7 DUP3 DUP8 ADD PUSH2 0x4191 JUMP JUMPDEST SWAP3 POP POP PUSH1 0x40 PUSH2 0x4310 DUP7 DUP3 DUP8 ADD PUSH2 0x4245 JUMP JUMPDEST SWAP2 POP POP SWAP3 POP SWAP3 POP SWAP3 JUMP JUMPDEST PUSH1 0x0 DUP1 PUSH1 0x0 DUP1 PUSH1 0x80 DUP6 DUP8 SUB SLT ISZERO PUSH2 0x4334 JUMPI PUSH2 0x4333 PUSH2 0x5484 JUMP JUMPDEST JUMPDEST PUSH1 0x0 PUSH2 0x4342 DUP8 DUP3 DUP9 ADD PUSH2 0x4191 JUMP JUMPDEST SWAP5 POP POP PUSH1 0x20 PUSH2 0x4353 DUP8 DUP3 DUP9 ADD PUSH2 0x4191 JUMP JUMPDEST SWAP4 POP POP PUSH1 0x40 PUSH2 0x4364 DUP8 DUP3 DUP9 ADD PUSH2 0x4245 JUMP JUMPDEST SWAP3 POP POP PUSH1 0x60 DUP6 ADD CALLDATALOAD PUSH8 0xFFFFFFFFFFFFFFFF DUP2 GT ISZERO PUSH2 0x4385 JUMPI PUSH2 0x4384 PUSH2 0x547F JUMP JUMPDEST JUMPDEST PUSH2 0x4391 DUP8 DUP3 DUP9 ADD PUSH2 0x41E9 JUMP JUMPDEST SWAP2 POP POP SWAP3 SWAP6 SWAP2 SWAP5 POP SWAP3 POP JUMP JUMPDEST PUSH1 0x0 DUP1 PUSH1 0x40 DUP4 DUP6 SUB SLT ISZERO PUSH2 0x43B4 JUMPI PUSH2 0x43B3 PUSH2 0x5484 JUMP JUMPDEST JUMPDEST PUSH1 0x0 PUSH2 0x43C2 DUP6 DUP3 DUP7 ADD PUSH2 0x4191 JUMP JUMPDEST SWAP3 POP POP PUSH1 0x20 PUSH2 0x43D3 DUP6 DUP3 DUP7 ADD PUSH2 0x41D4 JUMP JUMPDEST SWAP2 POP POP SWAP3 POP SWAP3 SWAP1 POP JUMP JUMPDEST PUSH1 0x0 DUP1 PUSH1 0x40 DUP4 DUP6 SUB SLT ISZERO PUSH2 0x43F4 JUMPI PUSH2 0x43F3 PUSH2 0x5484 JUMP JUMPDEST JUMPDEST PUSH1 0x0 PUSH2 0x4402 DUP6 DUP3 DUP7 ADD PUSH2 0x4191 JUMP JUMPDEST SWAP3 POP POP PUSH1 0x20 PUSH2 0x4413 DUP6 DUP3 DUP7 ADD PUSH2 0x4245 JUMP JUMPDEST SWAP2 POP POP SWAP3 POP SWAP3 SWAP1 POP JUMP JUMPDEST PUSH1 0x0 DUP1 PUSH1 0x0 DUP1 PUSH1 0x0 DUP1 PUSH1 0xC0 DUP8 DUP10 SUB SLT ISZERO PUSH2 0x443A JUMPI PUSH2 0x4439 PUSH2 0x5484 JUMP JUMPDEST JUMPDEST PUSH1 0x0 DUP8 ADD CALLDATALOAD PUSH8 0xFFFFFFFFFFFFFFFF DUP2 GT ISZERO PUSH2 0x4458 JUMPI PUSH2 0x4457 PUSH2 0x547F JUMP JUMPDEST JUMPDEST PUSH2 0x4464 DUP10 DUP3 DUP11 ADD PUSH2 0x4217 JUMP JUMPDEST SWAP7 POP POP PUSH1 0x20 DUP8 ADD CALLDATALOAD PUSH8 0xFFFFFFFFFFFFFFFF DUP2 GT ISZERO PUSH2 0x4485 JUMPI PUSH2 0x4484 PUSH2 0x547F JUMP JUMPDEST JUMPDEST PUSH2 0x4491 DUP10 DUP3 DUP11 ADD PUSH2 0x4217 JUMP JUMPDEST SWAP6 POP POP PUSH1 0x40 PUSH2 0x44A2 DUP10 DUP3 DUP11 ADD PUSH2 0x4191 JUMP JUMPDEST SWAP5 POP POP PUSH1 0x60 PUSH2 0x44B3 DUP10 DUP3 DUP11 ADD PUSH2 0x4245 JUMP JUMPDEST SWAP4 POP POP PUSH1 0x80 PUSH2 0x44C4 DUP10 DUP3 DUP11 ADD PUSH2 0x4245 JUMP JUMPDEST SWAP3 POP POP PUSH1 0xA0 PUSH2 0x44D5 DUP10 DUP3 DUP11 ADD PUSH2 0x4245 JUMP JUMPDEST SWAP2 POP POP SWAP3 SWAP6 POP SWAP3 SWAP6 POP SWAP3 SWAP6 JUMP JUMPDEST PUSH1 0x0 DUP1 PUSH1 0x0 DUP1 PUSH1 0x80 DUP6 DUP8 SUB SLT ISZERO PUSH2 0x44FC JUMPI PUSH2 0x44FB PUSH2 0x5484 JUMP JUMPDEST JUMPDEST PUSH1 0x0 DUP6 ADD CALLDATALOAD PUSH8 0xFFFFFFFFFFFFFFFF DUP2 GT ISZERO PUSH2 0x451A JUMPI PUSH2 0x4519 PUSH2 0x547F JUMP JUMPDEST JUMPDEST PUSH2 0x4526 DUP8 DUP3 DUP9 ADD PUSH2 0x4217 JUMP JUMPDEST SWAP5 POP POP PUSH1 0x20 DUP6 ADD CALLDATALOAD PUSH8 0xFFFFFFFFFFFFFFFF DUP2 GT ISZERO PUSH2 0x4547 JUMPI PUSH2 0x4546 PUSH2 0x547F JUMP JUMPDEST JUMPDEST PUSH2 0x4553 DUP8 DUP3 DUP9 ADD PUSH2 0x4217 JUMP JUMPDEST SWAP4 POP POP PUSH1 0x40 DUP6 ADD CALLDATALOAD PUSH8 0xFFFFFFFFFFFFFFFF DUP2 GT ISZERO PUSH2 0x4574 JUMPI PUSH2 0x4573 PUSH2 0x547F JUMP JUMPDEST JUMPDEST PUSH2 0x4580 DUP8 DUP3 DUP9 ADD PUSH2 0x4217 JUMP JUMPDEST SWAP3 POP POP PUSH1 0x60 DUP6 ADD CALLDATALOAD PUSH8 0xFFFFFFFFFFFFFFFF DUP2 GT ISZERO PUSH2 0x45A1 JUMPI PUSH2 0x45A0 PUSH2 0x547F JUMP JUMPDEST JUMPDEST PUSH2 0x45AD DUP8 DUP3 DUP9 ADD PUSH2 0x41A6 JUMP JUMPDEST SWAP2 POP POP SWAP3 SWAP6 SWAP2 SWAP5 POP SWAP3 POP JUMP JUMPDEST PUSH1 0x0 DUP1 PUSH1 0x0 DUP1 PUSH1 0x0 PUSH1 0xA0 DUP7 DUP9 SUB SLT ISZERO PUSH2 0x45D5 JUMPI PUSH2 0x45D4 PUSH2 0x5484 JUMP JUMPDEST JUMPDEST PUSH1 0x0 DUP7 ADD CALLDATALOAD PUSH8 0xFFFFFFFFFFFFFFFF DUP2 GT ISZERO PUSH2 0x45F3 JUMPI PUSH2 0x45F2 PUSH2 0x547F JUMP JUMPDEST JUMPDEST PUSH2 0x45FF DUP9 DUP3 DUP10 ADD PUSH2 0x4217 JUMP JUMPDEST SWAP6 POP POP PUSH1 0x20 DUP7 ADD CALLDATALOAD PUSH8 0xFFFFFFFFFFFFFFFF DUP2 GT ISZERO PUSH2 0x4620 JUMPI PUSH2 0x461F PUSH2 0x547F JUMP JUMPDEST JUMPDEST PUSH2 0x462C DUP9 DUP3 DUP10 ADD PUSH2 0x4217 JUMP JUMPDEST SWAP5 POP POP PUSH1 0x40 DUP7 ADD CALLDATALOAD PUSH8 0xFFFFFFFFFFFFFFFF DUP2 GT ISZERO PUSH2 0x464D JUMPI PUSH2 0x464C PUSH2 0x547F JUMP JUMPDEST JUMPDEST PUSH2 0x4659 DUP9 DUP3 DUP10 ADD PUSH2 0x4217 JUMP JUMPDEST SWAP4 POP POP PUSH1 0x60 DUP7 ADD CALLDATALOAD PUSH8 0xFFFFFFFFFFFFFFFF DUP2 GT ISZERO PUSH2 0x467A JUMPI PUSH2 0x4679 PUSH2 0x547F JUMP JUMPDEST JUMPDEST PUSH2 0x4686 DUP9 DUP3 DUP10 ADD PUSH2 0x41A6 JUMP JUMPDEST SWAP3 POP POP PUSH1 0x80 PUSH2 0x4697 DUP9 DUP3 DUP10 ADD PUSH2 0x4245 JUMP JUMPDEST SWAP2 POP POP SWAP3 SWAP6 POP SWAP3 SWAP6 SWAP1 SWAP4 POP JUMP JUMPDEST PUSH1 0x0 PUSH1 0x20 DUP3 DUP5 SUB SLT ISZERO PUSH2 0x46BA JUMPI PUSH2 0x46B9 PUSH2 0x5484 JUMP JUMPDEST JUMPDEST PUSH1 0x0 PUSH2 0x46C8 DUP5 DUP3 DUP6 ADD PUSH2 0x4245 JUMP JUMPDEST SWAP2 POP POP SWAP3 SWAP2 POP POP JUMP JUMPDEST PUSH1 0x0 DUP1 PUSH1 0x0 PUSH1 0x60 DUP5 DUP7 SUB SLT ISZERO PUSH2 0x46EA JUMPI PUSH2 0x46E9 PUSH2 0x5484 JUMP JUMPDEST JUMPDEST PUSH1 0x0 PUSH2 0x46F8 DUP7 DUP3 DUP8 ADD PUSH2 0x4245 JUMP JUMPDEST SWAP4 POP POP PUSH1 0x20 PUSH2 0x4709 DUP7 DUP3 DUP8 ADD PUSH2 0x4191 JUMP JUMPDEST SWAP3 POP POP PUSH1 0x40 PUSH2 0x471A DUP7 DUP3 DUP8 ADD PUSH2 0x4191 JUMP JUMPDEST SWAP2 POP POP SWAP3 POP SWAP3 POP SWAP3 JUMP JUMPDEST PUSH1 0x0 DUP1 PUSH1 0x40 DUP4 DUP6 SUB SLT ISZERO PUSH2 0x473B JUMPI PUSH2 0x473A PUSH2 0x5484 JUMP JUMPDEST JUMPDEST PUSH1 0x0 PUSH2 0x4749 DUP6 DUP3 DUP7 ADD PUSH2 0x4245 JUMP JUMPDEST SWAP3 POP POP PUSH1 0x20 PUSH2 0x475A DUP6 DUP3 DUP7 ADD PUSH2 0x4245 JUMP JUMPDEST SWAP2 POP POP SWAP3 POP SWAP3 SWAP1 POP JUMP JUMPDEST PUSH1 0x0 PUSH2 0x4770 DUP4 DUP4 PUSH2 0x4928 JUMP JUMPDEST SWAP1 POP SWAP3 SWAP2 POP POP JUMP JUMPDEST PUSH1 0x0 PUSH2 0x4784 DUP4 DUP4 PUSH2 0x4B36 JUMP JUMPDEST SWAP1 POP SWAP3 SWAP2 POP POP JUMP JUMPDEST PUSH1 0x0 PUSH2 0x4798 DUP4 DUP4 PUSH2 0x4C3C JUMP JUMPDEST PUSH1 0xA0 DUP4 ADD SWAP1 POP SWAP3 SWAP2 POP POP JUMP JUMPDEST PUSH2 0x47AD DUP2 PUSH2 0x524F JUMP JUMPDEST DUP3 MSTORE POP POP JUMP JUMPDEST PUSH2 0x47BC DUP2 PUSH2 0x524F JUMP JUMPDEST DUP3 MSTORE POP POP JUMP JUMPDEST PUSH1 0x0 PUSH2 0x47CD DUP3 PUSH2 0x507C JUMP JUMPDEST PUSH2 0x47D7 DUP2 DUP6 PUSH2 0x50CF JUMP JUMPDEST SWAP4 POP DUP4 PUSH1 0x20 DUP3 MUL DUP6 ADD PUSH2 0x47E9 DUP6 PUSH2 0x504C JUMP JUMPDEST DUP1 PUSH1 0x0 JUMPDEST DUP6 DUP2 LT ISZERO PUSH2 0x4825 JUMPI DUP5 DUP5 SUB DUP10 MSTORE DUP2 MLOAD PUSH2 0x4806 DUP6 DUP3 PUSH2 0x4764 JUMP JUMPDEST SWAP5 POP PUSH2 0x4811 DUP4 PUSH2 0x50A8 JUMP JUMPDEST SWAP3 POP PUSH1 0x20 DUP11 ADD SWAP10 POP POP PUSH1 0x1 DUP2 ADD SWAP1 POP PUSH2 0x47ED JUMP JUMPDEST POP DUP3 SWAP8 POP DUP8 SWAP6 POP POP POP POP POP POP SWAP3 SWAP2 POP POP JUMP JUMPDEST PUSH1 0x0 PUSH2 0x4842 DUP3 PUSH2 0x5087 JUMP JUMPDEST PUSH2 0x484C DUP2 DUP6 PUSH2 0x50E0 JUMP JUMPDEST SWAP4 POP DUP4 PUSH1 0x20 DUP3 MUL DUP6 ADD PUSH2 0x485E DUP6 PUSH2 0x505C JUMP JUMPDEST DUP1 PUSH1 0x0 JUMPDEST DUP6 DUP2 LT ISZERO PUSH2 0x489A JUMPI DUP5 DUP5 SUB DUP10 MSTORE DUP2 MLOAD PUSH2 0x487B DUP6 DUP3 PUSH2 0x4778 JUMP JUMPDEST SWAP5 POP PUSH2 0x4886 DUP4 PUSH2 0x50B5 JUMP JUMPDEST SWAP3 POP PUSH1 0x20 DUP11 ADD SWAP10 POP POP PUSH1 0x1 DUP2 ADD SWAP1 POP PUSH2 0x4862 JUMP JUMPDEST POP DUP3 SWAP8 POP DUP8 SWAP6 POP POP POP POP POP POP SWAP3 SWAP2 POP POP JUMP JUMPDEST PUSH1 0x0 PUSH2 0x48B7 DUP3 PUSH2 0x5092 JUMP JUMPDEST PUSH2 0x48C1 DUP2 DUP6 PUSH2 0x50F1 JUMP JUMPDEST SWAP4 POP PUSH2 0x48CC DUP4 PUSH2 0x506C JUMP JUMPDEST DUP1 PUSH1 0x0 JUMPDEST DUP4 DUP2 LT ISZERO PUSH2 0x48FD JUMPI DUP2 MLOAD PUSH2 0x48E4 DUP9 DUP3 PUSH2 0x478C JUMP JUMPDEST SWAP8 POP PUSH2 0x48EF DUP4 PUSH2 0x50C2 JUMP JUMPDEST SWAP3 POP POP PUSH1 0x1 DUP2 ADD SWAP1 POP PUSH2 0x48D0 JUMP JUMPDEST POP DUP6 SWAP4 POP POP POP POP SWAP3 SWAP2 POP POP JUMP JUMPDEST PUSH2 0x4913 DUP2 PUSH2 0x5261 JUMP JUMPDEST DUP3 MSTORE POP POP JUMP JUMPDEST PUSH2 0x4922 DUP2 PUSH2 0x5261 JUMP JUMPDEST DUP3 MSTORE POP POP JUMP JUMPDEST PUSH1 0x0 PUSH2 0x4933 DUP3 PUSH2 0x509D JUMP JUMPDEST PUSH2 0x493D DUP2 DUP6 PUSH2 0x510D JUMP JUMPDEST SWAP4 POP PUSH2 0x494D DUP2 DUP6 PUSH1 0x20 DUP7 ADD PUSH2 0x52A6 JUMP JUMPDEST PUSH2 0x4956 DUP2 PUSH2 0x5489 JUMP JUMPDEST DUP5 ADD SWAP2 POP POP SWAP3 SWAP2 POP POP JUMP JUMPDEST PUSH1 0x0 PUSH2 0x496C DUP3 PUSH2 0x509D JUMP JUMPDEST PUSH2 0x4976 DUP2 DUP6 PUSH2 0x512F JUMP JUMPDEST SWAP4 POP PUSH2 0x4986 DUP2 DUP6 PUSH1 0x20 DUP7 ADD PUSH2 0x52A6 JUMP JUMPDEST DUP1 DUP5 ADD SWAP2 POP POP SWAP3 SWAP2 POP POP JUMP JUMPDEST PUSH1 0x0 PUSH2 0x499F PUSH1 0x12 DUP4 PUSH2 0x511E JUMP JUMPDEST SWAP2 POP PUSH2 0x49AA DUP3 PUSH2 0x549A JUMP JUMPDEST PUSH1 0x20 DUP3 ADD SWAP1 POP SWAP2 SWAP1 POP JUMP JUMPDEST PUSH1 0x0 PUSH2 0x49C2 PUSH1 0x26 DUP4 PUSH2 0x511E JUMP JUMPDEST SWAP2 POP PUSH2 0x49CD DUP3 PUSH2 0x54C3 JUMP JUMPDEST PUSH1 0x40 DUP3 ADD SWAP1 POP SWAP2 SWAP1 POP JUMP JUMPDEST PUSH1 0x0 PUSH2 0x49E5 PUSH1 0x35 DUP4 PUSH2 0x511E JUMP JUMPDEST SWAP2 POP PUSH2 0x49F0 DUP3 PUSH2 0x5512 JUMP JUMPDEST PUSH1 0x40 DUP3 ADD SWAP1 POP SWAP2 SWAP1 POP JUMP JUMPDEST PUSH1 0x0 PUSH2 0x4A08 PUSH1 0x13 DUP4 PUSH2 0x511E JUMP JUMPDEST SWAP2 POP PUSH2 0x4A13 DUP3 PUSH2 0x5561 JUMP JUMPDEST PUSH1 0x20 DUP3 ADD SWAP1 POP SWAP2 SWAP1 POP JUMP JUMPDEST PUSH1 0x0 PUSH2 0x4A2B PUSH1 0x11 DUP4 PUSH2 0x511E JUMP JUMPDEST SWAP2 POP PUSH2 0x4A36 DUP3 PUSH2 0x558A JUMP JUMPDEST PUSH1 0x20 DUP3 ADD SWAP1 POP SWAP2 SWAP1 POP JUMP JUMPDEST PUSH1 0x0 PUSH2 0x4A4E PUSH1 0x1C DUP4 PUSH2 0x511E JUMP JUMPDEST SWAP2 POP PUSH2 0x4A59 DUP3 PUSH2 0x55B3 JUMP JUMPDEST PUSH1 0x20 DUP3 ADD SWAP1 POP SWAP2 SWAP1 POP JUMP JUMPDEST PUSH1 0x0 PUSH2 0x4A71 PUSH1 0x20 DUP4 PUSH2 0x511E JUMP JUMPDEST SWAP2 POP PUSH2 0x4A7C DUP3 PUSH2 0x55DC JUMP JUMPDEST PUSH1 0x20 DUP3 ADD SWAP1 POP SWAP2 SWAP1 POP JUMP JUMPDEST PUSH1 0x0 PUSH2 0x4A94 PUSH1 0x15 DUP4 PUSH2 0x511E JUMP JUMPDEST SWAP2 POP PUSH2 0x4A9F DUP3 PUSH2 0x5605 JUMP JUMPDEST PUSH1 0x20 DUP3 ADD SWAP1 POP SWAP2 SWAP1 POP JUMP JUMPDEST PUSH1 0x0 PUSH2 0x4AB7 PUSH1 0x12 DUP4 PUSH2 0x511E JUMP JUMPDEST SWAP2 POP PUSH2 0x4AC2 DUP3 PUSH2 0x562E JUMP JUMPDEST PUSH1 0x20 DUP3 ADD SWAP1 POP SWAP2 SWAP1 POP JUMP JUMPDEST PUSH1 0x0 PUSH2 0x4ADA PUSH1 0x0 DUP4 PUSH2 0x5102 JUMP JUMPDEST SWAP2 POP PUSH2 0x4AE5 DUP3 PUSH2 0x5657 JUMP JUMPDEST PUSH1 0x0 DUP3 ADD SWAP1 POP SWAP2 SWAP1 POP JUMP JUMPDEST PUSH1 0x0 PUSH2 0x4AFD PUSH1 0x0 DUP4 PUSH2 0x512F JUMP JUMPDEST SWAP2 POP PUSH2 0x4B08 DUP3 PUSH2 0x5657 JUMP JUMPDEST PUSH1 0x0 DUP3 ADD SWAP1 POP SWAP2 SWAP1 POP JUMP JUMPDEST PUSH1 0x0 PUSH2 0x4B20 PUSH1 0x14 DUP4 PUSH2 0x511E JUMP JUMPDEST SWAP2 POP PUSH2 0x4B2B DUP3 PUSH2 0x565A JUMP JUMPDEST PUSH1 0x20 DUP3 ADD SWAP1 POP SWAP2 SWAP1 POP JUMP JUMPDEST PUSH1 0x0 PUSH1 0xE0 DUP4 ADD PUSH1 0x0 DUP4 ADD MLOAD PUSH2 0x4B4E PUSH1 0x0 DUP7 ADD DUP3 PUSH2 0x4CA4 JUMP JUMPDEST POP PUSH1 0x20 DUP4 ADD MLOAD PUSH2 0x4B61 PUSH1 0x20 DUP7 ADD DUP3 PUSH2 0x47A4 JUMP JUMPDEST POP PUSH1 0x40 DUP4 ADD MLOAD DUP5 DUP3 SUB PUSH1 0x40 DUP7 ADD MSTORE PUSH2 0x4B79 DUP3 DUP3 PUSH2 0x4928 JUMP JUMPDEST SWAP2 POP POP PUSH1 0x60 DUP4 ADD MLOAD DUP5 DUP3 SUB PUSH1 0x60 DUP7 ADD MSTORE PUSH2 0x4B93 DUP3 DUP3 PUSH2 0x4928 JUMP JUMPDEST SWAP2 POP POP PUSH1 0x80 DUP4 ADD MLOAD DUP5 DUP3 SUB PUSH1 0x80 DUP7 ADD MSTORE PUSH2 0x4BAD DUP3 DUP3 PUSH2 0x4928 JUMP JUMPDEST SWAP2 POP POP PUSH1 0xA0 DUP4 ADD MLOAD DUP5 DUP3 SUB PUSH1 0xA0 DUP7 ADD MSTORE PUSH2 0x4BC7 DUP3 DUP3 PUSH2 0x47C2 JUMP JUMPDEST SWAP2 POP POP PUSH1 0xC0 DUP4 ADD MLOAD PUSH2 0x4BDC PUSH1 0xC0 DUP7 ADD DUP3 PUSH2 0x490A JUMP JUMPDEST POP DUP1 SWAP2 POP POP SWAP3 SWAP2 POP POP JUMP JUMPDEST PUSH1 0x80 DUP3 ADD PUSH1 0x0 DUP3 ADD MLOAD PUSH2 0x4BFD PUSH1 0x0 DUP6 ADD DUP3 PUSH2 0x4CA4 JUMP JUMPDEST POP PUSH1 0x20 DUP3 ADD MLOAD PUSH2 0x4C10 PUSH1 0x20 DUP6 ADD DUP3 PUSH2 0x4CA4 JUMP JUMPDEST POP PUSH1 0x40 DUP3 ADD MLOAD PUSH2 0x4C23 PUSH1 0x40 DUP6 ADD DUP3 PUSH2 0x4CA4 JUMP JUMPDEST POP PUSH1 0x60 DUP3 ADD MLOAD PUSH2 0x4C36 PUSH1 0x60 DUP6 ADD DUP3 PUSH2 0x4CA4 JUMP JUMPDEST POP POP POP POP JUMP JUMPDEST PUSH1 0xA0 DUP3 ADD PUSH1 0x0 DUP3 ADD MLOAD PUSH2 0x4C52 PUSH1 0x0 DUP6 ADD DUP3 PUSH2 0x4CA4 JUMP JUMPDEST POP PUSH1 0x20 DUP3 ADD MLOAD PUSH2 0x4C65 PUSH1 0x20 DUP6 ADD DUP3 PUSH2 0x4CA4 JUMP JUMPDEST POP PUSH1 0x40 DUP3 ADD MLOAD PUSH2 0x4C78 PUSH1 0x40 DUP6 ADD DUP3 PUSH2 0x4CA4 JUMP JUMPDEST POP PUSH1 0x60 DUP3 ADD MLOAD PUSH2 0x4C8B PUSH1 0x60 DUP6 ADD DUP3 PUSH2 0x47A4 JUMP JUMPDEST POP PUSH1 0x80 DUP3 ADD MLOAD PUSH2 0x4C9E PUSH1 0x80 DUP6 ADD DUP3 PUSH2 0x47A4 JUMP JUMPDEST POP POP POP POP JUMP JUMPDEST PUSH2 0x4CAD DUP2 PUSH2 0x528D JUMP JUMPDEST DUP3 MSTORE POP POP JUMP JUMPDEST PUSH2 0x4CBC DUP2 PUSH2 0x528D JUMP JUMPDEST DUP3 MSTORE POP POP JUMP JUMPDEST PUSH1 0x0 PUSH2 0x4CCE DUP3 DUP5 PUSH2 0x4961 JUMP JUMPDEST SWAP2 POP DUP2 SWAP1 POP SWAP3 SWAP2 POP POP JUMP JUMPDEST PUSH1 0x0 PUSH2 0x4CE4 DUP3 PUSH2 0x4ACD JUMP JUMPDEST SWAP2 POP DUP2 SWAP1 POP SWAP2 SWAP1 POP JUMP JUMPDEST PUSH1 0x0 PUSH2 0x4CF9 DUP3 PUSH2 0x4AF0 JUMP JUMPDEST SWAP2 POP DUP2 SWAP1 POP SWAP2 SWAP1 POP JUMP JUMPDEST PUSH1 0x0 PUSH1 0x20 DUP3 ADD SWAP1 POP PUSH2 0x4D18 PUSH1 0x0 DUP4 ADD DUP5 PUSH2 0x47B3 JUMP JUMPDEST SWAP3 SWAP2 POP POP JUMP JUMPDEST PUSH1 0x0 PUSH1 0x20 DUP3 ADD SWAP1 POP DUP2 DUP2 SUB PUSH1 0x0 DUP4 ADD MSTORE PUSH2 0x4D38 DUP2 DUP5 PUSH2 0x48AC JUMP JUMPDEST SWAP1 POP SWAP3 SWAP2 POP POP JUMP JUMPDEST PUSH1 0x0 PUSH1 0x20 DUP3 ADD SWAP1 POP PUSH2 0x4D55 PUSH1 0x0 DUP4 ADD DUP5 PUSH2 0x4919 JUMP JUMPDEST SWAP3 SWAP2 POP POP JUMP JUMPDEST PUSH1 0x0 PUSH1 0x20 DUP3 ADD SWAP1 POP DUP2 DUP2 SUB PUSH1 0x0 DUP4 ADD MSTORE PUSH2 0x4D74 DUP2 PUSH2 0x4992 JUMP JUMPDEST SWAP1 POP SWAP2 SWAP1 POP JUMP JUMPDEST PUSH1 0x0 PUSH1 0x20 DUP3 ADD SWAP1 POP DUP2 DUP2 SUB PUSH1 0x0 DUP4 ADD MSTORE PUSH2 0x4D94 DUP2 PUSH2 0x49B5 JUMP JUMPDEST SWAP1 POP SWAP2 SWAP1 POP JUMP JUMPDEST PUSH1 0x0 PUSH1 0x20 DUP3 ADD SWAP1 POP DUP2 DUP2 SUB PUSH1 0x0 DUP4 ADD MSTORE PUSH2 0x4DB4 DUP2 PUSH2 0x49D8 JUMP JUMPDEST SWAP1 POP SWAP2 SWAP1 POP JUMP JUMPDEST PUSH1 0x0 PUSH1 0x20 DUP3 ADD SWAP1 POP DUP2 DUP2 SUB PUSH1 0x0 DUP4 ADD MSTORE PUSH2 0x4DD4 DUP2 PUSH2 0x49FB JUMP JUMPDEST SWAP1 POP SWAP2 SWAP1 POP JUMP JUMPDEST PUSH1 0x0 PUSH1 0x20 DUP3 ADD SWAP1 POP DUP2 DUP2 SUB PUSH1 0x0 DUP4 ADD MSTORE PUSH2 0x4DF4 DUP2 PUSH2 0x4A1E JUMP JUMPDEST SWAP1 POP SWAP2 SWAP1 POP JUMP JUMPDEST PUSH1 0x0 PUSH1 0x20 DUP3 ADD SWAP1 POP DUP2 DUP2 SUB PUSH1 0x0 DUP4 ADD MSTORE PUSH2 0x4E14 DUP2 PUSH2 0x4A41 JUMP JUMPDEST SWAP1 POP SWAP2 SWAP1 POP JUMP JUMPDEST PUSH1 0x0 PUSH1 0x20 DUP3 ADD SWAP1 POP DUP2 DUP2 SUB PUSH1 0x0 DUP4 ADD MSTORE PUSH2 0x4E34 DUP2 PUSH2 0x4A64 JUMP JUMPDEST SWAP1 POP SWAP2 SWAP1 POP JUMP JUMPDEST PUSH1 0x0 PUSH1 0x20 DUP3 ADD SWAP1 POP DUP2 DUP2 SUB PUSH1 0x0 DUP4 ADD MSTORE PUSH2 0x4E54 DUP2 PUSH2 0x4A87 JUMP JUMPDEST SWAP1 POP SWAP2 SWAP1 POP JUMP JUMPDEST PUSH1 0x0 PUSH1 0x20 DUP3 ADD SWAP1 POP DUP2 DUP2 SUB PUSH1 0x0 DUP4 ADD MSTORE PUSH2 0x4E74 DUP2 PUSH2 0x4AAA JUMP JUMPDEST SWAP1 POP SWAP2 SWAP1 POP JUMP JUMPDEST PUSH1 0x0 PUSH1 0x20 DUP3 ADD SWAP1 POP DUP2 DUP2 SUB PUSH1 0x0 DUP4 ADD MSTORE PUSH2 0x4E94 DUP2 PUSH2 0x4B13 JUMP JUMPDEST SWAP1 POP SWAP2 SWAP1 POP JUMP JUMPDEST PUSH1 0x0 PUSH1 0x80 DUP3 ADD SWAP1 POP PUSH2 0x4EB0 PUSH1 0x0 DUP4 ADD DUP5 PUSH2 0x4BE7 JUMP JUMPDEST SWAP3 SWAP2 POP POP JUMP JUMPDEST PUSH1 0x0 PUSH1 0x20 DUP3 ADD SWAP1 POP PUSH2 0x4ECB PUSH1 0x0 DUP4 ADD DUP5 PUSH2 0x4CB3 JUMP JUMPDEST SWAP3 SWAP2 POP POP JUMP JUMPDEST PUSH1 0x0 PUSH1 0x40 DUP3 ADD SWAP1 POP PUSH2 0x4EE6 PUSH1 0x0 DUP4 ADD DUP6 PUSH2 0x4CB3 JUMP JUMPDEST DUP2 DUP2 SUB PUSH1 0x20 DUP4 ADD MSTORE PUSH2 0x4EF8 DUP2 DUP5 PUSH2 0x4837 JUMP JUMPDEST SWAP1 POP SWAP4 SWAP3 POP POP POP JUMP JUMPDEST PUSH1 0x0 PUSH1 0xA0 DUP3 ADD SWAP1 POP PUSH2 0x4F16 PUSH1 0x0 DUP4 ADD DUP9 PUSH2 0x4CB3 JUMP JUMPDEST PUSH2 0x4F23 PUSH1 0x20 DUP4 ADD DUP8 PUSH2 0x4CB3 JUMP JUMPDEST PUSH2 0x4F30 PUSH1 0x40 DUP4 ADD DUP7 PUSH2 0x4CB3 JUMP JUMPDEST PUSH2 0x4F3D PUSH1 0x60 DUP4 ADD DUP6 PUSH2 0x47B3 JUMP JUMPDEST PUSH2 0x4F4A PUSH1 0x80 DUP4 ADD DUP5 PUSH2 0x47B3 JUMP JUMPDEST SWAP7 SWAP6 POP POP POP POP POP POP JUMP JUMPDEST PUSH1 0x0 PUSH1 0x80 DUP3 ADD SWAP1 POP PUSH2 0x4F69 PUSH1 0x0 DUP4 ADD DUP8 PUSH2 0x4CB3 JUMP JUMPDEST PUSH2 0x4F76 PUSH1 0x20 DUP4 ADD DUP7 PUSH2 0x4CB3 JUMP JUMPDEST PUSH2 0x4F83 PUSH1 0x40 DUP4 ADD DUP6 PUSH2 0x4CB3 JUMP JUMPDEST PUSH2 0x4F90 PUSH1 0x60 DUP4 ADD DUP5 PUSH2 0x4CB3 JUMP JUMPDEST SWAP6 SWAP5 POP POP POP POP POP JUMP JUMPDEST PUSH1 0x0 PUSH2 0x4FA3 PUSH2 0x4FB4 JUMP JUMPDEST SWAP1 POP PUSH2 0x4FAF DUP3 DUP3 PUSH2 0x530B JUMP JUMPDEST SWAP2 SWAP1 POP JUMP JUMPDEST PUSH1 0x0 PUSH1 0x40 MLOAD SWAP1 POP SWAP1 JUMP JUMPDEST PUSH1 0x0 PUSH8 0xFFFFFFFFFFFFFFFF DUP3 GT ISZERO PUSH2 0x4FD9 JUMPI PUSH2 0x4FD8 PUSH2 0x5441 JUMP JUMPDEST JUMPDEST PUSH1 0x20 DUP3 MUL SWAP1 POP PUSH1 0x20 DUP2 ADD SWAP1 POP SWAP2 SWAP1 POP JUMP JUMPDEST PUSH1 0x0 PUSH8 0xFFFFFFFFFFFFFFFF DUP3 GT ISZERO PUSH2 0x5005 JUMPI PUSH2 0x5004 PUSH2 0x5441 JUMP JUMPDEST JUMPDEST PUSH2 0x500E DUP3 PUSH2 0x5489 JUMP JUMPDEST SWAP1 POP PUSH1 0x20 DUP2 ADD SWAP1 POP SWAP2 SWAP1 POP JUMP JUMPDEST PUSH1 0x0 PUSH8 0xFFFFFFFFFFFFFFFF DUP3 GT ISZERO PUSH2 0x5036 JUMPI PUSH2 0x5035 PUSH2 0x5441 JUMP JUMPDEST JUMPDEST PUSH2 0x503F DUP3 PUSH2 0x5489 JUMP JUMPDEST SWAP1 POP PUSH1 0x20 DUP2 ADD SWAP1 POP SWAP2 SWAP1 POP JUMP JUMPDEST PUSH1 0x0 DUP2 SWAP1 POP PUSH1 0x20 DUP3 ADD SWAP1 POP SWAP2 SWAP1 POP JUMP JUMPDEST PUSH1 0x0 DUP2 SWAP1 POP PUSH1 0x20 DUP3 ADD SWAP1 POP SWAP2 SWAP1 POP JUMP JUMPDEST PUSH1 0x0 DUP2 SWAP1 POP PUSH1 0x20 DUP3 ADD SWAP1 POP SWAP2 SWAP1 POP JUMP JUMPDEST PUSH1 0x0 DUP2 MLOAD SWAP1 POP SWAP2 SWAP1 POP JUMP JUMPDEST PUSH1 0x0 DUP2 MLOAD SWAP1 POP SWAP2 SWAP1 POP JUMP JUMPDEST PUSH1 0x0 DUP2 MLOAD SWAP1 POP SWAP2 SWAP1 POP JUMP JUMPDEST PUSH1 0x0 DUP2 MLOAD SWAP1 POP SWAP2 SWAP1 POP JUMP JUMPDEST PUSH1 0x0 PUSH1 0x20 DUP3 ADD SWAP1 POP SWAP2 SWAP1 POP JUMP JUMPDEST PUSH1 0x0 PUSH1 0x20 DUP3 ADD SWAP1 POP SWAP2 SWAP1 POP JUMP JUMPDEST PUSH1 0x0 PUSH1 0x20 DUP3 ADD SWAP1 POP SWAP2 SWAP1 POP JUMP JUMPDEST PUSH1 0x0 DUP3 DUP3 MSTORE PUSH1 0x20 DUP3 ADD SWAP1 POP SWAP3 SWAP2 POP POP JUMP JUMPDEST PUSH1 0x0 DUP3 DUP3 MSTORE PUSH1 0x20 DUP3 ADD SWAP1 POP SWAP3 SWAP2 POP POP JUMP JUMPDEST PUSH1 0x0 DUP3 DUP3 MSTORE PUSH1 0x20 DUP3 ADD SWAP1 POP SWAP3 SWAP2 POP POP JUMP JUMPDEST PUSH1 0x0 DUP2 SWAP1 POP SWAP3 SWAP2 POP POP JUMP JUMPDEST PUSH1 0x0 DUP3 DUP3 MSTORE PUSH1 0x20 DUP3 ADD SWAP1 POP SWAP3 SWAP2 POP POP JUMP JUMPDEST PUSH1 0x0 DUP3 DUP3 MSTORE PUSH1 0x20 DUP3 ADD SWAP1 POP SWAP3 SWAP2 POP POP JUMP JUMPDEST PUSH1 0x0 DUP2 SWAP1 POP SWAP3 SWAP2 POP POP JUMP JUMPDEST PUSH1 0x0 PUSH2 0x5145 DUP3 PUSH2 0x528D JUMP JUMPDEST SWAP2 POP PUSH2 0x5150 DUP4 PUSH2 0x528D JUMP JUMPDEST SWAP3 POP DUP3 PUSH32 0xFFFFFFFFFFFFFFFFFFFFFFFFFFFFFFFFFFFFFFFFFFFFFFFFFFFFFFFFFFFFFFFF SUB DUP3 GT ISZERO PUSH2 0x5185 JUMPI PUSH2 0x5184 PUSH2 0x5385 JUMP JUMPDEST JUMPDEST DUP3 DUP3 ADD SWAP1 POP SWAP3 SWAP2 POP POP JUMP JUMPDEST PUSH1 0x0 PUSH2 0x519B DUP3 PUSH2 0x528D JUMP JUMPDEST SWAP2 POP PUSH2 0x51A6 DUP4 PUSH2 0x528D JUMP JUMPDEST SWAP3 POP DUP3 PUSH2 0x51B6 JUMPI PUSH2 0x51B5 PUSH2 0x53B4 JUMP JUMPDEST JUMPDEST DUP3 DUP3 DIV SWAP1 POP SWAP3 SWAP2 POP POP JUMP JUMPDEST PUSH1 0x0 PUSH2 0x51CC DUP3 PUSH2 0x528D JUMP JUMPDEST SWAP2 POP PUSH2 0x51D7 DUP4 PUSH2 0x528D JUMP JUMPDEST SWAP3 POP DUP2 PUSH32 0xFFFFFFFFFFFFFFFFFFFFFFFFFFFFFFFFFFFFFFFFFFFFFFFFFFFFFFFFFFFFFFFF DIV DUP4 GT DUP3 ISZERO ISZERO AND ISZERO PUSH2 0x5210 JUMPI PUSH2 0x520F PUSH2 0x5385 JUMP JUMPDEST JUMPDEST DUP3 DUP3 MUL SWAP1 POP SWAP3 SWAP2 POP POP JUMP JUMPDEST PUSH1 0x0 PUSH2 0x5226 DUP3 PUSH2 0x528D JUMP JUMPDEST SWAP2 POP PUSH2 0x5231 DUP4 PUSH2 0x528D JUMP JUMPDEST SWAP3 POP DUP3 DUP3 LT ISZERO PUSH2 0x5244 JUMPI PUSH2 0x5243 PUSH2 0x5385 JUMP JUMPDEST JUMPDEST DUP3 DUP3 SUB SWAP1 POP SWAP3 SWAP2 POP POP JUMP JUMPDEST PUSH1 0x0 PUSH2 0x525A DUP3 PUSH2 0x526D JUMP JUMPDEST SWAP1 POP SWAP2 SWAP1 POP JUMP JUMPDEST PUSH1 0x0 DUP2 ISZERO ISZERO SWAP1 POP SWAP2 SWAP1 POP JUMP JUMPDEST PUSH1 0x0 PUSH20 0xFFFFFFFFFFFFFFFFFFFFFFFFFFFFFFFFFFFFFFFF DUP3 AND SWAP1 POP SWAP2 SWAP1 POP JUMP JUMPDEST PUSH1 0x0 DUP2 SWAP1 POP SWAP2 SWAP1 POP JUMP JUMPDEST DUP3 DUP2 DUP4 CALLDATACOPY PUSH1 0x0 DUP4 DUP4 ADD MSTORE POP POP POP JUMP JUMPDEST PUSH1 0x0 JUMPDEST DUP4 DUP2 LT ISZERO PUSH2 0x52C4 JUMPI DUP1 DUP3 ADD MLOAD DUP2 DUP5 ADD MSTORE PUSH1 0x20 DUP2 ADD SWAP1 POP PUSH2 0x52A9 JUMP JUMPDEST DUP4 DUP2 GT ISZERO PUSH2 0x52D3 JUMPI PUSH1 0x0 DUP5 DUP5 ADD MSTORE JUMPDEST POP POP POP POP JUMP JUMPDEST PUSH1 0x0 PUSH1 0x2 DUP3 DIV SWAP1 POP PUSH1 0x1 DUP3 AND DUP1 PUSH2 0x52F1 JUMPI PUSH1 0x7F DUP3 AND SWAP2 POP JUMPDEST PUSH1 0x20 DUP3 LT DUP2 EQ ISZERO PUSH2 0x5305 JUMPI PUSH2 0x5304 PUSH2 0x53E3 JUMP JUMPDEST JUMPDEST POP SWAP2 SWAP1 POP JUMP JUMPDEST PUSH2 0x5314 DUP3 PUSH2 0x5489 JUMP JUMPDEST DUP2 ADD DUP2 DUP2 LT PUSH8 0xFFFFFFFFFFFFFFFF DUP3 GT OR ISZERO PUSH2 0x5333 JUMPI PUSH2 0x5332 PUSH2 0x5441 JUMP JUMPDEST JUMPDEST DUP1 PUSH1 0x40 MSTORE POP POP POP JUMP JUMPDEST PUSH1 0x0 PUSH2 0x5347 DUP3 PUSH2 0x528D JUMP JUMPDEST SWAP2 POP PUSH32 0xFFFFFFFFFFFFFFFFFFFFFFFFFFFFFFFFFFFFFFFFFFFFFFFFFFFFFFFFFFFFFFFF DUP3 EQ ISZERO PUSH2 0x537A JUMPI PUSH2 0x5379 PUSH2 0x5385 JUMP JUMPDEST JUMPDEST PUSH1 0x1 DUP3 ADD SWAP1 POP SWAP2 SWAP1 POP JUMP JUMPDEST PUSH32 0x4E487B7100000000000000000000000000000000000000000000000000000000 PUSH1 0x0 MSTORE PUSH1 0x11 PUSH1 0x4 MSTORE PUSH1 0x24 PUSH1 0x0 REVERT JUMPDEST PUSH32 0x4E487B7100000000000000000000000000000000000000000000000000000000 PUSH1 0x0 MSTORE PUSH1 0x12 PUSH1 0x4 MSTORE PUSH1 0x24 PUSH1 0x0 REVERT JUMPDEST PUSH32 0x4E487B7100000000000000000000000000000000000000000000000000000000 PUSH1 0x0 MSTORE PUSH1 0x22 PUSH1 0x4 MSTORE PUSH1 0x24 PUSH1 0x0 REVERT JUMPDEST PUSH32 0x4E487B7100000000000000000000000000000000000000000000000000000000 PUSH1 0x0 MSTORE PUSH1 0x32 PUSH1 0x4 MSTORE PUSH1 0x24 PUSH1 0x0 REVERT JUMPDEST PUSH32 0x4E487B7100000000000000000000000000000000000000000000000000000000 PUSH1 0x0 MSTORE PUSH1 0x41 PUSH1 0x4 MSTORE PUSH1 0x24 PUSH1 0x0 REVERT JUMPDEST PUSH1 0x0 DUP1 REVERT JUMPDEST PUSH1 0x0 DUP1 REVERT JUMPDEST PUSH1 0x0 DUP1 REVERT JUMPDEST PUSH1 0x0 DUP1 REVERT JUMPDEST PUSH1 0x0 DUP1 REVERT JUMPDEST PUSH1 0x0 PUSH1 0x1F NOT PUSH1 0x1F DUP4 ADD AND SWAP1 POP SWAP2 SWAP1 POP JUMP JUMPDEST PUSH32 0x436F756C646E2774207769746864726177210000000000000000000000000000 PUSH1 0x0 DUP3 ADD MSTORE POP JUMP JUMPDEST PUSH32 0x4F776E61626C653A206E6577206F776E657220697320746865207A65726F2061 PUSH1 0x0 DUP3 ADD MSTORE PUSH32 0x6464726573730000000000000000000000000000000000000000000000000000 PUSH1 0x20 DUP3 ADD MSTORE POP JUMP JUMPDEST PUSH32 0x54686520737570706C6965642061646472657373206973206E6F742074686520 PUSH1 0x0 DUP3 ADD MSTORE PUSH32 0x6F776E6572206F66207468652070726F64756374210000000000000000000000 PUSH1 0x20 DUP3 ADD MSTORE POP JUMP JUMPDEST PUSH32 0x5472616E73616374696F6E206661696C65642100000000000000000000000000 PUSH1 0x0 DUP3 ADD MSTORE POP JUMP JUMPDEST PUSH32 0x5065726D697373696F6E2064656E696564000000000000000000000000000000 PUSH1 0x0 DUP3 ADD MSTORE POP JUMP JUMPDEST PUSH32 0x43616E6E6F74207472616E7366657220746F2061646472657373203000000000 PUSH1 0x0 DUP3 ADD MSTORE POP JUMP JUMPDEST PUSH32 0x4F776E61626C653A2063616C6C6572206973206E6F7420746865206F776E6572 PUSH1 0x0 DUP3 ADD MSTORE POP JUMP JUMPDEST PUSH32 0x41646472657373206D757374206E6F7420626520300000000000000000000000 PUSH1 0x0 DUP3 ADD MSTORE POP JUMP JUMPDEST PUSH32 0x41646472657373206F776E657220697320300000000000000000000000000000 PUSH1 0x0 DUP3 ADD MSTORE POP JUMP JUMPDEST POP JUMP JUMPDEST PUSH32 0x4E6F7420656E6F756768207765692073656E7421000000000000000000000000 PUSH1 0x0 DUP3 ADD MSTORE POP JUMP JUMPDEST PUSH2 0x568C DUP2 PUSH2 0x524F JUMP JUMPDEST DUP2 EQ PUSH2 0x5697 JUMPI PUSH1 0x0 DUP1 REVERT JUMPDEST POP JUMP JUMPDEST PUSH2 0x56A3 DUP2 PUSH2 0x5261 JUMP JUMPDEST DUP2 EQ PUSH2 0x56AE JUMPI PUSH1 0x0 DUP1 REVERT JUMPDEST POP JUMP JUMPDEST PUSH2 0x56BA DUP2 PUSH2 0x528D JUMP JUMPDEST DUP2 EQ PUSH2 0x56C5 JUMPI PUSH1 0x0 DUP1 REVERT JUMPDEST POP JUMP INVALID LOG2 PUSH5 0x6970667358 0x22 SLT KECCAK256 SLT PUSH10 0xB51B4E423A713F67EA90 MSTORE PUSH22 0x4E0DB8D7ABDB551A3181E768768E759EE07D64736F6C PUSH4 0x43000807 STOP CALLER "
				},
				"gasEstimates": {
					"creation": {
						"codeDepositCost": "4454000",
						"executionCost": "infinite",
						"totalCost": "infinite"
					},
					"external": {
						"addNonSellableProduct(string,string,string,string[])": "infinite",
						"approve(address,uint256)": "29362",
						"balanceOf(address)": "infinite",
						"buyProduct(uint256,address,address)": "infinite",
						"checkProductOwnership(uint256)": "5118",
						"filterSellingProducts(string,string,address,uint256,uint256,uint256)": "infinite",
						"getAllProductsForSale(uint256,uint256)": "infinite",
						"getApproved(uint256)": "2889",
						"getHistoryForProduct(uint256)": "infinite",
						"getOwnerProducts(uint256,uint256)": "infinite",
						"getSellableProductDetails(uint256)": "infinite",
						"isApprovedForAll(address,address)": "infinite",
						"listExistingProductForSale(uint256,uint256)": "infinite",
						"listProductForSale(string,string,string,string[],uint256)": "infinite",
						"ownedSellableProducts(address,uint256)": "infinite",
						"owner()": "2589",
						"ownerOf(uint256)": "9444",
						"productHistory(uint256,uint256)": "infinite",
						"renounceOwnership()": "30419",
						"safeTransferFrom(address,address,uint256)": "infinite",
						"safeTransferFrom(address,address,uint256,bytes)": "infinite",
						"setApprovalForAll(address,bool)": "25191",
						"setFeePercentage(uint256)": "24893",
						"transferFrom(address,address,uint256)": "infinite",
						"transferOwnership(address)": "30811",
						"withdraw()": "infinite"
					},
					"internal": {
						"clone(struct MarketPlace.Product memory)": "infinite",
						"containsWord(string memory,string memory)": "infinite",
						"transferFromNonSellableToSellable(address,uint256,uint256)": "infinite",
						"transferFromSellableToNonSellable(address,address,uint256)": "97622"
					}
				},
				"methodIdentifiers": {
					"addNonSellableProduct(string,string,string,string[])": "dd46fa5d",
					"approve(address,uint256)": "095ea7b3",
					"balanceOf(address)": "70a08231",
					"buyProduct(uint256,address,address)": "3996345e",
					"checkProductOwnership(uint256)": "28cbc038",
					"filterSellingProducts(string,string,address,uint256,uint256,uint256)": "9ccbff6b",
					"getAllProductsForSale(uint256,uint256)": "6d168461",
					"getApproved(uint256)": "081812fc",
					"getHistoryForProduct(uint256)": "fe3d5538",
					"getOwnerProducts(uint256,uint256)": "3f255ff9",
					"getSellableProductDetails(uint256)": "bed59eae",
					"isApprovedForAll(address,address)": "e985e9c5",
					"listExistingProductForSale(uint256,uint256)": "e31465df",
					"listProductForSale(string,string,string,string[],uint256)": "0e448c1e",
					"ownedSellableProducts(address,uint256)": "22634d21",
					"owner()": "8da5cb5b",
					"ownerOf(uint256)": "6352211e",
					"productHistory(uint256,uint256)": "3a7d2376",
					"renounceOwnership()": "715018a6",
					"safeTransferFrom(address,address,uint256)": "42842e0e",
					"safeTransferFrom(address,address,uint256,bytes)": "b88d4fde",
					"setApprovalForAll(address,bool)": "a22cb465",
					"setFeePercentage(uint256)": "ae06c1b7",
					"transferFrom(address,address,uint256)": "23b872dd",
					"transferOwnership(address)": "f2fde38b",
					"withdraw()": "3ccfd60b"
				}
			},
			"storageLayout": {
				"storage": [
					{
						"astId": 1511,
						"contract": "Desktop/DigitalMarketplace/contracts/MarketPlace.sol:MarketPlace",
						"label": "_owner",
						"offset": 0,
						"slot": "0",
						"type": "t_address"
					},
					{
						"astId": 181,
						"contract": "Desktop/DigitalMarketplace/contracts/MarketPlace.sol:MarketPlace",
						"label": "idCount",
						"offset": 0,
						"slot": "1",
						"type": "t_uint256"
					},
					{
						"astId": 188,
						"contract": "Desktop/DigitalMarketplace/contracts/MarketPlace.sol:MarketPlace",
						"label": "ownedSellableProducts",
						"offset": 0,
						"slot": "2",
						"type": "t_mapping(t_address,t_mapping(t_uint256,t_struct(SellableProduct)178_storage))"
					},
					{
						"astId": 194,
						"contract": "Desktop/DigitalMarketplace/contracts/MarketPlace.sol:MarketPlace",
						"label": "ownedNonSellableProducts",
						"offset": 0,
						"slot": "3",
						"type": "t_mapping(t_address,t_mapping(t_uint256,t_bool))"
					},
					{
						"astId": 198,
						"contract": "Desktop/DigitalMarketplace/contracts/MarketPlace.sol:MarketPlace",
						"label": "productToApprovedAddress",
						"offset": 0,
						"slot": "4",
						"type": "t_mapping(t_uint256,t_address)"
					},
					{
						"astId": 204,
						"contract": "Desktop/DigitalMarketplace/contracts/MarketPlace.sol:MarketPlace",
						"label": "addressToOperatorCheck",
						"offset": 0,
						"slot": "5",
						"type": "t_mapping(t_address,t_mapping(t_address,t_bool))"
					},
					{
						"astId": 210,
						"contract": "Desktop/DigitalMarketplace/contracts/MarketPlace.sol:MarketPlace",
						"label": "productHistory",
						"offset": 0,
						"slot": "6",
						"type": "t_mapping(t_uint256,t_array(t_struct(TransactionDetails)169_storage)dyn_storage)"
					},
					{
						"astId": 214,
						"contract": "Desktop/DigitalMarketplace/contracts/MarketPlace.sol:MarketPlace",
						"label": "products",
						"offset": 0,
						"slot": "7",
						"type": "t_array(t_struct(Product)158_storage)dyn_storage"
					},
					{
						"astId": 217,
						"contract": "Desktop/DigitalMarketplace/contracts/MarketPlace.sol:MarketPlace",
						"label": "feePricePercentage",
						"offset": 0,
						"slot": "8",
						"type": "t_uint256"
					}
				],
				"types": {
					"t_address": {
						"encoding": "inplace",
						"label": "address",
						"numberOfBytes": "20"
					},
					"t_array(t_string_storage)dyn_storage": {
						"base": "t_string_storage",
						"encoding": "dynamic_array",
						"label": "string[]",
						"numberOfBytes": "32"
					},
					"t_array(t_struct(Product)158_storage)dyn_storage": {
						"base": "t_struct(Product)158_storage",
						"encoding": "dynamic_array",
						"label": "struct MarketPlace.Product[]",
						"numberOfBytes": "32"
					},
					"t_array(t_struct(TransactionDetails)169_storage)dyn_storage": {
						"base": "t_struct(TransactionDetails)169_storage",
						"encoding": "dynamic_array",
						"label": "struct MarketPlace.TransactionDetails[]",
						"numberOfBytes": "32"
					},
					"t_bool": {
						"encoding": "inplace",
						"label": "bool",
						"numberOfBytes": "1"
					},
					"t_mapping(t_address,t_bool)": {
						"encoding": "mapping",
						"key": "t_address",
						"label": "mapping(address => bool)",
						"numberOfBytes": "32",
						"value": "t_bool"
					},
					"t_mapping(t_address,t_mapping(t_address,t_bool))": {
						"encoding": "mapping",
						"key": "t_address",
						"label": "mapping(address => mapping(address => bool))",
						"numberOfBytes": "32",
						"value": "t_mapping(t_address,t_bool)"
					},
					"t_mapping(t_address,t_mapping(t_uint256,t_bool))": {
						"encoding": "mapping",
						"key": "t_address",
						"label": "mapping(address => mapping(uint256 => bool))",
						"numberOfBytes": "32",
						"value": "t_mapping(t_uint256,t_bool)"
					},
					"t_mapping(t_address,t_mapping(t_uint256,t_struct(SellableProduct)178_storage))": {
						"encoding": "mapping",
						"key": "t_address",
						"label": "mapping(address => mapping(uint256 => struct MarketPlace.SellableProduct))",
						"numberOfBytes": "32",
						"value": "t_mapping(t_uint256,t_struct(SellableProduct)178_storage)"
					},
					"t_mapping(t_uint256,t_address)": {
						"encoding": "mapping",
						"key": "t_uint256",
						"label": "mapping(uint256 => address)",
						"numberOfBytes": "32",
						"value": "t_address"
					},
					"t_mapping(t_uint256,t_array(t_struct(TransactionDetails)169_storage)dyn_storage)": {
						"encoding": "mapping",
						"key": "t_uint256",
						"label": "mapping(uint256 => struct MarketPlace.TransactionDetails[])",
						"numberOfBytes": "32",
						"value": "t_array(t_struct(TransactionDetails)169_storage)dyn_storage"
					},
					"t_mapping(t_uint256,t_bool)": {
						"encoding": "mapping",
						"key": "t_uint256",
						"label": "mapping(uint256 => bool)",
						"numberOfBytes": "32",
						"value": "t_bool"
					},
					"t_mapping(t_uint256,t_struct(SellableProduct)178_storage)": {
						"encoding": "mapping",
						"key": "t_uint256",
						"label": "mapping(uint256 => struct MarketPlace.SellableProduct)",
						"numberOfBytes": "32",
						"value": "t_struct(SellableProduct)178_storage"
					},
					"t_string_storage": {
						"encoding": "bytes",
						"label": "string",
						"numberOfBytes": "32"
					},
					"t_struct(Product)158_storage": {
						"encoding": "inplace",
						"label": "struct MarketPlace.Product",
						"members": [
							{
								"astId": 144,
								"contract": "Desktop/DigitalMarketplace/contracts/MarketPlace.sol:MarketPlace",
								"label": "id",
								"offset": 0,
								"slot": "0",
								"type": "t_uint256"
							},
							{
								"astId": 146,
								"contract": "Desktop/DigitalMarketplace/contracts/MarketPlace.sol:MarketPlace",
								"label": "owner",
								"offset": 0,
								"slot": "1",
								"type": "t_address"
							},
							{
								"astId": 148,
								"contract": "Desktop/DigitalMarketplace/contracts/MarketPlace.sol:MarketPlace",
								"label": "name",
								"offset": 0,
								"slot": "2",
								"type": "t_string_storage"
							},
							{
								"astId": 150,
								"contract": "Desktop/DigitalMarketplace/contracts/MarketPlace.sol:MarketPlace",
								"label": "description",
								"offset": 0,
								"slot": "3",
								"type": "t_string_storage"
							},
							{
								"astId": 152,
								"contract": "Desktop/DigitalMarketplace/contracts/MarketPlace.sol:MarketPlace",
								"label": "link",
								"offset": 0,
								"slot": "4",
								"type": "t_string_storage"
							},
							{
								"astId": 155,
								"contract": "Desktop/DigitalMarketplace/contracts/MarketPlace.sol:MarketPlace",
								"label": "tags",
								"offset": 0,
								"slot": "5",
								"type": "t_array(t_string_storage)dyn_storage"
							},
							{
								"astId": 157,
								"contract": "Desktop/DigitalMarketplace/contracts/MarketPlace.sol:MarketPlace",
								"label": "forSale",
								"offset": 0,
								"slot": "6",
								"type": "t_bool"
							}
						],
						"numberOfBytes": "224"
					},
					"t_struct(SellableProduct)178_storage": {
						"encoding": "inplace",
						"label": "struct MarketPlace.SellableProduct",
						"members": [
							{
								"astId": 171,
								"contract": "Desktop/DigitalMarketplace/contracts/MarketPlace.sol:MarketPlace",
								"label": "price",
								"offset": 0,
								"slot": "0",
								"type": "t_uint256"
							},
							{
								"astId": 173,
								"contract": "Desktop/DigitalMarketplace/contracts/MarketPlace.sol:MarketPlace",
								"label": "fees",
								"offset": 0,
								"slot": "1",
								"type": "t_uint256"
							},
							{
								"astId": 175,
								"contract": "Desktop/DigitalMarketplace/contracts/MarketPlace.sol:MarketPlace",
								"label": "datetime",
								"offset": 0,
								"slot": "2",
								"type": "t_uint256"
							},
							{
								"astId": 177,
								"contract": "Desktop/DigitalMarketplace/contracts/MarketPlace.sol:MarketPlace",
								"label": "productId",
								"offset": 0,
								"slot": "3",
								"type": "t_uint256"
							}
						],
						"numberOfBytes": "128"
					},
					"t_struct(TransactionDetails)169_storage": {
						"encoding": "inplace",
						"label": "struct MarketPlace.TransactionDetails",
						"members": [
							{
								"astId": 160,
								"contract": "Desktop/DigitalMarketplace/contracts/MarketPlace.sol:MarketPlace",
								"label": "price",
								"offset": 0,
								"slot": "0",
								"type": "t_uint256"
							},
							{
								"astId": 162,
								"contract": "Desktop/DigitalMarketplace/contracts/MarketPlace.sol:MarketPlace",
								"label": "fees",
								"offset": 0,
								"slot": "1",
								"type": "t_uint256"
							},
							{
								"astId": 164,
								"contract": "Desktop/DigitalMarketplace/contracts/MarketPlace.sol:MarketPlace",
								"label": "datetime",
								"offset": 0,
								"slot": "2",
								"type": "t_uint256"
							},
							{
								"astId": 166,
								"contract": "Desktop/DigitalMarketplace/contracts/MarketPlace.sol:MarketPlace",
								"label": "seller",
								"offset": 0,
								"slot": "3",
								"type": "t_address"
							},
							{
								"astId": 168,
								"contract": "Desktop/DigitalMarketplace/contracts/MarketPlace.sol:MarketPlace",
								"label": "buyer",
								"offset": 0,
								"slot": "4",
								"type": "t_address"
							}
						],
						"numberOfBytes": "160"
					},
					"t_uint256": {
						"encoding": "inplace",
						"label": "uint256",
						"numberOfBytes": "32"
					}
				}
			},
			"userdoc": {
				"kind": "user",
				"methods": {
					"approve(address,uint256)": {
						"notice": "Change or reaffirm the approved address for an NFT"
					},
					"balanceOf(address)": {
						"notice": "Count all NFTs assigned to an owner"
					},
					"getApproved(uint256)": {
						"notice": "Get the approved address for a single NFT"
					},
					"isApprovedForAll(address,address)": {
						"notice": "Query if an address is an authorized operator for another address"
					},
					"ownerOf(uint256)": {
						"notice": "Find the owner of an NFT"
					},
					"safeTransferFrom(address,address,uint256)": {
						"notice": "Transfers the ownership of an NFT from one address to another address"
					},
					"safeTransferFrom(address,address,uint256,bytes)": {
						"notice": "Transfers the ownership of an NFT from one address to another address"
					},
					"setApprovalForAll(address,bool)": {
						"notice": "Enable or disable approval for a third party (\"operator\") to manage  all of `msg.sender`'s assets"
					},
					"transferFrom(address,address,uint256)": {
						"notice": "Transfer ownership of an NFT -- THE CALLER IS RESPONSIBLE  TO CONFIRM THAT `_to` IS CAPABLE OF RECEIVING NFTS OR ELSE  THEY MAY BE PERMANENTLY LOST"
					}
				},
				"version": 1
			}
		}
	}
}