{
	"contracts/MarketPlace.sol": {
		"MarketPlace": {
			"abi": [
				{
					"anonymous": false,
					"inputs": [
						{
							"indexed": true,
							"internalType": "address",
							"name": "previousOwner",
							"type": "address"
						},
						{
							"indexed": true,
							"internalType": "address",
							"name": "newOwner",
							"type": "address"
						}
					],
					"name": "OwnershipTransferred",
					"type": "event"
				},
				{
					"inputs": [
						{
							"internalType": "string",
							"name": "_name",
							"type": "string"
						},
						{
							"internalType": "string",
							"name": "_description",
							"type": "string"
						},
						{
							"internalType": "string",
							"name": "_link",
							"type": "string"
						},
						{
							"internalType": "string[]",
							"name": "_tags",
							"type": "string[]"
						}
					],
					"name": "addNonSellableProduct",
					"outputs": [],
					"stateMutability": "nonpayable",
					"type": "function"
				},
				{
					"inputs": [
						{
							"internalType": "uint256",
							"name": "_productId",
							"type": "uint256"
						},
						{
							"internalType": "address",
							"name": "_productSeller",
							"type": "address"
						}
					],
					"name": "buyProduct",
					"outputs": [],
					"stateMutability": "payable",
					"type": "function"
				},
				{
					"inputs": [
						{
							"internalType": "uint256",
							"name": "_productId",
							"type": "uint256"
						}
					],
					"name": "checkProductOwnership",
					"outputs": [
						{
							"internalType": "address",
							"name": "",
							"type": "address"
						}
					],
					"stateMutability": "view",
					"type": "function"
				},
				{
					"inputs": [
						{
							"internalType": "string",
							"name": "_partialTitle",
							"type": "string"
						},
						{
							"internalType": "string",
							"name": "_category",
							"type": "string"
						},
						{
							"internalType": "address",
							"name": "_owner",
							"type": "address"
						},
						{
							"internalType": "uint256",
							"name": "_date",
							"type": "uint256"
						},
						{
							"internalType": "uint256",
							"name": "_startIndexForSearch",
							"type": "uint256"
						},
						{
							"internalType": "uint256",
							"name": "_maxResults",
							"type": "uint256"
						}
					],
					"name": "filterSellingProducts",
					"outputs": [
						{
							"internalType": "uint256",
							"name": "",
							"type": "uint256"
						},
						{
							"components": [
								{
									"internalType": "uint256",
									"name": "id",
									"type": "uint256"
								},
								{
									"internalType": "address",
									"name": "owner",
									"type": "address"
								},
								{
									"internalType": "string",
									"name": "name",
									"type": "string"
								},
								{
									"internalType": "string",
									"name": "description",
									"type": "string"
								},
								{
									"internalType": "string",
									"name": "link",
									"type": "string"
								},
								{
									"internalType": "string[]",
									"name": "tags",
									"type": "string[]"
								},
								{
									"internalType": "bool",
									"name": "forSale",
									"type": "bool"
								}
							],
							"internalType": "struct MarketPlace.Product[]",
							"name": "",
							"type": "tuple[]"
						}
					],
					"stateMutability": "view",
					"type": "function"
				},
				{
					"inputs": [
						{
							"internalType": "uint256",
							"name": "_startIndexForSearch",
							"type": "uint256"
						},
						{
							"internalType": "uint256",
							"name": "_maxResults",
							"type": "uint256"
						}
					],
					"name": "getAllProductsForSale",
					"outputs": [
						{
							"internalType": "uint256",
							"name": "",
							"type": "uint256"
						},
						{
							"components": [
								{
									"internalType": "uint256",
									"name": "id",
									"type": "uint256"
								},
								{
									"internalType": "address",
									"name": "owner",
									"type": "address"
								},
								{
									"internalType": "string",
									"name": "name",
									"type": "string"
								},
								{
									"internalType": "string",
									"name": "description",
									"type": "string"
								},
								{
									"internalType": "string",
									"name": "link",
									"type": "string"
								},
								{
									"internalType": "string[]",
									"name": "tags",
									"type": "string[]"
								},
								{
									"internalType": "bool",
									"name": "forSale",
									"type": "bool"
								}
							],
							"internalType": "struct MarketPlace.Product[]",
							"name": "",
							"type": "tuple[]"
						}
					],
					"stateMutability": "view",
					"type": "function"
				},
				{
					"inputs": [
						{
							"internalType": "uint256",
							"name": "_productId",
							"type": "uint256"
						}
					],
					"name": "getHistoryForProduct",
					"outputs": [
						{
							"components": [
								{
									"internalType": "uint256",
									"name": "price",
									"type": "uint256"
								},
								{
									"internalType": "uint256",
									"name": "fees",
									"type": "uint256"
								},
								{
									"internalType": "uint256",
									"name": "datetime",
									"type": "uint256"
								},
								{
									"internalType": "address",
									"name": "seller",
									"type": "address"
								},
								{
									"internalType": "address",
									"name": "buyer",
									"type": "address"
								}
							],
							"internalType": "struct MarketPlace.TransactionDetails[]",
							"name": "",
							"type": "tuple[]"
						}
					],
					"stateMutability": "view",
					"type": "function"
				},
				{
					"inputs": [
						{
							"internalType": "uint256",
							"name": "_startIndexForSearch",
							"type": "uint256"
						},
						{
							"internalType": "uint256",
							"name": "_maxResults",
							"type": "uint256"
						}
					],
					"name": "getOwnerProducts",
					"outputs": [
						{
							"internalType": "uint256",
							"name": "",
							"type": "uint256"
						},
						{
							"components": [
								{
									"internalType": "uint256",
									"name": "id",
									"type": "uint256"
								},
								{
									"internalType": "address",
									"name": "owner",
									"type": "address"
								},
								{
									"internalType": "string",
									"name": "name",
									"type": "string"
								},
								{
									"internalType": "string",
									"name": "description",
									"type": "string"
								},
								{
									"internalType": "string",
									"name": "link",
									"type": "string"
								},
								{
									"internalType": "string[]",
									"name": "tags",
									"type": "string[]"
								},
								{
									"internalType": "bool",
									"name": "forSale",
									"type": "bool"
								}
							],
							"internalType": "struct MarketPlace.Product[]",
							"name": "",
							"type": "tuple[]"
						}
					],
					"stateMutability": "view",
					"type": "function"
				},
				{
					"inputs": [
						{
							"internalType": "uint256",
							"name": "_productId",
							"type": "uint256"
						}
					],
					"name": "getSellableProductDetails",
					"outputs": [
						{
							"components": [
								{
									"internalType": "uint256",
									"name": "price",
									"type": "uint256"
								},
								{
									"internalType": "uint256",
									"name": "fees",
									"type": "uint256"
								},
								{
									"internalType": "uint256",
									"name": "datetime",
									"type": "uint256"
								},
								{
									"internalType": "uint256",
									"name": "productId",
									"type": "uint256"
								}
							],
							"internalType": "struct MarketPlace.SellableProduct",
							"name": "",
							"type": "tuple"
						}
					],
					"stateMutability": "view",
					"type": "function"
				},
				{
					"inputs": [
						{
							"internalType": "uint256",
							"name": "_productId",
							"type": "uint256"
						},
						{
							"internalType": "uint256",
							"name": "_price",
							"type": "uint256"
						}
					],
					"name": "listExistingProductForSale",
					"outputs": [],
					"stateMutability": "nonpayable",
					"type": "function"
				},
				{
					"inputs": [
						{
							"internalType": "string",
							"name": "_name",
							"type": "string"
						},
						{
							"internalType": "string",
							"name": "_description",
							"type": "string"
						},
						{
							"internalType": "string",
							"name": "_link",
							"type": "string"
						},
						{
							"internalType": "string[]",
							"name": "_tags",
							"type": "string[]"
						},
						{
							"internalType": "uint256",
							"name": "_price",
							"type": "uint256"
						}
					],
					"name": "listProductForSale",
					"outputs": [],
					"stateMutability": "nonpayable",
					"type": "function"
				},
				{
					"inputs": [
						{
							"internalType": "address",
							"name": "",
							"type": "address"
						},
						{
							"internalType": "uint256",
							"name": "",
							"type": "uint256"
						}
					],
					"name": "ownedSellableProducts",
					"outputs": [
						{
							"internalType": "uint256",
							"name": "price",
							"type": "uint256"
						},
						{
							"internalType": "uint256",
							"name": "fees",
							"type": "uint256"
						},
						{
							"internalType": "uint256",
							"name": "datetime",
							"type": "uint256"
						},
						{
							"internalType": "uint256",
							"name": "productId",
							"type": "uint256"
						}
					],
					"stateMutability": "view",
					"type": "function"
				},
				{
					"inputs": [],
					"name": "owner",
					"outputs": [
						{
							"internalType": "address",
							"name": "",
							"type": "address"
						}
					],
					"stateMutability": "view",
					"type": "function"
				},
				{
					"inputs": [
						{
							"internalType": "uint256",
							"name": "",
							"type": "uint256"
						},
						{
							"internalType": "uint256",
							"name": "",
							"type": "uint256"
						}
					],
					"name": "productHistory",
					"outputs": [
						{
							"internalType": "uint256",
							"name": "price",
							"type": "uint256"
						},
						{
							"internalType": "uint256",
							"name": "fees",
							"type": "uint256"
						},
						{
							"internalType": "uint256",
							"name": "datetime",
							"type": "uint256"
						},
						{
							"internalType": "address",
							"name": "seller",
							"type": "address"
						},
						{
							"internalType": "address",
							"name": "buyer",
							"type": "address"
						}
					],
					"stateMutability": "view",
					"type": "function"
				},
				{
					"inputs": [],
					"name": "renounceOwnership",
					"outputs": [],
					"stateMutability": "nonpayable",
					"type": "function"
				},
				{
					"inputs": [
						{
							"internalType": "uint256",
							"name": "_feePercentage",
							"type": "uint256"
						}
					],
					"name": "setFeePercentage",
					"outputs": [],
					"stateMutability": "nonpayable",
					"type": "function"
				},
				{
					"inputs": [
						{
							"internalType": "address",
							"name": "newOwner",
							"type": "address"
						}
					],
					"name": "transferOwnership",
					"outputs": [],
					"stateMutability": "nonpayable",
					"type": "function"
				}
			],
			"devdoc": {
				"kind": "dev",
				"methods": {
					"owner()": {
						"details": "Returns the address of the current owner."
					},
					"renounceOwnership()": {
						"details": "Leaves the contract without owner. It will not be possible to call `onlyOwner` functions anymore. Can only be called by the current owner. NOTE: Renouncing ownership will leave the contract without an owner, thereby removing any functionality that is only available to the owner."
					},
					"transferOwnership(address)": {
						"details": "Transfers ownership of the contract to a new account (`newOwner`). Can only be called by the current owner."
					}
				},
				"version": 1
			},
			"evm": {
				"assembly": "    /* \"contracts/MarketPlace.sol\":62:8493  contract MarketPlace is Ownable {\r... */\n  mstore(0x40, 0x80)\n    /* \"contracts/MarketPlace.sol\":651:652  0 */\n  0x00\n    /* \"contracts/MarketPlace.sol\":625:652  uint256 private idCount = 0 */\n  0x01\n  sstore\n    /* \"contracts/MarketPlace.sol\":983:984  2 */\n  0x02\n    /* \"contracts/MarketPlace.sol\":946:984  uint256 private feePricePercentage = 2 */\n  0x06\n  sstore\n    /* \"contracts/MarketPlace.sol\":62:8493  contract MarketPlace is Ownable {\r... */\n  callvalue\n  dup1\n  iszero\n  tag_1\n  jumpi\n  0x00\n  dup1\n  revert\ntag_1:\n  pop\n    /* \"contracts/Ownable.sol\":950:982  _transferOwnership(_msgSender()) */\n  tag_4\n    /* \"contracts/Ownable.sol\":969:981  _msgSender() */\n  tag_5\n    /* \"contracts/Ownable.sol\":969:979  _msgSender */\n  shl(0x20, tag_6)\n    /* \"contracts/Ownable.sol\":969:981  _msgSender() */\n  0x20\n  shr\n  jump\t// in\ntag_5:\n    /* \"contracts/Ownable.sol\":950:968  _transferOwnership */\n  shl(0x20, tag_7)\n    /* \"contracts/Ownable.sol\":950:982  _transferOwnership(_msgSender()) */\n  0x20\n  shr\n  jump\t// in\ntag_4:\n    /* \"contracts/MarketPlace.sol\":62:8493  contract MarketPlace is Ownable {\r... */\n  jump(tag_8)\n    /* \"contracts/Context.sol\":656:754  function _msgSender() internal view virtual returns (address) {\r... */\ntag_6:\n    /* \"contracts/Context.sol\":709:716  address */\n  0x00\n    /* \"contracts/Context.sol\":736:746  msg.sender */\n  caller\n    /* \"contracts/Context.sol\":729:746  return msg.sender */\n  swap1\n  pop\n    /* \"contracts/Context.sol\":656:754  function _msgSender() internal view virtual returns (address) {\r... */\n  swap1\n  jump\t// out\n    /* \"contracts/Ownable.sol\":2341:2532  function _transferOwnership(address newOwner) internal virtual {\r... */\ntag_7:\n    /* \"contracts/Ownable.sol\":2415:2431  address oldOwner */\n  0x00\n    /* \"contracts/Ownable.sol\":2434:2440  _owner */\n  dup1\n  0x00\n  swap1\n  sload\n  swap1\n  0x0100\n  exp\n  swap1\n  div\n  0xffffffffffffffffffffffffffffffffffffffff\n  and\n    /* \"contracts/Ownable.sol\":2415:2440  address oldOwner = _owner */\n  swap1\n  pop\n    /* \"contracts/Ownable.sol\":2460:2468  newOwner */\n  dup2\n    /* \"contracts/Ownable.sol\":2451:2457  _owner */\n  0x00\n  dup1\n    /* \"contracts/Ownable.sol\":2451:2468  _owner = newOwner */\n  0x0100\n  exp\n  dup2\n  sload\n  dup2\n  0xffffffffffffffffffffffffffffffffffffffff\n  mul\n  not\n  and\n  swap1\n  dup4\n  0xffffffffffffffffffffffffffffffffffffffff\n  and\n  mul\n  or\n  swap1\n  sstore\n  pop\n    /* \"contracts/Ownable.sol\":2515:2523  newOwner */\n  dup2\n    /* \"contracts/Ownable.sol\":2484:2524  OwnershipTransferred(oldOwner, newOwner) */\n  0xffffffffffffffffffffffffffffffffffffffff\n  and\n    /* \"contracts/Ownable.sol\":2505:2513  oldOwner */\n  dup2\n    /* \"contracts/Ownable.sol\":2484:2524  OwnershipTransferred(oldOwner, newOwner) */\n  0xffffffffffffffffffffffffffffffffffffffff\n  and\n  0x8be0079c531659141344cd1fd0a4f28419497f9722a3daafe3b4186f6b6457e0\n  mload(0x40)\n  mload(0x40)\n  dup1\n  swap2\n  sub\n  swap1\n  log3\n    /* \"contracts/Ownable.sol\":2404:2532  {\r... */\n  pop\n    /* \"contracts/Ownable.sol\":2341:2532  function _transferOwnership(address newOwner) internal virtual {\r... */\n  pop\n  jump\t// out\n    /* \"contracts/MarketPlace.sol\":62:8493  contract MarketPlace is Ownable {\r... */\ntag_8:\n  dataSize(sub_0)\n  dup1\n  dataOffset(sub_0)\n  0x00\n  codecopy\n  0x00\n  return\nstop\n\nsub_0: assembly {\n        /* \"contracts/MarketPlace.sol\":62:8493  contract MarketPlace is Ownable {\r... */\n      mstore(0x40, 0x80)\n      jumpi(tag_1, lt(calldatasize, 0x04))\n      shr(0xe0, calldataload(0x00))\n      dup1\n      0x9ccbff6b\n      gt\n      tag_18\n      jumpi\n      dup1\n      0xdd46fa5d\n      gt\n      tag_19\n      jumpi\n      dup1\n      0xdd46fa5d\n      eq\n      tag_14\n      jumpi\n      dup1\n      0xe31465df\n      eq\n      tag_15\n      jumpi\n      dup1\n      0xf2fde38b\n      eq\n      tag_16\n      jumpi\n      dup1\n      0xfe3d5538\n      eq\n      tag_17\n      jumpi\n      jump(tag_1)\n    tag_19:\n      dup1\n      0x9ccbff6b\n      eq\n      tag_10\n      jumpi\n      dup1\n      0xa3274c21\n      eq\n      tag_11\n      jumpi\n      dup1\n      0xae06c1b7\n      eq\n      tag_12\n      jumpi\n      dup1\n      0xbed59eae\n      eq\n      tag_13\n      jumpi\n      jump(tag_1)\n    tag_18:\n      dup1\n      0x3f255ff9\n      gt\n      tag_20\n      jumpi\n      dup1\n      0x3f255ff9\n      eq\n      tag_6\n      jumpi\n      dup1\n      0x6d168461\n      eq\n      tag_7\n      jumpi\n      dup1\n      0x715018a6\n      eq\n      tag_8\n      jumpi\n      dup1\n      0x8da5cb5b\n      eq\n      tag_9\n      jumpi\n      jump(tag_1)\n    tag_20:\n      dup1\n      0x0e448c1e\n      eq\n      tag_2\n      jumpi\n      dup1\n      0x22634d21\n      eq\n      tag_3\n      jumpi\n      dup1\n      0x28cbc038\n      eq\n      tag_4\n      jumpi\n      dup1\n      0x3a7d2376\n      eq\n      tag_5\n      jumpi\n    tag_1:\n      0x00\n      dup1\n      revert\n        /* \"contracts/MarketPlace.sol\":1559:2009  function listProductForSale(string memory _name, string memory _description, string memory _link, string[] memory _tags, uint256 _price) external {\r... */\n    tag_2:\n      callvalue\n      dup1\n      iszero\n      tag_21\n      jumpi\n      0x00\n      dup1\n      revert\n    tag_21:\n      pop\n      tag_22\n      0x04\n      dup1\n      calldatasize\n      sub\n      dup2\n      add\n      swap1\n      tag_23\n      swap2\n      swap1\n      tag_24\n      jump\t// in\n    tag_23:\n      tag_25\n      jump\t// in\n    tag_22:\n      stop\n        /* \"contracts/MarketPlace.sol\":661:745  mapping(address => mapping(uint256 => SellableProduct)) public ownedSellableProducts */\n    tag_3:\n      callvalue\n      dup1\n      iszero\n      tag_26\n      jumpi\n      0x00\n      dup1\n      revert\n    tag_26:\n      pop\n      tag_27\n      0x04\n      dup1\n      calldatasize\n      sub\n      dup2\n      add\n      swap1\n      tag_28\n      swap2\n      swap1\n      tag_29\n      jump\t// in\n    tag_28:\n      tag_30\n      jump\t// in\n    tag_27:\n      mload(0x40)\n      tag_31\n      swap5\n      swap4\n      swap3\n      swap2\n      swap1\n      tag_32\n      jump\t// in\n    tag_31:\n      mload(0x40)\n      dup1\n      swap2\n      sub\n      swap1\n      return\n        /* \"contracts/MarketPlace.sol\":8355:8490  function checkProductOwnership(uint256 _productId) external view returns (address) {\r... */\n    tag_4:\n      callvalue\n      dup1\n      iszero\n      tag_33\n      jumpi\n      0x00\n      dup1\n      revert\n    tag_33:\n      pop\n      tag_34\n      0x04\n      dup1\n      calldatasize\n      sub\n      dup2\n      add\n      swap1\n      tag_35\n      swap2\n      swap1\n      tag_36\n      jump\t// in\n    tag_35:\n      tag_37\n      jump\t// in\n    tag_34:\n      mload(0x40)\n      tag_38\n      swap2\n      swap1\n      tag_39\n      jump\t// in\n    tag_38:\n      mload(0x40)\n      dup1\n      swap2\n      sub\n      swap1\n      return\n        /* \"contracts/MarketPlace.sol\":840:902  mapping(uint256 => TransactionDetails[]) public productHistory */\n    tag_5:\n      callvalue\n      dup1\n      iszero\n      tag_40\n      jumpi\n      0x00\n      dup1\n      revert\n    tag_40:\n      pop\n      tag_41\n      0x04\n      dup1\n      calldatasize\n      sub\n      dup2\n      add\n      swap1\n      tag_42\n      swap2\n      swap1\n      tag_43\n      jump\t// in\n    tag_42:\n      tag_44\n      jump\t// in\n    tag_41:\n      mload(0x40)\n      tag_45\n      swap6\n      swap5\n      swap4\n      swap3\n      swap2\n      swap1\n      tag_46\n      jump\t// in\n    tag_45:\n      mload(0x40)\n      dup1\n      swap2\n      sub\n      swap1\n      return\n        /* \"contracts/MarketPlace.sol\":7753:8347  function getOwnerProducts(uint256 _startIndexForSearch, uint256 _maxResults) external view returns (uint256, Product[] memory) {\r... */\n    tag_6:\n      callvalue\n      dup1\n      iszero\n      tag_47\n      jumpi\n      0x00\n      dup1\n      revert\n    tag_47:\n      pop\n      tag_48\n      0x04\n      dup1\n      calldatasize\n      sub\n      dup2\n      add\n      swap1\n      tag_49\n      swap2\n      swap1\n      tag_43\n      jump\t// in\n    tag_49:\n      tag_50\n      jump\t// in\n    tag_48:\n      mload(0x40)\n      tag_51\n      swap3\n      swap2\n      swap1\n      tag_52\n      jump\t// in\n    tag_51:\n      mload(0x40)\n      dup1\n      swap2\n      sub\n      swap1\n      return\n        /* \"contracts/MarketPlace.sol\":4232:4793  function getAllProductsForSale(uint256 _startIndexForSearch, uint256 _maxResults) external view returns (uint256, Product[] memory) {\r... */\n    tag_7:\n      callvalue\n      dup1\n      iszero\n      tag_53\n      jumpi\n      0x00\n      dup1\n      revert\n    tag_53:\n      pop\n      tag_54\n      0x04\n      dup1\n      calldatasize\n      sub\n      dup2\n      add\n      swap1\n      tag_55\n      swap2\n      swap1\n      tag_43\n      jump\t// in\n    tag_55:\n      tag_56\n      jump\t// in\n    tag_54:\n      mload(0x40)\n      tag_57\n      swap3\n      swap2\n      swap1\n      tag_52\n      jump\t// in\n    tag_57:\n      mload(0x40)\n      dup1\n      swap2\n      sub\n      swap1\n      return\n        /* \"contracts/Ownable.sol\":1722:1825  function renounceOwnership() public virtual onlyOwner {\r... */\n    tag_8:\n      callvalue\n      dup1\n      iszero\n      tag_58\n      jumpi\n      0x00\n      dup1\n      revert\n    tag_58:\n      pop\n      tag_59\n      tag_60\n      jump\t// in\n    tag_59:\n      stop\n        /* \"contracts/Ownable.sol\":1071:1158  function owner() public view virtual returns (address) {\r... */\n    tag_9:\n      callvalue\n      dup1\n      iszero\n      tag_61\n      jumpi\n      0x00\n      dup1\n      revert\n    tag_61:\n      pop\n      tag_62\n      tag_63\n      jump\t// in\n    tag_62:\n      mload(0x40)\n      tag_64\n      swap2\n      swap1\n      tag_39\n      jump\t// in\n    tag_64:\n      mload(0x40)\n      dup1\n      swap2\n      sub\n      swap1\n      return\n        /* \"contracts/MarketPlace.sol\":4801:6517  function filterSellingProducts(string memory _partialTitle, string memory _category, address _owner, uint256 _date, uint256 _startIndexForSearch, uint256 _maxResults) external view returns (uint256, Product[] memory) {\r... */\n    tag_10:\n      callvalue\n      dup1\n      iszero\n      tag_65\n      jumpi\n      0x00\n      dup1\n      revert\n    tag_65:\n      pop\n      tag_66\n      0x04\n      dup1\n      calldatasize\n      sub\n      dup2\n      add\n      swap1\n      tag_67\n      swap2\n      swap1\n      tag_68\n      jump\t// in\n    tag_67:\n      tag_69\n      jump\t// in\n    tag_66:\n      mload(0x40)\n      tag_70\n      swap3\n      swap2\n      swap1\n      tag_52\n      jump\t// in\n    tag_70:\n      mload(0x40)\n      dup1\n      swap2\n      sub\n      swap1\n      return\n        /* \"contracts/MarketPlace.sol\":3362:4224  function buyProduct(uint256 _productId, address _productSeller) external payable isProductOwner(_productId, _productSeller) {\r... */\n    tag_11:\n      tag_71\n      0x04\n      dup1\n      calldatasize\n      sub\n      dup2\n      add\n      swap1\n      tag_72\n      swap2\n      swap1\n      tag_73\n      jump\t// in\n    tag_72:\n      tag_74\n      jump\t// in\n    tag_71:\n      stop\n        /* \"contracts/MarketPlace.sol\":1194:1317  function setFeePercentage(uint256 _feePercentage) external onlyOwner {\r... */\n    tag_12:\n      callvalue\n      dup1\n      iszero\n      tag_75\n      jumpi\n      0x00\n      dup1\n      revert\n    tag_75:\n      pop\n      tag_76\n      0x04\n      dup1\n      calldatasize\n      sub\n      dup2\n      add\n      swap1\n      tag_77\n      swap2\n      swap1\n      tag_36\n      jump\t// in\n    tag_77:\n      tag_78\n      jump\t// in\n    tag_76:\n      stop\n        /* \"contracts/MarketPlace.sol\":6687:6962  function getSellableProductDetails(uint256 _productId) external view returns (SellableProduct memory) {\r... */\n    tag_13:\n      callvalue\n      dup1\n      iszero\n      tag_79\n      jumpi\n      0x00\n      dup1\n      revert\n    tag_79:\n      pop\n      tag_80\n      0x04\n      dup1\n      calldatasize\n      sub\n      dup2\n      add\n      swap1\n      tag_81\n      swap2\n      swap1\n      tag_36\n      jump\t// in\n    tag_81:\n      tag_82\n      jump\t// in\n    tag_80:\n      mload(0x40)\n      tag_83\n      swap2\n      swap1\n      tag_84\n      jump\t// in\n    tag_83:\n      mload(0x40)\n      dup1\n      swap2\n      sub\n      swap1\n      return\n        /* \"contracts/MarketPlace.sol\":2017:2383  function addNonSellableProduct(string memory _name, string memory _description, string memory _link, string[] memory _tags) external {\r... */\n    tag_14:\n      callvalue\n      dup1\n      iszero\n      tag_85\n      jumpi\n      0x00\n      dup1\n      revert\n    tag_85:\n      pop\n      tag_86\n      0x04\n      dup1\n      calldatasize\n      sub\n      dup2\n      add\n      swap1\n      tag_87\n      swap2\n      swap1\n      tag_88\n      jump\t// in\n    tag_87:\n      tag_89\n      jump\t// in\n    tag_86:\n      stop\n        /* \"contracts/MarketPlace.sol\":3146:3350  function listExistingProductForSale(uint256 _productId, uint256 _price) external isProductOwner(_productId, msg.sender) {\r... */\n    tag_15:\n      callvalue\n      dup1\n      iszero\n      tag_90\n      jumpi\n      0x00\n      dup1\n      revert\n    tag_90:\n      pop\n      tag_91\n      0x04\n      dup1\n      calldatasize\n      sub\n      dup2\n      add\n      swap1\n      tag_92\n      swap2\n      swap1\n      tag_43\n      jump\t// in\n    tag_92:\n      tag_93\n      jump\t// in\n    tag_91:\n      stop\n        /* \"contracts/Ownable.sol\":1980:2181  function transferOwnership(address newOwner) public virtual onlyOwner {\r... */\n    tag_16:\n      callvalue\n      dup1\n      iszero\n      tag_94\n      jumpi\n      0x00\n      dup1\n      revert\n    tag_94:\n      pop\n      tag_95\n      0x04\n      dup1\n      calldatasize\n      sub\n      dup2\n      add\n      swap1\n      tag_96\n      swap2\n      swap1\n      tag_97\n      jump\t// in\n    tag_96:\n      tag_98\n      jump\t// in\n    tag_95:\n      stop\n        /* \"contracts/MarketPlace.sol\":6525:6679  function getHistoryForProduct(uint256 _productId) external view returns (TransactionDetails[] memory) {\r... */\n    tag_17:\n      callvalue\n      dup1\n      iszero\n      tag_99\n      jumpi\n      0x00\n      dup1\n      revert\n    tag_99:\n      pop\n      tag_100\n      0x04\n      dup1\n      calldatasize\n      sub\n      dup2\n      add\n      swap1\n      tag_101\n      swap2\n      swap1\n      tag_36\n      jump\t// in\n    tag_101:\n      tag_102\n      jump\t// in\n    tag_100:\n      mload(0x40)\n      tag_103\n      swap2\n      swap1\n      tag_104\n      jump\t// in\n    tag_103:\n      mload(0x40)\n      dup1\n      swap2\n      sub\n      swap1\n      return\n        /* \"contracts/MarketPlace.sol\":1559:2009  function listProductForSale(string memory _name, string memory _description, string memory _link, string[] memory _tags, uint256 _price) external {\r... */\n    tag_25:\n        /* \"contracts/MarketPlace.sol\":1716:1726  uint256 id */\n      0x00\n        /* \"contracts/MarketPlace.sol\":1729:1736  idCount */\n      0x01\n      0x00\n        /* \"contracts/MarketPlace.sol\":1729:1738  idCount++ */\n      dup2\n      sload\n      dup1\n      swap3\n      swap2\n      swap1\n      tag_106\n      swap1\n      tag_107\n      jump\t// in\n    tag_106:\n      swap2\n      swap1\n      pop\n      sstore\n        /* \"contracts/MarketPlace.sol\":1716:1738  uint256 id = idCount++ */\n      swap1\n      pop\n        /* \"contracts/MarketPlace.sol\":1749:1771  Product memory product */\n      0x00\n        /* \"contracts/MarketPlace.sol\":1774:1838  Product(id, msg.sender, _name, _description, _link, _tags, true) */\n      mload(0x40)\n      dup1\n      0xe0\n      add\n      0x40\n      mstore\n      dup1\n        /* \"contracts/MarketPlace.sol\":1782:1784  id */\n      dup4\n        /* \"contracts/MarketPlace.sol\":1774:1838  Product(id, msg.sender, _name, _description, _link, _tags, true) */\n      dup2\n      mstore\n      0x20\n      add\n        /* \"contracts/MarketPlace.sol\":1786:1796  msg.sender */\n      caller\n        /* \"contracts/MarketPlace.sol\":1774:1838  Product(id, msg.sender, _name, _description, _link, _tags, true) */\n      0xffffffffffffffffffffffffffffffffffffffff\n      and\n      dup2\n      mstore\n      0x20\n      add\n        /* \"contracts/MarketPlace.sol\":1798:1803  _name */\n      dup9\n        /* \"contracts/MarketPlace.sol\":1774:1838  Product(id, msg.sender, _name, _description, _link, _tags, true) */\n      dup2\n      mstore\n      0x20\n      add\n        /* \"contracts/MarketPlace.sol\":1805:1817  _description */\n      dup8\n        /* \"contracts/MarketPlace.sol\":1774:1838  Product(id, msg.sender, _name, _description, _link, _tags, true) */\n      dup2\n      mstore\n      0x20\n      add\n        /* \"contracts/MarketPlace.sol\":1819:1824  _link */\n      dup7\n        /* \"contracts/MarketPlace.sol\":1774:1838  Product(id, msg.sender, _name, _description, _link, _tags, true) */\n      dup2\n      mstore\n      0x20\n      add\n        /* \"contracts/MarketPlace.sol\":1826:1831  _tags */\n      dup6\n        /* \"contracts/MarketPlace.sol\":1774:1838  Product(id, msg.sender, _name, _description, _link, _tags, true) */\n      dup2\n      mstore\n      0x20\n      add\n        /* \"contracts/MarketPlace.sol\":1833:1837  true */\n      0x01\n        /* \"contracts/MarketPlace.sol\":1774:1838  Product(id, msg.sender, _name, _description, _link, _tags, true) */\n      iszero\n      iszero\n      dup2\n      mstore\n      pop\n        /* \"contracts/MarketPlace.sol\":1749:1838  Product memory product = Product(id, msg.sender, _name, _description, _link, _tags, true) */\n      swap1\n      pop\n        /* \"contracts/MarketPlace.sol\":1849:1857  products */\n      0x05\n        /* \"contracts/MarketPlace.sol\":1863:1870  product */\n      dup2\n        /* \"contracts/MarketPlace.sol\":1849:1871  products.push(product) */\n      swap1\n      dup1\n      0x01\n      dup2\n      sload\n      add\n      dup1\n      dup3\n      sstore\n      dup1\n      swap2\n      pop\n      pop\n      0x01\n      swap1\n      sub\n      swap1\n      0x00\n      mstore\n      keccak256(0x00, 0x20)\n      swap1\n      0x07\n      mul\n      add\n      0x00\n      swap1\n      swap2\n      swap1\n      swap2\n      swap1\n      swap2\n      pop\n      0x00\n      dup3\n      add\n      mload\n      dup2\n      0x00\n      add\n      sstore\n      0x20\n      dup3\n      add\n      mload\n      dup2\n      0x01\n      add\n      exp(0x0100, 0x00)\n      dup2\n      sload\n      dup2\n      0xffffffffffffffffffffffffffffffffffffffff\n      mul\n      not\n      and\n      swap1\n      dup4\n      0xffffffffffffffffffffffffffffffffffffffff\n      and\n      mul\n      or\n      swap1\n      sstore\n      pop\n      0x40\n      dup3\n      add\n      mload\n      dup2\n      0x02\n      add\n      swap1\n      dup1\n      mload\n      swap1\n      0x20\n      add\n      swap1\n      tag_109\n      swap3\n      swap2\n      swap1\n      tag_110\n      jump\t// in\n    tag_109:\n      pop\n      0x60\n      dup3\n      add\n      mload\n      dup2\n      0x03\n      add\n      swap1\n      dup1\n      mload\n      swap1\n      0x20\n      add\n      swap1\n      tag_111\n      swap3\n      swap2\n      swap1\n      tag_110\n      jump\t// in\n    tag_111:\n      pop\n      0x80\n      dup3\n      add\n      mload\n      dup2\n      0x04\n      add\n      swap1\n      dup1\n      mload\n      swap1\n      0x20\n      add\n      swap1\n      tag_112\n      swap3\n      swap2\n      swap1\n      tag_110\n      jump\t// in\n    tag_112:\n      pop\n      0xa0\n      dup3\n      add\n      mload\n      dup2\n      0x05\n      add\n      swap1\n      dup1\n      mload\n      swap1\n      0x20\n      add\n      swap1\n      tag_113\n      swap3\n      swap2\n      swap1\n      tag_114\n      jump\t// in\n    tag_113:\n      pop\n      0xc0\n      dup3\n      add\n      mload\n      dup2\n      0x06\n      add\n      exp(0x0100, 0x00)\n      dup2\n      sload\n      dup2\n      0xff\n      mul\n      not\n      and\n      swap1\n      dup4\n      iszero\n      iszero\n      mul\n      or\n      swap1\n      sstore\n      pop\n      pop\n      pop\n        /* \"contracts/MarketPlace.sol\":1922:2001  SellableProduct(_price, _price * feePricePercentage / 100, block.timestamp, id) */\n      mload(0x40)\n      dup1\n      0x80\n      add\n      0x40\n      mstore\n      dup1\n        /* \"contracts/MarketPlace.sol\":1938:1944  _price */\n      dup5\n        /* \"contracts/MarketPlace.sol\":1922:2001  SellableProduct(_price, _price * feePricePercentage / 100, block.timestamp, id) */\n      dup2\n      mstore\n      0x20\n      add\n        /* \"contracts/MarketPlace.sol\":1976:1979  100 */\n      0x64\n        /* \"contracts/MarketPlace.sol\":1955:1973  feePricePercentage */\n      sload(0x06)\n        /* \"contracts/MarketPlace.sol\":1946:1952  _price */\n      dup7\n        /* \"contracts/MarketPlace.sol\":1946:1973  _price * feePricePercentage */\n      tag_115\n      swap2\n      swap1\n      tag_116\n      jump\t// in\n    tag_115:\n        /* \"contracts/MarketPlace.sol\":1946:1979  _price * feePricePercentage / 100 */\n      tag_117\n      swap2\n      swap1\n      tag_118\n      jump\t// in\n    tag_117:\n        /* \"contracts/MarketPlace.sol\":1922:2001  SellableProduct(_price, _price * feePricePercentage / 100, block.timestamp, id) */\n      dup2\n      mstore\n      0x20\n      add\n        /* \"contracts/MarketPlace.sol\":1981:1996  block.timestamp */\n      timestamp\n        /* \"contracts/MarketPlace.sol\":1922:2001  SellableProduct(_price, _price * feePricePercentage / 100, block.timestamp, id) */\n      dup2\n      mstore\n      0x20\n      add\n        /* \"contracts/MarketPlace.sol\":1998:2000  id */\n      dup4\n        /* \"contracts/MarketPlace.sol\":1922:2001  SellableProduct(_price, _price * feePricePercentage / 100, block.timestamp, id) */\n      dup2\n      mstore\n      pop\n        /* \"contracts/MarketPlace.sol\":1882:1903  ownedSellableProducts */\n      0x02\n        /* \"contracts/MarketPlace.sol\":1882:1915  ownedSellableProducts[msg.sender] */\n      0x00\n        /* \"contracts/MarketPlace.sol\":1904:1914  msg.sender */\n      caller\n        /* \"contracts/MarketPlace.sol\":1882:1915  ownedSellableProducts[msg.sender] */\n      0xffffffffffffffffffffffffffffffffffffffff\n      and\n      0xffffffffffffffffffffffffffffffffffffffff\n      and\n      dup2\n      mstore\n      0x20\n      add\n      swap1\n      dup2\n      mstore\n      0x20\n      add\n      0x00\n      keccak256\n        /* \"contracts/MarketPlace.sol\":1882:1919  ownedSellableProducts[msg.sender][id] */\n      0x00\n        /* \"contracts/MarketPlace.sol\":1916:1918  id */\n      dup5\n        /* \"contracts/MarketPlace.sol\":1882:1919  ownedSellableProducts[msg.sender][id] */\n      dup2\n      mstore\n      0x20\n      add\n      swap1\n      dup2\n      mstore\n      0x20\n      add\n      0x00\n      keccak256\n        /* \"contracts/MarketPlace.sol\":1882:2001  ownedSellableProducts[msg.sender][id] = SellableProduct(_price, _price * feePricePercentage / 100, block.timestamp, id) */\n      0x00\n      dup3\n      add\n      mload\n      dup2\n      0x00\n      add\n      sstore\n      0x20\n      dup3\n      add\n      mload\n      dup2\n      0x01\n      add\n      sstore\n      0x40\n      dup3\n      add\n      mload\n      dup2\n      0x02\n      add\n      sstore\n      0x60\n      dup3\n      add\n      mload\n      dup2\n      0x03\n      add\n      sstore\n      swap1\n      pop\n      pop\n        /* \"contracts/MarketPlace.sol\":1705:2009  {\r... */\n      pop\n      pop\n        /* \"contracts/MarketPlace.sol\":1559:2009  function listProductForSale(string memory _name, string memory _description, string memory _link, string[] memory _tags, uint256 _price) external {\r... */\n      pop\n      pop\n      pop\n      pop\n      pop\n      jump\t// out\n        /* \"contracts/MarketPlace.sol\":661:745  mapping(address => mapping(uint256 => SellableProduct)) public ownedSellableProducts */\n    tag_30:\n      mstore(0x20, 0x02)\n      dup2\n      0x00\n      mstore\n      mstore(0x20, keccak256(0x00, 0x40))\n      dup1\n      0x00\n      mstore\n      keccak256(0x00, 0x40)\n      0x00\n      swap2\n      pop\n      swap2\n      pop\n      pop\n      dup1\n      0x00\n      add\n      sload\n      swap1\n      dup1\n      0x01\n      add\n      sload\n      swap1\n      dup1\n      0x02\n      add\n      sload\n      swap1\n      dup1\n      0x03\n      add\n      sload\n      swap1\n      pop\n      dup5\n      jump\t// out\n        /* \"contracts/MarketPlace.sol\":8355:8490  function checkProductOwnership(uint256 _productId) external view returns (address) {\r... */\n    tag_37:\n        /* \"contracts/MarketPlace.sol\":8429:8436  address */\n      0x00\n        /* \"contracts/MarketPlace.sol\":8456:8464  products */\n      0x05\n        /* \"contracts/MarketPlace.sol\":8465:8475  _productId */\n      dup3\n        /* \"contracts/MarketPlace.sol\":8456:8476  products[_productId] */\n      dup2\n      sload\n      dup2\n      lt\n      tag_120\n      jumpi\n      tag_121\n      tag_122\n      jump\t// in\n    tag_121:\n    tag_120:\n      swap1\n      0x00\n      mstore\n      keccak256(0x00, 0x20)\n      swap1\n      0x07\n      mul\n      add\n        /* \"contracts/MarketPlace.sol\":8456:8482  products[_productId].owner */\n      0x01\n      add\n      0x00\n      swap1\n      sload\n      swap1\n      0x0100\n      exp\n      swap1\n      div\n      0xffffffffffffffffffffffffffffffffffffffff\n      and\n        /* \"contracts/MarketPlace.sol\":8449:8482  return products[_productId].owner */\n      swap1\n      pop\n        /* \"contracts/MarketPlace.sol\":8355:8490  function checkProductOwnership(uint256 _productId) external view returns (address) {\r... */\n      swap2\n      swap1\n      pop\n      jump\t// out\n        /* \"contracts/MarketPlace.sol\":840:902  mapping(uint256 => TransactionDetails[]) public productHistory */\n    tag_44:\n      mstore(0x20, 0x04)\n      dup2\n      0x00\n      mstore\n      keccak256(0x00, 0x40)\n      dup2\n      dup2\n      sload\n      dup2\n      lt\n      tag_124\n      jumpi\n      0x00\n      dup1\n      revert\n    tag_124:\n      swap1\n      0x00\n      mstore\n      keccak256(0x00, 0x20)\n      swap1\n      0x05\n      mul\n      add\n      0x00\n      swap2\n      pop\n      swap2\n      pop\n      pop\n      dup1\n      0x00\n      add\n      sload\n      swap1\n      dup1\n      0x01\n      add\n      sload\n      swap1\n      dup1\n      0x02\n      add\n      sload\n      swap1\n      dup1\n      0x03\n      add\n      0x00\n      swap1\n      sload\n      swap1\n      0x0100\n      exp\n      swap1\n      div\n      0xffffffffffffffffffffffffffffffffffffffff\n      and\n      swap1\n      dup1\n      0x04\n      add\n      0x00\n      swap1\n      sload\n      swap1\n      0x0100\n      exp\n      swap1\n      div\n      0xffffffffffffffffffffffffffffffffffffffff\n      and\n      swap1\n      pop\n      dup6\n      jump\t// out\n        /* \"contracts/MarketPlace.sol\":7753:8347  function getOwnerProducts(uint256 _startIndexForSearch, uint256 _maxResults) external view returns (uint256, Product[] memory) {\r... */\n    tag_50:\n        /* \"contracts/MarketPlace.sol\":7853:7860  uint256 */\n      0x00\n        /* \"contracts/MarketPlace.sol\":7862:7878  Product[] memory */\n      0x60\n        /* \"contracts/MarketPlace.sol\":7891:7904  address owner */\n      0x00\n        /* \"contracts/MarketPlace.sol\":7907:7917  msg.sender */\n      caller\n        /* \"contracts/MarketPlace.sol\":7891:7917  address owner = msg.sender */\n      swap1\n      pop\n        /* \"contracts/MarketPlace.sol\":7928:7958  Product[] memory ownerProducts */\n      0x00\n        /* \"contracts/MarketPlace.sol\":7975:7983  products */\n      0x05\n        /* \"contracts/MarketPlace.sol\":7975:7990  products.length */\n      dup1\n      sload\n      swap1\n      pop\n        /* \"contracts/MarketPlace.sol\":7961:7991  new Product[](products.length) */\n      0xffffffffffffffff\n      dup2\n      gt\n      iszero\n      tag_127\n      jumpi\n      tag_128\n      tag_129\n      jump\t// in\n    tag_128:\n    tag_127:\n      mload(0x40)\n      swap1\n      dup1\n      dup3\n      mstore\n      dup1\n      0x20\n      mul\n      0x20\n      add\n      dup3\n      add\n      0x40\n      mstore\n      dup1\n      iszero\n      tag_130\n      jumpi\n      dup2\n      0x20\n      add\n    tag_131:\n      tag_132\n      tag_133\n      jump\t// in\n    tag_132:\n      dup2\n      mstore\n      0x20\n      add\n      swap1\n      0x01\n      swap1\n      sub\n      swap1\n      dup2\n      tag_131\n      jumpi\n      swap1\n      pop\n    tag_130:\n      pop\n        /* \"contracts/MarketPlace.sol\":7928:7991  Product[] memory ownerProducts = new Product[](products.length) */\n      swap1\n      pop\n        /* \"contracts/MarketPlace.sol\":8002:8030  uint256 ownerProductsCounter */\n      0x00\n        /* \"contracts/MarketPlace.sol\":8045:8054  uint256 i */\n      dup1\n        /* \"contracts/MarketPlace.sol\":8074:8094  _startIndexForSearch */\n      dup8\n        /* \"contracts/MarketPlace.sol\":8070:8094  i = _startIndexForSearch */\n      swap1\n      pop\n        /* \"contracts/MarketPlace.sol\":8065:8304  for (i = _startIndexForSearch; i < products.length && ownerProductsCounter < _maxResults; i++) {\r... */\n    tag_134:\n        /* \"contracts/MarketPlace.sol\":8100:8108  products */\n      0x05\n        /* \"contracts/MarketPlace.sol\":8100:8115  products.length */\n      dup1\n      sload\n      swap1\n      pop\n        /* \"contracts/MarketPlace.sol\":8096:8097  i */\n      dup2\n        /* \"contracts/MarketPlace.sol\":8096:8115  i < products.length */\n      lt\n        /* \"contracts/MarketPlace.sol\":8096:8153  i < products.length && ownerProductsCounter < _maxResults */\n      dup1\n      iszero\n      tag_137\n      jumpi\n      pop\n        /* \"contracts/MarketPlace.sol\":8142:8153  _maxResults */\n      dup7\n        /* \"contracts/MarketPlace.sol\":8119:8139  ownerProductsCounter */\n      dup3\n        /* \"contracts/MarketPlace.sol\":8119:8153  ownerProductsCounter < _maxResults */\n      lt\n        /* \"contracts/MarketPlace.sol\":8096:8153  i < products.length && ownerProductsCounter < _maxResults */\n    tag_137:\n        /* \"contracts/MarketPlace.sol\":8065:8304  for (i = _startIndexForSearch; i < products.length && ownerProductsCounter < _maxResults; i++) {\r... */\n      iszero\n      tag_135\n      jumpi\n        /* \"contracts/MarketPlace.sol\":8200:8205  owner */\n      dup4\n        /* \"contracts/MarketPlace.sol\":8179:8205  products[i].owner == owner */\n      0xffffffffffffffffffffffffffffffffffffffff\n      and\n        /* \"contracts/MarketPlace.sol\":8179:8187  products */\n      0x05\n        /* \"contracts/MarketPlace.sol\":8188:8189  i */\n      dup3\n        /* \"contracts/MarketPlace.sol\":8179:8190  products[i] */\n      dup2\n      sload\n      dup2\n      lt\n      tag_138\n      jumpi\n      tag_139\n      tag_122\n      jump\t// in\n    tag_139:\n    tag_138:\n      swap1\n      0x00\n      mstore\n      keccak256(0x00, 0x20)\n      swap1\n      0x07\n      mul\n      add\n        /* \"contracts/MarketPlace.sol\":8179:8196  products[i].owner */\n      0x01\n      add\n      0x00\n      swap1\n      sload\n      swap1\n      0x0100\n      exp\n      swap1\n      div\n      0xffffffffffffffffffffffffffffffffffffffff\n      and\n        /* \"contracts/MarketPlace.sol\":8179:8205  products[i].owner == owner */\n      0xffffffffffffffffffffffffffffffffffffffff\n      and\n      eq\n        /* \"contracts/MarketPlace.sol\":8175:8293  if (products[i].owner == owner) {\r... */\n      iszero\n      tag_141\n      jumpi\n        /* \"contracts/MarketPlace.sol\":8266:8274  products */\n      0x05\n        /* \"contracts/MarketPlace.sol\":8275:8276  i */\n      dup2\n        /* \"contracts/MarketPlace.sol\":8266:8277  products[i] */\n      dup2\n      sload\n      dup2\n      lt\n      tag_142\n      jumpi\n      tag_143\n      tag_122\n      jump\t// in\n    tag_143:\n    tag_142:\n      swap1\n      0x00\n      mstore\n      keccak256(0x00, 0x20)\n      swap1\n      0x07\n      mul\n      add\n        /* \"contracts/MarketPlace.sol\":8226:8277  ownerProducts[ownerProductsCounter++] = products[i] */\n      mload(0x40)\n      dup1\n      0xe0\n      add\n      0x40\n      mstore\n      swap1\n      dup2\n      0x00\n      dup3\n      add\n      sload\n      dup2\n      mstore\n      0x20\n      add\n      0x01\n      dup3\n      add\n      0x00\n      swap1\n      sload\n      swap1\n      0x0100\n      exp\n      swap1\n      div\n      0xffffffffffffffffffffffffffffffffffffffff\n      and\n      0xffffffffffffffffffffffffffffffffffffffff\n      and\n      0xffffffffffffffffffffffffffffffffffffffff\n      and\n      dup2\n      mstore\n      0x20\n      add\n      0x02\n      dup3\n      add\n      dup1\n      sload\n      tag_145\n      swap1\n      tag_146\n      jump\t// in\n    tag_145:\n      dup1\n      0x1f\n      add\n      0x20\n      dup1\n      swap2\n      div\n      mul\n      0x20\n      add\n      mload(0x40)\n      swap1\n      dup2\n      add\n      0x40\n      mstore\n      dup1\n      swap3\n      swap2\n      swap1\n      dup2\n      dup2\n      mstore\n      0x20\n      add\n      dup3\n      dup1\n      sload\n      tag_147\n      swap1\n      tag_146\n      jump\t// in\n    tag_147:\n      dup1\n      iszero\n      tag_148\n      jumpi\n      dup1\n      0x1f\n      lt\n      tag_149\n      jumpi\n      0x0100\n      dup1\n      dup4\n      sload\n      div\n      mul\n      dup4\n      mstore\n      swap2\n      0x20\n      add\n      swap2\n      jump(tag_148)\n    tag_149:\n      dup3\n      add\n      swap2\n      swap1\n      0x00\n      mstore\n      keccak256(0x00, 0x20)\n      swap1\n    tag_150:\n      dup2\n      sload\n      dup2\n      mstore\n      swap1\n      0x01\n      add\n      swap1\n      0x20\n      add\n      dup1\n      dup4\n      gt\n      tag_150\n      jumpi\n      dup3\n      swap1\n      sub\n      0x1f\n      and\n      dup3\n      add\n      swap2\n    tag_148:\n      pop\n      pop\n      pop\n      pop\n      pop\n      dup2\n      mstore\n      0x20\n      add\n      0x03\n      dup3\n      add\n      dup1\n      sload\n      tag_151\n      swap1\n      tag_146\n      jump\t// in\n    tag_151:\n      dup1\n      0x1f\n      add\n      0x20\n      dup1\n      swap2\n      div\n      mul\n      0x20\n      add\n      mload(0x40)\n      swap1\n      dup2\n      add\n      0x40\n      mstore\n      dup1\n      swap3\n      swap2\n      swap1\n      dup2\n      dup2\n      mstore\n      0x20\n      add\n      dup3\n      dup1\n      sload\n      tag_152\n      swap1\n      tag_146\n      jump\t// in\n    tag_152:\n      dup1\n      iszero\n      tag_153\n      jumpi\n      dup1\n      0x1f\n      lt\n      tag_154\n      jumpi\n      0x0100\n      dup1\n      dup4\n      sload\n      div\n      mul\n      dup4\n      mstore\n      swap2\n      0x20\n      add\n      swap2\n      jump(tag_153)\n    tag_154:\n      dup3\n      add\n      swap2\n      swap1\n      0x00\n      mstore\n      keccak256(0x00, 0x20)\n      swap1\n    tag_155:\n      dup2\n      sload\n      dup2\n      mstore\n      swap1\n      0x01\n      add\n      swap1\n      0x20\n      add\n      dup1\n      dup4\n      gt\n      tag_155\n      jumpi\n      dup3\n      swap1\n      sub\n      0x1f\n      and\n      dup3\n      add\n      swap2\n    tag_153:\n      pop\n      pop\n      pop\n      pop\n      pop\n      dup2\n      mstore\n      0x20\n      add\n      0x04\n      dup3\n      add\n      dup1\n      sload\n      tag_156\n      swap1\n      tag_146\n      jump\t// in\n    tag_156:\n      dup1\n      0x1f\n      add\n      0x20\n      dup1\n      swap2\n      div\n      mul\n      0x20\n      add\n      mload(0x40)\n      swap1\n      dup2\n      add\n      0x40\n      mstore\n      dup1\n      swap3\n      swap2\n      swap1\n      dup2\n      dup2\n      mstore\n      0x20\n      add\n      dup3\n      dup1\n      sload\n      tag_157\n      swap1\n      tag_146\n      jump\t// in\n    tag_157:\n      dup1\n      iszero\n      tag_158\n      jumpi\n      dup1\n      0x1f\n      lt\n      tag_159\n      jumpi\n      0x0100\n      dup1\n      dup4\n      sload\n      div\n      mul\n      dup4\n      mstore\n      swap2\n      0x20\n      add\n      swap2\n      jump(tag_158)\n    tag_159:\n      dup3\n      add\n      swap2\n      swap1\n      0x00\n      mstore\n      keccak256(0x00, 0x20)\n      swap1\n    tag_160:\n      dup2\n      sload\n      dup2\n      mstore\n      swap1\n      0x01\n      add\n      swap1\n      0x20\n      add\n      dup1\n      dup4\n      gt\n      tag_160\n      jumpi\n      dup3\n      swap1\n      sub\n      0x1f\n      and\n      dup3\n      add\n      swap2\n    tag_158:\n      pop\n      pop\n      pop\n      pop\n      pop\n      dup2\n      mstore\n      0x20\n      add\n      0x05\n      dup3\n      add\n      dup1\n      sload\n      dup1\n      0x20\n      mul\n      0x20\n      add\n      mload(0x40)\n      swap1\n      dup2\n      add\n      0x40\n      mstore\n      dup1\n      swap3\n      swap2\n      swap1\n      dup2\n      dup2\n      mstore\n      0x20\n      add\n      0x00\n      swap1\n    tag_161:\n      dup3\n      dup3\n      lt\n      iszero\n      tag_162\n      jumpi\n      dup4\n      dup3\n      swap1\n      0x00\n      mstore\n      keccak256(0x00, 0x20)\n      add\n      dup1\n      sload\n      tag_164\n      swap1\n      tag_146\n      jump\t// in\n    tag_164:\n      dup1\n      0x1f\n      add\n      0x20\n      dup1\n      swap2\n      div\n      mul\n      0x20\n      add\n      mload(0x40)\n      swap1\n      dup2\n      add\n      0x40\n      mstore\n      dup1\n      swap3\n      swap2\n      swap1\n      dup2\n      dup2\n      mstore\n      0x20\n      add\n      dup3\n      dup1\n      sload\n      tag_165\n      swap1\n      tag_146\n      jump\t// in\n    tag_165:\n      dup1\n      iszero\n      tag_166\n      jumpi\n      dup1\n      0x1f\n      lt\n      tag_167\n      jumpi\n      0x0100\n      dup1\n      dup4\n      sload\n      div\n      mul\n      dup4\n      mstore\n      swap2\n      0x20\n      add\n      swap2\n      jump(tag_166)\n    tag_167:\n      dup3\n      add\n      swap2\n      swap1\n      0x00\n      mstore\n      keccak256(0x00, 0x20)\n      swap1\n    tag_168:\n      dup2\n      sload\n      dup2\n      mstore\n      swap1\n      0x01\n      add\n      swap1\n      0x20\n      add\n      dup1\n      dup4\n      gt\n      tag_168\n      jumpi\n      dup3\n      swap1\n      sub\n      0x1f\n      and\n      dup3\n      add\n      swap2\n    tag_166:\n      pop\n      pop\n      pop\n      pop\n      pop\n      dup2\n      mstore\n      0x20\n      add\n      swap1\n      0x01\n      add\n      swap1\n      jump(tag_161)\n    tag_162:\n      pop\n      pop\n      pop\n      pop\n      dup2\n      mstore\n      0x20\n      add\n      0x06\n      dup3\n      add\n      0x00\n      swap1\n      sload\n      swap1\n      0x0100\n      exp\n      swap1\n      div\n      0xff\n      and\n      iszero\n      iszero\n      iszero\n      iszero\n      dup2\n      mstore\n      pop\n      pop\n        /* \"contracts/MarketPlace.sol\":8226:8239  ownerProducts */\n      dup4\n        /* \"contracts/MarketPlace.sol\":8240:8262  ownerProductsCounter++ */\n      dup4\n      dup1\n      tag_169\n      swap1\n      tag_107\n      jump\t// in\n    tag_169:\n      swap5\n      pop\n        /* \"contracts/MarketPlace.sol\":8226:8263  ownerProducts[ownerProductsCounter++] */\n      dup2\n      mload\n      dup2\n      lt\n      tag_170\n      jumpi\n      tag_171\n      tag_122\n      jump\t// in\n    tag_171:\n    tag_170:\n      0x20\n      mul\n      0x20\n      add\n      add\n        /* \"contracts/MarketPlace.sol\":8226:8277  ownerProducts[ownerProductsCounter++] = products[i] */\n      dup2\n      swap1\n      mstore\n      pop\n        /* \"contracts/MarketPlace.sol\":8175:8293  if (products[i].owner == owner) {\r... */\n    tag_141:\n        /* \"contracts/MarketPlace.sol\":8155:8158  i++ */\n      dup1\n      dup1\n      tag_172\n      swap1\n      tag_107\n      jump\t// in\n    tag_172:\n      swap2\n      pop\n      pop\n        /* \"contracts/MarketPlace.sol\":8065:8304  for (i = _startIndexForSearch; i < products.length && ownerProductsCounter < _maxResults; i++) {\r... */\n      jump(tag_134)\n    tag_135:\n        /* \"contracts/MarketPlace.sol\":8322:8323  i */\n      dup1\n        /* \"contracts/MarketPlace.sol\":8325:8338  ownerProducts */\n      dup4\n        /* \"contracts/MarketPlace.sol\":8314:8339  return (i, ownerProducts) */\n      swap6\n      pop\n      swap6\n      pop\n      pop\n      pop\n      pop\n      pop\n        /* \"contracts/MarketPlace.sol\":7753:8347  function getOwnerProducts(uint256 _startIndexForSearch, uint256 _maxResults) external view returns (uint256, Product[] memory) {\r... */\n      swap3\n      pop\n      swap3\n      swap1\n      pop\n      jump\t// out\n        /* \"contracts/MarketPlace.sol\":4232:4793  function getAllProductsForSale(uint256 _startIndexForSearch, uint256 _maxResults) external view returns (uint256, Product[] memory) {\r... */\n    tag_56:\n        /* \"contracts/MarketPlace.sol\":4337:4344  uint256 */\n      0x00\n        /* \"contracts/MarketPlace.sol\":4346:4362  Product[] memory */\n      0x60\n        /* \"contracts/MarketPlace.sol\":4375:4407  Product[] memory productsForSale */\n      0x00\n        /* \"contracts/MarketPlace.sol\":4424:4432  products */\n      0x05\n        /* \"contracts/MarketPlace.sol\":4424:4439  products.length */\n      dup1\n      sload\n      swap1\n      pop\n        /* \"contracts/MarketPlace.sol\":4410:4440  new Product[](products.length) */\n      0xffffffffffffffff\n      dup2\n      gt\n      iszero\n      tag_174\n      jumpi\n      tag_175\n      tag_129\n      jump\t// in\n    tag_175:\n    tag_174:\n      mload(0x40)\n      swap1\n      dup1\n      dup3\n      mstore\n      dup1\n      0x20\n      mul\n      0x20\n      add\n      dup3\n      add\n      0x40\n      mstore\n      dup1\n      iszero\n      tag_176\n      jumpi\n      dup2\n      0x20\n      add\n    tag_177:\n      tag_178\n      tag_133\n      jump\t// in\n    tag_178:\n      dup2\n      mstore\n      0x20\n      add\n      swap1\n      0x01\n      swap1\n      sub\n      swap1\n      dup2\n      tag_177\n      jumpi\n      swap1\n      pop\n    tag_176:\n      pop\n        /* \"contracts/MarketPlace.sol\":4375:4440  Product[] memory productsForSale = new Product[](products.length) */\n      swap1\n      pop\n        /* \"contracts/MarketPlace.sol\":4451:4478  uint productsForSaleCounter */\n      0x00\n        /* \"contracts/MarketPlace.sol\":4493:4499  uint i */\n      dup1\n        /* \"contracts/MarketPlace.sol\":4519:4539  _startIndexForSearch */\n      dup7\n        /* \"contracts/MarketPlace.sol\":4515:4539  i = _startIndexForSearch */\n      swap1\n      pop\n        /* \"contracts/MarketPlace.sol\":4510:4748  for (i = _startIndexForSearch; i < products.length && productsForSaleCounter < _maxResults; i++) {\r... */\n    tag_179:\n        /* \"contracts/MarketPlace.sol\":4545:4553  products */\n      0x05\n        /* \"contracts/MarketPlace.sol\":4545:4560  products.length */\n      dup1\n      sload\n      swap1\n      pop\n        /* \"contracts/MarketPlace.sol\":4541:4542  i */\n      dup2\n        /* \"contracts/MarketPlace.sol\":4541:4560  i < products.length */\n      lt\n        /* \"contracts/MarketPlace.sol\":4541:4600  i < products.length && productsForSaleCounter < _maxResults */\n      dup1\n      iszero\n      tag_182\n      jumpi\n      pop\n        /* \"contracts/MarketPlace.sol\":4589:4600  _maxResults */\n      dup6\n        /* \"contracts/MarketPlace.sol\":4564:4586  productsForSaleCounter */\n      dup3\n        /* \"contracts/MarketPlace.sol\":4564:4600  productsForSaleCounter < _maxResults */\n      lt\n        /* \"contracts/MarketPlace.sol\":4541:4600  i < products.length && productsForSaleCounter < _maxResults */\n    tag_182:\n        /* \"contracts/MarketPlace.sol\":4510:4748  for (i = _startIndexForSearch; i < products.length && productsForSaleCounter < _maxResults; i++) {\r... */\n      iszero\n      tag_180\n      jumpi\n        /* \"contracts/MarketPlace.sol\":4626:4634  products */\n      0x05\n        /* \"contracts/MarketPlace.sol\":4635:4636  i */\n      dup2\n        /* \"contracts/MarketPlace.sol\":4626:4637  products[i] */\n      dup2\n      sload\n      dup2\n      lt\n      tag_183\n      jumpi\n      tag_184\n      tag_122\n      jump\t// in\n    tag_184:\n    tag_183:\n      swap1\n      0x00\n      mstore\n      keccak256(0x00, 0x20)\n      swap1\n      0x07\n      mul\n      add\n        /* \"contracts/MarketPlace.sol\":4626:4645  products[i].forSale */\n      0x06\n      add\n      0x00\n      swap1\n      sload\n      swap1\n      0x0100\n      exp\n      swap1\n      div\n      0xff\n      and\n        /* \"contracts/MarketPlace.sol\":4622:4737  if (products[i].forSale) {\r... */\n      iszero\n      tag_186\n      jumpi\n        /* \"contracts/MarketPlace.sol\":4710:4718  products */\n      0x05\n        /* \"contracts/MarketPlace.sol\":4719:4720  i */\n      dup2\n        /* \"contracts/MarketPlace.sol\":4710:4721  products[i] */\n      dup2\n      sload\n      dup2\n      lt\n      tag_187\n      jumpi\n      tag_188\n      tag_122\n      jump\t// in\n    tag_188:\n    tag_187:\n      swap1\n      0x00\n      mstore\n      keccak256(0x00, 0x20)\n      swap1\n      0x07\n      mul\n      add\n        /* \"contracts/MarketPlace.sol\":4666:4721  productsForSale[productsForSaleCounter++] = products[i] */\n      mload(0x40)\n      dup1\n      0xe0\n      add\n      0x40\n      mstore\n      swap1\n      dup2\n      0x00\n      dup3\n      add\n      sload\n      dup2\n      mstore\n      0x20\n      add\n      0x01\n      dup3\n      add\n      0x00\n      swap1\n      sload\n      swap1\n      0x0100\n      exp\n      swap1\n      div\n      0xffffffffffffffffffffffffffffffffffffffff\n      and\n      0xffffffffffffffffffffffffffffffffffffffff\n      and\n      0xffffffffffffffffffffffffffffffffffffffff\n      and\n      dup2\n      mstore\n      0x20\n      add\n      0x02\n      dup3\n      add\n      dup1\n      sload\n      tag_190\n      swap1\n      tag_146\n      jump\t// in\n    tag_190:\n      dup1\n      0x1f\n      add\n      0x20\n      dup1\n      swap2\n      div\n      mul\n      0x20\n      add\n      mload(0x40)\n      swap1\n      dup2\n      add\n      0x40\n      mstore\n      dup1\n      swap3\n      swap2\n      swap1\n      dup2\n      dup2\n      mstore\n      0x20\n      add\n      dup3\n      dup1\n      sload\n      tag_191\n      swap1\n      tag_146\n      jump\t// in\n    tag_191:\n      dup1\n      iszero\n      tag_192\n      jumpi\n      dup1\n      0x1f\n      lt\n      tag_193\n      jumpi\n      0x0100\n      dup1\n      dup4\n      sload\n      div\n      mul\n      dup4\n      mstore\n      swap2\n      0x20\n      add\n      swap2\n      jump(tag_192)\n    tag_193:\n      dup3\n      add\n      swap2\n      swap1\n      0x00\n      mstore\n      keccak256(0x00, 0x20)\n      swap1\n    tag_194:\n      dup2\n      sload\n      dup2\n      mstore\n      swap1\n      0x01\n      add\n      swap1\n      0x20\n      add\n      dup1\n      dup4\n      gt\n      tag_194\n      jumpi\n      dup3\n      swap1\n      sub\n      0x1f\n      and\n      dup3\n      add\n      swap2\n    tag_192:\n      pop\n      pop\n      pop\n      pop\n      pop\n      dup2\n      mstore\n      0x20\n      add\n      0x03\n      dup3\n      add\n      dup1\n      sload\n      tag_195\n      swap1\n      tag_146\n      jump\t// in\n    tag_195:\n      dup1\n      0x1f\n      add\n      0x20\n      dup1\n      swap2\n      div\n      mul\n      0x20\n      add\n      mload(0x40)\n      swap1\n      dup2\n      add\n      0x40\n      mstore\n      dup1\n      swap3\n      swap2\n      swap1\n      dup2\n      dup2\n      mstore\n      0x20\n      add\n      dup3\n      dup1\n      sload\n      tag_196\n      swap1\n      tag_146\n      jump\t// in\n    tag_196:\n      dup1\n      iszero\n      tag_197\n      jumpi\n      dup1\n      0x1f\n      lt\n      tag_198\n      jumpi\n      0x0100\n      dup1\n      dup4\n      sload\n      div\n      mul\n      dup4\n      mstore\n      swap2\n      0x20\n      add\n      swap2\n      jump(tag_197)\n    tag_198:\n      dup3\n      add\n      swap2\n      swap1\n      0x00\n      mstore\n      keccak256(0x00, 0x20)\n      swap1\n    tag_199:\n      dup2\n      sload\n      dup2\n      mstore\n      swap1\n      0x01\n      add\n      swap1\n      0x20\n      add\n      dup1\n      dup4\n      gt\n      tag_199\n      jumpi\n      dup3\n      swap1\n      sub\n      0x1f\n      and\n      dup3\n      add\n      swap2\n    tag_197:\n      pop\n      pop\n      pop\n      pop\n      pop\n      dup2\n      mstore\n      0x20\n      add\n      0x04\n      dup3\n      add\n      dup1\n      sload\n      tag_200\n      swap1\n      tag_146\n      jump\t// in\n    tag_200:\n      dup1\n      0x1f\n      add\n      0x20\n      dup1\n      swap2\n      div\n      mul\n      0x20\n      add\n      mload(0x40)\n      swap1\n      dup2\n      add\n      0x40\n      mstore\n      dup1\n      swap3\n      swap2\n      swap1\n      dup2\n      dup2\n      mstore\n      0x20\n      add\n      dup3\n      dup1\n      sload\n      tag_201\n      swap1\n      tag_146\n      jump\t// in\n    tag_201:\n      dup1\n      iszero\n      tag_202\n      jumpi\n      dup1\n      0x1f\n      lt\n      tag_203\n      jumpi\n      0x0100\n      dup1\n      dup4\n      sload\n      div\n      mul\n      dup4\n      mstore\n      swap2\n      0x20\n      add\n      swap2\n      jump(tag_202)\n    tag_203:\n      dup3\n      add\n      swap2\n      swap1\n      0x00\n      mstore\n      keccak256(0x00, 0x20)\n      swap1\n    tag_204:\n      dup2\n      sload\n      dup2\n      mstore\n      swap1\n      0x01\n      add\n      swap1\n      0x20\n      add\n      dup1\n      dup4\n      gt\n      tag_204\n      jumpi\n      dup3\n      swap1\n      sub\n      0x1f\n      and\n      dup3\n      add\n      swap2\n    tag_202:\n      pop\n      pop\n      pop\n      pop\n      pop\n      dup2\n      mstore\n      0x20\n      add\n      0x05\n      dup3\n      add\n      dup1\n      sload\n      dup1\n      0x20\n      mul\n      0x20\n      add\n      mload(0x40)\n      swap1\n      dup2\n      add\n      0x40\n      mstore\n      dup1\n      swap3\n      swap2\n      swap1\n      dup2\n      dup2\n      mstore\n      0x20\n      add\n      0x00\n      swap1\n    tag_205:\n      dup3\n      dup3\n      lt\n      iszero\n      tag_206\n      jumpi\n      dup4\n      dup3\n      swap1\n      0x00\n      mstore\n      keccak256(0x00, 0x20)\n      add\n      dup1\n      sload\n      tag_208\n      swap1\n      tag_146\n      jump\t// in\n    tag_208:\n      dup1\n      0x1f\n      add\n      0x20\n      dup1\n      swap2\n      div\n      mul\n      0x20\n      add\n      mload(0x40)\n      swap1\n      dup2\n      add\n      0x40\n      mstore\n      dup1\n      swap3\n      swap2\n      swap1\n      dup2\n      dup2\n      mstore\n      0x20\n      add\n      dup3\n      dup1\n      sload\n      tag_209\n      swap1\n      tag_146\n      jump\t// in\n    tag_209:\n      dup1\n      iszero\n      tag_210\n      jumpi\n      dup1\n      0x1f\n      lt\n      tag_211\n      jumpi\n      0x0100\n      dup1\n      dup4\n      sload\n      div\n      mul\n      dup4\n      mstore\n      swap2\n      0x20\n      add\n      swap2\n      jump(tag_210)\n    tag_211:\n      dup3\n      add\n      swap2\n      swap1\n      0x00\n      mstore\n      keccak256(0x00, 0x20)\n      swap1\n    tag_212:\n      dup2\n      sload\n      dup2\n      mstore\n      swap1\n      0x01\n      add\n      swap1\n      0x20\n      add\n      dup1\n      dup4\n      gt\n      tag_212\n      jumpi\n      dup3\n      swap1\n      sub\n      0x1f\n      and\n      dup3\n      add\n      swap2\n    tag_210:\n      pop\n      pop\n      pop\n      pop\n      pop\n      dup2\n      mstore\n      0x20\n      add\n      swap1\n      0x01\n      add\n      swap1\n      jump(tag_205)\n    tag_206:\n      pop\n      pop\n      pop\n      pop\n      dup2\n      mstore\n      0x20\n      add\n      0x06\n      dup3\n      add\n      0x00\n      swap1\n      sload\n      swap1\n      0x0100\n      exp\n      swap1\n      div\n      0xff\n      and\n      iszero\n      iszero\n      iszero\n      iszero\n      dup2\n      mstore\n      pop\n      pop\n        /* \"contracts/MarketPlace.sol\":4666:4681  productsForSale */\n      dup4\n        /* \"contracts/MarketPlace.sol\":4682:4706  productsForSaleCounter++ */\n      dup4\n      dup1\n      tag_213\n      swap1\n      tag_107\n      jump\t// in\n    tag_213:\n      swap5\n      pop\n        /* \"contracts/MarketPlace.sol\":4666:4707  productsForSale[productsForSaleCounter++] */\n      dup2\n      mload\n      dup2\n      lt\n      tag_214\n      jumpi\n      tag_215\n      tag_122\n      jump\t// in\n    tag_215:\n    tag_214:\n      0x20\n      mul\n      0x20\n      add\n      add\n        /* \"contracts/MarketPlace.sol\":4666:4721  productsForSale[productsForSaleCounter++] = products[i] */\n      dup2\n      swap1\n      mstore\n      pop\n        /* \"contracts/MarketPlace.sol\":4622:4737  if (products[i].forSale) {\r... */\n    tag_186:\n        /* \"contracts/MarketPlace.sol\":4602:4605  i++ */\n      dup1\n      dup1\n      tag_216\n      swap1\n      tag_107\n      jump\t// in\n    tag_216:\n      swap2\n      pop\n      pop\n        /* \"contracts/MarketPlace.sol\":4510:4748  for (i = _startIndexForSearch; i < products.length && productsForSaleCounter < _maxResults; i++) {\r... */\n      jump(tag_179)\n    tag_180:\n        /* \"contracts/MarketPlace.sol\":4766:4767  i */\n      dup1\n        /* \"contracts/MarketPlace.sol\":4769:4784  productsForSale */\n      dup4\n        /* \"contracts/MarketPlace.sol\":4758:4785  return (i, productsForSale) */\n      swap5\n      pop\n      swap5\n      pop\n      pop\n      pop\n      pop\n        /* \"contracts/MarketPlace.sol\":4232:4793  function getAllProductsForSale(uint256 _startIndexForSearch, uint256 _maxResults) external view returns (uint256, Product[] memory) {\r... */\n      swap3\n      pop\n      swap3\n      swap1\n      pop\n      jump\t// out\n        /* \"contracts/Ownable.sol\":1722:1825  function renounceOwnership() public virtual onlyOwner {\r... */\n    tag_60:\n        /* \"contracts/Ownable.sol\":1302:1314  _msgSender() */\n      tag_218\n        /* \"contracts/Ownable.sol\":1302:1312  _msgSender */\n      tag_219\n        /* \"contracts/Ownable.sol\":1302:1314  _msgSender() */\n      jump\t// in\n    tag_218:\n        /* \"contracts/Ownable.sol\":1291:1314  owner() == _msgSender() */\n      0xffffffffffffffffffffffffffffffffffffffff\n      and\n        /* \"contracts/Ownable.sol\":1291:1298  owner() */\n      tag_220\n        /* \"contracts/Ownable.sol\":1291:1296  owner */\n      tag_63\n        /* \"contracts/Ownable.sol\":1291:1298  owner() */\n      jump\t// in\n    tag_220:\n        /* \"contracts/Ownable.sol\":1291:1314  owner() == _msgSender() */\n      0xffffffffffffffffffffffffffffffffffffffff\n      and\n      eq\n        /* \"contracts/Ownable.sol\":1283:1351  require(owner() == _msgSender(), \"Ownable: caller is not the owner\") */\n      tag_221\n      jumpi\n      mload(0x40)\n      0x08c379a000000000000000000000000000000000000000000000000000000000\n      dup2\n      mstore\n      0x04\n      add\n      tag_222\n      swap1\n      tag_223\n      jump\t// in\n    tag_222:\n      mload(0x40)\n      dup1\n      swap2\n      sub\n      swap1\n      revert\n    tag_221:\n        /* \"contracts/Ownable.sol\":1787:1817  _transferOwnership(address(0)) */\n      tag_225\n        /* \"contracts/Ownable.sol\":1814:1815  0 */\n      0x00\n        /* \"contracts/Ownable.sol\":1787:1805  _transferOwnership */\n      tag_226\n        /* \"contracts/Ownable.sol\":1787:1817  _transferOwnership(address(0)) */\n      jump\t// in\n    tag_225:\n        /* \"contracts/Ownable.sol\":1722:1825  function renounceOwnership() public virtual onlyOwner {\r... */\n      jump\t// out\n        /* \"contracts/Ownable.sol\":1071:1158  function owner() public view virtual returns (address) {\r... */\n    tag_63:\n        /* \"contracts/Ownable.sol\":1117:1124  address */\n      0x00\n        /* \"contracts/Ownable.sol\":1144:1150  _owner */\n      dup1\n      0x00\n      swap1\n      sload\n      swap1\n      0x0100\n      exp\n      swap1\n      div\n      0xffffffffffffffffffffffffffffffffffffffff\n      and\n        /* \"contracts/Ownable.sol\":1137:1150  return _owner */\n      swap1\n      pop\n        /* \"contracts/Ownable.sol\":1071:1158  function owner() public view virtual returns (address) {\r... */\n      swap1\n      jump\t// out\n        /* \"contracts/MarketPlace.sol\":4801:6517  function filterSellingProducts(string memory _partialTitle, string memory _category, address _owner, uint256 _date, uint256 _startIndexForSearch, uint256 _maxResults) external view returns (uint256, Product[] memory) {\r... */\n    tag_69:\n        /* \"contracts/MarketPlace.sol\":4991:4998  uint256 */\n      0x00\n        /* \"contracts/MarketPlace.sol\":5000:5016  Product[] memory */\n      0x60\n        /* \"contracts/MarketPlace.sol\":5029:5061  Product[] memory productsForSale */\n      0x00\n        /* \"contracts/MarketPlace.sol\":5078:5086  products */\n      0x05\n        /* \"contracts/MarketPlace.sol\":5078:5093  products.length */\n      dup1\n      sload\n      swap1\n      pop\n        /* \"contracts/MarketPlace.sol\":5064:5094  new Product[](products.length) */\n      0xffffffffffffffff\n      dup2\n      gt\n      iszero\n      tag_229\n      jumpi\n      tag_230\n      tag_129\n      jump\t// in\n    tag_230:\n    tag_229:\n      mload(0x40)\n      swap1\n      dup1\n      dup3\n      mstore\n      dup1\n      0x20\n      mul\n      0x20\n      add\n      dup3\n      add\n      0x40\n      mstore\n      dup1\n      iszero\n      tag_231\n      jumpi\n      dup2\n      0x20\n      add\n    tag_232:\n      tag_233\n      tag_133\n      jump\t// in\n    tag_233:\n      dup2\n      mstore\n      0x20\n      add\n      swap1\n      0x01\n      swap1\n      sub\n      swap1\n      dup2\n      tag_232\n      jumpi\n      swap1\n      pop\n    tag_231:\n      pop\n        /* \"contracts/MarketPlace.sol\":5029:5094  Product[] memory productsForSale = new Product[](products.length) */\n      swap1\n      pop\n        /* \"contracts/MarketPlace.sol\":5105:5132  uint productsForSaleCounter */\n      0x00\n        /* \"contracts/MarketPlace.sol\":5147:5153  uint i */\n      dup1\n        /* \"contracts/MarketPlace.sol\":5173:5193  _startIndexForSearch */\n      dup7\n        /* \"contracts/MarketPlace.sol\":5169:5193  i = _startIndexForSearch */\n      swap1\n      pop\n        /* \"contracts/MarketPlace.sol\":5164:6472  for (i = _startIndexForSearch; i < products.length && productsForSaleCounter < _maxResults; i++) {\r... */\n    tag_234:\n        /* \"contracts/MarketPlace.sol\":5199:5207  products */\n      0x05\n        /* \"contracts/MarketPlace.sol\":5199:5214  products.length */\n      dup1\n      sload\n      swap1\n      pop\n        /* \"contracts/MarketPlace.sol\":5195:5196  i */\n      dup2\n        /* \"contracts/MarketPlace.sol\":5195:5214  i < products.length */\n      lt\n        /* \"contracts/MarketPlace.sol\":5195:5254  i < products.length && productsForSaleCounter < _maxResults */\n      dup1\n      iszero\n      tag_237\n      jumpi\n      pop\n        /* \"contracts/MarketPlace.sol\":5243:5254  _maxResults */\n      dup6\n        /* \"contracts/MarketPlace.sol\":5218:5240  productsForSaleCounter */\n      dup3\n        /* \"contracts/MarketPlace.sol\":5218:5254  productsForSaleCounter < _maxResults */\n      lt\n        /* \"contracts/MarketPlace.sol\":5195:5254  i < products.length && productsForSaleCounter < _maxResults */\n    tag_237:\n        /* \"contracts/MarketPlace.sol\":5164:6472  for (i = _startIndexForSearch; i < products.length && productsForSaleCounter < _maxResults; i++) {\r... */\n      iszero\n      tag_235\n      jumpi\n        /* \"contracts/MarketPlace.sol\":5281:5289  products */\n      0x05\n        /* \"contracts/MarketPlace.sol\":5290:5291  i */\n      dup2\n        /* \"contracts/MarketPlace.sol\":5281:5292  products[i] */\n      dup2\n      sload\n      dup2\n      lt\n      tag_238\n      jumpi\n      tag_239\n      tag_122\n      jump\t// in\n    tag_239:\n    tag_238:\n      swap1\n      0x00\n      mstore\n      keccak256(0x00, 0x20)\n      swap1\n      0x07\n      mul\n      add\n        /* \"contracts/MarketPlace.sol\":5281:5300  products[i].forSale */\n      0x06\n      add\n      0x00\n      swap1\n      sload\n      swap1\n      0x0100\n      exp\n      swap1\n      div\n      0xff\n      and\n        /* \"contracts/MarketPlace.sol\":5276:5345  if (!products[i].forSale) {\r... */\n      tag_241\n      jumpi\n        /* \"contracts/MarketPlace.sol\":5321:5329  continue */\n      jump(tag_236)\n        /* \"contracts/MarketPlace.sol\":5276:5345  if (!products[i].forSale) {\r... */\n    tag_241:\n        /* \"contracts/MarketPlace.sol\":5359:5371  bool isValid */\n      0x00\n        /* \"contracts/MarketPlace.sol\":5374:5378  true */\n      0x01\n        /* \"contracts/MarketPlace.sol\":5359:5378  bool isValid = true */\n      swap1\n      pop\n        /* \"contracts/MarketPlace.sol\":5393:5413  bytes32 categoryHash */\n      0x00\n        /* \"contracts/MarketPlace.sol\":5443:5452  _category */\n      dup12\n        /* \"contracts/MarketPlace.sol\":5426:5453  abi.encodePacked(_category) */\n      add(0x20, mload(0x40))\n      tag_242\n      swap2\n      swap1\n      tag_243\n      jump\t// in\n    tag_242:\n      mload(0x40)\n      0x20\n      dup2\n      dup4\n      sub\n      sub\n      dup2\n      mstore\n      swap1\n      0x40\n      mstore\n        /* \"contracts/MarketPlace.sol\":5416:5454  keccak256(abi.encodePacked(_category)) */\n      dup1\n      mload\n      swap1\n      0x20\n      add\n      keccak256\n        /* \"contracts/MarketPlace.sol\":5393:5454  bytes32 categoryHash = keccak256(abi.encodePacked(_category)) */\n      swap1\n      pop\n        /* \"contracts/MarketPlace.sol\":5499:5519  abi.encodePacked(\"\") */\n      add(0x20, mload(0x40))\n      tag_244\n      swap1\n      tag_245\n      jump\t// in\n    tag_244:\n      mload(0x40)\n      0x20\n      dup2\n      dup4\n      sub\n      sub\n      dup2\n      mstore\n      swap1\n      0x40\n      mstore\n        /* \"contracts/MarketPlace.sol\":5489:5520  keccak256(abi.encodePacked(\"\")) */\n      dup1\n      mload\n      swap1\n      0x20\n      add\n      keccak256\n        /* \"contracts/MarketPlace.sol\":5473:5485  categoryHash */\n      dup2\n        /* \"contracts/MarketPlace.sol\":5473:5520  categoryHash != keccak256(abi.encodePacked(\"\")) */\n      eq\n        /* \"contracts/MarketPlace.sol\":5469:5927  if (categoryHash != keccak256(abi.encodePacked(\"\"))) {\r... */\n      tag_246\n      jumpi\n        /* \"contracts/MarketPlace.sol\":5541:5561  string[] memory tags */\n      0x00\n        /* \"contracts/MarketPlace.sol\":5564:5572  products */\n      0x05\n        /* \"contracts/MarketPlace.sol\":5573:5574  i */\n      dup5\n        /* \"contracts/MarketPlace.sol\":5564:5575  products[i] */\n      dup2\n      sload\n      dup2\n      lt\n      tag_247\n      jumpi\n      tag_248\n      tag_122\n      jump\t// in\n    tag_248:\n    tag_247:\n      swap1\n      0x00\n      mstore\n      keccak256(0x00, 0x20)\n      swap1\n      0x07\n      mul\n      add\n        /* \"contracts/MarketPlace.sol\":5564:5580  products[i].tags */\n      0x05\n      add\n        /* \"contracts/MarketPlace.sol\":5541:5580  string[] memory tags = products[i].tags */\n      dup1\n      sload\n      dup1\n      0x20\n      mul\n      0x20\n      add\n      mload(0x40)\n      swap1\n      dup2\n      add\n      0x40\n      mstore\n      dup1\n      swap3\n      swap2\n      swap1\n      dup2\n      dup2\n      mstore\n      0x20\n      add\n      0x00\n      swap1\n    tag_250:\n      dup3\n      dup3\n      lt\n      iszero\n      tag_251\n      jumpi\n      dup4\n      dup3\n      swap1\n      0x00\n      mstore\n      keccak256(0x00, 0x20)\n      add\n      dup1\n      sload\n      tag_253\n      swap1\n      tag_146\n      jump\t// in\n    tag_253:\n      dup1\n      0x1f\n      add\n      0x20\n      dup1\n      swap2\n      div\n      mul\n      0x20\n      add\n      mload(0x40)\n      swap1\n      dup2\n      add\n      0x40\n      mstore\n      dup1\n      swap3\n      swap2\n      swap1\n      dup2\n      dup2\n      mstore\n      0x20\n      add\n      dup3\n      dup1\n      sload\n      tag_254\n      swap1\n      tag_146\n      jump\t// in\n    tag_254:\n      dup1\n      iszero\n      tag_255\n      jumpi\n      dup1\n      0x1f\n      lt\n      tag_256\n      jumpi\n      0x0100\n      dup1\n      dup4\n      sload\n      div\n      mul\n      dup4\n      mstore\n      swap2\n      0x20\n      add\n      swap2\n      jump(tag_255)\n    tag_256:\n      dup3\n      add\n      swap2\n      swap1\n      0x00\n      mstore\n      keccak256(0x00, 0x20)\n      swap1\n    tag_257:\n      dup2\n      sload\n      dup2\n      mstore\n      swap1\n      0x01\n      add\n      swap1\n      0x20\n      add\n      dup1\n      dup4\n      gt\n      tag_257\n      jumpi\n      dup3\n      swap1\n      sub\n      0x1f\n      and\n      dup3\n      add\n      swap2\n    tag_255:\n      pop\n      pop\n      pop\n      pop\n      pop\n      dup2\n      mstore\n      0x20\n      add\n      swap1\n      0x01\n      add\n      swap1\n      jump(tag_250)\n    tag_251:\n      pop\n      pop\n      pop\n      pop\n      swap1\n      pop\n        /* \"contracts/MarketPlace.sol\":5599:5605  uint j */\n      0x00\n        /* \"contracts/MarketPlace.sol\":5624:5814  for (j = 0; j < tags.length; j++) {\r... */\n    tag_258:\n        /* \"contracts/MarketPlace.sol\":5640:5644  tags */\n      dup2\n        /* \"contracts/MarketPlace.sol\":5640:5651  tags.length */\n      mload\n        /* \"contracts/MarketPlace.sol\":5636:5637  j */\n      dup2\n        /* \"contracts/MarketPlace.sol\":5636:5651  j < tags.length */\n      lt\n        /* \"contracts/MarketPlace.sol\":5624:5814  for (j = 0; j < tags.length; j++) {\r... */\n      iszero\n      tag_259\n      jumpi\n        /* \"contracts/MarketPlace.sol\":5728:5732  tags */\n      dup2\n        /* \"contracts/MarketPlace.sol\":5733:5734  j */\n      dup2\n        /* \"contracts/MarketPlace.sol\":5728:5735  tags[j] */\n      dup2\n      mload\n      dup2\n      lt\n      tag_261\n      jumpi\n      tag_262\n      tag_122\n      jump\t// in\n    tag_262:\n    tag_261:\n      0x20\n      mul\n      0x20\n      add\n      add\n      mload\n        /* \"contracts/MarketPlace.sol\":5711:5736  abi.encodePacked(tags[j]) */\n      add(0x20, mload(0x40))\n      tag_263\n      swap2\n      swap1\n      tag_243\n      jump\t// in\n    tag_263:\n      mload(0x40)\n      0x20\n      dup2\n      dup4\n      sub\n      sub\n      dup2\n      mstore\n      swap1\n      0x40\n      mstore\n        /* \"contracts/MarketPlace.sol\":5701:5737  keccak256(abi.encodePacked(tags[j])) */\n      dup1\n      mload\n      swap1\n      0x20\n      add\n      keccak256\n        /* \"contracts/MarketPlace.sol\":5685:5697  categoryHash */\n      dup4\n        /* \"contracts/MarketPlace.sol\":5685:5737  categoryHash == keccak256(abi.encodePacked(tags[j])) */\n      eq\n        /* \"contracts/MarketPlace.sol\":5681:5795  if (categoryHash == keccak256(abi.encodePacked(tags[j]))) {\r... */\n      iszero\n      tag_264\n      jumpi\n        /* \"contracts/MarketPlace.sol\":5766:5771  break */\n      jump(tag_259)\n        /* \"contracts/MarketPlace.sol\":5681:5795  if (categoryHash == keccak256(abi.encodePacked(tags[j]))) {\r... */\n    tag_264:\n        /* \"contracts/MarketPlace.sol\":5653:5656  j++ */\n      dup1\n      dup1\n      tag_265\n      swap1\n      tag_107\n      jump\t// in\n    tag_265:\n      swap2\n      pop\n      pop\n        /* \"contracts/MarketPlace.sol\":5624:5814  for (j = 0; j < tags.length; j++) {\r... */\n      jump(tag_258)\n    tag_259:\n        /* \"contracts/MarketPlace.sol\":5841:5845  tags */\n      dup2\n        /* \"contracts/MarketPlace.sol\":5841:5852  tags.length */\n      mload\n        /* \"contracts/MarketPlace.sol\":5836:5837  j */\n      dup2\n        /* \"contracts/MarketPlace.sol\":5836:5852  j >= tags.length */\n      lt\n        /* \"contracts/MarketPlace.sol\":5832:5912  if (j >= tags.length) {\r... */\n      tag_266\n      jumpi\n        /* \"contracts/MarketPlace.sol\":5887:5892  false */\n      0x00\n        /* \"contracts/MarketPlace.sol\":5877:5892  isValid = false */\n      swap4\n      pop\n        /* \"contracts/MarketPlace.sol\":5832:5912  if (j >= tags.length) {\r... */\n    tag_266:\n        /* \"contracts/MarketPlace.sol\":5522:5927  {\r... */\n      pop\n      pop\n        /* \"contracts/MarketPlace.sol\":5469:5927  if (categoryHash != keccak256(abi.encodePacked(\"\"))) {\r... */\n    tag_246:\n        /* \"contracts/MarketPlace.sol\":5947:5954  isValid */\n      dup2\n        /* \"contracts/MarketPlace.sol\":5947:6028  isValid &&\r... */\n      dup1\n      iszero\n      tag_267\n      jumpi\n      pop\n        /* \"contracts/MarketPlace.sol\":5994:5995  0 */\n      0x00\n        /* \"contracts/MarketPlace.sol\":5976:5996  _owner != address(0) */\n      0xffffffffffffffffffffffffffffffffffffffff\n      and\n        /* \"contracts/MarketPlace.sol\":5976:5982  _owner */\n      dup12\n        /* \"contracts/MarketPlace.sol\":5976:5996  _owner != address(0) */\n      0xffffffffffffffffffffffffffffffffffffffff\n      and\n      eq\n      iszero\n        /* \"contracts/MarketPlace.sol\":5976:6027  _owner != address(0) || _owner == products[i].owner */\n      dup1\n      tag_268\n      jumpi\n      pop\n        /* \"contracts/MarketPlace.sol\":6010:6018  products */\n      0x05\n        /* \"contracts/MarketPlace.sol\":6019:6020  i */\n      dup4\n        /* \"contracts/MarketPlace.sol\":6010:6021  products[i] */\n      dup2\n      sload\n      dup2\n      lt\n      tag_269\n      jumpi\n      tag_270\n      tag_122\n      jump\t// in\n    tag_270:\n    tag_269:\n      swap1\n      0x00\n      mstore\n      keccak256(0x00, 0x20)\n      swap1\n      0x07\n      mul\n      add\n        /* \"contracts/MarketPlace.sol\":6010:6027  products[i].owner */\n      0x01\n      add\n      0x00\n      swap1\n      sload\n      swap1\n      0x0100\n      exp\n      swap1\n      div\n      0xffffffffffffffffffffffffffffffffffffffff\n      and\n        /* \"contracts/MarketPlace.sol\":6000:6027  _owner == products[i].owner */\n      0xffffffffffffffffffffffffffffffffffffffff\n      and\n        /* \"contracts/MarketPlace.sol\":6000:6006  _owner */\n      dup12\n        /* \"contracts/MarketPlace.sol\":6000:6027  _owner == products[i].owner */\n      0xffffffffffffffffffffffffffffffffffffffff\n      and\n      eq\n        /* \"contracts/MarketPlace.sol\":5976:6027  _owner != address(0) || _owner == products[i].owner */\n    tag_268:\n        /* \"contracts/MarketPlace.sol\":5947:6028  isValid &&\r... */\n    tag_267:\n        /* \"contracts/MarketPlace.sol\":5947:6126  isValid &&\r... */\n      dup1\n      iszero\n      tag_272\n      jumpi\n      pop\n        /* \"contracts/MarketPlace.sol\":6059:6060  0 */\n      0x00\n        /* \"contracts/MarketPlace.sol\":6050:6055  _date */\n      dup11\n        /* \"contracts/MarketPlace.sol\":6050:6060  _date != 0 */\n      eq\n      iszero\n        /* \"contracts/MarketPlace.sol\":6050:6125  _date != 0 || _date <= ownedSellableProducts[products[i].owner][i].datetime */\n      dup1\n      tag_273\n      jumpi\n      pop\n        /* \"contracts/MarketPlace.sol\":6073:6094  ownedSellableProducts */\n      0x02\n        /* \"contracts/MarketPlace.sol\":6073:6113  ownedSellableProducts[products[i].owner] */\n      0x00\n        /* \"contracts/MarketPlace.sol\":6095:6103  products */\n      0x05\n        /* \"contracts/MarketPlace.sol\":6104:6105  i */\n      dup6\n        /* \"contracts/MarketPlace.sol\":6095:6106  products[i] */\n      dup2\n      sload\n      dup2\n      lt\n      tag_274\n      jumpi\n      tag_275\n      tag_122\n      jump\t// in\n    tag_275:\n    tag_274:\n      swap1\n      0x00\n      mstore\n      keccak256(0x00, 0x20)\n      swap1\n      0x07\n      mul\n      add\n        /* \"contracts/MarketPlace.sol\":6095:6112  products[i].owner */\n      0x01\n      add\n      0x00\n      swap1\n      sload\n      swap1\n      0x0100\n      exp\n      swap1\n      div\n      0xffffffffffffffffffffffffffffffffffffffff\n      and\n        /* \"contracts/MarketPlace.sol\":6073:6113  ownedSellableProducts[products[i].owner] */\n      0xffffffffffffffffffffffffffffffffffffffff\n      and\n      0xffffffffffffffffffffffffffffffffffffffff\n      and\n      dup2\n      mstore\n      0x20\n      add\n      swap1\n      dup2\n      mstore\n      0x20\n      add\n      0x00\n      keccak256\n        /* \"contracts/MarketPlace.sol\":6073:6116  ownedSellableProducts[products[i].owner][i] */\n      0x00\n        /* \"contracts/MarketPlace.sol\":6114:6115  i */\n      dup5\n        /* \"contracts/MarketPlace.sol\":6073:6116  ownedSellableProducts[products[i].owner][i] */\n      dup2\n      mstore\n      0x20\n      add\n      swap1\n      dup2\n      mstore\n      0x20\n      add\n      0x00\n      keccak256\n        /* \"contracts/MarketPlace.sol\":6073:6125  ownedSellableProducts[products[i].owner][i].datetime */\n      0x02\n      add\n      sload\n        /* \"contracts/MarketPlace.sol\":6064:6069  _date */\n      dup11\n        /* \"contracts/MarketPlace.sol\":6064:6125  _date <= ownedSellableProducts[products[i].owner][i].datetime */\n      gt\n      iszero\n        /* \"contracts/MarketPlace.sol\":6050:6125  _date != 0 || _date <= ownedSellableProducts[products[i].owner][i].datetime */\n    tag_273:\n        /* \"contracts/MarketPlace.sol\":5947:6126  isValid &&\r... */\n    tag_272:\n        /* \"contracts/MarketPlace.sol\":5947:6192  isValid &&\r... */\n      dup1\n      iszero\n      tag_277\n      jumpi\n      pop\n        /* \"contracts/MarketPlace.sol\":6147:6192  containsWord(_partialTitle, products[i].name) */\n      tag_278\n        /* \"contracts/MarketPlace.sol\":6160:6173  _partialTitle */\n      dup14\n        /* \"contracts/MarketPlace.sol\":6175:6183  products */\n      0x05\n        /* \"contracts/MarketPlace.sol\":6184:6185  i */\n      dup6\n        /* \"contracts/MarketPlace.sol\":6175:6186  products[i] */\n      dup2\n      sload\n      dup2\n      lt\n      tag_279\n      jumpi\n      tag_280\n      tag_122\n      jump\t// in\n    tag_280:\n    tag_279:\n      swap1\n      0x00\n      mstore\n      keccak256(0x00, 0x20)\n      swap1\n      0x07\n      mul\n      add\n        /* \"contracts/MarketPlace.sol\":6175:6191  products[i].name */\n      0x02\n      add\n        /* \"contracts/MarketPlace.sol\":6147:6192  containsWord(_partialTitle, products[i].name) */\n      dup1\n      sload\n      tag_282\n      swap1\n      tag_146\n      jump\t// in\n    tag_282:\n      dup1\n      0x1f\n      add\n      0x20\n      dup1\n      swap2\n      div\n      mul\n      0x20\n      add\n      mload(0x40)\n      swap1\n      dup2\n      add\n      0x40\n      mstore\n      dup1\n      swap3\n      swap2\n      swap1\n      dup2\n      dup2\n      mstore\n      0x20\n      add\n      dup3\n      dup1\n      sload\n      tag_283\n      swap1\n      tag_146\n      jump\t// in\n    tag_283:\n      dup1\n      iszero\n      tag_284\n      jumpi\n      dup1\n      0x1f\n      lt\n      tag_285\n      jumpi\n      0x0100\n      dup1\n      dup4\n      sload\n      div\n      mul\n      dup4\n      mstore\n      swap2\n      0x20\n      add\n      swap2\n      jump(tag_284)\n    tag_285:\n      dup3\n      add\n      swap2\n      swap1\n      0x00\n      mstore\n      keccak256(0x00, 0x20)\n      swap1\n    tag_286:\n      dup2\n      sload\n      dup2\n      mstore\n      swap1\n      0x01\n      add\n      swap1\n      0x20\n      add\n      dup1\n      dup4\n      gt\n      tag_286\n      jumpi\n      dup3\n      swap1\n      sub\n      0x1f\n      and\n      dup3\n      add\n      swap2\n    tag_284:\n      pop\n      pop\n      pop\n      pop\n      pop\n        /* \"contracts/MarketPlace.sol\":6147:6159  containsWord */\n      tag_287\n        /* \"contracts/MarketPlace.sol\":6147:6192  containsWord(_partialTitle, products[i].name) */\n      jump\t// in\n    tag_278:\n        /* \"contracts/MarketPlace.sol\":5947:6192  isValid &&\r... */\n    tag_277:\n        /* \"contracts/MarketPlace.sol\":5941:6344  if (!(isValid &&\r... */\n      tag_288\n      jumpi\n        /* \"contracts/MarketPlace.sol\":6323:6328  false */\n      0x00\n        /* \"contracts/MarketPlace.sol\":6313:6328  isValid = false */\n      swap2\n      pop\n        /* \"contracts/MarketPlace.sol\":5941:6344  if (!(isValid &&\r... */\n    tag_288:\n        /* \"contracts/MarketPlace.sol\":6362:6369  isValid */\n      dup2\n        /* \"contracts/MarketPlace.sol\":6358:6461  if (isValid) {\r... */\n      iszero\n      tag_289\n      jumpi\n        /* \"contracts/MarketPlace.sol\":6434:6442  products */\n      0x05\n        /* \"contracts/MarketPlace.sol\":6443:6444  i */\n      dup4\n        /* \"contracts/MarketPlace.sol\":6434:6445  products[i] */\n      dup2\n      sload\n      dup2\n      lt\n      tag_290\n      jumpi\n      tag_291\n      tag_122\n      jump\t// in\n    tag_291:\n    tag_290:\n      swap1\n      0x00\n      mstore\n      keccak256(0x00, 0x20)\n      swap1\n      0x07\n      mul\n      add\n        /* \"contracts/MarketPlace.sol\":6390:6445  productsForSale[productsForSaleCounter++] = products[i] */\n      mload(0x40)\n      dup1\n      0xe0\n      add\n      0x40\n      mstore\n      swap1\n      dup2\n      0x00\n      dup3\n      add\n      sload\n      dup2\n      mstore\n      0x20\n      add\n      0x01\n      dup3\n      add\n      0x00\n      swap1\n      sload\n      swap1\n      0x0100\n      exp\n      swap1\n      div\n      0xffffffffffffffffffffffffffffffffffffffff\n      and\n      0xffffffffffffffffffffffffffffffffffffffff\n      and\n      0xffffffffffffffffffffffffffffffffffffffff\n      and\n      dup2\n      mstore\n      0x20\n      add\n      0x02\n      dup3\n      add\n      dup1\n      sload\n      tag_293\n      swap1\n      tag_146\n      jump\t// in\n    tag_293:\n      dup1\n      0x1f\n      add\n      0x20\n      dup1\n      swap2\n      div\n      mul\n      0x20\n      add\n      mload(0x40)\n      swap1\n      dup2\n      add\n      0x40\n      mstore\n      dup1\n      swap3\n      swap2\n      swap1\n      dup2\n      dup2\n      mstore\n      0x20\n      add\n      dup3\n      dup1\n      sload\n      tag_294\n      swap1\n      tag_146\n      jump\t// in\n    tag_294:\n      dup1\n      iszero\n      tag_295\n      jumpi\n      dup1\n      0x1f\n      lt\n      tag_296\n      jumpi\n      0x0100\n      dup1\n      dup4\n      sload\n      div\n      mul\n      dup4\n      mstore\n      swap2\n      0x20\n      add\n      swap2\n      jump(tag_295)\n    tag_296:\n      dup3\n      add\n      swap2\n      swap1\n      0x00\n      mstore\n      keccak256(0x00, 0x20)\n      swap1\n    tag_297:\n      dup2\n      sload\n      dup2\n      mstore\n      swap1\n      0x01\n      add\n      swap1\n      0x20\n      add\n      dup1\n      dup4\n      gt\n      tag_297\n      jumpi\n      dup3\n      swap1\n      sub\n      0x1f\n      and\n      dup3\n      add\n      swap2\n    tag_295:\n      pop\n      pop\n      pop\n      pop\n      pop\n      dup2\n      mstore\n      0x20\n      add\n      0x03\n      dup3\n      add\n      dup1\n      sload\n      tag_298\n      swap1\n      tag_146\n      jump\t// in\n    tag_298:\n      dup1\n      0x1f\n      add\n      0x20\n      dup1\n      swap2\n      div\n      mul\n      0x20\n      add\n      mload(0x40)\n      swap1\n      dup2\n      add\n      0x40\n      mstore\n      dup1\n      swap3\n      swap2\n      swap1\n      dup2\n      dup2\n      mstore\n      0x20\n      add\n      dup3\n      dup1\n      sload\n      tag_299\n      swap1\n      tag_146\n      jump\t// in\n    tag_299:\n      dup1\n      iszero\n      tag_300\n      jumpi\n      dup1\n      0x1f\n      lt\n      tag_301\n      jumpi\n      0x0100\n      dup1\n      dup4\n      sload\n      div\n      mul\n      dup4\n      mstore\n      swap2\n      0x20\n      add\n      swap2\n      jump(tag_300)\n    tag_301:\n      dup3\n      add\n      swap2\n      swap1\n      0x00\n      mstore\n      keccak256(0x00, 0x20)\n      swap1\n    tag_302:\n      dup2\n      sload\n      dup2\n      mstore\n      swap1\n      0x01\n      add\n      swap1\n      0x20\n      add\n      dup1\n      dup4\n      gt\n      tag_302\n      jumpi\n      dup3\n      swap1\n      sub\n      0x1f\n      and\n      dup3\n      add\n      swap2\n    tag_300:\n      pop\n      pop\n      pop\n      pop\n      pop\n      dup2\n      mstore\n      0x20\n      add\n      0x04\n      dup3\n      add\n      dup1\n      sload\n      tag_303\n      swap1\n      tag_146\n      jump\t// in\n    tag_303:\n      dup1\n      0x1f\n      add\n      0x20\n      dup1\n      swap2\n      div\n      mul\n      0x20\n      add\n      mload(0x40)\n      swap1\n      dup2\n      add\n      0x40\n      mstore\n      dup1\n      swap3\n      swap2\n      swap1\n      dup2\n      dup2\n      mstore\n      0x20\n      add\n      dup3\n      dup1\n      sload\n      tag_304\n      swap1\n      tag_146\n      jump\t// in\n    tag_304:\n      dup1\n      iszero\n      tag_305\n      jumpi\n      dup1\n      0x1f\n      lt\n      tag_306\n      jumpi\n      0x0100\n      dup1\n      dup4\n      sload\n      div\n      mul\n      dup4\n      mstore\n      swap2\n      0x20\n      add\n      swap2\n      jump(tag_305)\n    tag_306:\n      dup3\n      add\n      swap2\n      swap1\n      0x00\n      mstore\n      keccak256(0x00, 0x20)\n      swap1\n    tag_307:\n      dup2\n      sload\n      dup2\n      mstore\n      swap1\n      0x01\n      add\n      swap1\n      0x20\n      add\n      dup1\n      dup4\n      gt\n      tag_307\n      jumpi\n      dup3\n      swap1\n      sub\n      0x1f\n      and\n      dup3\n      add\n      swap2\n    tag_305:\n      pop\n      pop\n      pop\n      pop\n      pop\n      dup2\n      mstore\n      0x20\n      add\n      0x05\n      dup3\n      add\n      dup1\n      sload\n      dup1\n      0x20\n      mul\n      0x20\n      add\n      mload(0x40)\n      swap1\n      dup2\n      add\n      0x40\n      mstore\n      dup1\n      swap3\n      swap2\n      swap1\n      dup2\n      dup2\n      mstore\n      0x20\n      add\n      0x00\n      swap1\n    tag_308:\n      dup3\n      dup3\n      lt\n      iszero\n      tag_309\n      jumpi\n      dup4\n      dup3\n      swap1\n      0x00\n      mstore\n      keccak256(0x00, 0x20)\n      add\n      dup1\n      sload\n      tag_311\n      swap1\n      tag_146\n      jump\t// in\n    tag_311:\n      dup1\n      0x1f\n      add\n      0x20\n      dup1\n      swap2\n      div\n      mul\n      0x20\n      add\n      mload(0x40)\n      swap1\n      dup2\n      add\n      0x40\n      mstore\n      dup1\n      swap3\n      swap2\n      swap1\n      dup2\n      dup2\n      mstore\n      0x20\n      add\n      dup3\n      dup1\n      sload\n      tag_312\n      swap1\n      tag_146\n      jump\t// in\n    tag_312:\n      dup1\n      iszero\n      tag_313\n      jumpi\n      dup1\n      0x1f\n      lt\n      tag_314\n      jumpi\n      0x0100\n      dup1\n      dup4\n      sload\n      div\n      mul\n      dup4\n      mstore\n      swap2\n      0x20\n      add\n      swap2\n      jump(tag_313)\n    tag_314:\n      dup3\n      add\n      swap2\n      swap1\n      0x00\n      mstore\n      keccak256(0x00, 0x20)\n      swap1\n    tag_315:\n      dup2\n      sload\n      dup2\n      mstore\n      swap1\n      0x01\n      add\n      swap1\n      0x20\n      add\n      dup1\n      dup4\n      gt\n      tag_315\n      jumpi\n      dup3\n      swap1\n      sub\n      0x1f\n      and\n      dup3\n      add\n      swap2\n    tag_313:\n      pop\n      pop\n      pop\n      pop\n      pop\n      dup2\n      mstore\n      0x20\n      add\n      swap1\n      0x01\n      add\n      swap1\n      jump(tag_308)\n    tag_309:\n      pop\n      pop\n      pop\n      pop\n      dup2\n      mstore\n      0x20\n      add\n      0x06\n      dup3\n      add\n      0x00\n      swap1\n      sload\n      swap1\n      0x0100\n      exp\n      swap1\n      div\n      0xff\n      and\n      iszero\n      iszero\n      iszero\n      iszero\n      dup2\n      mstore\n      pop\n      pop\n        /* \"contracts/MarketPlace.sol\":6390:6405  productsForSale */\n      dup6\n        /* \"contracts/MarketPlace.sol\":6406:6430  productsForSaleCounter++ */\n      dup6\n      dup1\n      tag_316\n      swap1\n      tag_107\n      jump\t// in\n    tag_316:\n      swap7\n      pop\n        /* \"contracts/MarketPlace.sol\":6390:6431  productsForSale[productsForSaleCounter++] */\n      dup2\n      mload\n      dup2\n      lt\n      tag_317\n      jumpi\n      tag_318\n      tag_122\n      jump\t// in\n    tag_318:\n    tag_317:\n      0x20\n      mul\n      0x20\n      add\n      add\n        /* \"contracts/MarketPlace.sol\":6390:6445  productsForSale[productsForSaleCounter++] = products[i] */\n      dup2\n      swap1\n      mstore\n      pop\n        /* \"contracts/MarketPlace.sol\":6358:6461  if (isValid) {\r... */\n    tag_289:\n        /* \"contracts/MarketPlace.sol\":5261:6472  {\r... */\n      pop\n      pop\n        /* \"contracts/MarketPlace.sol\":5164:6472  for (i = _startIndexForSearch; i < products.length && productsForSaleCounter < _maxResults; i++) {\r... */\n    tag_236:\n        /* \"contracts/MarketPlace.sol\":5256:5259  i++ */\n      dup1\n      dup1\n      tag_319\n      swap1\n      tag_107\n      jump\t// in\n    tag_319:\n      swap2\n      pop\n      pop\n        /* \"contracts/MarketPlace.sol\":5164:6472  for (i = _startIndexForSearch; i < products.length && productsForSaleCounter < _maxResults; i++) {\r... */\n      jump(tag_234)\n    tag_235:\n        /* \"contracts/MarketPlace.sol\":6490:6491  i */\n      dup1\n        /* \"contracts/MarketPlace.sol\":6493:6508  productsForSale */\n      dup4\n        /* \"contracts/MarketPlace.sol\":6482:6509  return (i, productsForSale) */\n      swap5\n      pop\n      swap5\n      pop\n      pop\n      pop\n      pop\n        /* \"contracts/MarketPlace.sol\":4801:6517  function filterSellingProducts(string memory _partialTitle, string memory _category, address _owner, uint256 _date, uint256 _startIndexForSearch, uint256 _maxResults) external view returns (uint256, Product[] memory) {\r... */\n      swap7\n      pop\n      swap7\n      swap5\n      pop\n      pop\n      pop\n      pop\n      pop\n      jump\t// out\n        /* \"contracts/MarketPlace.sol\":3362:4224  function buyProduct(uint256 _productId, address _productSeller) external payable isProductOwner(_productId, _productSeller) {\r... */\n    tag_74:\n        /* \"contracts/MarketPlace.sol\":3458:3468  _productId */\n      dup2\n        /* \"contracts/MarketPlace.sol\":3470:3484  _productSeller */\n      dup2\n        /* \"contracts/MarketPlace.sol\":1102:1108  _owner */\n      dup1\n        /* \"contracts/MarketPlace.sol\":1072:1108  products[_productId].owner == _owner */\n      0xffffffffffffffffffffffffffffffffffffffff\n      and\n        /* \"contracts/MarketPlace.sol\":1072:1080  products */\n      0x05\n        /* \"contracts/MarketPlace.sol\":1081:1091  _productId */\n      dup4\n        /* \"contracts/MarketPlace.sol\":1072:1092  products[_productId] */\n      dup2\n      sload\n      dup2\n      lt\n      tag_321\n      jumpi\n      tag_322\n      tag_122\n      jump\t// in\n    tag_322:\n    tag_321:\n      swap1\n      0x00\n      mstore\n      keccak256(0x00, 0x20)\n      swap1\n      0x07\n      mul\n      add\n        /* \"contracts/MarketPlace.sol\":1072:1098  products[_productId].owner */\n      0x01\n      add\n      0x00\n      swap1\n      sload\n      swap1\n      0x0100\n      exp\n      swap1\n      div\n      0xffffffffffffffffffffffffffffffffffffffff\n      and\n        /* \"contracts/MarketPlace.sol\":1072:1108  products[_productId].owner == _owner */\n      0xffffffffffffffffffffffffffffffffffffffff\n      and\n      eq\n        /* \"contracts/MarketPlace.sol\":1064:1166  require(products[_productId].owner == _owner, \"The supplied address is not the owner of the product!\") */\n      tag_324\n      jumpi\n      mload(0x40)\n      0x08c379a000000000000000000000000000000000000000000000000000000000\n      dup2\n      mstore\n      0x04\n      add\n      tag_325\n      swap1\n      tag_326\n      jump\t// in\n    tag_325:\n      mload(0x40)\n      dup1\n      swap2\n      sub\n      swap1\n      revert\n    tag_324:\n        /* \"contracts/MarketPlace.sol\":3497:3531  SellableProduct memory soldProduct */\n      0x00\n        /* \"contracts/MarketPlace.sol\":3534:3555  ownedSellableProducts */\n      0x02\n        /* \"contracts/MarketPlace.sol\":3534:3571  ownedSellableProducts[_productSeller] */\n      0x00\n        /* \"contracts/MarketPlace.sol\":3556:3570  _productSeller */\n      dup6\n        /* \"contracts/MarketPlace.sol\":3534:3571  ownedSellableProducts[_productSeller] */\n      0xffffffffffffffffffffffffffffffffffffffff\n      and\n      0xffffffffffffffffffffffffffffffffffffffff\n      and\n      dup2\n      mstore\n      0x20\n      add\n      swap1\n      dup2\n      mstore\n      0x20\n      add\n      0x00\n      keccak256\n        /* \"contracts/MarketPlace.sol\":3534:3583  ownedSellableProducts[_productSeller][_productId] */\n      0x00\n        /* \"contracts/MarketPlace.sol\":3572:3582  _productId */\n      dup7\n        /* \"contracts/MarketPlace.sol\":3534:3583  ownedSellableProducts[_productSeller][_productId] */\n      dup2\n      mstore\n      0x20\n      add\n      swap1\n      dup2\n      mstore\n      0x20\n      add\n      0x00\n      keccak256\n        /* \"contracts/MarketPlace.sol\":3497:3583  SellableProduct memory soldProduct = ownedSellableProducts[_productSeller][_productId] */\n      mload(0x40)\n      dup1\n      0x80\n      add\n      0x40\n      mstore\n      swap1\n      dup2\n      0x00\n      dup3\n      add\n      sload\n      dup2\n      mstore\n      0x20\n      add\n      0x01\n      dup3\n      add\n      sload\n      dup2\n      mstore\n      0x20\n      add\n      0x02\n      dup3\n      add\n      sload\n      dup2\n      mstore\n      0x20\n      add\n      0x03\n      dup3\n      add\n      sload\n      dup2\n      mstore\n      pop\n      pop\n      swap1\n      pop\n        /* \"contracts/MarketPlace.sol\":3635:3646  soldProduct */\n      dup1\n        /* \"contracts/MarketPlace.sol\":3635:3651  soldProduct.fees */\n      0x20\n      add\n      mload\n        /* \"contracts/MarketPlace.sol\":3615:3626  soldProduct */\n      dup2\n        /* \"contracts/MarketPlace.sol\":3615:3632  soldProduct.price */\n      0x00\n      add\n      mload\n        /* \"contracts/MarketPlace.sol\":3615:3651  soldProduct.price + soldProduct.fees */\n      tag_328\n      swap2\n      swap1\n      tag_329\n      jump\t// in\n    tag_328:\n        /* \"contracts/MarketPlace.sol\":3602:3611  msg.value */\n      callvalue\n        /* \"contracts/MarketPlace.sol\":3602:3651  msg.value >= soldProduct.price + soldProduct.fees */\n      lt\n      iszero\n        /* \"contracts/MarketPlace.sol\":3594:3676  require(msg.value >= soldProduct.price + soldProduct.fees, \"Not enough wei sent!\") */\n      tag_330\n      jumpi\n      mload(0x40)\n      0x08c379a000000000000000000000000000000000000000000000000000000000\n      dup2\n      mstore\n      0x04\n      add\n      tag_331\n      swap1\n      tag_332\n      jump\t// in\n    tag_331:\n      mload(0x40)\n      dup1\n      swap2\n      sub\n      swap1\n      revert\n    tag_330:\n        /* \"contracts/MarketPlace.sol\":3688:3700  bool success */\n      0x00\n        /* \"contracts/MarketPlace.sol\":3714:3728  _productSeller */\n      dup5\n        /* \"contracts/MarketPlace.sol\":3706:3734  payable(_productSeller).call */\n      0xffffffffffffffffffffffffffffffffffffffff\n      and\n        /* \"contracts/MarketPlace.sol\":3742:3753  soldProduct */\n      dup3\n        /* \"contracts/MarketPlace.sol\":3742:3759  soldProduct.price */\n      0x00\n      add\n      mload\n        /* \"contracts/MarketPlace.sol\":3706:3764  payable(_productSeller).call{value: soldProduct.price}(\"\") */\n      mload(0x40)\n      tag_333\n      swap1\n      tag_334\n      jump\t// in\n    tag_333:\n      0x00\n      mload(0x40)\n      dup1\n      dup4\n      sub\n      dup2\n      dup6\n      dup8\n      gas\n      call\n      swap3\n      pop\n      pop\n      pop\n      returndatasize\n      dup1\n      0x00\n      dup2\n      eq\n      tag_337\n      jumpi\n      mload(0x40)\n      swap2\n      pop\n      and(add(returndatasize, 0x3f), not(0x1f))\n      dup3\n      add\n      0x40\n      mstore\n      returndatasize\n      dup3\n      mstore\n      returndatasize\n      0x00\n      0x20\n      dup5\n      add\n      returndatacopy\n      jump(tag_336)\n    tag_337:\n      0x60\n      swap2\n      pop\n    tag_336:\n      pop\n        /* \"contracts/MarketPlace.sol\":3687:3764  (bool success, ) = payable(_productSeller).call{value: soldProduct.price}(\"\") */\n      pop\n      swap1\n      pop\n        /* \"contracts/MarketPlace.sol\":3783:3790  success */\n      dup1\n        /* \"contracts/MarketPlace.sol\":3775:3814  require(success, \"Transaction failed!\") */\n      tag_338\n      jumpi\n      mload(0x40)\n      0x08c379a000000000000000000000000000000000000000000000000000000000\n      dup2\n      mstore\n      0x04\n      add\n      tag_339\n      swap1\n      tag_340\n      jump\t// in\n    tag_339:\n      mload(0x40)\n      dup1\n      swap2\n      sub\n      swap1\n      revert\n    tag_338:\n        /* \"contracts/MarketPlace.sol\":3835:3849  productHistory */\n      0x04\n        /* \"contracts/MarketPlace.sol\":3835:3861  productHistory[_productId] */\n      0x00\n        /* \"contracts/MarketPlace.sol\":3850:3860  _productId */\n      dup8\n        /* \"contracts/MarketPlace.sol\":3835:3861  productHistory[_productId] */\n      dup2\n      mstore\n      0x20\n      add\n      swap1\n      dup2\n      mstore\n      0x20\n      add\n      0x00\n      keccak256\n        /* \"contracts/MarketPlace.sol\":3867:3972  TransactionDetails(soldProduct.price, soldProduct.fees, soldProduct.datetime, _productSeller, msg.sender) */\n      mload(0x40)\n      dup1\n      0xa0\n      add\n      0x40\n      mstore\n      dup1\n        /* \"contracts/MarketPlace.sol\":3886:3897  soldProduct */\n      dup5\n        /* \"contracts/MarketPlace.sol\":3886:3903  soldProduct.price */\n      0x00\n      add\n      mload\n        /* \"contracts/MarketPlace.sol\":3867:3972  TransactionDetails(soldProduct.price, soldProduct.fees, soldProduct.datetime, _productSeller, msg.sender) */\n      dup2\n      mstore\n      0x20\n      add\n        /* \"contracts/MarketPlace.sol\":3905:3916  soldProduct */\n      dup5\n        /* \"contracts/MarketPlace.sol\":3905:3921  soldProduct.fees */\n      0x20\n      add\n      mload\n        /* \"contracts/MarketPlace.sol\":3867:3972  TransactionDetails(soldProduct.price, soldProduct.fees, soldProduct.datetime, _productSeller, msg.sender) */\n      dup2\n      mstore\n      0x20\n      add\n        /* \"contracts/MarketPlace.sol\":3923:3934  soldProduct */\n      dup5\n        /* \"contracts/MarketPlace.sol\":3923:3943  soldProduct.datetime */\n      0x40\n      add\n      mload\n        /* \"contracts/MarketPlace.sol\":3867:3972  TransactionDetails(soldProduct.price, soldProduct.fees, soldProduct.datetime, _productSeller, msg.sender) */\n      dup2\n      mstore\n      0x20\n      add\n        /* \"contracts/MarketPlace.sol\":3945:3959  _productSeller */\n      dup8\n        /* \"contracts/MarketPlace.sol\":3867:3972  TransactionDetails(soldProduct.price, soldProduct.fees, soldProduct.datetime, _productSeller, msg.sender) */\n      0xffffffffffffffffffffffffffffffffffffffff\n      and\n      dup2\n      mstore\n      0x20\n      add\n        /* \"contracts/MarketPlace.sol\":3961:3971  msg.sender */\n      caller\n        /* \"contracts/MarketPlace.sol\":3867:3972  TransactionDetails(soldProduct.price, soldProduct.fees, soldProduct.datetime, _productSeller, msg.sender) */\n      0xffffffffffffffffffffffffffffffffffffffff\n      and\n      dup2\n      mstore\n      pop\n        /* \"contracts/MarketPlace.sol\":3835:3973  productHistory[_productId].push(TransactionDetails(soldProduct.price, soldProduct.fees, soldProduct.datetime, _productSeller, msg.sender)) */\n      swap1\n      dup1\n      0x01\n      dup2\n      sload\n      add\n      dup1\n      dup3\n      sstore\n      dup1\n      swap2\n      pop\n      pop\n      0x01\n      swap1\n      sub\n      swap1\n      0x00\n      mstore\n      keccak256(0x00, 0x20)\n      swap1\n      0x05\n      mul\n      add\n      0x00\n      swap1\n      swap2\n      swap1\n      swap2\n      swap1\n      swap2\n      pop\n      0x00\n      dup3\n      add\n      mload\n      dup2\n      0x00\n      add\n      sstore\n      0x20\n      dup3\n      add\n      mload\n      dup2\n      0x01\n      add\n      sstore\n      0x40\n      dup3\n      add\n      mload\n      dup2\n      0x02\n      add\n      sstore\n      0x60\n      dup3\n      add\n      mload\n      dup2\n      0x03\n      add\n      exp(0x0100, 0x00)\n      dup2\n      sload\n      dup2\n      0xffffffffffffffffffffffffffffffffffffffff\n      mul\n      not\n      and\n      swap1\n      dup4\n      0xffffffffffffffffffffffffffffffffffffffff\n      and\n      mul\n      or\n      swap1\n      sstore\n      pop\n      0x80\n      dup3\n      add\n      mload\n      dup2\n      0x04\n      add\n      exp(0x0100, 0x00)\n      dup2\n      sload\n      dup2\n      0xffffffffffffffffffffffffffffffffffffffff\n      mul\n      not\n      and\n      swap1\n      dup4\n      0xffffffffffffffffffffffffffffffffffffffff\n      and\n      mul\n      or\n      swap1\n      sstore\n      pop\n      pop\n      pop\n        /* \"contracts/MarketPlace.sol\":3984:4057  transferFromSellableToNonSellable(_productSeller, msg.sender, _productId) */\n      tag_342\n        /* \"contracts/MarketPlace.sol\":4018:4032  _productSeller */\n      dup6\n        /* \"contracts/MarketPlace.sol\":4034:4044  msg.sender */\n      caller\n        /* \"contracts/MarketPlace.sol\":4046:4056  _productId */\n      dup9\n        /* \"contracts/MarketPlace.sol\":3984:4017  transferFromSellableToNonSellable */\n      tag_343\n        /* \"contracts/MarketPlace.sol\":3984:4057  transferFromSellableToNonSellable(_productSeller, msg.sender, _productId) */\n      jump\t// in\n    tag_342:\n        /* \"contracts/MarketPlace.sol\":4092:4099  owner() */\n      tag_344\n        /* \"contracts/MarketPlace.sol\":4092:4097  owner */\n      tag_63\n        /* \"contracts/MarketPlace.sol\":4092:4099  owner() */\n      jump\t// in\n    tag_344:\n        /* \"contracts/MarketPlace.sol\":4084:4105  payable(owner()).call */\n      0xffffffffffffffffffffffffffffffffffffffff\n      and\n        /* \"contracts/MarketPlace.sol\":4113:4124  soldProduct */\n      dup3\n        /* \"contracts/MarketPlace.sol\":4113:4129  soldProduct.fees */\n      0x20\n      add\n      mload\n        /* \"contracts/MarketPlace.sol\":4084:4134  payable(owner()).call{value: soldProduct.fees}(\"\") */\n      mload(0x40)\n      tag_345\n      swap1\n      tag_334\n      jump\t// in\n    tag_345:\n      0x00\n      mload(0x40)\n      dup1\n      dup4\n      sub\n      dup2\n      dup6\n      dup8\n      gas\n      call\n      swap3\n      pop\n      pop\n      pop\n      returndatasize\n      dup1\n      0x00\n      dup2\n      eq\n      tag_348\n      jumpi\n      mload(0x40)\n      swap2\n      pop\n      and(add(returndatasize, 0x3f), not(0x1f))\n      dup3\n      add\n      0x40\n      mstore\n      returndatasize\n      dup3\n      mstore\n      returndatasize\n      0x00\n      0x20\n      dup5\n      add\n      returndatacopy\n      jump(tag_347)\n    tag_348:\n      0x60\n      swap2\n      pop\n    tag_347:\n      pop\n        /* \"contracts/MarketPlace.sol\":4070:4134  (success, ) = payable(owner()).call{value: soldProduct.fees}(\"\") */\n      pop\n      dup1\n      swap2\n      pop\n      pop\n        /* \"contracts/MarketPlace.sol\":4153:4160  success */\n      dup1\n        /* \"contracts/MarketPlace.sol\":4145:4216  require(success, \"Fees payment failed but transaction was successful!\") */\n      tag_349\n      jumpi\n      mload(0x40)\n      0x08c379a000000000000000000000000000000000000000000000000000000000\n      dup2\n      mstore\n      0x04\n      add\n      tag_350\n      swap1\n      tag_351\n      jump\t// in\n    tag_350:\n      mload(0x40)\n      dup1\n      swap2\n      sub\n      swap1\n      revert\n    tag_349:\n        /* \"contracts/MarketPlace.sol\":3486:4224  {\r... */\n      pop\n      pop\n        /* \"contracts/MarketPlace.sol\":3362:4224  function buyProduct(uint256 _productId, address _productSeller) external payable isProductOwner(_productId, _productSeller) {\r... */\n      pop\n      pop\n      pop\n      pop\n      jump\t// out\n        /* \"contracts/MarketPlace.sol\":1194:1317  function setFeePercentage(uint256 _feePercentage) external onlyOwner {\r... */\n    tag_78:\n        /* \"contracts/Ownable.sol\":1302:1314  _msgSender() */\n      tag_353\n        /* \"contracts/Ownable.sol\":1302:1312  _msgSender */\n      tag_219\n        /* \"contracts/Ownable.sol\":1302:1314  _msgSender() */\n      jump\t// in\n    tag_353:\n        /* \"contracts/Ownable.sol\":1291:1314  owner() == _msgSender() */\n      0xffffffffffffffffffffffffffffffffffffffff\n      and\n        /* \"contracts/Ownable.sol\":1291:1298  owner() */\n      tag_354\n        /* \"contracts/Ownable.sol\":1291:1296  owner */\n      tag_63\n        /* \"contracts/Ownable.sol\":1291:1298  owner() */\n      jump\t// in\n    tag_354:\n        /* \"contracts/Ownable.sol\":1291:1314  owner() == _msgSender() */\n      0xffffffffffffffffffffffffffffffffffffffff\n      and\n      eq\n        /* \"contracts/Ownable.sol\":1283:1351  require(owner() == _msgSender(), \"Ownable: caller is not the owner\") */\n      tag_355\n      jumpi\n      mload(0x40)\n      0x08c379a000000000000000000000000000000000000000000000000000000000\n      dup2\n      mstore\n      0x04\n      add\n      tag_356\n      swap1\n      tag_223\n      jump\t// in\n    tag_356:\n      mload(0x40)\n      dup1\n      swap2\n      sub\n      swap1\n      revert\n    tag_355:\n        /* \"contracts/MarketPlace.sol\":1295:1309  _feePercentage */\n      dup1\n        /* \"contracts/MarketPlace.sol\":1274:1292  feePricePercentage */\n      0x06\n        /* \"contracts/MarketPlace.sol\":1274:1309  feePricePercentage = _feePercentage */\n      dup2\n      swap1\n      sstore\n      pop\n        /* \"contracts/MarketPlace.sol\":1194:1317  function setFeePercentage(uint256 _feePercentage) external onlyOwner {\r... */\n      pop\n      jump\t// out\n        /* \"contracts/MarketPlace.sol\":6687:6962  function getSellableProductDetails(uint256 _productId) external view returns (SellableProduct memory) {\r... */\n    tag_82:\n        /* \"contracts/MarketPlace.sol\":6765:6787  SellableProduct memory */\n      tag_358\n      tag_359\n      jump\t// in\n    tag_358:\n        /* \"contracts/MarketPlace.sol\":6800:6822  Product memory product */\n      0x00\n        /* \"contracts/MarketPlace.sol\":6825:6833  products */\n      0x05\n        /* \"contracts/MarketPlace.sol\":6834:6844  _productId */\n      dup4\n        /* \"contracts/MarketPlace.sol\":6825:6845  products[_productId] */\n      dup2\n      sload\n      dup2\n      lt\n      tag_361\n      jumpi\n      tag_362\n      tag_122\n      jump\t// in\n    tag_362:\n    tag_361:\n      swap1\n      0x00\n      mstore\n      keccak256(0x00, 0x20)\n      swap1\n      0x07\n      mul\n      add\n        /* \"contracts/MarketPlace.sol\":6800:6845  Product memory product = products[_productId] */\n      mload(0x40)\n      dup1\n      0xe0\n      add\n      0x40\n      mstore\n      swap1\n      dup2\n      0x00\n      dup3\n      add\n      sload\n      dup2\n      mstore\n      0x20\n      add\n      0x01\n      dup3\n      add\n      0x00\n      swap1\n      sload\n      swap1\n      0x0100\n      exp\n      swap1\n      div\n      0xffffffffffffffffffffffffffffffffffffffff\n      and\n      0xffffffffffffffffffffffffffffffffffffffff\n      and\n      0xffffffffffffffffffffffffffffffffffffffff\n      and\n      dup2\n      mstore\n      0x20\n      add\n      0x02\n      dup3\n      add\n      dup1\n      sload\n      tag_364\n      swap1\n      tag_146\n      jump\t// in\n    tag_364:\n      dup1\n      0x1f\n      add\n      0x20\n      dup1\n      swap2\n      div\n      mul\n      0x20\n      add\n      mload(0x40)\n      swap1\n      dup2\n      add\n      0x40\n      mstore\n      dup1\n      swap3\n      swap2\n      swap1\n      dup2\n      dup2\n      mstore\n      0x20\n      add\n      dup3\n      dup1\n      sload\n      tag_365\n      swap1\n      tag_146\n      jump\t// in\n    tag_365:\n      dup1\n      iszero\n      tag_366\n      jumpi\n      dup1\n      0x1f\n      lt\n      tag_367\n      jumpi\n      0x0100\n      dup1\n      dup4\n      sload\n      div\n      mul\n      dup4\n      mstore\n      swap2\n      0x20\n      add\n      swap2\n      jump(tag_366)\n    tag_367:\n      dup3\n      add\n      swap2\n      swap1\n      0x00\n      mstore\n      keccak256(0x00, 0x20)\n      swap1\n    tag_368:\n      dup2\n      sload\n      dup2\n      mstore\n      swap1\n      0x01\n      add\n      swap1\n      0x20\n      add\n      dup1\n      dup4\n      gt\n      tag_368\n      jumpi\n      dup3\n      swap1\n      sub\n      0x1f\n      and\n      dup3\n      add\n      swap2\n    tag_366:\n      pop\n      pop\n      pop\n      pop\n      pop\n      dup2\n      mstore\n      0x20\n      add\n      0x03\n      dup3\n      add\n      dup1\n      sload\n      tag_369\n      swap1\n      tag_146\n      jump\t// in\n    tag_369:\n      dup1\n      0x1f\n      add\n      0x20\n      dup1\n      swap2\n      div\n      mul\n      0x20\n      add\n      mload(0x40)\n      swap1\n      dup2\n      add\n      0x40\n      mstore\n      dup1\n      swap3\n      swap2\n      swap1\n      dup2\n      dup2\n      mstore\n      0x20\n      add\n      dup3\n      dup1\n      sload\n      tag_370\n      swap1\n      tag_146\n      jump\t// in\n    tag_370:\n      dup1\n      iszero\n      tag_371\n      jumpi\n      dup1\n      0x1f\n      lt\n      tag_372\n      jumpi\n      0x0100\n      dup1\n      dup4\n      sload\n      div\n      mul\n      dup4\n      mstore\n      swap2\n      0x20\n      add\n      swap2\n      jump(tag_371)\n    tag_372:\n      dup3\n      add\n      swap2\n      swap1\n      0x00\n      mstore\n      keccak256(0x00, 0x20)\n      swap1\n    tag_373:\n      dup2\n      sload\n      dup2\n      mstore\n      swap1\n      0x01\n      add\n      swap1\n      0x20\n      add\n      dup1\n      dup4\n      gt\n      tag_373\n      jumpi\n      dup3\n      swap1\n      sub\n      0x1f\n      and\n      dup3\n      add\n      swap2\n    tag_371:\n      pop\n      pop\n      pop\n      pop\n      pop\n      dup2\n      mstore\n      0x20\n      add\n      0x04\n      dup3\n      add\n      dup1\n      sload\n      tag_374\n      swap1\n      tag_146\n      jump\t// in\n    tag_374:\n      dup1\n      0x1f\n      add\n      0x20\n      dup1\n      swap2\n      div\n      mul\n      0x20\n      add\n      mload(0x40)\n      swap1\n      dup2\n      add\n      0x40\n      mstore\n      dup1\n      swap3\n      swap2\n      swap1\n      dup2\n      dup2\n      mstore\n      0x20\n      add\n      dup3\n      dup1\n      sload\n      tag_375\n      swap1\n      tag_146\n      jump\t// in\n    tag_375:\n      dup1\n      iszero\n      tag_376\n      jumpi\n      dup1\n      0x1f\n      lt\n      tag_377\n      jumpi\n      0x0100\n      dup1\n      dup4\n      sload\n      div\n      mul\n      dup4\n      mstore\n      swap2\n      0x20\n      add\n      swap2\n      jump(tag_376)\n    tag_377:\n      dup3\n      add\n      swap2\n      swap1\n      0x00\n      mstore\n      keccak256(0x00, 0x20)\n      swap1\n    tag_378:\n      dup2\n      sload\n      dup2\n      mstore\n      swap1\n      0x01\n      add\n      swap1\n      0x20\n      add\n      dup1\n      dup4\n      gt\n      tag_378\n      jumpi\n      dup3\n      swap1\n      sub\n      0x1f\n      and\n      dup3\n      add\n      swap2\n    tag_376:\n      pop\n      pop\n      pop\n      pop\n      pop\n      dup2\n      mstore\n      0x20\n      add\n      0x05\n      dup3\n      add\n      dup1\n      sload\n      dup1\n      0x20\n      mul\n      0x20\n      add\n      mload(0x40)\n      swap1\n      dup2\n      add\n      0x40\n      mstore\n      dup1\n      swap3\n      swap2\n      swap1\n      dup2\n      dup2\n      mstore\n      0x20\n      add\n      0x00\n      swap1\n    tag_379:\n      dup3\n      dup3\n      lt\n      iszero\n      tag_380\n      jumpi\n      dup4\n      dup3\n      swap1\n      0x00\n      mstore\n      keccak256(0x00, 0x20)\n      add\n      dup1\n      sload\n      tag_382\n      swap1\n      tag_146\n      jump\t// in\n    tag_382:\n      dup1\n      0x1f\n      add\n      0x20\n      dup1\n      swap2\n      div\n      mul\n      0x20\n      add\n      mload(0x40)\n      swap1\n      dup2\n      add\n      0x40\n      mstore\n      dup1\n      swap3\n      swap2\n      swap1\n      dup2\n      dup2\n      mstore\n      0x20\n      add\n      dup3\n      dup1\n      sload\n      tag_383\n      swap1\n      tag_146\n      jump\t// in\n    tag_383:\n      dup1\n      iszero\n      tag_384\n      jumpi\n      dup1\n      0x1f\n      lt\n      tag_385\n      jumpi\n      0x0100\n      dup1\n      dup4\n      sload\n      div\n      mul\n      dup4\n      mstore\n      swap2\n      0x20\n      add\n      swap2\n      jump(tag_384)\n    tag_385:\n      dup3\n      add\n      swap2\n      swap1\n      0x00\n      mstore\n      keccak256(0x00, 0x20)\n      swap1\n    tag_386:\n      dup2\n      sload\n      dup2\n      mstore\n      swap1\n      0x01\n      add\n      swap1\n      0x20\n      add\n      dup1\n      dup4\n      gt\n      tag_386\n      jumpi\n      dup3\n      swap1\n      sub\n      0x1f\n      and\n      dup3\n      add\n      swap2\n    tag_384:\n      pop\n      pop\n      pop\n      pop\n      pop\n      dup2\n      mstore\n      0x20\n      add\n      swap1\n      0x01\n      add\n      swap1\n      jump(tag_379)\n    tag_380:\n      pop\n      pop\n      pop\n      pop\n      dup2\n      mstore\n      0x20\n      add\n      0x06\n      dup3\n      add\n      0x00\n      swap1\n      sload\n      swap1\n      0x0100\n      exp\n      swap1\n      div\n      0xff\n      and\n      iszero\n      iszero\n      iszero\n      iszero\n      dup2\n      mstore\n      pop\n      pop\n      swap1\n      pop\n        /* \"contracts/MarketPlace.sol\":6883:6887  true */\n      0x01\n        /* \"contracts/MarketPlace.sol\":6864:6887  product.forSale == true */\n      iszero\n      iszero\n        /* \"contracts/MarketPlace.sol\":6864:6871  product */\n      dup2\n        /* \"contracts/MarketPlace.sol\":6864:6879  product.forSale */\n      0xc0\n      add\n      mload\n        /* \"contracts/MarketPlace.sol\":6864:6887  product.forSale == true */\n      iszero\n      iszero\n      eq\n        /* \"contracts/MarketPlace.sol\":6856:6888  require(product.forSale == true) */\n      tag_387\n      jumpi\n      0x00\n      dup1\n      revert\n    tag_387:\n        /* \"contracts/MarketPlace.sol\":6906:6927  ownedSellableProducts */\n      0x02\n        /* \"contracts/MarketPlace.sol\":6906:6942  ownedSellableProducts[product.owner] */\n      0x00\n        /* \"contracts/MarketPlace.sol\":6928:6935  product */\n      dup3\n        /* \"contracts/MarketPlace.sol\":6928:6941  product.owner */\n      0x20\n      add\n      mload\n        /* \"contracts/MarketPlace.sol\":6906:6942  ownedSellableProducts[product.owner] */\n      0xffffffffffffffffffffffffffffffffffffffff\n      and\n      0xffffffffffffffffffffffffffffffffffffffff\n      and\n      dup2\n      mstore\n      0x20\n      add\n      swap1\n      dup2\n      mstore\n      0x20\n      add\n      0x00\n      keccak256\n        /* \"contracts/MarketPlace.sol\":6906:6954  ownedSellableProducts[product.owner][_productId] */\n      0x00\n        /* \"contracts/MarketPlace.sol\":6943:6953  _productId */\n      dup5\n        /* \"contracts/MarketPlace.sol\":6906:6954  ownedSellableProducts[product.owner][_productId] */\n      dup2\n      mstore\n      0x20\n      add\n      swap1\n      dup2\n      mstore\n      0x20\n      add\n      0x00\n      keccak256\n        /* \"contracts/MarketPlace.sol\":6899:6954  return ownedSellableProducts[product.owner][_productId] */\n      mload(0x40)\n      dup1\n      0x80\n      add\n      0x40\n      mstore\n      swap1\n      dup2\n      0x00\n      dup3\n      add\n      sload\n      dup2\n      mstore\n      0x20\n      add\n      0x01\n      dup3\n      add\n      sload\n      dup2\n      mstore\n      0x20\n      add\n      0x02\n      dup3\n      add\n      sload\n      dup2\n      mstore\n      0x20\n      add\n      0x03\n      dup3\n      add\n      sload\n      dup2\n      mstore\n      pop\n      pop\n      swap2\n      pop\n      pop\n        /* \"contracts/MarketPlace.sol\":6687:6962  function getSellableProductDetails(uint256 _productId) external view returns (SellableProduct memory) {\r... */\n      swap2\n      swap1\n      pop\n      jump\t// out\n        /* \"contracts/MarketPlace.sol\":2017:2383  function addNonSellableProduct(string memory _name, string memory _description, string memory _link, string[] memory _tags) external {\r... */\n    tag_89:\n        /* \"contracts/MarketPlace.sol\":2161:2171  uint256 id */\n      0x00\n        /* \"contracts/MarketPlace.sol\":2174:2181  idCount */\n      0x01\n      0x00\n        /* \"contracts/MarketPlace.sol\":2174:2183  idCount++ */\n      dup2\n      sload\n      dup1\n      swap3\n      swap2\n      swap1\n      tag_389\n      swap1\n      tag_107\n      jump\t// in\n    tag_389:\n      swap2\n      swap1\n      pop\n      sstore\n        /* \"contracts/MarketPlace.sol\":2161:2183  uint256 id = idCount++ */\n      swap1\n      pop\n        /* \"contracts/MarketPlace.sol\":2194:2216  Product memory product */\n      0x00\n        /* \"contracts/MarketPlace.sol\":2219:2284  Product(id, msg.sender, _name, _description, _link, _tags, false) */\n      mload(0x40)\n      dup1\n      0xe0\n      add\n      0x40\n      mstore\n      dup1\n        /* \"contracts/MarketPlace.sol\":2227:2229  id */\n      dup4\n        /* \"contracts/MarketPlace.sol\":2219:2284  Product(id, msg.sender, _name, _description, _link, _tags, false) */\n      dup2\n      mstore\n      0x20\n      add\n        /* \"contracts/MarketPlace.sol\":2231:2241  msg.sender */\n      caller\n        /* \"contracts/MarketPlace.sol\":2219:2284  Product(id, msg.sender, _name, _description, _link, _tags, false) */\n      0xffffffffffffffffffffffffffffffffffffffff\n      and\n      dup2\n      mstore\n      0x20\n      add\n        /* \"contracts/MarketPlace.sol\":2243:2248  _name */\n      dup8\n        /* \"contracts/MarketPlace.sol\":2219:2284  Product(id, msg.sender, _name, _description, _link, _tags, false) */\n      dup2\n      mstore\n      0x20\n      add\n        /* \"contracts/MarketPlace.sol\":2250:2262  _description */\n      dup7\n        /* \"contracts/MarketPlace.sol\":2219:2284  Product(id, msg.sender, _name, _description, _link, _tags, false) */\n      dup2\n      mstore\n      0x20\n      add\n        /* \"contracts/MarketPlace.sol\":2264:2269  _link */\n      dup6\n        /* \"contracts/MarketPlace.sol\":2219:2284  Product(id, msg.sender, _name, _description, _link, _tags, false) */\n      dup2\n      mstore\n      0x20\n      add\n        /* \"contracts/MarketPlace.sol\":2271:2276  _tags */\n      dup5\n        /* \"contracts/MarketPlace.sol\":2219:2284  Product(id, msg.sender, _name, _description, _link, _tags, false) */\n      dup2\n      mstore\n      0x20\n      add\n        /* \"contracts/MarketPlace.sol\":2278:2283  false */\n      0x00\n        /* \"contracts/MarketPlace.sol\":2219:2284  Product(id, msg.sender, _name, _description, _link, _tags, false) */\n      iszero\n      iszero\n      dup2\n      mstore\n      pop\n        /* \"contracts/MarketPlace.sol\":2194:2284  Product memory product = Product(id, msg.sender, _name, _description, _link, _tags, false) */\n      swap1\n      pop\n        /* \"contracts/MarketPlace.sol\":2295:2303  products */\n      0x05\n        /* \"contracts/MarketPlace.sol\":2309:2316  product */\n      dup2\n        /* \"contracts/MarketPlace.sol\":2295:2317  products.push(product) */\n      swap1\n      dup1\n      0x01\n      dup2\n      sload\n      add\n      dup1\n      dup3\n      sstore\n      dup1\n      swap2\n      pop\n      pop\n      0x01\n      swap1\n      sub\n      swap1\n      0x00\n      mstore\n      keccak256(0x00, 0x20)\n      swap1\n      0x07\n      mul\n      add\n      0x00\n      swap1\n      swap2\n      swap1\n      swap2\n      swap1\n      swap2\n      pop\n      0x00\n      dup3\n      add\n      mload\n      dup2\n      0x00\n      add\n      sstore\n      0x20\n      dup3\n      add\n      mload\n      dup2\n      0x01\n      add\n      exp(0x0100, 0x00)\n      dup2\n      sload\n      dup2\n      0xffffffffffffffffffffffffffffffffffffffff\n      mul\n      not\n      and\n      swap1\n      dup4\n      0xffffffffffffffffffffffffffffffffffffffff\n      and\n      mul\n      or\n      swap1\n      sstore\n      pop\n      0x40\n      dup3\n      add\n      mload\n      dup2\n      0x02\n      add\n      swap1\n      dup1\n      mload\n      swap1\n      0x20\n      add\n      swap1\n      tag_391\n      swap3\n      swap2\n      swap1\n      tag_110\n      jump\t// in\n    tag_391:\n      pop\n      0x60\n      dup3\n      add\n      mload\n      dup2\n      0x03\n      add\n      swap1\n      dup1\n      mload\n      swap1\n      0x20\n      add\n      swap1\n      tag_392\n      swap3\n      swap2\n      swap1\n      tag_110\n      jump\t// in\n    tag_392:\n      pop\n      0x80\n      dup3\n      add\n      mload\n      dup2\n      0x04\n      add\n      swap1\n      dup1\n      mload\n      swap1\n      0x20\n      add\n      swap1\n      tag_393\n      swap3\n      swap2\n      swap1\n      tag_110\n      jump\t// in\n    tag_393:\n      pop\n      0xa0\n      dup3\n      add\n      mload\n      dup2\n      0x05\n      add\n      swap1\n      dup1\n      mload\n      swap1\n      0x20\n      add\n      swap1\n      tag_394\n      swap3\n      swap2\n      swap1\n      tag_114\n      jump\t// in\n    tag_394:\n      pop\n      0xc0\n      dup3\n      add\n      mload\n      dup2\n      0x06\n      add\n      exp(0x0100, 0x00)\n      dup2\n      sload\n      dup2\n      0xff\n      mul\n      not\n      and\n      swap1\n      dup4\n      iszero\n      iszero\n      mul\n      or\n      swap1\n      sstore\n      pop\n      pop\n      pop\n        /* \"contracts/MarketPlace.sol\":2371:2375  true */\n      0x01\n        /* \"contracts/MarketPlace.sol\":2328:2352  ownedNonSellableProducts */\n      0x03\n        /* \"contracts/MarketPlace.sol\":2328:2364  ownedNonSellableProducts[msg.sender] */\n      0x00\n        /* \"contracts/MarketPlace.sol\":2353:2363  msg.sender */\n      caller\n        /* \"contracts/MarketPlace.sol\":2328:2364  ownedNonSellableProducts[msg.sender] */\n      0xffffffffffffffffffffffffffffffffffffffff\n      and\n      0xffffffffffffffffffffffffffffffffffffffff\n      and\n      dup2\n      mstore\n      0x20\n      add\n      swap1\n      dup2\n      mstore\n      0x20\n      add\n      0x00\n      keccak256\n        /* \"contracts/MarketPlace.sol\":2328:2368  ownedNonSellableProducts[msg.sender][id] */\n      0x00\n        /* \"contracts/MarketPlace.sol\":2365:2367  id */\n      dup5\n        /* \"contracts/MarketPlace.sol\":2328:2368  ownedNonSellableProducts[msg.sender][id] */\n      dup2\n      mstore\n      0x20\n      add\n      swap1\n      dup2\n      mstore\n      0x20\n      add\n      0x00\n      keccak256\n      0x00\n        /* \"contracts/MarketPlace.sol\":2328:2375  ownedNonSellableProducts[msg.sender][id] = true */\n      0x0100\n      exp\n      dup2\n      sload\n      dup2\n      0xff\n      mul\n      not\n      and\n      swap1\n      dup4\n      iszero\n      iszero\n      mul\n      or\n      swap1\n      sstore\n      pop\n        /* \"contracts/MarketPlace.sol\":2150:2383  {\r... */\n      pop\n      pop\n        /* \"contracts/MarketPlace.sol\":2017:2383  function addNonSellableProduct(string memory _name, string memory _description, string memory _link, string[] memory _tags) external {\r... */\n      pop\n      pop\n      pop\n      pop\n      jump\t// out\n        /* \"contracts/MarketPlace.sol\":3146:3350  function listExistingProductForSale(uint256 _productId, uint256 _price) external isProductOwner(_productId, msg.sender) {\r... */\n    tag_93:\n        /* \"contracts/MarketPlace.sol\":3242:3252  _productId */\n      dup2\n        /* \"contracts/MarketPlace.sol\":3254:3264  msg.sender */\n      caller\n        /* \"contracts/MarketPlace.sol\":1102:1108  _owner */\n      dup1\n        /* \"contracts/MarketPlace.sol\":1072:1108  products[_productId].owner == _owner */\n      0xffffffffffffffffffffffffffffffffffffffff\n      and\n        /* \"contracts/MarketPlace.sol\":1072:1080  products */\n      0x05\n        /* \"contracts/MarketPlace.sol\":1081:1091  _productId */\n      dup4\n        /* \"contracts/MarketPlace.sol\":1072:1092  products[_productId] */\n      dup2\n      sload\n      dup2\n      lt\n      tag_396\n      jumpi\n      tag_397\n      tag_122\n      jump\t// in\n    tag_397:\n    tag_396:\n      swap1\n      0x00\n      mstore\n      keccak256(0x00, 0x20)\n      swap1\n      0x07\n      mul\n      add\n        /* \"contracts/MarketPlace.sol\":1072:1098  products[_productId].owner */\n      0x01\n      add\n      0x00\n      swap1\n      sload\n      swap1\n      0x0100\n      exp\n      swap1\n      div\n      0xffffffffffffffffffffffffffffffffffffffff\n      and\n        /* \"contracts/MarketPlace.sol\":1072:1108  products[_productId].owner == _owner */\n      0xffffffffffffffffffffffffffffffffffffffff\n      and\n      eq\n        /* \"contracts/MarketPlace.sol\":1064:1166  require(products[_productId].owner == _owner, \"The supplied address is not the owner of the product!\") */\n      tag_399\n      jumpi\n      mload(0x40)\n      0x08c379a000000000000000000000000000000000000000000000000000000000\n      dup2\n      mstore\n      0x04\n      add\n      tag_400\n      swap1\n      tag_326\n      jump\t// in\n    tag_400:\n      mload(0x40)\n      dup1\n      swap2\n      sub\n      swap1\n      revert\n    tag_399:\n        /* \"contracts/MarketPlace.sol\":3277:3342  transferFromNonSellableToSellable(msg.sender, _productId, _price) */\n      tag_402\n        /* \"contracts/MarketPlace.sol\":3311:3321  msg.sender */\n      caller\n        /* \"contracts/MarketPlace.sol\":3323:3333  _productId */\n      dup6\n        /* \"contracts/MarketPlace.sol\":3335:3341  _price */\n      dup6\n        /* \"contracts/MarketPlace.sol\":3277:3310  transferFromNonSellableToSellable */\n      tag_403\n        /* \"contracts/MarketPlace.sol\":3277:3342  transferFromNonSellableToSellable(msg.sender, _productId, _price) */\n      jump\t// in\n    tag_402:\n        /* \"contracts/MarketPlace.sol\":3146:3350  function listExistingProductForSale(uint256 _productId, uint256 _price) external isProductOwner(_productId, msg.sender) {\r... */\n      pop\n      pop\n      pop\n      pop\n      jump\t// out\n        /* \"contracts/Ownable.sol\":1980:2181  function transferOwnership(address newOwner) public virtual onlyOwner {\r... */\n    tag_98:\n        /* \"contracts/Ownable.sol\":1302:1314  _msgSender() */\n      tag_405\n        /* \"contracts/Ownable.sol\":1302:1312  _msgSender */\n      tag_219\n        /* \"contracts/Ownable.sol\":1302:1314  _msgSender() */\n      jump\t// in\n    tag_405:\n        /* \"contracts/Ownable.sol\":1291:1314  owner() == _msgSender() */\n      0xffffffffffffffffffffffffffffffffffffffff\n      and\n        /* \"contracts/Ownable.sol\":1291:1298  owner() */\n      tag_406\n        /* \"contracts/Ownable.sol\":1291:1296  owner */\n      tag_63\n        /* \"contracts/Ownable.sol\":1291:1298  owner() */\n      jump\t// in\n    tag_406:\n        /* \"contracts/Ownable.sol\":1291:1314  owner() == _msgSender() */\n      0xffffffffffffffffffffffffffffffffffffffff\n      and\n      eq\n        /* \"contracts/Ownable.sol\":1283:1351  require(owner() == _msgSender(), \"Ownable: caller is not the owner\") */\n      tag_407\n      jumpi\n      mload(0x40)\n      0x08c379a000000000000000000000000000000000000000000000000000000000\n      dup2\n      mstore\n      0x04\n      add\n      tag_408\n      swap1\n      tag_223\n      jump\t// in\n    tag_408:\n      mload(0x40)\n      dup1\n      swap2\n      sub\n      swap1\n      revert\n    tag_407:\n        /* \"contracts/Ownable.sol\":2089:2090  0 */\n      0x00\n        /* \"contracts/Ownable.sol\":2069:2091  newOwner != address(0) */\n      0xffffffffffffffffffffffffffffffffffffffff\n      and\n        /* \"contracts/Ownable.sol\":2069:2077  newOwner */\n      dup2\n        /* \"contracts/Ownable.sol\":2069:2091  newOwner != address(0) */\n      0xffffffffffffffffffffffffffffffffffffffff\n      and\n      eq\n      iszero\n        /* \"contracts/Ownable.sol\":2061:2134  require(newOwner != address(0), \"Ownable: new owner is the zero address\") */\n      tag_410\n      jumpi\n      mload(0x40)\n      0x08c379a000000000000000000000000000000000000000000000000000000000\n      dup2\n      mstore\n      0x04\n      add\n      tag_411\n      swap1\n      tag_412\n      jump\t// in\n    tag_411:\n      mload(0x40)\n      dup1\n      swap2\n      sub\n      swap1\n      revert\n    tag_410:\n        /* \"contracts/Ownable.sol\":2145:2173  _transferOwnership(newOwner) */\n      tag_413\n        /* \"contracts/Ownable.sol\":2164:2172  newOwner */\n      dup2\n        /* \"contracts/Ownable.sol\":2145:2163  _transferOwnership */\n      tag_226\n        /* \"contracts/Ownable.sol\":2145:2173  _transferOwnership(newOwner) */\n      jump\t// in\n    tag_413:\n        /* \"contracts/Ownable.sol\":1980:2181  function transferOwnership(address newOwner) public virtual onlyOwner {\r... */\n      pop\n      jump\t// out\n        /* \"contracts/MarketPlace.sol\":6525:6679  function getHistoryForProduct(uint256 _productId) external view returns (TransactionDetails[] memory) {\r... */\n    tag_102:\n        /* \"contracts/MarketPlace.sol\":6598:6625  TransactionDetails[] memory */\n      0x60\n        /* \"contracts/MarketPlace.sol\":6645:6659  productHistory */\n      0x04\n        /* \"contracts/MarketPlace.sol\":6645:6671  productHistory[_productId] */\n      0x00\n        /* \"contracts/MarketPlace.sol\":6660:6670  _productId */\n      dup4\n        /* \"contracts/MarketPlace.sol\":6645:6671  productHistory[_productId] */\n      dup2\n      mstore\n      0x20\n      add\n      swap1\n      dup2\n      mstore\n      0x20\n      add\n      0x00\n      keccak256\n        /* \"contracts/MarketPlace.sol\":6638:6671  return productHistory[_productId] */\n      dup1\n      sload\n      dup1\n      0x20\n      mul\n      0x20\n      add\n      mload(0x40)\n      swap1\n      dup2\n      add\n      0x40\n      mstore\n      dup1\n      swap3\n      swap2\n      swap1\n      dup2\n      dup2\n      mstore\n      0x20\n      add\n      0x00\n      swap1\n    tag_415:\n      dup3\n      dup3\n      lt\n      iszero\n      tag_416\n      jumpi\n      dup4\n      dup3\n      swap1\n      0x00\n      mstore\n      keccak256(0x00, 0x20)\n      swap1\n      0x05\n      mul\n      add\n      mload(0x40)\n      dup1\n      0xa0\n      add\n      0x40\n      mstore\n      swap1\n      dup2\n      0x00\n      dup3\n      add\n      sload\n      dup2\n      mstore\n      0x20\n      add\n      0x01\n      dup3\n      add\n      sload\n      dup2\n      mstore\n      0x20\n      add\n      0x02\n      dup3\n      add\n      sload\n      dup2\n      mstore\n      0x20\n      add\n      0x03\n      dup3\n      add\n      0x00\n      swap1\n      sload\n      swap1\n      0x0100\n      exp\n      swap1\n      div\n      0xffffffffffffffffffffffffffffffffffffffff\n      and\n      0xffffffffffffffffffffffffffffffffffffffff\n      and\n      0xffffffffffffffffffffffffffffffffffffffff\n      and\n      dup2\n      mstore\n      0x20\n      add\n      0x04\n      dup3\n      add\n      0x00\n      swap1\n      sload\n      swap1\n      0x0100\n      exp\n      swap1\n      div\n      0xffffffffffffffffffffffffffffffffffffffff\n      and\n      0xffffffffffffffffffffffffffffffffffffffff\n      and\n      0xffffffffffffffffffffffffffffffffffffffff\n      and\n      dup2\n      mstore\n      pop\n      pop\n      dup2\n      mstore\n      0x20\n      add\n      swap1\n      0x01\n      add\n      swap1\n      jump(tag_415)\n    tag_416:\n      pop\n      pop\n      pop\n      pop\n      swap1\n      pop\n        /* \"contracts/MarketPlace.sol\":6525:6679  function getHistoryForProduct(uint256 _productId) external view returns (TransactionDetails[] memory) {\r... */\n      swap2\n      swap1\n      pop\n      jump\t// out\n        /* \"contracts/Context.sol\":656:754  function _msgSender() internal view virtual returns (address) {\r... */\n    tag_219:\n        /* \"contracts/Context.sol\":709:716  address */\n      0x00\n        /* \"contracts/Context.sol\":736:746  msg.sender */\n      caller\n        /* \"contracts/Context.sol\":729:746  return msg.sender */\n      swap1\n      pop\n        /* \"contracts/Context.sol\":656:754  function _msgSender() internal view virtual returns (address) {\r... */\n      swap1\n      jump\t// out\n        /* \"contracts/Ownable.sol\":2341:2532  function _transferOwnership(address newOwner) internal virtual {\r... */\n    tag_226:\n        /* \"contracts/Ownable.sol\":2415:2431  address oldOwner */\n      0x00\n        /* \"contracts/Ownable.sol\":2434:2440  _owner */\n      dup1\n      0x00\n      swap1\n      sload\n      swap1\n      0x0100\n      exp\n      swap1\n      div\n      0xffffffffffffffffffffffffffffffffffffffff\n      and\n        /* \"contracts/Ownable.sol\":2415:2440  address oldOwner = _owner */\n      swap1\n      pop\n        /* \"contracts/Ownable.sol\":2460:2468  newOwner */\n      dup2\n        /* \"contracts/Ownable.sol\":2451:2457  _owner */\n      0x00\n      dup1\n        /* \"contracts/Ownable.sol\":2451:2468  _owner = newOwner */\n      0x0100\n      exp\n      dup2\n      sload\n      dup2\n      0xffffffffffffffffffffffffffffffffffffffff\n      mul\n      not\n      and\n      swap1\n      dup4\n      0xffffffffffffffffffffffffffffffffffffffff\n      and\n      mul\n      or\n      swap1\n      sstore\n      pop\n        /* \"contracts/Ownable.sol\":2515:2523  newOwner */\n      dup2\n        /* \"contracts/Ownable.sol\":2484:2524  OwnershipTransferred(oldOwner, newOwner) */\n      0xffffffffffffffffffffffffffffffffffffffff\n      and\n        /* \"contracts/Ownable.sol\":2505:2513  oldOwner */\n      dup2\n        /* \"contracts/Ownable.sol\":2484:2524  OwnershipTransferred(oldOwner, newOwner) */\n      0xffffffffffffffffffffffffffffffffffffffff\n      and\n      0x8be0079c531659141344cd1fd0a4f28419497f9722a3daafe3b4186f6b6457e0\n      mload(0x40)\n      mload(0x40)\n      dup1\n      swap2\n      sub\n      swap1\n      log3\n        /* \"contracts/Ownable.sol\":2404:2532  {\r... */\n      pop\n        /* \"contracts/Ownable.sol\":2341:2532  function _transferOwnership(address newOwner) internal virtual {\r... */\n      pop\n      jump\t// out\n        /* \"contracts/MarketPlace.sol\":6970:7745  function containsWord(string memory _what, string memory _where) internal pure returns (bool found) {\r... */\n    tag_287:\n        /* \"contracts/MarketPlace.sol\":7058:7068  bool found */\n      0x00\n        /* \"contracts/MarketPlace.sol\":7081:7103  bytes memory whatBytes */\n      dup1\n        /* \"contracts/MarketPlace.sol\":7112:7117  _what */\n      dup4\n        /* \"contracts/MarketPlace.sol\":7081:7118  bytes memory whatBytes = bytes(_what) */\n      swap1\n      pop\n        /* \"contracts/MarketPlace.sol\":7129:7152  bytes memory whereBytes */\n      0x00\n        /* \"contracts/MarketPlace.sol\":7161:7167  _where */\n      dup4\n        /* \"contracts/MarketPlace.sol\":7129:7168  bytes memory whereBytes = bytes(_where) */\n      swap1\n      pop\n        /* \"contracts/MarketPlace.sol\":7203:7212  whatBytes */\n      dup2\n        /* \"contracts/MarketPlace.sol\":7203:7219  whatBytes.length */\n      mload\n        /* \"contracts/MarketPlace.sol\":7183:7193  whereBytes */\n      dup2\n        /* \"contracts/MarketPlace.sol\":7183:7200  whereBytes.length */\n      mload\n        /* \"contracts/MarketPlace.sol\":7183:7219  whereBytes.length < whatBytes.length */\n      lt\n        /* \"contracts/MarketPlace.sol\":7179:7262  if (whereBytes.length < whatBytes.length) { \r... */\n      iszero\n      tag_421\n      jumpi\n        /* \"contracts/MarketPlace.sol\":7244:7249  false */\n      0x00\n        /* \"contracts/MarketPlace.sol\":7237:7249  return false */\n      swap3\n      pop\n      pop\n      pop\n      jump(tag_420)\n        /* \"contracts/MarketPlace.sol\":7179:7262  if (whereBytes.length < whatBytes.length) { \r... */\n    tag_421:\n        /* \"contracts/MarketPlace.sol\":7280:7285  false */\n      0x00\n        /* \"contracts/MarketPlace.sol\":7272:7285  found = false */\n      swap3\n      pop\n        /* \"contracts/MarketPlace.sol\":7301:7307  uint i */\n      0x00\n        /* \"contracts/MarketPlace.sol\":7296:7715  for (uint i = 0; i <= whereBytes.length - whatBytes.length; i++) {\r... */\n    tag_422:\n        /* \"contracts/MarketPlace.sol\":7338:7347  whatBytes */\n      dup3\n        /* \"contracts/MarketPlace.sol\":7338:7354  whatBytes.length */\n      mload\n        /* \"contracts/MarketPlace.sol\":7318:7328  whereBytes */\n      dup3\n        /* \"contracts/MarketPlace.sol\":7318:7335  whereBytes.length */\n      mload\n        /* \"contracts/MarketPlace.sol\":7318:7354  whereBytes.length - whatBytes.length */\n      tag_425\n      swap2\n      swap1\n      tag_426\n      jump\t// in\n    tag_425:\n        /* \"contracts/MarketPlace.sol\":7313:7314  i */\n      dup2\n        /* \"contracts/MarketPlace.sol\":7313:7354  i <= whereBytes.length - whatBytes.length */\n      gt\n        /* \"contracts/MarketPlace.sol\":7296:7715  for (uint i = 0; i <= whereBytes.length - whatBytes.length; i++) {\r... */\n      tag_423\n      jumpi\n        /* \"contracts/MarketPlace.sol\":7376:7385  bool flag */\n      0x00\n        /* \"contracts/MarketPlace.sol\":7388:7392  true */\n      0x01\n        /* \"contracts/MarketPlace.sol\":7376:7392  bool flag = true */\n      swap1\n      pop\n        /* \"contracts/MarketPlace.sol\":7412:7418  uint j */\n      0x00\n        /* \"contracts/MarketPlace.sol\":7407:7609  for (uint j = 0; j < whatBytes.length; j++) {\r... */\n    tag_427:\n        /* \"contracts/MarketPlace.sol\":7428:7437  whatBytes */\n      dup5\n        /* \"contracts/MarketPlace.sol\":7428:7444  whatBytes.length */\n      mload\n        /* \"contracts/MarketPlace.sol\":7424:7425  j */\n      dup2\n        /* \"contracts/MarketPlace.sol\":7424:7444  j < whatBytes.length */\n      lt\n        /* \"contracts/MarketPlace.sol\":7407:7609  for (uint j = 0; j < whatBytes.length; j++) {\r... */\n      iszero\n      tag_428\n      jumpi\n        /* \"contracts/MarketPlace.sol\":7496:7505  whatBytes */\n      dup5\n        /* \"contracts/MarketPlace.sol\":7507:7508  j */\n      dup2\n        /* \"contracts/MarketPlace.sol\":7496:7509  whatBytes [j] */\n      dup2\n      mload\n      dup2\n      lt\n      tag_430\n      jumpi\n      tag_431\n      tag_122\n      jump\t// in\n    tag_431:\n    tag_430:\n      0x20\n      add\n      add\n      mload\n      0xf8\n      shr\n      0xf8\n      shl\n        /* \"contracts/MarketPlace.sol\":7474:7509  whereBytes [i + j] != whatBytes [j] */\n      not(0xffffffffffffffffffffffffffffffffffffffffffffffffffffffffffffff)\n      and\n        /* \"contracts/MarketPlace.sol\":7474:7484  whereBytes */\n      dup5\n        /* \"contracts/MarketPlace.sol\":7490:7491  j */\n      dup3\n        /* \"contracts/MarketPlace.sol\":7486:7487  i */\n      dup6\n        /* \"contracts/MarketPlace.sol\":7486:7491  i + j */\n      tag_432\n      swap2\n      swap1\n      tag_329\n      jump\t// in\n    tag_432:\n        /* \"contracts/MarketPlace.sol\":7474:7492  whereBytes [i + j] */\n      dup2\n      mload\n      dup2\n      lt\n      tag_433\n      jumpi\n      tag_434\n      tag_122\n      jump\t// in\n    tag_434:\n    tag_433:\n      0x20\n      add\n      add\n      mload\n      0xf8\n      shr\n      0xf8\n      shl\n        /* \"contracts/MarketPlace.sol\":7474:7509  whereBytes [i + j] != whatBytes [j] */\n      not(0xffffffffffffffffffffffffffffffffffffffffffffffffffffffffffffff)\n      and\n      eq\n        /* \"contracts/MarketPlace.sol\":7470:7594  if (whereBytes [i + j] != whatBytes [j]) {\r... */\n      tag_435\n      jumpi\n        /* \"contracts/MarketPlace.sol\":7541:7546  false */\n      0x00\n        /* \"contracts/MarketPlace.sol\":7534:7546  flag = false */\n      swap2\n      pop\n        /* \"contracts/MarketPlace.sol\":7569:7574  break */\n      jump(tag_428)\n        /* \"contracts/MarketPlace.sol\":7470:7594  if (whereBytes [i + j] != whatBytes [j]) {\r... */\n    tag_435:\n        /* \"contracts/MarketPlace.sol\":7446:7449  j++ */\n      dup1\n      dup1\n      tag_436\n      swap1\n      tag_107\n      jump\t// in\n    tag_436:\n      swap2\n      pop\n      pop\n        /* \"contracts/MarketPlace.sol\":7407:7609  for (uint j = 0; j < whatBytes.length; j++) {\r... */\n      jump(tag_427)\n    tag_428:\n      pop\n        /* \"contracts/MarketPlace.sol\":7627:7631  flag */\n      dup1\n        /* \"contracts/MarketPlace.sol\":7623:7704  if (flag) {\r... */\n      iszero\n      tag_437\n      jumpi\n        /* \"contracts/MarketPlace.sol\":7660:7664  true */\n      0x01\n        /* \"contracts/MarketPlace.sol\":7652:7664  found = true */\n      swap5\n      pop\n        /* \"contracts/MarketPlace.sol\":7683:7688  break */\n      pop\n      jump(tag_423)\n        /* \"contracts/MarketPlace.sol\":7623:7704  if (flag) {\r... */\n    tag_437:\n        /* \"contracts/MarketPlace.sol\":7361:7715  {\r... */\n      pop\n        /* \"contracts/MarketPlace.sol\":7356:7359  i++ */\n      dup1\n      dup1\n      tag_438\n      swap1\n      tag_107\n      jump\t// in\n    tag_438:\n      swap2\n      pop\n      pop\n        /* \"contracts/MarketPlace.sol\":7296:7715  for (uint i = 0; i <= whereBytes.length - whatBytes.length; i++) {\r... */\n      jump(tag_422)\n    tag_423:\n      pop\n        /* \"contracts/MarketPlace.sol\":7725:7737  return found */\n      pop\n      pop\n        /* \"contracts/MarketPlace.sol\":6970:7745  function containsWord(string memory _what, string memory _where) internal pure returns (bool found) {\r... */\n    tag_420:\n      swap3\n      swap2\n      pop\n      pop\n      jump\t// out\n        /* \"contracts/MarketPlace.sol\":2391:2767  function transferFromSellableToNonSellable(address _ownerSellable, address _ownerNonSellable, uint256 _productId) internal {\r... */\n    tag_343:\n        /* \"contracts/MarketPlace.sol\":2583:2587  true */\n      0x01\n        /* \"contracts/MarketPlace.sol\":2525:2549  ownedNonSellableProducts */\n      0x03\n        /* \"contracts/MarketPlace.sol\":2525:2568  ownedNonSellableProducts[_ownerNonSellable] */\n      0x00\n        /* \"contracts/MarketPlace.sol\":2550:2567  _ownerNonSellable */\n      dup5\n        /* \"contracts/MarketPlace.sol\":2525:2568  ownedNonSellableProducts[_ownerNonSellable] */\n      0xffffffffffffffffffffffffffffffffffffffff\n      and\n      0xffffffffffffffffffffffffffffffffffffffff\n      and\n      dup2\n      mstore\n      0x20\n      add\n      swap1\n      dup2\n      mstore\n      0x20\n      add\n      0x00\n      keccak256\n        /* \"contracts/MarketPlace.sol\":2525:2580  ownedNonSellableProducts[_ownerNonSellable][_productId] */\n      0x00\n        /* \"contracts/MarketPlace.sol\":2569:2579  _productId */\n      dup4\n        /* \"contracts/MarketPlace.sol\":2525:2580  ownedNonSellableProducts[_ownerNonSellable][_productId] */\n      dup2\n      mstore\n      0x20\n      add\n      swap1\n      dup2\n      mstore\n      0x20\n      add\n      0x00\n      keccak256\n      0x00\n        /* \"contracts/MarketPlace.sol\":2525:2587  ownedNonSellableProducts[_ownerNonSellable][_productId] = true */\n      0x0100\n      exp\n      dup2\n      sload\n      dup2\n      0xff\n      mul\n      not\n      and\n      swap1\n      dup4\n      iszero\n      iszero\n      mul\n      or\n      swap1\n      sstore\n      pop\n        /* \"contracts/MarketPlace.sol\":2627:2644  _ownerNonSellable */\n      dup2\n        /* \"contracts/MarketPlace.sol\":2598:2606  products */\n      0x05\n        /* \"contracts/MarketPlace.sol\":2607:2617  _productId */\n      dup3\n        /* \"contracts/MarketPlace.sol\":2598:2618  products[_productId] */\n      dup2\n      sload\n      dup2\n      lt\n      tag_440\n      jumpi\n      tag_441\n      tag_122\n      jump\t// in\n    tag_441:\n    tag_440:\n      swap1\n      0x00\n      mstore\n      keccak256(0x00, 0x20)\n      swap1\n      0x07\n      mul\n      add\n        /* \"contracts/MarketPlace.sol\":2598:2624  products[_productId].owner */\n      0x01\n      add\n      0x00\n        /* \"contracts/MarketPlace.sol\":2598:2644  products[_productId].owner = _ownerNonSellable */\n      0x0100\n      exp\n      dup2\n      sload\n      dup2\n      0xffffffffffffffffffffffffffffffffffffffff\n      mul\n      not\n      and\n      swap1\n      dup4\n      0xffffffffffffffffffffffffffffffffffffffff\n      and\n      mul\n      or\n      swap1\n      sstore\n      pop\n        /* \"contracts/MarketPlace.sol\":2686:2691  false */\n      0x00\n        /* \"contracts/MarketPlace.sol\":2655:2663  products */\n      0x05\n        /* \"contracts/MarketPlace.sol\":2664:2674  _productId */\n      dup3\n        /* \"contracts/MarketPlace.sol\":2655:2675  products[_productId] */\n      dup2\n      sload\n      dup2\n      lt\n      tag_443\n      jumpi\n      tag_444\n      tag_122\n      jump\t// in\n    tag_444:\n    tag_443:\n      swap1\n      0x00\n      mstore\n      keccak256(0x00, 0x20)\n      swap1\n      0x07\n      mul\n      add\n        /* \"contracts/MarketPlace.sol\":2655:2683  products[_productId].forSale */\n      0x06\n      add\n      0x00\n        /* \"contracts/MarketPlace.sol\":2655:2691  products[_productId].forSale = false */\n      0x0100\n      exp\n      dup2\n      sload\n      dup2\n      0xff\n      mul\n      not\n      and\n      swap1\n      dup4\n      iszero\n      iszero\n      mul\n      or\n      swap1\n      sstore\n      pop\n        /* \"contracts/MarketPlace.sol\":2709:2730  ownedSellableProducts */\n      0x02\n        /* \"contracts/MarketPlace.sol\":2709:2746  ownedSellableProducts[_ownerSellable] */\n      0x00\n        /* \"contracts/MarketPlace.sol\":2731:2745  _ownerSellable */\n      dup5\n        /* \"contracts/MarketPlace.sol\":2709:2746  ownedSellableProducts[_ownerSellable] */\n      0xffffffffffffffffffffffffffffffffffffffff\n      and\n      0xffffffffffffffffffffffffffffffffffffffff\n      and\n      dup2\n      mstore\n      0x20\n      add\n      swap1\n      dup2\n      mstore\n      0x20\n      add\n      0x00\n      keccak256\n        /* \"contracts/MarketPlace.sol\":2709:2758  ownedSellableProducts[_ownerSellable][_productId] */\n      0x00\n        /* \"contracts/MarketPlace.sol\":2747:2757  _productId */\n      dup3\n        /* \"contracts/MarketPlace.sol\":2709:2758  ownedSellableProducts[_ownerSellable][_productId] */\n      dup2\n      mstore\n      0x20\n      add\n      swap1\n      dup2\n      mstore\n      0x20\n      add\n      0x00\n      keccak256\n      0x00\n        /* \"contracts/MarketPlace.sol\":2702:2759  delete(ownedSellableProducts[_ownerSellable][_productId]) */\n      dup1\n      dup3\n      add\n      0x00\n      swap1\n      sstore\n      0x01\n      dup3\n      add\n      0x00\n      swap1\n      sstore\n      0x02\n      dup3\n      add\n      0x00\n      swap1\n      sstore\n      0x03\n      dup3\n      add\n      0x00\n      swap1\n      sstore\n      pop\n      pop\n        /* \"contracts/MarketPlace.sol\":2391:2767  function transferFromSellableToNonSellable(address _ownerSellable, address _ownerNonSellable, uint256 _productId) internal {\r... */\n      pop\n      pop\n      pop\n      jump\t// out\n        /* \"contracts/MarketPlace.sol\":2775:3138  function transferFromNonSellableToSellable(address _owner, uint256 _productId, uint256 _price) internal {\r... */\n    tag_403:\n        /* \"contracts/MarketPlace.sol\":2934:3021  SellableProduct(_price, _price * feePricePercentage / 100, block.timestamp, _productId) */\n      mload(0x40)\n      dup1\n      0x80\n      add\n      0x40\n      mstore\n      dup1\n        /* \"contracts/MarketPlace.sol\":2950:2956  _price */\n      dup3\n        /* \"contracts/MarketPlace.sol\":2934:3021  SellableProduct(_price, _price * feePricePercentage / 100, block.timestamp, _productId) */\n      dup2\n      mstore\n      0x20\n      add\n        /* \"contracts/MarketPlace.sol\":2988:2991  100 */\n      0x64\n        /* \"contracts/MarketPlace.sol\":2967:2985  feePricePercentage */\n      sload(0x06)\n        /* \"contracts/MarketPlace.sol\":2958:2964  _price */\n      dup5\n        /* \"contracts/MarketPlace.sol\":2958:2985  _price * feePricePercentage */\n      tag_447\n      swap2\n      swap1\n      tag_116\n      jump\t// in\n    tag_447:\n        /* \"contracts/MarketPlace.sol\":2958:2991  _price * feePricePercentage / 100 */\n      tag_448\n      swap2\n      swap1\n      tag_118\n      jump\t// in\n    tag_448:\n        /* \"contracts/MarketPlace.sol\":2934:3021  SellableProduct(_price, _price * feePricePercentage / 100, block.timestamp, _productId) */\n      dup2\n      mstore\n      0x20\n      add\n        /* \"contracts/MarketPlace.sol\":2993:3008  block.timestamp */\n      timestamp\n        /* \"contracts/MarketPlace.sol\":2934:3021  SellableProduct(_price, _price * feePricePercentage / 100, block.timestamp, _productId) */\n      dup2\n      mstore\n      0x20\n      add\n        /* \"contracts/MarketPlace.sol\":3010:3020  _productId */\n      dup4\n        /* \"contracts/MarketPlace.sol\":2934:3021  SellableProduct(_price, _price * feePricePercentage / 100, block.timestamp, _productId) */\n      dup2\n      mstore\n      pop\n        /* \"contracts/MarketPlace.sol\":2890:2911  ownedSellableProducts */\n      0x02\n        /* \"contracts/MarketPlace.sol\":2890:2919  ownedSellableProducts[_owner] */\n      0x00\n        /* \"contracts/MarketPlace.sol\":2912:2918  _owner */\n      dup6\n        /* \"contracts/MarketPlace.sol\":2890:2919  ownedSellableProducts[_owner] */\n      0xffffffffffffffffffffffffffffffffffffffff\n      and\n      0xffffffffffffffffffffffffffffffffffffffff\n      and\n      dup2\n      mstore\n      0x20\n      add\n      swap1\n      dup2\n      mstore\n      0x20\n      add\n      0x00\n      keccak256\n        /* \"contracts/MarketPlace.sol\":2890:2931  ownedSellableProducts[_owner][_productId] */\n      0x00\n        /* \"contracts/MarketPlace.sol\":2920:2930  _productId */\n      dup5\n        /* \"contracts/MarketPlace.sol\":2890:2931  ownedSellableProducts[_owner][_productId] */\n      dup2\n      mstore\n      0x20\n      add\n      swap1\n      dup2\n      mstore\n      0x20\n      add\n      0x00\n      keccak256\n        /* \"contracts/MarketPlace.sol\":2890:3021  ownedSellableProducts[_owner][_productId] = SellableProduct(_price, _price * feePricePercentage / 100, block.timestamp, _productId) */\n      0x00\n      dup3\n      add\n      mload\n      dup2\n      0x00\n      add\n      sstore\n      0x20\n      dup3\n      add\n      mload\n      dup2\n      0x01\n      add\n      sstore\n      0x40\n      dup3\n      add\n      mload\n      dup2\n      0x02\n      add\n      sstore\n      0x60\n      dup3\n      add\n      mload\n      dup2\n      0x03\n      add\n      sstore\n      swap1\n      pop\n      pop\n        /* \"contracts/MarketPlace.sol\":3063:3067  true */\n      0x01\n        /* \"contracts/MarketPlace.sol\":3032:3040  products */\n      0x05\n        /* \"contracts/MarketPlace.sol\":3041:3051  _productId */\n      dup4\n        /* \"contracts/MarketPlace.sol\":3032:3052  products[_productId] */\n      dup2\n      sload\n      dup2\n      lt\n      tag_449\n      jumpi\n      tag_450\n      tag_122\n      jump\t// in\n    tag_450:\n    tag_449:\n      swap1\n      0x00\n      mstore\n      keccak256(0x00, 0x20)\n      swap1\n      0x07\n      mul\n      add\n        /* \"contracts/MarketPlace.sol\":3032:3060  products[_productId].forSale */\n      0x06\n      add\n      0x00\n        /* \"contracts/MarketPlace.sol\":3032:3067  products[_productId].forSale = true */\n      0x0100\n      exp\n      dup2\n      sload\n      dup2\n      0xff\n      mul\n      not\n      and\n      swap1\n      dup4\n      iszero\n      iszero\n      mul\n      or\n      swap1\n      sstore\n      pop\n        /* \"contracts/MarketPlace.sol\":3085:3109  ownedNonSellableProducts */\n      0x03\n        /* \"contracts/MarketPlace.sol\":3085:3117  ownedNonSellableProducts[_owner] */\n      0x00\n        /* \"contracts/MarketPlace.sol\":3110:3116  _owner */\n      dup5\n        /* \"contracts/MarketPlace.sol\":3085:3117  ownedNonSellableProducts[_owner] */\n      0xffffffffffffffffffffffffffffffffffffffff\n      and\n      0xffffffffffffffffffffffffffffffffffffffff\n      and\n      dup2\n      mstore\n      0x20\n      add\n      swap1\n      dup2\n      mstore\n      0x20\n      add\n      0x00\n      keccak256\n        /* \"contracts/MarketPlace.sol\":3085:3129  ownedNonSellableProducts[_owner][_productId] */\n      0x00\n        /* \"contracts/MarketPlace.sol\":3118:3128  _productId */\n      dup4\n        /* \"contracts/MarketPlace.sol\":3085:3129  ownedNonSellableProducts[_owner][_productId] */\n      dup2\n      mstore\n      0x20\n      add\n      swap1\n      dup2\n      mstore\n      0x20\n      add\n      0x00\n      keccak256\n      0x00\n        /* \"contracts/MarketPlace.sol\":3078:3130  delete(ownedNonSellableProducts[_owner][_productId]) */\n      0x0100\n      exp\n      dup2\n      sload\n      swap1\n      0xff\n      mul\n      not\n      and\n      swap1\n      sstore\n        /* \"contracts/MarketPlace.sol\":2775:3138  function transferFromNonSellableToSellable(address _owner, uint256 _productId, uint256 _price) internal {\r... */\n      pop\n      pop\n      pop\n      jump\t// out\n    tag_110:\n      dup3\n      dup1\n      sload\n      tag_452\n      swap1\n      tag_146\n      jump\t// in\n    tag_452:\n      swap1\n      0x00\n      mstore\n      keccak256(0x00, 0x20)\n      swap1\n      0x1f\n      add\n      0x20\n      swap1\n      div\n      dup2\n      add\n      swap3\n      dup3\n      tag_454\n      jumpi\n      0x00\n      dup6\n      sstore\n      jump(tag_453)\n    tag_454:\n      dup3\n      0x1f\n      lt\n      tag_455\n      jumpi\n      dup1\n      mload\n      not(0xff)\n      and\n      dup4\n      dup1\n      add\n      or\n      dup6\n      sstore\n      jump(tag_453)\n    tag_455:\n      dup3\n      dup1\n      add\n      0x01\n      add\n      dup6\n      sstore\n      dup3\n      iszero\n      tag_453\n      jumpi\n      swap2\n      dup3\n      add\n    tag_456:\n      dup3\n      dup2\n      gt\n      iszero\n      tag_457\n      jumpi\n      dup3\n      mload\n      dup3\n      sstore\n      swap2\n      0x20\n      add\n      swap2\n      swap1\n      0x01\n      add\n      swap1\n      jump(tag_456)\n    tag_457:\n    tag_453:\n      pop\n      swap1\n      pop\n      tag_458\n      swap2\n      swap1\n      tag_459\n      jump\t// in\n    tag_458:\n      pop\n      swap1\n      jump\t// out\n    tag_114:\n      dup3\n      dup1\n      sload\n      dup3\n      dup3\n      sstore\n      swap1\n      0x00\n      mstore\n      keccak256(0x00, 0x20)\n      swap1\n      dup2\n      add\n      swap3\n      dup3\n      iszero\n      tag_460\n      jumpi\n      swap2\n      0x20\n      mul\n      dup3\n      add\n    tag_461:\n      dup3\n      dup2\n      gt\n      iszero\n      tag_462\n      jumpi\n      dup3\n      mload\n      dup3\n      swap1\n      dup1\n      mload\n      swap1\n      0x20\n      add\n      swap1\n      tag_463\n      swap3\n      swap2\n      swap1\n      tag_110\n      jump\t// in\n    tag_463:\n      pop\n      swap2\n      0x20\n      add\n      swap2\n      swap1\n      0x01\n      add\n      swap1\n      jump(tag_461)\n    tag_462:\n    tag_460:\n      pop\n      swap1\n      pop\n      tag_464\n      swap2\n      swap1\n      tag_465\n      jump\t// in\n    tag_464:\n      pop\n      swap1\n      jump\t// out\n    tag_133:\n      mload(0x40)\n      dup1\n      0xe0\n      add\n      0x40\n      mstore\n      dup1\n      0x00\n      dup2\n      mstore\n      0x20\n      add\n      and(0xffffffffffffffffffffffffffffffffffffffff, 0x00)\n      dup2\n      mstore\n      0x20\n      add\n      0x60\n      dup2\n      mstore\n      0x20\n      add\n      0x60\n      dup2\n      mstore\n      0x20\n      add\n      0x60\n      dup2\n      mstore\n      0x20\n      add\n      0x60\n      dup2\n      mstore\n      0x20\n      add\n      iszero(iszero(0x00))\n      dup2\n      mstore\n      pop\n      swap1\n      jump\t// out\n    tag_359:\n      mload(0x40)\n      dup1\n      0x80\n      add\n      0x40\n      mstore\n      dup1\n      0x00\n      dup2\n      mstore\n      0x20\n      add\n      0x00\n      dup2\n      mstore\n      0x20\n      add\n      0x00\n      dup2\n      mstore\n      0x20\n      add\n      0x00\n      dup2\n      mstore\n      pop\n      swap1\n      jump\t// out\n    tag_459:\n    tag_466:\n      dup1\n      dup3\n      gt\n      iszero\n      tag_467\n      jumpi\n      0x00\n      dup2\n      0x00\n      swap1\n      sstore\n      pop\n      0x01\n      add\n      jump(tag_466)\n    tag_467:\n      pop\n      swap1\n      jump\t// out\n    tag_465:\n    tag_468:\n      dup1\n      dup3\n      gt\n      iszero\n      tag_469\n      jumpi\n      0x00\n      dup2\n      dup2\n      tag_470\n      swap2\n      swap1\n      tag_471\n      jump\t// in\n    tag_470:\n      pop\n      0x01\n      add\n      jump(tag_468)\n    tag_469:\n      pop\n      swap1\n      jump\t// out\n    tag_471:\n      pop\n      dup1\n      sload\n      tag_472\n      swap1\n      tag_146\n      jump\t// in\n    tag_472:\n      0x00\n      dup3\n      sstore\n      dup1\n      0x1f\n      lt\n      tag_474\n      jumpi\n      pop\n      jump(tag_473)\n    tag_474:\n      0x1f\n      add\n      0x20\n      swap1\n      div\n      swap1\n      0x00\n      mstore\n      keccak256(0x00, 0x20)\n      swap1\n      dup2\n      add\n      swap1\n      tag_475\n      swap2\n      swap1\n      tag_459\n      jump\t// in\n    tag_475:\n    tag_473:\n      pop\n      jump\t// out\n        /* \"#utility.yul\":23:980   */\n    tag_477:\n        /* \"#utility.yul\":129:134   */\n      0x00\n        /* \"#utility.yul\":154:245   */\n      tag_479\n        /* \"#utility.yul\":170:244   */\n      tag_480\n        /* \"#utility.yul\":237:243   */\n      dup5\n        /* \"#utility.yul\":170:244   */\n      tag_481\n      jump\t// in\n    tag_480:\n        /* \"#utility.yul\":154:245   */\n      tag_482\n      jump\t// in\n    tag_479:\n        /* \"#utility.yul\":145:245   */\n      swap1\n      pop\n        /* \"#utility.yul\":265:270   */\n      dup1\n        /* \"#utility.yul\":294:300   */\n      dup4\n        /* \"#utility.yul\":287:292   */\n      dup3\n        /* \"#utility.yul\":280:301   */\n      mstore\n        /* \"#utility.yul\":328:332   */\n      0x20\n        /* \"#utility.yul\":321:326   */\n      dup3\n        /* \"#utility.yul\":317:333   */\n      add\n        /* \"#utility.yul\":310:333   */\n      swap1\n      pop\n        /* \"#utility.yul\":354:360   */\n      dup3\n        /* \"#utility.yul\":404:407   */\n      dup6\n        /* \"#utility.yul\":396:400   */\n      0x20\n        /* \"#utility.yul\":388:394   */\n      dup7\n        /* \"#utility.yul\":384:401   */\n      mul\n        /* \"#utility.yul\":379:382   */\n      dup3\n        /* \"#utility.yul\":375:402   */\n      add\n        /* \"#utility.yul\":372:408   */\n      gt\n        /* \"#utility.yul\":369:512   */\n      iszero\n      tag_483\n      jumpi\n        /* \"#utility.yul\":423:502   */\n      tag_484\n      tag_485\n      jump\t// in\n    tag_484:\n        /* \"#utility.yul\":369:512   */\n    tag_483:\n        /* \"#utility.yul\":536:537   */\n      0x00\n        /* \"#utility.yul\":521:974   */\n    tag_486:\n        /* \"#utility.yul\":546:552   */\n      dup6\n        /* \"#utility.yul\":543:544   */\n      dup2\n        /* \"#utility.yul\":540:553   */\n      lt\n        /* \"#utility.yul\":521:974   */\n      iszero\n      tag_488\n      jumpi\n        /* \"#utility.yul\":628:631   */\n      dup2\n        /* \"#utility.yul\":615:632   */\n      calldataload\n        /* \"#utility.yul\":664:682   */\n      0xffffffffffffffff\n        /* \"#utility.yul\":651:662   */\n      dup2\n        /* \"#utility.yul\":648:683   */\n      gt\n        /* \"#utility.yul\":645:767   */\n      iszero\n      tag_489\n      jumpi\n        /* \"#utility.yul\":686:765   */\n      tag_490\n      tag_491\n      jump\t// in\n    tag_490:\n        /* \"#utility.yul\":645:767   */\n    tag_489:\n        /* \"#utility.yul\":810:821   */\n      dup1\n        /* \"#utility.yul\":802:808   */\n      dup7\n        /* \"#utility.yul\":798:822   */\n      add\n        /* \"#utility.yul\":848:895   */\n      tag_492\n        /* \"#utility.yul\":891:894   */\n      dup10\n        /* \"#utility.yul\":879:889   */\n      dup3\n        /* \"#utility.yul\":848:895   */\n      tag_493\n      jump\t// in\n    tag_492:\n        /* \"#utility.yul\":843:846   */\n      dup6\n        /* \"#utility.yul\":836:896   */\n      mstore\n        /* \"#utility.yul\":925:929   */\n      0x20\n        /* \"#utility.yul\":920:923   */\n      dup6\n        /* \"#utility.yul\":916:930   */\n      add\n        /* \"#utility.yul\":909:930   */\n      swap5\n      pop\n        /* \"#utility.yul\":959:963   */\n      0x20\n        /* \"#utility.yul\":954:957   */\n      dup5\n        /* \"#utility.yul\":950:964   */\n      add\n        /* \"#utility.yul\":943:964   */\n      swap4\n      pop\n        /* \"#utility.yul\":581:974   */\n      pop\n      pop\n        /* \"#utility.yul\":568:569   */\n      0x01\n        /* \"#utility.yul\":565:566   */\n      dup2\n        /* \"#utility.yul\":561:570   */\n      add\n        /* \"#utility.yul\":556:570   */\n      swap1\n      pop\n        /* \"#utility.yul\":521:974   */\n      jump(tag_486)\n    tag_488:\n        /* \"#utility.yul\":525:539   */\n      pop\n        /* \"#utility.yul\":135:980   */\n      pop\n      pop\n        /* \"#utility.yul\":23:980   */\n      swap4\n      swap3\n      pop\n      pop\n      pop\n      jump\t// out\n        /* \"#utility.yul\":986:1398   */\n    tag_494:\n        /* \"#utility.yul\":1064:1069   */\n      0x00\n        /* \"#utility.yul\":1089:1155   */\n      tag_496\n        /* \"#utility.yul\":1105:1154   */\n      tag_497\n        /* \"#utility.yul\":1147:1153   */\n      dup5\n        /* \"#utility.yul\":1105:1154   */\n      tag_498\n      jump\t// in\n    tag_497:\n        /* \"#utility.yul\":1089:1155   */\n      tag_482\n      jump\t// in\n    tag_496:\n        /* \"#utility.yul\":1080:1155   */\n      swap1\n      pop\n        /* \"#utility.yul\":1178:1184   */\n      dup3\n        /* \"#utility.yul\":1171:1176   */\n      dup2\n        /* \"#utility.yul\":1164:1185   */\n      mstore\n        /* \"#utility.yul\":1216:1220   */\n      0x20\n        /* \"#utility.yul\":1209:1214   */\n      dup2\n        /* \"#utility.yul\":1205:1221   */\n      add\n        /* \"#utility.yul\":1254:1257   */\n      dup5\n        /* \"#utility.yul\":1245:1251   */\n      dup5\n        /* \"#utility.yul\":1240:1243   */\n      dup5\n        /* \"#utility.yul\":1236:1252   */\n      add\n        /* \"#utility.yul\":1233:1258   */\n      gt\n        /* \"#utility.yul\":1230:1342   */\n      iszero\n      tag_499\n      jumpi\n        /* \"#utility.yul\":1261:1340   */\n      tag_500\n      tag_501\n      jump\t// in\n    tag_500:\n        /* \"#utility.yul\":1230:1342   */\n    tag_499:\n        /* \"#utility.yul\":1351:1392   */\n      tag_502\n        /* \"#utility.yul\":1385:1391   */\n      dup5\n        /* \"#utility.yul\":1380:1383   */\n      dup3\n        /* \"#utility.yul\":1375:1378   */\n      dup6\n        /* \"#utility.yul\":1351:1392   */\n      tag_503\n      jump\t// in\n    tag_502:\n        /* \"#utility.yul\":1070:1398   */\n      pop\n        /* \"#utility.yul\":986:1398   */\n      swap4\n      swap3\n      pop\n      pop\n      pop\n      jump\t// out\n        /* \"#utility.yul\":1404:1543   */\n    tag_504:\n        /* \"#utility.yul\":1450:1455   */\n      0x00\n        /* \"#utility.yul\":1488:1494   */\n      dup2\n        /* \"#utility.yul\":1475:1495   */\n      calldataload\n        /* \"#utility.yul\":1466:1495   */\n      swap1\n      pop\n        /* \"#utility.yul\":1504:1537   */\n      tag_506\n        /* \"#utility.yul\":1531:1536   */\n      dup2\n        /* \"#utility.yul\":1504:1537   */\n      tag_507\n      jump\t// in\n    tag_506:\n        /* \"#utility.yul\":1404:1543   */\n      swap3\n      swap2\n      pop\n      pop\n      jump\t// out\n        /* \"#utility.yul\":1565:1955   */\n    tag_508:\n        /* \"#utility.yul\":1646:1651   */\n      0x00\n        /* \"#utility.yul\":1695:1698   */\n      dup3\n        /* \"#utility.yul\":1688:1692   */\n      0x1f\n        /* \"#utility.yul\":1680:1686   */\n      dup4\n        /* \"#utility.yul\":1676:1693   */\n      add\n        /* \"#utility.yul\":1672:1699   */\n      slt\n        /* \"#utility.yul\":1662:1784   */\n      tag_510\n      jumpi\n        /* \"#utility.yul\":1703:1782   */\n      tag_511\n      tag_491\n      jump\t// in\n    tag_511:\n        /* \"#utility.yul\":1662:1784   */\n    tag_510:\n        /* \"#utility.yul\":1820:1826   */\n      dup2\n        /* \"#utility.yul\":1807:1827   */\n      calldataload\n        /* \"#utility.yul\":1845:1949   */\n      tag_512\n        /* \"#utility.yul\":1945:1948   */\n      dup5\n        /* \"#utility.yul\":1937:1943   */\n      dup3\n        /* \"#utility.yul\":1930:1934   */\n      0x20\n        /* \"#utility.yul\":1922:1928   */\n      dup7\n        /* \"#utility.yul\":1918:1935   */\n      add\n        /* \"#utility.yul\":1845:1949   */\n      tag_477\n      jump\t// in\n    tag_512:\n        /* \"#utility.yul\":1836:1949   */\n      swap2\n      pop\n        /* \"#utility.yul\":1652:1955   */\n      pop\n        /* \"#utility.yul\":1565:1955   */\n      swap3\n      swap2\n      pop\n      pop\n      jump\t// out\n        /* \"#utility.yul\":1975:2315   */\n    tag_493:\n        /* \"#utility.yul\":2031:2036   */\n      0x00\n        /* \"#utility.yul\":2080:2083   */\n      dup3\n        /* \"#utility.yul\":2073:2077   */\n      0x1f\n        /* \"#utility.yul\":2065:2071   */\n      dup4\n        /* \"#utility.yul\":2061:2078   */\n      add\n        /* \"#utility.yul\":2057:2084   */\n      slt\n        /* \"#utility.yul\":2047:2169   */\n      tag_514\n      jumpi\n        /* \"#utility.yul\":2088:2167   */\n      tag_515\n      tag_491\n      jump\t// in\n    tag_515:\n        /* \"#utility.yul\":2047:2169   */\n    tag_514:\n        /* \"#utility.yul\":2205:2211   */\n      dup2\n        /* \"#utility.yul\":2192:2212   */\n      calldataload\n        /* \"#utility.yul\":2230:2309   */\n      tag_516\n        /* \"#utility.yul\":2305:2308   */\n      dup5\n        /* \"#utility.yul\":2297:2303   */\n      dup3\n        /* \"#utility.yul\":2290:2294   */\n      0x20\n        /* \"#utility.yul\":2282:2288   */\n      dup7\n        /* \"#utility.yul\":2278:2295   */\n      add\n        /* \"#utility.yul\":2230:2309   */\n      tag_494\n      jump\t// in\n    tag_516:\n        /* \"#utility.yul\":2221:2309   */\n      swap2\n      pop\n        /* \"#utility.yul\":2037:2315   */\n      pop\n        /* \"#utility.yul\":1975:2315   */\n      swap3\n      swap2\n      pop\n      pop\n      jump\t// out\n        /* \"#utility.yul\":2321:2460   */\n    tag_517:\n        /* \"#utility.yul\":2367:2372   */\n      0x00\n        /* \"#utility.yul\":2405:2411   */\n      dup2\n        /* \"#utility.yul\":2392:2412   */\n      calldataload\n        /* \"#utility.yul\":2383:2412   */\n      swap1\n      pop\n        /* \"#utility.yul\":2421:2454   */\n      tag_519\n        /* \"#utility.yul\":2448:2453   */\n      dup2\n        /* \"#utility.yul\":2421:2454   */\n      tag_520\n      jump\t// in\n    tag_519:\n        /* \"#utility.yul\":2321:2460   */\n      swap3\n      swap2\n      pop\n      pop\n      jump\t// out\n        /* \"#utility.yul\":2466:2795   */\n    tag_97:\n        /* \"#utility.yul\":2525:2531   */\n      0x00\n        /* \"#utility.yul\":2574:2576   */\n      0x20\n        /* \"#utility.yul\":2562:2571   */\n      dup3\n        /* \"#utility.yul\":2553:2560   */\n      dup5\n        /* \"#utility.yul\":2549:2572   */\n      sub\n        /* \"#utility.yul\":2545:2577   */\n      slt\n        /* \"#utility.yul\":2542:2661   */\n      iszero\n      tag_522\n      jumpi\n        /* \"#utility.yul\":2580:2659   */\n      tag_523\n      tag_524\n      jump\t// in\n    tag_523:\n        /* \"#utility.yul\":2542:2661   */\n    tag_522:\n        /* \"#utility.yul\":2700:2701   */\n      0x00\n        /* \"#utility.yul\":2725:2778   */\n      tag_525\n        /* \"#utility.yul\":2770:2777   */\n      dup5\n        /* \"#utility.yul\":2761:2767   */\n      dup3\n        /* \"#utility.yul\":2750:2759   */\n      dup6\n        /* \"#utility.yul\":2746:2768   */\n      add\n        /* \"#utility.yul\":2725:2778   */\n      tag_504\n      jump\t// in\n    tag_525:\n        /* \"#utility.yul\":2715:2778   */\n      swap2\n      pop\n        /* \"#utility.yul\":2671:2788   */\n      pop\n        /* \"#utility.yul\":2466:2795   */\n      swap3\n      swap2\n      pop\n      pop\n      jump\t// out\n        /* \"#utility.yul\":2801:3275   */\n    tag_29:\n        /* \"#utility.yul\":2869:2875   */\n      0x00\n        /* \"#utility.yul\":2877:2883   */\n      dup1\n        /* \"#utility.yul\":2926:2928   */\n      0x40\n        /* \"#utility.yul\":2914:2923   */\n      dup4\n        /* \"#utility.yul\":2905:2912   */\n      dup6\n        /* \"#utility.yul\":2901:2924   */\n      sub\n        /* \"#utility.yul\":2897:2929   */\n      slt\n        /* \"#utility.yul\":2894:3013   */\n      iszero\n      tag_527\n      jumpi\n        /* \"#utility.yul\":2932:3011   */\n      tag_528\n      tag_524\n      jump\t// in\n    tag_528:\n        /* \"#utility.yul\":2894:3013   */\n    tag_527:\n        /* \"#utility.yul\":3052:3053   */\n      0x00\n        /* \"#utility.yul\":3077:3130   */\n      tag_529\n        /* \"#utility.yul\":3122:3129   */\n      dup6\n        /* \"#utility.yul\":3113:3119   */\n      dup3\n        /* \"#utility.yul\":3102:3111   */\n      dup7\n        /* \"#utility.yul\":3098:3120   */\n      add\n        /* \"#utility.yul\":3077:3130   */\n      tag_504\n      jump\t// in\n    tag_529:\n        /* \"#utility.yul\":3067:3130   */\n      swap3\n      pop\n        /* \"#utility.yul\":3023:3140   */\n      pop\n        /* \"#utility.yul\":3179:3181   */\n      0x20\n        /* \"#utility.yul\":3205:3258   */\n      tag_530\n        /* \"#utility.yul\":3250:3257   */\n      dup6\n        /* \"#utility.yul\":3241:3247   */\n      dup3\n        /* \"#utility.yul\":3230:3239   */\n      dup7\n        /* \"#utility.yul\":3226:3248   */\n      add\n        /* \"#utility.yul\":3205:3258   */\n      tag_517\n      jump\t// in\n    tag_530:\n        /* \"#utility.yul\":3195:3258   */\n      swap2\n      pop\n        /* \"#utility.yul\":3150:3268   */\n      pop\n        /* \"#utility.yul\":2801:3275   */\n      swap3\n      pop\n      swap3\n      swap1\n      pop\n      jump\t// out\n        /* \"#utility.yul\":3281:4698   */\n    tag_68:\n        /* \"#utility.yul\":3405:3411   */\n      0x00\n        /* \"#utility.yul\":3413:3419   */\n      dup1\n        /* \"#utility.yul\":3421:3427   */\n      0x00\n        /* \"#utility.yul\":3429:3435   */\n      dup1\n        /* \"#utility.yul\":3437:3443   */\n      0x00\n        /* \"#utility.yul\":3445:3451   */\n      dup1\n        /* \"#utility.yul\":3494:3497   */\n      0xc0\n        /* \"#utility.yul\":3482:3491   */\n      dup8\n        /* \"#utility.yul\":3473:3480   */\n      dup10\n        /* \"#utility.yul\":3469:3492   */\n      sub\n        /* \"#utility.yul\":3465:3498   */\n      slt\n        /* \"#utility.yul\":3462:3582   */\n      iszero\n      tag_532\n      jumpi\n        /* \"#utility.yul\":3501:3580   */\n      tag_533\n      tag_524\n      jump\t// in\n    tag_533:\n        /* \"#utility.yul\":3462:3582   */\n    tag_532:\n        /* \"#utility.yul\":3649:3650   */\n      0x00\n        /* \"#utility.yul\":3638:3647   */\n      dup8\n        /* \"#utility.yul\":3634:3651   */\n      add\n        /* \"#utility.yul\":3621:3652   */\n      calldataload\n        /* \"#utility.yul\":3679:3697   */\n      0xffffffffffffffff\n        /* \"#utility.yul\":3671:3677   */\n      dup2\n        /* \"#utility.yul\":3668:3698   */\n      gt\n        /* \"#utility.yul\":3665:3782   */\n      iszero\n      tag_534\n      jumpi\n        /* \"#utility.yul\":3701:3780   */\n      tag_535\n      tag_536\n      jump\t// in\n    tag_535:\n        /* \"#utility.yul\":3665:3782   */\n    tag_534:\n        /* \"#utility.yul\":3806:3869   */\n      tag_537\n        /* \"#utility.yul\":3861:3868   */\n      dup10\n        /* \"#utility.yul\":3852:3858   */\n      dup3\n        /* \"#utility.yul\":3841:3850   */\n      dup11\n        /* \"#utility.yul\":3837:3859   */\n      add\n        /* \"#utility.yul\":3806:3869   */\n      tag_493\n      jump\t// in\n    tag_537:\n        /* \"#utility.yul\":3796:3869   */\n      swap7\n      pop\n        /* \"#utility.yul\":3592:3879   */\n      pop\n        /* \"#utility.yul\":3946:3948   */\n      0x20\n        /* \"#utility.yul\":3935:3944   */\n      dup8\n        /* \"#utility.yul\":3931:3949   */\n      add\n        /* \"#utility.yul\":3918:3950   */\n      calldataload\n        /* \"#utility.yul\":3977:3995   */\n      0xffffffffffffffff\n        /* \"#utility.yul\":3969:3975   */\n      dup2\n        /* \"#utility.yul\":3966:3996   */\n      gt\n        /* \"#utility.yul\":3963:4080   */\n      iszero\n      tag_538\n      jumpi\n        /* \"#utility.yul\":3999:4078   */\n      tag_539\n      tag_536\n      jump\t// in\n    tag_539:\n        /* \"#utility.yul\":3963:4080   */\n    tag_538:\n        /* \"#utility.yul\":4104:4167   */\n      tag_540\n        /* \"#utility.yul\":4159:4166   */\n      dup10\n        /* \"#utility.yul\":4150:4156   */\n      dup3\n        /* \"#utility.yul\":4139:4148   */\n      dup11\n        /* \"#utility.yul\":4135:4157   */\n      add\n        /* \"#utility.yul\":4104:4167   */\n      tag_493\n      jump\t// in\n    tag_540:\n        /* \"#utility.yul\":4094:4167   */\n      swap6\n      pop\n        /* \"#utility.yul\":3889:4177   */\n      pop\n        /* \"#utility.yul\":4216:4218   */\n      0x40\n        /* \"#utility.yul\":4242:4295   */\n      tag_541\n        /* \"#utility.yul\":4287:4294   */\n      dup10\n        /* \"#utility.yul\":4278:4284   */\n      dup3\n        /* \"#utility.yul\":4267:4276   */\n      dup11\n        /* \"#utility.yul\":4263:4285   */\n      add\n        /* \"#utility.yul\":4242:4295   */\n      tag_504\n      jump\t// in\n    tag_541:\n        /* \"#utility.yul\":4232:4295   */\n      swap5\n      pop\n        /* \"#utility.yul\":4187:4305   */\n      pop\n        /* \"#utility.yul\":4344:4346   */\n      0x60\n        /* \"#utility.yul\":4370:4423   */\n      tag_542\n        /* \"#utility.yul\":4415:4422   */\n      dup10\n        /* \"#utility.yul\":4406:4412   */\n      dup3\n        /* \"#utility.yul\":4395:4404   */\n      dup11\n        /* \"#utility.yul\":4391:4413   */\n      add\n        /* \"#utility.yul\":4370:4423   */\n      tag_517\n      jump\t// in\n    tag_542:\n        /* \"#utility.yul\":4360:4423   */\n      swap4\n      pop\n        /* \"#utility.yul\":4315:4433   */\n      pop\n        /* \"#utility.yul\":4472:4475   */\n      0x80\n        /* \"#utility.yul\":4499:4552   */\n      tag_543\n        /* \"#utility.yul\":4544:4551   */\n      dup10\n        /* \"#utility.yul\":4535:4541   */\n      dup3\n        /* \"#utility.yul\":4524:4533   */\n      dup11\n        /* \"#utility.yul\":4520:4542   */\n      add\n        /* \"#utility.yul\":4499:4552   */\n      tag_517\n      jump\t// in\n    tag_543:\n        /* \"#utility.yul\":4489:4552   */\n      swap3\n      pop\n        /* \"#utility.yul\":4443:4562   */\n      pop\n        /* \"#utility.yul\":4601:4604   */\n      0xa0\n        /* \"#utility.yul\":4628:4681   */\n      tag_544\n        /* \"#utility.yul\":4673:4680   */\n      dup10\n        /* \"#utility.yul\":4664:4670   */\n      dup3\n        /* \"#utility.yul\":4653:4662   */\n      dup11\n        /* \"#utility.yul\":4649:4671   */\n      add\n        /* \"#utility.yul\":4628:4681   */\n      tag_517\n      jump\t// in\n    tag_544:\n        /* \"#utility.yul\":4618:4681   */\n      swap2\n      pop\n        /* \"#utility.yul\":4572:4691   */\n      pop\n        /* \"#utility.yul\":3281:4698   */\n      swap3\n      swap6\n      pop\n      swap3\n      swap6\n      pop\n      swap3\n      swap6\n      jump\t// out\n        /* \"#utility.yul\":4704:6239   */\n    tag_88:\n        /* \"#utility.yul\":4855:4861   */\n      0x00\n        /* \"#utility.yul\":4863:4869   */\n      dup1\n        /* \"#utility.yul\":4871:4877   */\n      0x00\n        /* \"#utility.yul\":4879:4885   */\n      dup1\n        /* \"#utility.yul\":4928:4931   */\n      0x80\n        /* \"#utility.yul\":4916:4925   */\n      dup6\n        /* \"#utility.yul\":4907:4914   */\n      dup8\n        /* \"#utility.yul\":4903:4926   */\n      sub\n        /* \"#utility.yul\":4899:4932   */\n      slt\n        /* \"#utility.yul\":4896:5016   */\n      iszero\n      tag_546\n      jumpi\n        /* \"#utility.yul\":4935:5014   */\n      tag_547\n      tag_524\n      jump\t// in\n    tag_547:\n        /* \"#utility.yul\":4896:5016   */\n    tag_546:\n        /* \"#utility.yul\":5083:5084   */\n      0x00\n        /* \"#utility.yul\":5072:5081   */\n      dup6\n        /* \"#utility.yul\":5068:5085   */\n      add\n        /* \"#utility.yul\":5055:5086   */\n      calldataload\n        /* \"#utility.yul\":5113:5131   */\n      0xffffffffffffffff\n        /* \"#utility.yul\":5105:5111   */\n      dup2\n        /* \"#utility.yul\":5102:5132   */\n      gt\n        /* \"#utility.yul\":5099:5216   */\n      iszero\n      tag_548\n      jumpi\n        /* \"#utility.yul\":5135:5214   */\n      tag_549\n      tag_536\n      jump\t// in\n    tag_549:\n        /* \"#utility.yul\":5099:5216   */\n    tag_548:\n        /* \"#utility.yul\":5240:5303   */\n      tag_550\n        /* \"#utility.yul\":5295:5302   */\n      dup8\n        /* \"#utility.yul\":5286:5292   */\n      dup3\n        /* \"#utility.yul\":5275:5284   */\n      dup9\n        /* \"#utility.yul\":5271:5293   */\n      add\n        /* \"#utility.yul\":5240:5303   */\n      tag_493\n      jump\t// in\n    tag_550:\n        /* \"#utility.yul\":5230:5303   */\n      swap5\n      pop\n        /* \"#utility.yul\":5026:5313   */\n      pop\n        /* \"#utility.yul\":5380:5382   */\n      0x20\n        /* \"#utility.yul\":5369:5378   */\n      dup6\n        /* \"#utility.yul\":5365:5383   */\n      add\n        /* \"#utility.yul\":5352:5384   */\n      calldataload\n        /* \"#utility.yul\":5411:5429   */\n      0xffffffffffffffff\n        /* \"#utility.yul\":5403:5409   */\n      dup2\n        /* \"#utility.yul\":5400:5430   */\n      gt\n        /* \"#utility.yul\":5397:5514   */\n      iszero\n      tag_551\n      jumpi\n        /* \"#utility.yul\":5433:5512   */\n      tag_552\n      tag_536\n      jump\t// in\n    tag_552:\n        /* \"#utility.yul\":5397:5514   */\n    tag_551:\n        /* \"#utility.yul\":5538:5601   */\n      tag_553\n        /* \"#utility.yul\":5593:5600   */\n      dup8\n        /* \"#utility.yul\":5584:5590   */\n      dup3\n        /* \"#utility.yul\":5573:5582   */\n      dup9\n        /* \"#utility.yul\":5569:5591   */\n      add\n        /* \"#utility.yul\":5538:5601   */\n      tag_493\n      jump\t// in\n    tag_553:\n        /* \"#utility.yul\":5528:5601   */\n      swap4\n      pop\n        /* \"#utility.yul\":5323:5611   */\n      pop\n        /* \"#utility.yul\":5678:5680   */\n      0x40\n        /* \"#utility.yul\":5667:5676   */\n      dup6\n        /* \"#utility.yul\":5663:5681   */\n      add\n        /* \"#utility.yul\":5650:5682   */\n      calldataload\n        /* \"#utility.yul\":5709:5727   */\n      0xffffffffffffffff\n        /* \"#utility.yul\":5701:5707   */\n      dup2\n        /* \"#utility.yul\":5698:5728   */\n      gt\n        /* \"#utility.yul\":5695:5812   */\n      iszero\n      tag_554\n      jumpi\n        /* \"#utility.yul\":5731:5810   */\n      tag_555\n      tag_536\n      jump\t// in\n    tag_555:\n        /* \"#utility.yul\":5695:5812   */\n    tag_554:\n        /* \"#utility.yul\":5836:5899   */\n      tag_556\n        /* \"#utility.yul\":5891:5898   */\n      dup8\n        /* \"#utility.yul\":5882:5888   */\n      dup3\n        /* \"#utility.yul\":5871:5880   */\n      dup9\n        /* \"#utility.yul\":5867:5889   */\n      add\n        /* \"#utility.yul\":5836:5899   */\n      tag_493\n      jump\t// in\n    tag_556:\n        /* \"#utility.yul\":5826:5899   */\n      swap3\n      pop\n        /* \"#utility.yul\":5621:5909   */\n      pop\n        /* \"#utility.yul\":5976:5978   */\n      0x60\n        /* \"#utility.yul\":5965:5974   */\n      dup6\n        /* \"#utility.yul\":5961:5979   */\n      add\n        /* \"#utility.yul\":5948:5980   */\n      calldataload\n        /* \"#utility.yul\":6007:6025   */\n      0xffffffffffffffff\n        /* \"#utility.yul\":5999:6005   */\n      dup2\n        /* \"#utility.yul\":5996:6026   */\n      gt\n        /* \"#utility.yul\":5993:6110   */\n      iszero\n      tag_557\n      jumpi\n        /* \"#utility.yul\":6029:6108   */\n      tag_558\n      tag_536\n      jump\t// in\n    tag_558:\n        /* \"#utility.yul\":5993:6110   */\n    tag_557:\n        /* \"#utility.yul\":6134:6222   */\n      tag_559\n        /* \"#utility.yul\":6214:6221   */\n      dup8\n        /* \"#utility.yul\":6205:6211   */\n      dup3\n        /* \"#utility.yul\":6194:6203   */\n      dup9\n        /* \"#utility.yul\":6190:6212   */\n      add\n        /* \"#utility.yul\":6134:6222   */\n      tag_508\n      jump\t// in\n    tag_559:\n        /* \"#utility.yul\":6124:6222   */\n      swap2\n      pop\n        /* \"#utility.yul\":5919:6232   */\n      pop\n        /* \"#utility.yul\":4704:6239   */\n      swap3\n      swap6\n      swap2\n      swap5\n      pop\n      swap3\n      pop\n      jump\t// out\n        /* \"#utility.yul\":6245:7926   */\n    tag_24:\n        /* \"#utility.yul\":6405:6411   */\n      0x00\n        /* \"#utility.yul\":6413:6419   */\n      dup1\n        /* \"#utility.yul\":6421:6427   */\n      0x00\n        /* \"#utility.yul\":6429:6435   */\n      dup1\n        /* \"#utility.yul\":6437:6443   */\n      0x00\n        /* \"#utility.yul\":6486:6489   */\n      0xa0\n        /* \"#utility.yul\":6474:6483   */\n      dup7\n        /* \"#utility.yul\":6465:6472   */\n      dup9\n        /* \"#utility.yul\":6461:6484   */\n      sub\n        /* \"#utility.yul\":6457:6490   */\n      slt\n        /* \"#utility.yul\":6454:6574   */\n      iszero\n      tag_561\n      jumpi\n        /* \"#utility.yul\":6493:6572   */\n      tag_562\n      tag_524\n      jump\t// in\n    tag_562:\n        /* \"#utility.yul\":6454:6574   */\n    tag_561:\n        /* \"#utility.yul\":6641:6642   */\n      0x00\n        /* \"#utility.yul\":6630:6639   */\n      dup7\n        /* \"#utility.yul\":6626:6643   */\n      add\n        /* \"#utility.yul\":6613:6644   */\n      calldataload\n        /* \"#utility.yul\":6671:6689   */\n      0xffffffffffffffff\n        /* \"#utility.yul\":6663:6669   */\n      dup2\n        /* \"#utility.yul\":6660:6690   */\n      gt\n        /* \"#utility.yul\":6657:6774   */\n      iszero\n      tag_563\n      jumpi\n        /* \"#utility.yul\":6693:6772   */\n      tag_564\n      tag_536\n      jump\t// in\n    tag_564:\n        /* \"#utility.yul\":6657:6774   */\n    tag_563:\n        /* \"#utility.yul\":6798:6861   */\n      tag_565\n        /* \"#utility.yul\":6853:6860   */\n      dup9\n        /* \"#utility.yul\":6844:6850   */\n      dup3\n        /* \"#utility.yul\":6833:6842   */\n      dup10\n        /* \"#utility.yul\":6829:6851   */\n      add\n        /* \"#utility.yul\":6798:6861   */\n      tag_493\n      jump\t// in\n    tag_565:\n        /* \"#utility.yul\":6788:6861   */\n      swap6\n      pop\n        /* \"#utility.yul\":6584:6871   */\n      pop\n        /* \"#utility.yul\":6938:6940   */\n      0x20\n        /* \"#utility.yul\":6927:6936   */\n      dup7\n        /* \"#utility.yul\":6923:6941   */\n      add\n        /* \"#utility.yul\":6910:6942   */\n      calldataload\n        /* \"#utility.yul\":6969:6987   */\n      0xffffffffffffffff\n        /* \"#utility.yul\":6961:6967   */\n      dup2\n        /* \"#utility.yul\":6958:6988   */\n      gt\n        /* \"#utility.yul\":6955:7072   */\n      iszero\n      tag_566\n      jumpi\n        /* \"#utility.yul\":6991:7070   */\n      tag_567\n      tag_536\n      jump\t// in\n    tag_567:\n        /* \"#utility.yul\":6955:7072   */\n    tag_566:\n        /* \"#utility.yul\":7096:7159   */\n      tag_568\n        /* \"#utility.yul\":7151:7158   */\n      dup9\n        /* \"#utility.yul\":7142:7148   */\n      dup3\n        /* \"#utility.yul\":7131:7140   */\n      dup10\n        /* \"#utility.yul\":7127:7149   */\n      add\n        /* \"#utility.yul\":7096:7159   */\n      tag_493\n      jump\t// in\n    tag_568:\n        /* \"#utility.yul\":7086:7159   */\n      swap5\n      pop\n        /* \"#utility.yul\":6881:7169   */\n      pop\n        /* \"#utility.yul\":7236:7238   */\n      0x40\n        /* \"#utility.yul\":7225:7234   */\n      dup7\n        /* \"#utility.yul\":7221:7239   */\n      add\n        /* \"#utility.yul\":7208:7240   */\n      calldataload\n        /* \"#utility.yul\":7267:7285   */\n      0xffffffffffffffff\n        /* \"#utility.yul\":7259:7265   */\n      dup2\n        /* \"#utility.yul\":7256:7286   */\n      gt\n        /* \"#utility.yul\":7253:7370   */\n      iszero\n      tag_569\n      jumpi\n        /* \"#utility.yul\":7289:7368   */\n      tag_570\n      tag_536\n      jump\t// in\n    tag_570:\n        /* \"#utility.yul\":7253:7370   */\n    tag_569:\n        /* \"#utility.yul\":7394:7457   */\n      tag_571\n        /* \"#utility.yul\":7449:7456   */\n      dup9\n        /* \"#utility.yul\":7440:7446   */\n      dup3\n        /* \"#utility.yul\":7429:7438   */\n      dup10\n        /* \"#utility.yul\":7425:7447   */\n      add\n        /* \"#utility.yul\":7394:7457   */\n      tag_493\n      jump\t// in\n    tag_571:\n        /* \"#utility.yul\":7384:7457   */\n      swap4\n      pop\n        /* \"#utility.yul\":7179:7467   */\n      pop\n        /* \"#utility.yul\":7534:7536   */\n      0x60\n        /* \"#utility.yul\":7523:7532   */\n      dup7\n        /* \"#utility.yul\":7519:7537   */\n      add\n        /* \"#utility.yul\":7506:7538   */\n      calldataload\n        /* \"#utility.yul\":7565:7583   */\n      0xffffffffffffffff\n        /* \"#utility.yul\":7557:7563   */\n      dup2\n        /* \"#utility.yul\":7554:7584   */\n      gt\n        /* \"#utility.yul\":7551:7668   */\n      iszero\n      tag_572\n      jumpi\n        /* \"#utility.yul\":7587:7666   */\n      tag_573\n      tag_536\n      jump\t// in\n    tag_573:\n        /* \"#utility.yul\":7551:7668   */\n    tag_572:\n        /* \"#utility.yul\":7692:7780   */\n      tag_574\n        /* \"#utility.yul\":7772:7779   */\n      dup9\n        /* \"#utility.yul\":7763:7769   */\n      dup3\n        /* \"#utility.yul\":7752:7761   */\n      dup10\n        /* \"#utility.yul\":7748:7770   */\n      add\n        /* \"#utility.yul\":7692:7780   */\n      tag_508\n      jump\t// in\n    tag_574:\n        /* \"#utility.yul\":7682:7780   */\n      swap3\n      pop\n        /* \"#utility.yul\":7477:7790   */\n      pop\n        /* \"#utility.yul\":7829:7832   */\n      0x80\n        /* \"#utility.yul\":7856:7909   */\n      tag_575\n        /* \"#utility.yul\":7901:7908   */\n      dup9\n        /* \"#utility.yul\":7892:7898   */\n      dup3\n        /* \"#utility.yul\":7881:7890   */\n      dup10\n        /* \"#utility.yul\":7877:7899   */\n      add\n        /* \"#utility.yul\":7856:7909   */\n      tag_517\n      jump\t// in\n    tag_575:\n        /* \"#utility.yul\":7846:7909   */\n      swap2\n      pop\n        /* \"#utility.yul\":7800:7919   */\n      pop\n        /* \"#utility.yul\":6245:7926   */\n      swap3\n      swap6\n      pop\n      swap3\n      swap6\n      swap1\n      swap4\n      pop\n      jump\t// out\n        /* \"#utility.yul\":7932:8261   */\n    tag_36:\n        /* \"#utility.yul\":7991:7997   */\n      0x00\n        /* \"#utility.yul\":8040:8042   */\n      0x20\n        /* \"#utility.yul\":8028:8037   */\n      dup3\n        /* \"#utility.yul\":8019:8026   */\n      dup5\n        /* \"#utility.yul\":8015:8038   */\n      sub\n        /* \"#utility.yul\":8011:8043   */\n      slt\n        /* \"#utility.yul\":8008:8127   */\n      iszero\n      tag_577\n      jumpi\n        /* \"#utility.yul\":8046:8125   */\n      tag_578\n      tag_524\n      jump\t// in\n    tag_578:\n        /* \"#utility.yul\":8008:8127   */\n    tag_577:\n        /* \"#utility.yul\":8166:8167   */\n      0x00\n        /* \"#utility.yul\":8191:8244   */\n      tag_579\n        /* \"#utility.yul\":8236:8243   */\n      dup5\n        /* \"#utility.yul\":8227:8233   */\n      dup3\n        /* \"#utility.yul\":8216:8225   */\n      dup6\n        /* \"#utility.yul\":8212:8234   */\n      add\n        /* \"#utility.yul\":8191:8244   */\n      tag_517\n      jump\t// in\n    tag_579:\n        /* \"#utility.yul\":8181:8244   */\n      swap2\n      pop\n        /* \"#utility.yul\":8137:8254   */\n      pop\n        /* \"#utility.yul\":7932:8261   */\n      swap3\n      swap2\n      pop\n      pop\n      jump\t// out\n        /* \"#utility.yul\":8267:8741   */\n    tag_73:\n        /* \"#utility.yul\":8335:8341   */\n      0x00\n        /* \"#utility.yul\":8343:8349   */\n      dup1\n        /* \"#utility.yul\":8392:8394   */\n      0x40\n        /* \"#utility.yul\":8380:8389   */\n      dup4\n        /* \"#utility.yul\":8371:8378   */\n      dup6\n        /* \"#utility.yul\":8367:8390   */\n      sub\n        /* \"#utility.yul\":8363:8395   */\n      slt\n        /* \"#utility.yul\":8360:8479   */\n      iszero\n      tag_581\n      jumpi\n        /* \"#utility.yul\":8398:8477   */\n      tag_582\n      tag_524\n      jump\t// in\n    tag_582:\n        /* \"#utility.yul\":8360:8479   */\n    tag_581:\n        /* \"#utility.yul\":8518:8519   */\n      0x00\n        /* \"#utility.yul\":8543:8596   */\n      tag_583\n        /* \"#utility.yul\":8588:8595   */\n      dup6\n        /* \"#utility.yul\":8579:8585   */\n      dup3\n        /* \"#utility.yul\":8568:8577   */\n      dup7\n        /* \"#utility.yul\":8564:8586   */\n      add\n        /* \"#utility.yul\":8543:8596   */\n      tag_517\n      jump\t// in\n    tag_583:\n        /* \"#utility.yul\":8533:8596   */\n      swap3\n      pop\n        /* \"#utility.yul\":8489:8606   */\n      pop\n        /* \"#utility.yul\":8645:8647   */\n      0x20\n        /* \"#utility.yul\":8671:8724   */\n      tag_584\n        /* \"#utility.yul\":8716:8723   */\n      dup6\n        /* \"#utility.yul\":8707:8713   */\n      dup3\n        /* \"#utility.yul\":8696:8705   */\n      dup7\n        /* \"#utility.yul\":8692:8714   */\n      add\n        /* \"#utility.yul\":8671:8724   */\n      tag_504\n      jump\t// in\n    tag_584:\n        /* \"#utility.yul\":8661:8724   */\n      swap2\n      pop\n        /* \"#utility.yul\":8616:8734   */\n      pop\n        /* \"#utility.yul\":8267:8741   */\n      swap3\n      pop\n      swap3\n      swap1\n      pop\n      jump\t// out\n        /* \"#utility.yul\":8747:9221   */\n    tag_43:\n        /* \"#utility.yul\":8815:8821   */\n      0x00\n        /* \"#utility.yul\":8823:8829   */\n      dup1\n        /* \"#utility.yul\":8872:8874   */\n      0x40\n        /* \"#utility.yul\":8860:8869   */\n      dup4\n        /* \"#utility.yul\":8851:8858   */\n      dup6\n        /* \"#utility.yul\":8847:8870   */\n      sub\n        /* \"#utility.yul\":8843:8875   */\n      slt\n        /* \"#utility.yul\":8840:8959   */\n      iszero\n      tag_586\n      jumpi\n        /* \"#utility.yul\":8878:8957   */\n      tag_587\n      tag_524\n      jump\t// in\n    tag_587:\n        /* \"#utility.yul\":8840:8959   */\n    tag_586:\n        /* \"#utility.yul\":8998:8999   */\n      0x00\n        /* \"#utility.yul\":9023:9076   */\n      tag_588\n        /* \"#utility.yul\":9068:9075   */\n      dup6\n        /* \"#utility.yul\":9059:9065   */\n      dup3\n        /* \"#utility.yul\":9048:9057   */\n      dup7\n        /* \"#utility.yul\":9044:9066   */\n      add\n        /* \"#utility.yul\":9023:9076   */\n      tag_517\n      jump\t// in\n    tag_588:\n        /* \"#utility.yul\":9013:9076   */\n      swap3\n      pop\n        /* \"#utility.yul\":8969:9086   */\n      pop\n        /* \"#utility.yul\":9125:9127   */\n      0x20\n        /* \"#utility.yul\":9151:9204   */\n      tag_589\n        /* \"#utility.yul\":9196:9203   */\n      dup6\n        /* \"#utility.yul\":9187:9193   */\n      dup3\n        /* \"#utility.yul\":9176:9185   */\n      dup7\n        /* \"#utility.yul\":9172:9194   */\n      add\n        /* \"#utility.yul\":9151:9204   */\n      tag_517\n      jump\t// in\n    tag_589:\n        /* \"#utility.yul\":9141:9204   */\n      swap2\n      pop\n        /* \"#utility.yul\":9096:9214   */\n      pop\n        /* \"#utility.yul\":8747:9221   */\n      swap3\n      pop\n      swap3\n      swap1\n      pop\n      jump\t// out\n        /* \"#utility.yul\":9227:9423   */\n    tag_590:\n        /* \"#utility.yul\":9316:9326   */\n      0x00\n        /* \"#utility.yul\":9351:9417   */\n      tag_592\n        /* \"#utility.yul\":9413:9416   */\n      dup4\n        /* \"#utility.yul\":9405:9411   */\n      dup4\n        /* \"#utility.yul\":9351:9417   */\n      tag_593\n      jump\t// in\n    tag_592:\n        /* \"#utility.yul\":9337:9417   */\n      swap1\n      pop\n        /* \"#utility.yul\":9227:9423   */\n      swap3\n      swap2\n      pop\n      pop\n      jump\t// out\n        /* \"#utility.yul\":9429:9677   */\n    tag_594:\n        /* \"#utility.yul\":9544:9554   */\n      0x00\n        /* \"#utility.yul\":9579:9671   */\n      tag_596\n        /* \"#utility.yul\":9667:9670   */\n      dup4\n        /* \"#utility.yul\":9659:9665   */\n      dup4\n        /* \"#utility.yul\":9579:9671   */\n      tag_597\n      jump\t// in\n    tag_596:\n        /* \"#utility.yul\":9565:9671   */\n      swap1\n      pop\n        /* \"#utility.yul\":9429:9677   */\n      swap3\n      swap2\n      pop\n      pop\n      jump\t// out\n        /* \"#utility.yul\":9683:9998   */\n    tag_598:\n        /* \"#utility.yul\":9820:9830   */\n      0x00\n        /* \"#utility.yul\":9841:9955   */\n      tag_600\n        /* \"#utility.yul\":9951:9954   */\n      dup4\n        /* \"#utility.yul\":9943:9949   */\n      dup4\n        /* \"#utility.yul\":9841:9955   */\n      tag_601\n      jump\t// in\n    tag_600:\n        /* \"#utility.yul\":9987:9991   */\n      0xa0\n        /* \"#utility.yul\":9982:9985   */\n      dup4\n        /* \"#utility.yul\":9978:9992   */\n      add\n        /* \"#utility.yul\":9964:9992   */\n      swap1\n      pop\n        /* \"#utility.yul\":9683:9998   */\n      swap3\n      swap2\n      pop\n      pop\n      jump\t// out\n        /* \"#utility.yul\":10004:10112   */\n    tag_602:\n        /* \"#utility.yul\":10081:10105   */\n      tag_604\n        /* \"#utility.yul\":10099:10104   */\n      dup2\n        /* \"#utility.yul\":10081:10105   */\n      tag_605\n      jump\t// in\n    tag_604:\n        /* \"#utility.yul\":10076:10079   */\n      dup3\n        /* \"#utility.yul\":10069:10106   */\n      mstore\n        /* \"#utility.yul\":10004:10112   */\n      pop\n      pop\n      jump\t// out\n        /* \"#utility.yul\":10118:10236   */\n    tag_606:\n        /* \"#utility.yul\":10205:10229   */\n      tag_608\n        /* \"#utility.yul\":10223:10228   */\n      dup2\n        /* \"#utility.yul\":10205:10229   */\n      tag_605\n      jump\t// in\n    tag_608:\n        /* \"#utility.yul\":10200:10203   */\n      dup3\n        /* \"#utility.yul\":10193:10230   */\n      mstore\n        /* \"#utility.yul\":10118:10236   */\n      pop\n      pop\n      jump\t// out\n        /* \"#utility.yul\":10270:11241   */\n    tag_609:\n        /* \"#utility.yul\":10399:10402   */\n      0x00\n        /* \"#utility.yul\":10428:10492   */\n      tag_611\n        /* \"#utility.yul\":10486:10491   */\n      dup3\n        /* \"#utility.yul\":10428:10492   */\n      tag_612\n      jump\t// in\n    tag_611:\n        /* \"#utility.yul\":10508:10594   */\n      tag_613\n        /* \"#utility.yul\":10587:10593   */\n      dup2\n        /* \"#utility.yul\":10582:10585   */\n      dup6\n        /* \"#utility.yul\":10508:10594   */\n      tag_614\n      jump\t// in\n    tag_613:\n        /* \"#utility.yul\":10501:10594   */\n      swap4\n      pop\n        /* \"#utility.yul\":10620:10623   */\n      dup4\n        /* \"#utility.yul\":10665:10669   */\n      0x20\n        /* \"#utility.yul\":10657:10663   */\n      dup3\n        /* \"#utility.yul\":10653:10670   */\n      mul\n        /* \"#utility.yul\":10648:10651   */\n      dup6\n        /* \"#utility.yul\":10644:10671   */\n      add\n        /* \"#utility.yul\":10695:10761   */\n      tag_615\n        /* \"#utility.yul\":10755:10760   */\n      dup6\n        /* \"#utility.yul\":10695:10761   */\n      tag_616\n      jump\t// in\n    tag_615:\n        /* \"#utility.yul\":10784:10791   */\n      dup1\n        /* \"#utility.yul\":10815:10816   */\n      0x00\n        /* \"#utility.yul\":10800:11196   */\n    tag_617:\n        /* \"#utility.yul\":10825:10831   */\n      dup6\n        /* \"#utility.yul\":10822:10823   */\n      dup2\n        /* \"#utility.yul\":10819:10832   */\n      lt\n        /* \"#utility.yul\":10800:11196   */\n      iszero\n      tag_619\n      jumpi\n        /* \"#utility.yul\":10896:10905   */\n      dup5\n        /* \"#utility.yul\":10890:10894   */\n      dup5\n        /* \"#utility.yul\":10886:10906   */\n      sub\n        /* \"#utility.yul\":10881:10884   */\n      dup10\n        /* \"#utility.yul\":10874:10907   */\n      mstore\n        /* \"#utility.yul\":10947:10953   */\n      dup2\n        /* \"#utility.yul\":10941:10954   */\n      mload\n        /* \"#utility.yul\":10975:11059   */\n      tag_620\n        /* \"#utility.yul\":11054:11058   */\n      dup6\n        /* \"#utility.yul\":11039:11052   */\n      dup3\n        /* \"#utility.yul\":10975:11059   */\n      tag_590\n      jump\t// in\n    tag_620:\n        /* \"#utility.yul\":10967:11059   */\n      swap5\n      pop\n        /* \"#utility.yul\":11082:11152   */\n      tag_621\n        /* \"#utility.yul\":11145:11151   */\n      dup4\n        /* \"#utility.yul\":11082:11152   */\n      tag_622\n      jump\t// in\n    tag_621:\n        /* \"#utility.yul\":11072:11152   */\n      swap3\n      pop\n        /* \"#utility.yul\":11181:11185   */\n      0x20\n        /* \"#utility.yul\":11176:11179   */\n      dup11\n        /* \"#utility.yul\":11172:11186   */\n      add\n        /* \"#utility.yul\":11165:11186   */\n      swap10\n      pop\n        /* \"#utility.yul\":10860:11196   */\n      pop\n        /* \"#utility.yul\":10847:10848   */\n      0x01\n        /* \"#utility.yul\":10844:10845   */\n      dup2\n        /* \"#utility.yul\":10840:10849   */\n      add\n        /* \"#utility.yul\":10835:10849   */\n      swap1\n      pop\n        /* \"#utility.yul\":10800:11196   */\n      jump(tag_617)\n    tag_619:\n        /* \"#utility.yul\":10804:10818   */\n      pop\n        /* \"#utility.yul\":11212:11216   */\n      dup3\n        /* \"#utility.yul\":11205:11216   */\n      swap8\n      pop\n        /* \"#utility.yul\":11232:11235   */\n      dup8\n        /* \"#utility.yul\":11225:11235   */\n      swap6\n      pop\n        /* \"#utility.yul\":10404:11241   */\n      pop\n      pop\n      pop\n      pop\n      pop\n        /* \"#utility.yul\":10270:11241   */\n      swap3\n      swap2\n      pop\n      pop\n      jump\t// out\n        /* \"#utility.yul\":11315:12410   */\n    tag_623:\n        /* \"#utility.yul\":11480:11483   */\n      0x00\n        /* \"#utility.yul\":11509:11586   */\n      tag_625\n        /* \"#utility.yul\":11580:11585   */\n      dup3\n        /* \"#utility.yul\":11509:11586   */\n      tag_626\n      jump\t// in\n    tag_625:\n        /* \"#utility.yul\":11602:11711   */\n      tag_627\n        /* \"#utility.yul\":11704:11710   */\n      dup2\n        /* \"#utility.yul\":11699:11702   */\n      dup6\n        /* \"#utility.yul\":11602:11711   */\n      tag_628\n      jump\t// in\n    tag_627:\n        /* \"#utility.yul\":11595:11711   */\n      swap4\n      pop\n        /* \"#utility.yul\":11737:11740   */\n      dup4\n        /* \"#utility.yul\":11782:11786   */\n      0x20\n        /* \"#utility.yul\":11774:11780   */\n      dup3\n        /* \"#utility.yul\":11770:11787   */\n      mul\n        /* \"#utility.yul\":11765:11768   */\n      dup6\n        /* \"#utility.yul\":11761:11788   */\n      add\n        /* \"#utility.yul\":11812:11891   */\n      tag_629\n        /* \"#utility.yul\":11885:11890   */\n      dup6\n        /* \"#utility.yul\":11812:11891   */\n      tag_630\n      jump\t// in\n    tag_629:\n        /* \"#utility.yul\":11914:11921   */\n      dup1\n        /* \"#utility.yul\":11945:11946   */\n      0x00\n        /* \"#utility.yul\":11930:12365   */\n    tag_631:\n        /* \"#utility.yul\":11955:11961   */\n      dup6\n        /* \"#utility.yul\":11952:11953   */\n      dup2\n        /* \"#utility.yul\":11949:11962   */\n      lt\n        /* \"#utility.yul\":11930:12365   */\n      iszero\n      tag_633\n      jumpi\n        /* \"#utility.yul\":12026:12035   */\n      dup5\n        /* \"#utility.yul\":12020:12024   */\n      dup5\n        /* \"#utility.yul\":12016:12036   */\n      sub\n        /* \"#utility.yul\":12011:12014   */\n      dup10\n        /* \"#utility.yul\":12004:12037   */\n      mstore\n        /* \"#utility.yul\":12077:12083   */\n      dup2\n        /* \"#utility.yul\":12071:12084   */\n      mload\n        /* \"#utility.yul\":12105:12215   */\n      tag_634\n        /* \"#utility.yul\":12210:12214   */\n      dup6\n        /* \"#utility.yul\":12195:12208   */\n      dup3\n        /* \"#utility.yul\":12105:12215   */\n      tag_594\n      jump\t// in\n    tag_634:\n        /* \"#utility.yul\":12097:12215   */\n      swap5\n      pop\n        /* \"#utility.yul\":12238:12321   */\n      tag_635\n        /* \"#utility.yul\":12314:12320   */\n      dup4\n        /* \"#utility.yul\":12238:12321   */\n      tag_636\n      jump\t// in\n    tag_635:\n        /* \"#utility.yul\":12228:12321   */\n      swap3\n      pop\n        /* \"#utility.yul\":12350:12354   */\n      0x20\n        /* \"#utility.yul\":12345:12348   */\n      dup11\n        /* \"#utility.yul\":12341:12355   */\n      add\n        /* \"#utility.yul\":12334:12355   */\n      swap10\n      pop\n        /* \"#utility.yul\":11990:12365   */\n      pop\n        /* \"#utility.yul\":11977:11978   */\n      0x01\n        /* \"#utility.yul\":11974:11975   */\n      dup2\n        /* \"#utility.yul\":11970:11979   */\n      add\n        /* \"#utility.yul\":11965:11979   */\n      swap1\n      pop\n        /* \"#utility.yul\":11930:12365   */\n      jump(tag_631)\n    tag_633:\n        /* \"#utility.yul\":11934:11948   */\n      pop\n        /* \"#utility.yul\":12381:12385   */\n      dup3\n        /* \"#utility.yul\":12374:12385   */\n      swap8\n      pop\n        /* \"#utility.yul\":12401:12404   */\n      dup8\n        /* \"#utility.yul\":12394:12404   */\n      swap6\n      pop\n        /* \"#utility.yul\":11485:12410   */\n      pop\n      pop\n      pop\n      pop\n      pop\n        /* \"#utility.yul\":11315:12410   */\n      swap3\n      swap2\n      pop\n      pop\n      jump\t// out\n        /* \"#utility.yul\":12506:13510   */\n    tag_637:\n        /* \"#utility.yul\":12693:12696   */\n      0x00\n        /* \"#utility.yul\":12722:12810   */\n      tag_639\n        /* \"#utility.yul\":12804:12809   */\n      dup3\n        /* \"#utility.yul\":12722:12810   */\n      tag_640\n      jump\t// in\n    tag_639:\n        /* \"#utility.yul\":12826:12946   */\n      tag_641\n        /* \"#utility.yul\":12939:12945   */\n      dup2\n        /* \"#utility.yul\":12934:12937   */\n      dup6\n        /* \"#utility.yul\":12826:12946   */\n      tag_642\n      jump\t// in\n    tag_641:\n        /* \"#utility.yul\":12819:12946   */\n      swap4\n      pop\n        /* \"#utility.yul\":12970:13060   */\n      tag_643\n        /* \"#utility.yul\":13054:13059   */\n      dup4\n        /* \"#utility.yul\":12970:13060   */\n      tag_644\n      jump\t// in\n    tag_643:\n        /* \"#utility.yul\":13083:13090   */\n      dup1\n        /* \"#utility.yul\":13114:13115   */\n      0x00\n        /* \"#utility.yul\":13099:13485   */\n    tag_645:\n        /* \"#utility.yul\":13124:13130   */\n      dup4\n        /* \"#utility.yul\":13121:13122   */\n      dup2\n        /* \"#utility.yul\":13118:13131   */\n      lt\n        /* \"#utility.yul\":13099:13485   */\n      iszero\n      tag_647\n      jumpi\n        /* \"#utility.yul\":13200:13206   */\n      dup2\n        /* \"#utility.yul\":13194:13207   */\n      mload\n        /* \"#utility.yul\":13227:13358   */\n      tag_648\n        /* \"#utility.yul\":13354:13357   */\n      dup9\n        /* \"#utility.yul\":13339:13352   */\n      dup3\n        /* \"#utility.yul\":13227:13358   */\n      tag_598\n      jump\t// in\n    tag_648:\n        /* \"#utility.yul\":13220:13358   */\n      swap8\n      pop\n        /* \"#utility.yul\":13381:13475   */\n      tag_649\n        /* \"#utility.yul\":13468:13474   */\n      dup4\n        /* \"#utility.yul\":13381:13475   */\n      tag_650\n      jump\t// in\n    tag_649:\n        /* \"#utility.yul\":13371:13475   */\n      swap3\n      pop\n        /* \"#utility.yul\":13159:13485   */\n      pop\n        /* \"#utility.yul\":13146:13147   */\n      0x01\n        /* \"#utility.yul\":13143:13144   */\n      dup2\n        /* \"#utility.yul\":13139:13148   */\n      add\n        /* \"#utility.yul\":13134:13148   */\n      swap1\n      pop\n        /* \"#utility.yul\":13099:13485   */\n      jump(tag_645)\n    tag_647:\n        /* \"#utility.yul\":13103:13117   */\n      pop\n        /* \"#utility.yul\":13501:13504   */\n      dup6\n        /* \"#utility.yul\":13494:13504   */\n      swap4\n      pop\n        /* \"#utility.yul\":12698:13510   */\n      pop\n      pop\n      pop\n        /* \"#utility.yul\":12506:13510   */\n      swap3\n      swap2\n      pop\n      pop\n      jump\t// out\n        /* \"#utility.yul\":13516:13615   */\n    tag_651:\n        /* \"#utility.yul\":13587:13608   */\n      tag_653\n        /* \"#utility.yul\":13602:13607   */\n      dup2\n        /* \"#utility.yul\":13587:13608   */\n      tag_654\n      jump\t// in\n    tag_653:\n        /* \"#utility.yul\":13582:13585   */\n      dup3\n        /* \"#utility.yul\":13575:13609   */\n      mstore\n        /* \"#utility.yul\":13516:13615   */\n      pop\n      pop\n      jump\t// out\n        /* \"#utility.yul\":13621:13965   */\n    tag_593:\n        /* \"#utility.yul\":13699:13702   */\n      0x00\n        /* \"#utility.yul\":13727:13766   */\n      tag_656\n        /* \"#utility.yul\":13760:13765   */\n      dup3\n        /* \"#utility.yul\":13727:13766   */\n      tag_657\n      jump\t// in\n    tag_656:\n        /* \"#utility.yul\":13782:13843   */\n      tag_658\n        /* \"#utility.yul\":13836:13842   */\n      dup2\n        /* \"#utility.yul\":13831:13834   */\n      dup6\n        /* \"#utility.yul\":13782:13843   */\n      tag_659\n      jump\t// in\n    tag_658:\n        /* \"#utility.yul\":13775:13843   */\n      swap4\n      pop\n        /* \"#utility.yul\":13852:13904   */\n      tag_660\n        /* \"#utility.yul\":13897:13903   */\n      dup2\n        /* \"#utility.yul\":13892:13895   */\n      dup6\n        /* \"#utility.yul\":13885:13889   */\n      0x20\n        /* \"#utility.yul\":13878:13883   */\n      dup7\n        /* \"#utility.yul\":13874:13890   */\n      add\n        /* \"#utility.yul\":13852:13904   */\n      tag_661\n      jump\t// in\n    tag_660:\n        /* \"#utility.yul\":13929:13958   */\n      tag_662\n        /* \"#utility.yul\":13951:13957   */\n      dup2\n        /* \"#utility.yul\":13929:13958   */\n      tag_663\n      jump\t// in\n    tag_662:\n        /* \"#utility.yul\":13924:13927   */\n      dup5\n        /* \"#utility.yul\":13920:13959   */\n      add\n        /* \"#utility.yul\":13913:13959   */\n      swap2\n      pop\n        /* \"#utility.yul\":13703:13965   */\n      pop\n        /* \"#utility.yul\":13621:13965   */\n      swap3\n      swap2\n      pop\n      pop\n      jump\t// out\n        /* \"#utility.yul\":13971:14348   */\n    tag_664:\n        /* \"#utility.yul\":14077:14080   */\n      0x00\n        /* \"#utility.yul\":14105:14144   */\n      tag_666\n        /* \"#utility.yul\":14138:14143   */\n      dup3\n        /* \"#utility.yul\":14105:14144   */\n      tag_657\n      jump\t// in\n    tag_666:\n        /* \"#utility.yul\":14160:14249   */\n      tag_667\n        /* \"#utility.yul\":14242:14248   */\n      dup2\n        /* \"#utility.yul\":14237:14240   */\n      dup6\n        /* \"#utility.yul\":14160:14249   */\n      tag_668\n      jump\t// in\n    tag_667:\n        /* \"#utility.yul\":14153:14249   */\n      swap4\n      pop\n        /* \"#utility.yul\":14258:14310   */\n      tag_669\n        /* \"#utility.yul\":14303:14309   */\n      dup2\n        /* \"#utility.yul\":14298:14301   */\n      dup6\n        /* \"#utility.yul\":14291:14295   */\n      0x20\n        /* \"#utility.yul\":14284:14289   */\n      dup7\n        /* \"#utility.yul\":14280:14296   */\n      add\n        /* \"#utility.yul\":14258:14310   */\n      tag_661\n      jump\t// in\n    tag_669:\n        /* \"#utility.yul\":14335:14341   */\n      dup1\n        /* \"#utility.yul\":14330:14333   */\n      dup5\n        /* \"#utility.yul\":14326:14342   */\n      add\n        /* \"#utility.yul\":14319:14342   */\n      swap2\n      pop\n        /* \"#utility.yul\":14081:14348   */\n      pop\n        /* \"#utility.yul\":13971:14348   */\n      swap3\n      swap2\n      pop\n      pop\n      jump\t// out\n        /* \"#utility.yul\":14354:14720   */\n    tag_670:\n        /* \"#utility.yul\":14496:14499   */\n      0x00\n        /* \"#utility.yul\":14517:14584   */\n      tag_672\n        /* \"#utility.yul\":14581:14583   */\n      0x26\n        /* \"#utility.yul\":14576:14579   */\n      dup4\n        /* \"#utility.yul\":14517:14584   */\n      tag_673\n      jump\t// in\n    tag_672:\n        /* \"#utility.yul\":14510:14584   */\n      swap2\n      pop\n        /* \"#utility.yul\":14593:14686   */\n      tag_674\n        /* \"#utility.yul\":14682:14685   */\n      dup3\n        /* \"#utility.yul\":14593:14686   */\n      tag_675\n      jump\t// in\n    tag_674:\n        /* \"#utility.yul\":14711:14713   */\n      0x40\n        /* \"#utility.yul\":14706:14709   */\n      dup3\n        /* \"#utility.yul\":14702:14714   */\n      add\n        /* \"#utility.yul\":14695:14714   */\n      swap1\n      pop\n        /* \"#utility.yul\":14354:14720   */\n      swap2\n      swap1\n      pop\n      jump\t// out\n        /* \"#utility.yul\":14726:15092   */\n    tag_676:\n        /* \"#utility.yul\":14868:14871   */\n      0x00\n        /* \"#utility.yul\":14889:14956   */\n      tag_678\n        /* \"#utility.yul\":14953:14955   */\n      0x33\n        /* \"#utility.yul\":14948:14951   */\n      dup4\n        /* \"#utility.yul\":14889:14956   */\n      tag_673\n      jump\t// in\n    tag_678:\n        /* \"#utility.yul\":14882:14956   */\n      swap2\n      pop\n        /* \"#utility.yul\":14965:15058   */\n      tag_679\n        /* \"#utility.yul\":15054:15057   */\n      dup3\n        /* \"#utility.yul\":14965:15058   */\n      tag_680\n      jump\t// in\n    tag_679:\n        /* \"#utility.yul\":15083:15085   */\n      0x40\n        /* \"#utility.yul\":15078:15081   */\n      dup3\n        /* \"#utility.yul\":15074:15086   */\n      add\n        /* \"#utility.yul\":15067:15086   */\n      swap1\n      pop\n        /* \"#utility.yul\":14726:15092   */\n      swap2\n      swap1\n      pop\n      jump\t// out\n        /* \"#utility.yul\":15098:15464   */\n    tag_681:\n        /* \"#utility.yul\":15240:15243   */\n      0x00\n        /* \"#utility.yul\":15261:15328   */\n      tag_683\n        /* \"#utility.yul\":15325:15327   */\n      0x35\n        /* \"#utility.yul\":15320:15323   */\n      dup4\n        /* \"#utility.yul\":15261:15328   */\n      tag_673\n      jump\t// in\n    tag_683:\n        /* \"#utility.yul\":15254:15328   */\n      swap2\n      pop\n        /* \"#utility.yul\":15337:15430   */\n      tag_684\n        /* \"#utility.yul\":15426:15429   */\n      dup3\n        /* \"#utility.yul\":15337:15430   */\n      tag_685\n      jump\t// in\n    tag_684:\n        /* \"#utility.yul\":15455:15457   */\n      0x40\n        /* \"#utility.yul\":15450:15453   */\n      dup3\n        /* \"#utility.yul\":15446:15458   */\n      add\n        /* \"#utility.yul\":15439:15458   */\n      swap1\n      pop\n        /* \"#utility.yul\":15098:15464   */\n      swap2\n      swap1\n      pop\n      jump\t// out\n        /* \"#utility.yul\":15470:15836   */\n    tag_686:\n        /* \"#utility.yul\":15612:15615   */\n      0x00\n        /* \"#utility.yul\":15633:15700   */\n      tag_688\n        /* \"#utility.yul\":15697:15699   */\n      0x13\n        /* \"#utility.yul\":15692:15695   */\n      dup4\n        /* \"#utility.yul\":15633:15700   */\n      tag_673\n      jump\t// in\n    tag_688:\n        /* \"#utility.yul\":15626:15700   */\n      swap2\n      pop\n        /* \"#utility.yul\":15709:15802   */\n      tag_689\n        /* \"#utility.yul\":15798:15801   */\n      dup3\n        /* \"#utility.yul\":15709:15802   */\n      tag_690\n      jump\t// in\n    tag_689:\n        /* \"#utility.yul\":15827:15829   */\n      0x20\n        /* \"#utility.yul\":15822:15825   */\n      dup3\n        /* \"#utility.yul\":15818:15830   */\n      add\n        /* \"#utility.yul\":15811:15830   */\n      swap1\n      pop\n        /* \"#utility.yul\":15470:15836   */\n      swap2\n      swap1\n      pop\n      jump\t// out\n        /* \"#utility.yul\":15842:16208   */\n    tag_691:\n        /* \"#utility.yul\":15984:15987   */\n      0x00\n        /* \"#utility.yul\":16005:16072   */\n      tag_693\n        /* \"#utility.yul\":16069:16071   */\n      0x20\n        /* \"#utility.yul\":16064:16067   */\n      dup4\n        /* \"#utility.yul\":16005:16072   */\n      tag_673\n      jump\t// in\n    tag_693:\n        /* \"#utility.yul\":15998:16072   */\n      swap2\n      pop\n        /* \"#utility.yul\":16081:16174   */\n      tag_694\n        /* \"#utility.yul\":16170:16173   */\n      dup3\n        /* \"#utility.yul\":16081:16174   */\n      tag_695\n      jump\t// in\n    tag_694:\n        /* \"#utility.yul\":16199:16201   */\n      0x20\n        /* \"#utility.yul\":16194:16197   */\n      dup3\n        /* \"#utility.yul\":16190:16202   */\n      add\n        /* \"#utility.yul\":16183:16202   */\n      swap1\n      pop\n        /* \"#utility.yul\":15842:16208   */\n      swap2\n      swap1\n      pop\n      jump\t// out\n        /* \"#utility.yul\":16214:16612   */\n    tag_696:\n        /* \"#utility.yul\":16373:16376   */\n      0x00\n        /* \"#utility.yul\":16394:16477   */\n      tag_698\n        /* \"#utility.yul\":16475:16476   */\n      0x00\n        /* \"#utility.yul\":16470:16473   */\n      dup4\n        /* \"#utility.yul\":16394:16477   */\n      tag_699\n      jump\t// in\n    tag_698:\n        /* \"#utility.yul\":16387:16477   */\n      swap2\n      pop\n        /* \"#utility.yul\":16486:16579   */\n      tag_700\n        /* \"#utility.yul\":16575:16578   */\n      dup3\n        /* \"#utility.yul\":16486:16579   */\n      tag_701\n      jump\t// in\n    tag_700:\n        /* \"#utility.yul\":16604:16605   */\n      0x00\n        /* \"#utility.yul\":16599:16602   */\n      dup3\n        /* \"#utility.yul\":16595:16606   */\n      add\n        /* \"#utility.yul\":16588:16606   */\n      swap1\n      pop\n        /* \"#utility.yul\":16214:16612   */\n      swap2\n      swap1\n      pop\n      jump\t// out\n        /* \"#utility.yul\":16618:17018   */\n    tag_702:\n        /* \"#utility.yul\":16778:16781   */\n      0x00\n        /* \"#utility.yul\":16799:16883   */\n      tag_704\n        /* \"#utility.yul\":16881:16882   */\n      0x00\n        /* \"#utility.yul\":16876:16879   */\n      dup4\n        /* \"#utility.yul\":16799:16883   */\n      tag_668\n      jump\t// in\n    tag_704:\n        /* \"#utility.yul\":16792:16883   */\n      swap2\n      pop\n        /* \"#utility.yul\":16892:16985   */\n      tag_705\n        /* \"#utility.yul\":16981:16984   */\n      dup3\n        /* \"#utility.yul\":16892:16985   */\n      tag_701\n      jump\t// in\n    tag_705:\n        /* \"#utility.yul\":17010:17011   */\n      0x00\n        /* \"#utility.yul\":17005:17008   */\n      dup3\n        /* \"#utility.yul\":17001:17012   */\n      add\n        /* \"#utility.yul\":16994:17012   */\n      swap1\n      pop\n        /* \"#utility.yul\":16618:17018   */\n      swap2\n      swap1\n      pop\n      jump\t// out\n        /* \"#utility.yul\":17024:17390   */\n    tag_706:\n        /* \"#utility.yul\":17166:17169   */\n      0x00\n        /* \"#utility.yul\":17187:17254   */\n      tag_708\n        /* \"#utility.yul\":17251:17253   */\n      0x14\n        /* \"#utility.yul\":17246:17249   */\n      dup4\n        /* \"#utility.yul\":17187:17254   */\n      tag_673\n      jump\t// in\n    tag_708:\n        /* \"#utility.yul\":17180:17254   */\n      swap2\n      pop\n        /* \"#utility.yul\":17263:17356   */\n      tag_709\n        /* \"#utility.yul\":17352:17355   */\n      dup3\n        /* \"#utility.yul\":17263:17356   */\n      tag_710\n      jump\t// in\n    tag_709:\n        /* \"#utility.yul\":17381:17383   */\n      0x20\n        /* \"#utility.yul\":17376:17379   */\n      dup3\n        /* \"#utility.yul\":17372:17384   */\n      add\n        /* \"#utility.yul\":17365:17384   */\n      swap1\n      pop\n        /* \"#utility.yul\":17024:17390   */\n      swap2\n      swap1\n      pop\n      jump\t// out\n        /* \"#utility.yul\":17460:19188   */\n    tag_597:\n        /* \"#utility.yul\":17565:17568   */\n      0x00\n        /* \"#utility.yul\":17601:17605   */\n      0xe0\n        /* \"#utility.yul\":17596:17599   */\n      dup4\n        /* \"#utility.yul\":17592:17606   */\n      add\n        /* \"#utility.yul\":17686:17690   */\n      0x00\n        /* \"#utility.yul\":17679:17684   */\n      dup4\n        /* \"#utility.yul\":17675:17691   */\n      add\n        /* \"#utility.yul\":17669:17692   */\n      mload\n        /* \"#utility.yul\":17705:17768   */\n      tag_712\n        /* \"#utility.yul\":17762:17766   */\n      0x00\n        /* \"#utility.yul\":17757:17760   */\n      dup7\n        /* \"#utility.yul\":17753:17767   */\n      add\n        /* \"#utility.yul\":17739:17751   */\n      dup3\n        /* \"#utility.yul\":17705:17768   */\n      tag_713\n      jump\t// in\n    tag_712:\n        /* \"#utility.yul\":17616:17778   */\n      pop\n        /* \"#utility.yul\":17861:17865   */\n      0x20\n        /* \"#utility.yul\":17854:17859   */\n      dup4\n        /* \"#utility.yul\":17850:17866   */\n      add\n        /* \"#utility.yul\":17844:17867   */\n      mload\n        /* \"#utility.yul\":17880:17943   */\n      tag_714\n        /* \"#utility.yul\":17937:17941   */\n      0x20\n        /* \"#utility.yul\":17932:17935   */\n      dup7\n        /* \"#utility.yul\":17928:17942   */\n      add\n        /* \"#utility.yul\":17914:17926   */\n      dup3\n        /* \"#utility.yul\":17880:17943   */\n      tag_602\n      jump\t// in\n    tag_714:\n        /* \"#utility.yul\":17788:17953   */\n      pop\n        /* \"#utility.yul\":18035:18039   */\n      0x40\n        /* \"#utility.yul\":18028:18033   */\n      dup4\n        /* \"#utility.yul\":18024:18040   */\n      add\n        /* \"#utility.yul\":18018:18041   */\n      mload\n        /* \"#utility.yul\":18088:18091   */\n      dup5\n        /* \"#utility.yul\":18082:18086   */\n      dup3\n        /* \"#utility.yul\":18078:18092   */\n      sub\n        /* \"#utility.yul\":18071:18075   */\n      0x40\n        /* \"#utility.yul\":18066:18069   */\n      dup7\n        /* \"#utility.yul\":18062:18076   */\n      add\n        /* \"#utility.yul\":18055:18093   */\n      mstore\n        /* \"#utility.yul\":18114:18187   */\n      tag_715\n        /* \"#utility.yul\":18182:18186   */\n      dup3\n        /* \"#utility.yul\":18168:18180   */\n      dup3\n        /* \"#utility.yul\":18114:18187   */\n      tag_593\n      jump\t// in\n    tag_715:\n        /* \"#utility.yul\":18106:18187   */\n      swap2\n      pop\n        /* \"#utility.yul\":17963:18198   */\n      pop\n        /* \"#utility.yul\":18287:18291   */\n      0x60\n        /* \"#utility.yul\":18280:18285   */\n      dup4\n        /* \"#utility.yul\":18276:18292   */\n      add\n        /* \"#utility.yul\":18270:18293   */\n      mload\n        /* \"#utility.yul\":18340:18343   */\n      dup5\n        /* \"#utility.yul\":18334:18338   */\n      dup3\n        /* \"#utility.yul\":18330:18344   */\n      sub\n        /* \"#utility.yul\":18323:18327   */\n      0x60\n        /* \"#utility.yul\":18318:18321   */\n      dup7\n        /* \"#utility.yul\":18314:18328   */\n      add\n        /* \"#utility.yul\":18307:18345   */\n      mstore\n        /* \"#utility.yul\":18366:18439   */\n      tag_716\n        /* \"#utility.yul\":18434:18438   */\n      dup3\n        /* \"#utility.yul\":18420:18432   */\n      dup3\n        /* \"#utility.yul\":18366:18439   */\n      tag_593\n      jump\t// in\n    tag_716:\n        /* \"#utility.yul\":18358:18439   */\n      swap2\n      pop\n        /* \"#utility.yul\":18208:18450   */\n      pop\n        /* \"#utility.yul\":18532:18536   */\n      0x80\n        /* \"#utility.yul\":18525:18530   */\n      dup4\n        /* \"#utility.yul\":18521:18537   */\n      add\n        /* \"#utility.yul\":18515:18538   */\n      mload\n        /* \"#utility.yul\":18585:18588   */\n      dup5\n        /* \"#utility.yul\":18579:18583   */\n      dup3\n        /* \"#utility.yul\":18575:18589   */\n      sub\n        /* \"#utility.yul\":18568:18572   */\n      0x80\n        /* \"#utility.yul\":18563:18566   */\n      dup7\n        /* \"#utility.yul\":18559:18573   */\n      add\n        /* \"#utility.yul\":18552:18590   */\n      mstore\n        /* \"#utility.yul\":18611:18684   */\n      tag_717\n        /* \"#utility.yul\":18679:18683   */\n      dup3\n        /* \"#utility.yul\":18665:18677   */\n      dup3\n        /* \"#utility.yul\":18611:18684   */\n      tag_593\n      jump\t// in\n    tag_717:\n        /* \"#utility.yul\":18603:18684   */\n      swap2\n      pop\n        /* \"#utility.yul\":18460:18695   */\n      pop\n        /* \"#utility.yul\":18777:18781   */\n      0xa0\n        /* \"#utility.yul\":18770:18775   */\n      dup4\n        /* \"#utility.yul\":18766:18782   */\n      add\n        /* \"#utility.yul\":18760:18783   */\n      mload\n        /* \"#utility.yul\":18830:18833   */\n      dup5\n        /* \"#utility.yul\":18824:18828   */\n      dup3\n        /* \"#utility.yul\":18820:18834   */\n      sub\n        /* \"#utility.yul\":18813:18817   */\n      0xa0\n        /* \"#utility.yul\":18808:18811   */\n      dup7\n        /* \"#utility.yul\":18804:18818   */\n      add\n        /* \"#utility.yul\":18797:18835   */\n      mstore\n        /* \"#utility.yul\":18856:18979   */\n      tag_718\n        /* \"#utility.yul\":18974:18978   */\n      dup3\n        /* \"#utility.yul\":18960:18972   */\n      dup3\n        /* \"#utility.yul\":18856:18979   */\n      tag_609\n      jump\t// in\n    tag_718:\n        /* \"#utility.yul\":18848:18979   */\n      swap2\n      pop\n        /* \"#utility.yul\":18705:18990   */\n      pop\n        /* \"#utility.yul\":19075:19079   */\n      0xc0\n        /* \"#utility.yul\":19068:19073   */\n      dup4\n        /* \"#utility.yul\":19064:19080   */\n      add\n        /* \"#utility.yul\":19058:19081   */\n      mload\n        /* \"#utility.yul\":19094:19151   */\n      tag_719\n        /* \"#utility.yul\":19145:19149   */\n      0xc0\n        /* \"#utility.yul\":19140:19143   */\n      dup7\n        /* \"#utility.yul\":19136:19150   */\n      add\n        /* \"#utility.yul\":19122:19134   */\n      dup3\n        /* \"#utility.yul\":19094:19151   */\n      tag_651\n      jump\t// in\n    tag_719:\n        /* \"#utility.yul\":19000:19161   */\n      pop\n        /* \"#utility.yul\":19178:19182   */\n      dup1\n        /* \"#utility.yul\":19171:19182   */\n      swap2\n      pop\n        /* \"#utility.yul\":17570:19188   */\n      pop\n        /* \"#utility.yul\":17460:19188   */\n      swap3\n      swap2\n      pop\n      pop\n      jump\t// out\n        /* \"#utility.yul\":19274:20151   */\n    tag_720:\n        /* \"#utility.yul\":19433:19437   */\n      0x80\n        /* \"#utility.yul\":19428:19431   */\n      dup3\n        /* \"#utility.yul\":19424:19438   */\n      add\n        /* \"#utility.yul\":19521:19525   */\n      0x00\n        /* \"#utility.yul\":19514:19519   */\n      dup3\n        /* \"#utility.yul\":19510:19526   */\n      add\n        /* \"#utility.yul\":19504:19527   */\n      mload\n        /* \"#utility.yul\":19540:19603   */\n      tag_722\n        /* \"#utility.yul\":19597:19601   */\n      0x00\n        /* \"#utility.yul\":19592:19595   */\n      dup6\n        /* \"#utility.yul\":19588:19602   */\n      add\n        /* \"#utility.yul\":19574:19586   */\n      dup3\n        /* \"#utility.yul\":19540:19603   */\n      tag_713\n      jump\t// in\n    tag_722:\n        /* \"#utility.yul\":19448:19613   */\n      pop\n        /* \"#utility.yul\":19695:19699   */\n      0x20\n        /* \"#utility.yul\":19688:19693   */\n      dup3\n        /* \"#utility.yul\":19684:19700   */\n      add\n        /* \"#utility.yul\":19678:19701   */\n      mload\n        /* \"#utility.yul\":19714:19777   */\n      tag_723\n        /* \"#utility.yul\":19771:19775   */\n      0x20\n        /* \"#utility.yul\":19766:19769   */\n      dup6\n        /* \"#utility.yul\":19762:19776   */\n      add\n        /* \"#utility.yul\":19748:19760   */\n      dup3\n        /* \"#utility.yul\":19714:19777   */\n      tag_713\n      jump\t// in\n    tag_723:\n        /* \"#utility.yul\":19623:19787   */\n      pop\n        /* \"#utility.yul\":19873:19877   */\n      0x40\n        /* \"#utility.yul\":19866:19871   */\n      dup3\n        /* \"#utility.yul\":19862:19878   */\n      add\n        /* \"#utility.yul\":19856:19879   */\n      mload\n        /* \"#utility.yul\":19892:19955   */\n      tag_724\n        /* \"#utility.yul\":19949:19953   */\n      0x40\n        /* \"#utility.yul\":19944:19947   */\n      dup6\n        /* \"#utility.yul\":19940:19954   */\n      add\n        /* \"#utility.yul\":19926:19938   */\n      dup3\n        /* \"#utility.yul\":19892:19955   */\n      tag_713\n      jump\t// in\n    tag_724:\n        /* \"#utility.yul\":19797:19965   */\n      pop\n        /* \"#utility.yul\":20052:20056   */\n      0x60\n        /* \"#utility.yul\":20045:20050   */\n      dup3\n        /* \"#utility.yul\":20041:20057   */\n      add\n        /* \"#utility.yul\":20035:20058   */\n      mload\n        /* \"#utility.yul\":20071:20134   */\n      tag_725\n        /* \"#utility.yul\":20128:20132   */\n      0x60\n        /* \"#utility.yul\":20123:20126   */\n      dup6\n        /* \"#utility.yul\":20119:20133   */\n      add\n        /* \"#utility.yul\":20105:20117   */\n      dup3\n        /* \"#utility.yul\":20071:20134   */\n      tag_713\n      jump\t// in\n    tag_725:\n        /* \"#utility.yul\":19975:20144   */\n      pop\n        /* \"#utility.yul\":19402:20151   */\n      pop\n        /* \"#utility.yul\":19274:20151   */\n      pop\n      pop\n      jump\t// out\n        /* \"#utility.yul\":20243:21288   */\n    tag_601:\n        /* \"#utility.yul\":20398:20402   */\n      0xa0\n        /* \"#utility.yul\":20393:20396   */\n      dup3\n        /* \"#utility.yul\":20389:20403   */\n      add\n        /* \"#utility.yul\":20486:20490   */\n      0x00\n        /* \"#utility.yul\":20479:20484   */\n      dup3\n        /* \"#utility.yul\":20475:20491   */\n      add\n        /* \"#utility.yul\":20469:20492   */\n      mload\n        /* \"#utility.yul\":20505:20568   */\n      tag_727\n        /* \"#utility.yul\":20562:20566   */\n      0x00\n        /* \"#utility.yul\":20557:20560   */\n      dup6\n        /* \"#utility.yul\":20553:20567   */\n      add\n        /* \"#utility.yul\":20539:20551   */\n      dup3\n        /* \"#utility.yul\":20505:20568   */\n      tag_713\n      jump\t// in\n    tag_727:\n        /* \"#utility.yul\":20413:20578   */\n      pop\n        /* \"#utility.yul\":20660:20664   */\n      0x20\n        /* \"#utility.yul\":20653:20658   */\n      dup3\n        /* \"#utility.yul\":20649:20665   */\n      add\n        /* \"#utility.yul\":20643:20666   */\n      mload\n        /* \"#utility.yul\":20679:20742   */\n      tag_728\n        /* \"#utility.yul\":20736:20740   */\n      0x20\n        /* \"#utility.yul\":20731:20734   */\n      dup6\n        /* \"#utility.yul\":20727:20741   */\n      add\n        /* \"#utility.yul\":20713:20725   */\n      dup3\n        /* \"#utility.yul\":20679:20742   */\n      tag_713\n      jump\t// in\n    tag_728:\n        /* \"#utility.yul\":20588:20752   */\n      pop\n        /* \"#utility.yul\":20838:20842   */\n      0x40\n        /* \"#utility.yul\":20831:20836   */\n      dup3\n        /* \"#utility.yul\":20827:20843   */\n      add\n        /* \"#utility.yul\":20821:20844   */\n      mload\n        /* \"#utility.yul\":20857:20920   */\n      tag_729\n        /* \"#utility.yul\":20914:20918   */\n      0x40\n        /* \"#utility.yul\":20909:20912   */\n      dup6\n        /* \"#utility.yul\":20905:20919   */\n      add\n        /* \"#utility.yul\":20891:20903   */\n      dup3\n        /* \"#utility.yul\":20857:20920   */\n      tag_713\n      jump\t// in\n    tag_729:\n        /* \"#utility.yul\":20762:20930   */\n      pop\n        /* \"#utility.yul\":21014:21018   */\n      0x60\n        /* \"#utility.yul\":21007:21012   */\n      dup3\n        /* \"#utility.yul\":21003:21019   */\n      add\n        /* \"#utility.yul\":20997:21020   */\n      mload\n        /* \"#utility.yul\":21033:21096   */\n      tag_730\n        /* \"#utility.yul\":21090:21094   */\n      0x60\n        /* \"#utility.yul\":21085:21088   */\n      dup6\n        /* \"#utility.yul\":21081:21095   */\n      add\n        /* \"#utility.yul\":21067:21079   */\n      dup3\n        /* \"#utility.yul\":21033:21096   */\n      tag_602\n      jump\t// in\n    tag_730:\n        /* \"#utility.yul\":20940:21106   */\n      pop\n        /* \"#utility.yul\":21189:21193   */\n      0x80\n        /* \"#utility.yul\":21182:21187   */\n      dup3\n        /* \"#utility.yul\":21178:21194   */\n      add\n        /* \"#utility.yul\":21172:21195   */\n      mload\n        /* \"#utility.yul\":21208:21271   */\n      tag_731\n        /* \"#utility.yul\":21265:21269   */\n      0x80\n        /* \"#utility.yul\":21260:21263   */\n      dup6\n        /* \"#utility.yul\":21256:21270   */\n      add\n        /* \"#utility.yul\":21242:21254   */\n      dup3\n        /* \"#utility.yul\":21208:21271   */\n      tag_602\n      jump\t// in\n    tag_731:\n        /* \"#utility.yul\":21116:21281   */\n      pop\n        /* \"#utility.yul\":20367:21288   */\n      pop\n        /* \"#utility.yul\":20243:21288   */\n      pop\n      pop\n      jump\t// out\n        /* \"#utility.yul\":21294:21402   */\n    tag_713:\n        /* \"#utility.yul\":21371:21395   */\n      tag_733\n        /* \"#utility.yul\":21389:21394   */\n      dup2\n        /* \"#utility.yul\":21371:21395   */\n      tag_734\n      jump\t// in\n    tag_733:\n        /* \"#utility.yul\":21366:21369   */\n      dup3\n        /* \"#utility.yul\":21359:21396   */\n      mstore\n        /* \"#utility.yul\":21294:21402   */\n      pop\n      pop\n      jump\t// out\n        /* \"#utility.yul\":21408:21526   */\n    tag_735:\n        /* \"#utility.yul\":21495:21519   */\n      tag_737\n        /* \"#utility.yul\":21513:21518   */\n      dup2\n        /* \"#utility.yul\":21495:21519   */\n      tag_734\n      jump\t// in\n    tag_737:\n        /* \"#utility.yul\":21490:21493   */\n      dup3\n        /* \"#utility.yul\":21483:21520   */\n      mstore\n        /* \"#utility.yul\":21408:21526   */\n      pop\n      pop\n      jump\t// out\n        /* \"#utility.yul\":21532:21807   */\n    tag_243:\n        /* \"#utility.yul\":21664:21667   */\n      0x00\n        /* \"#utility.yul\":21686:21781   */\n      tag_739\n        /* \"#utility.yul\":21777:21780   */\n      dup3\n        /* \"#utility.yul\":21768:21774   */\n      dup5\n        /* \"#utility.yul\":21686:21781   */\n      tag_664\n      jump\t// in\n    tag_739:\n        /* \"#utility.yul\":21679:21781   */\n      swap2\n      pop\n        /* \"#utility.yul\":21798:21801   */\n      dup2\n        /* \"#utility.yul\":21791:21801   */\n      swap1\n      pop\n        /* \"#utility.yul\":21532:21807   */\n      swap3\n      swap2\n      pop\n      pop\n      jump\t// out\n        /* \"#utility.yul\":21813:22192   */\n    tag_334:\n        /* \"#utility.yul\":21997:22000   */\n      0x00\n        /* \"#utility.yul\":22019:22166   */\n      tag_741\n        /* \"#utility.yul\":22162:22165   */\n      dup3\n        /* \"#utility.yul\":22019:22166   */\n      tag_696\n      jump\t// in\n    tag_741:\n        /* \"#utility.yul\":22012:22166   */\n      swap2\n      pop\n        /* \"#utility.yul\":22183:22186   */\n      dup2\n        /* \"#utility.yul\":22176:22186   */\n      swap1\n      pop\n        /* \"#utility.yul\":21813:22192   */\n      swap2\n      swap1\n      pop\n      jump\t// out\n        /* \"#utility.yul\":22198:22579   */\n    tag_245:\n        /* \"#utility.yul\":22383:22386   */\n      0x00\n        /* \"#utility.yul\":22405:22553   */\n      tag_743\n        /* \"#utility.yul\":22549:22552   */\n      dup3\n        /* \"#utility.yul\":22405:22553   */\n      tag_702\n      jump\t// in\n    tag_743:\n        /* \"#utility.yul\":22398:22553   */\n      swap2\n      pop\n        /* \"#utility.yul\":22570:22573   */\n      dup2\n        /* \"#utility.yul\":22563:22573   */\n      swap1\n      pop\n        /* \"#utility.yul\":22198:22579   */\n      swap2\n      swap1\n      pop\n      jump\t// out\n        /* \"#utility.yul\":22585:22807   */\n    tag_39:\n        /* \"#utility.yul\":22678:22682   */\n      0x00\n        /* \"#utility.yul\":22716:22718   */\n      0x20\n        /* \"#utility.yul\":22705:22714   */\n      dup3\n        /* \"#utility.yul\":22701:22719   */\n      add\n        /* \"#utility.yul\":22693:22719   */\n      swap1\n      pop\n        /* \"#utility.yul\":22729:22800   */\n      tag_745\n        /* \"#utility.yul\":22797:22798   */\n      0x00\n        /* \"#utility.yul\":22786:22795   */\n      dup4\n        /* \"#utility.yul\":22782:22799   */\n      add\n        /* \"#utility.yul\":22773:22779   */\n      dup5\n        /* \"#utility.yul\":22729:22800   */\n      tag_606\n      jump\t// in\n    tag_745:\n        /* \"#utility.yul\":22585:22807   */\n      swap3\n      swap2\n      pop\n      pop\n      jump\t// out\n        /* \"#utility.yul\":22813:23322   */\n    tag_104:\n        /* \"#utility.yul\":23024:23028   */\n      0x00\n        /* \"#utility.yul\":23062:23064   */\n      0x20\n        /* \"#utility.yul\":23051:23060   */\n      dup3\n        /* \"#utility.yul\":23047:23065   */\n      add\n        /* \"#utility.yul\":23039:23065   */\n      swap1\n      pop\n        /* \"#utility.yul\":23111:23120   */\n      dup2\n        /* \"#utility.yul\":23105:23109   */\n      dup2\n        /* \"#utility.yul\":23101:23121   */\n      sub\n        /* \"#utility.yul\":23097:23098   */\n      0x00\n        /* \"#utility.yul\":23086:23095   */\n      dup4\n        /* \"#utility.yul\":23082:23099   */\n      add\n        /* \"#utility.yul\":23075:23122   */\n      mstore\n        /* \"#utility.yul\":23139:23315   */\n      tag_747\n        /* \"#utility.yul\":23310:23314   */\n      dup2\n        /* \"#utility.yul\":23301:23307   */\n      dup5\n        /* \"#utility.yul\":23139:23315   */\n      tag_637\n      jump\t// in\n    tag_747:\n        /* \"#utility.yul\":23131:23315   */\n      swap1\n      pop\n        /* \"#utility.yul\":22813:23322   */\n      swap3\n      swap2\n      pop\n      pop\n      jump\t// out\n        /* \"#utility.yul\":23328:23747   */\n    tag_412:\n        /* \"#utility.yul\":23494:23498   */\n      0x00\n        /* \"#utility.yul\":23532:23534   */\n      0x20\n        /* \"#utility.yul\":23521:23530   */\n      dup3\n        /* \"#utility.yul\":23517:23535   */\n      add\n        /* \"#utility.yul\":23509:23535   */\n      swap1\n      pop\n        /* \"#utility.yul\":23581:23590   */\n      dup2\n        /* \"#utility.yul\":23575:23579   */\n      dup2\n        /* \"#utility.yul\":23571:23591   */\n      sub\n        /* \"#utility.yul\":23567:23568   */\n      0x00\n        /* \"#utility.yul\":23556:23565   */\n      dup4\n        /* \"#utility.yul\":23552:23569   */\n      add\n        /* \"#utility.yul\":23545:23592   */\n      mstore\n        /* \"#utility.yul\":23609:23740   */\n      tag_749\n        /* \"#utility.yul\":23735:23739   */\n      dup2\n        /* \"#utility.yul\":23609:23740   */\n      tag_670\n      jump\t// in\n    tag_749:\n        /* \"#utility.yul\":23601:23740   */\n      swap1\n      pop\n        /* \"#utility.yul\":23328:23747   */\n      swap2\n      swap1\n      pop\n      jump\t// out\n        /* \"#utility.yul\":23753:24172   */\n    tag_351:\n        /* \"#utility.yul\":23919:23923   */\n      0x00\n        /* \"#utility.yul\":23957:23959   */\n      0x20\n        /* \"#utility.yul\":23946:23955   */\n      dup3\n        /* \"#utility.yul\":23942:23960   */\n      add\n        /* \"#utility.yul\":23934:23960   */\n      swap1\n      pop\n        /* \"#utility.yul\":24006:24015   */\n      dup2\n        /* \"#utility.yul\":24000:24004   */\n      dup2\n        /* \"#utility.yul\":23996:24016   */\n      sub\n        /* \"#utility.yul\":23992:23993   */\n      0x00\n        /* \"#utility.yul\":23981:23990   */\n      dup4\n        /* \"#utility.yul\":23977:23994   */\n      add\n        /* \"#utility.yul\":23970:24017   */\n      mstore\n        /* \"#utility.yul\":24034:24165   */\n      tag_751\n        /* \"#utility.yul\":24160:24164   */\n      dup2\n        /* \"#utility.yul\":24034:24165   */\n      tag_676\n      jump\t// in\n    tag_751:\n        /* \"#utility.yul\":24026:24165   */\n      swap1\n      pop\n        /* \"#utility.yul\":23753:24172   */\n      swap2\n      swap1\n      pop\n      jump\t// out\n        /* \"#utility.yul\":24178:24597   */\n    tag_326:\n        /* \"#utility.yul\":24344:24348   */\n      0x00\n        /* \"#utility.yul\":24382:24384   */\n      0x20\n        /* \"#utility.yul\":24371:24380   */\n      dup3\n        /* \"#utility.yul\":24367:24385   */\n      add\n        /* \"#utility.yul\":24359:24385   */\n      swap1\n      pop\n        /* \"#utility.yul\":24431:24440   */\n      dup2\n        /* \"#utility.yul\":24425:24429   */\n      dup2\n        /* \"#utility.yul\":24421:24441   */\n      sub\n        /* \"#utility.yul\":24417:24418   */\n      0x00\n        /* \"#utility.yul\":24406:24415   */\n      dup4\n        /* \"#utility.yul\":24402:24419   */\n      add\n        /* \"#utility.yul\":24395:24442   */\n      mstore\n        /* \"#utility.yul\":24459:24590   */\n      tag_753\n        /* \"#utility.yul\":24585:24589   */\n      dup2\n        /* \"#utility.yul\":24459:24590   */\n      tag_681\n      jump\t// in\n    tag_753:\n        /* \"#utility.yul\":24451:24590   */\n      swap1\n      pop\n        /* \"#utility.yul\":24178:24597   */\n      swap2\n      swap1\n      pop\n      jump\t// out\n        /* \"#utility.yul\":24603:25022   */\n    tag_340:\n        /* \"#utility.yul\":24769:24773   */\n      0x00\n        /* \"#utility.yul\":24807:24809   */\n      0x20\n        /* \"#utility.yul\":24796:24805   */\n      dup3\n        /* \"#utility.yul\":24792:24810   */\n      add\n        /* \"#utility.yul\":24784:24810   */\n      swap1\n      pop\n        /* \"#utility.yul\":24856:24865   */\n      dup2\n        /* \"#utility.yul\":24850:24854   */\n      dup2\n        /* \"#utility.yul\":24846:24866   */\n      sub\n        /* \"#utility.yul\":24842:24843   */\n      0x00\n        /* \"#utility.yul\":24831:24840   */\n      dup4\n        /* \"#utility.yul\":24827:24844   */\n      add\n        /* \"#utility.yul\":24820:24867   */\n      mstore\n        /* \"#utility.yul\":24884:25015   */\n      tag_755\n        /* \"#utility.yul\":25010:25014   */\n      dup2\n        /* \"#utility.yul\":24884:25015   */\n      tag_686\n      jump\t// in\n    tag_755:\n        /* \"#utility.yul\":24876:25015   */\n      swap1\n      pop\n        /* \"#utility.yul\":24603:25022   */\n      swap2\n      swap1\n      pop\n      jump\t// out\n        /* \"#utility.yul\":25028:25447   */\n    tag_223:\n        /* \"#utility.yul\":25194:25198   */\n      0x00\n        /* \"#utility.yul\":25232:25234   */\n      0x20\n        /* \"#utility.yul\":25221:25230   */\n      dup3\n        /* \"#utility.yul\":25217:25235   */\n      add\n        /* \"#utility.yul\":25209:25235   */\n      swap1\n      pop\n        /* \"#utility.yul\":25281:25290   */\n      dup2\n        /* \"#utility.yul\":25275:25279   */\n      dup2\n        /* \"#utility.yul\":25271:25291   */\n      sub\n        /* \"#utility.yul\":25267:25268   */\n      0x00\n        /* \"#utility.yul\":25256:25265   */\n      dup4\n        /* \"#utility.yul\":25252:25269   */\n      add\n        /* \"#utility.yul\":25245:25292   */\n      mstore\n        /* \"#utility.yul\":25309:25440   */\n      tag_757\n        /* \"#utility.yul\":25435:25439   */\n      dup2\n        /* \"#utility.yul\":25309:25440   */\n      tag_691\n      jump\t// in\n    tag_757:\n        /* \"#utility.yul\":25301:25440   */\n      swap1\n      pop\n        /* \"#utility.yul\":25028:25447   */\n      swap2\n      swap1\n      pop\n      jump\t// out\n        /* \"#utility.yul\":25453:25872   */\n    tag_332:\n        /* \"#utility.yul\":25619:25623   */\n      0x00\n        /* \"#utility.yul\":25657:25659   */\n      0x20\n        /* \"#utility.yul\":25646:25655   */\n      dup3\n        /* \"#utility.yul\":25642:25660   */\n      add\n        /* \"#utility.yul\":25634:25660   */\n      swap1\n      pop\n        /* \"#utility.yul\":25706:25715   */\n      dup2\n        /* \"#utility.yul\":25700:25704   */\n      dup2\n        /* \"#utility.yul\":25696:25716   */\n      sub\n        /* \"#utility.yul\":25692:25693   */\n      0x00\n        /* \"#utility.yul\":25681:25690   */\n      dup4\n        /* \"#utility.yul\":25677:25694   */\n      add\n        /* \"#utility.yul\":25670:25717   */\n      mstore\n        /* \"#utility.yul\":25734:25865   */\n      tag_759\n        /* \"#utility.yul\":25860:25864   */\n      dup2\n        /* \"#utility.yul\":25734:25865   */\n      tag_706\n      jump\t// in\n    tag_759:\n        /* \"#utility.yul\":25726:25865   */\n      swap1\n      pop\n        /* \"#utility.yul\":25453:25872   */\n      swap2\n      swap1\n      pop\n      jump\t// out\n        /* \"#utility.yul\":25878:26225   */\n    tag_84:\n        /* \"#utility.yul\":26033:26037   */\n      0x00\n        /* \"#utility.yul\":26071:26074   */\n      0x80\n        /* \"#utility.yul\":26060:26069   */\n      dup3\n        /* \"#utility.yul\":26056:26075   */\n      add\n        /* \"#utility.yul\":26048:26075   */\n      swap1\n      pop\n        /* \"#utility.yul\":26085:26218   */\n      tag_761\n        /* \"#utility.yul\":26215:26216   */\n      0x00\n        /* \"#utility.yul\":26204:26213   */\n      dup4\n        /* \"#utility.yul\":26200:26217   */\n      add\n        /* \"#utility.yul\":26191:26197   */\n      dup5\n        /* \"#utility.yul\":26085:26218   */\n      tag_720\n      jump\t// in\n    tag_761:\n        /* \"#utility.yul\":25878:26225   */\n      swap3\n      swap2\n      pop\n      pop\n      jump\t// out\n        /* \"#utility.yul\":26231:26806   */\n    tag_52:\n        /* \"#utility.yul\":26448:26452   */\n      0x00\n        /* \"#utility.yul\":26486:26488   */\n      0x40\n        /* \"#utility.yul\":26475:26484   */\n      dup3\n        /* \"#utility.yul\":26471:26489   */\n      add\n        /* \"#utility.yul\":26463:26489   */\n      swap1\n      pop\n        /* \"#utility.yul\":26499:26570   */\n      tag_763\n        /* \"#utility.yul\":26567:26568   */\n      0x00\n        /* \"#utility.yul\":26556:26565   */\n      dup4\n        /* \"#utility.yul\":26552:26569   */\n      add\n        /* \"#utility.yul\":26543:26549   */\n      dup6\n        /* \"#utility.yul\":26499:26570   */\n      tag_735\n      jump\t// in\n    tag_763:\n        /* \"#utility.yul\":26617:26626   */\n      dup2\n        /* \"#utility.yul\":26611:26615   */\n      dup2\n        /* \"#utility.yul\":26607:26627   */\n      sub\n        /* \"#utility.yul\":26602:26604   */\n      0x20\n        /* \"#utility.yul\":26591:26600   */\n      dup4\n        /* \"#utility.yul\":26587:26605   */\n      add\n        /* \"#utility.yul\":26580:26628   */\n      mstore\n        /* \"#utility.yul\":26645:26799   */\n      tag_764\n        /* \"#utility.yul\":26794:26798   */\n      dup2\n        /* \"#utility.yul\":26785:26791   */\n      dup5\n        /* \"#utility.yul\":26645:26799   */\n      tag_623\n      jump\t// in\n    tag_764:\n        /* \"#utility.yul\":26637:26799   */\n      swap1\n      pop\n        /* \"#utility.yul\":26231:26806   */\n      swap4\n      swap3\n      pop\n      pop\n      pop\n      jump\t// out\n        /* \"#utility.yul\":26812:27476   */\n    tag_46:\n        /* \"#utility.yul\":27017:27021   */\n      0x00\n        /* \"#utility.yul\":27055:27058   */\n      0xa0\n        /* \"#utility.yul\":27044:27053   */\n      dup3\n        /* \"#utility.yul\":27040:27059   */\n      add\n        /* \"#utility.yul\":27032:27059   */\n      swap1\n      pop\n        /* \"#utility.yul\":27069:27140   */\n      tag_766\n        /* \"#utility.yul\":27137:27138   */\n      0x00\n        /* \"#utility.yul\":27126:27135   */\n      dup4\n        /* \"#utility.yul\":27122:27139   */\n      add\n        /* \"#utility.yul\":27113:27119   */\n      dup9\n        /* \"#utility.yul\":27069:27140   */\n      tag_735\n      jump\t// in\n    tag_766:\n        /* \"#utility.yul\":27150:27222   */\n      tag_767\n        /* \"#utility.yul\":27218:27220   */\n      0x20\n        /* \"#utility.yul\":27207:27216   */\n      dup4\n        /* \"#utility.yul\":27203:27221   */\n      add\n        /* \"#utility.yul\":27194:27200   */\n      dup8\n        /* \"#utility.yul\":27150:27222   */\n      tag_735\n      jump\t// in\n    tag_767:\n        /* \"#utility.yul\":27232:27304   */\n      tag_768\n        /* \"#utility.yul\":27300:27302   */\n      0x40\n        /* \"#utility.yul\":27289:27298   */\n      dup4\n        /* \"#utility.yul\":27285:27303   */\n      add\n        /* \"#utility.yul\":27276:27282   */\n      dup7\n        /* \"#utility.yul\":27232:27304   */\n      tag_735\n      jump\t// in\n    tag_768:\n        /* \"#utility.yul\":27314:27386   */\n      tag_769\n        /* \"#utility.yul\":27382:27384   */\n      0x60\n        /* \"#utility.yul\":27371:27380   */\n      dup4\n        /* \"#utility.yul\":27367:27385   */\n      add\n        /* \"#utility.yul\":27358:27364   */\n      dup6\n        /* \"#utility.yul\":27314:27386   */\n      tag_606\n      jump\t// in\n    tag_769:\n        /* \"#utility.yul\":27396:27469   */\n      tag_770\n        /* \"#utility.yul\":27464:27467   */\n      0x80\n        /* \"#utility.yul\":27453:27462   */\n      dup4\n        /* \"#utility.yul\":27449:27468   */\n      add\n        /* \"#utility.yul\":27440:27446   */\n      dup5\n        /* \"#utility.yul\":27396:27469   */\n      tag_606\n      jump\t// in\n    tag_770:\n        /* \"#utility.yul\":26812:27476   */\n      swap7\n      swap6\n      pop\n      pop\n      pop\n      pop\n      pop\n      pop\n      jump\t// out\n        /* \"#utility.yul\":27482:28035   */\n    tag_32:\n        /* \"#utility.yul\":27659:27663   */\n      0x00\n        /* \"#utility.yul\":27697:27700   */\n      0x80\n        /* \"#utility.yul\":27686:27695   */\n      dup3\n        /* \"#utility.yul\":27682:27701   */\n      add\n        /* \"#utility.yul\":27674:27701   */\n      swap1\n      pop\n        /* \"#utility.yul\":27711:27782   */\n      tag_772\n        /* \"#utility.yul\":27779:27780   */\n      0x00\n        /* \"#utility.yul\":27768:27777   */\n      dup4\n        /* \"#utility.yul\":27764:27781   */\n      add\n        /* \"#utility.yul\":27755:27761   */\n      dup8\n        /* \"#utility.yul\":27711:27782   */\n      tag_735\n      jump\t// in\n    tag_772:\n        /* \"#utility.yul\":27792:27864   */\n      tag_773\n        /* \"#utility.yul\":27860:27862   */\n      0x20\n        /* \"#utility.yul\":27849:27858   */\n      dup4\n        /* \"#utility.yul\":27845:27863   */\n      add\n        /* \"#utility.yul\":27836:27842   */\n      dup7\n        /* \"#utility.yul\":27792:27864   */\n      tag_735\n      jump\t// in\n    tag_773:\n        /* \"#utility.yul\":27874:27946   */\n      tag_774\n        /* \"#utility.yul\":27942:27944   */\n      0x40\n        /* \"#utility.yul\":27931:27940   */\n      dup4\n        /* \"#utility.yul\":27927:27945   */\n      add\n        /* \"#utility.yul\":27918:27924   */\n      dup6\n        /* \"#utility.yul\":27874:27946   */\n      tag_735\n      jump\t// in\n    tag_774:\n        /* \"#utility.yul\":27956:28028   */\n      tag_775\n        /* \"#utility.yul\":28024:28026   */\n      0x60\n        /* \"#utility.yul\":28013:28022   */\n      dup4\n        /* \"#utility.yul\":28009:28027   */\n      add\n        /* \"#utility.yul\":28000:28006   */\n      dup5\n        /* \"#utility.yul\":27956:28028   */\n      tag_735\n      jump\t// in\n    tag_775:\n        /* \"#utility.yul\":27482:28035   */\n      swap6\n      swap5\n      pop\n      pop\n      pop\n      pop\n      pop\n      jump\t// out\n        /* \"#utility.yul\":28041:28170   */\n    tag_482:\n        /* \"#utility.yul\":28075:28081   */\n      0x00\n        /* \"#utility.yul\":28102:28122   */\n      tag_777\n      tag_778\n      jump\t// in\n    tag_777:\n        /* \"#utility.yul\":28092:28122   */\n      swap1\n      pop\n        /* \"#utility.yul\":28131:28164   */\n      tag_779\n        /* \"#utility.yul\":28159:28163   */\n      dup3\n        /* \"#utility.yul\":28151:28157   */\n      dup3\n        /* \"#utility.yul\":28131:28164   */\n      tag_780\n      jump\t// in\n    tag_779:\n        /* \"#utility.yul\":28041:28170   */\n      swap2\n      swap1\n      pop\n      jump\t// out\n        /* \"#utility.yul\":28176:28251   */\n    tag_778:\n        /* \"#utility.yul\":28209:28215   */\n      0x00\n        /* \"#utility.yul\":28242:28244   */\n      0x40\n        /* \"#utility.yul\":28236:28245   */\n      mload\n        /* \"#utility.yul\":28226:28245   */\n      swap1\n      pop\n        /* \"#utility.yul\":28176:28251   */\n      swap1\n      jump\t// out\n        /* \"#utility.yul\":28257:28578   */\n    tag_481:\n        /* \"#utility.yul\":28344:28348   */\n      0x00\n        /* \"#utility.yul\":28434:28452   */\n      0xffffffffffffffff\n        /* \"#utility.yul\":28426:28432   */\n      dup3\n        /* \"#utility.yul\":28423:28453   */\n      gt\n        /* \"#utility.yul\":28420:28476   */\n      iszero\n      tag_783\n      jumpi\n        /* \"#utility.yul\":28456:28474   */\n      tag_784\n      tag_129\n      jump\t// in\n    tag_784:\n        /* \"#utility.yul\":28420:28476   */\n    tag_783:\n        /* \"#utility.yul\":28506:28510   */\n      0x20\n        /* \"#utility.yul\":28498:28504   */\n      dup3\n        /* \"#utility.yul\":28494:28511   */\n      mul\n        /* \"#utility.yul\":28486:28511   */\n      swap1\n      pop\n        /* \"#utility.yul\":28566:28570   */\n      0x20\n        /* \"#utility.yul\":28560:28564   */\n      dup2\n        /* \"#utility.yul\":28556:28571   */\n      add\n        /* \"#utility.yul\":28548:28571   */\n      swap1\n      pop\n        /* \"#utility.yul\":28257:28578   */\n      swap2\n      swap1\n      pop\n      jump\t// out\n        /* \"#utility.yul\":28584:28892   */\n    tag_498:\n        /* \"#utility.yul\":28646:28650   */\n      0x00\n        /* \"#utility.yul\":28736:28754   */\n      0xffffffffffffffff\n        /* \"#utility.yul\":28728:28734   */\n      dup3\n        /* \"#utility.yul\":28725:28755   */\n      gt\n        /* \"#utility.yul\":28722:28778   */\n      iszero\n      tag_786\n      jumpi\n        /* \"#utility.yul\":28758:28776   */\n      tag_787\n      tag_129\n      jump\t// in\n    tag_787:\n        /* \"#utility.yul\":28722:28778   */\n    tag_786:\n        /* \"#utility.yul\":28796:28825   */\n      tag_788\n        /* \"#utility.yul\":28818:28824   */\n      dup3\n        /* \"#utility.yul\":28796:28825   */\n      tag_663\n      jump\t// in\n    tag_788:\n        /* \"#utility.yul\":28788:28825   */\n      swap1\n      pop\n        /* \"#utility.yul\":28880:28884   */\n      0x20\n        /* \"#utility.yul\":28874:28878   */\n      dup2\n        /* \"#utility.yul\":28870:28885   */\n      add\n        /* \"#utility.yul\":28862:28885   */\n      swap1\n      pop\n        /* \"#utility.yul\":28584:28892   */\n      swap2\n      swap1\n      pop\n      jump\t// out\n        /* \"#utility.yul\":28898:29040   */\n    tag_616:\n        /* \"#utility.yul\":28975:28979   */\n      0x00\n        /* \"#utility.yul\":28998:29001   */\n      dup2\n        /* \"#utility.yul\":28990:29001   */\n      swap1\n      pop\n        /* \"#utility.yul\":29028:29032   */\n      0x20\n        /* \"#utility.yul\":29023:29026   */\n      dup3\n        /* \"#utility.yul\":29019:29033   */\n      add\n        /* \"#utility.yul\":29011:29033   */\n      swap1\n      pop\n        /* \"#utility.yul\":28898:29040   */\n      swap2\n      swap1\n      pop\n      jump\t// out\n        /* \"#utility.yul\":29046:29201   */\n    tag_630:\n        /* \"#utility.yul\":29136:29140   */\n      0x00\n        /* \"#utility.yul\":29159:29162   */\n      dup2\n        /* \"#utility.yul\":29151:29162   */\n      swap1\n      pop\n        /* \"#utility.yul\":29189:29193   */\n      0x20\n        /* \"#utility.yul\":29184:29187   */\n      dup3\n        /* \"#utility.yul\":29180:29194   */\n      add\n        /* \"#utility.yul\":29172:29194   */\n      swap1\n      pop\n        /* \"#utility.yul\":29046:29201   */\n      swap2\n      swap1\n      pop\n      jump\t// out\n        /* \"#utility.yul\":29207:29373   */\n    tag_644:\n        /* \"#utility.yul\":29308:29312   */\n      0x00\n        /* \"#utility.yul\":29331:29334   */\n      dup2\n        /* \"#utility.yul\":29323:29334   */\n      swap1\n      pop\n        /* \"#utility.yul\":29361:29365   */\n      0x20\n        /* \"#utility.yul\":29356:29359   */\n      dup3\n        /* \"#utility.yul\":29352:29366   */\n      add\n        /* \"#utility.yul\":29344:29366   */\n      swap1\n      pop\n        /* \"#utility.yul\":29207:29373   */\n      swap2\n      swap1\n      pop\n      jump\t// out\n        /* \"#utility.yul\":29379:29503   */\n    tag_612:\n        /* \"#utility.yul\":29456:29462   */\n      0x00\n        /* \"#utility.yul\":29490:29495   */\n      dup2\n        /* \"#utility.yul\":29484:29496   */\n      mload\n        /* \"#utility.yul\":29474:29496   */\n      swap1\n      pop\n        /* \"#utility.yul\":29379:29503   */\n      swap2\n      swap1\n      pop\n      jump\t// out\n        /* \"#utility.yul\":29509:29646   */\n    tag_626:\n        /* \"#utility.yul\":29599:29605   */\n      0x00\n        /* \"#utility.yul\":29633:29638   */\n      dup2\n        /* \"#utility.yul\":29627:29639   */\n      mload\n        /* \"#utility.yul\":29617:29639   */\n      swap1\n      pop\n        /* \"#utility.yul\":29509:29646   */\n      swap2\n      swap1\n      pop\n      jump\t// out\n        /* \"#utility.yul\":29652:29800   */\n    tag_640:\n        /* \"#utility.yul\":29753:29759   */\n      0x00\n        /* \"#utility.yul\":29787:29792   */\n      dup2\n        /* \"#utility.yul\":29781:29793   */\n      mload\n        /* \"#utility.yul\":29771:29793   */\n      swap1\n      pop\n        /* \"#utility.yul\":29652:29800   */\n      swap2\n      swap1\n      pop\n      jump\t// out\n        /* \"#utility.yul\":29806:29905   */\n    tag_657:\n        /* \"#utility.yul\":29858:29864   */\n      0x00\n        /* \"#utility.yul\":29892:29897   */\n      dup2\n        /* \"#utility.yul\":29886:29898   */\n      mload\n        /* \"#utility.yul\":29876:29898   */\n      swap1\n      pop\n        /* \"#utility.yul\":29806:29905   */\n      swap2\n      swap1\n      pop\n      jump\t// out\n        /* \"#utility.yul\":29911:30034   */\n    tag_622:\n        /* \"#utility.yul\":29991:29995   */\n      0x00\n        /* \"#utility.yul\":30023:30027   */\n      0x20\n        /* \"#utility.yul\":30018:30021   */\n      dup3\n        /* \"#utility.yul\":30014:30028   */\n      add\n        /* \"#utility.yul\":30006:30028   */\n      swap1\n      pop\n        /* \"#utility.yul\":29911:30034   */\n      swap2\n      swap1\n      pop\n      jump\t// out\n        /* \"#utility.yul\":30040:30176   */\n    tag_636:\n        /* \"#utility.yul\":30133:30137   */\n      0x00\n        /* \"#utility.yul\":30165:30169   */\n      0x20\n        /* \"#utility.yul\":30160:30163   */\n      dup3\n        /* \"#utility.yul\":30156:30170   */\n      add\n        /* \"#utility.yul\":30148:30170   */\n      swap1\n      pop\n        /* \"#utility.yul\":30040:30176   */\n      swap2\n      swap1\n      pop\n      jump\t// out\n        /* \"#utility.yul\":30182:30329   */\n    tag_650:\n        /* \"#utility.yul\":30286:30290   */\n      0x00\n        /* \"#utility.yul\":30318:30322   */\n      0x20\n        /* \"#utility.yul\":30313:30316   */\n      dup3\n        /* \"#utility.yul\":30309:30323   */\n      add\n        /* \"#utility.yul\":30301:30323   */\n      swap1\n      pop\n        /* \"#utility.yul\":30182:30329   */\n      swap2\n      swap1\n      pop\n      jump\t// out\n        /* \"#utility.yul\":30335:30519   */\n    tag_614:\n        /* \"#utility.yul\":30434:30445   */\n      0x00\n        /* \"#utility.yul\":30468:30474   */\n      dup3\n        /* \"#utility.yul\":30463:30466   */\n      dup3\n        /* \"#utility.yul\":30456:30475   */\n      mstore\n        /* \"#utility.yul\":30508:30512   */\n      0x20\n        /* \"#utility.yul\":30503:30506   */\n      dup3\n        /* \"#utility.yul\":30499:30513   */\n      add\n        /* \"#utility.yul\":30484:30513   */\n      swap1\n      pop\n        /* \"#utility.yul\":30335:30519   */\n      swap3\n      swap2\n      pop\n      pop\n      jump\t// out\n        /* \"#utility.yul\":30525:30732   */\n    tag_628:\n        /* \"#utility.yul\":30647:30658   */\n      0x00\n        /* \"#utility.yul\":30681:30687   */\n      dup3\n        /* \"#utility.yul\":30676:30679   */\n      dup3\n        /* \"#utility.yul\":30669:30688   */\n      mstore\n        /* \"#utility.yul\":30721:30725   */\n      0x20\n        /* \"#utility.yul\":30716:30719   */\n      dup3\n        /* \"#utility.yul\":30712:30726   */\n      add\n        /* \"#utility.yul\":30697:30726   */\n      swap1\n      pop\n        /* \"#utility.yul\":30525:30732   */\n      swap3\n      swap2\n      pop\n      pop\n      jump\t// out\n        /* \"#utility.yul\":30738:30956   */\n    tag_642:\n        /* \"#utility.yul\":30871:30882   */\n      0x00\n        /* \"#utility.yul\":30905:30911   */\n      dup3\n        /* \"#utility.yul\":30900:30903   */\n      dup3\n        /* \"#utility.yul\":30893:30912   */\n      mstore\n        /* \"#utility.yul\":30945:30949   */\n      0x20\n        /* \"#utility.yul\":30940:30943   */\n      dup3\n        /* \"#utility.yul\":30936:30950   */\n      add\n        /* \"#utility.yul\":30921:30950   */\n      swap1\n      pop\n        /* \"#utility.yul\":30738:30956   */\n      swap3\n      swap2\n      pop\n      pop\n      jump\t// out\n        /* \"#utility.yul\":30962:31109   */\n    tag_699:\n        /* \"#utility.yul\":31063:31074   */\n      0x00\n        /* \"#utility.yul\":31100:31103   */\n      dup2\n        /* \"#utility.yul\":31085:31103   */\n      swap1\n      pop\n        /* \"#utility.yul\":30962:31109   */\n      swap3\n      swap2\n      pop\n      pop\n      jump\t// out\n        /* \"#utility.yul\":31115:31274   */\n    tag_659:\n        /* \"#utility.yul\":31189:31200   */\n      0x00\n        /* \"#utility.yul\":31223:31229   */\n      dup3\n        /* \"#utility.yul\":31218:31221   */\n      dup3\n        /* \"#utility.yul\":31211:31230   */\n      mstore\n        /* \"#utility.yul\":31263:31267   */\n      0x20\n        /* \"#utility.yul\":31258:31261   */\n      dup3\n        /* \"#utility.yul\":31254:31268   */\n      add\n        /* \"#utility.yul\":31239:31268   */\n      swap1\n      pop\n        /* \"#utility.yul\":31115:31274   */\n      swap3\n      swap2\n      pop\n      pop\n      jump\t// out\n        /* \"#utility.yul\":31280:31449   */\n    tag_673:\n        /* \"#utility.yul\":31364:31375   */\n      0x00\n        /* \"#utility.yul\":31398:31404   */\n      dup3\n        /* \"#utility.yul\":31393:31396   */\n      dup3\n        /* \"#utility.yul\":31386:31405   */\n      mstore\n        /* \"#utility.yul\":31438:31442   */\n      0x20\n        /* \"#utility.yul\":31433:31436   */\n      dup3\n        /* \"#utility.yul\":31429:31443   */\n      add\n        /* \"#utility.yul\":31414:31443   */\n      swap1\n      pop\n        /* \"#utility.yul\":31280:31449   */\n      swap3\n      swap2\n      pop\n      pop\n      jump\t// out\n        /* \"#utility.yul\":31455:31603   */\n    tag_668:\n        /* \"#utility.yul\":31557:31568   */\n      0x00\n        /* \"#utility.yul\":31594:31597   */\n      dup2\n        /* \"#utility.yul\":31579:31597   */\n      swap1\n      pop\n        /* \"#utility.yul\":31455:31603   */\n      swap3\n      swap2\n      pop\n      pop\n      jump\t// out\n        /* \"#utility.yul\":31609:31914   */\n    tag_329:\n        /* \"#utility.yul\":31649:31652   */\n      0x00\n        /* \"#utility.yul\":31668:31688   */\n      tag_807\n        /* \"#utility.yul\":31686:31687   */\n      dup3\n        /* \"#utility.yul\":31668:31688   */\n      tag_734\n      jump\t// in\n    tag_807:\n        /* \"#utility.yul\":31663:31688   */\n      swap2\n      pop\n        /* \"#utility.yul\":31702:31722   */\n      tag_808\n        /* \"#utility.yul\":31720:31721   */\n      dup4\n        /* \"#utility.yul\":31702:31722   */\n      tag_734\n      jump\t// in\n    tag_808:\n        /* \"#utility.yul\":31697:31722   */\n      swap3\n      pop\n        /* \"#utility.yul\":31856:31857   */\n      dup3\n        /* \"#utility.yul\":31788:31854   */\n      0xffffffffffffffffffffffffffffffffffffffffffffffffffffffffffffffff\n        /* \"#utility.yul\":31784:31858   */\n      sub\n        /* \"#utility.yul\":31781:31782   */\n      dup3\n        /* \"#utility.yul\":31778:31859   */\n      gt\n        /* \"#utility.yul\":31775:31882   */\n      iszero\n      tag_809\n      jumpi\n        /* \"#utility.yul\":31862:31880   */\n      tag_810\n      tag_811\n      jump\t// in\n    tag_810:\n        /* \"#utility.yul\":31775:31882   */\n    tag_809:\n        /* \"#utility.yul\":31906:31907   */\n      dup3\n        /* \"#utility.yul\":31903:31904   */\n      dup3\n        /* \"#utility.yul\":31899:31908   */\n      add\n        /* \"#utility.yul\":31892:31908   */\n      swap1\n      pop\n        /* \"#utility.yul\":31609:31914   */\n      swap3\n      swap2\n      pop\n      pop\n      jump\t// out\n        /* \"#utility.yul\":31920:32105   */\n    tag_118:\n        /* \"#utility.yul\":31960:31961   */\n      0x00\n        /* \"#utility.yul\":31977:31997   */\n      tag_813\n        /* \"#utility.yul\":31995:31996   */\n      dup3\n        /* \"#utility.yul\":31977:31997   */\n      tag_734\n      jump\t// in\n    tag_813:\n        /* \"#utility.yul\":31972:31997   */\n      swap2\n      pop\n        /* \"#utility.yul\":32011:32031   */\n      tag_814\n        /* \"#utility.yul\":32029:32030   */\n      dup4\n        /* \"#utility.yul\":32011:32031   */\n      tag_734\n      jump\t// in\n    tag_814:\n        /* \"#utility.yul\":32006:32031   */\n      swap3\n      pop\n        /* \"#utility.yul\":32050:32051   */\n      dup3\n        /* \"#utility.yul\":32040:32075   */\n      tag_815\n      jumpi\n        /* \"#utility.yul\":32055:32073   */\n      tag_816\n      tag_817\n      jump\t// in\n    tag_816:\n        /* \"#utility.yul\":32040:32075   */\n    tag_815:\n        /* \"#utility.yul\":32097:32098   */\n      dup3\n        /* \"#utility.yul\":32094:32095   */\n      dup3\n        /* \"#utility.yul\":32090:32099   */\n      div\n        /* \"#utility.yul\":32085:32099   */\n      swap1\n      pop\n        /* \"#utility.yul\":31920:32105   */\n      swap3\n      swap2\n      pop\n      pop\n      jump\t// out\n        /* \"#utility.yul\":32111:32459   */\n    tag_116:\n        /* \"#utility.yul\":32151:32158   */\n      0x00\n        /* \"#utility.yul\":32174:32194   */\n      tag_819\n        /* \"#utility.yul\":32192:32193   */\n      dup3\n        /* \"#utility.yul\":32174:32194   */\n      tag_734\n      jump\t// in\n    tag_819:\n        /* \"#utility.yul\":32169:32194   */\n      swap2\n      pop\n        /* \"#utility.yul\":32208:32228   */\n      tag_820\n        /* \"#utility.yul\":32226:32227   */\n      dup4\n        /* \"#utility.yul\":32208:32228   */\n      tag_734\n      jump\t// in\n    tag_820:\n        /* \"#utility.yul\":32203:32228   */\n      swap3\n      pop\n        /* \"#utility.yul\":32396:32397   */\n      dup2\n        /* \"#utility.yul\":32328:32394   */\n      0xffffffffffffffffffffffffffffffffffffffffffffffffffffffffffffffff\n        /* \"#utility.yul\":32324:32398   */\n      div\n        /* \"#utility.yul\":32321:32322   */\n      dup4\n        /* \"#utility.yul\":32318:32399   */\n      gt\n        /* \"#utility.yul\":32313:32314   */\n      dup3\n        /* \"#utility.yul\":32306:32315   */\n      iszero\n        /* \"#utility.yul\":32299:32316   */\n      iszero\n        /* \"#utility.yul\":32295:32400   */\n      and\n        /* \"#utility.yul\":32292:32423   */\n      iszero\n      tag_821\n      jumpi\n        /* \"#utility.yul\":32403:32421   */\n      tag_822\n      tag_811\n      jump\t// in\n    tag_822:\n        /* \"#utility.yul\":32292:32423   */\n    tag_821:\n        /* \"#utility.yul\":32451:32452   */\n      dup3\n        /* \"#utility.yul\":32448:32449   */\n      dup3\n        /* \"#utility.yul\":32444:32453   */\n      mul\n        /* \"#utility.yul\":32433:32453   */\n      swap1\n      pop\n        /* \"#utility.yul\":32111:32459   */\n      swap3\n      swap2\n      pop\n      pop\n      jump\t// out\n        /* \"#utility.yul\":32465:32656   */\n    tag_426:\n        /* \"#utility.yul\":32505:32509   */\n      0x00\n        /* \"#utility.yul\":32525:32545   */\n      tag_824\n        /* \"#utility.yul\":32543:32544   */\n      dup3\n        /* \"#utility.yul\":32525:32545   */\n      tag_734\n      jump\t// in\n    tag_824:\n        /* \"#utility.yul\":32520:32545   */\n      swap2\n      pop\n        /* \"#utility.yul\":32559:32579   */\n      tag_825\n        /* \"#utility.yul\":32577:32578   */\n      dup4\n        /* \"#utility.yul\":32559:32579   */\n      tag_734\n      jump\t// in\n    tag_825:\n        /* \"#utility.yul\":32554:32579   */\n      swap3\n      pop\n        /* \"#utility.yul\":32598:32599   */\n      dup3\n        /* \"#utility.yul\":32595:32596   */\n      dup3\n        /* \"#utility.yul\":32592:32600   */\n      lt\n        /* \"#utility.yul\":32589:32623   */\n      iszero\n      tag_826\n      jumpi\n        /* \"#utility.yul\":32603:32621   */\n      tag_827\n      tag_811\n      jump\t// in\n    tag_827:\n        /* \"#utility.yul\":32589:32623   */\n    tag_826:\n        /* \"#utility.yul\":32648:32649   */\n      dup3\n        /* \"#utility.yul\":32645:32646   */\n      dup3\n        /* \"#utility.yul\":32641:32650   */\n      sub\n        /* \"#utility.yul\":32633:32650   */\n      swap1\n      pop\n        /* \"#utility.yul\":32465:32656   */\n      swap3\n      swap2\n      pop\n      pop\n      jump\t// out\n        /* \"#utility.yul\":32662:32758   */\n    tag_605:\n        /* \"#utility.yul\":32699:32706   */\n      0x00\n        /* \"#utility.yul\":32728:32752   */\n      tag_829\n        /* \"#utility.yul\":32746:32751   */\n      dup3\n        /* \"#utility.yul\":32728:32752   */\n      tag_830\n      jump\t// in\n    tag_829:\n        /* \"#utility.yul\":32717:32752   */\n      swap1\n      pop\n        /* \"#utility.yul\":32662:32758   */\n      swap2\n      swap1\n      pop\n      jump\t// out\n        /* \"#utility.yul\":32764:32854   */\n    tag_654:\n        /* \"#utility.yul\":32798:32805   */\n      0x00\n        /* \"#utility.yul\":32841:32846   */\n      dup2\n        /* \"#utility.yul\":32834:32847   */\n      iszero\n        /* \"#utility.yul\":32827:32848   */\n      iszero\n        /* \"#utility.yul\":32816:32848   */\n      swap1\n      pop\n        /* \"#utility.yul\":32764:32854   */\n      swap2\n      swap1\n      pop\n      jump\t// out\n        /* \"#utility.yul\":32860:32986   */\n    tag_830:\n        /* \"#utility.yul\":32897:32904   */\n      0x00\n        /* \"#utility.yul\":32937:32979   */\n      0xffffffffffffffffffffffffffffffffffffffff\n        /* \"#utility.yul\":32930:32935   */\n      dup3\n        /* \"#utility.yul\":32926:32980   */\n      and\n        /* \"#utility.yul\":32915:32980   */\n      swap1\n      pop\n        /* \"#utility.yul\":32860:32986   */\n      swap2\n      swap1\n      pop\n      jump\t// out\n        /* \"#utility.yul\":32992:33069   */\n    tag_734:\n        /* \"#utility.yul\":33029:33036   */\n      0x00\n        /* \"#utility.yul\":33058:33063   */\n      dup2\n        /* \"#utility.yul\":33047:33063   */\n      swap1\n      pop\n        /* \"#utility.yul\":32992:33069   */\n      swap2\n      swap1\n      pop\n      jump\t// out\n        /* \"#utility.yul\":33075:33229   */\n    tag_503:\n        /* \"#utility.yul\":33159:33165   */\n      dup3\n        /* \"#utility.yul\":33154:33157   */\n      dup2\n        /* \"#utility.yul\":33149:33152   */\n      dup4\n        /* \"#utility.yul\":33136:33166   */\n      calldatacopy\n        /* \"#utility.yul\":33221:33222   */\n      0x00\n        /* \"#utility.yul\":33212:33218   */\n      dup4\n        /* \"#utility.yul\":33207:33210   */\n      dup4\n        /* \"#utility.yul\":33203:33219   */\n      add\n        /* \"#utility.yul\":33196:33223   */\n      mstore\n        /* \"#utility.yul\":33075:33229   */\n      pop\n      pop\n      pop\n      jump\t// out\n        /* \"#utility.yul\":33235:33542   */\n    tag_661:\n        /* \"#utility.yul\":33303:33304   */\n      0x00\n        /* \"#utility.yul\":33313:33426   */\n    tag_836:\n        /* \"#utility.yul\":33327:33333   */\n      dup4\n        /* \"#utility.yul\":33324:33325   */\n      dup2\n        /* \"#utility.yul\":33321:33334   */\n      lt\n        /* \"#utility.yul\":33313:33426   */\n      iszero\n      tag_838\n      jumpi\n        /* \"#utility.yul\":33412:33413   */\n      dup1\n        /* \"#utility.yul\":33407:33410   */\n      dup3\n        /* \"#utility.yul\":33403:33414   */\n      add\n        /* \"#utility.yul\":33397:33415   */\n      mload\n        /* \"#utility.yul\":33393:33394   */\n      dup2\n        /* \"#utility.yul\":33388:33391   */\n      dup5\n        /* \"#utility.yul\":33384:33395   */\n      add\n        /* \"#utility.yul\":33377:33416   */\n      mstore\n        /* \"#utility.yul\":33349:33351   */\n      0x20\n        /* \"#utility.yul\":33346:33347   */\n      dup2\n        /* \"#utility.yul\":33342:33352   */\n      add\n        /* \"#utility.yul\":33337:33352   */\n      swap1\n      pop\n        /* \"#utility.yul\":33313:33426   */\n      jump(tag_836)\n    tag_838:\n        /* \"#utility.yul\":33444:33450   */\n      dup4\n        /* \"#utility.yul\":33441:33442   */\n      dup2\n        /* \"#utility.yul\":33438:33451   */\n      gt\n        /* \"#utility.yul\":33435:33536   */\n      iszero\n      tag_839\n      jumpi\n        /* \"#utility.yul\":33524:33525   */\n      0x00\n        /* \"#utility.yul\":33515:33521   */\n      dup5\n        /* \"#utility.yul\":33510:33513   */\n      dup5\n        /* \"#utility.yul\":33506:33522   */\n      add\n        /* \"#utility.yul\":33499:33526   */\n      mstore\n        /* \"#utility.yul\":33435:33536   */\n    tag_839:\n        /* \"#utility.yul\":33284:33542   */\n      pop\n        /* \"#utility.yul\":33235:33542   */\n      pop\n      pop\n      pop\n      jump\t// out\n        /* \"#utility.yul\":33548:33868   */\n    tag_146:\n        /* \"#utility.yul\":33592:33598   */\n      0x00\n        /* \"#utility.yul\":33629:33630   */\n      0x02\n        /* \"#utility.yul\":33623:33627   */\n      dup3\n        /* \"#utility.yul\":33619:33631   */\n      div\n        /* \"#utility.yul\":33609:33631   */\n      swap1\n      pop\n        /* \"#utility.yul\":33676:33677   */\n      0x01\n        /* \"#utility.yul\":33670:33674   */\n      dup3\n        /* \"#utility.yul\":33666:33678   */\n      and\n        /* \"#utility.yul\":33697:33715   */\n      dup1\n        /* \"#utility.yul\":33687:33768   */\n      tag_841\n      jumpi\n        /* \"#utility.yul\":33753:33757   */\n      0x7f\n        /* \"#utility.yul\":33745:33751   */\n      dup3\n        /* \"#utility.yul\":33741:33758   */\n      and\n        /* \"#utility.yul\":33731:33758   */\n      swap2\n      pop\n        /* \"#utility.yul\":33687:33768   */\n    tag_841:\n        /* \"#utility.yul\":33815:33817   */\n      0x20\n        /* \"#utility.yul\":33807:33813   */\n      dup3\n        /* \"#utility.yul\":33804:33818   */\n      lt\n        /* \"#utility.yul\":33784:33802   */\n      dup2\n        /* \"#utility.yul\":33781:33819   */\n      eq\n        /* \"#utility.yul\":33778:33862   */\n      iszero\n      tag_842\n      jumpi\n        /* \"#utility.yul\":33834:33852   */\n      tag_843\n      tag_844\n      jump\t// in\n    tag_843:\n        /* \"#utility.yul\":33778:33862   */\n    tag_842:\n        /* \"#utility.yul\":33599:33868   */\n      pop\n        /* \"#utility.yul\":33548:33868   */\n      swap2\n      swap1\n      pop\n      jump\t// out\n        /* \"#utility.yul\":33874:34155   */\n    tag_780:\n        /* \"#utility.yul\":33957:33984   */\n      tag_846\n        /* \"#utility.yul\":33979:33983   */\n      dup3\n        /* \"#utility.yul\":33957:33984   */\n      tag_663\n      jump\t// in\n    tag_846:\n        /* \"#utility.yul\":33949:33955   */\n      dup2\n        /* \"#utility.yul\":33945:33985   */\n      add\n        /* \"#utility.yul\":34087:34093   */\n      dup2\n        /* \"#utility.yul\":34075:34085   */\n      dup2\n        /* \"#utility.yul\":34072:34094   */\n      lt\n        /* \"#utility.yul\":34051:34069   */\n      0xffffffffffffffff\n        /* \"#utility.yul\":34039:34049   */\n      dup3\n        /* \"#utility.yul\":34036:34070   */\n      gt\n        /* \"#utility.yul\":34033:34095   */\n      or\n        /* \"#utility.yul\":34030:34118   */\n      iszero\n      tag_847\n      jumpi\n        /* \"#utility.yul\":34098:34116   */\n      tag_848\n      tag_129\n      jump\t// in\n    tag_848:\n        /* \"#utility.yul\":34030:34118   */\n    tag_847:\n        /* \"#utility.yul\":34138:34148   */\n      dup1\n        /* \"#utility.yul\":34134:34136   */\n      0x40\n        /* \"#utility.yul\":34127:34149   */\n      mstore\n        /* \"#utility.yul\":33917:34155   */\n      pop\n        /* \"#utility.yul\":33874:34155   */\n      pop\n      pop\n      jump\t// out\n        /* \"#utility.yul\":34161:34394   */\n    tag_107:\n        /* \"#utility.yul\":34200:34203   */\n      0x00\n        /* \"#utility.yul\":34223:34247   */\n      tag_850\n        /* \"#utility.yul\":34241:34246   */\n      dup3\n        /* \"#utility.yul\":34223:34247   */\n      tag_734\n      jump\t// in\n    tag_850:\n        /* \"#utility.yul\":34214:34247   */\n      swap2\n      pop\n        /* \"#utility.yul\":34269:34335   */\n      0xffffffffffffffffffffffffffffffffffffffffffffffffffffffffffffffff\n        /* \"#utility.yul\":34262:34267   */\n      dup3\n        /* \"#utility.yul\":34259:34336   */\n      eq\n        /* \"#utility.yul\":34256:34359   */\n      iszero\n      tag_851\n      jumpi\n        /* \"#utility.yul\":34339:34357   */\n      tag_852\n      tag_811\n      jump\t// in\n    tag_852:\n        /* \"#utility.yul\":34256:34359   */\n    tag_851:\n        /* \"#utility.yul\":34386:34387   */\n      0x01\n        /* \"#utility.yul\":34379:34384   */\n      dup3\n        /* \"#utility.yul\":34375:34388   */\n      add\n        /* \"#utility.yul\":34368:34388   */\n      swap1\n      pop\n        /* \"#utility.yul\":34161:34394   */\n      swap2\n      swap1\n      pop\n      jump\t// out\n        /* \"#utility.yul\":34400:34580   */\n    tag_811:\n        /* \"#utility.yul\":34448:34525   */\n      0x4e487b7100000000000000000000000000000000000000000000000000000000\n        /* \"#utility.yul\":34445:34446   */\n      0x00\n        /* \"#utility.yul\":34438:34526   */\n      mstore\n        /* \"#utility.yul\":34545:34549   */\n      0x11\n        /* \"#utility.yul\":34542:34543   */\n      0x04\n        /* \"#utility.yul\":34535:34550   */\n      mstore\n        /* \"#utility.yul\":34569:34573   */\n      0x24\n        /* \"#utility.yul\":34566:34567   */\n      0x00\n        /* \"#utility.yul\":34559:34574   */\n      revert\n        /* \"#utility.yul\":34586:34766   */\n    tag_817:\n        /* \"#utility.yul\":34634:34711   */\n      0x4e487b7100000000000000000000000000000000000000000000000000000000\n        /* \"#utility.yul\":34631:34632   */\n      0x00\n        /* \"#utility.yul\":34624:34712   */\n      mstore\n        /* \"#utility.yul\":34731:34735   */\n      0x12\n        /* \"#utility.yul\":34728:34729   */\n      0x04\n        /* \"#utility.yul\":34721:34736   */\n      mstore\n        /* \"#utility.yul\":34755:34759   */\n      0x24\n        /* \"#utility.yul\":34752:34753   */\n      0x00\n        /* \"#utility.yul\":34745:34760   */\n      revert\n        /* \"#utility.yul\":34772:34952   */\n    tag_844:\n        /* \"#utility.yul\":34820:34897   */\n      0x4e487b7100000000000000000000000000000000000000000000000000000000\n        /* \"#utility.yul\":34817:34818   */\n      0x00\n        /* \"#utility.yul\":34810:34898   */\n      mstore\n        /* \"#utility.yul\":34917:34921   */\n      0x22\n        /* \"#utility.yul\":34914:34915   */\n      0x04\n        /* \"#utility.yul\":34907:34922   */\n      mstore\n        /* \"#utility.yul\":34941:34945   */\n      0x24\n        /* \"#utility.yul\":34938:34939   */\n      0x00\n        /* \"#utility.yul\":34931:34946   */\n      revert\n        /* \"#utility.yul\":34958:35138   */\n    tag_122:\n        /* \"#utility.yul\":35006:35083   */\n      0x4e487b7100000000000000000000000000000000000000000000000000000000\n        /* \"#utility.yul\":35003:35004   */\n      0x00\n        /* \"#utility.yul\":34996:35084   */\n      mstore\n        /* \"#utility.yul\":35103:35107   */\n      0x32\n        /* \"#utility.yul\":35100:35101   */\n      0x04\n        /* \"#utility.yul\":35093:35108   */\n      mstore\n        /* \"#utility.yul\":35127:35131   */\n      0x24\n        /* \"#utility.yul\":35124:35125   */\n      0x00\n        /* \"#utility.yul\":35117:35132   */\n      revert\n        /* \"#utility.yul\":35144:35324   */\n    tag_129:\n        /* \"#utility.yul\":35192:35269   */\n      0x4e487b7100000000000000000000000000000000000000000000000000000000\n        /* \"#utility.yul\":35189:35190   */\n      0x00\n        /* \"#utility.yul\":35182:35270   */\n      mstore\n        /* \"#utility.yul\":35289:35293   */\n      0x41\n        /* \"#utility.yul\":35286:35287   */\n      0x04\n        /* \"#utility.yul\":35279:35294   */\n      mstore\n        /* \"#utility.yul\":35313:35317   */\n      0x24\n        /* \"#utility.yul\":35310:35311   */\n      0x00\n        /* \"#utility.yul\":35303:35318   */\n      revert\n        /* \"#utility.yul\":35330:35447   */\n    tag_491:\n        /* \"#utility.yul\":35439:35440   */\n      0x00\n        /* \"#utility.yul\":35436:35437   */\n      dup1\n        /* \"#utility.yul\":35429:35441   */\n      revert\n        /* \"#utility.yul\":35453:35570   */\n    tag_485:\n        /* \"#utility.yul\":35562:35563   */\n      0x00\n        /* \"#utility.yul\":35559:35560   */\n      dup1\n        /* \"#utility.yul\":35552:35564   */\n      revert\n        /* \"#utility.yul\":35576:35693   */\n    tag_501:\n        /* \"#utility.yul\":35685:35686   */\n      0x00\n        /* \"#utility.yul\":35682:35683   */\n      dup1\n        /* \"#utility.yul\":35675:35687   */\n      revert\n        /* \"#utility.yul\":35699:35816   */\n    tag_536:\n        /* \"#utility.yul\":35808:35809   */\n      0x00\n        /* \"#utility.yul\":35805:35806   */\n      dup1\n        /* \"#utility.yul\":35798:35810   */\n      revert\n        /* \"#utility.yul\":35822:35939   */\n    tag_524:\n        /* \"#utility.yul\":35931:35932   */\n      0x00\n        /* \"#utility.yul\":35928:35929   */\n      dup1\n        /* \"#utility.yul\":35921:35933   */\n      revert\n        /* \"#utility.yul\":35945:36047   */\n    tag_663:\n        /* \"#utility.yul\":35986:35992   */\n      0x00\n        /* \"#utility.yul\":36037:36039   */\n      0x1f\n        /* \"#utility.yul\":36033:36040   */\n      not\n        /* \"#utility.yul\":36028:36030   */\n      0x1f\n        /* \"#utility.yul\":36021:36026   */\n      dup4\n        /* \"#utility.yul\":36017:36031   */\n      add\n        /* \"#utility.yul\":36013:36041   */\n      and\n        /* \"#utility.yul\":36003:36041   */\n      swap1\n      pop\n        /* \"#utility.yul\":35945:36047   */\n      swap2\n      swap1\n      pop\n      jump\t// out\n        /* \"#utility.yul\":36053:36278   */\n    tag_675:\n        /* \"#utility.yul\":36193:36227   */\n      0x4f776e61626c653a206e6577206f776e657220697320746865207a65726f2061\n        /* \"#utility.yul\":36189:36190   */\n      0x00\n        /* \"#utility.yul\":36181:36187   */\n      dup3\n        /* \"#utility.yul\":36177:36191   */\n      add\n        /* \"#utility.yul\":36170:36228   */\n      mstore\n        /* \"#utility.yul\":36262:36270   */\n      0x6464726573730000000000000000000000000000000000000000000000000000\n        /* \"#utility.yul\":36257:36259   */\n      0x20\n        /* \"#utility.yul\":36249:36255   */\n      dup3\n        /* \"#utility.yul\":36245:36260   */\n      add\n        /* \"#utility.yul\":36238:36271   */\n      mstore\n        /* \"#utility.yul\":36053:36278   */\n      pop\n      jump\t// out\n        /* \"#utility.yul\":36284:36522   */\n    tag_680:\n        /* \"#utility.yul\":36424:36458   */\n      0x46656573207061796d656e74206661696c656420627574207472616e73616374\n        /* \"#utility.yul\":36420:36421   */\n      0x00\n        /* \"#utility.yul\":36412:36418   */\n      dup3\n        /* \"#utility.yul\":36408:36422   */\n      add\n        /* \"#utility.yul\":36401:36459   */\n      mstore\n        /* \"#utility.yul\":36493:36514   */\n      0x696f6e20776173207375636365737366756c2100000000000000000000000000\n        /* \"#utility.yul\":36488:36490   */\n      0x20\n        /* \"#utility.yul\":36480:36486   */\n      dup3\n        /* \"#utility.yul\":36476:36491   */\n      add\n        /* \"#utility.yul\":36469:36515   */\n      mstore\n        /* \"#utility.yul\":36284:36522   */\n      pop\n      jump\t// out\n        /* \"#utility.yul\":36528:36768   */\n    tag_685:\n        /* \"#utility.yul\":36668:36702   */\n      0x54686520737570706c6965642061646472657373206973206e6f742074686520\n        /* \"#utility.yul\":36664:36665   */\n      0x00\n        /* \"#utility.yul\":36656:36662   */\n      dup3\n        /* \"#utility.yul\":36652:36666   */\n      add\n        /* \"#utility.yul\":36645:36703   */\n      mstore\n        /* \"#utility.yul\":36737:36760   */\n      0x6f776e6572206f66207468652070726f64756374210000000000000000000000\n        /* \"#utility.yul\":36732:36734   */\n      0x20\n        /* \"#utility.yul\":36724:36730   */\n      dup3\n        /* \"#utility.yul\":36720:36735   */\n      add\n        /* \"#utility.yul\":36713:36761   */\n      mstore\n        /* \"#utility.yul\":36528:36768   */\n      pop\n      jump\t// out\n        /* \"#utility.yul\":36774:36943   */\n    tag_690:\n        /* \"#utility.yul\":36914:36935   */\n      0x5472616e73616374696f6e206661696c65642100000000000000000000000000\n        /* \"#utility.yul\":36910:36911   */\n      0x00\n        /* \"#utility.yul\":36902:36908   */\n      dup3\n        /* \"#utility.yul\":36898:36912   */\n      add\n        /* \"#utility.yul\":36891:36936   */\n      mstore\n        /* \"#utility.yul\":36774:36943   */\n      pop\n      jump\t// out\n        /* \"#utility.yul\":36949:37131   */\n    tag_695:\n        /* \"#utility.yul\":37089:37123   */\n      0x4f776e61626c653a2063616c6c6572206973206e6f7420746865206f776e6572\n        /* \"#utility.yul\":37085:37086   */\n      0x00\n        /* \"#utility.yul\":37077:37083   */\n      dup3\n        /* \"#utility.yul\":37073:37087   */\n      add\n        /* \"#utility.yul\":37066:37124   */\n      mstore\n        /* \"#utility.yul\":36949:37131   */\n      pop\n      jump\t// out\n        /* \"#utility.yul\":37137:37251   */\n    tag_701:\n      pop\n      jump\t// out\n        /* \"#utility.yul\":37257:37427   */\n    tag_710:\n        /* \"#utility.yul\":37397:37419   */\n      0x4e6f7420656e6f756768207765692073656e7421000000000000000000000000\n        /* \"#utility.yul\":37393:37394   */\n      0x00\n        /* \"#utility.yul\":37385:37391   */\n      dup3\n        /* \"#utility.yul\":37381:37395   */\n      add\n        /* \"#utility.yul\":37374:37420   */\n      mstore\n        /* \"#utility.yul\":37257:37427   */\n      pop\n      jump\t// out\n        /* \"#utility.yul\":37433:37555   */\n    tag_507:\n        /* \"#utility.yul\":37506:37530   */\n      tag_872\n        /* \"#utility.yul\":37524:37529   */\n      dup2\n        /* \"#utility.yul\":37506:37530   */\n      tag_605\n      jump\t// in\n    tag_872:\n        /* \"#utility.yul\":37499:37504   */\n      dup2\n        /* \"#utility.yul\":37496:37531   */\n      eq\n        /* \"#utility.yul\":37486:37549   */\n      tag_873\n      jumpi\n        /* \"#utility.yul\":37545:37546   */\n      0x00\n        /* \"#utility.yul\":37542:37543   */\n      dup1\n        /* \"#utility.yul\":37535:37547   */\n      revert\n        /* \"#utility.yul\":37486:37549   */\n    tag_873:\n        /* \"#utility.yul\":37433:37555   */\n      pop\n      jump\t// out\n        /* \"#utility.yul\":37561:37683   */\n    tag_520:\n        /* \"#utility.yul\":37634:37658   */\n      tag_875\n        /* \"#utility.yul\":37652:37657   */\n      dup2\n        /* \"#utility.yul\":37634:37658   */\n      tag_734\n      jump\t// in\n    tag_875:\n        /* \"#utility.yul\":37627:37632   */\n      dup2\n        /* \"#utility.yul\":37624:37659   */\n      eq\n        /* \"#utility.yul\":37614:37677   */\n      tag_876\n      jumpi\n        /* \"#utility.yul\":37673:37674   */\n      0x00\n        /* \"#utility.yul\":37670:37671   */\n      dup1\n        /* \"#utility.yul\":37663:37675   */\n      revert\n        /* \"#utility.yul\":37614:37677   */\n    tag_876:\n        /* \"#utility.yul\":37561:37683   */\n      pop\n      jump\t// out\n\n    auxdata: 0xa26469706673582212206eeb85a96e66c6b070959ddea8d9401d6918979af36e92d01814afd46eca828664736f6c63430008070033\n}\n",
				"bytecode": {
					"linkReferences": {},
					"object": "6080604052600060015560026006553480156200001b57600080fd5b506200003c620000306200004260201b60201c565b6200004a60201b60201c565b6200010e565b600033905090565b60008060009054906101000a900473ffffffffffffffffffffffffffffffffffffffff169050816000806101000a81548173ffffffffffffffffffffffffffffffffffffffff021916908373ffffffffffffffffffffffffffffffffffffffff1602179055508173ffffffffffffffffffffffffffffffffffffffff168173ffffffffffffffffffffffffffffffffffffffff167f8be0079c531659141344cd1fd0a4f28419497f9722a3daafe3b4186f6b6457e060405160405180910390a35050565b614006806200011e6000396000f3fe6080604052600436106100f35760003560e01c80639ccbff6b1161008a578063dd46fa5d11610059578063dd46fa5d1461035d578063e31465df14610386578063f2fde38b146103af578063fe3d5538146103d8576100f3565b80639ccbff6b1461029d578063a3274c21146102db578063ae06c1b7146102f7578063bed59eae14610320576100f3565b80633f255ff9116100c65780633f255ff9146101df5780636d1684611461021d578063715018a61461025b5780638da5cb5b14610272576100f3565b80630e448c1e146100f857806322634d211461012157806328cbc038146101615780633a7d23761461019e575b600080fd5b34801561010457600080fd5b5061011f600480360381019061011a91906130eb565b610415565b005b34801561012d57600080fd5b5061014860048036038101906101439190612f0f565b610651565b6040516101589493929190613922565b60405180910390f35b34801561016d57600080fd5b50610188600480360381019061018391906131d6565b61068e565b6040516101959190613787565b60405180910390f35b3480156101aa57600080fd5b506101c560048036038101906101c09190613243565b6106dd565b6040516101d69594939291906138cf565b60405180910390f35b3480156101eb57600080fd5b5061020660048036038101906102019190613243565b610770565b60405161021492919061389f565b60405180910390f35b34801561022957600080fd5b50610244600480360381019061023f9190613243565b610bf4565b60405161025292919061389f565b60405180910390f35b34801561026757600080fd5b50610270611031565b005b34801561027e57600080fd5b506102876110b9565b6040516102949190613787565b60405180910390f35b3480156102a957600080fd5b506102c460048036038101906102bf9190612f4f565b6110e2565b6040516102d292919061389f565b60405180910390f35b6102f560048036038101906102f09190613203565b61192e565b005b34801561030357600080fd5b5061031e600480360381019061031991906131d6565b611d83565b005b34801561032c57600080fd5b50610347600480360381019061034291906131d6565b611e09565b6040516103549190613884565b60405180910390f35b34801561036957600080fd5b50610384600480360381019061037f9190613014565b6121f0565b005b34801561039257600080fd5b506103ad60048036038101906103a89190613243565b6123df565b005b3480156103bb57600080fd5b506103d660048036038101906103d19190612ee2565b6124a5565b005b3480156103e457600080fd5b506103ff60048036038101906103fa91906131d6565b61259d565b60405161040c91906137a2565b60405180910390f35b60006001600081548092919061042a90613cd9565b91905055905060006040518060e001604052808381526020013373ffffffffffffffffffffffffffffffffffffffff16815260200188815260200187815260200186815260200185815260200160011515815250905060058190806001815401808255809150506001900390600052602060002090600702016000909190919091506000820151816000015560208201518160010160006101000a81548173ffffffffffffffffffffffffffffffffffffffff021916908373ffffffffffffffffffffffffffffffffffffffff1602179055506040820151816002019080519060200190610519929190612ba8565b506060820151816003019080519060200190610536929190612ba8565b506080820151816004019080519060200190610553929190612ba8565b5060a0820151816005019080519060200190610570929190612c2e565b5060c08201518160060160006101000a81548160ff021916908315150217905550505060405180608001604052808481526020016064600654866105b49190613b5e565b6105be9190613b2d565b815260200142815260200183815250600260003373ffffffffffffffffffffffffffffffffffffffff1673ffffffffffffffffffffffffffffffffffffffff16815260200190815260200160002060008481526020019081526020016000206000820151816000015560208201518160010155604082015181600201556060820151816003015590505050505050505050565b6002602052816000526040600020602052806000526040600020600091509150508060000154908060010154908060020154908060030154905084565b6000600582815481106106a4576106a3613daf565b5b906000526020600020906007020160010160009054906101000a900473ffffffffffffffffffffffffffffffffffffffff169050919050565b600460205281600052604060002081815481106106f957600080fd5b9060005260206000209060050201600091509150508060000154908060010154908060020154908060030160009054906101000a900473ffffffffffffffffffffffffffffffffffffffff16908060040160009054906101000a900473ffffffffffffffffffffffffffffffffffffffff16905085565b600060606000339050600060058054905067ffffffffffffffff81111561079a57610799613dde565b5b6040519080825280602002602001820160405280156107d357816020015b6107c0612c8e565b8152602001906001900390816107b85790505b5090506000808790505b600580549050811080156107f057508682105b15610be3578373ffffffffffffffffffffffffffffffffffffffff16600582815481106108205761081f613daf565b5b906000526020600020906007020160010160009054906101000a900473ffffffffffffffffffffffffffffffffffffffff1673ffffffffffffffffffffffffffffffffffffffff161415610bd0576005818154811061088257610881613daf565b5b90600052602060002090600702016040518060e0016040529081600082015481526020016001820160009054906101000a900473ffffffffffffffffffffffffffffffffffffffff1673ffffffffffffffffffffffffffffffffffffffff1673ffffffffffffffffffffffffffffffffffffffff16815260200160028201805461090b90613c76565b80601f016020809104026020016040519081016040528092919081815260200182805461093790613c76565b80156109845780601f1061095957610100808354040283529160200191610984565b820191906000526020600020905b81548152906001019060200180831161096757829003601f168201915b5050505050815260200160038201805461099d90613c76565b80601f01602080910402602001604051908101604052809291908181526020018280546109c990613c76565b8015610a165780601f106109eb57610100808354040283529160200191610a16565b820191906000526020600020905b8154815290600101906020018083116109f957829003601f168201915b50505050508152602001600482018054610a2f90613c76565b80601f0160208091040260200160405190810160405280929190818152602001828054610a5b90613c76565b8015610aa85780601f10610a7d57610100808354040283529160200191610aa8565b820191906000526020600020905b815481529060010190602001808311610a8b57829003601f168201915b5050505050815260200160058201805480602002602001604051908101604052809291908181526020016000905b82821015610b82578382906000526020600020018054610af590613c76565b80601f0160208091040260200160405190810160405280929190818152602001828054610b2190613c76565b8015610b6e5780601f10610b4357610100808354040283529160200191610b6e565b820191906000526020600020905b815481529060010190602001808311610b5157829003601f168201915b505050505081526020019060010190610ad6565b5050505081526020016006820160009054906101000a900460ff161515151581525050838380610bb190613cd9565b945081518110610bc457610bc3613daf565b5b60200260200101819052505b8080610bdb90613cd9565b9150506107dd565b808395509550505050509250929050565b60006060600060058054905067ffffffffffffffff811115610c1957610c18613dde565b5b604051908082528060200260200182016040528015610c5257816020015b610c3f612c8e565b815260200190600190039081610c375790505b5090506000808690505b60058054905081108015610c6f57508582105b156110215760058181548110610c8857610c87613daf565b5b906000526020600020906007020160060160009054906101000a900460ff161561100e5760058181548110610cc057610cbf613daf565b5b90600052602060002090600702016040518060e0016040529081600082015481526020016001820160009054906101000a900473ffffffffffffffffffffffffffffffffffffffff1673ffffffffffffffffffffffffffffffffffffffff1673ffffffffffffffffffffffffffffffffffffffff168152602001600282018054610d4990613c76565b80601f0160208091040260200160405190810160405280929190818152602001828054610d7590613c76565b8015610dc25780601f10610d9757610100808354040283529160200191610dc2565b820191906000526020600020905b815481529060010190602001808311610da557829003601f168201915b50505050508152602001600382018054610ddb90613c76565b80601f0160208091040260200160405190810160405280929190818152602001828054610e0790613c76565b8015610e545780601f10610e2957610100808354040283529160200191610e54565b820191906000526020600020905b815481529060010190602001808311610e3757829003601f168201915b50505050508152602001600482018054610e6d90613c76565b80601f0160208091040260200160405190810160405280929190818152602001828054610e9990613c76565b8015610ee65780601f10610ebb57610100808354040283529160200191610ee6565b820191906000526020600020905b815481529060010190602001808311610ec957829003601f168201915b5050505050815260200160058201805480602002602001604051908101604052809291908181526020016000905b82821015610fc0578382906000526020600020018054610f3390613c76565b80601f0160208091040260200160405190810160405280929190818152602001828054610f5f90613c76565b8015610fac5780601f10610f8157610100808354040283529160200191610fac565b820191906000526020600020905b815481529060010190602001808311610f8f57829003601f168201915b505050505081526020019060010190610f14565b5050505081526020016006820160009054906101000a900460ff161515151581525050838380610fef90613cd9565b94508151811061100257611001613daf565b5b60200260200101819052505b808061101990613cd9565b915050610c5c565b8083945094505050509250929050565b6110396126d9565b73ffffffffffffffffffffffffffffffffffffffff166110576110b9565b73ffffffffffffffffffffffffffffffffffffffff16146110ad576040517f08c379a00000000000000000000000000000000000000000000000000000000081526004016110a490613844565b60405180910390fd5b6110b760006126e1565b565b60008060009054906101000a900473ffffffffffffffffffffffffffffffffffffffff16905090565b60006060600060058054905067ffffffffffffffff81111561110757611106613dde565b5b60405190808252806020026020018201604052801561114057816020015b61112d612c8e565b8152602001906001900390816111255790505b5090506000808690505b6005805490508110801561115d57508582105b1561191a576005818154811061117657611175613daf565b5b906000526020600020906007020160060160009054906101000a900460ff1661119e57611907565b60006001905060008b6040516020016111b79190613746565b6040516020818303038152906040528051906020012090506040516020016111de90613772565b60405160208183030381529060405280519060200120811461136f576000600584815481106112105761120f613daf565b5b9060005260206000209060070201600501805480602002602001604051908101604052809291908181526020016000905b828210156112ed57838290600052602060002001805461126090613c76565b80601f016020809104026020016040519081016040528092919081815260200182805461128c90613c76565b80156112d95780601f106112ae576101008083540402835291602001916112d9565b820191906000526020600020905b8154815290600101906020018083116112bc57829003601f168201915b505050505081526020019060010190611241565b50505050905060005b815181101561135f5781818151811061131257611311613daf565b5b602002602001015160405160200161132a9190613746565b6040516020818303038152906040528051906020012083141561134c5761135f565b808061135790613cd9565b9150506112f6565b8151811061136c57600093505b50505b8180156114245750600073ffffffffffffffffffffffffffffffffffffffff168b73ffffffffffffffffffffffffffffffffffffffff161415806114235750600583815481106113c2576113c1613daf565b5b906000526020600020906007020160010160009054906101000a900473ffffffffffffffffffffffffffffffffffffffff1673ffffffffffffffffffffffffffffffffffffffff168b73ffffffffffffffffffffffffffffffffffffffff16145b5b80156114d4575060008a1415806114d35750600260006005858154811061144e5761144d613daf565b5b906000526020600020906007020160010160009054906101000a900473ffffffffffffffffffffffffffffffffffffffff1673ffffffffffffffffffffffffffffffffffffffff1673ffffffffffffffffffffffffffffffffffffffff1681526020019081526020016000206000848152602001908152602001600020600201548a11155b5b801561159357506115928d600585815481106114f3576114f2613daf565b5b9060005260206000209060070201600201805461150f90613c76565b80601f016020809104026020016040519081016040528092919081815260200182805461153b90613c76565b80156115885780601f1061155d57610100808354040283529160200191611588565b820191906000526020600020905b81548152906001019060200180831161156b57829003601f168201915b50505050506127a5565b5b61159c57600091505b811561190457600583815481106115b6576115b5613daf565b5b90600052602060002090600702016040518060e0016040529081600082015481526020016001820160009054906101000a900473ffffffffffffffffffffffffffffffffffffffff1673ffffffffffffffffffffffffffffffffffffffff1673ffffffffffffffffffffffffffffffffffffffff16815260200160028201805461163f90613c76565b80601f016020809104026020016040519081016040528092919081815260200182805461166b90613c76565b80156116b85780601f1061168d576101008083540402835291602001916116b8565b820191906000526020600020905b81548152906001019060200180831161169b57829003601f168201915b505050505081526020016003820180546116d190613c76565b80601f01602080910402602001604051908101604052809291908181526020018280546116fd90613c76565b801561174a5780601f1061171f5761010080835404028352916020019161174a565b820191906000526020600020905b81548152906001019060200180831161172d57829003601f168201915b5050505050815260200160048201805461176390613c76565b80601f016020809104026020016040519081016040528092919081815260200182805461178f90613c76565b80156117dc5780601f106117b1576101008083540402835291602001916117dc565b820191906000526020600020905b8154815290600101906020018083116117bf57829003601f168201915b5050505050815260200160058201805480602002602001604051908101604052809291908181526020016000905b828210156118b657838290600052602060002001805461182990613c76565b80601f016020809104026020016040519081016040528092919081815260200182805461185590613c76565b80156118a25780601f10611877576101008083540402835291602001916118a2565b820191906000526020600020905b81548152906001019060200180831161188557829003601f168201915b50505050508152602001906001019061180a565b5050505081526020016006820160009054906101000a900460ff1615151515815250508585806118e590613cd9565b9650815181106118f8576118f7613daf565b5b60200260200101819052505b50505b808061191290613cd9565b91505061114a565b808394509450505050965096945050505050565b81818073ffffffffffffffffffffffffffffffffffffffff166005838154811061195b5761195a613daf565b5b906000526020600020906007020160010160009054906101000a900473ffffffffffffffffffffffffffffffffffffffff1673ffffffffffffffffffffffffffffffffffffffff16146119e3576040517f08c379a00000000000000000000000000000000000000000000000000000000081526004016119da90613804565b60405180910390fd5b6000600260008573ffffffffffffffffffffffffffffffffffffffff1673ffffffffffffffffffffffffffffffffffffffff1681526020019081526020016000206000868152602001908152602001600020604051806080016040529081600082015481526020016001820154815260200160028201548152602001600382015481525050905080602001518160000151611a7e9190613ad7565b341015611ac0576040517f08c379a0000000000000000000000000000000000000000000000000000000008152600401611ab790613864565b60405180910390fd5b60008473ffffffffffffffffffffffffffffffffffffffff168260000151604051611aea9061375d565b60006040518083038185875af1925050503d8060008114611b27576040519150601f19603f3d011682016040523d82523d6000602084013e611b2c565b606091505b5050905080611b70576040517f08c379a0000000000000000000000000000000000000000000000000000000008152600401611b6790613824565b60405180910390fd5b600460008781526020019081526020016000206040518060a001604052808460000151815260200184602001518152602001846040015181526020018773ffffffffffffffffffffffffffffffffffffffff1681526020013373ffffffffffffffffffffffffffffffffffffffff16815250908060018154018082558091505060019003906000526020600020906005020160009091909190915060008201518160000155602082015181600101556040820151816002015560608201518160030160006101000a81548173ffffffffffffffffffffffffffffffffffffffff021916908373ffffffffffffffffffffffffffffffffffffffff16021790555060808201518160040160006101000a81548173ffffffffffffffffffffffffffffffffffffffff021916908373ffffffffffffffffffffffffffffffffffffffff1602179055505050611cc48533886128cd565b611ccc6110b9565b73ffffffffffffffffffffffffffffffffffffffff168260200151604051611cf39061375d565b60006040518083038185875af1925050503d8060008114611d30576040519150601f19603f3d011682016040523d82523d6000602084013e611d35565b606091505b50508091505080611d7b576040517f08c379a0000000000000000000000000000000000000000000000000000000008152600401611d72906137e4565b60405180910390fd5b505050505050565b611d8b6126d9565b73ffffffffffffffffffffffffffffffffffffffff16611da96110b9565b73ffffffffffffffffffffffffffffffffffffffff1614611dff576040517f08c379a0000000000000000000000000000000000000000000000000000000008152600401611df690613844565b60405180910390fd5b8060068190555050565b611e11612ce3565b600060058381548110611e2757611e26613daf565b5b90600052602060002090600702016040518060e0016040529081600082015481526020016001820160009054906101000a900473ffffffffffffffffffffffffffffffffffffffff1673ffffffffffffffffffffffffffffffffffffffff1673ffffffffffffffffffffffffffffffffffffffff168152602001600282018054611eb090613c76565b80601f0160208091040260200160405190810160405280929190818152602001828054611edc90613c76565b8015611f295780601f10611efe57610100808354040283529160200191611f29565b820191906000526020600020905b815481529060010190602001808311611f0c57829003601f168201915b50505050508152602001600382018054611f4290613c76565b80601f0160208091040260200160405190810160405280929190818152602001828054611f6e90613c76565b8015611fbb5780601f10611f9057610100808354040283529160200191611fbb565b820191906000526020600020905b815481529060010190602001808311611f9e57829003601f168201915b50505050508152602001600482018054611fd490613c76565b80601f016020809104026020016040519081016040528092919081815260200182805461200090613c76565b801561204d5780601f106120225761010080835404028352916020019161204d565b820191906000526020600020905b81548152906001019060200180831161203057829003601f168201915b5050505050815260200160058201805480602002602001604051908101604052809291908181526020016000905b8282101561212757838290600052602060002001805461209a90613c76565b80601f01602080910402602001604051908101604052809291908181526020018280546120c690613c76565b80156121135780601f106120e857610100808354040283529160200191612113565b820191906000526020600020905b8154815290600101906020018083116120f657829003601f168201915b50505050508152602001906001019061207b565b5050505081526020016006820160009054906101000a900460ff1615151515815250509050600115158160c0015115151461216157600080fd5b60026000826020015173ffffffffffffffffffffffffffffffffffffffff1673ffffffffffffffffffffffffffffffffffffffff1681526020019081526020016000206000848152602001908152602001600020604051806080016040529081600082015481526020016001820154815260200160028201548152602001600382015481525050915050919050565b60006001600081548092919061220590613cd9565b91905055905060006040518060e001604052808381526020013373ffffffffffffffffffffffffffffffffffffffff16815260200187815260200186815260200185815260200184815260200160001515815250905060058190806001815401808255809150506001900390600052602060002090600702016000909190919091506000820151816000015560208201518160010160006101000a81548173ffffffffffffffffffffffffffffffffffffffff021916908373ffffffffffffffffffffffffffffffffffffffff16021790555060408201518160020190805190602001906122f4929190612ba8565b506060820151816003019080519060200190612311929190612ba8565b50608082015181600401908051906020019061232e929190612ba8565b5060a082015181600501908051906020019061234b929190612c2e565b5060c08201518160060160006101000a81548160ff02191690831515021790555050506001600360003373ffffffffffffffffffffffffffffffffffffffff1673ffffffffffffffffffffffffffffffffffffffff168152602001908152602001600020600084815260200190815260200160002060006101000a81548160ff021916908315150217905550505050505050565b81338073ffffffffffffffffffffffffffffffffffffffff166005838154811061240c5761240b613daf565b5b906000526020600020906007020160010160009054906101000a900473ffffffffffffffffffffffffffffffffffffffff1673ffffffffffffffffffffffffffffffffffffffff1614612494576040517f08c379a000000000000000000000000000000000000000000000000000000000815260040161248b90613804565b60405180910390fd5b61249f338585612a50565b50505050565b6124ad6126d9565b73ffffffffffffffffffffffffffffffffffffffff166124cb6110b9565b73ffffffffffffffffffffffffffffffffffffffff1614612521576040517f08c379a000000000000000000000000000000000000000000000000000000000815260040161251890613844565b60405180910390fd5b600073ffffffffffffffffffffffffffffffffffffffff168173ffffffffffffffffffffffffffffffffffffffff161415612591576040517f08c379a0000000000000000000000000000000000000000000000000000000008152600401612588906137c4565b60405180910390fd5b61259a816126e1565b50565b606060046000838152602001908152602001600020805480602002602001604051908101604052809291908181526020016000905b828210156126ce57838290600052602060002090600502016040518060a00160405290816000820154815260200160018201548152602001600282015481526020016003820160009054906101000a900473ffffffffffffffffffffffffffffffffffffffff1673ffffffffffffffffffffffffffffffffffffffff1673ffffffffffffffffffffffffffffffffffffffff1681526020016004820160009054906101000a900473ffffffffffffffffffffffffffffffffffffffff1673ffffffffffffffffffffffffffffffffffffffff1673ffffffffffffffffffffffffffffffffffffffff1681525050815260200190600101906125d2565b505050509050919050565b600033905090565b60008060009054906101000a900473ffffffffffffffffffffffffffffffffffffffff169050816000806101000a81548173ffffffffffffffffffffffffffffffffffffffff021916908373ffffffffffffffffffffffffffffffffffffffff1602179055508173ffffffffffffffffffffffffffffffffffffffff168173ffffffffffffffffffffffffffffffffffffffff167f8be0079c531659141344cd1fd0a4f28419497f9722a3daafe3b4186f6b6457e060405160405180910390a35050565b60008083905060008390508151815110156127c5576000925050506128c7565b6000925060005b825182516127da9190613bb8565b81116128c35760006001905060005b845181101561289e5784818151811061280557612804613daf565b5b602001015160f81c60f81b7effffffffffffffffffffffffffffffffffffffffffffffffffffffffffffff191684828561283f9190613ad7565b815181106128505761284f613daf565b5b602001015160f81c60f81b7effffffffffffffffffffffffffffffffffffffffffffffffffffffffffffff19161461288b576000915061289e565b808061289690613cd9565b9150506127e9565b5080156128af5760019450506128c3565b5080806128bb90613cd9565b9150506127cc565b5050505b92915050565b6001600360008473ffffffffffffffffffffffffffffffffffffffff1673ffffffffffffffffffffffffffffffffffffffff168152602001908152602001600020600083815260200190815260200160002060006101000a81548160ff021916908315150217905550816005828154811061294b5761294a613daf565b5b906000526020600020906007020160010160006101000a81548173ffffffffffffffffffffffffffffffffffffffff021916908373ffffffffffffffffffffffffffffffffffffffff1602179055506000600582815481106129b0576129af613daf565b5b906000526020600020906007020160060160006101000a81548160ff021916908315150217905550600260008473ffffffffffffffffffffffffffffffffffffffff1673ffffffffffffffffffffffffffffffffffffffff16815260200190815260200160002060008281526020019081526020016000206000808201600090556001820160009055600282016000905560038201600090555050505050565b6040518060800160405280828152602001606460065484612a719190613b5e565b612a7b9190613b2d565b815260200142815260200183815250600260008573ffffffffffffffffffffffffffffffffffffffff1673ffffffffffffffffffffffffffffffffffffffff168152602001908152602001600020600084815260200190815260200160002060008201518160000155602082015181600101556040820151816002015560608201518160030155905050600160058381548110612b1b57612b1a613daf565b5b906000526020600020906007020160060160006101000a81548160ff021916908315150217905550600360008473ffffffffffffffffffffffffffffffffffffffff1673ffffffffffffffffffffffffffffffffffffffff168152602001908152602001600020600083815260200190815260200160002060006101000a81549060ff0219169055505050565b828054612bb490613c76565b90600052602060002090601f016020900481019282612bd65760008555612c1d565b82601f10612bef57805160ff1916838001178555612c1d565b82800160010185558215612c1d579182015b82811115612c1c578251825591602001919060010190612c01565b5b509050612c2a9190612d0b565b5090565b828054828255906000526020600020908101928215612c7d579160200282015b82811115612c7c578251829080519060200190612c6c929190612ba8565b5091602001919060010190612c4e565b5b509050612c8a9190612d28565b5090565b6040518060e0016040528060008152602001600073ffffffffffffffffffffffffffffffffffffffff168152602001606081526020016060815260200160608152602001606081526020016000151581525090565b6040518060800160405280600081526020016000815260200160008152602001600081525090565b5b80821115612d24576000816000905550600101612d0c565b5090565b5b80821115612d485760008181612d3f9190612d4c565b50600101612d29565b5090565b508054612d5890613c76565b6000825580601f10612d6a5750612d89565b601f016020900490600052602060002090810190612d889190612d0b565b5b50565b6000612d9f612d9a8461398c565b613967565b90508083825260208201905082856020860282011115612dc257612dc1613e12565b5b60005b85811015612e1057813567ffffffffffffffff811115612de857612de7613e0d565b5b808601612df58982612e9f565b85526020850194506020840193505050600181019050612dc5565b5050509392505050565b6000612e2d612e28846139b8565b613967565b905082815260208101848484011115612e4957612e48613e17565b5b612e54848285613c34565b509392505050565b600081359050612e6b81613fa2565b92915050565b600082601f830112612e8657612e85613e0d565b5b8135612e96848260208601612d8c565b91505092915050565b600082601f830112612eb457612eb3613e0d565b5b8135612ec4848260208601612e1a565b91505092915050565b600081359050612edc81613fb9565b92915050565b600060208284031215612ef857612ef7613e21565b5b6000612f0684828501612e5c565b91505092915050565b60008060408385031215612f2657612f25613e21565b5b6000612f3485828601612e5c565b9250506020612f4585828601612ecd565b9150509250929050565b60008060008060008060c08789031215612f6c57612f6b613e21565b5b600087013567ffffffffffffffff811115612f8a57612f89613e1c565b5b612f9689828a01612e9f565b965050602087013567ffffffffffffffff811115612fb757612fb6613e1c565b5b612fc389828a01612e9f565b9550506040612fd489828a01612e5c565b9450506060612fe589828a01612ecd565b9350506080612ff689828a01612ecd565b92505060a061300789828a01612ecd565b9150509295509295509295565b6000806000806080858703121561302e5761302d613e21565b5b600085013567ffffffffffffffff81111561304c5761304b613e1c565b5b61305887828801612e9f565b945050602085013567ffffffffffffffff81111561307957613078613e1c565b5b61308587828801612e9f565b935050604085013567ffffffffffffffff8111156130a6576130a5613e1c565b5b6130b287828801612e9f565b925050606085013567ffffffffffffffff8111156130d3576130d2613e1c565b5b6130df87828801612e71565b91505092959194509250565b600080600080600060a0868803121561310757613106613e21565b5b600086013567ffffffffffffffff81111561312557613124613e1c565b5b61313188828901612e9f565b955050602086013567ffffffffffffffff81111561315257613151613e1c565b5b61315e88828901612e9f565b945050604086013567ffffffffffffffff81111561317f5761317e613e1c565b5b61318b88828901612e9f565b935050606086013567ffffffffffffffff8111156131ac576131ab613e1c565b5b6131b888828901612e71565b92505060806131c988828901612ecd565b9150509295509295909350565b6000602082840312156131ec576131eb613e21565b5b60006131fa84828501612ecd565b91505092915050565b6000806040838503121561321a57613219613e21565b5b600061322885828601612ecd565b925050602061323985828601612e5c565b9150509250929050565b6000806040838503121561325a57613259613e21565b5b600061326885828601612ecd565b925050602061327985828601612ecd565b9150509250929050565b600061328f8383613438565b905092915050565b60006132a383836135ba565b905092915050565b60006132b783836136c0565b60a08301905092915050565b6132cc81613bec565b82525050565b6132db81613bec565b82525050565b60006132ec82613a19565b6132f68185613a6c565b935083602082028501613308856139e9565b8060005b8581101561334457848403895281516133258582613283565b945061333083613a45565b925060208a0199505060018101905061330c565b50829750879550505050505092915050565b600061336182613a24565b61336b8185613a7d565b93508360208202850161337d856139f9565b8060005b858110156133b9578484038952815161339a8582613297565b94506133a583613a52565b925060208a01995050600181019050613381565b50829750879550505050505092915050565b60006133d682613a2f565b6133e08185613a8e565b93506133eb83613a09565b8060005b8381101561341c57815161340388826132ab565b975061340e83613a5f565b9250506001810190506133ef565b5085935050505092915050565b61343281613bfe565b82525050565b600061344382613a3a565b61344d8185613aaa565b935061345d818560208601613c43565b61346681613e26565b840191505092915050565b600061347c82613a3a565b6134868185613acc565b9350613496818560208601613c43565b80840191505092915050565b60006134af602683613abb565b91506134ba82613e37565b604082019050919050565b60006134d2603383613abb565b91506134dd82613e86565b604082019050919050565b60006134f5603583613abb565b915061350082613ed5565b604082019050919050565b6000613518601383613abb565b915061352382613f24565b602082019050919050565b600061353b602083613abb565b915061354682613f4d565b602082019050919050565b600061355e600083613a9f565b915061356982613f76565b600082019050919050565b6000613581600083613acc565b915061358c82613f76565b600082019050919050565b60006135a4601483613abb565b91506135af82613f79565b602082019050919050565b600060e0830160008301516135d26000860182613728565b5060208301516135e560208601826132c3565b50604083015184820360408601526135fd8282613438565b915050606083015184820360608601526136178282613438565b915050608083015184820360808601526136318282613438565b91505060a083015184820360a086015261364b82826132e1565b91505060c083015161366060c0860182613429565b508091505092915050565b6080820160008201516136816000850182613728565b5060208201516136946020850182613728565b5060408201516136a76040850182613728565b5060608201516136ba6060850182613728565b50505050565b60a0820160008201516136d66000850182613728565b5060208201516136e96020850182613728565b5060408201516136fc6040850182613728565b50606082015161370f60608501826132c3565b50608082015161372260808501826132c3565b50505050565b61373181613c2a565b82525050565b61374081613c2a565b82525050565b60006137528284613471565b915081905092915050565b600061376882613551565b9150819050919050565b600061377d82613574565b9150819050919050565b600060208201905061379c60008301846132d2565b92915050565b600060208201905081810360008301526137bc81846133cb565b905092915050565b600060208201905081810360008301526137dd816134a2565b9050919050565b600060208201905081810360008301526137fd816134c5565b9050919050565b6000602082019050818103600083015261381d816134e8565b9050919050565b6000602082019050818103600083015261383d8161350b565b9050919050565b6000602082019050818103600083015261385d8161352e565b9050919050565b6000602082019050818103600083015261387d81613597565b9050919050565b6000608082019050613899600083018461366b565b92915050565b60006040820190506138b46000830185613737565b81810360208301526138c68184613356565b90509392505050565b600060a0820190506138e46000830188613737565b6138f16020830187613737565b6138fe6040830186613737565b61390b60608301856132d2565b61391860808301846132d2565b9695505050505050565b60006080820190506139376000830187613737565b6139446020830186613737565b6139516040830185613737565b61395e6060830184613737565b95945050505050565b6000613971613982565b905061397d8282613ca8565b919050565b6000604051905090565b600067ffffffffffffffff8211156139a7576139a6613dde565b5b602082029050602081019050919050565b600067ffffffffffffffff8211156139d3576139d2613dde565b5b6139dc82613e26565b9050602081019050919050565b6000819050602082019050919050565b6000819050602082019050919050565b6000819050602082019050919050565b600081519050919050565b600081519050919050565b600081519050919050565b600081519050919050565b6000602082019050919050565b6000602082019050919050565b6000602082019050919050565b600082825260208201905092915050565b600082825260208201905092915050565b600082825260208201905092915050565b600081905092915050565b600082825260208201905092915050565b600082825260208201905092915050565b600081905092915050565b6000613ae282613c2a565b9150613aed83613c2a565b9250827fffffffffffffffffffffffffffffffffffffffffffffffffffffffffffffffff03821115613b2257613b21613d22565b5b828201905092915050565b6000613b3882613c2a565b9150613b4383613c2a565b925082613b5357613b52613d51565b5b828204905092915050565b6000613b6982613c2a565b9150613b7483613c2a565b9250817fffffffffffffffffffffffffffffffffffffffffffffffffffffffffffffffff0483118215151615613bad57613bac613d22565b5b828202905092915050565b6000613bc382613c2a565b9150613bce83613c2a565b925082821015613be157613be0613d22565b5b828203905092915050565b6000613bf782613c0a565b9050919050565b60008115159050919050565b600073ffffffffffffffffffffffffffffffffffffffff82169050919050565b6000819050919050565b82818337600083830152505050565b60005b83811015613c61578082015181840152602081019050613c46565b83811115613c70576000848401525b50505050565b60006002820490506001821680613c8e57607f821691505b60208210811415613ca257613ca1613d80565b5b50919050565b613cb182613e26565b810181811067ffffffffffffffff82111715613cd057613ccf613dde565b5b80604052505050565b6000613ce482613c2a565b91507fffffffffffffffffffffffffffffffffffffffffffffffffffffffffffffffff821415613d1757613d16613d22565b5b600182019050919050565b7f4e487b7100000000000000000000000000000000000000000000000000000000600052601160045260246000fd5b7f4e487b7100000000000000000000000000000000000000000000000000000000600052601260045260246000fd5b7f4e487b7100000000000000000000000000000000000000000000000000000000600052602260045260246000fd5b7f4e487b7100000000000000000000000000000000000000000000000000000000600052603260045260246000fd5b7f4e487b7100000000000000000000000000000000000000000000000000000000600052604160045260246000fd5b600080fd5b600080fd5b600080fd5b600080fd5b600080fd5b6000601f19601f8301169050919050565b7f4f776e61626c653a206e6577206f776e657220697320746865207a65726f206160008201527f6464726573730000000000000000000000000000000000000000000000000000602082015250565b7f46656573207061796d656e74206661696c656420627574207472616e7361637460008201527f696f6e20776173207375636365737366756c2100000000000000000000000000602082015250565b7f54686520737570706c6965642061646472657373206973206e6f74207468652060008201527f6f776e6572206f66207468652070726f64756374210000000000000000000000602082015250565b7f5472616e73616374696f6e206661696c65642100000000000000000000000000600082015250565b7f4f776e61626c653a2063616c6c6572206973206e6f7420746865206f776e6572600082015250565b50565b7f4e6f7420656e6f756768207765692073656e7421000000000000000000000000600082015250565b613fab81613bec565b8114613fb657600080fd5b50565b613fc281613c2a565b8114613fcd57600080fd5b5056fea26469706673582212206eeb85a96e66c6b070959ddea8d9401d6918979af36e92d01814afd46eca828664736f6c63430008070033",
					"opcodes": "PUSH1 0x80 PUSH1 0x40 MSTORE PUSH1 0x0 PUSH1 0x1 SSTORE PUSH1 0x2 PUSH1 0x6 SSTORE CALLVALUE DUP1 ISZERO PUSH3 0x1B JUMPI PUSH1 0x0 DUP1 REVERT JUMPDEST POP PUSH3 0x3C PUSH3 0x30 PUSH3 0x42 PUSH1 0x20 SHL PUSH1 0x20 SHR JUMP JUMPDEST PUSH3 0x4A PUSH1 0x20 SHL PUSH1 0x20 SHR JUMP JUMPDEST PUSH3 0x10E JUMP JUMPDEST PUSH1 0x0 CALLER SWAP1 POP SWAP1 JUMP JUMPDEST PUSH1 0x0 DUP1 PUSH1 0x0 SWAP1 SLOAD SWAP1 PUSH2 0x100 EXP SWAP1 DIV PUSH20 0xFFFFFFFFFFFFFFFFFFFFFFFFFFFFFFFFFFFFFFFF AND SWAP1 POP DUP2 PUSH1 0x0 DUP1 PUSH2 0x100 EXP DUP2 SLOAD DUP2 PUSH20 0xFFFFFFFFFFFFFFFFFFFFFFFFFFFFFFFFFFFFFFFF MUL NOT AND SWAP1 DUP4 PUSH20 0xFFFFFFFFFFFFFFFFFFFFFFFFFFFFFFFFFFFFFFFF AND MUL OR SWAP1 SSTORE POP DUP2 PUSH20 0xFFFFFFFFFFFFFFFFFFFFFFFFFFFFFFFFFFFFFFFF AND DUP2 PUSH20 0xFFFFFFFFFFFFFFFFFFFFFFFFFFFFFFFFFFFFFFFF AND PUSH32 0x8BE0079C531659141344CD1FD0A4F28419497F9722A3DAAFE3B4186F6B6457E0 PUSH1 0x40 MLOAD PUSH1 0x40 MLOAD DUP1 SWAP2 SUB SWAP1 LOG3 POP POP JUMP JUMPDEST PUSH2 0x4006 DUP1 PUSH3 0x11E PUSH1 0x0 CODECOPY PUSH1 0x0 RETURN INVALID PUSH1 0x80 PUSH1 0x40 MSTORE PUSH1 0x4 CALLDATASIZE LT PUSH2 0xF3 JUMPI PUSH1 0x0 CALLDATALOAD PUSH1 0xE0 SHR DUP1 PUSH4 0x9CCBFF6B GT PUSH2 0x8A JUMPI DUP1 PUSH4 0xDD46FA5D GT PUSH2 0x59 JUMPI DUP1 PUSH4 0xDD46FA5D EQ PUSH2 0x35D JUMPI DUP1 PUSH4 0xE31465DF EQ PUSH2 0x386 JUMPI DUP1 PUSH4 0xF2FDE38B EQ PUSH2 0x3AF JUMPI DUP1 PUSH4 0xFE3D5538 EQ PUSH2 0x3D8 JUMPI PUSH2 0xF3 JUMP JUMPDEST DUP1 PUSH4 0x9CCBFF6B EQ PUSH2 0x29D JUMPI DUP1 PUSH4 0xA3274C21 EQ PUSH2 0x2DB JUMPI DUP1 PUSH4 0xAE06C1B7 EQ PUSH2 0x2F7 JUMPI DUP1 PUSH4 0xBED59EAE EQ PUSH2 0x320 JUMPI PUSH2 0xF3 JUMP JUMPDEST DUP1 PUSH4 0x3F255FF9 GT PUSH2 0xC6 JUMPI DUP1 PUSH4 0x3F255FF9 EQ PUSH2 0x1DF JUMPI DUP1 PUSH4 0x6D168461 EQ PUSH2 0x21D JUMPI DUP1 PUSH4 0x715018A6 EQ PUSH2 0x25B JUMPI DUP1 PUSH4 0x8DA5CB5B EQ PUSH2 0x272 JUMPI PUSH2 0xF3 JUMP JUMPDEST DUP1 PUSH4 0xE448C1E EQ PUSH2 0xF8 JUMPI DUP1 PUSH4 0x22634D21 EQ PUSH2 0x121 JUMPI DUP1 PUSH4 0x28CBC038 EQ PUSH2 0x161 JUMPI DUP1 PUSH4 0x3A7D2376 EQ PUSH2 0x19E JUMPI JUMPDEST PUSH1 0x0 DUP1 REVERT JUMPDEST CALLVALUE DUP1 ISZERO PUSH2 0x104 JUMPI PUSH1 0x0 DUP1 REVERT JUMPDEST POP PUSH2 0x11F PUSH1 0x4 DUP1 CALLDATASIZE SUB DUP2 ADD SWAP1 PUSH2 0x11A SWAP2 SWAP1 PUSH2 0x30EB JUMP JUMPDEST PUSH2 0x415 JUMP JUMPDEST STOP JUMPDEST CALLVALUE DUP1 ISZERO PUSH2 0x12D JUMPI PUSH1 0x0 DUP1 REVERT JUMPDEST POP PUSH2 0x148 PUSH1 0x4 DUP1 CALLDATASIZE SUB DUP2 ADD SWAP1 PUSH2 0x143 SWAP2 SWAP1 PUSH2 0x2F0F JUMP JUMPDEST PUSH2 0x651 JUMP JUMPDEST PUSH1 0x40 MLOAD PUSH2 0x158 SWAP5 SWAP4 SWAP3 SWAP2 SWAP1 PUSH2 0x3922 JUMP JUMPDEST PUSH1 0x40 MLOAD DUP1 SWAP2 SUB SWAP1 RETURN JUMPDEST CALLVALUE DUP1 ISZERO PUSH2 0x16D JUMPI PUSH1 0x0 DUP1 REVERT JUMPDEST POP PUSH2 0x188 PUSH1 0x4 DUP1 CALLDATASIZE SUB DUP2 ADD SWAP1 PUSH2 0x183 SWAP2 SWAP1 PUSH2 0x31D6 JUMP JUMPDEST PUSH2 0x68E JUMP JUMPDEST PUSH1 0x40 MLOAD PUSH2 0x195 SWAP2 SWAP1 PUSH2 0x3787 JUMP JUMPDEST PUSH1 0x40 MLOAD DUP1 SWAP2 SUB SWAP1 RETURN JUMPDEST CALLVALUE DUP1 ISZERO PUSH2 0x1AA JUMPI PUSH1 0x0 DUP1 REVERT JUMPDEST POP PUSH2 0x1C5 PUSH1 0x4 DUP1 CALLDATASIZE SUB DUP2 ADD SWAP1 PUSH2 0x1C0 SWAP2 SWAP1 PUSH2 0x3243 JUMP JUMPDEST PUSH2 0x6DD JUMP JUMPDEST PUSH1 0x40 MLOAD PUSH2 0x1D6 SWAP6 SWAP5 SWAP4 SWAP3 SWAP2 SWAP1 PUSH2 0x38CF JUMP JUMPDEST PUSH1 0x40 MLOAD DUP1 SWAP2 SUB SWAP1 RETURN JUMPDEST CALLVALUE DUP1 ISZERO PUSH2 0x1EB JUMPI PUSH1 0x0 DUP1 REVERT JUMPDEST POP PUSH2 0x206 PUSH1 0x4 DUP1 CALLDATASIZE SUB DUP2 ADD SWAP1 PUSH2 0x201 SWAP2 SWAP1 PUSH2 0x3243 JUMP JUMPDEST PUSH2 0x770 JUMP JUMPDEST PUSH1 0x40 MLOAD PUSH2 0x214 SWAP3 SWAP2 SWAP1 PUSH2 0x389F JUMP JUMPDEST PUSH1 0x40 MLOAD DUP1 SWAP2 SUB SWAP1 RETURN JUMPDEST CALLVALUE DUP1 ISZERO PUSH2 0x229 JUMPI PUSH1 0x0 DUP1 REVERT JUMPDEST POP PUSH2 0x244 PUSH1 0x4 DUP1 CALLDATASIZE SUB DUP2 ADD SWAP1 PUSH2 0x23F SWAP2 SWAP1 PUSH2 0x3243 JUMP JUMPDEST PUSH2 0xBF4 JUMP JUMPDEST PUSH1 0x40 MLOAD PUSH2 0x252 SWAP3 SWAP2 SWAP1 PUSH2 0x389F JUMP JUMPDEST PUSH1 0x40 MLOAD DUP1 SWAP2 SUB SWAP1 RETURN JUMPDEST CALLVALUE DUP1 ISZERO PUSH2 0x267 JUMPI PUSH1 0x0 DUP1 REVERT JUMPDEST POP PUSH2 0x270 PUSH2 0x1031 JUMP JUMPDEST STOP JUMPDEST CALLVALUE DUP1 ISZERO PUSH2 0x27E JUMPI PUSH1 0x0 DUP1 REVERT JUMPDEST POP PUSH2 0x287 PUSH2 0x10B9 JUMP JUMPDEST PUSH1 0x40 MLOAD PUSH2 0x294 SWAP2 SWAP1 PUSH2 0x3787 JUMP JUMPDEST PUSH1 0x40 MLOAD DUP1 SWAP2 SUB SWAP1 RETURN JUMPDEST CALLVALUE DUP1 ISZERO PUSH2 0x2A9 JUMPI PUSH1 0x0 DUP1 REVERT JUMPDEST POP PUSH2 0x2C4 PUSH1 0x4 DUP1 CALLDATASIZE SUB DUP2 ADD SWAP1 PUSH2 0x2BF SWAP2 SWAP1 PUSH2 0x2F4F JUMP JUMPDEST PUSH2 0x10E2 JUMP JUMPDEST PUSH1 0x40 MLOAD PUSH2 0x2D2 SWAP3 SWAP2 SWAP1 PUSH2 0x389F JUMP JUMPDEST PUSH1 0x40 MLOAD DUP1 SWAP2 SUB SWAP1 RETURN JUMPDEST PUSH2 0x2F5 PUSH1 0x4 DUP1 CALLDATASIZE SUB DUP2 ADD SWAP1 PUSH2 0x2F0 SWAP2 SWAP1 PUSH2 0x3203 JUMP JUMPDEST PUSH2 0x192E JUMP JUMPDEST STOP JUMPDEST CALLVALUE DUP1 ISZERO PUSH2 0x303 JUMPI PUSH1 0x0 DUP1 REVERT JUMPDEST POP PUSH2 0x31E PUSH1 0x4 DUP1 CALLDATASIZE SUB DUP2 ADD SWAP1 PUSH2 0x319 SWAP2 SWAP1 PUSH2 0x31D6 JUMP JUMPDEST PUSH2 0x1D83 JUMP JUMPDEST STOP JUMPDEST CALLVALUE DUP1 ISZERO PUSH2 0x32C JUMPI PUSH1 0x0 DUP1 REVERT JUMPDEST POP PUSH2 0x347 PUSH1 0x4 DUP1 CALLDATASIZE SUB DUP2 ADD SWAP1 PUSH2 0x342 SWAP2 SWAP1 PUSH2 0x31D6 JUMP JUMPDEST PUSH2 0x1E09 JUMP JUMPDEST PUSH1 0x40 MLOAD PUSH2 0x354 SWAP2 SWAP1 PUSH2 0x3884 JUMP JUMPDEST PUSH1 0x40 MLOAD DUP1 SWAP2 SUB SWAP1 RETURN JUMPDEST CALLVALUE DUP1 ISZERO PUSH2 0x369 JUMPI PUSH1 0x0 DUP1 REVERT JUMPDEST POP PUSH2 0x384 PUSH1 0x4 DUP1 CALLDATASIZE SUB DUP2 ADD SWAP1 PUSH2 0x37F SWAP2 SWAP1 PUSH2 0x3014 JUMP JUMPDEST PUSH2 0x21F0 JUMP JUMPDEST STOP JUMPDEST CALLVALUE DUP1 ISZERO PUSH2 0x392 JUMPI PUSH1 0x0 DUP1 REVERT JUMPDEST POP PUSH2 0x3AD PUSH1 0x4 DUP1 CALLDATASIZE SUB DUP2 ADD SWAP1 PUSH2 0x3A8 SWAP2 SWAP1 PUSH2 0x3243 JUMP JUMPDEST PUSH2 0x23DF JUMP JUMPDEST STOP JUMPDEST CALLVALUE DUP1 ISZERO PUSH2 0x3BB JUMPI PUSH1 0x0 DUP1 REVERT JUMPDEST POP PUSH2 0x3D6 PUSH1 0x4 DUP1 CALLDATASIZE SUB DUP2 ADD SWAP1 PUSH2 0x3D1 SWAP2 SWAP1 PUSH2 0x2EE2 JUMP JUMPDEST PUSH2 0x24A5 JUMP JUMPDEST STOP JUMPDEST CALLVALUE DUP1 ISZERO PUSH2 0x3E4 JUMPI PUSH1 0x0 DUP1 REVERT JUMPDEST POP PUSH2 0x3FF PUSH1 0x4 DUP1 CALLDATASIZE SUB DUP2 ADD SWAP1 PUSH2 0x3FA SWAP2 SWAP1 PUSH2 0x31D6 JUMP JUMPDEST PUSH2 0x259D JUMP JUMPDEST PUSH1 0x40 MLOAD PUSH2 0x40C SWAP2 SWAP1 PUSH2 0x37A2 JUMP JUMPDEST PUSH1 0x40 MLOAD DUP1 SWAP2 SUB SWAP1 RETURN JUMPDEST PUSH1 0x0 PUSH1 0x1 PUSH1 0x0 DUP2 SLOAD DUP1 SWAP3 SWAP2 SWAP1 PUSH2 0x42A SWAP1 PUSH2 0x3CD9 JUMP JUMPDEST SWAP2 SWAP1 POP SSTORE SWAP1 POP PUSH1 0x0 PUSH1 0x40 MLOAD DUP1 PUSH1 0xE0 ADD PUSH1 0x40 MSTORE DUP1 DUP4 DUP2 MSTORE PUSH1 0x20 ADD CALLER PUSH20 0xFFFFFFFFFFFFFFFFFFFFFFFFFFFFFFFFFFFFFFFF AND DUP2 MSTORE PUSH1 0x20 ADD DUP9 DUP2 MSTORE PUSH1 0x20 ADD DUP8 DUP2 MSTORE PUSH1 0x20 ADD DUP7 DUP2 MSTORE PUSH1 0x20 ADD DUP6 DUP2 MSTORE PUSH1 0x20 ADD PUSH1 0x1 ISZERO ISZERO DUP2 MSTORE POP SWAP1 POP PUSH1 0x5 DUP2 SWAP1 DUP1 PUSH1 0x1 DUP2 SLOAD ADD DUP1 DUP3 SSTORE DUP1 SWAP2 POP POP PUSH1 0x1 SWAP1 SUB SWAP1 PUSH1 0x0 MSTORE PUSH1 0x20 PUSH1 0x0 KECCAK256 SWAP1 PUSH1 0x7 MUL ADD PUSH1 0x0 SWAP1 SWAP2 SWAP1 SWAP2 SWAP1 SWAP2 POP PUSH1 0x0 DUP3 ADD MLOAD DUP2 PUSH1 0x0 ADD SSTORE PUSH1 0x20 DUP3 ADD MLOAD DUP2 PUSH1 0x1 ADD PUSH1 0x0 PUSH2 0x100 EXP DUP2 SLOAD DUP2 PUSH20 0xFFFFFFFFFFFFFFFFFFFFFFFFFFFFFFFFFFFFFFFF MUL NOT AND SWAP1 DUP4 PUSH20 0xFFFFFFFFFFFFFFFFFFFFFFFFFFFFFFFFFFFFFFFF AND MUL OR SWAP1 SSTORE POP PUSH1 0x40 DUP3 ADD MLOAD DUP2 PUSH1 0x2 ADD SWAP1 DUP1 MLOAD SWAP1 PUSH1 0x20 ADD SWAP1 PUSH2 0x519 SWAP3 SWAP2 SWAP1 PUSH2 0x2BA8 JUMP JUMPDEST POP PUSH1 0x60 DUP3 ADD MLOAD DUP2 PUSH1 0x3 ADD SWAP1 DUP1 MLOAD SWAP1 PUSH1 0x20 ADD SWAP1 PUSH2 0x536 SWAP3 SWAP2 SWAP1 PUSH2 0x2BA8 JUMP JUMPDEST POP PUSH1 0x80 DUP3 ADD MLOAD DUP2 PUSH1 0x4 ADD SWAP1 DUP1 MLOAD SWAP1 PUSH1 0x20 ADD SWAP1 PUSH2 0x553 SWAP3 SWAP2 SWAP1 PUSH2 0x2BA8 JUMP JUMPDEST POP PUSH1 0xA0 DUP3 ADD MLOAD DUP2 PUSH1 0x5 ADD SWAP1 DUP1 MLOAD SWAP1 PUSH1 0x20 ADD SWAP1 PUSH2 0x570 SWAP3 SWAP2 SWAP1 PUSH2 0x2C2E JUMP JUMPDEST POP PUSH1 0xC0 DUP3 ADD MLOAD DUP2 PUSH1 0x6 ADD PUSH1 0x0 PUSH2 0x100 EXP DUP2 SLOAD DUP2 PUSH1 0xFF MUL NOT AND SWAP1 DUP4 ISZERO ISZERO MUL OR SWAP1 SSTORE POP POP POP PUSH1 0x40 MLOAD DUP1 PUSH1 0x80 ADD PUSH1 0x40 MSTORE DUP1 DUP5 DUP2 MSTORE PUSH1 0x20 ADD PUSH1 0x64 PUSH1 0x6 SLOAD DUP7 PUSH2 0x5B4 SWAP2 SWAP1 PUSH2 0x3B5E JUMP JUMPDEST PUSH2 0x5BE SWAP2 SWAP1 PUSH2 0x3B2D JUMP JUMPDEST DUP2 MSTORE PUSH1 0x20 ADD TIMESTAMP DUP2 MSTORE PUSH1 0x20 ADD DUP4 DUP2 MSTORE POP PUSH1 0x2 PUSH1 0x0 CALLER PUSH20 0xFFFFFFFFFFFFFFFFFFFFFFFFFFFFFFFFFFFFFFFF AND PUSH20 0xFFFFFFFFFFFFFFFFFFFFFFFFFFFFFFFFFFFFFFFF AND DUP2 MSTORE PUSH1 0x20 ADD SWAP1 DUP2 MSTORE PUSH1 0x20 ADD PUSH1 0x0 KECCAK256 PUSH1 0x0 DUP5 DUP2 MSTORE PUSH1 0x20 ADD SWAP1 DUP2 MSTORE PUSH1 0x20 ADD PUSH1 0x0 KECCAK256 PUSH1 0x0 DUP3 ADD MLOAD DUP2 PUSH1 0x0 ADD SSTORE PUSH1 0x20 DUP3 ADD MLOAD DUP2 PUSH1 0x1 ADD SSTORE PUSH1 0x40 DUP3 ADD MLOAD DUP2 PUSH1 0x2 ADD SSTORE PUSH1 0x60 DUP3 ADD MLOAD DUP2 PUSH1 0x3 ADD SSTORE SWAP1 POP POP POP POP POP POP POP POP POP JUMP JUMPDEST PUSH1 0x2 PUSH1 0x20 MSTORE DUP2 PUSH1 0x0 MSTORE PUSH1 0x40 PUSH1 0x0 KECCAK256 PUSH1 0x20 MSTORE DUP1 PUSH1 0x0 MSTORE PUSH1 0x40 PUSH1 0x0 KECCAK256 PUSH1 0x0 SWAP2 POP SWAP2 POP POP DUP1 PUSH1 0x0 ADD SLOAD SWAP1 DUP1 PUSH1 0x1 ADD SLOAD SWAP1 DUP1 PUSH1 0x2 ADD SLOAD SWAP1 DUP1 PUSH1 0x3 ADD SLOAD SWAP1 POP DUP5 JUMP JUMPDEST PUSH1 0x0 PUSH1 0x5 DUP3 DUP2 SLOAD DUP2 LT PUSH2 0x6A4 JUMPI PUSH2 0x6A3 PUSH2 0x3DAF JUMP JUMPDEST JUMPDEST SWAP1 PUSH1 0x0 MSTORE PUSH1 0x20 PUSH1 0x0 KECCAK256 SWAP1 PUSH1 0x7 MUL ADD PUSH1 0x1 ADD PUSH1 0x0 SWAP1 SLOAD SWAP1 PUSH2 0x100 EXP SWAP1 DIV PUSH20 0xFFFFFFFFFFFFFFFFFFFFFFFFFFFFFFFFFFFFFFFF AND SWAP1 POP SWAP2 SWAP1 POP JUMP JUMPDEST PUSH1 0x4 PUSH1 0x20 MSTORE DUP2 PUSH1 0x0 MSTORE PUSH1 0x40 PUSH1 0x0 KECCAK256 DUP2 DUP2 SLOAD DUP2 LT PUSH2 0x6F9 JUMPI PUSH1 0x0 DUP1 REVERT JUMPDEST SWAP1 PUSH1 0x0 MSTORE PUSH1 0x20 PUSH1 0x0 KECCAK256 SWAP1 PUSH1 0x5 MUL ADD PUSH1 0x0 SWAP2 POP SWAP2 POP POP DUP1 PUSH1 0x0 ADD SLOAD SWAP1 DUP1 PUSH1 0x1 ADD SLOAD SWAP1 DUP1 PUSH1 0x2 ADD SLOAD SWAP1 DUP1 PUSH1 0x3 ADD PUSH1 0x0 SWAP1 SLOAD SWAP1 PUSH2 0x100 EXP SWAP1 DIV PUSH20 0xFFFFFFFFFFFFFFFFFFFFFFFFFFFFFFFFFFFFFFFF AND SWAP1 DUP1 PUSH1 0x4 ADD PUSH1 0x0 SWAP1 SLOAD SWAP1 PUSH2 0x100 EXP SWAP1 DIV PUSH20 0xFFFFFFFFFFFFFFFFFFFFFFFFFFFFFFFFFFFFFFFF AND SWAP1 POP DUP6 JUMP JUMPDEST PUSH1 0x0 PUSH1 0x60 PUSH1 0x0 CALLER SWAP1 POP PUSH1 0x0 PUSH1 0x5 DUP1 SLOAD SWAP1 POP PUSH8 0xFFFFFFFFFFFFFFFF DUP2 GT ISZERO PUSH2 0x79A JUMPI PUSH2 0x799 PUSH2 0x3DDE JUMP JUMPDEST JUMPDEST PUSH1 0x40 MLOAD SWAP1 DUP1 DUP3 MSTORE DUP1 PUSH1 0x20 MUL PUSH1 0x20 ADD DUP3 ADD PUSH1 0x40 MSTORE DUP1 ISZERO PUSH2 0x7D3 JUMPI DUP2 PUSH1 0x20 ADD JUMPDEST PUSH2 0x7C0 PUSH2 0x2C8E JUMP JUMPDEST DUP2 MSTORE PUSH1 0x20 ADD SWAP1 PUSH1 0x1 SWAP1 SUB SWAP1 DUP2 PUSH2 0x7B8 JUMPI SWAP1 POP JUMPDEST POP SWAP1 POP PUSH1 0x0 DUP1 DUP8 SWAP1 POP JUMPDEST PUSH1 0x5 DUP1 SLOAD SWAP1 POP DUP2 LT DUP1 ISZERO PUSH2 0x7F0 JUMPI POP DUP7 DUP3 LT JUMPDEST ISZERO PUSH2 0xBE3 JUMPI DUP4 PUSH20 0xFFFFFFFFFFFFFFFFFFFFFFFFFFFFFFFFFFFFFFFF AND PUSH1 0x5 DUP3 DUP2 SLOAD DUP2 LT PUSH2 0x820 JUMPI PUSH2 0x81F PUSH2 0x3DAF JUMP JUMPDEST JUMPDEST SWAP1 PUSH1 0x0 MSTORE PUSH1 0x20 PUSH1 0x0 KECCAK256 SWAP1 PUSH1 0x7 MUL ADD PUSH1 0x1 ADD PUSH1 0x0 SWAP1 SLOAD SWAP1 PUSH2 0x100 EXP SWAP1 DIV PUSH20 0xFFFFFFFFFFFFFFFFFFFFFFFFFFFFFFFFFFFFFFFF AND PUSH20 0xFFFFFFFFFFFFFFFFFFFFFFFFFFFFFFFFFFFFFFFF AND EQ ISZERO PUSH2 0xBD0 JUMPI PUSH1 0x5 DUP2 DUP2 SLOAD DUP2 LT PUSH2 0x882 JUMPI PUSH2 0x881 PUSH2 0x3DAF JUMP JUMPDEST JUMPDEST SWAP1 PUSH1 0x0 MSTORE PUSH1 0x20 PUSH1 0x0 KECCAK256 SWAP1 PUSH1 0x7 MUL ADD PUSH1 0x40 MLOAD DUP1 PUSH1 0xE0 ADD PUSH1 0x40 MSTORE SWAP1 DUP2 PUSH1 0x0 DUP3 ADD SLOAD DUP2 MSTORE PUSH1 0x20 ADD PUSH1 0x1 DUP3 ADD PUSH1 0x0 SWAP1 SLOAD SWAP1 PUSH2 0x100 EXP SWAP1 DIV PUSH20 0xFFFFFFFFFFFFFFFFFFFFFFFFFFFFFFFFFFFFFFFF AND PUSH20 0xFFFFFFFFFFFFFFFFFFFFFFFFFFFFFFFFFFFFFFFF AND PUSH20 0xFFFFFFFFFFFFFFFFFFFFFFFFFFFFFFFFFFFFFFFF AND DUP2 MSTORE PUSH1 0x20 ADD PUSH1 0x2 DUP3 ADD DUP1 SLOAD PUSH2 0x90B SWAP1 PUSH2 0x3C76 JUMP JUMPDEST DUP1 PUSH1 0x1F ADD PUSH1 0x20 DUP1 SWAP2 DIV MUL PUSH1 0x20 ADD PUSH1 0x40 MLOAD SWAP1 DUP2 ADD PUSH1 0x40 MSTORE DUP1 SWAP3 SWAP2 SWAP1 DUP2 DUP2 MSTORE PUSH1 0x20 ADD DUP3 DUP1 SLOAD PUSH2 0x937 SWAP1 PUSH2 0x3C76 JUMP JUMPDEST DUP1 ISZERO PUSH2 0x984 JUMPI DUP1 PUSH1 0x1F LT PUSH2 0x959 JUMPI PUSH2 0x100 DUP1 DUP4 SLOAD DIV MUL DUP4 MSTORE SWAP2 PUSH1 0x20 ADD SWAP2 PUSH2 0x984 JUMP JUMPDEST DUP3 ADD SWAP2 SWAP1 PUSH1 0x0 MSTORE PUSH1 0x20 PUSH1 0x0 KECCAK256 SWAP1 JUMPDEST DUP2 SLOAD DUP2 MSTORE SWAP1 PUSH1 0x1 ADD SWAP1 PUSH1 0x20 ADD DUP1 DUP4 GT PUSH2 0x967 JUMPI DUP3 SWAP1 SUB PUSH1 0x1F AND DUP3 ADD SWAP2 JUMPDEST POP POP POP POP POP DUP2 MSTORE PUSH1 0x20 ADD PUSH1 0x3 DUP3 ADD DUP1 SLOAD PUSH2 0x99D SWAP1 PUSH2 0x3C76 JUMP JUMPDEST DUP1 PUSH1 0x1F ADD PUSH1 0x20 DUP1 SWAP2 DIV MUL PUSH1 0x20 ADD PUSH1 0x40 MLOAD SWAP1 DUP2 ADD PUSH1 0x40 MSTORE DUP1 SWAP3 SWAP2 SWAP1 DUP2 DUP2 MSTORE PUSH1 0x20 ADD DUP3 DUP1 SLOAD PUSH2 0x9C9 SWAP1 PUSH2 0x3C76 JUMP JUMPDEST DUP1 ISZERO PUSH2 0xA16 JUMPI DUP1 PUSH1 0x1F LT PUSH2 0x9EB JUMPI PUSH2 0x100 DUP1 DUP4 SLOAD DIV MUL DUP4 MSTORE SWAP2 PUSH1 0x20 ADD SWAP2 PUSH2 0xA16 JUMP JUMPDEST DUP3 ADD SWAP2 SWAP1 PUSH1 0x0 MSTORE PUSH1 0x20 PUSH1 0x0 KECCAK256 SWAP1 JUMPDEST DUP2 SLOAD DUP2 MSTORE SWAP1 PUSH1 0x1 ADD SWAP1 PUSH1 0x20 ADD DUP1 DUP4 GT PUSH2 0x9F9 JUMPI DUP3 SWAP1 SUB PUSH1 0x1F AND DUP3 ADD SWAP2 JUMPDEST POP POP POP POP POP DUP2 MSTORE PUSH1 0x20 ADD PUSH1 0x4 DUP3 ADD DUP1 SLOAD PUSH2 0xA2F SWAP1 PUSH2 0x3C76 JUMP JUMPDEST DUP1 PUSH1 0x1F ADD PUSH1 0x20 DUP1 SWAP2 DIV MUL PUSH1 0x20 ADD PUSH1 0x40 MLOAD SWAP1 DUP2 ADD PUSH1 0x40 MSTORE DUP1 SWAP3 SWAP2 SWAP1 DUP2 DUP2 MSTORE PUSH1 0x20 ADD DUP3 DUP1 SLOAD PUSH2 0xA5B SWAP1 PUSH2 0x3C76 JUMP JUMPDEST DUP1 ISZERO PUSH2 0xAA8 JUMPI DUP1 PUSH1 0x1F LT PUSH2 0xA7D JUMPI PUSH2 0x100 DUP1 DUP4 SLOAD DIV MUL DUP4 MSTORE SWAP2 PUSH1 0x20 ADD SWAP2 PUSH2 0xAA8 JUMP JUMPDEST DUP3 ADD SWAP2 SWAP1 PUSH1 0x0 MSTORE PUSH1 0x20 PUSH1 0x0 KECCAK256 SWAP1 JUMPDEST DUP2 SLOAD DUP2 MSTORE SWAP1 PUSH1 0x1 ADD SWAP1 PUSH1 0x20 ADD DUP1 DUP4 GT PUSH2 0xA8B JUMPI DUP3 SWAP1 SUB PUSH1 0x1F AND DUP3 ADD SWAP2 JUMPDEST POP POP POP POP POP DUP2 MSTORE PUSH1 0x20 ADD PUSH1 0x5 DUP3 ADD DUP1 SLOAD DUP1 PUSH1 0x20 MUL PUSH1 0x20 ADD PUSH1 0x40 MLOAD SWAP1 DUP2 ADD PUSH1 0x40 MSTORE DUP1 SWAP3 SWAP2 SWAP1 DUP2 DUP2 MSTORE PUSH1 0x20 ADD PUSH1 0x0 SWAP1 JUMPDEST DUP3 DUP3 LT ISZERO PUSH2 0xB82 JUMPI DUP4 DUP3 SWAP1 PUSH1 0x0 MSTORE PUSH1 0x20 PUSH1 0x0 KECCAK256 ADD DUP1 SLOAD PUSH2 0xAF5 SWAP1 PUSH2 0x3C76 JUMP JUMPDEST DUP1 PUSH1 0x1F ADD PUSH1 0x20 DUP1 SWAP2 DIV MUL PUSH1 0x20 ADD PUSH1 0x40 MLOAD SWAP1 DUP2 ADD PUSH1 0x40 MSTORE DUP1 SWAP3 SWAP2 SWAP1 DUP2 DUP2 MSTORE PUSH1 0x20 ADD DUP3 DUP1 SLOAD PUSH2 0xB21 SWAP1 PUSH2 0x3C76 JUMP JUMPDEST DUP1 ISZERO PUSH2 0xB6E JUMPI DUP1 PUSH1 0x1F LT PUSH2 0xB43 JUMPI PUSH2 0x100 DUP1 DUP4 SLOAD DIV MUL DUP4 MSTORE SWAP2 PUSH1 0x20 ADD SWAP2 PUSH2 0xB6E JUMP JUMPDEST DUP3 ADD SWAP2 SWAP1 PUSH1 0x0 MSTORE PUSH1 0x20 PUSH1 0x0 KECCAK256 SWAP1 JUMPDEST DUP2 SLOAD DUP2 MSTORE SWAP1 PUSH1 0x1 ADD SWAP1 PUSH1 0x20 ADD DUP1 DUP4 GT PUSH2 0xB51 JUMPI DUP3 SWAP1 SUB PUSH1 0x1F AND DUP3 ADD SWAP2 JUMPDEST POP POP POP POP POP DUP2 MSTORE PUSH1 0x20 ADD SWAP1 PUSH1 0x1 ADD SWAP1 PUSH2 0xAD6 JUMP JUMPDEST POP POP POP POP DUP2 MSTORE PUSH1 0x20 ADD PUSH1 0x6 DUP3 ADD PUSH1 0x0 SWAP1 SLOAD SWAP1 PUSH2 0x100 EXP SWAP1 DIV PUSH1 0xFF AND ISZERO ISZERO ISZERO ISZERO DUP2 MSTORE POP POP DUP4 DUP4 DUP1 PUSH2 0xBB1 SWAP1 PUSH2 0x3CD9 JUMP JUMPDEST SWAP5 POP DUP2 MLOAD DUP2 LT PUSH2 0xBC4 JUMPI PUSH2 0xBC3 PUSH2 0x3DAF JUMP JUMPDEST JUMPDEST PUSH1 0x20 MUL PUSH1 0x20 ADD ADD DUP2 SWAP1 MSTORE POP JUMPDEST DUP1 DUP1 PUSH2 0xBDB SWAP1 PUSH2 0x3CD9 JUMP JUMPDEST SWAP2 POP POP PUSH2 0x7DD JUMP JUMPDEST DUP1 DUP4 SWAP6 POP SWAP6 POP POP POP POP POP SWAP3 POP SWAP3 SWAP1 POP JUMP JUMPDEST PUSH1 0x0 PUSH1 0x60 PUSH1 0x0 PUSH1 0x5 DUP1 SLOAD SWAP1 POP PUSH8 0xFFFFFFFFFFFFFFFF DUP2 GT ISZERO PUSH2 0xC19 JUMPI PUSH2 0xC18 PUSH2 0x3DDE JUMP JUMPDEST JUMPDEST PUSH1 0x40 MLOAD SWAP1 DUP1 DUP3 MSTORE DUP1 PUSH1 0x20 MUL PUSH1 0x20 ADD DUP3 ADD PUSH1 0x40 MSTORE DUP1 ISZERO PUSH2 0xC52 JUMPI DUP2 PUSH1 0x20 ADD JUMPDEST PUSH2 0xC3F PUSH2 0x2C8E JUMP JUMPDEST DUP2 MSTORE PUSH1 0x20 ADD SWAP1 PUSH1 0x1 SWAP1 SUB SWAP1 DUP2 PUSH2 0xC37 JUMPI SWAP1 POP JUMPDEST POP SWAP1 POP PUSH1 0x0 DUP1 DUP7 SWAP1 POP JUMPDEST PUSH1 0x5 DUP1 SLOAD SWAP1 POP DUP2 LT DUP1 ISZERO PUSH2 0xC6F JUMPI POP DUP6 DUP3 LT JUMPDEST ISZERO PUSH2 0x1021 JUMPI PUSH1 0x5 DUP2 DUP2 SLOAD DUP2 LT PUSH2 0xC88 JUMPI PUSH2 0xC87 PUSH2 0x3DAF JUMP JUMPDEST JUMPDEST SWAP1 PUSH1 0x0 MSTORE PUSH1 0x20 PUSH1 0x0 KECCAK256 SWAP1 PUSH1 0x7 MUL ADD PUSH1 0x6 ADD PUSH1 0x0 SWAP1 SLOAD SWAP1 PUSH2 0x100 EXP SWAP1 DIV PUSH1 0xFF AND ISZERO PUSH2 0x100E JUMPI PUSH1 0x5 DUP2 DUP2 SLOAD DUP2 LT PUSH2 0xCC0 JUMPI PUSH2 0xCBF PUSH2 0x3DAF JUMP JUMPDEST JUMPDEST SWAP1 PUSH1 0x0 MSTORE PUSH1 0x20 PUSH1 0x0 KECCAK256 SWAP1 PUSH1 0x7 MUL ADD PUSH1 0x40 MLOAD DUP1 PUSH1 0xE0 ADD PUSH1 0x40 MSTORE SWAP1 DUP2 PUSH1 0x0 DUP3 ADD SLOAD DUP2 MSTORE PUSH1 0x20 ADD PUSH1 0x1 DUP3 ADD PUSH1 0x0 SWAP1 SLOAD SWAP1 PUSH2 0x100 EXP SWAP1 DIV PUSH20 0xFFFFFFFFFFFFFFFFFFFFFFFFFFFFFFFFFFFFFFFF AND PUSH20 0xFFFFFFFFFFFFFFFFFFFFFFFFFFFFFFFFFFFFFFFF AND PUSH20 0xFFFFFFFFFFFFFFFFFFFFFFFFFFFFFFFFFFFFFFFF AND DUP2 MSTORE PUSH1 0x20 ADD PUSH1 0x2 DUP3 ADD DUP1 SLOAD PUSH2 0xD49 SWAP1 PUSH2 0x3C76 JUMP JUMPDEST DUP1 PUSH1 0x1F ADD PUSH1 0x20 DUP1 SWAP2 DIV MUL PUSH1 0x20 ADD PUSH1 0x40 MLOAD SWAP1 DUP2 ADD PUSH1 0x40 MSTORE DUP1 SWAP3 SWAP2 SWAP1 DUP2 DUP2 MSTORE PUSH1 0x20 ADD DUP3 DUP1 SLOAD PUSH2 0xD75 SWAP1 PUSH2 0x3C76 JUMP JUMPDEST DUP1 ISZERO PUSH2 0xDC2 JUMPI DUP1 PUSH1 0x1F LT PUSH2 0xD97 JUMPI PUSH2 0x100 DUP1 DUP4 SLOAD DIV MUL DUP4 MSTORE SWAP2 PUSH1 0x20 ADD SWAP2 PUSH2 0xDC2 JUMP JUMPDEST DUP3 ADD SWAP2 SWAP1 PUSH1 0x0 MSTORE PUSH1 0x20 PUSH1 0x0 KECCAK256 SWAP1 JUMPDEST DUP2 SLOAD DUP2 MSTORE SWAP1 PUSH1 0x1 ADD SWAP1 PUSH1 0x20 ADD DUP1 DUP4 GT PUSH2 0xDA5 JUMPI DUP3 SWAP1 SUB PUSH1 0x1F AND DUP3 ADD SWAP2 JUMPDEST POP POP POP POP POP DUP2 MSTORE PUSH1 0x20 ADD PUSH1 0x3 DUP3 ADD DUP1 SLOAD PUSH2 0xDDB SWAP1 PUSH2 0x3C76 JUMP JUMPDEST DUP1 PUSH1 0x1F ADD PUSH1 0x20 DUP1 SWAP2 DIV MUL PUSH1 0x20 ADD PUSH1 0x40 MLOAD SWAP1 DUP2 ADD PUSH1 0x40 MSTORE DUP1 SWAP3 SWAP2 SWAP1 DUP2 DUP2 MSTORE PUSH1 0x20 ADD DUP3 DUP1 SLOAD PUSH2 0xE07 SWAP1 PUSH2 0x3C76 JUMP JUMPDEST DUP1 ISZERO PUSH2 0xE54 JUMPI DUP1 PUSH1 0x1F LT PUSH2 0xE29 JUMPI PUSH2 0x100 DUP1 DUP4 SLOAD DIV MUL DUP4 MSTORE SWAP2 PUSH1 0x20 ADD SWAP2 PUSH2 0xE54 JUMP JUMPDEST DUP3 ADD SWAP2 SWAP1 PUSH1 0x0 MSTORE PUSH1 0x20 PUSH1 0x0 KECCAK256 SWAP1 JUMPDEST DUP2 SLOAD DUP2 MSTORE SWAP1 PUSH1 0x1 ADD SWAP1 PUSH1 0x20 ADD DUP1 DUP4 GT PUSH2 0xE37 JUMPI DUP3 SWAP1 SUB PUSH1 0x1F AND DUP3 ADD SWAP2 JUMPDEST POP POP POP POP POP DUP2 MSTORE PUSH1 0x20 ADD PUSH1 0x4 DUP3 ADD DUP1 SLOAD PUSH2 0xE6D SWAP1 PUSH2 0x3C76 JUMP JUMPDEST DUP1 PUSH1 0x1F ADD PUSH1 0x20 DUP1 SWAP2 DIV MUL PUSH1 0x20 ADD PUSH1 0x40 MLOAD SWAP1 DUP2 ADD PUSH1 0x40 MSTORE DUP1 SWAP3 SWAP2 SWAP1 DUP2 DUP2 MSTORE PUSH1 0x20 ADD DUP3 DUP1 SLOAD PUSH2 0xE99 SWAP1 PUSH2 0x3C76 JUMP JUMPDEST DUP1 ISZERO PUSH2 0xEE6 JUMPI DUP1 PUSH1 0x1F LT PUSH2 0xEBB JUMPI PUSH2 0x100 DUP1 DUP4 SLOAD DIV MUL DUP4 MSTORE SWAP2 PUSH1 0x20 ADD SWAP2 PUSH2 0xEE6 JUMP JUMPDEST DUP3 ADD SWAP2 SWAP1 PUSH1 0x0 MSTORE PUSH1 0x20 PUSH1 0x0 KECCAK256 SWAP1 JUMPDEST DUP2 SLOAD DUP2 MSTORE SWAP1 PUSH1 0x1 ADD SWAP1 PUSH1 0x20 ADD DUP1 DUP4 GT PUSH2 0xEC9 JUMPI DUP3 SWAP1 SUB PUSH1 0x1F AND DUP3 ADD SWAP2 JUMPDEST POP POP POP POP POP DUP2 MSTORE PUSH1 0x20 ADD PUSH1 0x5 DUP3 ADD DUP1 SLOAD DUP1 PUSH1 0x20 MUL PUSH1 0x20 ADD PUSH1 0x40 MLOAD SWAP1 DUP2 ADD PUSH1 0x40 MSTORE DUP1 SWAP3 SWAP2 SWAP1 DUP2 DUP2 MSTORE PUSH1 0x20 ADD PUSH1 0x0 SWAP1 JUMPDEST DUP3 DUP3 LT ISZERO PUSH2 0xFC0 JUMPI DUP4 DUP3 SWAP1 PUSH1 0x0 MSTORE PUSH1 0x20 PUSH1 0x0 KECCAK256 ADD DUP1 SLOAD PUSH2 0xF33 SWAP1 PUSH2 0x3C76 JUMP JUMPDEST DUP1 PUSH1 0x1F ADD PUSH1 0x20 DUP1 SWAP2 DIV MUL PUSH1 0x20 ADD PUSH1 0x40 MLOAD SWAP1 DUP2 ADD PUSH1 0x40 MSTORE DUP1 SWAP3 SWAP2 SWAP1 DUP2 DUP2 MSTORE PUSH1 0x20 ADD DUP3 DUP1 SLOAD PUSH2 0xF5F SWAP1 PUSH2 0x3C76 JUMP JUMPDEST DUP1 ISZERO PUSH2 0xFAC JUMPI DUP1 PUSH1 0x1F LT PUSH2 0xF81 JUMPI PUSH2 0x100 DUP1 DUP4 SLOAD DIV MUL DUP4 MSTORE SWAP2 PUSH1 0x20 ADD SWAP2 PUSH2 0xFAC JUMP JUMPDEST DUP3 ADD SWAP2 SWAP1 PUSH1 0x0 MSTORE PUSH1 0x20 PUSH1 0x0 KECCAK256 SWAP1 JUMPDEST DUP2 SLOAD DUP2 MSTORE SWAP1 PUSH1 0x1 ADD SWAP1 PUSH1 0x20 ADD DUP1 DUP4 GT PUSH2 0xF8F JUMPI DUP3 SWAP1 SUB PUSH1 0x1F AND DUP3 ADD SWAP2 JUMPDEST POP POP POP POP POP DUP2 MSTORE PUSH1 0x20 ADD SWAP1 PUSH1 0x1 ADD SWAP1 PUSH2 0xF14 JUMP JUMPDEST POP POP POP POP DUP2 MSTORE PUSH1 0x20 ADD PUSH1 0x6 DUP3 ADD PUSH1 0x0 SWAP1 SLOAD SWAP1 PUSH2 0x100 EXP SWAP1 DIV PUSH1 0xFF AND ISZERO ISZERO ISZERO ISZERO DUP2 MSTORE POP POP DUP4 DUP4 DUP1 PUSH2 0xFEF SWAP1 PUSH2 0x3CD9 JUMP JUMPDEST SWAP5 POP DUP2 MLOAD DUP2 LT PUSH2 0x1002 JUMPI PUSH2 0x1001 PUSH2 0x3DAF JUMP JUMPDEST JUMPDEST PUSH1 0x20 MUL PUSH1 0x20 ADD ADD DUP2 SWAP1 MSTORE POP JUMPDEST DUP1 DUP1 PUSH2 0x1019 SWAP1 PUSH2 0x3CD9 JUMP JUMPDEST SWAP2 POP POP PUSH2 0xC5C JUMP JUMPDEST DUP1 DUP4 SWAP5 POP SWAP5 POP POP POP POP SWAP3 POP SWAP3 SWAP1 POP JUMP JUMPDEST PUSH2 0x1039 PUSH2 0x26D9 JUMP JUMPDEST PUSH20 0xFFFFFFFFFFFFFFFFFFFFFFFFFFFFFFFFFFFFFFFF AND PUSH2 0x1057 PUSH2 0x10B9 JUMP JUMPDEST PUSH20 0xFFFFFFFFFFFFFFFFFFFFFFFFFFFFFFFFFFFFFFFF AND EQ PUSH2 0x10AD JUMPI PUSH1 0x40 MLOAD PUSH32 0x8C379A000000000000000000000000000000000000000000000000000000000 DUP2 MSTORE PUSH1 0x4 ADD PUSH2 0x10A4 SWAP1 PUSH2 0x3844 JUMP JUMPDEST PUSH1 0x40 MLOAD DUP1 SWAP2 SUB SWAP1 REVERT JUMPDEST PUSH2 0x10B7 PUSH1 0x0 PUSH2 0x26E1 JUMP JUMPDEST JUMP JUMPDEST PUSH1 0x0 DUP1 PUSH1 0x0 SWAP1 SLOAD SWAP1 PUSH2 0x100 EXP SWAP1 DIV PUSH20 0xFFFFFFFFFFFFFFFFFFFFFFFFFFFFFFFFFFFFFFFF AND SWAP1 POP SWAP1 JUMP JUMPDEST PUSH1 0x0 PUSH1 0x60 PUSH1 0x0 PUSH1 0x5 DUP1 SLOAD SWAP1 POP PUSH8 0xFFFFFFFFFFFFFFFF DUP2 GT ISZERO PUSH2 0x1107 JUMPI PUSH2 0x1106 PUSH2 0x3DDE JUMP JUMPDEST JUMPDEST PUSH1 0x40 MLOAD SWAP1 DUP1 DUP3 MSTORE DUP1 PUSH1 0x20 MUL PUSH1 0x20 ADD DUP3 ADD PUSH1 0x40 MSTORE DUP1 ISZERO PUSH2 0x1140 JUMPI DUP2 PUSH1 0x20 ADD JUMPDEST PUSH2 0x112D PUSH2 0x2C8E JUMP JUMPDEST DUP2 MSTORE PUSH1 0x20 ADD SWAP1 PUSH1 0x1 SWAP1 SUB SWAP1 DUP2 PUSH2 0x1125 JUMPI SWAP1 POP JUMPDEST POP SWAP1 POP PUSH1 0x0 DUP1 DUP7 SWAP1 POP JUMPDEST PUSH1 0x5 DUP1 SLOAD SWAP1 POP DUP2 LT DUP1 ISZERO PUSH2 0x115D JUMPI POP DUP6 DUP3 LT JUMPDEST ISZERO PUSH2 0x191A JUMPI PUSH1 0x5 DUP2 DUP2 SLOAD DUP2 LT PUSH2 0x1176 JUMPI PUSH2 0x1175 PUSH2 0x3DAF JUMP JUMPDEST JUMPDEST SWAP1 PUSH1 0x0 MSTORE PUSH1 0x20 PUSH1 0x0 KECCAK256 SWAP1 PUSH1 0x7 MUL ADD PUSH1 0x6 ADD PUSH1 0x0 SWAP1 SLOAD SWAP1 PUSH2 0x100 EXP SWAP1 DIV PUSH1 0xFF AND PUSH2 0x119E JUMPI PUSH2 0x1907 JUMP JUMPDEST PUSH1 0x0 PUSH1 0x1 SWAP1 POP PUSH1 0x0 DUP12 PUSH1 0x40 MLOAD PUSH1 0x20 ADD PUSH2 0x11B7 SWAP2 SWAP1 PUSH2 0x3746 JUMP JUMPDEST PUSH1 0x40 MLOAD PUSH1 0x20 DUP2 DUP4 SUB SUB DUP2 MSTORE SWAP1 PUSH1 0x40 MSTORE DUP1 MLOAD SWAP1 PUSH1 0x20 ADD KECCAK256 SWAP1 POP PUSH1 0x40 MLOAD PUSH1 0x20 ADD PUSH2 0x11DE SWAP1 PUSH2 0x3772 JUMP JUMPDEST PUSH1 0x40 MLOAD PUSH1 0x20 DUP2 DUP4 SUB SUB DUP2 MSTORE SWAP1 PUSH1 0x40 MSTORE DUP1 MLOAD SWAP1 PUSH1 0x20 ADD KECCAK256 DUP2 EQ PUSH2 0x136F JUMPI PUSH1 0x0 PUSH1 0x5 DUP5 DUP2 SLOAD DUP2 LT PUSH2 0x1210 JUMPI PUSH2 0x120F PUSH2 0x3DAF JUMP JUMPDEST JUMPDEST SWAP1 PUSH1 0x0 MSTORE PUSH1 0x20 PUSH1 0x0 KECCAK256 SWAP1 PUSH1 0x7 MUL ADD PUSH1 0x5 ADD DUP1 SLOAD DUP1 PUSH1 0x20 MUL PUSH1 0x20 ADD PUSH1 0x40 MLOAD SWAP1 DUP2 ADD PUSH1 0x40 MSTORE DUP1 SWAP3 SWAP2 SWAP1 DUP2 DUP2 MSTORE PUSH1 0x20 ADD PUSH1 0x0 SWAP1 JUMPDEST DUP3 DUP3 LT ISZERO PUSH2 0x12ED JUMPI DUP4 DUP3 SWAP1 PUSH1 0x0 MSTORE PUSH1 0x20 PUSH1 0x0 KECCAK256 ADD DUP1 SLOAD PUSH2 0x1260 SWAP1 PUSH2 0x3C76 JUMP JUMPDEST DUP1 PUSH1 0x1F ADD PUSH1 0x20 DUP1 SWAP2 DIV MUL PUSH1 0x20 ADD PUSH1 0x40 MLOAD SWAP1 DUP2 ADD PUSH1 0x40 MSTORE DUP1 SWAP3 SWAP2 SWAP1 DUP2 DUP2 MSTORE PUSH1 0x20 ADD DUP3 DUP1 SLOAD PUSH2 0x128C SWAP1 PUSH2 0x3C76 JUMP JUMPDEST DUP1 ISZERO PUSH2 0x12D9 JUMPI DUP1 PUSH1 0x1F LT PUSH2 0x12AE JUMPI PUSH2 0x100 DUP1 DUP4 SLOAD DIV MUL DUP4 MSTORE SWAP2 PUSH1 0x20 ADD SWAP2 PUSH2 0x12D9 JUMP JUMPDEST DUP3 ADD SWAP2 SWAP1 PUSH1 0x0 MSTORE PUSH1 0x20 PUSH1 0x0 KECCAK256 SWAP1 JUMPDEST DUP2 SLOAD DUP2 MSTORE SWAP1 PUSH1 0x1 ADD SWAP1 PUSH1 0x20 ADD DUP1 DUP4 GT PUSH2 0x12BC JUMPI DUP3 SWAP1 SUB PUSH1 0x1F AND DUP3 ADD SWAP2 JUMPDEST POP POP POP POP POP DUP2 MSTORE PUSH1 0x20 ADD SWAP1 PUSH1 0x1 ADD SWAP1 PUSH2 0x1241 JUMP JUMPDEST POP POP POP POP SWAP1 POP PUSH1 0x0 JUMPDEST DUP2 MLOAD DUP2 LT ISZERO PUSH2 0x135F JUMPI DUP2 DUP2 DUP2 MLOAD DUP2 LT PUSH2 0x1312 JUMPI PUSH2 0x1311 PUSH2 0x3DAF JUMP JUMPDEST JUMPDEST PUSH1 0x20 MUL PUSH1 0x20 ADD ADD MLOAD PUSH1 0x40 MLOAD PUSH1 0x20 ADD PUSH2 0x132A SWAP2 SWAP1 PUSH2 0x3746 JUMP JUMPDEST PUSH1 0x40 MLOAD PUSH1 0x20 DUP2 DUP4 SUB SUB DUP2 MSTORE SWAP1 PUSH1 0x40 MSTORE DUP1 MLOAD SWAP1 PUSH1 0x20 ADD KECCAK256 DUP4 EQ ISZERO PUSH2 0x134C JUMPI PUSH2 0x135F JUMP JUMPDEST DUP1 DUP1 PUSH2 0x1357 SWAP1 PUSH2 0x3CD9 JUMP JUMPDEST SWAP2 POP POP PUSH2 0x12F6 JUMP JUMPDEST DUP2 MLOAD DUP2 LT PUSH2 0x136C JUMPI PUSH1 0x0 SWAP4 POP JUMPDEST POP POP JUMPDEST DUP2 DUP1 ISZERO PUSH2 0x1424 JUMPI POP PUSH1 0x0 PUSH20 0xFFFFFFFFFFFFFFFFFFFFFFFFFFFFFFFFFFFFFFFF AND DUP12 PUSH20 0xFFFFFFFFFFFFFFFFFFFFFFFFFFFFFFFFFFFFFFFF AND EQ ISZERO DUP1 PUSH2 0x1423 JUMPI POP PUSH1 0x5 DUP4 DUP2 SLOAD DUP2 LT PUSH2 0x13C2 JUMPI PUSH2 0x13C1 PUSH2 0x3DAF JUMP JUMPDEST JUMPDEST SWAP1 PUSH1 0x0 MSTORE PUSH1 0x20 PUSH1 0x0 KECCAK256 SWAP1 PUSH1 0x7 MUL ADD PUSH1 0x1 ADD PUSH1 0x0 SWAP1 SLOAD SWAP1 PUSH2 0x100 EXP SWAP1 DIV PUSH20 0xFFFFFFFFFFFFFFFFFFFFFFFFFFFFFFFFFFFFFFFF AND PUSH20 0xFFFFFFFFFFFFFFFFFFFFFFFFFFFFFFFFFFFFFFFF AND DUP12 PUSH20 0xFFFFFFFFFFFFFFFFFFFFFFFFFFFFFFFFFFFFFFFF AND EQ JUMPDEST JUMPDEST DUP1 ISZERO PUSH2 0x14D4 JUMPI POP PUSH1 0x0 DUP11 EQ ISZERO DUP1 PUSH2 0x14D3 JUMPI POP PUSH1 0x2 PUSH1 0x0 PUSH1 0x5 DUP6 DUP2 SLOAD DUP2 LT PUSH2 0x144E JUMPI PUSH2 0x144D PUSH2 0x3DAF JUMP JUMPDEST JUMPDEST SWAP1 PUSH1 0x0 MSTORE PUSH1 0x20 PUSH1 0x0 KECCAK256 SWAP1 PUSH1 0x7 MUL ADD PUSH1 0x1 ADD PUSH1 0x0 SWAP1 SLOAD SWAP1 PUSH2 0x100 EXP SWAP1 DIV PUSH20 0xFFFFFFFFFFFFFFFFFFFFFFFFFFFFFFFFFFFFFFFF AND PUSH20 0xFFFFFFFFFFFFFFFFFFFFFFFFFFFFFFFFFFFFFFFF AND PUSH20 0xFFFFFFFFFFFFFFFFFFFFFFFFFFFFFFFFFFFFFFFF AND DUP2 MSTORE PUSH1 0x20 ADD SWAP1 DUP2 MSTORE PUSH1 0x20 ADD PUSH1 0x0 KECCAK256 PUSH1 0x0 DUP5 DUP2 MSTORE PUSH1 0x20 ADD SWAP1 DUP2 MSTORE PUSH1 0x20 ADD PUSH1 0x0 KECCAK256 PUSH1 0x2 ADD SLOAD DUP11 GT ISZERO JUMPDEST JUMPDEST DUP1 ISZERO PUSH2 0x1593 JUMPI POP PUSH2 0x1592 DUP14 PUSH1 0x5 DUP6 DUP2 SLOAD DUP2 LT PUSH2 0x14F3 JUMPI PUSH2 0x14F2 PUSH2 0x3DAF JUMP JUMPDEST JUMPDEST SWAP1 PUSH1 0x0 MSTORE PUSH1 0x20 PUSH1 0x0 KECCAK256 SWAP1 PUSH1 0x7 MUL ADD PUSH1 0x2 ADD DUP1 SLOAD PUSH2 0x150F SWAP1 PUSH2 0x3C76 JUMP JUMPDEST DUP1 PUSH1 0x1F ADD PUSH1 0x20 DUP1 SWAP2 DIV MUL PUSH1 0x20 ADD PUSH1 0x40 MLOAD SWAP1 DUP2 ADD PUSH1 0x40 MSTORE DUP1 SWAP3 SWAP2 SWAP1 DUP2 DUP2 MSTORE PUSH1 0x20 ADD DUP3 DUP1 SLOAD PUSH2 0x153B SWAP1 PUSH2 0x3C76 JUMP JUMPDEST DUP1 ISZERO PUSH2 0x1588 JUMPI DUP1 PUSH1 0x1F LT PUSH2 0x155D JUMPI PUSH2 0x100 DUP1 DUP4 SLOAD DIV MUL DUP4 MSTORE SWAP2 PUSH1 0x20 ADD SWAP2 PUSH2 0x1588 JUMP JUMPDEST DUP3 ADD SWAP2 SWAP1 PUSH1 0x0 MSTORE PUSH1 0x20 PUSH1 0x0 KECCAK256 SWAP1 JUMPDEST DUP2 SLOAD DUP2 MSTORE SWAP1 PUSH1 0x1 ADD SWAP1 PUSH1 0x20 ADD DUP1 DUP4 GT PUSH2 0x156B JUMPI DUP3 SWAP1 SUB PUSH1 0x1F AND DUP3 ADD SWAP2 JUMPDEST POP POP POP POP POP PUSH2 0x27A5 JUMP JUMPDEST JUMPDEST PUSH2 0x159C JUMPI PUSH1 0x0 SWAP2 POP JUMPDEST DUP2 ISZERO PUSH2 0x1904 JUMPI PUSH1 0x5 DUP4 DUP2 SLOAD DUP2 LT PUSH2 0x15B6 JUMPI PUSH2 0x15B5 PUSH2 0x3DAF JUMP JUMPDEST JUMPDEST SWAP1 PUSH1 0x0 MSTORE PUSH1 0x20 PUSH1 0x0 KECCAK256 SWAP1 PUSH1 0x7 MUL ADD PUSH1 0x40 MLOAD DUP1 PUSH1 0xE0 ADD PUSH1 0x40 MSTORE SWAP1 DUP2 PUSH1 0x0 DUP3 ADD SLOAD DUP2 MSTORE PUSH1 0x20 ADD PUSH1 0x1 DUP3 ADD PUSH1 0x0 SWAP1 SLOAD SWAP1 PUSH2 0x100 EXP SWAP1 DIV PUSH20 0xFFFFFFFFFFFFFFFFFFFFFFFFFFFFFFFFFFFFFFFF AND PUSH20 0xFFFFFFFFFFFFFFFFFFFFFFFFFFFFFFFFFFFFFFFF AND PUSH20 0xFFFFFFFFFFFFFFFFFFFFFFFFFFFFFFFFFFFFFFFF AND DUP2 MSTORE PUSH1 0x20 ADD PUSH1 0x2 DUP3 ADD DUP1 SLOAD PUSH2 0x163F SWAP1 PUSH2 0x3C76 JUMP JUMPDEST DUP1 PUSH1 0x1F ADD PUSH1 0x20 DUP1 SWAP2 DIV MUL PUSH1 0x20 ADD PUSH1 0x40 MLOAD SWAP1 DUP2 ADD PUSH1 0x40 MSTORE DUP1 SWAP3 SWAP2 SWAP1 DUP2 DUP2 MSTORE PUSH1 0x20 ADD DUP3 DUP1 SLOAD PUSH2 0x166B SWAP1 PUSH2 0x3C76 JUMP JUMPDEST DUP1 ISZERO PUSH2 0x16B8 JUMPI DUP1 PUSH1 0x1F LT PUSH2 0x168D JUMPI PUSH2 0x100 DUP1 DUP4 SLOAD DIV MUL DUP4 MSTORE SWAP2 PUSH1 0x20 ADD SWAP2 PUSH2 0x16B8 JUMP JUMPDEST DUP3 ADD SWAP2 SWAP1 PUSH1 0x0 MSTORE PUSH1 0x20 PUSH1 0x0 KECCAK256 SWAP1 JUMPDEST DUP2 SLOAD DUP2 MSTORE SWAP1 PUSH1 0x1 ADD SWAP1 PUSH1 0x20 ADD DUP1 DUP4 GT PUSH2 0x169B JUMPI DUP3 SWAP1 SUB PUSH1 0x1F AND DUP3 ADD SWAP2 JUMPDEST POP POP POP POP POP DUP2 MSTORE PUSH1 0x20 ADD PUSH1 0x3 DUP3 ADD DUP1 SLOAD PUSH2 0x16D1 SWAP1 PUSH2 0x3C76 JUMP JUMPDEST DUP1 PUSH1 0x1F ADD PUSH1 0x20 DUP1 SWAP2 DIV MUL PUSH1 0x20 ADD PUSH1 0x40 MLOAD SWAP1 DUP2 ADD PUSH1 0x40 MSTORE DUP1 SWAP3 SWAP2 SWAP1 DUP2 DUP2 MSTORE PUSH1 0x20 ADD DUP3 DUP1 SLOAD PUSH2 0x16FD SWAP1 PUSH2 0x3C76 JUMP JUMPDEST DUP1 ISZERO PUSH2 0x174A JUMPI DUP1 PUSH1 0x1F LT PUSH2 0x171F JUMPI PUSH2 0x100 DUP1 DUP4 SLOAD DIV MUL DUP4 MSTORE SWAP2 PUSH1 0x20 ADD SWAP2 PUSH2 0x174A JUMP JUMPDEST DUP3 ADD SWAP2 SWAP1 PUSH1 0x0 MSTORE PUSH1 0x20 PUSH1 0x0 KECCAK256 SWAP1 JUMPDEST DUP2 SLOAD DUP2 MSTORE SWAP1 PUSH1 0x1 ADD SWAP1 PUSH1 0x20 ADD DUP1 DUP4 GT PUSH2 0x172D JUMPI DUP3 SWAP1 SUB PUSH1 0x1F AND DUP3 ADD SWAP2 JUMPDEST POP POP POP POP POP DUP2 MSTORE PUSH1 0x20 ADD PUSH1 0x4 DUP3 ADD DUP1 SLOAD PUSH2 0x1763 SWAP1 PUSH2 0x3C76 JUMP JUMPDEST DUP1 PUSH1 0x1F ADD PUSH1 0x20 DUP1 SWAP2 DIV MUL PUSH1 0x20 ADD PUSH1 0x40 MLOAD SWAP1 DUP2 ADD PUSH1 0x40 MSTORE DUP1 SWAP3 SWAP2 SWAP1 DUP2 DUP2 MSTORE PUSH1 0x20 ADD DUP3 DUP1 SLOAD PUSH2 0x178F SWAP1 PUSH2 0x3C76 JUMP JUMPDEST DUP1 ISZERO PUSH2 0x17DC JUMPI DUP1 PUSH1 0x1F LT PUSH2 0x17B1 JUMPI PUSH2 0x100 DUP1 DUP4 SLOAD DIV MUL DUP4 MSTORE SWAP2 PUSH1 0x20 ADD SWAP2 PUSH2 0x17DC JUMP JUMPDEST DUP3 ADD SWAP2 SWAP1 PUSH1 0x0 MSTORE PUSH1 0x20 PUSH1 0x0 KECCAK256 SWAP1 JUMPDEST DUP2 SLOAD DUP2 MSTORE SWAP1 PUSH1 0x1 ADD SWAP1 PUSH1 0x20 ADD DUP1 DUP4 GT PUSH2 0x17BF JUMPI DUP3 SWAP1 SUB PUSH1 0x1F AND DUP3 ADD SWAP2 JUMPDEST POP POP POP POP POP DUP2 MSTORE PUSH1 0x20 ADD PUSH1 0x5 DUP3 ADD DUP1 SLOAD DUP1 PUSH1 0x20 MUL PUSH1 0x20 ADD PUSH1 0x40 MLOAD SWAP1 DUP2 ADD PUSH1 0x40 MSTORE DUP1 SWAP3 SWAP2 SWAP1 DUP2 DUP2 MSTORE PUSH1 0x20 ADD PUSH1 0x0 SWAP1 JUMPDEST DUP3 DUP3 LT ISZERO PUSH2 0x18B6 JUMPI DUP4 DUP3 SWAP1 PUSH1 0x0 MSTORE PUSH1 0x20 PUSH1 0x0 KECCAK256 ADD DUP1 SLOAD PUSH2 0x1829 SWAP1 PUSH2 0x3C76 JUMP JUMPDEST DUP1 PUSH1 0x1F ADD PUSH1 0x20 DUP1 SWAP2 DIV MUL PUSH1 0x20 ADD PUSH1 0x40 MLOAD SWAP1 DUP2 ADD PUSH1 0x40 MSTORE DUP1 SWAP3 SWAP2 SWAP1 DUP2 DUP2 MSTORE PUSH1 0x20 ADD DUP3 DUP1 SLOAD PUSH2 0x1855 SWAP1 PUSH2 0x3C76 JUMP JUMPDEST DUP1 ISZERO PUSH2 0x18A2 JUMPI DUP1 PUSH1 0x1F LT PUSH2 0x1877 JUMPI PUSH2 0x100 DUP1 DUP4 SLOAD DIV MUL DUP4 MSTORE SWAP2 PUSH1 0x20 ADD SWAP2 PUSH2 0x18A2 JUMP JUMPDEST DUP3 ADD SWAP2 SWAP1 PUSH1 0x0 MSTORE PUSH1 0x20 PUSH1 0x0 KECCAK256 SWAP1 JUMPDEST DUP2 SLOAD DUP2 MSTORE SWAP1 PUSH1 0x1 ADD SWAP1 PUSH1 0x20 ADD DUP1 DUP4 GT PUSH2 0x1885 JUMPI DUP3 SWAP1 SUB PUSH1 0x1F AND DUP3 ADD SWAP2 JUMPDEST POP POP POP POP POP DUP2 MSTORE PUSH1 0x20 ADD SWAP1 PUSH1 0x1 ADD SWAP1 PUSH2 0x180A JUMP JUMPDEST POP POP POP POP DUP2 MSTORE PUSH1 0x20 ADD PUSH1 0x6 DUP3 ADD PUSH1 0x0 SWAP1 SLOAD SWAP1 PUSH2 0x100 EXP SWAP1 DIV PUSH1 0xFF AND ISZERO ISZERO ISZERO ISZERO DUP2 MSTORE POP POP DUP6 DUP6 DUP1 PUSH2 0x18E5 SWAP1 PUSH2 0x3CD9 JUMP JUMPDEST SWAP7 POP DUP2 MLOAD DUP2 LT PUSH2 0x18F8 JUMPI PUSH2 0x18F7 PUSH2 0x3DAF JUMP JUMPDEST JUMPDEST PUSH1 0x20 MUL PUSH1 0x20 ADD ADD DUP2 SWAP1 MSTORE POP JUMPDEST POP POP JUMPDEST DUP1 DUP1 PUSH2 0x1912 SWAP1 PUSH2 0x3CD9 JUMP JUMPDEST SWAP2 POP POP PUSH2 0x114A JUMP JUMPDEST DUP1 DUP4 SWAP5 POP SWAP5 POP POP POP POP SWAP7 POP SWAP7 SWAP5 POP POP POP POP POP JUMP JUMPDEST DUP2 DUP2 DUP1 PUSH20 0xFFFFFFFFFFFFFFFFFFFFFFFFFFFFFFFFFFFFFFFF AND PUSH1 0x5 DUP4 DUP2 SLOAD DUP2 LT PUSH2 0x195B JUMPI PUSH2 0x195A PUSH2 0x3DAF JUMP JUMPDEST JUMPDEST SWAP1 PUSH1 0x0 MSTORE PUSH1 0x20 PUSH1 0x0 KECCAK256 SWAP1 PUSH1 0x7 MUL ADD PUSH1 0x1 ADD PUSH1 0x0 SWAP1 SLOAD SWAP1 PUSH2 0x100 EXP SWAP1 DIV PUSH20 0xFFFFFFFFFFFFFFFFFFFFFFFFFFFFFFFFFFFFFFFF AND PUSH20 0xFFFFFFFFFFFFFFFFFFFFFFFFFFFFFFFFFFFFFFFF AND EQ PUSH2 0x19E3 JUMPI PUSH1 0x40 MLOAD PUSH32 0x8C379A000000000000000000000000000000000000000000000000000000000 DUP2 MSTORE PUSH1 0x4 ADD PUSH2 0x19DA SWAP1 PUSH2 0x3804 JUMP JUMPDEST PUSH1 0x40 MLOAD DUP1 SWAP2 SUB SWAP1 REVERT JUMPDEST PUSH1 0x0 PUSH1 0x2 PUSH1 0x0 DUP6 PUSH20 0xFFFFFFFFFFFFFFFFFFFFFFFFFFFFFFFFFFFFFFFF AND PUSH20 0xFFFFFFFFFFFFFFFFFFFFFFFFFFFFFFFFFFFFFFFF AND DUP2 MSTORE PUSH1 0x20 ADD SWAP1 DUP2 MSTORE PUSH1 0x20 ADD PUSH1 0x0 KECCAK256 PUSH1 0x0 DUP7 DUP2 MSTORE PUSH1 0x20 ADD SWAP1 DUP2 MSTORE PUSH1 0x20 ADD PUSH1 0x0 KECCAK256 PUSH1 0x40 MLOAD DUP1 PUSH1 0x80 ADD PUSH1 0x40 MSTORE SWAP1 DUP2 PUSH1 0x0 DUP3 ADD SLOAD DUP2 MSTORE PUSH1 0x20 ADD PUSH1 0x1 DUP3 ADD SLOAD DUP2 MSTORE PUSH1 0x20 ADD PUSH1 0x2 DUP3 ADD SLOAD DUP2 MSTORE PUSH1 0x20 ADD PUSH1 0x3 DUP3 ADD SLOAD DUP2 MSTORE POP POP SWAP1 POP DUP1 PUSH1 0x20 ADD MLOAD DUP2 PUSH1 0x0 ADD MLOAD PUSH2 0x1A7E SWAP2 SWAP1 PUSH2 0x3AD7 JUMP JUMPDEST CALLVALUE LT ISZERO PUSH2 0x1AC0 JUMPI PUSH1 0x40 MLOAD PUSH32 0x8C379A000000000000000000000000000000000000000000000000000000000 DUP2 MSTORE PUSH1 0x4 ADD PUSH2 0x1AB7 SWAP1 PUSH2 0x3864 JUMP JUMPDEST PUSH1 0x40 MLOAD DUP1 SWAP2 SUB SWAP1 REVERT JUMPDEST PUSH1 0x0 DUP5 PUSH20 0xFFFFFFFFFFFFFFFFFFFFFFFFFFFFFFFFFFFFFFFF AND DUP3 PUSH1 0x0 ADD MLOAD PUSH1 0x40 MLOAD PUSH2 0x1AEA SWAP1 PUSH2 0x375D JUMP JUMPDEST PUSH1 0x0 PUSH1 0x40 MLOAD DUP1 DUP4 SUB DUP2 DUP6 DUP8 GAS CALL SWAP3 POP POP POP RETURNDATASIZE DUP1 PUSH1 0x0 DUP2 EQ PUSH2 0x1B27 JUMPI PUSH1 0x40 MLOAD SWAP2 POP PUSH1 0x1F NOT PUSH1 0x3F RETURNDATASIZE ADD AND DUP3 ADD PUSH1 0x40 MSTORE RETURNDATASIZE DUP3 MSTORE RETURNDATASIZE PUSH1 0x0 PUSH1 0x20 DUP5 ADD RETURNDATACOPY PUSH2 0x1B2C JUMP JUMPDEST PUSH1 0x60 SWAP2 POP JUMPDEST POP POP SWAP1 POP DUP1 PUSH2 0x1B70 JUMPI PUSH1 0x40 MLOAD PUSH32 0x8C379A000000000000000000000000000000000000000000000000000000000 DUP2 MSTORE PUSH1 0x4 ADD PUSH2 0x1B67 SWAP1 PUSH2 0x3824 JUMP JUMPDEST PUSH1 0x40 MLOAD DUP1 SWAP2 SUB SWAP1 REVERT JUMPDEST PUSH1 0x4 PUSH1 0x0 DUP8 DUP2 MSTORE PUSH1 0x20 ADD SWAP1 DUP2 MSTORE PUSH1 0x20 ADD PUSH1 0x0 KECCAK256 PUSH1 0x40 MLOAD DUP1 PUSH1 0xA0 ADD PUSH1 0x40 MSTORE DUP1 DUP5 PUSH1 0x0 ADD MLOAD DUP2 MSTORE PUSH1 0x20 ADD DUP5 PUSH1 0x20 ADD MLOAD DUP2 MSTORE PUSH1 0x20 ADD DUP5 PUSH1 0x40 ADD MLOAD DUP2 MSTORE PUSH1 0x20 ADD DUP8 PUSH20 0xFFFFFFFFFFFFFFFFFFFFFFFFFFFFFFFFFFFFFFFF AND DUP2 MSTORE PUSH1 0x20 ADD CALLER PUSH20 0xFFFFFFFFFFFFFFFFFFFFFFFFFFFFFFFFFFFFFFFF AND DUP2 MSTORE POP SWAP1 DUP1 PUSH1 0x1 DUP2 SLOAD ADD DUP1 DUP3 SSTORE DUP1 SWAP2 POP POP PUSH1 0x1 SWAP1 SUB SWAP1 PUSH1 0x0 MSTORE PUSH1 0x20 PUSH1 0x0 KECCAK256 SWAP1 PUSH1 0x5 MUL ADD PUSH1 0x0 SWAP1 SWAP2 SWAP1 SWAP2 SWAP1 SWAP2 POP PUSH1 0x0 DUP3 ADD MLOAD DUP2 PUSH1 0x0 ADD SSTORE PUSH1 0x20 DUP3 ADD MLOAD DUP2 PUSH1 0x1 ADD SSTORE PUSH1 0x40 DUP3 ADD MLOAD DUP2 PUSH1 0x2 ADD SSTORE PUSH1 0x60 DUP3 ADD MLOAD DUP2 PUSH1 0x3 ADD PUSH1 0x0 PUSH2 0x100 EXP DUP2 SLOAD DUP2 PUSH20 0xFFFFFFFFFFFFFFFFFFFFFFFFFFFFFFFFFFFFFFFF MUL NOT AND SWAP1 DUP4 PUSH20 0xFFFFFFFFFFFFFFFFFFFFFFFFFFFFFFFFFFFFFFFF AND MUL OR SWAP1 SSTORE POP PUSH1 0x80 DUP3 ADD MLOAD DUP2 PUSH1 0x4 ADD PUSH1 0x0 PUSH2 0x100 EXP DUP2 SLOAD DUP2 PUSH20 0xFFFFFFFFFFFFFFFFFFFFFFFFFFFFFFFFFFFFFFFF MUL NOT AND SWAP1 DUP4 PUSH20 0xFFFFFFFFFFFFFFFFFFFFFFFFFFFFFFFFFFFFFFFF AND MUL OR SWAP1 SSTORE POP POP POP PUSH2 0x1CC4 DUP6 CALLER DUP9 PUSH2 0x28CD JUMP JUMPDEST PUSH2 0x1CCC PUSH2 0x10B9 JUMP JUMPDEST PUSH20 0xFFFFFFFFFFFFFFFFFFFFFFFFFFFFFFFFFFFFFFFF AND DUP3 PUSH1 0x20 ADD MLOAD PUSH1 0x40 MLOAD PUSH2 0x1CF3 SWAP1 PUSH2 0x375D JUMP JUMPDEST PUSH1 0x0 PUSH1 0x40 MLOAD DUP1 DUP4 SUB DUP2 DUP6 DUP8 GAS CALL SWAP3 POP POP POP RETURNDATASIZE DUP1 PUSH1 0x0 DUP2 EQ PUSH2 0x1D30 JUMPI PUSH1 0x40 MLOAD SWAP2 POP PUSH1 0x1F NOT PUSH1 0x3F RETURNDATASIZE ADD AND DUP3 ADD PUSH1 0x40 MSTORE RETURNDATASIZE DUP3 MSTORE RETURNDATASIZE PUSH1 0x0 PUSH1 0x20 DUP5 ADD RETURNDATACOPY PUSH2 0x1D35 JUMP JUMPDEST PUSH1 0x60 SWAP2 POP JUMPDEST POP POP DUP1 SWAP2 POP POP DUP1 PUSH2 0x1D7B JUMPI PUSH1 0x40 MLOAD PUSH32 0x8C379A000000000000000000000000000000000000000000000000000000000 DUP2 MSTORE PUSH1 0x4 ADD PUSH2 0x1D72 SWAP1 PUSH2 0x37E4 JUMP JUMPDEST PUSH1 0x40 MLOAD DUP1 SWAP2 SUB SWAP1 REVERT JUMPDEST POP POP POP POP POP POP JUMP JUMPDEST PUSH2 0x1D8B PUSH2 0x26D9 JUMP JUMPDEST PUSH20 0xFFFFFFFFFFFFFFFFFFFFFFFFFFFFFFFFFFFFFFFF AND PUSH2 0x1DA9 PUSH2 0x10B9 JUMP JUMPDEST PUSH20 0xFFFFFFFFFFFFFFFFFFFFFFFFFFFFFFFFFFFFFFFF AND EQ PUSH2 0x1DFF JUMPI PUSH1 0x40 MLOAD PUSH32 0x8C379A000000000000000000000000000000000000000000000000000000000 DUP2 MSTORE PUSH1 0x4 ADD PUSH2 0x1DF6 SWAP1 PUSH2 0x3844 JUMP JUMPDEST PUSH1 0x40 MLOAD DUP1 SWAP2 SUB SWAP1 REVERT JUMPDEST DUP1 PUSH1 0x6 DUP2 SWAP1 SSTORE POP POP JUMP JUMPDEST PUSH2 0x1E11 PUSH2 0x2CE3 JUMP JUMPDEST PUSH1 0x0 PUSH1 0x5 DUP4 DUP2 SLOAD DUP2 LT PUSH2 0x1E27 JUMPI PUSH2 0x1E26 PUSH2 0x3DAF JUMP JUMPDEST JUMPDEST SWAP1 PUSH1 0x0 MSTORE PUSH1 0x20 PUSH1 0x0 KECCAK256 SWAP1 PUSH1 0x7 MUL ADD PUSH1 0x40 MLOAD DUP1 PUSH1 0xE0 ADD PUSH1 0x40 MSTORE SWAP1 DUP2 PUSH1 0x0 DUP3 ADD SLOAD DUP2 MSTORE PUSH1 0x20 ADD PUSH1 0x1 DUP3 ADD PUSH1 0x0 SWAP1 SLOAD SWAP1 PUSH2 0x100 EXP SWAP1 DIV PUSH20 0xFFFFFFFFFFFFFFFFFFFFFFFFFFFFFFFFFFFFFFFF AND PUSH20 0xFFFFFFFFFFFFFFFFFFFFFFFFFFFFFFFFFFFFFFFF AND PUSH20 0xFFFFFFFFFFFFFFFFFFFFFFFFFFFFFFFFFFFFFFFF AND DUP2 MSTORE PUSH1 0x20 ADD PUSH1 0x2 DUP3 ADD DUP1 SLOAD PUSH2 0x1EB0 SWAP1 PUSH2 0x3C76 JUMP JUMPDEST DUP1 PUSH1 0x1F ADD PUSH1 0x20 DUP1 SWAP2 DIV MUL PUSH1 0x20 ADD PUSH1 0x40 MLOAD SWAP1 DUP2 ADD PUSH1 0x40 MSTORE DUP1 SWAP3 SWAP2 SWAP1 DUP2 DUP2 MSTORE PUSH1 0x20 ADD DUP3 DUP1 SLOAD PUSH2 0x1EDC SWAP1 PUSH2 0x3C76 JUMP JUMPDEST DUP1 ISZERO PUSH2 0x1F29 JUMPI DUP1 PUSH1 0x1F LT PUSH2 0x1EFE JUMPI PUSH2 0x100 DUP1 DUP4 SLOAD DIV MUL DUP4 MSTORE SWAP2 PUSH1 0x20 ADD SWAP2 PUSH2 0x1F29 JUMP JUMPDEST DUP3 ADD SWAP2 SWAP1 PUSH1 0x0 MSTORE PUSH1 0x20 PUSH1 0x0 KECCAK256 SWAP1 JUMPDEST DUP2 SLOAD DUP2 MSTORE SWAP1 PUSH1 0x1 ADD SWAP1 PUSH1 0x20 ADD DUP1 DUP4 GT PUSH2 0x1F0C JUMPI DUP3 SWAP1 SUB PUSH1 0x1F AND DUP3 ADD SWAP2 JUMPDEST POP POP POP POP POP DUP2 MSTORE PUSH1 0x20 ADD PUSH1 0x3 DUP3 ADD DUP1 SLOAD PUSH2 0x1F42 SWAP1 PUSH2 0x3C76 JUMP JUMPDEST DUP1 PUSH1 0x1F ADD PUSH1 0x20 DUP1 SWAP2 DIV MUL PUSH1 0x20 ADD PUSH1 0x40 MLOAD SWAP1 DUP2 ADD PUSH1 0x40 MSTORE DUP1 SWAP3 SWAP2 SWAP1 DUP2 DUP2 MSTORE PUSH1 0x20 ADD DUP3 DUP1 SLOAD PUSH2 0x1F6E SWAP1 PUSH2 0x3C76 JUMP JUMPDEST DUP1 ISZERO PUSH2 0x1FBB JUMPI DUP1 PUSH1 0x1F LT PUSH2 0x1F90 JUMPI PUSH2 0x100 DUP1 DUP4 SLOAD DIV MUL DUP4 MSTORE SWAP2 PUSH1 0x20 ADD SWAP2 PUSH2 0x1FBB JUMP JUMPDEST DUP3 ADD SWAP2 SWAP1 PUSH1 0x0 MSTORE PUSH1 0x20 PUSH1 0x0 KECCAK256 SWAP1 JUMPDEST DUP2 SLOAD DUP2 MSTORE SWAP1 PUSH1 0x1 ADD SWAP1 PUSH1 0x20 ADD DUP1 DUP4 GT PUSH2 0x1F9E JUMPI DUP3 SWAP1 SUB PUSH1 0x1F AND DUP3 ADD SWAP2 JUMPDEST POP POP POP POP POP DUP2 MSTORE PUSH1 0x20 ADD PUSH1 0x4 DUP3 ADD DUP1 SLOAD PUSH2 0x1FD4 SWAP1 PUSH2 0x3C76 JUMP JUMPDEST DUP1 PUSH1 0x1F ADD PUSH1 0x20 DUP1 SWAP2 DIV MUL PUSH1 0x20 ADD PUSH1 0x40 MLOAD SWAP1 DUP2 ADD PUSH1 0x40 MSTORE DUP1 SWAP3 SWAP2 SWAP1 DUP2 DUP2 MSTORE PUSH1 0x20 ADD DUP3 DUP1 SLOAD PUSH2 0x2000 SWAP1 PUSH2 0x3C76 JUMP JUMPDEST DUP1 ISZERO PUSH2 0x204D JUMPI DUP1 PUSH1 0x1F LT PUSH2 0x2022 JUMPI PUSH2 0x100 DUP1 DUP4 SLOAD DIV MUL DUP4 MSTORE SWAP2 PUSH1 0x20 ADD SWAP2 PUSH2 0x204D JUMP JUMPDEST DUP3 ADD SWAP2 SWAP1 PUSH1 0x0 MSTORE PUSH1 0x20 PUSH1 0x0 KECCAK256 SWAP1 JUMPDEST DUP2 SLOAD DUP2 MSTORE SWAP1 PUSH1 0x1 ADD SWAP1 PUSH1 0x20 ADD DUP1 DUP4 GT PUSH2 0x2030 JUMPI DUP3 SWAP1 SUB PUSH1 0x1F AND DUP3 ADD SWAP2 JUMPDEST POP POP POP POP POP DUP2 MSTORE PUSH1 0x20 ADD PUSH1 0x5 DUP3 ADD DUP1 SLOAD DUP1 PUSH1 0x20 MUL PUSH1 0x20 ADD PUSH1 0x40 MLOAD SWAP1 DUP2 ADD PUSH1 0x40 MSTORE DUP1 SWAP3 SWAP2 SWAP1 DUP2 DUP2 MSTORE PUSH1 0x20 ADD PUSH1 0x0 SWAP1 JUMPDEST DUP3 DUP3 LT ISZERO PUSH2 0x2127 JUMPI DUP4 DUP3 SWAP1 PUSH1 0x0 MSTORE PUSH1 0x20 PUSH1 0x0 KECCAK256 ADD DUP1 SLOAD PUSH2 0x209A SWAP1 PUSH2 0x3C76 JUMP JUMPDEST DUP1 PUSH1 0x1F ADD PUSH1 0x20 DUP1 SWAP2 DIV MUL PUSH1 0x20 ADD PUSH1 0x40 MLOAD SWAP1 DUP2 ADD PUSH1 0x40 MSTORE DUP1 SWAP3 SWAP2 SWAP1 DUP2 DUP2 MSTORE PUSH1 0x20 ADD DUP3 DUP1 SLOAD PUSH2 0x20C6 SWAP1 PUSH2 0x3C76 JUMP JUMPDEST DUP1 ISZERO PUSH2 0x2113 JUMPI DUP1 PUSH1 0x1F LT PUSH2 0x20E8 JUMPI PUSH2 0x100 DUP1 DUP4 SLOAD DIV MUL DUP4 MSTORE SWAP2 PUSH1 0x20 ADD SWAP2 PUSH2 0x2113 JUMP JUMPDEST DUP3 ADD SWAP2 SWAP1 PUSH1 0x0 MSTORE PUSH1 0x20 PUSH1 0x0 KECCAK256 SWAP1 JUMPDEST DUP2 SLOAD DUP2 MSTORE SWAP1 PUSH1 0x1 ADD SWAP1 PUSH1 0x20 ADD DUP1 DUP4 GT PUSH2 0x20F6 JUMPI DUP3 SWAP1 SUB PUSH1 0x1F AND DUP3 ADD SWAP2 JUMPDEST POP POP POP POP POP DUP2 MSTORE PUSH1 0x20 ADD SWAP1 PUSH1 0x1 ADD SWAP1 PUSH2 0x207B JUMP JUMPDEST POP POP POP POP DUP2 MSTORE PUSH1 0x20 ADD PUSH1 0x6 DUP3 ADD PUSH1 0x0 SWAP1 SLOAD SWAP1 PUSH2 0x100 EXP SWAP1 DIV PUSH1 0xFF AND ISZERO ISZERO ISZERO ISZERO DUP2 MSTORE POP POP SWAP1 POP PUSH1 0x1 ISZERO ISZERO DUP2 PUSH1 0xC0 ADD MLOAD ISZERO ISZERO EQ PUSH2 0x2161 JUMPI PUSH1 0x0 DUP1 REVERT JUMPDEST PUSH1 0x2 PUSH1 0x0 DUP3 PUSH1 0x20 ADD MLOAD PUSH20 0xFFFFFFFFFFFFFFFFFFFFFFFFFFFFFFFFFFFFFFFF AND PUSH20 0xFFFFFFFFFFFFFFFFFFFFFFFFFFFFFFFFFFFFFFFF AND DUP2 MSTORE PUSH1 0x20 ADD SWAP1 DUP2 MSTORE PUSH1 0x20 ADD PUSH1 0x0 KECCAK256 PUSH1 0x0 DUP5 DUP2 MSTORE PUSH1 0x20 ADD SWAP1 DUP2 MSTORE PUSH1 0x20 ADD PUSH1 0x0 KECCAK256 PUSH1 0x40 MLOAD DUP1 PUSH1 0x80 ADD PUSH1 0x40 MSTORE SWAP1 DUP2 PUSH1 0x0 DUP3 ADD SLOAD DUP2 MSTORE PUSH1 0x20 ADD PUSH1 0x1 DUP3 ADD SLOAD DUP2 MSTORE PUSH1 0x20 ADD PUSH1 0x2 DUP3 ADD SLOAD DUP2 MSTORE PUSH1 0x20 ADD PUSH1 0x3 DUP3 ADD SLOAD DUP2 MSTORE POP POP SWAP2 POP POP SWAP2 SWAP1 POP JUMP JUMPDEST PUSH1 0x0 PUSH1 0x1 PUSH1 0x0 DUP2 SLOAD DUP1 SWAP3 SWAP2 SWAP1 PUSH2 0x2205 SWAP1 PUSH2 0x3CD9 JUMP JUMPDEST SWAP2 SWAP1 POP SSTORE SWAP1 POP PUSH1 0x0 PUSH1 0x40 MLOAD DUP1 PUSH1 0xE0 ADD PUSH1 0x40 MSTORE DUP1 DUP4 DUP2 MSTORE PUSH1 0x20 ADD CALLER PUSH20 0xFFFFFFFFFFFFFFFFFFFFFFFFFFFFFFFFFFFFFFFF AND DUP2 MSTORE PUSH1 0x20 ADD DUP8 DUP2 MSTORE PUSH1 0x20 ADD DUP7 DUP2 MSTORE PUSH1 0x20 ADD DUP6 DUP2 MSTORE PUSH1 0x20 ADD DUP5 DUP2 MSTORE PUSH1 0x20 ADD PUSH1 0x0 ISZERO ISZERO DUP2 MSTORE POP SWAP1 POP PUSH1 0x5 DUP2 SWAP1 DUP1 PUSH1 0x1 DUP2 SLOAD ADD DUP1 DUP3 SSTORE DUP1 SWAP2 POP POP PUSH1 0x1 SWAP1 SUB SWAP1 PUSH1 0x0 MSTORE PUSH1 0x20 PUSH1 0x0 KECCAK256 SWAP1 PUSH1 0x7 MUL ADD PUSH1 0x0 SWAP1 SWAP2 SWAP1 SWAP2 SWAP1 SWAP2 POP PUSH1 0x0 DUP3 ADD MLOAD DUP2 PUSH1 0x0 ADD SSTORE PUSH1 0x20 DUP3 ADD MLOAD DUP2 PUSH1 0x1 ADD PUSH1 0x0 PUSH2 0x100 EXP DUP2 SLOAD DUP2 PUSH20 0xFFFFFFFFFFFFFFFFFFFFFFFFFFFFFFFFFFFFFFFF MUL NOT AND SWAP1 DUP4 PUSH20 0xFFFFFFFFFFFFFFFFFFFFFFFFFFFFFFFFFFFFFFFF AND MUL OR SWAP1 SSTORE POP PUSH1 0x40 DUP3 ADD MLOAD DUP2 PUSH1 0x2 ADD SWAP1 DUP1 MLOAD SWAP1 PUSH1 0x20 ADD SWAP1 PUSH2 0x22F4 SWAP3 SWAP2 SWAP1 PUSH2 0x2BA8 JUMP JUMPDEST POP PUSH1 0x60 DUP3 ADD MLOAD DUP2 PUSH1 0x3 ADD SWAP1 DUP1 MLOAD SWAP1 PUSH1 0x20 ADD SWAP1 PUSH2 0x2311 SWAP3 SWAP2 SWAP1 PUSH2 0x2BA8 JUMP JUMPDEST POP PUSH1 0x80 DUP3 ADD MLOAD DUP2 PUSH1 0x4 ADD SWAP1 DUP1 MLOAD SWAP1 PUSH1 0x20 ADD SWAP1 PUSH2 0x232E SWAP3 SWAP2 SWAP1 PUSH2 0x2BA8 JUMP JUMPDEST POP PUSH1 0xA0 DUP3 ADD MLOAD DUP2 PUSH1 0x5 ADD SWAP1 DUP1 MLOAD SWAP1 PUSH1 0x20 ADD SWAP1 PUSH2 0x234B SWAP3 SWAP2 SWAP1 PUSH2 0x2C2E JUMP JUMPDEST POP PUSH1 0xC0 DUP3 ADD MLOAD DUP2 PUSH1 0x6 ADD PUSH1 0x0 PUSH2 0x100 EXP DUP2 SLOAD DUP2 PUSH1 0xFF MUL NOT AND SWAP1 DUP4 ISZERO ISZERO MUL OR SWAP1 SSTORE POP POP POP PUSH1 0x1 PUSH1 0x3 PUSH1 0x0 CALLER PUSH20 0xFFFFFFFFFFFFFFFFFFFFFFFFFFFFFFFFFFFFFFFF AND PUSH20 0xFFFFFFFFFFFFFFFFFFFFFFFFFFFFFFFFFFFFFFFF AND DUP2 MSTORE PUSH1 0x20 ADD SWAP1 DUP2 MSTORE PUSH1 0x20 ADD PUSH1 0x0 KECCAK256 PUSH1 0x0 DUP5 DUP2 MSTORE PUSH1 0x20 ADD SWAP1 DUP2 MSTORE PUSH1 0x20 ADD PUSH1 0x0 KECCAK256 PUSH1 0x0 PUSH2 0x100 EXP DUP2 SLOAD DUP2 PUSH1 0xFF MUL NOT AND SWAP1 DUP4 ISZERO ISZERO MUL OR SWAP1 SSTORE POP POP POP POP POP POP POP JUMP JUMPDEST DUP2 CALLER DUP1 PUSH20 0xFFFFFFFFFFFFFFFFFFFFFFFFFFFFFFFFFFFFFFFF AND PUSH1 0x5 DUP4 DUP2 SLOAD DUP2 LT PUSH2 0x240C JUMPI PUSH2 0x240B PUSH2 0x3DAF JUMP JUMPDEST JUMPDEST SWAP1 PUSH1 0x0 MSTORE PUSH1 0x20 PUSH1 0x0 KECCAK256 SWAP1 PUSH1 0x7 MUL ADD PUSH1 0x1 ADD PUSH1 0x0 SWAP1 SLOAD SWAP1 PUSH2 0x100 EXP SWAP1 DIV PUSH20 0xFFFFFFFFFFFFFFFFFFFFFFFFFFFFFFFFFFFFFFFF AND PUSH20 0xFFFFFFFFFFFFFFFFFFFFFFFFFFFFFFFFFFFFFFFF AND EQ PUSH2 0x2494 JUMPI PUSH1 0x40 MLOAD PUSH32 0x8C379A000000000000000000000000000000000000000000000000000000000 DUP2 MSTORE PUSH1 0x4 ADD PUSH2 0x248B SWAP1 PUSH2 0x3804 JUMP JUMPDEST PUSH1 0x40 MLOAD DUP1 SWAP2 SUB SWAP1 REVERT JUMPDEST PUSH2 0x249F CALLER DUP6 DUP6 PUSH2 0x2A50 JUMP JUMPDEST POP POP POP POP JUMP JUMPDEST PUSH2 0x24AD PUSH2 0x26D9 JUMP JUMPDEST PUSH20 0xFFFFFFFFFFFFFFFFFFFFFFFFFFFFFFFFFFFFFFFF AND PUSH2 0x24CB PUSH2 0x10B9 JUMP JUMPDEST PUSH20 0xFFFFFFFFFFFFFFFFFFFFFFFFFFFFFFFFFFFFFFFF AND EQ PUSH2 0x2521 JUMPI PUSH1 0x40 MLOAD PUSH32 0x8C379A000000000000000000000000000000000000000000000000000000000 DUP2 MSTORE PUSH1 0x4 ADD PUSH2 0x2518 SWAP1 PUSH2 0x3844 JUMP JUMPDEST PUSH1 0x40 MLOAD DUP1 SWAP2 SUB SWAP1 REVERT JUMPDEST PUSH1 0x0 PUSH20 0xFFFFFFFFFFFFFFFFFFFFFFFFFFFFFFFFFFFFFFFF AND DUP2 PUSH20 0xFFFFFFFFFFFFFFFFFFFFFFFFFFFFFFFFFFFFFFFF AND EQ ISZERO PUSH2 0x2591 JUMPI PUSH1 0x40 MLOAD PUSH32 0x8C379A000000000000000000000000000000000000000000000000000000000 DUP2 MSTORE PUSH1 0x4 ADD PUSH2 0x2588 SWAP1 PUSH2 0x37C4 JUMP JUMPDEST PUSH1 0x40 MLOAD DUP1 SWAP2 SUB SWAP1 REVERT JUMPDEST PUSH2 0x259A DUP2 PUSH2 0x26E1 JUMP JUMPDEST POP JUMP JUMPDEST PUSH1 0x60 PUSH1 0x4 PUSH1 0x0 DUP4 DUP2 MSTORE PUSH1 0x20 ADD SWAP1 DUP2 MSTORE PUSH1 0x20 ADD PUSH1 0x0 KECCAK256 DUP1 SLOAD DUP1 PUSH1 0x20 MUL PUSH1 0x20 ADD PUSH1 0x40 MLOAD SWAP1 DUP2 ADD PUSH1 0x40 MSTORE DUP1 SWAP3 SWAP2 SWAP1 DUP2 DUP2 MSTORE PUSH1 0x20 ADD PUSH1 0x0 SWAP1 JUMPDEST DUP3 DUP3 LT ISZERO PUSH2 0x26CE JUMPI DUP4 DUP3 SWAP1 PUSH1 0x0 MSTORE PUSH1 0x20 PUSH1 0x0 KECCAK256 SWAP1 PUSH1 0x5 MUL ADD PUSH1 0x40 MLOAD DUP1 PUSH1 0xA0 ADD PUSH1 0x40 MSTORE SWAP1 DUP2 PUSH1 0x0 DUP3 ADD SLOAD DUP2 MSTORE PUSH1 0x20 ADD PUSH1 0x1 DUP3 ADD SLOAD DUP2 MSTORE PUSH1 0x20 ADD PUSH1 0x2 DUP3 ADD SLOAD DUP2 MSTORE PUSH1 0x20 ADD PUSH1 0x3 DUP3 ADD PUSH1 0x0 SWAP1 SLOAD SWAP1 PUSH2 0x100 EXP SWAP1 DIV PUSH20 0xFFFFFFFFFFFFFFFFFFFFFFFFFFFFFFFFFFFFFFFF AND PUSH20 0xFFFFFFFFFFFFFFFFFFFFFFFFFFFFFFFFFFFFFFFF AND PUSH20 0xFFFFFFFFFFFFFFFFFFFFFFFFFFFFFFFFFFFFFFFF AND DUP2 MSTORE PUSH1 0x20 ADD PUSH1 0x4 DUP3 ADD PUSH1 0x0 SWAP1 SLOAD SWAP1 PUSH2 0x100 EXP SWAP1 DIV PUSH20 0xFFFFFFFFFFFFFFFFFFFFFFFFFFFFFFFFFFFFFFFF AND PUSH20 0xFFFFFFFFFFFFFFFFFFFFFFFFFFFFFFFFFFFFFFFF AND PUSH20 0xFFFFFFFFFFFFFFFFFFFFFFFFFFFFFFFFFFFFFFFF AND DUP2 MSTORE POP POP DUP2 MSTORE PUSH1 0x20 ADD SWAP1 PUSH1 0x1 ADD SWAP1 PUSH2 0x25D2 JUMP JUMPDEST POP POP POP POP SWAP1 POP SWAP2 SWAP1 POP JUMP JUMPDEST PUSH1 0x0 CALLER SWAP1 POP SWAP1 JUMP JUMPDEST PUSH1 0x0 DUP1 PUSH1 0x0 SWAP1 SLOAD SWAP1 PUSH2 0x100 EXP SWAP1 DIV PUSH20 0xFFFFFFFFFFFFFFFFFFFFFFFFFFFFFFFFFFFFFFFF AND SWAP1 POP DUP2 PUSH1 0x0 DUP1 PUSH2 0x100 EXP DUP2 SLOAD DUP2 PUSH20 0xFFFFFFFFFFFFFFFFFFFFFFFFFFFFFFFFFFFFFFFF MUL NOT AND SWAP1 DUP4 PUSH20 0xFFFFFFFFFFFFFFFFFFFFFFFFFFFFFFFFFFFFFFFF AND MUL OR SWAP1 SSTORE POP DUP2 PUSH20 0xFFFFFFFFFFFFFFFFFFFFFFFFFFFFFFFFFFFFFFFF AND DUP2 PUSH20 0xFFFFFFFFFFFFFFFFFFFFFFFFFFFFFFFFFFFFFFFF AND PUSH32 0x8BE0079C531659141344CD1FD0A4F28419497F9722A3DAAFE3B4186F6B6457E0 PUSH1 0x40 MLOAD PUSH1 0x40 MLOAD DUP1 SWAP2 SUB SWAP1 LOG3 POP POP JUMP JUMPDEST PUSH1 0x0 DUP1 DUP4 SWAP1 POP PUSH1 0x0 DUP4 SWAP1 POP DUP2 MLOAD DUP2 MLOAD LT ISZERO PUSH2 0x27C5 JUMPI PUSH1 0x0 SWAP3 POP POP POP PUSH2 0x28C7 JUMP JUMPDEST PUSH1 0x0 SWAP3 POP PUSH1 0x0 JUMPDEST DUP3 MLOAD DUP3 MLOAD PUSH2 0x27DA SWAP2 SWAP1 PUSH2 0x3BB8 JUMP JUMPDEST DUP2 GT PUSH2 0x28C3 JUMPI PUSH1 0x0 PUSH1 0x1 SWAP1 POP PUSH1 0x0 JUMPDEST DUP5 MLOAD DUP2 LT ISZERO PUSH2 0x289E JUMPI DUP5 DUP2 DUP2 MLOAD DUP2 LT PUSH2 0x2805 JUMPI PUSH2 0x2804 PUSH2 0x3DAF JUMP JUMPDEST JUMPDEST PUSH1 0x20 ADD ADD MLOAD PUSH1 0xF8 SHR PUSH1 0xF8 SHL PUSH31 0xFFFFFFFFFFFFFFFFFFFFFFFFFFFFFFFFFFFFFFFFFFFFFFFFFFFFFFFFFFFFFF NOT AND DUP5 DUP3 DUP6 PUSH2 0x283F SWAP2 SWAP1 PUSH2 0x3AD7 JUMP JUMPDEST DUP2 MLOAD DUP2 LT PUSH2 0x2850 JUMPI PUSH2 0x284F PUSH2 0x3DAF JUMP JUMPDEST JUMPDEST PUSH1 0x20 ADD ADD MLOAD PUSH1 0xF8 SHR PUSH1 0xF8 SHL PUSH31 0xFFFFFFFFFFFFFFFFFFFFFFFFFFFFFFFFFFFFFFFFFFFFFFFFFFFFFFFFFFFFFF NOT AND EQ PUSH2 0x288B JUMPI PUSH1 0x0 SWAP2 POP PUSH2 0x289E JUMP JUMPDEST DUP1 DUP1 PUSH2 0x2896 SWAP1 PUSH2 0x3CD9 JUMP JUMPDEST SWAP2 POP POP PUSH2 0x27E9 JUMP JUMPDEST POP DUP1 ISZERO PUSH2 0x28AF JUMPI PUSH1 0x1 SWAP5 POP POP PUSH2 0x28C3 JUMP JUMPDEST POP DUP1 DUP1 PUSH2 0x28BB SWAP1 PUSH2 0x3CD9 JUMP JUMPDEST SWAP2 POP POP PUSH2 0x27CC JUMP JUMPDEST POP POP POP JUMPDEST SWAP3 SWAP2 POP POP JUMP JUMPDEST PUSH1 0x1 PUSH1 0x3 PUSH1 0x0 DUP5 PUSH20 0xFFFFFFFFFFFFFFFFFFFFFFFFFFFFFFFFFFFFFFFF AND PUSH20 0xFFFFFFFFFFFFFFFFFFFFFFFFFFFFFFFFFFFFFFFF AND DUP2 MSTORE PUSH1 0x20 ADD SWAP1 DUP2 MSTORE PUSH1 0x20 ADD PUSH1 0x0 KECCAK256 PUSH1 0x0 DUP4 DUP2 MSTORE PUSH1 0x20 ADD SWAP1 DUP2 MSTORE PUSH1 0x20 ADD PUSH1 0x0 KECCAK256 PUSH1 0x0 PUSH2 0x100 EXP DUP2 SLOAD DUP2 PUSH1 0xFF MUL NOT AND SWAP1 DUP4 ISZERO ISZERO MUL OR SWAP1 SSTORE POP DUP2 PUSH1 0x5 DUP3 DUP2 SLOAD DUP2 LT PUSH2 0x294B JUMPI PUSH2 0x294A PUSH2 0x3DAF JUMP JUMPDEST JUMPDEST SWAP1 PUSH1 0x0 MSTORE PUSH1 0x20 PUSH1 0x0 KECCAK256 SWAP1 PUSH1 0x7 MUL ADD PUSH1 0x1 ADD PUSH1 0x0 PUSH2 0x100 EXP DUP2 SLOAD DUP2 PUSH20 0xFFFFFFFFFFFFFFFFFFFFFFFFFFFFFFFFFFFFFFFF MUL NOT AND SWAP1 DUP4 PUSH20 0xFFFFFFFFFFFFFFFFFFFFFFFFFFFFFFFFFFFFFFFF AND MUL OR SWAP1 SSTORE POP PUSH1 0x0 PUSH1 0x5 DUP3 DUP2 SLOAD DUP2 LT PUSH2 0x29B0 JUMPI PUSH2 0x29AF PUSH2 0x3DAF JUMP JUMPDEST JUMPDEST SWAP1 PUSH1 0x0 MSTORE PUSH1 0x20 PUSH1 0x0 KECCAK256 SWAP1 PUSH1 0x7 MUL ADD PUSH1 0x6 ADD PUSH1 0x0 PUSH2 0x100 EXP DUP2 SLOAD DUP2 PUSH1 0xFF MUL NOT AND SWAP1 DUP4 ISZERO ISZERO MUL OR SWAP1 SSTORE POP PUSH1 0x2 PUSH1 0x0 DUP5 PUSH20 0xFFFFFFFFFFFFFFFFFFFFFFFFFFFFFFFFFFFFFFFF AND PUSH20 0xFFFFFFFFFFFFFFFFFFFFFFFFFFFFFFFFFFFFFFFF AND DUP2 MSTORE PUSH1 0x20 ADD SWAP1 DUP2 MSTORE PUSH1 0x20 ADD PUSH1 0x0 KECCAK256 PUSH1 0x0 DUP3 DUP2 MSTORE PUSH1 0x20 ADD SWAP1 DUP2 MSTORE PUSH1 0x20 ADD PUSH1 0x0 KECCAK256 PUSH1 0x0 DUP1 DUP3 ADD PUSH1 0x0 SWAP1 SSTORE PUSH1 0x1 DUP3 ADD PUSH1 0x0 SWAP1 SSTORE PUSH1 0x2 DUP3 ADD PUSH1 0x0 SWAP1 SSTORE PUSH1 0x3 DUP3 ADD PUSH1 0x0 SWAP1 SSTORE POP POP POP POP POP JUMP JUMPDEST PUSH1 0x40 MLOAD DUP1 PUSH1 0x80 ADD PUSH1 0x40 MSTORE DUP1 DUP3 DUP2 MSTORE PUSH1 0x20 ADD PUSH1 0x64 PUSH1 0x6 SLOAD DUP5 PUSH2 0x2A71 SWAP2 SWAP1 PUSH2 0x3B5E JUMP JUMPDEST PUSH2 0x2A7B SWAP2 SWAP1 PUSH2 0x3B2D JUMP JUMPDEST DUP2 MSTORE PUSH1 0x20 ADD TIMESTAMP DUP2 MSTORE PUSH1 0x20 ADD DUP4 DUP2 MSTORE POP PUSH1 0x2 PUSH1 0x0 DUP6 PUSH20 0xFFFFFFFFFFFFFFFFFFFFFFFFFFFFFFFFFFFFFFFF AND PUSH20 0xFFFFFFFFFFFFFFFFFFFFFFFFFFFFFFFFFFFFFFFF AND DUP2 MSTORE PUSH1 0x20 ADD SWAP1 DUP2 MSTORE PUSH1 0x20 ADD PUSH1 0x0 KECCAK256 PUSH1 0x0 DUP5 DUP2 MSTORE PUSH1 0x20 ADD SWAP1 DUP2 MSTORE PUSH1 0x20 ADD PUSH1 0x0 KECCAK256 PUSH1 0x0 DUP3 ADD MLOAD DUP2 PUSH1 0x0 ADD SSTORE PUSH1 0x20 DUP3 ADD MLOAD DUP2 PUSH1 0x1 ADD SSTORE PUSH1 0x40 DUP3 ADD MLOAD DUP2 PUSH1 0x2 ADD SSTORE PUSH1 0x60 DUP3 ADD MLOAD DUP2 PUSH1 0x3 ADD SSTORE SWAP1 POP POP PUSH1 0x1 PUSH1 0x5 DUP4 DUP2 SLOAD DUP2 LT PUSH2 0x2B1B JUMPI PUSH2 0x2B1A PUSH2 0x3DAF JUMP JUMPDEST JUMPDEST SWAP1 PUSH1 0x0 MSTORE PUSH1 0x20 PUSH1 0x0 KECCAK256 SWAP1 PUSH1 0x7 MUL ADD PUSH1 0x6 ADD PUSH1 0x0 PUSH2 0x100 EXP DUP2 SLOAD DUP2 PUSH1 0xFF MUL NOT AND SWAP1 DUP4 ISZERO ISZERO MUL OR SWAP1 SSTORE POP PUSH1 0x3 PUSH1 0x0 DUP5 PUSH20 0xFFFFFFFFFFFFFFFFFFFFFFFFFFFFFFFFFFFFFFFF AND PUSH20 0xFFFFFFFFFFFFFFFFFFFFFFFFFFFFFFFFFFFFFFFF AND DUP2 MSTORE PUSH1 0x20 ADD SWAP1 DUP2 MSTORE PUSH1 0x20 ADD PUSH1 0x0 KECCAK256 PUSH1 0x0 DUP4 DUP2 MSTORE PUSH1 0x20 ADD SWAP1 DUP2 MSTORE PUSH1 0x20 ADD PUSH1 0x0 KECCAK256 PUSH1 0x0 PUSH2 0x100 EXP DUP2 SLOAD SWAP1 PUSH1 0xFF MUL NOT AND SWAP1 SSTORE POP POP POP JUMP JUMPDEST DUP3 DUP1 SLOAD PUSH2 0x2BB4 SWAP1 PUSH2 0x3C76 JUMP JUMPDEST SWAP1 PUSH1 0x0 MSTORE PUSH1 0x20 PUSH1 0x0 KECCAK256 SWAP1 PUSH1 0x1F ADD PUSH1 0x20 SWAP1 DIV DUP2 ADD SWAP3 DUP3 PUSH2 0x2BD6 JUMPI PUSH1 0x0 DUP6 SSTORE PUSH2 0x2C1D JUMP JUMPDEST DUP3 PUSH1 0x1F LT PUSH2 0x2BEF JUMPI DUP1 MLOAD PUSH1 0xFF NOT AND DUP4 DUP1 ADD OR DUP6 SSTORE PUSH2 0x2C1D JUMP JUMPDEST DUP3 DUP1 ADD PUSH1 0x1 ADD DUP6 SSTORE DUP3 ISZERO PUSH2 0x2C1D JUMPI SWAP2 DUP3 ADD JUMPDEST DUP3 DUP2 GT ISZERO PUSH2 0x2C1C JUMPI DUP3 MLOAD DUP3 SSTORE SWAP2 PUSH1 0x20 ADD SWAP2 SWAP1 PUSH1 0x1 ADD SWAP1 PUSH2 0x2C01 JUMP JUMPDEST JUMPDEST POP SWAP1 POP PUSH2 0x2C2A SWAP2 SWAP1 PUSH2 0x2D0B JUMP JUMPDEST POP SWAP1 JUMP JUMPDEST DUP3 DUP1 SLOAD DUP3 DUP3 SSTORE SWAP1 PUSH1 0x0 MSTORE PUSH1 0x20 PUSH1 0x0 KECCAK256 SWAP1 DUP2 ADD SWAP3 DUP3 ISZERO PUSH2 0x2C7D JUMPI SWAP2 PUSH1 0x20 MUL DUP3 ADD JUMPDEST DUP3 DUP2 GT ISZERO PUSH2 0x2C7C JUMPI DUP3 MLOAD DUP3 SWAP1 DUP1 MLOAD SWAP1 PUSH1 0x20 ADD SWAP1 PUSH2 0x2C6C SWAP3 SWAP2 SWAP1 PUSH2 0x2BA8 JUMP JUMPDEST POP SWAP2 PUSH1 0x20 ADD SWAP2 SWAP1 PUSH1 0x1 ADD SWAP1 PUSH2 0x2C4E JUMP JUMPDEST JUMPDEST POP SWAP1 POP PUSH2 0x2C8A SWAP2 SWAP1 PUSH2 0x2D28 JUMP JUMPDEST POP SWAP1 JUMP JUMPDEST PUSH1 0x40 MLOAD DUP1 PUSH1 0xE0 ADD PUSH1 0x40 MSTORE DUP1 PUSH1 0x0 DUP2 MSTORE PUSH1 0x20 ADD PUSH1 0x0 PUSH20 0xFFFFFFFFFFFFFFFFFFFFFFFFFFFFFFFFFFFFFFFF AND DUP2 MSTORE PUSH1 0x20 ADD PUSH1 0x60 DUP2 MSTORE PUSH1 0x20 ADD PUSH1 0x60 DUP2 MSTORE PUSH1 0x20 ADD PUSH1 0x60 DUP2 MSTORE PUSH1 0x20 ADD PUSH1 0x60 DUP2 MSTORE PUSH1 0x20 ADD PUSH1 0x0 ISZERO ISZERO DUP2 MSTORE POP SWAP1 JUMP JUMPDEST PUSH1 0x40 MLOAD DUP1 PUSH1 0x80 ADD PUSH1 0x40 MSTORE DUP1 PUSH1 0x0 DUP2 MSTORE PUSH1 0x20 ADD PUSH1 0x0 DUP2 MSTORE PUSH1 0x20 ADD PUSH1 0x0 DUP2 MSTORE PUSH1 0x20 ADD PUSH1 0x0 DUP2 MSTORE POP SWAP1 JUMP JUMPDEST JUMPDEST DUP1 DUP3 GT ISZERO PUSH2 0x2D24 JUMPI PUSH1 0x0 DUP2 PUSH1 0x0 SWAP1 SSTORE POP PUSH1 0x1 ADD PUSH2 0x2D0C JUMP JUMPDEST POP SWAP1 JUMP JUMPDEST JUMPDEST DUP1 DUP3 GT ISZERO PUSH2 0x2D48 JUMPI PUSH1 0x0 DUP2 DUP2 PUSH2 0x2D3F SWAP2 SWAP1 PUSH2 0x2D4C JUMP JUMPDEST POP PUSH1 0x1 ADD PUSH2 0x2D29 JUMP JUMPDEST POP SWAP1 JUMP JUMPDEST POP DUP1 SLOAD PUSH2 0x2D58 SWAP1 PUSH2 0x3C76 JUMP JUMPDEST PUSH1 0x0 DUP3 SSTORE DUP1 PUSH1 0x1F LT PUSH2 0x2D6A JUMPI POP PUSH2 0x2D89 JUMP JUMPDEST PUSH1 0x1F ADD PUSH1 0x20 SWAP1 DIV SWAP1 PUSH1 0x0 MSTORE PUSH1 0x20 PUSH1 0x0 KECCAK256 SWAP1 DUP2 ADD SWAP1 PUSH2 0x2D88 SWAP2 SWAP1 PUSH2 0x2D0B JUMP JUMPDEST JUMPDEST POP JUMP JUMPDEST PUSH1 0x0 PUSH2 0x2D9F PUSH2 0x2D9A DUP5 PUSH2 0x398C JUMP JUMPDEST PUSH2 0x3967 JUMP JUMPDEST SWAP1 POP DUP1 DUP4 DUP3 MSTORE PUSH1 0x20 DUP3 ADD SWAP1 POP DUP3 DUP6 PUSH1 0x20 DUP7 MUL DUP3 ADD GT ISZERO PUSH2 0x2DC2 JUMPI PUSH2 0x2DC1 PUSH2 0x3E12 JUMP JUMPDEST JUMPDEST PUSH1 0x0 JUMPDEST DUP6 DUP2 LT ISZERO PUSH2 0x2E10 JUMPI DUP2 CALLDATALOAD PUSH8 0xFFFFFFFFFFFFFFFF DUP2 GT ISZERO PUSH2 0x2DE8 JUMPI PUSH2 0x2DE7 PUSH2 0x3E0D JUMP JUMPDEST JUMPDEST DUP1 DUP7 ADD PUSH2 0x2DF5 DUP10 DUP3 PUSH2 0x2E9F JUMP JUMPDEST DUP6 MSTORE PUSH1 0x20 DUP6 ADD SWAP5 POP PUSH1 0x20 DUP5 ADD SWAP4 POP POP POP PUSH1 0x1 DUP2 ADD SWAP1 POP PUSH2 0x2DC5 JUMP JUMPDEST POP POP POP SWAP4 SWAP3 POP POP POP JUMP JUMPDEST PUSH1 0x0 PUSH2 0x2E2D PUSH2 0x2E28 DUP5 PUSH2 0x39B8 JUMP JUMPDEST PUSH2 0x3967 JUMP JUMPDEST SWAP1 POP DUP3 DUP2 MSTORE PUSH1 0x20 DUP2 ADD DUP5 DUP5 DUP5 ADD GT ISZERO PUSH2 0x2E49 JUMPI PUSH2 0x2E48 PUSH2 0x3E17 JUMP JUMPDEST JUMPDEST PUSH2 0x2E54 DUP5 DUP3 DUP6 PUSH2 0x3C34 JUMP JUMPDEST POP SWAP4 SWAP3 POP POP POP JUMP JUMPDEST PUSH1 0x0 DUP2 CALLDATALOAD SWAP1 POP PUSH2 0x2E6B DUP2 PUSH2 0x3FA2 JUMP JUMPDEST SWAP3 SWAP2 POP POP JUMP JUMPDEST PUSH1 0x0 DUP3 PUSH1 0x1F DUP4 ADD SLT PUSH2 0x2E86 JUMPI PUSH2 0x2E85 PUSH2 0x3E0D JUMP JUMPDEST JUMPDEST DUP2 CALLDATALOAD PUSH2 0x2E96 DUP5 DUP3 PUSH1 0x20 DUP7 ADD PUSH2 0x2D8C JUMP JUMPDEST SWAP2 POP POP SWAP3 SWAP2 POP POP JUMP JUMPDEST PUSH1 0x0 DUP3 PUSH1 0x1F DUP4 ADD SLT PUSH2 0x2EB4 JUMPI PUSH2 0x2EB3 PUSH2 0x3E0D JUMP JUMPDEST JUMPDEST DUP2 CALLDATALOAD PUSH2 0x2EC4 DUP5 DUP3 PUSH1 0x20 DUP7 ADD PUSH2 0x2E1A JUMP JUMPDEST SWAP2 POP POP SWAP3 SWAP2 POP POP JUMP JUMPDEST PUSH1 0x0 DUP2 CALLDATALOAD SWAP1 POP PUSH2 0x2EDC DUP2 PUSH2 0x3FB9 JUMP JUMPDEST SWAP3 SWAP2 POP POP JUMP JUMPDEST PUSH1 0x0 PUSH1 0x20 DUP3 DUP5 SUB SLT ISZERO PUSH2 0x2EF8 JUMPI PUSH2 0x2EF7 PUSH2 0x3E21 JUMP JUMPDEST JUMPDEST PUSH1 0x0 PUSH2 0x2F06 DUP5 DUP3 DUP6 ADD PUSH2 0x2E5C JUMP JUMPDEST SWAP2 POP POP SWAP3 SWAP2 POP POP JUMP JUMPDEST PUSH1 0x0 DUP1 PUSH1 0x40 DUP4 DUP6 SUB SLT ISZERO PUSH2 0x2F26 JUMPI PUSH2 0x2F25 PUSH2 0x3E21 JUMP JUMPDEST JUMPDEST PUSH1 0x0 PUSH2 0x2F34 DUP6 DUP3 DUP7 ADD PUSH2 0x2E5C JUMP JUMPDEST SWAP3 POP POP PUSH1 0x20 PUSH2 0x2F45 DUP6 DUP3 DUP7 ADD PUSH2 0x2ECD JUMP JUMPDEST SWAP2 POP POP SWAP3 POP SWAP3 SWAP1 POP JUMP JUMPDEST PUSH1 0x0 DUP1 PUSH1 0x0 DUP1 PUSH1 0x0 DUP1 PUSH1 0xC0 DUP8 DUP10 SUB SLT ISZERO PUSH2 0x2F6C JUMPI PUSH2 0x2F6B PUSH2 0x3E21 JUMP JUMPDEST JUMPDEST PUSH1 0x0 DUP8 ADD CALLDATALOAD PUSH8 0xFFFFFFFFFFFFFFFF DUP2 GT ISZERO PUSH2 0x2F8A JUMPI PUSH2 0x2F89 PUSH2 0x3E1C JUMP JUMPDEST JUMPDEST PUSH2 0x2F96 DUP10 DUP3 DUP11 ADD PUSH2 0x2E9F JUMP JUMPDEST SWAP7 POP POP PUSH1 0x20 DUP8 ADD CALLDATALOAD PUSH8 0xFFFFFFFFFFFFFFFF DUP2 GT ISZERO PUSH2 0x2FB7 JUMPI PUSH2 0x2FB6 PUSH2 0x3E1C JUMP JUMPDEST JUMPDEST PUSH2 0x2FC3 DUP10 DUP3 DUP11 ADD PUSH2 0x2E9F JUMP JUMPDEST SWAP6 POP POP PUSH1 0x40 PUSH2 0x2FD4 DUP10 DUP3 DUP11 ADD PUSH2 0x2E5C JUMP JUMPDEST SWAP5 POP POP PUSH1 0x60 PUSH2 0x2FE5 DUP10 DUP3 DUP11 ADD PUSH2 0x2ECD JUMP JUMPDEST SWAP4 POP POP PUSH1 0x80 PUSH2 0x2FF6 DUP10 DUP3 DUP11 ADD PUSH2 0x2ECD JUMP JUMPDEST SWAP3 POP POP PUSH1 0xA0 PUSH2 0x3007 DUP10 DUP3 DUP11 ADD PUSH2 0x2ECD JUMP JUMPDEST SWAP2 POP POP SWAP3 SWAP6 POP SWAP3 SWAP6 POP SWAP3 SWAP6 JUMP JUMPDEST PUSH1 0x0 DUP1 PUSH1 0x0 DUP1 PUSH1 0x80 DUP6 DUP8 SUB SLT ISZERO PUSH2 0x302E JUMPI PUSH2 0x302D PUSH2 0x3E21 JUMP JUMPDEST JUMPDEST PUSH1 0x0 DUP6 ADD CALLDATALOAD PUSH8 0xFFFFFFFFFFFFFFFF DUP2 GT ISZERO PUSH2 0x304C JUMPI PUSH2 0x304B PUSH2 0x3E1C JUMP JUMPDEST JUMPDEST PUSH2 0x3058 DUP8 DUP3 DUP9 ADD PUSH2 0x2E9F JUMP JUMPDEST SWAP5 POP POP PUSH1 0x20 DUP6 ADD CALLDATALOAD PUSH8 0xFFFFFFFFFFFFFFFF DUP2 GT ISZERO PUSH2 0x3079 JUMPI PUSH2 0x3078 PUSH2 0x3E1C JUMP JUMPDEST JUMPDEST PUSH2 0x3085 DUP8 DUP3 DUP9 ADD PUSH2 0x2E9F JUMP JUMPDEST SWAP4 POP POP PUSH1 0x40 DUP6 ADD CALLDATALOAD PUSH8 0xFFFFFFFFFFFFFFFF DUP2 GT ISZERO PUSH2 0x30A6 JUMPI PUSH2 0x30A5 PUSH2 0x3E1C JUMP JUMPDEST JUMPDEST PUSH2 0x30B2 DUP8 DUP3 DUP9 ADD PUSH2 0x2E9F JUMP JUMPDEST SWAP3 POP POP PUSH1 0x60 DUP6 ADD CALLDATALOAD PUSH8 0xFFFFFFFFFFFFFFFF DUP2 GT ISZERO PUSH2 0x30D3 JUMPI PUSH2 0x30D2 PUSH2 0x3E1C JUMP JUMPDEST JUMPDEST PUSH2 0x30DF DUP8 DUP3 DUP9 ADD PUSH2 0x2E71 JUMP JUMPDEST SWAP2 POP POP SWAP3 SWAP6 SWAP2 SWAP5 POP SWAP3 POP JUMP JUMPDEST PUSH1 0x0 DUP1 PUSH1 0x0 DUP1 PUSH1 0x0 PUSH1 0xA0 DUP7 DUP9 SUB SLT ISZERO PUSH2 0x3107 JUMPI PUSH2 0x3106 PUSH2 0x3E21 JUMP JUMPDEST JUMPDEST PUSH1 0x0 DUP7 ADD CALLDATALOAD PUSH8 0xFFFFFFFFFFFFFFFF DUP2 GT ISZERO PUSH2 0x3125 JUMPI PUSH2 0x3124 PUSH2 0x3E1C JUMP JUMPDEST JUMPDEST PUSH2 0x3131 DUP9 DUP3 DUP10 ADD PUSH2 0x2E9F JUMP JUMPDEST SWAP6 POP POP PUSH1 0x20 DUP7 ADD CALLDATALOAD PUSH8 0xFFFFFFFFFFFFFFFF DUP2 GT ISZERO PUSH2 0x3152 JUMPI PUSH2 0x3151 PUSH2 0x3E1C JUMP JUMPDEST JUMPDEST PUSH2 0x315E DUP9 DUP3 DUP10 ADD PUSH2 0x2E9F JUMP JUMPDEST SWAP5 POP POP PUSH1 0x40 DUP7 ADD CALLDATALOAD PUSH8 0xFFFFFFFFFFFFFFFF DUP2 GT ISZERO PUSH2 0x317F JUMPI PUSH2 0x317E PUSH2 0x3E1C JUMP JUMPDEST JUMPDEST PUSH2 0x318B DUP9 DUP3 DUP10 ADD PUSH2 0x2E9F JUMP JUMPDEST SWAP4 POP POP PUSH1 0x60 DUP7 ADD CALLDATALOAD PUSH8 0xFFFFFFFFFFFFFFFF DUP2 GT ISZERO PUSH2 0x31AC JUMPI PUSH2 0x31AB PUSH2 0x3E1C JUMP JUMPDEST JUMPDEST PUSH2 0x31B8 DUP9 DUP3 DUP10 ADD PUSH2 0x2E71 JUMP JUMPDEST SWAP3 POP POP PUSH1 0x80 PUSH2 0x31C9 DUP9 DUP3 DUP10 ADD PUSH2 0x2ECD JUMP JUMPDEST SWAP2 POP POP SWAP3 SWAP6 POP SWAP3 SWAP6 SWAP1 SWAP4 POP JUMP JUMPDEST PUSH1 0x0 PUSH1 0x20 DUP3 DUP5 SUB SLT ISZERO PUSH2 0x31EC JUMPI PUSH2 0x31EB PUSH2 0x3E21 JUMP JUMPDEST JUMPDEST PUSH1 0x0 PUSH2 0x31FA DUP5 DUP3 DUP6 ADD PUSH2 0x2ECD JUMP JUMPDEST SWAP2 POP POP SWAP3 SWAP2 POP POP JUMP JUMPDEST PUSH1 0x0 DUP1 PUSH1 0x40 DUP4 DUP6 SUB SLT ISZERO PUSH2 0x321A JUMPI PUSH2 0x3219 PUSH2 0x3E21 JUMP JUMPDEST JUMPDEST PUSH1 0x0 PUSH2 0x3228 DUP6 DUP3 DUP7 ADD PUSH2 0x2ECD JUMP JUMPDEST SWAP3 POP POP PUSH1 0x20 PUSH2 0x3239 DUP6 DUP3 DUP7 ADD PUSH2 0x2E5C JUMP JUMPDEST SWAP2 POP POP SWAP3 POP SWAP3 SWAP1 POP JUMP JUMPDEST PUSH1 0x0 DUP1 PUSH1 0x40 DUP4 DUP6 SUB SLT ISZERO PUSH2 0x325A JUMPI PUSH2 0x3259 PUSH2 0x3E21 JUMP JUMPDEST JUMPDEST PUSH1 0x0 PUSH2 0x3268 DUP6 DUP3 DUP7 ADD PUSH2 0x2ECD JUMP JUMPDEST SWAP3 POP POP PUSH1 0x20 PUSH2 0x3279 DUP6 DUP3 DUP7 ADD PUSH2 0x2ECD JUMP JUMPDEST SWAP2 POP POP SWAP3 POP SWAP3 SWAP1 POP JUMP JUMPDEST PUSH1 0x0 PUSH2 0x328F DUP4 DUP4 PUSH2 0x3438 JUMP JUMPDEST SWAP1 POP SWAP3 SWAP2 POP POP JUMP JUMPDEST PUSH1 0x0 PUSH2 0x32A3 DUP4 DUP4 PUSH2 0x35BA JUMP JUMPDEST SWAP1 POP SWAP3 SWAP2 POP POP JUMP JUMPDEST PUSH1 0x0 PUSH2 0x32B7 DUP4 DUP4 PUSH2 0x36C0 JUMP JUMPDEST PUSH1 0xA0 DUP4 ADD SWAP1 POP SWAP3 SWAP2 POP POP JUMP JUMPDEST PUSH2 0x32CC DUP2 PUSH2 0x3BEC JUMP JUMPDEST DUP3 MSTORE POP POP JUMP JUMPDEST PUSH2 0x32DB DUP2 PUSH2 0x3BEC JUMP JUMPDEST DUP3 MSTORE POP POP JUMP JUMPDEST PUSH1 0x0 PUSH2 0x32EC DUP3 PUSH2 0x3A19 JUMP JUMPDEST PUSH2 0x32F6 DUP2 DUP6 PUSH2 0x3A6C JUMP JUMPDEST SWAP4 POP DUP4 PUSH1 0x20 DUP3 MUL DUP6 ADD PUSH2 0x3308 DUP6 PUSH2 0x39E9 JUMP JUMPDEST DUP1 PUSH1 0x0 JUMPDEST DUP6 DUP2 LT ISZERO PUSH2 0x3344 JUMPI DUP5 DUP5 SUB DUP10 MSTORE DUP2 MLOAD PUSH2 0x3325 DUP6 DUP3 PUSH2 0x3283 JUMP JUMPDEST SWAP5 POP PUSH2 0x3330 DUP4 PUSH2 0x3A45 JUMP JUMPDEST SWAP3 POP PUSH1 0x20 DUP11 ADD SWAP10 POP POP PUSH1 0x1 DUP2 ADD SWAP1 POP PUSH2 0x330C JUMP JUMPDEST POP DUP3 SWAP8 POP DUP8 SWAP6 POP POP POP POP POP POP SWAP3 SWAP2 POP POP JUMP JUMPDEST PUSH1 0x0 PUSH2 0x3361 DUP3 PUSH2 0x3A24 JUMP JUMPDEST PUSH2 0x336B DUP2 DUP6 PUSH2 0x3A7D JUMP JUMPDEST SWAP4 POP DUP4 PUSH1 0x20 DUP3 MUL DUP6 ADD PUSH2 0x337D DUP6 PUSH2 0x39F9 JUMP JUMPDEST DUP1 PUSH1 0x0 JUMPDEST DUP6 DUP2 LT ISZERO PUSH2 0x33B9 JUMPI DUP5 DUP5 SUB DUP10 MSTORE DUP2 MLOAD PUSH2 0x339A DUP6 DUP3 PUSH2 0x3297 JUMP JUMPDEST SWAP5 POP PUSH2 0x33A5 DUP4 PUSH2 0x3A52 JUMP JUMPDEST SWAP3 POP PUSH1 0x20 DUP11 ADD SWAP10 POP POP PUSH1 0x1 DUP2 ADD SWAP1 POP PUSH2 0x3381 JUMP JUMPDEST POP DUP3 SWAP8 POP DUP8 SWAP6 POP POP POP POP POP POP SWAP3 SWAP2 POP POP JUMP JUMPDEST PUSH1 0x0 PUSH2 0x33D6 DUP3 PUSH2 0x3A2F JUMP JUMPDEST PUSH2 0x33E0 DUP2 DUP6 PUSH2 0x3A8E JUMP JUMPDEST SWAP4 POP PUSH2 0x33EB DUP4 PUSH2 0x3A09 JUMP JUMPDEST DUP1 PUSH1 0x0 JUMPDEST DUP4 DUP2 LT ISZERO PUSH2 0x341C JUMPI DUP2 MLOAD PUSH2 0x3403 DUP9 DUP3 PUSH2 0x32AB JUMP JUMPDEST SWAP8 POP PUSH2 0x340E DUP4 PUSH2 0x3A5F JUMP JUMPDEST SWAP3 POP POP PUSH1 0x1 DUP2 ADD SWAP1 POP PUSH2 0x33EF JUMP JUMPDEST POP DUP6 SWAP4 POP POP POP POP SWAP3 SWAP2 POP POP JUMP JUMPDEST PUSH2 0x3432 DUP2 PUSH2 0x3BFE JUMP JUMPDEST DUP3 MSTORE POP POP JUMP JUMPDEST PUSH1 0x0 PUSH2 0x3443 DUP3 PUSH2 0x3A3A JUMP JUMPDEST PUSH2 0x344D DUP2 DUP6 PUSH2 0x3AAA JUMP JUMPDEST SWAP4 POP PUSH2 0x345D DUP2 DUP6 PUSH1 0x20 DUP7 ADD PUSH2 0x3C43 JUMP JUMPDEST PUSH2 0x3466 DUP2 PUSH2 0x3E26 JUMP JUMPDEST DUP5 ADD SWAP2 POP POP SWAP3 SWAP2 POP POP JUMP JUMPDEST PUSH1 0x0 PUSH2 0x347C DUP3 PUSH2 0x3A3A JUMP JUMPDEST PUSH2 0x3486 DUP2 DUP6 PUSH2 0x3ACC JUMP JUMPDEST SWAP4 POP PUSH2 0x3496 DUP2 DUP6 PUSH1 0x20 DUP7 ADD PUSH2 0x3C43 JUMP JUMPDEST DUP1 DUP5 ADD SWAP2 POP POP SWAP3 SWAP2 POP POP JUMP JUMPDEST PUSH1 0x0 PUSH2 0x34AF PUSH1 0x26 DUP4 PUSH2 0x3ABB JUMP JUMPDEST SWAP2 POP PUSH2 0x34BA DUP3 PUSH2 0x3E37 JUMP JUMPDEST PUSH1 0x40 DUP3 ADD SWAP1 POP SWAP2 SWAP1 POP JUMP JUMPDEST PUSH1 0x0 PUSH2 0x34D2 PUSH1 0x33 DUP4 PUSH2 0x3ABB JUMP JUMPDEST SWAP2 POP PUSH2 0x34DD DUP3 PUSH2 0x3E86 JUMP JUMPDEST PUSH1 0x40 DUP3 ADD SWAP1 POP SWAP2 SWAP1 POP JUMP JUMPDEST PUSH1 0x0 PUSH2 0x34F5 PUSH1 0x35 DUP4 PUSH2 0x3ABB JUMP JUMPDEST SWAP2 POP PUSH2 0x3500 DUP3 PUSH2 0x3ED5 JUMP JUMPDEST PUSH1 0x40 DUP3 ADD SWAP1 POP SWAP2 SWAP1 POP JUMP JUMPDEST PUSH1 0x0 PUSH2 0x3518 PUSH1 0x13 DUP4 PUSH2 0x3ABB JUMP JUMPDEST SWAP2 POP PUSH2 0x3523 DUP3 PUSH2 0x3F24 JUMP JUMPDEST PUSH1 0x20 DUP3 ADD SWAP1 POP SWAP2 SWAP1 POP JUMP JUMPDEST PUSH1 0x0 PUSH2 0x353B PUSH1 0x20 DUP4 PUSH2 0x3ABB JUMP JUMPDEST SWAP2 POP PUSH2 0x3546 DUP3 PUSH2 0x3F4D JUMP JUMPDEST PUSH1 0x20 DUP3 ADD SWAP1 POP SWAP2 SWAP1 POP JUMP JUMPDEST PUSH1 0x0 PUSH2 0x355E PUSH1 0x0 DUP4 PUSH2 0x3A9F JUMP JUMPDEST SWAP2 POP PUSH2 0x3569 DUP3 PUSH2 0x3F76 JUMP JUMPDEST PUSH1 0x0 DUP3 ADD SWAP1 POP SWAP2 SWAP1 POP JUMP JUMPDEST PUSH1 0x0 PUSH2 0x3581 PUSH1 0x0 DUP4 PUSH2 0x3ACC JUMP JUMPDEST SWAP2 POP PUSH2 0x358C DUP3 PUSH2 0x3F76 JUMP JUMPDEST PUSH1 0x0 DUP3 ADD SWAP1 POP SWAP2 SWAP1 POP JUMP JUMPDEST PUSH1 0x0 PUSH2 0x35A4 PUSH1 0x14 DUP4 PUSH2 0x3ABB JUMP JUMPDEST SWAP2 POP PUSH2 0x35AF DUP3 PUSH2 0x3F79 JUMP JUMPDEST PUSH1 0x20 DUP3 ADD SWAP1 POP SWAP2 SWAP1 POP JUMP JUMPDEST PUSH1 0x0 PUSH1 0xE0 DUP4 ADD PUSH1 0x0 DUP4 ADD MLOAD PUSH2 0x35D2 PUSH1 0x0 DUP7 ADD DUP3 PUSH2 0x3728 JUMP JUMPDEST POP PUSH1 0x20 DUP4 ADD MLOAD PUSH2 0x35E5 PUSH1 0x20 DUP7 ADD DUP3 PUSH2 0x32C3 JUMP JUMPDEST POP PUSH1 0x40 DUP4 ADD MLOAD DUP5 DUP3 SUB PUSH1 0x40 DUP7 ADD MSTORE PUSH2 0x35FD DUP3 DUP3 PUSH2 0x3438 JUMP JUMPDEST SWAP2 POP POP PUSH1 0x60 DUP4 ADD MLOAD DUP5 DUP3 SUB PUSH1 0x60 DUP7 ADD MSTORE PUSH2 0x3617 DUP3 DUP3 PUSH2 0x3438 JUMP JUMPDEST SWAP2 POP POP PUSH1 0x80 DUP4 ADD MLOAD DUP5 DUP3 SUB PUSH1 0x80 DUP7 ADD MSTORE PUSH2 0x3631 DUP3 DUP3 PUSH2 0x3438 JUMP JUMPDEST SWAP2 POP POP PUSH1 0xA0 DUP4 ADD MLOAD DUP5 DUP3 SUB PUSH1 0xA0 DUP7 ADD MSTORE PUSH2 0x364B DUP3 DUP3 PUSH2 0x32E1 JUMP JUMPDEST SWAP2 POP POP PUSH1 0xC0 DUP4 ADD MLOAD PUSH2 0x3660 PUSH1 0xC0 DUP7 ADD DUP3 PUSH2 0x3429 JUMP JUMPDEST POP DUP1 SWAP2 POP POP SWAP3 SWAP2 POP POP JUMP JUMPDEST PUSH1 0x80 DUP3 ADD PUSH1 0x0 DUP3 ADD MLOAD PUSH2 0x3681 PUSH1 0x0 DUP6 ADD DUP3 PUSH2 0x3728 JUMP JUMPDEST POP PUSH1 0x20 DUP3 ADD MLOAD PUSH2 0x3694 PUSH1 0x20 DUP6 ADD DUP3 PUSH2 0x3728 JUMP JUMPDEST POP PUSH1 0x40 DUP3 ADD MLOAD PUSH2 0x36A7 PUSH1 0x40 DUP6 ADD DUP3 PUSH2 0x3728 JUMP JUMPDEST POP PUSH1 0x60 DUP3 ADD MLOAD PUSH2 0x36BA PUSH1 0x60 DUP6 ADD DUP3 PUSH2 0x3728 JUMP JUMPDEST POP POP POP POP JUMP JUMPDEST PUSH1 0xA0 DUP3 ADD PUSH1 0x0 DUP3 ADD MLOAD PUSH2 0x36D6 PUSH1 0x0 DUP6 ADD DUP3 PUSH2 0x3728 JUMP JUMPDEST POP PUSH1 0x20 DUP3 ADD MLOAD PUSH2 0x36E9 PUSH1 0x20 DUP6 ADD DUP3 PUSH2 0x3728 JUMP JUMPDEST POP PUSH1 0x40 DUP3 ADD MLOAD PUSH2 0x36FC PUSH1 0x40 DUP6 ADD DUP3 PUSH2 0x3728 JUMP JUMPDEST POP PUSH1 0x60 DUP3 ADD MLOAD PUSH2 0x370F PUSH1 0x60 DUP6 ADD DUP3 PUSH2 0x32C3 JUMP JUMPDEST POP PUSH1 0x80 DUP3 ADD MLOAD PUSH2 0x3722 PUSH1 0x80 DUP6 ADD DUP3 PUSH2 0x32C3 JUMP JUMPDEST POP POP POP POP JUMP JUMPDEST PUSH2 0x3731 DUP2 PUSH2 0x3C2A JUMP JUMPDEST DUP3 MSTORE POP POP JUMP JUMPDEST PUSH2 0x3740 DUP2 PUSH2 0x3C2A JUMP JUMPDEST DUP3 MSTORE POP POP JUMP JUMPDEST PUSH1 0x0 PUSH2 0x3752 DUP3 DUP5 PUSH2 0x3471 JUMP JUMPDEST SWAP2 POP DUP2 SWAP1 POP SWAP3 SWAP2 POP POP JUMP JUMPDEST PUSH1 0x0 PUSH2 0x3768 DUP3 PUSH2 0x3551 JUMP JUMPDEST SWAP2 POP DUP2 SWAP1 POP SWAP2 SWAP1 POP JUMP JUMPDEST PUSH1 0x0 PUSH2 0x377D DUP3 PUSH2 0x3574 JUMP JUMPDEST SWAP2 POP DUP2 SWAP1 POP SWAP2 SWAP1 POP JUMP JUMPDEST PUSH1 0x0 PUSH1 0x20 DUP3 ADD SWAP1 POP PUSH2 0x379C PUSH1 0x0 DUP4 ADD DUP5 PUSH2 0x32D2 JUMP JUMPDEST SWAP3 SWAP2 POP POP JUMP JUMPDEST PUSH1 0x0 PUSH1 0x20 DUP3 ADD SWAP1 POP DUP2 DUP2 SUB PUSH1 0x0 DUP4 ADD MSTORE PUSH2 0x37BC DUP2 DUP5 PUSH2 0x33CB JUMP JUMPDEST SWAP1 POP SWAP3 SWAP2 POP POP JUMP JUMPDEST PUSH1 0x0 PUSH1 0x20 DUP3 ADD SWAP1 POP DUP2 DUP2 SUB PUSH1 0x0 DUP4 ADD MSTORE PUSH2 0x37DD DUP2 PUSH2 0x34A2 JUMP JUMPDEST SWAP1 POP SWAP2 SWAP1 POP JUMP JUMPDEST PUSH1 0x0 PUSH1 0x20 DUP3 ADD SWAP1 POP DUP2 DUP2 SUB PUSH1 0x0 DUP4 ADD MSTORE PUSH2 0x37FD DUP2 PUSH2 0x34C5 JUMP JUMPDEST SWAP1 POP SWAP2 SWAP1 POP JUMP JUMPDEST PUSH1 0x0 PUSH1 0x20 DUP3 ADD SWAP1 POP DUP2 DUP2 SUB PUSH1 0x0 DUP4 ADD MSTORE PUSH2 0x381D DUP2 PUSH2 0x34E8 JUMP JUMPDEST SWAP1 POP SWAP2 SWAP1 POP JUMP JUMPDEST PUSH1 0x0 PUSH1 0x20 DUP3 ADD SWAP1 POP DUP2 DUP2 SUB PUSH1 0x0 DUP4 ADD MSTORE PUSH2 0x383D DUP2 PUSH2 0x350B JUMP JUMPDEST SWAP1 POP SWAP2 SWAP1 POP JUMP JUMPDEST PUSH1 0x0 PUSH1 0x20 DUP3 ADD SWAP1 POP DUP2 DUP2 SUB PUSH1 0x0 DUP4 ADD MSTORE PUSH2 0x385D DUP2 PUSH2 0x352E JUMP JUMPDEST SWAP1 POP SWAP2 SWAP1 POP JUMP JUMPDEST PUSH1 0x0 PUSH1 0x20 DUP3 ADD SWAP1 POP DUP2 DUP2 SUB PUSH1 0x0 DUP4 ADD MSTORE PUSH2 0x387D DUP2 PUSH2 0x3597 JUMP JUMPDEST SWAP1 POP SWAP2 SWAP1 POP JUMP JUMPDEST PUSH1 0x0 PUSH1 0x80 DUP3 ADD SWAP1 POP PUSH2 0x3899 PUSH1 0x0 DUP4 ADD DUP5 PUSH2 0x366B JUMP JUMPDEST SWAP3 SWAP2 POP POP JUMP JUMPDEST PUSH1 0x0 PUSH1 0x40 DUP3 ADD SWAP1 POP PUSH2 0x38B4 PUSH1 0x0 DUP4 ADD DUP6 PUSH2 0x3737 JUMP JUMPDEST DUP2 DUP2 SUB PUSH1 0x20 DUP4 ADD MSTORE PUSH2 0x38C6 DUP2 DUP5 PUSH2 0x3356 JUMP JUMPDEST SWAP1 POP SWAP4 SWAP3 POP POP POP JUMP JUMPDEST PUSH1 0x0 PUSH1 0xA0 DUP3 ADD SWAP1 POP PUSH2 0x38E4 PUSH1 0x0 DUP4 ADD DUP9 PUSH2 0x3737 JUMP JUMPDEST PUSH2 0x38F1 PUSH1 0x20 DUP4 ADD DUP8 PUSH2 0x3737 JUMP JUMPDEST PUSH2 0x38FE PUSH1 0x40 DUP4 ADD DUP7 PUSH2 0x3737 JUMP JUMPDEST PUSH2 0x390B PUSH1 0x60 DUP4 ADD DUP6 PUSH2 0x32D2 JUMP JUMPDEST PUSH2 0x3918 PUSH1 0x80 DUP4 ADD DUP5 PUSH2 0x32D2 JUMP JUMPDEST SWAP7 SWAP6 POP POP POP POP POP POP JUMP JUMPDEST PUSH1 0x0 PUSH1 0x80 DUP3 ADD SWAP1 POP PUSH2 0x3937 PUSH1 0x0 DUP4 ADD DUP8 PUSH2 0x3737 JUMP JUMPDEST PUSH2 0x3944 PUSH1 0x20 DUP4 ADD DUP7 PUSH2 0x3737 JUMP JUMPDEST PUSH2 0x3951 PUSH1 0x40 DUP4 ADD DUP6 PUSH2 0x3737 JUMP JUMPDEST PUSH2 0x395E PUSH1 0x60 DUP4 ADD DUP5 PUSH2 0x3737 JUMP JUMPDEST SWAP6 SWAP5 POP POP POP POP POP JUMP JUMPDEST PUSH1 0x0 PUSH2 0x3971 PUSH2 0x3982 JUMP JUMPDEST SWAP1 POP PUSH2 0x397D DUP3 DUP3 PUSH2 0x3CA8 JUMP JUMPDEST SWAP2 SWAP1 POP JUMP JUMPDEST PUSH1 0x0 PUSH1 0x40 MLOAD SWAP1 POP SWAP1 JUMP JUMPDEST PUSH1 0x0 PUSH8 0xFFFFFFFFFFFFFFFF DUP3 GT ISZERO PUSH2 0x39A7 JUMPI PUSH2 0x39A6 PUSH2 0x3DDE JUMP JUMPDEST JUMPDEST PUSH1 0x20 DUP3 MUL SWAP1 POP PUSH1 0x20 DUP2 ADD SWAP1 POP SWAP2 SWAP1 POP JUMP JUMPDEST PUSH1 0x0 PUSH8 0xFFFFFFFFFFFFFFFF DUP3 GT ISZERO PUSH2 0x39D3 JUMPI PUSH2 0x39D2 PUSH2 0x3DDE JUMP JUMPDEST JUMPDEST PUSH2 0x39DC DUP3 PUSH2 0x3E26 JUMP JUMPDEST SWAP1 POP PUSH1 0x20 DUP2 ADD SWAP1 POP SWAP2 SWAP1 POP JUMP JUMPDEST PUSH1 0x0 DUP2 SWAP1 POP PUSH1 0x20 DUP3 ADD SWAP1 POP SWAP2 SWAP1 POP JUMP JUMPDEST PUSH1 0x0 DUP2 SWAP1 POP PUSH1 0x20 DUP3 ADD SWAP1 POP SWAP2 SWAP1 POP JUMP JUMPDEST PUSH1 0x0 DUP2 SWAP1 POP PUSH1 0x20 DUP3 ADD SWAP1 POP SWAP2 SWAP1 POP JUMP JUMPDEST PUSH1 0x0 DUP2 MLOAD SWAP1 POP SWAP2 SWAP1 POP JUMP JUMPDEST PUSH1 0x0 DUP2 MLOAD SWAP1 POP SWAP2 SWAP1 POP JUMP JUMPDEST PUSH1 0x0 DUP2 MLOAD SWAP1 POP SWAP2 SWAP1 POP JUMP JUMPDEST PUSH1 0x0 DUP2 MLOAD SWAP1 POP SWAP2 SWAP1 POP JUMP JUMPDEST PUSH1 0x0 PUSH1 0x20 DUP3 ADD SWAP1 POP SWAP2 SWAP1 POP JUMP JUMPDEST PUSH1 0x0 PUSH1 0x20 DUP3 ADD SWAP1 POP SWAP2 SWAP1 POP JUMP JUMPDEST PUSH1 0x0 PUSH1 0x20 DUP3 ADD SWAP1 POP SWAP2 SWAP1 POP JUMP JUMPDEST PUSH1 0x0 DUP3 DUP3 MSTORE PUSH1 0x20 DUP3 ADD SWAP1 POP SWAP3 SWAP2 POP POP JUMP JUMPDEST PUSH1 0x0 DUP3 DUP3 MSTORE PUSH1 0x20 DUP3 ADD SWAP1 POP SWAP3 SWAP2 POP POP JUMP JUMPDEST PUSH1 0x0 DUP3 DUP3 MSTORE PUSH1 0x20 DUP3 ADD SWAP1 POP SWAP3 SWAP2 POP POP JUMP JUMPDEST PUSH1 0x0 DUP2 SWAP1 POP SWAP3 SWAP2 POP POP JUMP JUMPDEST PUSH1 0x0 DUP3 DUP3 MSTORE PUSH1 0x20 DUP3 ADD SWAP1 POP SWAP3 SWAP2 POP POP JUMP JUMPDEST PUSH1 0x0 DUP3 DUP3 MSTORE PUSH1 0x20 DUP3 ADD SWAP1 POP SWAP3 SWAP2 POP POP JUMP JUMPDEST PUSH1 0x0 DUP2 SWAP1 POP SWAP3 SWAP2 POP POP JUMP JUMPDEST PUSH1 0x0 PUSH2 0x3AE2 DUP3 PUSH2 0x3C2A JUMP JUMPDEST SWAP2 POP PUSH2 0x3AED DUP4 PUSH2 0x3C2A JUMP JUMPDEST SWAP3 POP DUP3 PUSH32 0xFFFFFFFFFFFFFFFFFFFFFFFFFFFFFFFFFFFFFFFFFFFFFFFFFFFFFFFFFFFFFFFF SUB DUP3 GT ISZERO PUSH2 0x3B22 JUMPI PUSH2 0x3B21 PUSH2 0x3D22 JUMP JUMPDEST JUMPDEST DUP3 DUP3 ADD SWAP1 POP SWAP3 SWAP2 POP POP JUMP JUMPDEST PUSH1 0x0 PUSH2 0x3B38 DUP3 PUSH2 0x3C2A JUMP JUMPDEST SWAP2 POP PUSH2 0x3B43 DUP4 PUSH2 0x3C2A JUMP JUMPDEST SWAP3 POP DUP3 PUSH2 0x3B53 JUMPI PUSH2 0x3B52 PUSH2 0x3D51 JUMP JUMPDEST JUMPDEST DUP3 DUP3 DIV SWAP1 POP SWAP3 SWAP2 POP POP JUMP JUMPDEST PUSH1 0x0 PUSH2 0x3B69 DUP3 PUSH2 0x3C2A JUMP JUMPDEST SWAP2 POP PUSH2 0x3B74 DUP4 PUSH2 0x3C2A JUMP JUMPDEST SWAP3 POP DUP2 PUSH32 0xFFFFFFFFFFFFFFFFFFFFFFFFFFFFFFFFFFFFFFFFFFFFFFFFFFFFFFFFFFFFFFFF DIV DUP4 GT DUP3 ISZERO ISZERO AND ISZERO PUSH2 0x3BAD JUMPI PUSH2 0x3BAC PUSH2 0x3D22 JUMP JUMPDEST JUMPDEST DUP3 DUP3 MUL SWAP1 POP SWAP3 SWAP2 POP POP JUMP JUMPDEST PUSH1 0x0 PUSH2 0x3BC3 DUP3 PUSH2 0x3C2A JUMP JUMPDEST SWAP2 POP PUSH2 0x3BCE DUP4 PUSH2 0x3C2A JUMP JUMPDEST SWAP3 POP DUP3 DUP3 LT ISZERO PUSH2 0x3BE1 JUMPI PUSH2 0x3BE0 PUSH2 0x3D22 JUMP JUMPDEST JUMPDEST DUP3 DUP3 SUB SWAP1 POP SWAP3 SWAP2 POP POP JUMP JUMPDEST PUSH1 0x0 PUSH2 0x3BF7 DUP3 PUSH2 0x3C0A JUMP JUMPDEST SWAP1 POP SWAP2 SWAP1 POP JUMP JUMPDEST PUSH1 0x0 DUP2 ISZERO ISZERO SWAP1 POP SWAP2 SWAP1 POP JUMP JUMPDEST PUSH1 0x0 PUSH20 0xFFFFFFFFFFFFFFFFFFFFFFFFFFFFFFFFFFFFFFFF DUP3 AND SWAP1 POP SWAP2 SWAP1 POP JUMP JUMPDEST PUSH1 0x0 DUP2 SWAP1 POP SWAP2 SWAP1 POP JUMP JUMPDEST DUP3 DUP2 DUP4 CALLDATACOPY PUSH1 0x0 DUP4 DUP4 ADD MSTORE POP POP POP JUMP JUMPDEST PUSH1 0x0 JUMPDEST DUP4 DUP2 LT ISZERO PUSH2 0x3C61 JUMPI DUP1 DUP3 ADD MLOAD DUP2 DUP5 ADD MSTORE PUSH1 0x20 DUP2 ADD SWAP1 POP PUSH2 0x3C46 JUMP JUMPDEST DUP4 DUP2 GT ISZERO PUSH2 0x3C70 JUMPI PUSH1 0x0 DUP5 DUP5 ADD MSTORE JUMPDEST POP POP POP POP JUMP JUMPDEST PUSH1 0x0 PUSH1 0x2 DUP3 DIV SWAP1 POP PUSH1 0x1 DUP3 AND DUP1 PUSH2 0x3C8E JUMPI PUSH1 0x7F DUP3 AND SWAP2 POP JUMPDEST PUSH1 0x20 DUP3 LT DUP2 EQ ISZERO PUSH2 0x3CA2 JUMPI PUSH2 0x3CA1 PUSH2 0x3D80 JUMP JUMPDEST JUMPDEST POP SWAP2 SWAP1 POP JUMP JUMPDEST PUSH2 0x3CB1 DUP3 PUSH2 0x3E26 JUMP JUMPDEST DUP2 ADD DUP2 DUP2 LT PUSH8 0xFFFFFFFFFFFFFFFF DUP3 GT OR ISZERO PUSH2 0x3CD0 JUMPI PUSH2 0x3CCF PUSH2 0x3DDE JUMP JUMPDEST JUMPDEST DUP1 PUSH1 0x40 MSTORE POP POP POP JUMP JUMPDEST PUSH1 0x0 PUSH2 0x3CE4 DUP3 PUSH2 0x3C2A JUMP JUMPDEST SWAP2 POP PUSH32 0xFFFFFFFFFFFFFFFFFFFFFFFFFFFFFFFFFFFFFFFFFFFFFFFFFFFFFFFFFFFFFFFF DUP3 EQ ISZERO PUSH2 0x3D17 JUMPI PUSH2 0x3D16 PUSH2 0x3D22 JUMP JUMPDEST JUMPDEST PUSH1 0x1 DUP3 ADD SWAP1 POP SWAP2 SWAP1 POP JUMP JUMPDEST PUSH32 0x4E487B7100000000000000000000000000000000000000000000000000000000 PUSH1 0x0 MSTORE PUSH1 0x11 PUSH1 0x4 MSTORE PUSH1 0x24 PUSH1 0x0 REVERT JUMPDEST PUSH32 0x4E487B7100000000000000000000000000000000000000000000000000000000 PUSH1 0x0 MSTORE PUSH1 0x12 PUSH1 0x4 MSTORE PUSH1 0x24 PUSH1 0x0 REVERT JUMPDEST PUSH32 0x4E487B7100000000000000000000000000000000000000000000000000000000 PUSH1 0x0 MSTORE PUSH1 0x22 PUSH1 0x4 MSTORE PUSH1 0x24 PUSH1 0x0 REVERT JUMPDEST PUSH32 0x4E487B7100000000000000000000000000000000000000000000000000000000 PUSH1 0x0 MSTORE PUSH1 0x32 PUSH1 0x4 MSTORE PUSH1 0x24 PUSH1 0x0 REVERT JUMPDEST PUSH32 0x4E487B7100000000000000000000000000000000000000000000000000000000 PUSH1 0x0 MSTORE PUSH1 0x41 PUSH1 0x4 MSTORE PUSH1 0x24 PUSH1 0x0 REVERT JUMPDEST PUSH1 0x0 DUP1 REVERT JUMPDEST PUSH1 0x0 DUP1 REVERT JUMPDEST PUSH1 0x0 DUP1 REVERT JUMPDEST PUSH1 0x0 DUP1 REVERT JUMPDEST PUSH1 0x0 DUP1 REVERT JUMPDEST PUSH1 0x0 PUSH1 0x1F NOT PUSH1 0x1F DUP4 ADD AND SWAP1 POP SWAP2 SWAP1 POP JUMP JUMPDEST PUSH32 0x4F776E61626C653A206E6577206F776E657220697320746865207A65726F2061 PUSH1 0x0 DUP3 ADD MSTORE PUSH32 0x6464726573730000000000000000000000000000000000000000000000000000 PUSH1 0x20 DUP3 ADD MSTORE POP JUMP JUMPDEST PUSH32 0x46656573207061796D656E74206661696C656420627574207472616E73616374 PUSH1 0x0 DUP3 ADD MSTORE PUSH32 0x696F6E20776173207375636365737366756C2100000000000000000000000000 PUSH1 0x20 DUP3 ADD MSTORE POP JUMP JUMPDEST PUSH32 0x54686520737570706C6965642061646472657373206973206E6F742074686520 PUSH1 0x0 DUP3 ADD MSTORE PUSH32 0x6F776E6572206F66207468652070726F64756374210000000000000000000000 PUSH1 0x20 DUP3 ADD MSTORE POP JUMP JUMPDEST PUSH32 0x5472616E73616374696F6E206661696C65642100000000000000000000000000 PUSH1 0x0 DUP3 ADD MSTORE POP JUMP JUMPDEST PUSH32 0x4F776E61626C653A2063616C6C6572206973206E6F7420746865206F776E6572 PUSH1 0x0 DUP3 ADD MSTORE POP JUMP JUMPDEST POP JUMP JUMPDEST PUSH32 0x4E6F7420656E6F756768207765692073656E7421000000000000000000000000 PUSH1 0x0 DUP3 ADD MSTORE POP JUMP JUMPDEST PUSH2 0x3FAB DUP2 PUSH2 0x3BEC JUMP JUMPDEST DUP2 EQ PUSH2 0x3FB6 JUMPI PUSH1 0x0 DUP1 REVERT JUMPDEST POP JUMP JUMPDEST PUSH2 0x3FC2 DUP2 PUSH2 0x3C2A JUMP JUMPDEST DUP2 EQ PUSH2 0x3FCD JUMPI PUSH1 0x0 DUP1 REVERT JUMPDEST POP JUMP INVALID LOG2 PUSH5 0x6970667358 0x22 SLT KECCAK256 PUSH15 0xEB85A96E66C6B070959DDEA8D9401D PUSH10 0x18979AF36E92D01814AF 0xD4 PUSH15 0xCA828664736F6C6343000807003300 "
				},
				"gasEstimates": {
					"creation": {
						"codeDepositCost": "3278000",
						"executionCost": "infinite",
						"totalCost": "infinite"
					},
					"external": {
						"addNonSellableProduct(string,string,string,string[])": "infinite",
						"buyProduct(uint256,address)": "infinite",
						"checkProductOwnership(uint256)": "5052",
						"filterSellingProducts(string,string,address,uint256,uint256,uint256)": "infinite",
						"getAllProductsForSale(uint256,uint256)": "infinite",
						"getHistoryForProduct(uint256)": "infinite",
						"getOwnerProducts(uint256,uint256)": "infinite",
						"getSellableProductDetails(uint256)": "infinite",
						"listExistingProductForSale(uint256,uint256)": "infinite",
						"listProductForSale(string,string,string,string[],uint256)": "infinite",
						"ownedSellableProducts(address,uint256)": "infinite",
						"owner()": "2611",
						"productHistory(uint256,uint256)": "infinite",
						"renounceOwnership()": "30441",
						"setFeePercentage(uint256)": "24827",
						"transferOwnership(address)": "30789"
					},
					"internal": {
						"clone(struct MarketPlace.Product memory)": "infinite",
						"containsWord(string memory,string memory)": "infinite",
						"transferFromNonSellableToSellable(address,uint256,uint256)": "infinite",
						"transferFromSellableToNonSellable(address,address,uint256)": "97622"
					}
				},
				"methodIdentifiers": {
					"addNonSellableProduct(string,string,string,string[])": "dd46fa5d",
					"buyProduct(uint256,address)": "a3274c21",
					"checkProductOwnership(uint256)": "28cbc038",
					"filterSellingProducts(string,string,address,uint256,uint256,uint256)": "9ccbff6b",
					"getAllProductsForSale(uint256,uint256)": "6d168461",
					"getHistoryForProduct(uint256)": "fe3d5538",
					"getOwnerProducts(uint256,uint256)": "3f255ff9",
					"getSellableProductDetails(uint256)": "bed59eae",
					"listExistingProductForSale(uint256,uint256)": "e31465df",
					"listProductForSale(string,string,string,string[],uint256)": "0e448c1e",
					"ownedSellableProducts(address,uint256)": "22634d21",
					"owner()": "8da5cb5b",
					"productHistory(uint256,uint256)": "3a7d2376",
					"renounceOwnership()": "715018a6",
					"setFeePercentage(uint256)": "ae06c1b7",
					"transferOwnership(address)": "f2fde38b"
				}
			},
			"storageLayout": {
				"storage": [
					{
						"astId": 965,
						"contract": "contracts/MarketPlace.sol:MarketPlace",
						"label": "_owner",
						"offset": 0,
						"slot": "0",
						"type": "t_address"
					},
					{
						"astId": 65,
						"contract": "contracts/MarketPlace.sol:MarketPlace",
						"label": "idCount",
						"offset": 0,
						"slot": "1",
						"type": "t_uint256"
					},
					{
						"astId": 72,
						"contract": "contracts/MarketPlace.sol:MarketPlace",
						"label": "ownedSellableProducts",
						"offset": 0,
						"slot": "2",
						"type": "t_mapping(t_address,t_mapping(t_uint256,t_struct(SellableProduct)62_storage))"
					},
					{
						"astId": 78,
						"contract": "contracts/MarketPlace.sol:MarketPlace",
						"label": "ownedNonSellableProducts",
						"offset": 0,
						"slot": "3",
						"type": "t_mapping(t_address,t_mapping(t_uint256,t_bool))"
					},
					{
						"astId": 84,
						"contract": "contracts/MarketPlace.sol:MarketPlace",
						"label": "productHistory",
						"offset": 0,
						"slot": "4",
						"type": "t_mapping(t_uint256,t_array(t_struct(TransactionDetails)53_storage)dyn_storage)"
					},
					{
						"astId": 88,
						"contract": "contracts/MarketPlace.sol:MarketPlace",
						"label": "products",
						"offset": 0,
						"slot": "5",
						"type": "t_array(t_struct(Product)42_storage)dyn_storage"
					},
					{
						"astId": 91,
						"contract": "contracts/MarketPlace.sol:MarketPlace",
						"label": "feePricePercentage",
						"offset": 0,
						"slot": "6",
						"type": "t_uint256"
					}
				],
				"types": {
					"t_address": {
						"encoding": "inplace",
						"label": "address",
						"numberOfBytes": "20"
					},
					"t_array(t_string_storage)dyn_storage": {
						"base": "t_string_storage",
						"encoding": "dynamic_array",
						"label": "string[]",
						"numberOfBytes": "32"
					},
					"t_array(t_struct(Product)42_storage)dyn_storage": {
						"base": "t_struct(Product)42_storage",
						"encoding": "dynamic_array",
						"label": "struct MarketPlace.Product[]",
						"numberOfBytes": "32"
					},
					"t_array(t_struct(TransactionDetails)53_storage)dyn_storage": {
						"base": "t_struct(TransactionDetails)53_storage",
						"encoding": "dynamic_array",
						"label": "struct MarketPlace.TransactionDetails[]",
						"numberOfBytes": "32"
					},
					"t_bool": {
						"encoding": "inplace",
						"label": "bool",
						"numberOfBytes": "1"
					},
					"t_mapping(t_address,t_mapping(t_uint256,t_bool))": {
						"encoding": "mapping",
						"key": "t_address",
						"label": "mapping(address => mapping(uint256 => bool))",
						"numberOfBytes": "32",
						"value": "t_mapping(t_uint256,t_bool)"
					},
					"t_mapping(t_address,t_mapping(t_uint256,t_struct(SellableProduct)62_storage))": {
						"encoding": "mapping",
						"key": "t_address",
						"label": "mapping(address => mapping(uint256 => struct MarketPlace.SellableProduct))",
						"numberOfBytes": "32",
						"value": "t_mapping(t_uint256,t_struct(SellableProduct)62_storage)"
					},
					"t_mapping(t_uint256,t_array(t_struct(TransactionDetails)53_storage)dyn_storage)": {
						"encoding": "mapping",
						"key": "t_uint256",
						"label": "mapping(uint256 => struct MarketPlace.TransactionDetails[])",
						"numberOfBytes": "32",
						"value": "t_array(t_struct(TransactionDetails)53_storage)dyn_storage"
					},
					"t_mapping(t_uint256,t_bool)": {
						"encoding": "mapping",
						"key": "t_uint256",
						"label": "mapping(uint256 => bool)",
						"numberOfBytes": "32",
						"value": "t_bool"
					},
					"t_mapping(t_uint256,t_struct(SellableProduct)62_storage)": {
						"encoding": "mapping",
						"key": "t_uint256",
						"label": "mapping(uint256 => struct MarketPlace.SellableProduct)",
						"numberOfBytes": "32",
						"value": "t_struct(SellableProduct)62_storage"
					},
					"t_string_storage": {
						"encoding": "bytes",
						"label": "string",
						"numberOfBytes": "32"
					},
					"t_struct(Product)42_storage": {
						"encoding": "inplace",
						"label": "struct MarketPlace.Product",
						"members": [
							{
								"astId": 28,
								"contract": "contracts/MarketPlace.sol:MarketPlace",
								"label": "id",
								"offset": 0,
								"slot": "0",
								"type": "t_uint256"
							},
							{
								"astId": 30,
								"contract": "contracts/MarketPlace.sol:MarketPlace",
								"label": "owner",
								"offset": 0,
								"slot": "1",
								"type": "t_address"
							},
							{
								"astId": 32,
								"contract": "contracts/MarketPlace.sol:MarketPlace",
								"label": "name",
								"offset": 0,
								"slot": "2",
								"type": "t_string_storage"
							},
							{
								"astId": 34,
								"contract": "contracts/MarketPlace.sol:MarketPlace",
								"label": "description",
								"offset": 0,
								"slot": "3",
								"type": "t_string_storage"
							},
							{
								"astId": 36,
								"contract": "contracts/MarketPlace.sol:MarketPlace",
								"label": "link",
								"offset": 0,
								"slot": "4",
								"type": "t_string_storage"
							},
							{
								"astId": 39,
								"contract": "contracts/MarketPlace.sol:MarketPlace",
								"label": "tags",
								"offset": 0,
								"slot": "5",
								"type": "t_array(t_string_storage)dyn_storage"
							},
							{
								"astId": 41,
								"contract": "contracts/MarketPlace.sol:MarketPlace",
								"label": "forSale",
								"offset": 0,
								"slot": "6",
								"type": "t_bool"
							}
						],
						"numberOfBytes": "224"
					},
					"t_struct(SellableProduct)62_storage": {
						"encoding": "inplace",
						"label": "struct MarketPlace.SellableProduct",
						"members": [
							{
								"astId": 55,
								"contract": "contracts/MarketPlace.sol:MarketPlace",
								"label": "price",
								"offset": 0,
								"slot": "0",
								"type": "t_uint256"
							},
							{
								"astId": 57,
								"contract": "contracts/MarketPlace.sol:MarketPlace",
								"label": "fees",
								"offset": 0,
								"slot": "1",
								"type": "t_uint256"
							},
							{
								"astId": 59,
								"contract": "contracts/MarketPlace.sol:MarketPlace",
								"label": "datetime",
								"offset": 0,
								"slot": "2",
								"type": "t_uint256"
							},
							{
								"astId": 61,
								"contract": "contracts/MarketPlace.sol:MarketPlace",
								"label": "productId",
								"offset": 0,
								"slot": "3",
								"type": "t_uint256"
							}
						],
						"numberOfBytes": "128"
					},
					"t_struct(TransactionDetails)53_storage": {
						"encoding": "inplace",
						"label": "struct MarketPlace.TransactionDetails",
						"members": [
							{
								"astId": 44,
								"contract": "contracts/MarketPlace.sol:MarketPlace",
								"label": "price",
								"offset": 0,
								"slot": "0",
								"type": "t_uint256"
							},
							{
								"astId": 46,
								"contract": "contracts/MarketPlace.sol:MarketPlace",
								"label": "fees",
								"offset": 0,
								"slot": "1",
								"type": "t_uint256"
							},
							{
								"astId": 48,
								"contract": "contracts/MarketPlace.sol:MarketPlace",
								"label": "datetime",
								"offset": 0,
								"slot": "2",
								"type": "t_uint256"
							},
							{
								"astId": 50,
								"contract": "contracts/MarketPlace.sol:MarketPlace",
								"label": "seller",
								"offset": 0,
								"slot": "3",
								"type": "t_address"
							},
							{
								"astId": 52,
								"contract": "contracts/MarketPlace.sol:MarketPlace",
								"label": "buyer",
								"offset": 0,
								"slot": "4",
								"type": "t_address"
							}
						],
						"numberOfBytes": "160"
					},
					"t_uint256": {
						"encoding": "inplace",
						"label": "uint256",
						"numberOfBytes": "32"
					}
				}
			},
			"userdoc": {
				"kind": "user",
				"methods": {},
				"version": 1
			}
		}
	}
}